{
	"crypto-core/contracts/TimedReleaseVoting.sol": {
		"TimedReleaseVoting": {
			"abi": [
				{
					"anonymous": false,
					"inputs": [
						{
							"indexed": false,
							"internalType": "uint256",
							"name": "id",
							"type": "uint256"
						},
						{
							"indexed": false,
							"internalType": "string",
							"name": "title",
							"type": "string"
						}
					],
					"name": "ElectionCreated",
					"type": "event"
				},
				{
					"anonymous": false,
					"inputs": [
						{
							"indexed": true,
							"internalType": "address",
							"name": "holderAddress",
							"type": "address"
						}
					],
					"name": "HolderExited",
					"type": "event"
				},
				{
					"anonymous": false,
					"inputs": [
						{
							"indexed": true,
							"internalType": "address",
							"name": "holderAddress",
							"type": "address"
						},
						{
							"indexed": false,
							"internalType": "uint256[2]",
							"name": "publicKey",
							"type": "uint256[2]"
						}
					],
					"name": "HolderJoined",
					"type": "event"
				},
				{
					"anonymous": false,
					"inputs": [
						{
							"indexed": true,
							"internalType": "bytes",
							"name": "publicKey",
							"type": "bytes"
						},
						{
							"indexed": false,
							"internalType": "uint256",
							"name": "electionId",
							"type": "uint256"
						}
					],
					"name": "HolderJoined2",
					"type": "event"
				},
				{
					"anonymous": false,
					"inputs": [
						{
							"indexed": true,
							"internalType": "address",
							"name": "holderAddress",
							"type": "address"
						},
						{
							"indexed": false,
							"internalType": "uint256",
							"name": "amount",
							"type": "uint256"
						}
					],
					"name": "RewardClaimed",
					"type": "event"
				},
				{
					"anonymous": false,
					"inputs": [
						{
							"indexed": true,
							"internalType": "uint256",
							"name": "voteId",
							"type": "uint256"
						},
						{
							"indexed": false,
							"internalType": "uint256",
							"name": "totalReward",
							"type": "uint256"
						},
						{
							"indexed": false,
							"internalType": "uint256",
							"name": "numRecipients",
							"type": "uint256"
						}
					],
					"name": "RewardDistributed",
					"type": "event"
				},
				{
					"anonymous": false,
					"inputs": [
						{
							"indexed": true,
							"internalType": "uint256",
							"name": "voteId",
							"type": "uint256"
						},
						{
							"indexed": true,
							"internalType": "address",
							"name": "holderAddress",
							"type": "address"
						}
					],
					"name": "ShareSubmitted",
					"type": "event"
				},
				{
					"anonymous": false,
					"inputs": [
						{
							"indexed": true,
							"internalType": "uint256",
							"name": "voteId",
							"type": "uint256"
						},
						{
							"indexed": false,
							"internalType": "uint256",
							"name": "decryptionTime",
							"type": "uint256"
						},
						{
							"indexed": false,
							"internalType": "uint256",
							"name": "threshold",
							"type": "uint256"
						}
					],
					"name": "VoteSubmitted",
					"type": "event"
				},
				{
					"inputs": [],
					"name": "MIN_HOLDERS",
					"outputs": [
						{
							"internalType": "uint256",
							"name": "",
							"type": "uint256"
						}
					],
					"stateMutability": "view",
					"type": "function"
				},
				{
					"inputs": [],
					"name": "REQUIRED_DEPOSIT",
					"outputs": [
						{
							"internalType": "uint256",
							"name": "",
							"type": "uint256"
						}
					],
					"stateMutability": "view",
					"type": "function"
				},
				{
					"inputs": [],
					"name": "REWARD_PER_VOTE",
					"outputs": [
						{
							"internalType": "uint256",
							"name": "",
							"type": "uint256"
						}
					],
					"stateMutability": "view",
					"type": "function"
				},
				{
					"inputs": [],
					"name": "claimRewards",
					"outputs": [],
					"stateMutability": "nonpayable",
					"type": "function"
				},
				{
					"inputs": [
						{
							"internalType": "string",
							"name": "title",
							"type": "string"
						},
						{
							"internalType": "string",
							"name": "description",
							"type": "string"
						},
						{
							"internalType": "uint256",
							"name": "startDate",
							"type": "uint256"
						},
						{
							"internalType": "uint256",
							"name": "endDate",
							"type": "uint256"
						},
						{
							"internalType": "string[]",
							"name": "options",
							"type": "string[]"
						},
						{
							"internalType": "uint256",
							"name": "rewardPool",
							"type": "uint256"
						},
						{
							"internalType": "uint256",
							"name": "electionDeposit",
							"type": "uint256"
						}
					],
					"name": "createElection",
					"outputs": [
						{
							"internalType": "uint256",
							"name": "",
							"type": "uint256"
						}
					],
					"stateMutability": "nonpayable",
					"type": "function"
				},
				{
					"inputs": [
						{
							"internalType": "uint256",
							"name": "",
							"type": "uint256"
						}
					],
					"name": "election",
					"outputs": [
						{
							"internalType": "uint256",
							"name": "id",
							"type": "uint256"
						},
						{
							"internalType": "string",
							"name": "title",
							"type": "string"
						},
						{
							"internalType": "string",
							"name": "description",
							"type": "string"
						},
						{
							"internalType": "uint256",
							"name": "startDate",
							"type": "uint256"
						},
						{
							"internalType": "uint256",
							"name": "endDate",
							"type": "uint256"
						},
						{
							"internalType": "uint256",
							"name": "rewardPool",
							"type": "uint256"
						},
						{
							"internalType": "uint256",
							"name": "electionDeposit",
							"type": "uint256"
						}
					],
					"stateMutability": "view",
					"type": "function"
				},
				{
					"inputs": [],
					"name": "electionCount",
					"outputs": [
						{
							"internalType": "uint256",
							"name": "",
							"type": "uint256"
						}
					],
					"stateMutability": "view",
					"type": "function"
				},
				{
					"inputs": [],
					"name": "exitAsHolder",
					"outputs": [],
					"stateMutability": "nonpayable",
					"type": "function"
				},
				{
					"inputs": [
						{
							"internalType": "address",
							"name": "holderAddress",
							"type": "address"
						},
						{
							"internalType": "uint256",
							"name": "voteId",
							"type": "uint256"
						}
					],
					"name": "forceExitHolder",
					"outputs": [],
					"stateMutability": "nonpayable",
					"type": "function"
				},
				{
					"inputs": [
						{
							"internalType": "uint256",
							"name": "voteId",
							"type": "uint256"
						}
					],
					"name": "getElection",
					"outputs": [
						{
							"internalType": "uint256",
							"name": "id",
							"type": "uint256"
						},
						{
							"internalType": "string",
							"name": "title",
							"type": "string"
						},
						{
							"internalType": "string",
							"name": "description",
							"type": "string"
						},
						{
							"internalType": "uint256",
							"name": "startDate",
							"type": "uint256"
						},
						{
							"internalType": "uint256",
							"name": "endDate",
							"type": "uint256"
						},
						{
							"internalType": "string[]",
							"name": "options",
							"type": "string[]"
						},
						{
							"internalType": "uint256",
							"name": "rewardPool",
							"type": "uint256"
						},
						{
							"internalType": "uint256",
							"name": "electionDeposit",
							"type": "uint256"
						}
					],
					"stateMutability": "view",
					"type": "function"
				},
				{
					"inputs": [
						{
							"internalType": "address",
							"name": "holderAddress",
							"type": "address"
						}
					],
					"name": "getHolderPublicKey",
					"outputs": [
						{
							"internalType": "uint256[2]",
							"name": "",
							"type": "uint256[2]"
						}
					],
					"stateMutability": "view",
					"type": "function"
				},
				{
					"inputs": [
						{
							"internalType": "address",
							"name": "holderAddress",
							"type": "address"
						}
					],
					"name": "getHolderRewards",
					"outputs": [
						{
							"internalType": "uint256",
							"name": "",
							"type": "uint256"
						}
					],
					"stateMutability": "view",
					"type": "function"
				},
				{
					"inputs": [],
					"name": "getHolders",
					"outputs": [
						{
							"internalType": "address[]",
							"name": "",
							"type": "address[]"
						}
					],
					"stateMutability": "view",
					"type": "function"
				},
				{
					"inputs": [],
					"name": "getNumHolders",
					"outputs": [
						{
							"internalType": "uint256",
							"name": "",
							"type": "uint256"
						}
					],
					"stateMutability": "view",
					"type": "function"
				},
				{
					"inputs": [
						{
							"internalType": "uint256",
							"name": "electionId",
							"type": "uint256"
						}
					],
					"name": "getNumHoldersByElection",
					"outputs": [
						{
							"internalType": "uint256",
							"name": "",
							"type": "uint256"
						}
					],
					"stateMutability": "view",
					"type": "function"
				},
				{
					"inputs": [
						{
							"internalType": "uint256",
							"name": "voteId",
							"type": "uint256"
						}
					],
					"name": "getSubmittedShares",
					"outputs": [
						{
							"internalType": "address[]",
							"name": "submitters",
							"type": "address[]"
						},
						{
							"internalType": "uint256[2][]",
							"name": "shares",
							"type": "uint256[2][]"
						}
					],
					"stateMutability": "view",
					"type": "function"
				},
				{
					"inputs": [
						{
							"internalType": "uint256",
							"name": "voteId",
							"type": "uint256"
						}
					],
					"name": "getVote",
					"outputs": [
						{
							"internalType": "bytes",
							"name": "ciphertext",
							"type": "bytes"
						},
						{
							"internalType": "bytes",
							"name": "nonce",
							"type": "bytes"
						},
						{
							"internalType": "uint256",
							"name": "decryptionTime",
							"type": "uint256"
						},
						{
							"internalType": "uint256[2]",
							"name": "g2r",
							"type": "uint256[2]"
						},
						{
							"internalType": "uint256",
							"name": "threshold",
							"type": "uint256"
						}
					],
					"stateMutability": "view",
					"type": "function"
				},
				{
					"inputs": [
						{
							"internalType": "uint256",
							"name": "voteId",
							"type": "uint256"
						}
					],
					"name": "getVoteReward",
					"outputs": [
						{
							"internalType": "uint256",
							"name": "",
							"type": "uint256"
						}
					],
					"stateMutability": "view",
					"type": "function"
				},
				{
					"inputs": [
						{
							"internalType": "uint256",
							"name": "",
							"type": "uint256"
						}
					],
					"name": "holderAddresses",
					"outputs": [
						{
							"internalType": "address",
							"name": "",
							"type": "address"
						}
					],
					"stateMutability": "view",
					"type": "function"
				},
				{
					"inputs": [
						{
							"internalType": "uint256",
							"name": "",
							"type": "uint256"
						}
					],
					"name": "holderAddresses2",
					"outputs": [
						{
							"internalType": "bytes",
							"name": "",
							"type": "bytes"
						}
					],
					"stateMutability": "view",
					"type": "function"
				},
				{
					"inputs": [
						{
							"internalType": "address",
							"name": "",
							"type": "address"
						}
					],
					"name": "holders",
					"outputs": [
						{
							"internalType": "uint256",
							"name": "deposit",
							"type": "uint256"
						},
						{
							"internalType": "bool",
							"name": "active",
							"type": "bool"
						},
						{
							"internalType": "uint256",
							"name": "rewards",
							"type": "uint256"
						}
					],
					"stateMutability": "view",
					"type": "function"
				},
				{
					"inputs": [
						{
							"internalType": "bytes",
							"name": "",
							"type": "bytes"
						}
					],
					"name": "holders2",
					"outputs": [
						{
							"internalType": "bytes",
							"name": "publicKey",
							"type": "bytes"
						},
						{
							"internalType": "address",
							"name": "walletAddress",
							"type": "address"
						},
						{
							"internalType": "uint256",
							"name": "electionId",
							"type": "uint256"
						},
						{
							"internalType": "bool",
							"name": "active",
							"type": "bool"
						},
						{
							"internalType": "uint256",
							"name": "rewards",
							"type": "uint256"
						}
					],
					"stateMutability": "view",
					"type": "function"
				},
				{
					"inputs": [
						{
							"internalType": "address",
							"name": "holderAddress",
							"type": "address"
						}
					],
					"name": "isHolder",
					"outputs": [
						{
							"internalType": "bool",
							"name": "",
							"type": "bool"
						}
					],
					"stateMutability": "view",
					"type": "function"
				},
				{
					"inputs": [
						{
							"internalType": "uint256",
							"name": "electionId",
							"type": "uint256"
						},
						{
							"internalType": "bytes",
							"name": "publicKey",
							"type": "bytes"
						}
					],
					"name": "joinAsHolder",
					"outputs": [],
					"stateMutability": "payable",
					"type": "function"
				},
				{
					"inputs": [],
					"name": "requiredDeposit",
					"outputs": [
						{
							"internalType": "uint256",
							"name": "",
							"type": "uint256"
						}
					],
					"stateMutability": "pure",
					"type": "function"
				},
				{
					"inputs": [
						{
							"internalType": "uint256",
							"name": "voteId",
							"type": "uint256"
						},
						{
							"internalType": "uint256",
							"name": "shareIndex",
							"type": "uint256"
						},
						{
							"internalType": "uint256",
							"name": "shareValue",
							"type": "uint256"
						}
					],
					"name": "submitShare",
					"outputs": [],
					"stateMutability": "nonpayable",
					"type": "function"
				},
				{
					"inputs": [
						{
							"internalType": "bytes",
							"name": "ciphertext",
							"type": "bytes"
						},
						{
							"internalType": "bytes",
							"name": "nonce",
							"type": "bytes"
						},
						{
							"internalType": "uint256",
							"name": "decryptionTime",
							"type": "uint256"
						},
						{
							"internalType": "uint256[2]",
							"name": "g2r",
							"type": "uint256[2]"
						},
						{
							"internalType": "uint256",
							"name": "threshold",
							"type": "uint256"
						}
					],
					"name": "submitVote",
					"outputs": [],
					"stateMutability": "payable",
					"type": "function"
				},
				{
					"inputs": [
						{
							"internalType": "uint256",
							"name": "voteId",
							"type": "uint256"
						}
					],
					"name": "triggerRewardDistribution",
					"outputs": [],
					"stateMutability": "nonpayable",
					"type": "function"
				},
				{
					"inputs": [
						{
							"internalType": "uint256",
							"name": "electionId",
							"type": "uint256"
						}
					],
					"name": "unJoinAsHolder",
					"outputs": [],
					"stateMutability": "nonpayable",
					"type": "function"
				},
				{
					"inputs": [],
					"name": "voteCount",
					"outputs": [
						{
							"internalType": "uint256",
							"name": "",
							"type": "uint256"
						}
					],
					"stateMutability": "view",
					"type": "function"
				},
				{
					"inputs": [
						{
							"internalType": "uint256",
							"name": "",
							"type": "uint256"
						}
					],
					"name": "votes",
					"outputs": [
						{
							"internalType": "bytes",
							"name": "ciphertext",
							"type": "bytes"
						},
						{
							"internalType": "bytes",
							"name": "nonce",
							"type": "bytes"
						},
						{
							"internalType": "uint256",
							"name": "decryptionTime",
							"type": "uint256"
						},
						{
							"internalType": "bool",
							"name": "exists",
							"type": "bool"
						},
						{
							"internalType": "uint256",
							"name": "reward",
							"type": "uint256"
						},
						{
							"internalType": "bool",
							"name": "rewardDistributed",
							"type": "bool"
						},
						{
							"internalType": "uint256",
							"name": "threshold",
							"type": "uint256"
						}
					],
					"stateMutability": "view",
					"type": "function"
				}
			],
			"devdoc": {
				"details": "Implements a voting system with timed release encryption This contract combines vote management with threshold cryptography to ensure votes remain secret until a predetermined time.",
				"kind": "dev",
				"methods": {
					"claimRewards()": {
						"details": "Claim accumulated rewards"
					},
					"exitAsHolder()": {
						"details": "Exit as a secret holder and withdraw deposit"
					},
					"forceExitHolder(address,uint256)": {
						"details": "Force exit a holder who failed to submit shares",
						"params": {
							"holderAddress": "The address of the holder to force exit",
							"voteId": "The ID of the vote for which the holder failed to submit a share"
						}
					},
					"getHolderPublicKey(address)": {
						"details": "Get the public key of a holder",
						"params": {
							"holderAddress": "The address of the holder"
						},
						"returns": {
							"_0": "The public key of the holder"
						}
					},
					"getHolderRewards(address)": {
						"details": "Get the accumulated rewards for a holder",
						"params": {
							"holderAddress": "The address of the holder"
						},
						"returns": {
							"_0": "The accumulated rewards for the holder"
						}
					},
					"getHolders()": {
						"details": "Get all registered holders",
						"returns": {
							"_0": "Array of holder addresses"
						}
					},
					"getNumHolders()": {
						"details": "Get the number of registered holders",
						"returns": {
							"_0": "The number of holders"
						}
					},
					"getNumHoldersByElection(uint256)": {
						"details": "Get the number of registered holders for a specific election",
						"params": {
							"electionId": "The ID of the election"
						},
						"returns": {
							"_0": "The number of holders for the given election"
						}
					},
					"getSubmittedShares(uint256)": {
						"details": "Get submitted shares for a vote",
						"params": {
							"voteId": "The ID of the vote"
						},
						"returns": {
							"shares": "Array of shares submitted by holders",
							"submitters": "Array of holder addresses that submitted shares"
						}
					},
					"getVote(uint256)": {
						"details": "Get vote data",
						"params": {
							"voteId": "The ID of the vote"
						},
						"returns": {
							"ciphertext": "The encrypted vote data",
							"decryptionTime": "The time when the vote can be decrypted",
							"g2r": "The G2 point used for share verification",
							"nonce": "The encryption nonce",
							"threshold": "The minimum number of shares needed for decryption"
						}
					},
					"getVoteReward(uint256)": {
						"details": "Get vote reward amount",
						"params": {
							"voteId": "The ID of the vote"
						},
						"returns": {
							"_0": "The reward amount for the vote"
						}
					},
					"isHolder(address)": {
						"details": "Check if an address is a registered holder",
						"params": {
							"holderAddress": "The address to check"
						},
						"returns": {
							"_0": "True if the address is a registered holder"
						}
					},
					"joinAsHolder(uint256,bytes)": {
						"details": "Join as a secret holder by staking a deposit",
						"params": {
							"electionId": "The ID of the election",
							"publicKey": "The BLS12-381 public key of the holder"
						}
					},
					"requiredDeposit()": {
						"details": "Get the required deposit amount",
						"returns": {
							"_0": "The required deposit amount in wei"
						}
					},
					"submitShare(uint256,uint256,uint256)": {
						"details": "Submit a share for a vote",
						"params": {
							"shareIndex": "The index of the share",
							"shareValue": "The value of the share",
							"voteId": "The ID of the vote"
						}
					},
					"submitVote(bytes,bytes,uint256,uint256[2],uint256)": {
						"details": "Submit an encrypted vote",
						"params": {
							"ciphertext": "The encrypted vote data",
							"decryptionTime": "The time when the vote can be decrypted",
							"g2r": "The G2 point used for share verification",
							"nonce": "The encryption nonce",
							"threshold": "The minimum number of shares needed for decryption"
						}
					},
					"triggerRewardDistribution(uint256)": {
						"details": "Manually trigger reward distribution for a vote",
						"params": {
							"voteId": "The ID of the vote"
						}
					},
					"unJoinAsHolder(uint256)": {
						"details": "Allow a holder who no longer wants to be a secret holder to deregister (assumes no pending votes)",
						"params": {
							"electionId": "The ID of the election"
						}
					}
				},
				"title": "TimedReleaseVoting",
				"version": 1
			},
			"evm": {
				"assembly": "    /* \"crypto-core/contracts/TimedReleaseVoting.sol\":303:18906  contract TimedReleaseVoting {... */\n  mstore(0x40, 0x80)\n  callvalue\n  dup1\n  iszero\n  tag_1\n  jumpi\n  0x00\n  dup1\n  revert\ntag_1:\n  pop\n  dataSize(sub_0)\n  dup1\n  dataOffset(sub_0)\n  0x00\n  codecopy\n  0x00\n  return\nstop\n\nsub_0: assembly {\n        /* \"crypto-core/contracts/TimedReleaseVoting.sol\":303:18906  contract TimedReleaseVoting {... */\n      mstore(0x40, 0x80)\n      jumpi(tag_1, lt(calldatasize, 0x04))\n      shr(0xe0, calldataload(0x00))\n      dup1\n      0x7897d89a\n      gt\n      tag_33\n      jumpi\n      dup1\n      0xbe64b76b\n      gt\n      tag_34\n      jumpi\n      dup1\n      0xdb8d9429\n      gt\n      tag_35\n      jumpi\n      dup1\n      0xdb8d9429\n      eq\n      tag_29\n      jumpi\n      dup1\n      0xf4d70468\n      eq\n      tag_30\n      jumpi\n      dup1\n      0xf9b0b1eb\n      eq\n      tag_31\n      jumpi\n      dup1\n      0xfb7cfdd7\n      eq\n      tag_32\n      jumpi\n      jump(tag_1)\n    tag_35:\n      dup1\n      0xbe64b76b\n      eq\n      tag_25\n      jumpi\n      dup1\n      0xc6384071\n      eq\n      tag_26\n      jumpi\n      dup1\n      0xc7344165\n      eq\n      tag_27\n      jumpi\n      dup1\n      0xd4d7b19a\n      eq\n      tag_28\n      jumpi\n      jump(tag_1)\n    tag_34:\n      dup1\n      0x997d2830\n      gt\n      tag_36\n      jumpi\n      dup1\n      0x997d2830\n      eq\n      tag_21\n      jumpi\n      dup1\n      0x9d710777\n      eq\n      tag_22\n      jumpi\n      dup1\n      0xabbd8fef\n      eq\n      tag_23\n      jumpi\n      dup1\n      0xadff2123\n      eq\n      tag_24\n      jumpi\n      jump(tag_1)\n    tag_36:\n      dup1\n      0x7897d89a\n      eq\n      tag_17\n      jumpi\n      dup1\n      0x7bbce9f5\n      eq\n      tag_18\n      jumpi\n      dup1\n      0x83af2d16\n      eq\n      tag_19\n      jumpi\n      dup1\n      0x910b0691\n      eq\n      tag_20\n      jumpi\n      jump(tag_1)\n    tag_33:\n      dup1\n      0x372500ab\n      gt\n      tag_37\n      jumpi\n      dup1\n      0x5c1a82e0\n      gt\n      tag_38\n      jumpi\n      dup1\n      0x5c1a82e0\n      eq\n      tag_13\n      jumpi\n      dup1\n      0x5df81330\n      eq\n      tag_14\n      jumpi\n      dup1\n      0x5fe8e7cc\n      eq\n      tag_15\n      jumpi\n      dup1\n      0x7018a178\n      eq\n      tag_16\n      jumpi\n      jump(tag_1)\n    tag_38:\n      dup1\n      0x372500ab\n      eq\n      tag_9\n      jumpi\n      dup1\n      0x3f056905\n      eq\n      tag_10\n      jumpi\n      dup1\n      0x3fc4f914\n      eq\n      tag_11\n      jumpi\n      dup1\n      0x5a55c1f0\n      eq\n      tag_12\n      jumpi\n      jump(tag_1)\n    tag_37:\n      dup1\n      0x118e47bc\n      gt\n      tag_39\n      jumpi\n      dup1\n      0x118e47bc\n      eq\n      tag_5\n      jumpi\n      dup1\n      0x18a5bbdc\n      eq\n      tag_6\n      jumpi\n      dup1\n      0x1c43b504\n      eq\n      tag_7\n      jumpi\n      dup1\n      0x1d1fad0a\n      eq\n      tag_8\n      jumpi\n      jump(tag_1)\n    tag_39:\n      dup1\n      0x02a5f856\n      eq\n      tag_2\n      jumpi\n      dup1\n      0x041d3138\n      eq\n      tag_3\n      jumpi\n      dup1\n      0x0f8c9e28\n      eq\n      tag_4\n      jumpi\n    tag_1:\n      0x00\n      dup1\n      revert\n        /* \"crypto-core/contracts/TimedReleaseVoting.sol\":715:1235  function createElection(... */\n    tag_2:\n      callvalue\n      dup1\n      iszero\n      tag_40\n      jumpi\n      0x00\n      dup1\n      revert\n    tag_40:\n      pop\n      tag_41\n      0x04\n      dup1\n      calldatasize\n      sub\n      dup2\n      add\n      swap1\n      tag_42\n      swap2\n      swap1\n      tag_43\n      jump\t// in\n    tag_42:\n      tag_44\n      jump\t// in\n    tag_41:\n      mload(0x40)\n      tag_45\n      swap2\n      swap1\n      tag_46\n      jump\t// in\n    tag_45:\n      mload(0x40)\n      dup1\n      swap2\n      sub\n      swap1\n      return\n        /* \"crypto-core/contracts/TimedReleaseVoting.sol\":18770:18904  function getVoteReward(uint256 voteId) external view voteExists(voteId) returns (uint256) {... */\n    tag_3:\n      callvalue\n      dup1\n      iszero\n      tag_47\n      jumpi\n      0x00\n      dup1\n      revert\n    tag_47:\n      pop\n      tag_48\n      0x04\n      dup1\n      calldatasize\n      sub\n      dup2\n      add\n      swap1\n      tag_49\n      swap2\n      swap1\n      tag_50\n      jump\t// in\n    tag_49:\n      tag_51\n      jump\t// in\n    tag_48:\n      mload(0x40)\n      tag_52\n      swap2\n      swap1\n      tag_46\n      jump\t// in\n    tag_52:\n      mload(0x40)\n      dup1\n      swap2\n      sub\n      swap1\n      return\n        /* \"crypto-core/contracts/TimedReleaseVoting.sol\":3279:3311  address[] public holderAddresses */\n    tag_4:\n      callvalue\n      dup1\n      iszero\n      tag_53\n      jumpi\n      0x00\n      dup1\n      revert\n    tag_53:\n      pop\n      tag_54\n      0x04\n      dup1\n      calldatasize\n      sub\n      dup2\n      add\n      swap1\n      tag_55\n      swap2\n      swap1\n      tag_50\n      jump\t// in\n    tag_55:\n      tag_56\n      jump\t// in\n    tag_54:\n      mload(0x40)\n      tag_57\n      swap2\n      swap1\n      tag_58\n      jump\t// in\n    tag_57:\n      mload(0x40)\n      dup1\n      swap2\n      sub\n      swap1\n      return\n        /* \"crypto-core/contracts/TimedReleaseVoting.sol\":8622:9711  function submitVote(... */\n    tag_5:\n      tag_59\n      0x04\n      dup1\n      calldatasize\n      sub\n      dup2\n      add\n      swap1\n      tag_60\n      swap2\n      swap1\n      tag_61\n      jump\t// in\n    tag_60:\n      tag_62\n      jump\t// in\n    tag_59:\n      stop\n        /* \"crypto-core/contracts/TimedReleaseVoting.sol\":3185:3226  mapping(address => Holder) public holders */\n    tag_6:\n      callvalue\n      dup1\n      iszero\n      tag_63\n      jumpi\n      0x00\n      dup1\n      revert\n    tag_63:\n      pop\n      tag_64\n      0x04\n      dup1\n      calldatasize\n      sub\n      dup2\n      add\n      swap1\n      tag_65\n      swap2\n      swap1\n      tag_66\n      jump\t// in\n    tag_65:\n      tag_67\n      jump\t// in\n    tag_64:\n      mload(0x40)\n      tag_68\n      swap4\n      swap3\n      swap2\n      swap1\n      tag_69\n      jump\t// in\n    tag_68:\n      mload(0x40)\n      dup1\n      swap2\n      sub\n      swap1\n      return\n        /* \"crypto-core/contracts/TimedReleaseVoting.sol\":3232:3273  mapping(bytes => Holder2) public holders2 */\n    tag_7:\n      callvalue\n      dup1\n      iszero\n      tag_70\n      jumpi\n      0x00\n      dup1\n      revert\n    tag_70:\n      pop\n      tag_71\n      0x04\n      dup1\n      calldatasize\n      sub\n      dup2\n      add\n      swap1\n      tag_72\n      swap2\n      swap1\n      tag_73\n      jump\t// in\n    tag_72:\n      tag_74\n      jump\t// in\n    tag_71:\n      mload(0x40)\n      tag_75\n      swap6\n      swap5\n      swap4\n      swap3\n      swap2\n      swap1\n      tag_76\n      jump\t// in\n    tag_75:\n      mload(0x40)\n      dup1\n      swap2\n      sub\n      swap1\n      return\n        /* \"crypto-core/contracts/TimedReleaseVoting.sol\":5749:6855  function unJoinAsHolder(uint256 electionId) external onlyHolder {... */\n    tag_8:\n      callvalue\n      dup1\n      iszero\n      tag_77\n      jumpi\n      0x00\n      dup1\n      revert\n    tag_77:\n      pop\n      tag_78\n      0x04\n      dup1\n      calldatasize\n      sub\n      dup2\n      add\n      swap1\n      tag_79\n      swap2\n      swap1\n      tag_50\n      jump\t// in\n    tag_79:\n      tag_80\n      jump\t// in\n    tag_78:\n      stop\n        /* \"crypto-core/contracts/TimedReleaseVoting.sol\":12702:13036  function claimRewards() external onlyHolder {... */\n    tag_9:\n      callvalue\n      dup1\n      iszero\n      tag_81\n      jumpi\n      0x00\n      dup1\n      revert\n    tag_81:\n      pop\n      tag_82\n      tag_83\n      jump\t// in\n    tag_82:\n      stop\n        /* \"crypto-core/contracts/TimedReleaseVoting.sol\":576:620  mapping(uint256 => Election) public election */\n    tag_10:\n      callvalue\n      dup1\n      iszero\n      tag_84\n      jumpi\n      0x00\n      dup1\n      revert\n    tag_84:\n      pop\n      tag_85\n      0x04\n      dup1\n      calldatasize\n      sub\n      dup2\n      add\n      swap1\n      tag_86\n      swap2\n      swap1\n      tag_50\n      jump\t// in\n    tag_86:\n      tag_87\n      jump\t// in\n    tag_85:\n      mload(0x40)\n      tag_88\n      swap8\n      swap7\n      swap6\n      swap5\n      swap4\n      swap3\n      swap2\n      swap1\n      tag_89\n      jump\t// in\n    tag_88:\n      mload(0x40)\n      dup1\n      swap2\n      sub\n      swap1\n      return\n        /* \"crypto-core/contracts/TimedReleaseVoting.sol\":6939:8266  function exitAsHolder() external onlyHolder {... */\n    tag_11:\n      callvalue\n      dup1\n      iszero\n      tag_90\n      jumpi\n      0x00\n      dup1\n      revert\n    tag_90:\n      pop\n      tag_91\n      tag_92\n      jump\t// in\n    tag_91:\n      stop\n        /* \"crypto-core/contracts/TimedReleaseVoting.sol\":16619:17066  function getVote(uint256 voteId) external view voteExists(voteId) returns (... */\n    tag_12:\n      callvalue\n      dup1\n      iszero\n      tag_93\n      jumpi\n      0x00\n      dup1\n      revert\n    tag_93:\n      pop\n      tag_94\n      0x04\n      dup1\n      calldatasize\n      sub\n      dup2\n      add\n      swap1\n      tag_95\n      swap2\n      swap1\n      tag_50\n      jump\t// in\n    tag_95:\n      tag_96\n      jump\t// in\n    tag_94:\n      mload(0x40)\n      tag_97\n      swap6\n      swap5\n      swap4\n      swap3\n      swap2\n      swap1\n      tag_98\n      jump\t// in\n    tag_97:\n      mload(0x40)\n      dup1\n      swap2\n      sub\n      swap1\n      return\n        /* \"crypto-core/contracts/TimedReleaseVoting.sol\":4715:5569  function joinAsHolder(uint256 electionId, bytes memory publicKey) external payable {... */\n    tag_13:\n      tag_99\n      0x04\n      dup1\n      calldatasize\n      sub\n      dup2\n      add\n      swap1\n      tag_100\n      swap2\n      swap1\n      tag_101\n      jump\t// in\n    tag_100:\n      tag_102\n      jump\t// in\n    tag_99:\n      stop\n        /* \"crypto-core/contracts/TimedReleaseVoting.sol\":3354:3391  mapping(uint256 => Vote) public votes */\n    tag_14:\n      callvalue\n      dup1\n      iszero\n      tag_103\n      jumpi\n      0x00\n      dup1\n      revert\n    tag_103:\n      pop\n      tag_104\n      0x04\n      dup1\n      calldatasize\n      sub\n      dup2\n      add\n      swap1\n      tag_105\n      swap2\n      swap1\n      tag_50\n      jump\t// in\n    tag_105:\n      tag_106\n      jump\t// in\n    tag_104:\n      mload(0x40)\n      tag_107\n      swap8\n      swap7\n      swap6\n      swap5\n      swap4\n      swap3\n      swap2\n      swap1\n      tag_108\n      jump\t// in\n    tag_107:\n      mload(0x40)\n      dup1\n      swap2\n      sub\n      swap1\n      return\n        /* \"crypto-core/contracts/TimedReleaseVoting.sol\":15743:16229  function getHolders() external view returns (address[] memory) {... */\n    tag_15:\n      callvalue\n      dup1\n      iszero\n      tag_109\n      jumpi\n      0x00\n      dup1\n      revert\n    tag_109:\n      pop\n      tag_110\n      tag_111\n      jump\t// in\n    tag_110:\n      mload(0x40)\n      tag_112\n      swap2\n      swap1\n      tag_113\n      jump\t// in\n    tag_112:\n      mload(0x40)\n      dup1\n      swap2\n      sub\n      swap1\n      return\n        /* \"crypto-core/contracts/TimedReleaseVoting.sol\":15416:15637  function getHolderPublicKey(address holderAddress) external view returns (uint256[2] memory) {... */\n    tag_16:\n      callvalue\n      dup1\n      iszero\n      tag_114\n      jumpi\n      0x00\n      dup1\n      revert\n    tag_114:\n      pop\n      tag_115\n      0x04\n      dup1\n      calldatasize\n      sub\n      dup2\n      add\n      swap1\n      tag_116\n      swap2\n      swap1\n      tag_66\n      jump\t// in\n    tag_116:\n      tag_117\n      jump\t// in\n    tag_115:\n      mload(0x40)\n      tag_118\n      swap2\n      swap1\n      tag_119\n      jump\t// in\n    tag_118:\n      mload(0x40)\n      dup1\n      swap2\n      sub\n      swap1\n      return\n        /* \"crypto-core/contracts/TimedReleaseVoting.sol\":17309:17771  function getSubmittedShares(uint256 voteId) external view voteExists(voteId) returns (... */\n    tag_17:\n      callvalue\n      dup1\n      iszero\n      tag_120\n      jumpi\n      0x00\n      dup1\n      revert\n    tag_120:\n      pop\n      tag_121\n      0x04\n      dup1\n      calldatasize\n      sub\n      dup2\n      add\n      swap1\n      tag_122\n      swap2\n      swap1\n      tag_50\n      jump\t// in\n    tag_122:\n      tag_123\n      jump\t// in\n    tag_121:\n      mload(0x40)\n      tag_124\n      swap3\n      swap2\n      swap1\n      tag_125\n      jump\t// in\n    tag_124:\n      mload(0x40)\n      dup1\n      swap2\n      sub\n      swap1\n      return\n        /* \"crypto-core/contracts/TimedReleaseVoting.sol\":9911:10540  function submitShare(... */\n    tag_18:\n      callvalue\n      dup1\n      iszero\n      tag_126\n      jumpi\n      0x00\n      dup1\n      revert\n    tag_126:\n      pop\n      tag_127\n      0x04\n      dup1\n      calldatasize\n      sub\n      dup2\n      add\n      swap1\n      tag_128\n      swap2\n      swap1\n      tag_129\n      jump\t// in\n    tag_128:\n      tag_130\n      jump\t// in\n    tag_127:\n      stop\n        /* \"crypto-core/contracts/TimedReleaseVoting.sol\":14887:15253  function getNumHoldersByElection(uint256 electionId) public view returns (uint256) {... */\n    tag_19:\n      callvalue\n      dup1\n      iszero\n      tag_131\n      jumpi\n      0x00\n      dup1\n      revert\n    tag_131:\n      pop\n      tag_132\n      0x04\n      dup1\n      calldatasize\n      sub\n      dup2\n      add\n      swap1\n      tag_133\n      swap2\n      swap1\n      tag_50\n      jump\t// in\n    tag_133:\n      tag_134\n      jump\t// in\n    tag_132:\n      mload(0x40)\n      tag_135\n      swap2\n      swap1\n      tag_46\n      jump\t// in\n    tag_135:\n      mload(0x40)\n      dup1\n      swap2\n      sub\n      swap1\n      return\n        /* \"crypto-core/contracts/TimedReleaseVoting.sol\":10666:11206  function triggerRewardDistribution(uint256 voteId) external voteExists(voteId) afterDecryptionTime(voteId) {... */\n    tag_20:\n      callvalue\n      dup1\n      iszero\n      tag_136\n      jumpi\n      0x00\n      dup1\n      revert\n    tag_136:\n      pop\n      tag_137\n      0x04\n      dup1\n      calldatasize\n      sub\n      dup2\n      add\n      swap1\n      tag_138\n      swap2\n      swap1\n      tag_50\n      jump\t// in\n    tag_138:\n      tag_139\n      jump\t// in\n    tag_137:\n      stop\n        /* \"crypto-core/contracts/TimedReleaseVoting.sol\":626:654  uint256 public electionCount */\n    tag_21:\n      callvalue\n      dup1\n      iszero\n      tag_140\n      jumpi\n      0x00\n      dup1\n      revert\n    tag_140:\n      pop\n      tag_141\n      tag_142\n      jump\t// in\n    tag_141:\n      mload(0x40)\n      tag_143\n      swap2\n      swap1\n      tag_46\n      jump\t// in\n    tag_143:\n      mload(0x40)\n      dup1\n      swap2\n      sub\n      swap1\n      return\n        /* \"crypto-core/contracts/TimedReleaseVoting.sol\":1245:1775  function getElection(uint256 voteId) public view returns (... */\n    tag_22:\n      callvalue\n      dup1\n      iszero\n      tag_144\n      jumpi\n      0x00\n      dup1\n      revert\n    tag_144:\n      pop\n      tag_145\n      0x04\n      dup1\n      calldatasize\n      sub\n      dup2\n      add\n      swap1\n      tag_146\n      swap2\n      swap1\n      tag_50\n      jump\t// in\n    tag_146:\n      tag_147\n      jump\t// in\n    tag_145:\n      mload(0x40)\n      tag_148\n      swap9\n      swap8\n      swap7\n      swap6\n      swap5\n      swap4\n      swap3\n      swap2\n      swap1\n      tag_149\n      jump\t// in\n    tag_148:\n      mload(0x40)\n      dup1\n      swap2\n      sub\n      swap1\n      return\n        /* \"crypto-core/contracts/TimedReleaseVoting.sol\":2970:3009  uint256 public constant MIN_HOLDERS = 3 */\n    tag_23:\n      callvalue\n      dup1\n      iszero\n      tag_150\n      jumpi\n      0x00\n      dup1\n      revert\n    tag_150:\n      pop\n      tag_151\n      tag_152\n      jump\t// in\n    tag_151:\n      mload(0x40)\n      tag_153\n      swap2\n      swap1\n      tag_46\n      jump\t// in\n    tag_153:\n      mload(0x40)\n      dup1\n      swap2\n      sub\n      swap1\n      return\n        /* \"crypto-core/contracts/TimedReleaseVoting.sol\":3317:3348  bytes[] public holderAddresses2 */\n    tag_24:\n      callvalue\n      dup1\n      iszero\n      tag_154\n      jumpi\n      0x00\n      dup1\n      revert\n    tag_154:\n      pop\n      tag_155\n      0x04\n      dup1\n      calldatasize\n      sub\n      dup2\n      add\n      swap1\n      tag_156\n      swap2\n      swap1\n      tag_50\n      jump\t// in\n    tag_156:\n      tag_157\n      jump\t// in\n    tag_155:\n      mload(0x40)\n      tag_158\n      swap2\n      swap1\n      tag_159\n      jump\t// in\n    tag_158:\n      mload(0x40)\n      dup1\n      swap2\n      sub\n      swap1\n      return\n        /* \"crypto-core/contracts/TimedReleaseVoting.sol\":2874:2924  uint256 public constant REQUIRED_DEPOSIT = 1 ether */\n    tag_25:\n      callvalue\n      dup1\n      iszero\n      tag_160\n      jumpi\n      0x00\n      dup1\n      revert\n    tag_160:\n      pop\n      tag_161\n      tag_162\n      jump\t// in\n    tag_161:\n      mload(0x40)\n      tag_163\n      swap2\n      swap1\n      tag_46\n      jump\t// in\n    tag_163:\n      mload(0x40)\n      dup1\n      swap2\n      sub\n      swap1\n      return\n        /* \"crypto-core/contracts/TimedReleaseVoting.sol\":3397:3421  uint256 public voteCount */\n    tag_26:\n      callvalue\n      dup1\n      iszero\n      tag_164\n      jumpi\n      0x00\n      dup1\n      revert\n    tag_164:\n      pop\n      tag_165\n      tag_166\n      jump\t// in\n    tag_165:\n      mload(0x40)\n      tag_167\n      swap2\n      swap1\n      tag_46\n      jump\t// in\n    tag_167:\n      mload(0x40)\n      dup1\n      swap2\n      sub\n      swap1\n      return\n        /* \"crypto-core/contracts/TimedReleaseVoting.sol\":14411:14688  function getNumHolders() public view returns (uint256) {... */\n    tag_27:\n      callvalue\n      dup1\n      iszero\n      tag_168\n      jumpi\n      0x00\n      dup1\n      revert\n    tag_168:\n      pop\n      tag_169\n      tag_170\n      jump\t// in\n    tag_169:\n      mload(0x40)\n      tag_171\n      swap2\n      swap1\n      tag_46\n      jump\t// in\n    tag_171:\n      mload(0x40)\n      dup1\n      swap2\n      sub\n      swap1\n      return\n        /* \"crypto-core/contracts/TimedReleaseVoting.sol\":17959:18082  function isHolder(address holderAddress) external view returns (bool) {... */\n    tag_28:\n      callvalue\n      dup1\n      iszero\n      tag_172\n      jumpi\n      0x00\n      dup1\n      revert\n    tag_172:\n      pop\n      tag_173\n      0x04\n      dup1\n      calldatasize\n      sub\n      dup2\n      add\n      swap1\n      tag_174\n      swap2\n      swap1\n      tag_66\n      jump\t// in\n    tag_174:\n      tag_175\n      jump\t// in\n    tag_173:\n      mload(0x40)\n      tag_176\n      swap2\n      swap1\n      tag_177\n      jump\t// in\n    tag_176:\n      mload(0x40)\n      dup1\n      swap2\n      sub\n      swap1\n      return\n        /* \"crypto-core/contracts/TimedReleaseVoting.sol\":18488:18623  function getHolderRewards(address holderAddress) external view returns (uint256) {... */\n    tag_29:\n      callvalue\n      dup1\n      iszero\n      tag_178\n      jumpi\n      0x00\n      dup1\n      revert\n    tag_178:\n      pop\n      tag_179\n      0x04\n      dup1\n      calldatasize\n      sub\n      dup2\n      add\n      swap1\n      tag_180\n      swap2\n      swap1\n      tag_66\n      jump\t// in\n    tag_180:\n      tag_181\n      jump\t// in\n    tag_179:\n      mload(0x40)\n      tag_182\n      swap2\n      swap1\n      tag_46\n      jump\t// in\n    tag_182:\n      mload(0x40)\n      dup1\n      swap2\n      sub\n      swap1\n      return\n        /* \"crypto-core/contracts/TimedReleaseVoting.sol\":3065:3116  uint256 public constant REWARD_PER_VOTE = 0.1 ether */\n    tag_30:\n      callvalue\n      dup1\n      iszero\n      tag_183\n      jumpi\n      0x00\n      dup1\n      revert\n    tag_183:\n      pop\n      tag_184\n      tag_185\n      jump\t// in\n    tag_184:\n      mload(0x40)\n      tag_186\n      swap2\n      swap1\n      tag_46\n      jump\t// in\n    tag_186:\n      mload(0x40)\n      dup1\n      swap2\n      sub\n      swap1\n      return\n        /* \"crypto-core/contracts/TimedReleaseVoting.sol\":13276:14254  function forceExitHolder(address holderAddress, uint256 voteId) external voteExists(voteId) {... */\n    tag_31:\n      callvalue\n      dup1\n      iszero\n      tag_187\n      jumpi\n      0x00\n      dup1\n      revert\n    tag_187:\n      pop\n      tag_188\n      0x04\n      dup1\n      calldatasize\n      sub\n      dup2\n      add\n      swap1\n      tag_189\n      swap2\n      swap1\n      tag_190\n      jump\t// in\n    tag_189:\n      tag_191\n      jump\t// in\n    tag_188:\n      stop\n        /* \"crypto-core/contracts/TimedReleaseVoting.sol\":18202:18301  function requiredDeposit() external pure returns (uint256) {... */\n    tag_32:\n      callvalue\n      dup1\n      iszero\n      tag_192\n      jumpi\n      0x00\n      dup1\n      revert\n    tag_192:\n      pop\n      tag_193\n      tag_194\n      jump\t// in\n    tag_193:\n      mload(0x40)\n      tag_195\n      swap2\n      swap1\n      tag_46\n      jump\t// in\n    tag_195:\n      mload(0x40)\n      dup1\n      swap2\n      sub\n      swap1\n      return\n        /* \"crypto-core/contracts/TimedReleaseVoting.sol\":715:1235  function createElection(... */\n    tag_44:\n        /* \"crypto-core/contracts/TimedReleaseVoting.sol\":971:978  uint256 */\n      0x00\n        /* \"crypto-core/contracts/TimedReleaseVoting.sol\":1016:1117  Election(electionCount, title, description, startDate, endDate, options, rewardPool, electionDeposit) */\n      mload(0x40)\n      dup1\n      0x0100\n      add\n      0x40\n      mstore\n      dup1\n        /* \"crypto-core/contracts/TimedReleaseVoting.sol\":1025:1038  electionCount */\n      sload(0x01)\n        /* \"crypto-core/contracts/TimedReleaseVoting.sol\":1016:1117  Election(electionCount, title, description, startDate, endDate, options, rewardPool, electionDeposit) */\n      dup2\n      mstore\n      0x20\n      add\n        /* \"crypto-core/contracts/TimedReleaseVoting.sol\":1040:1045  title */\n      dup10\n        /* \"crypto-core/contracts/TimedReleaseVoting.sol\":1016:1117  Election(electionCount, title, description, startDate, endDate, options, rewardPool, electionDeposit) */\n      dup2\n      mstore\n      0x20\n      add\n        /* \"crypto-core/contracts/TimedReleaseVoting.sol\":1047:1058  description */\n      dup9\n        /* \"crypto-core/contracts/TimedReleaseVoting.sol\":1016:1117  Election(electionCount, title, description, startDate, endDate, options, rewardPool, electionDeposit) */\n      dup2\n      mstore\n      0x20\n      add\n        /* \"crypto-core/contracts/TimedReleaseVoting.sol\":1060:1069  startDate */\n      dup8\n        /* \"crypto-core/contracts/TimedReleaseVoting.sol\":1016:1117  Election(electionCount, title, description, startDate, endDate, options, rewardPool, electionDeposit) */\n      dup2\n      mstore\n      0x20\n      add\n        /* \"crypto-core/contracts/TimedReleaseVoting.sol\":1071:1078  endDate */\n      dup7\n        /* \"crypto-core/contracts/TimedReleaseVoting.sol\":1016:1117  Election(electionCount, title, description, startDate, endDate, options, rewardPool, electionDeposit) */\n      dup2\n      mstore\n      0x20\n      add\n        /* \"crypto-core/contracts/TimedReleaseVoting.sol\":1080:1087  options */\n      dup6\n        /* \"crypto-core/contracts/TimedReleaseVoting.sol\":1016:1117  Election(electionCount, title, description, startDate, endDate, options, rewardPool, electionDeposit) */\n      dup2\n      mstore\n      0x20\n      add\n        /* \"crypto-core/contracts/TimedReleaseVoting.sol\":1089:1099  rewardPool */\n      dup5\n        /* \"crypto-core/contracts/TimedReleaseVoting.sol\":1016:1117  Election(electionCount, title, description, startDate, endDate, options, rewardPool, electionDeposit) */\n      dup2\n      mstore\n      0x20\n      add\n        /* \"crypto-core/contracts/TimedReleaseVoting.sol\":1101:1116  electionDeposit */\n      dup4\n        /* \"crypto-core/contracts/TimedReleaseVoting.sol\":1016:1117  Election(electionCount, title, description, startDate, endDate, options, rewardPool, electionDeposit) */\n      dup2\n      mstore\n      pop\n        /* \"crypto-core/contracts/TimedReleaseVoting.sol\":990:998  election */\n      0x00\n        /* \"crypto-core/contracts/TimedReleaseVoting.sol\":990:1013  election[electionCount] */\n      dup1\n        /* \"crypto-core/contracts/TimedReleaseVoting.sol\":999:1012  electionCount */\n      sload(0x01)\n        /* \"crypto-core/contracts/TimedReleaseVoting.sol\":990:1013  election[electionCount] */\n      dup2\n      mstore\n      0x20\n      add\n      swap1\n      dup2\n      mstore\n      0x20\n      add\n      0x00\n      keccak256\n        /* \"crypto-core/contracts/TimedReleaseVoting.sol\":990:1117  election[electionCount] = Election(electionCount, title, description, startDate, endDate, options, rewardPool, electionDeposit) */\n      0x00\n      dup3\n      add\n      mload\n      dup2\n      0x00\n      add\n      sstore\n      0x20\n      dup3\n      add\n      mload\n      dup2\n      0x01\n      add\n      swap1\n      dup1\n      mload\n      swap1\n      0x20\n      add\n      swap1\n      tag_197\n      swap3\n      swap2\n      swap1\n      tag_198\n      jump\t// in\n    tag_197:\n      pop\n      0x40\n      dup3\n      add\n      mload\n      dup2\n      0x02\n      add\n      swap1\n      dup1\n      mload\n      swap1\n      0x20\n      add\n      swap1\n      tag_199\n      swap3\n      swap2\n      swap1\n      tag_198\n      jump\t// in\n    tag_199:\n      pop\n      0x60\n      dup3\n      add\n      mload\n      dup2\n      0x03\n      add\n      sstore\n      0x80\n      dup3\n      add\n      mload\n      dup2\n      0x04\n      add\n      sstore\n      0xa0\n      dup3\n      add\n      mload\n      dup2\n      0x05\n      add\n      swap1\n      dup1\n      mload\n      swap1\n      0x20\n      add\n      swap1\n      tag_200\n      swap3\n      swap2\n      swap1\n      tag_201\n      jump\t// in\n    tag_200:\n      pop\n      0xc0\n      dup3\n      add\n      mload\n      dup2\n      0x06\n      add\n      sstore\n      0xe0\n      dup3\n      add\n      mload\n      dup2\n      0x07\n      add\n      sstore\n      swap1\n      pop\n      pop\n        /* \"crypto-core/contracts/TimedReleaseVoting.sol\":1132:1169  ElectionCreated(electionCount, title) */\n      0x52be7c4e77b4de76b7607d621492061fe13b58597e72dfb5e51ab8f6187ed141\n        /* \"crypto-core/contracts/TimedReleaseVoting.sol\":1148:1161  electionCount */\n      sload(0x01)\n        /* \"crypto-core/contracts/TimedReleaseVoting.sol\":1163:1168  title */\n      dup10\n        /* \"crypto-core/contracts/TimedReleaseVoting.sol\":1132:1169  ElectionCreated(electionCount, title) */\n      mload(0x40)\n      tag_202\n      swap3\n      swap2\n      swap1\n      tag_203\n      jump\t// in\n    tag_202:\n      mload(0x40)\n      dup1\n      swap2\n      sub\n      swap1\n      log1\n        /* \"crypto-core/contracts/TimedReleaseVoting.sol\":1179:1192  electionCount */\n      0x01\n      0x00\n        /* \"crypto-core/contracts/TimedReleaseVoting.sol\":1179:1194  electionCount++ */\n      dup2\n      sload\n      dup1\n      swap3\n      swap2\n      swap1\n      tag_204\n      swap1\n      tag_205\n      jump\t// in\n    tag_204:\n      swap2\n      swap1\n      pop\n      sstore\n      pop\n        /* \"crypto-core/contracts/TimedReleaseVoting.sol\":1227:1228  1 */\n      0x01\n        /* \"crypto-core/contracts/TimedReleaseVoting.sol\":1211:1224  electionCount */\n      dup1\n      sload\n        /* \"crypto-core/contracts/TimedReleaseVoting.sol\":1211:1228  electionCount - 1 */\n      tag_206\n      swap2\n      swap1\n      tag_207\n      jump\t// in\n    tag_206:\n        /* \"crypto-core/contracts/TimedReleaseVoting.sol\":1204:1228  return electionCount - 1 */\n      swap1\n      pop\n        /* \"crypto-core/contracts/TimedReleaseVoting.sol\":715:1235  function createElection(... */\n      swap8\n      swap7\n      pop\n      pop\n      pop\n      pop\n      pop\n      pop\n      pop\n      jump\t// out\n        /* \"crypto-core/contracts/TimedReleaseVoting.sol\":18770:18904  function getVoteReward(uint256 voteId) external view voteExists(voteId) returns (uint256) {... */\n    tag_51:\n        /* \"crypto-core/contracts/TimedReleaseVoting.sol\":18851:18858  uint256 */\n      0x00\n        /* \"crypto-core/contracts/TimedReleaseVoting.sol\":18834:18840  voteId */\n      dup2\n        /* \"crypto-core/contracts/TimedReleaseVoting.sol\":4244:4249  votes */\n      0x06\n        /* \"crypto-core/contracts/TimedReleaseVoting.sol\":4244:4257  votes[voteId] */\n      0x00\n        /* \"crypto-core/contracts/TimedReleaseVoting.sol\":4250:4256  voteId */\n      dup3\n        /* \"crypto-core/contracts/TimedReleaseVoting.sol\":4244:4257  votes[voteId] */\n      dup2\n      mstore\n      0x20\n      add\n      swap1\n      dup2\n      mstore\n      0x20\n      add\n      0x00\n      keccak256\n        /* \"crypto-core/contracts/TimedReleaseVoting.sol\":4244:4264  votes[voteId].exists */\n      0x07\n      add\n      0x00\n      swap1\n      sload\n      swap1\n      0x0100\n      exp\n      swap1\n      div\n      0xff\n      and\n        /* \"crypto-core/contracts/TimedReleaseVoting.sol\":4236:4288  require(votes[voteId].exists, \"Vote does not exist\") */\n      tag_209\n      jumpi\n      mload(0x40)\n      0x08c379a000000000000000000000000000000000000000000000000000000000\n      dup2\n      mstore\n      0x04\n      add\n      tag_210\n      swap1\n      tag_211\n      jump\t// in\n    tag_210:\n      mload(0x40)\n      dup1\n      swap2\n      sub\n      swap1\n      revert\n    tag_209:\n        /* \"crypto-core/contracts/TimedReleaseVoting.sol\":18877:18882  votes */\n      0x06\n        /* \"crypto-core/contracts/TimedReleaseVoting.sol\":18877:18890  votes[voteId] */\n      0x00\n        /* \"crypto-core/contracts/TimedReleaseVoting.sol\":18883:18889  voteId */\n      dup5\n        /* \"crypto-core/contracts/TimedReleaseVoting.sol\":18877:18890  votes[voteId] */\n      dup2\n      mstore\n      0x20\n      add\n      swap1\n      dup2\n      mstore\n      0x20\n      add\n      0x00\n      keccak256\n        /* \"crypto-core/contracts/TimedReleaseVoting.sol\":18877:18897  votes[voteId].reward */\n      0x08\n      add\n      sload\n        /* \"crypto-core/contracts/TimedReleaseVoting.sol\":18870:18897  return votes[voteId].reward */\n      swap2\n      pop\n        /* \"crypto-core/contracts/TimedReleaseVoting.sol\":18770:18904  function getVoteReward(uint256 voteId) external view voteExists(voteId) returns (uint256) {... */\n      pop\n      swap2\n      swap1\n      pop\n      jump\t// out\n        /* \"crypto-core/contracts/TimedReleaseVoting.sol\":3279:3311  address[] public holderAddresses */\n    tag_56:\n      0x04\n      dup2\n      dup2\n      sload\n      dup2\n      lt\n      tag_213\n      jumpi\n      0x00\n      dup1\n      revert\n    tag_213:\n      swap1\n      0x00\n      mstore\n      keccak256(0x00, 0x20)\n      add\n      0x00\n      swap2\n      pop\n      sload\n      swap1\n      0x0100\n      exp\n      swap1\n      div\n      0xffffffffffffffffffffffffffffffffffffffff\n      and\n      dup2\n      jump\t// out\n        /* \"crypto-core/contracts/TimedReleaseVoting.sol\":8622:9711  function submitVote(... */\n    tag_62:\n        /* \"crypto-core/contracts/TimedReleaseVoting.sol\":3008:3009  3 */\n      0x03\n        /* \"crypto-core/contracts/TimedReleaseVoting.sol\":8840:8855  getNumHolders() */\n      tag_216\n        /* \"crypto-core/contracts/TimedReleaseVoting.sol\":8840:8853  getNumHolders */\n      tag_170\n        /* \"crypto-core/contracts/TimedReleaseVoting.sol\":8840:8855  getNumHolders() */\n      jump\t// in\n    tag_216:\n        /* \"crypto-core/contracts/TimedReleaseVoting.sol\":8840:8870  getNumHolders() >= MIN_HOLDERS */\n      lt\n      iszero\n        /* \"crypto-core/contracts/TimedReleaseVoting.sol\":8832:8893  require(getNumHolders() >= MIN_HOLDERS, \"Not enough holders\") */\n      tag_217\n      jumpi\n      mload(0x40)\n      0x08c379a000000000000000000000000000000000000000000000000000000000\n      dup2\n      mstore\n      0x04\n      add\n      tag_218\n      swap1\n      tag_219\n      jump\t// in\n    tag_218:\n      mload(0x40)\n      dup1\n      swap2\n      sub\n      swap1\n      revert\n    tag_217:\n        /* \"crypto-core/contracts/TimedReleaseVoting.sol\":8928:8943  block.timestamp */\n      timestamp\n        /* \"crypto-core/contracts/TimedReleaseVoting.sol\":8911:8925  decryptionTime */\n      dup4\n        /* \"crypto-core/contracts/TimedReleaseVoting.sol\":8911:8943  decryptionTime > block.timestamp */\n      gt\n        /* \"crypto-core/contracts/TimedReleaseVoting.sol\":8903:8985  require(decryptionTime > block.timestamp, \"Decryption time must be in the future\") */\n      tag_220\n      jumpi\n      mload(0x40)\n      0x08c379a000000000000000000000000000000000000000000000000000000000\n      dup2\n      mstore\n      0x04\n      add\n      tag_221\n      swap1\n      tag_222\n      jump\t// in\n    tag_221:\n      mload(0x40)\n      dup1\n      swap2\n      sub\n      swap1\n      revert\n    tag_220:\n        /* \"crypto-core/contracts/TimedReleaseVoting.sol\":9016:9017  2 */\n      0x02\n        /* \"crypto-core/contracts/TimedReleaseVoting.sol\":9003:9012  threshold */\n      dup2\n        /* \"crypto-core/contracts/TimedReleaseVoting.sol\":9003:9017  threshold >= 2 */\n      lt\n      iszero\n        /* \"crypto-core/contracts/TimedReleaseVoting.sol\":8995:9050  require(threshold >= 2, \"Threshold must be at least 2\") */\n      tag_223\n      jumpi\n      mload(0x40)\n      0x08c379a000000000000000000000000000000000000000000000000000000000\n      dup2\n      mstore\n      0x04\n      add\n      tag_224\n      swap1\n      tag_225\n      jump\t// in\n    tag_224:\n      mload(0x40)\n      dup1\n      swap2\n      sub\n      swap1\n      revert\n    tag_223:\n        /* \"crypto-core/contracts/TimedReleaseVoting.sol\":9081:9096  getNumHolders() */\n      tag_226\n        /* \"crypto-core/contracts/TimedReleaseVoting.sol\":9081:9094  getNumHolders */\n      tag_170\n        /* \"crypto-core/contracts/TimedReleaseVoting.sol\":9081:9096  getNumHolders() */\n      jump\t// in\n    tag_226:\n        /* \"crypto-core/contracts/TimedReleaseVoting.sol\":9068:9077  threshold */\n      dup2\n        /* \"crypto-core/contracts/TimedReleaseVoting.sol\":9068:9096  threshold <= getNumHolders() */\n      gt\n      iszero\n        /* \"crypto-core/contracts/TimedReleaseVoting.sol\":9060:9142  require(threshold <= getNumHolders(), \"Threshold cannot exceed number of holders\") */\n      tag_227\n      jumpi\n      mload(0x40)\n      0x08c379a000000000000000000000000000000000000000000000000000000000\n      dup2\n      mstore\n      0x04\n      add\n      tag_228\n      swap1\n      tag_229\n      jump\t// in\n    tag_228:\n      mload(0x40)\n      dup1\n      swap2\n      sub\n      swap1\n      revert\n    tag_227:\n        /* \"crypto-core/contracts/TimedReleaseVoting.sol\":9161:9175  uint256 voteId */\n      0x00\n        /* \"crypto-core/contracts/TimedReleaseVoting.sol\":9178:9187  voteCount */\n      0x07\n      0x00\n        /* \"crypto-core/contracts/TimedReleaseVoting.sol\":9178:9189  voteCount++ */\n      dup2\n      sload\n      dup1\n      swap3\n      swap2\n      swap1\n      tag_230\n      swap1\n      tag_205\n      jump\t// in\n    tag_230:\n      swap2\n      swap1\n      pop\n      sstore\n        /* \"crypto-core/contracts/TimedReleaseVoting.sol\":9161:9189  uint256 voteId = voteCount++ */\n      swap1\n      pop\n        /* \"crypto-core/contracts/TimedReleaseVoting.sol\":9266:9276  ciphertext */\n      dup8\n      dup8\n        /* \"crypto-core/contracts/TimedReleaseVoting.sol\":9239:9244  votes */\n      0x06\n        /* \"crypto-core/contracts/TimedReleaseVoting.sol\":9239:9252  votes[voteId] */\n      0x00\n        /* \"crypto-core/contracts/TimedReleaseVoting.sol\":9245:9251  voteId */\n      dup5\n        /* \"crypto-core/contracts/TimedReleaseVoting.sol\":9239:9252  votes[voteId] */\n      dup2\n      mstore\n      0x20\n      add\n      swap1\n      dup2\n      mstore\n      0x20\n      add\n      0x00\n      keccak256\n        /* \"crypto-core/contracts/TimedReleaseVoting.sol\":9239:9263  votes[voteId].ciphertext */\n      0x00\n      add\n        /* \"crypto-core/contracts/TimedReleaseVoting.sol\":9239:9276  votes[voteId].ciphertext = ciphertext */\n      swap2\n      swap1\n      tag_231\n      swap3\n      swap2\n      swap1\n      tag_232\n      jump\t// in\n    tag_231:\n      pop\n        /* \"crypto-core/contracts/TimedReleaseVoting.sol\":9308:9313  nonce */\n      dup6\n      dup6\n        /* \"crypto-core/contracts/TimedReleaseVoting.sol\":9286:9291  votes */\n      0x06\n        /* \"crypto-core/contracts/TimedReleaseVoting.sol\":9286:9299  votes[voteId] */\n      0x00\n        /* \"crypto-core/contracts/TimedReleaseVoting.sol\":9292:9298  voteId */\n      dup5\n        /* \"crypto-core/contracts/TimedReleaseVoting.sol\":9286:9299  votes[voteId] */\n      dup2\n      mstore\n      0x20\n      add\n      swap1\n      dup2\n      mstore\n      0x20\n      add\n      0x00\n      keccak256\n        /* \"crypto-core/contracts/TimedReleaseVoting.sol\":9286:9305  votes[voteId].nonce */\n      0x01\n      add\n        /* \"crypto-core/contracts/TimedReleaseVoting.sol\":9286:9313  votes[voteId].nonce = nonce */\n      swap2\n      swap1\n      tag_233\n      swap3\n      swap2\n      swap1\n      tag_232\n      jump\t// in\n    tag_233:\n      pop\n        /* \"crypto-core/contracts/TimedReleaseVoting.sol\":9354:9368  decryptionTime */\n      dup4\n        /* \"crypto-core/contracts/TimedReleaseVoting.sol\":9323:9328  votes */\n      0x06\n        /* \"crypto-core/contracts/TimedReleaseVoting.sol\":9323:9336  votes[voteId] */\n      0x00\n        /* \"crypto-core/contracts/TimedReleaseVoting.sol\":9329:9335  voteId */\n      dup4\n        /* \"crypto-core/contracts/TimedReleaseVoting.sol\":9323:9336  votes[voteId] */\n      dup2\n      mstore\n      0x20\n      add\n      swap1\n      dup2\n      mstore\n      0x20\n      add\n      0x00\n      keccak256\n        /* \"crypto-core/contracts/TimedReleaseVoting.sol\":9323:9351  votes[voteId].decryptionTime */\n      0x02\n      add\n        /* \"crypto-core/contracts/TimedReleaseVoting.sol\":9323:9368  votes[voteId].decryptionTime = decryptionTime */\n      dup2\n      swap1\n      sstore\n      pop\n        /* \"crypto-core/contracts/TimedReleaseVoting.sol\":9398:9401  g2r */\n      dup3\n        /* \"crypto-core/contracts/TimedReleaseVoting.sol\":9378:9383  votes */\n      0x06\n        /* \"crypto-core/contracts/TimedReleaseVoting.sol\":9378:9391  votes[voteId] */\n      0x00\n        /* \"crypto-core/contracts/TimedReleaseVoting.sol\":9384:9390  voteId */\n      dup4\n        /* \"crypto-core/contracts/TimedReleaseVoting.sol\":9378:9391  votes[voteId] */\n      dup2\n      mstore\n      0x20\n      add\n      swap1\n      dup2\n      mstore\n      0x20\n      add\n      0x00\n      keccak256\n        /* \"crypto-core/contracts/TimedReleaseVoting.sol\":9378:9395  votes[voteId].g2r */\n      0x03\n      add\n        /* \"crypto-core/contracts/TimedReleaseVoting.sol\":9378:9401  votes[voteId].g2r = g2r */\n      swap1\n      0x02\n      tag_234\n      swap3\n      swap2\n      swap1\n      tag_235\n      jump\t// in\n    tag_234:\n      pop\n        /* \"crypto-core/contracts/TimedReleaseVoting.sol\":9434:9438  true */\n      0x01\n        /* \"crypto-core/contracts/TimedReleaseVoting.sol\":9411:9416  votes */\n      0x06\n        /* \"crypto-core/contracts/TimedReleaseVoting.sol\":9411:9424  votes[voteId] */\n      0x00\n        /* \"crypto-core/contracts/TimedReleaseVoting.sol\":9417:9423  voteId */\n      dup4\n        /* \"crypto-core/contracts/TimedReleaseVoting.sol\":9411:9424  votes[voteId] */\n      dup2\n      mstore\n      0x20\n      add\n      swap1\n      dup2\n      mstore\n      0x20\n      add\n      0x00\n      keccak256\n        /* \"crypto-core/contracts/TimedReleaseVoting.sol\":9411:9431  votes[voteId].exists */\n      0x07\n      add\n      0x00\n        /* \"crypto-core/contracts/TimedReleaseVoting.sol\":9411:9438  votes[voteId].exists = true */\n      0x0100\n      exp\n      dup2\n      sload\n      dup2\n      0xff\n      mul\n      not\n      and\n      swap1\n      dup4\n      iszero\n      iszero\n      mul\n      or\n      swap1\n      sstore\n      pop\n        /* \"crypto-core/contracts/TimedReleaseVoting.sol\":9483:9484  0 */\n      0x00\n        /* \"crypto-core/contracts/TimedReleaseVoting.sol\":9471:9480  msg.value */\n      callvalue\n        /* \"crypto-core/contracts/TimedReleaseVoting.sol\":9471:9484  msg.value > 0 */\n      gt\n        /* \"crypto-core/contracts/TimedReleaseVoting.sol\":9471:9514  msg.value > 0 ? msg.value : REWARD_PER_VOTE */\n      tag_236\n      jumpi\n        /* \"crypto-core/contracts/TimedReleaseVoting.sol\":3107:3116  0.1 ether */\n      0x016345785d8a0000\n        /* \"crypto-core/contracts/TimedReleaseVoting.sol\":9471:9514  msg.value > 0 ? msg.value : REWARD_PER_VOTE */\n      jump(tag_237)\n    tag_236:\n        /* \"crypto-core/contracts/TimedReleaseVoting.sol\":9487:9496  msg.value */\n      callvalue\n        /* \"crypto-core/contracts/TimedReleaseVoting.sol\":9471:9514  msg.value > 0 ? msg.value : REWARD_PER_VOTE */\n    tag_237:\n        /* \"crypto-core/contracts/TimedReleaseVoting.sol\":9448:9453  votes */\n      0x06\n        /* \"crypto-core/contracts/TimedReleaseVoting.sol\":9448:9461  votes[voteId] */\n      0x00\n        /* \"crypto-core/contracts/TimedReleaseVoting.sol\":9454:9460  voteId */\n      dup4\n        /* \"crypto-core/contracts/TimedReleaseVoting.sol\":9448:9461  votes[voteId] */\n      dup2\n      mstore\n      0x20\n      add\n      swap1\n      dup2\n      mstore\n      0x20\n      add\n      0x00\n      keccak256\n        /* \"crypto-core/contracts/TimedReleaseVoting.sol\":9448:9468  votes[voteId].reward */\n      0x08\n      add\n        /* \"crypto-core/contracts/TimedReleaseVoting.sol\":9448:9514  votes[voteId].reward = msg.value > 0 ? msg.value : REWARD_PER_VOTE */\n      dup2\n      swap1\n      sstore\n      pop\n        /* \"crypto-core/contracts/TimedReleaseVoting.sol\":9558:9563  false */\n      0x00\n        /* \"crypto-core/contracts/TimedReleaseVoting.sol\":9524:9529  votes */\n      0x06\n        /* \"crypto-core/contracts/TimedReleaseVoting.sol\":9524:9537  votes[voteId] */\n      0x00\n        /* \"crypto-core/contracts/TimedReleaseVoting.sol\":9530:9536  voteId */\n      dup4\n        /* \"crypto-core/contracts/TimedReleaseVoting.sol\":9524:9537  votes[voteId] */\n      dup2\n      mstore\n      0x20\n      add\n      swap1\n      dup2\n      mstore\n      0x20\n      add\n      0x00\n      keccak256\n        /* \"crypto-core/contracts/TimedReleaseVoting.sol\":9524:9555  votes[voteId].rewardDistributed */\n      0x09\n      add\n      0x00\n        /* \"crypto-core/contracts/TimedReleaseVoting.sol\":9524:9563  votes[voteId].rewardDistributed = false */\n      0x0100\n      exp\n      dup2\n      sload\n      dup2\n      0xff\n      mul\n      not\n      and\n      swap1\n      dup4\n      iszero\n      iszero\n      mul\n      or\n      swap1\n      sstore\n      pop\n        /* \"crypto-core/contracts/TimedReleaseVoting.sol\":9599:9608  threshold */\n      dup2\n        /* \"crypto-core/contracts/TimedReleaseVoting.sol\":9573:9578  votes */\n      0x06\n        /* \"crypto-core/contracts/TimedReleaseVoting.sol\":9573:9586  votes[voteId] */\n      0x00\n        /* \"crypto-core/contracts/TimedReleaseVoting.sol\":9579:9585  voteId */\n      dup4\n        /* \"crypto-core/contracts/TimedReleaseVoting.sol\":9573:9586  votes[voteId] */\n      dup2\n      mstore\n      0x20\n      add\n      swap1\n      dup2\n      mstore\n      0x20\n      add\n      0x00\n      keccak256\n        /* \"crypto-core/contracts/TimedReleaseVoting.sol\":9573:9596  votes[voteId].threshold */\n      0x0a\n      add\n        /* \"crypto-core/contracts/TimedReleaseVoting.sol\":9573:9608  votes[voteId].threshold = threshold */\n      dup2\n      swap1\n      sstore\n      pop\n        /* \"crypto-core/contracts/TimedReleaseVoting.sol\":9670:9676  voteId */\n      dup1\n        /* \"crypto-core/contracts/TimedReleaseVoting.sol\":9656:9704  VoteSubmitted(voteId, decryptionTime, threshold) */\n      0xeae33df196a32d272e8aa809e6cf4f18536005fa3f76c93c4b4072f5c4766903\n        /* \"crypto-core/contracts/TimedReleaseVoting.sol\":9678:9692  decryptionTime */\n      dup6\n        /* \"crypto-core/contracts/TimedReleaseVoting.sol\":9694:9703  threshold */\n      dup5\n        /* \"crypto-core/contracts/TimedReleaseVoting.sol\":9656:9704  VoteSubmitted(voteId, decryptionTime, threshold) */\n      mload(0x40)\n      tag_238\n      swap3\n      swap2\n      swap1\n      tag_239\n      jump\t// in\n    tag_238:\n      mload(0x40)\n      dup1\n      swap2\n      sub\n      swap1\n      log2\n        /* \"crypto-core/contracts/TimedReleaseVoting.sol\":8622:9711  function submitVote(... */\n      pop\n      pop\n      pop\n      pop\n      pop\n      pop\n      pop\n      pop\n      jump\t// out\n        /* \"crypto-core/contracts/TimedReleaseVoting.sol\":3185:3226  mapping(address => Holder) public holders */\n    tag_67:\n      mstore(0x20, 0x02)\n      dup1\n      0x00\n      mstore\n      keccak256(0x00, 0x40)\n      0x00\n      swap2\n      pop\n      swap1\n      pop\n      dup1\n      0x02\n      add\n      sload\n      swap1\n      dup1\n      0x03\n      add\n      0x00\n      swap1\n      sload\n      swap1\n      0x0100\n      exp\n      swap1\n      div\n      0xff\n      and\n      swap1\n      dup1\n      0x04\n      add\n      sload\n      swap1\n      pop\n      dup4\n      jump\t// out\n        /* \"crypto-core/contracts/TimedReleaseVoting.sol\":3232:3273  mapping(bytes => Holder2) public holders2 */\n    tag_74:\n      0x03\n      dup2\n      dup1\n      mload\n      0x20\n      dup2\n      add\n      dup3\n      add\n      dup1\n      mload\n      dup5\n      dup3\n      mstore\n      0x20\n      dup4\n      add\n      0x20\n      dup6\n      add\n      keccak256\n      dup2\n      dup4\n      mstore\n      dup1\n      swap6\n      pop\n      pop\n      pop\n      pop\n      pop\n      pop\n      0x00\n      swap2\n      pop\n      swap1\n      pop\n      dup1\n      0x00\n      add\n      dup1\n      sload\n      tag_240\n      swap1\n      tag_241\n      jump\t// in\n    tag_240:\n      dup1\n      0x1f\n      add\n      0x20\n      dup1\n      swap2\n      div\n      mul\n      0x20\n      add\n      mload(0x40)\n      swap1\n      dup2\n      add\n      0x40\n      mstore\n      dup1\n      swap3\n      swap2\n      swap1\n      dup2\n      dup2\n      mstore\n      0x20\n      add\n      dup3\n      dup1\n      sload\n      tag_242\n      swap1\n      tag_241\n      jump\t// in\n    tag_242:\n      dup1\n      iszero\n      tag_243\n      jumpi\n      dup1\n      0x1f\n      lt\n      tag_244\n      jumpi\n      0x0100\n      dup1\n      dup4\n      sload\n      div\n      mul\n      dup4\n      mstore\n      swap2\n      0x20\n      add\n      swap2\n      jump(tag_243)\n    tag_244:\n      dup3\n      add\n      swap2\n      swap1\n      0x00\n      mstore\n      keccak256(0x00, 0x20)\n      swap1\n    tag_245:\n      dup2\n      sload\n      dup2\n      mstore\n      swap1\n      0x01\n      add\n      swap1\n      0x20\n      add\n      dup1\n      dup4\n      gt\n      tag_245\n      jumpi\n      dup3\n      swap1\n      sub\n      0x1f\n      and\n      dup3\n      add\n      swap2\n    tag_243:\n      pop\n      pop\n      pop\n      pop\n      pop\n      swap1\n      dup1\n      0x01\n      add\n      0x00\n      swap1\n      sload\n      swap1\n      0x0100\n      exp\n      swap1\n      div\n      0xffffffffffffffffffffffffffffffffffffffff\n      and\n      swap1\n      dup1\n      0x02\n      add\n      sload\n      swap1\n      dup1\n      0x03\n      add\n      0x00\n      swap1\n      sload\n      swap1\n      0x0100\n      exp\n      swap1\n      div\n      0xff\n      and\n      swap1\n      dup1\n      0x04\n      add\n      sload\n      swap1\n      pop\n      dup6\n      jump\t// out\n        /* \"crypto-core/contracts/TimedReleaseVoting.sol\":5749:6855  function unJoinAsHolder(uint256 electionId) external onlyHolder {... */\n    tag_80:\n        /* \"crypto-core/contracts/TimedReleaseVoting.sol\":4098:4105  holders */\n      0x02\n        /* \"crypto-core/contracts/TimedReleaseVoting.sol\":4098:4117  holders[msg.sender] */\n      0x00\n        /* \"crypto-core/contracts/TimedReleaseVoting.sol\":4106:4116  msg.sender */\n      caller\n        /* \"crypto-core/contracts/TimedReleaseVoting.sol\":4098:4117  holders[msg.sender] */\n      0xffffffffffffffffffffffffffffffffffffffff\n      and\n      0xffffffffffffffffffffffffffffffffffffffff\n      and\n      dup2\n      mstore\n      0x20\n      add\n      swap1\n      dup2\n      mstore\n      0x20\n      add\n      0x00\n      keccak256\n        /* \"crypto-core/contracts/TimedReleaseVoting.sol\":4098:4124  holders[msg.sender].active */\n      0x03\n      add\n      0x00\n      swap1\n      sload\n      swap1\n      0x0100\n      exp\n      swap1\n      div\n      0xff\n      and\n        /* \"crypto-core/contracts/TimedReleaseVoting.sol\":4090:4162  require(holders[msg.sender].active, \"Caller is not a registered holder\") */\n      tag_247\n      jumpi\n      mload(0x40)\n      0x08c379a000000000000000000000000000000000000000000000000000000000\n      dup2\n      mstore\n      0x04\n      add\n      tag_248\n      swap1\n      tag_249\n      jump\t// in\n    tag_248:\n      mload(0x40)\n      dup1\n      swap2\n      sub\n      swap1\n      revert\n    tag_247:\n        /* \"crypto-core/contracts/TimedReleaseVoting.sol\":5832:5848  bool activeCheck */\n      0x00\n        /* \"crypto-core/contracts/TimedReleaseVoting.sol\":5949:5958  uint256 i */\n      dup1\n        /* \"crypto-core/contracts/TimedReleaseVoting.sol\":5944:6773  for (uint256 i = 0; i < holderAddresses2.length; i++) {... */\n    tag_251:\n        /* \"crypto-core/contracts/TimedReleaseVoting.sol\":5968:5984  holderAddresses2 */\n      0x05\n        /* \"crypto-core/contracts/TimedReleaseVoting.sol\":5968:5991  holderAddresses2.length */\n      dup1\n      sload\n      swap1\n      pop\n        /* \"crypto-core/contracts/TimedReleaseVoting.sol\":5964:5965  i */\n      dup2\n        /* \"crypto-core/contracts/TimedReleaseVoting.sol\":5964:5991  i < holderAddresses2.length */\n      lt\n        /* \"crypto-core/contracts/TimedReleaseVoting.sol\":5944:6773  for (uint256 i = 0; i < holderAddresses2.length; i++) {... */\n      iszero\n      tag_252\n      jumpi\n        /* \"crypto-core/contracts/TimedReleaseVoting.sol\":6064:6074  msg.sender */\n      caller\n        /* \"crypto-core/contracts/TimedReleaseVoting.sol\":6017:6074  holders2[holderAddresses2[i]].walletAddress == msg.sender */\n      0xffffffffffffffffffffffffffffffffffffffff\n      and\n        /* \"crypto-core/contracts/TimedReleaseVoting.sol\":6017:6025  holders2 */\n      0x03\n        /* \"crypto-core/contracts/TimedReleaseVoting.sol\":6026:6042  holderAddresses2 */\n      0x05\n        /* \"crypto-core/contracts/TimedReleaseVoting.sol\":6043:6044  i */\n      dup4\n        /* \"crypto-core/contracts/TimedReleaseVoting.sol\":6026:6045  holderAddresses2[i] */\n      dup2\n      sload\n      dup2\n      lt\n      tag_254\n      jumpi\n      mstore(0x00, 0x4e487b7100000000000000000000000000000000000000000000000000000000)\n      mstore(0x04, 0x32)\n      revert(0x00, 0x24)\n    tag_254:\n      swap1\n      0x00\n      mstore\n      keccak256(0x00, 0x20)\n      add\n        /* \"crypto-core/contracts/TimedReleaseVoting.sol\":6017:6046  holders2[holderAddresses2[i]] */\n      mload(0x40)\n      tag_256\n      swap2\n      swap1\n      tag_257\n      jump\t// in\n    tag_256:\n      swap1\n      dup2\n      mstore\n      0x20\n      add\n      mload(0x40)\n      dup1\n      swap2\n      sub\n      swap1\n      keccak256\n        /* \"crypto-core/contracts/TimedReleaseVoting.sol\":6017:6060  holders2[holderAddresses2[i]].walletAddress */\n      0x01\n      add\n      0x00\n      swap1\n      sload\n      swap1\n      0x0100\n      exp\n      swap1\n      div\n      0xffffffffffffffffffffffffffffffffffffffff\n      and\n        /* \"crypto-core/contracts/TimedReleaseVoting.sol\":6017:6074  holders2[holderAddresses2[i]].walletAddress == msg.sender */\n      0xffffffffffffffffffffffffffffffffffffffff\n      and\n      eq\n        /* \"crypto-core/contracts/TimedReleaseVoting.sol\":6017:6144  holders2[holderAddresses2[i]].walletAddress == msg.sender &&... */\n      dup1\n      iszero\n      tag_258\n      jumpi\n      pop\n        /* \"crypto-core/contracts/TimedReleaseVoting.sol\":6134:6144  electionId */\n      dup3\n        /* \"crypto-core/contracts/TimedReleaseVoting.sol\":6090:6098  holders2 */\n      0x03\n        /* \"crypto-core/contracts/TimedReleaseVoting.sol\":6099:6115  holderAddresses2 */\n      0x05\n        /* \"crypto-core/contracts/TimedReleaseVoting.sol\":6116:6117  i */\n      dup4\n        /* \"crypto-core/contracts/TimedReleaseVoting.sol\":6099:6118  holderAddresses2[i] */\n      dup2\n      sload\n      dup2\n      lt\n      tag_259\n      jumpi\n      mstore(0x00, 0x4e487b7100000000000000000000000000000000000000000000000000000000)\n      mstore(0x04, 0x32)\n      revert(0x00, 0x24)\n    tag_259:\n      swap1\n      0x00\n      mstore\n      keccak256(0x00, 0x20)\n      add\n        /* \"crypto-core/contracts/TimedReleaseVoting.sol\":6090:6119  holders2[holderAddresses2[i]] */\n      mload(0x40)\n      tag_261\n      swap2\n      swap1\n      tag_257\n      jump\t// in\n    tag_261:\n      swap1\n      dup2\n      mstore\n      0x20\n      add\n      mload(0x40)\n      dup1\n      swap2\n      sub\n      swap1\n      keccak256\n        /* \"crypto-core/contracts/TimedReleaseVoting.sol\":6090:6130  holders2[holderAddresses2[i]].electionId */\n      0x02\n      add\n      sload\n        /* \"crypto-core/contracts/TimedReleaseVoting.sol\":6090:6144  holders2[holderAddresses2[i]].electionId == electionId */\n      eq\n        /* \"crypto-core/contracts/TimedReleaseVoting.sol\":6017:6144  holders2[holderAddresses2[i]].walletAddress == msg.sender &&... */\n    tag_258:\n        /* \"crypto-core/contracts/TimedReleaseVoting.sol\":6017:6205  holders2[holderAddresses2[i]].walletAddress == msg.sender &&... */\n      dup1\n      iszero\n      tag_262\n      jumpi\n      pop\n        /* \"crypto-core/contracts/TimedReleaseVoting.sol\":6201:6205  true */\n      0x01\n        /* \"crypto-core/contracts/TimedReleaseVoting.sol\":6161:6205  holders2[holderAddresses2[i]].active == true */\n      iszero\n      iszero\n        /* \"crypto-core/contracts/TimedReleaseVoting.sol\":6161:6169  holders2 */\n      0x03\n        /* \"crypto-core/contracts/TimedReleaseVoting.sol\":6170:6186  holderAddresses2 */\n      0x05\n        /* \"crypto-core/contracts/TimedReleaseVoting.sol\":6187:6188  i */\n      dup4\n        /* \"crypto-core/contracts/TimedReleaseVoting.sol\":6170:6189  holderAddresses2[i] */\n      dup2\n      sload\n      dup2\n      lt\n      tag_263\n      jumpi\n      mstore(0x00, 0x4e487b7100000000000000000000000000000000000000000000000000000000)\n      mstore(0x04, 0x32)\n      revert(0x00, 0x24)\n    tag_263:\n      swap1\n      0x00\n      mstore\n      keccak256(0x00, 0x20)\n      add\n        /* \"crypto-core/contracts/TimedReleaseVoting.sol\":6161:6190  holders2[holderAddresses2[i]] */\n      mload(0x40)\n      tag_265\n      swap2\n      swap1\n      tag_257\n      jump\t// in\n    tag_265:\n      swap1\n      dup2\n      mstore\n      0x20\n      add\n      mload(0x40)\n      dup1\n      swap2\n      sub\n      swap1\n      keccak256\n        /* \"crypto-core/contracts/TimedReleaseVoting.sol\":6161:6197  holders2[holderAddresses2[i]].active */\n      0x03\n      add\n      0x00\n      swap1\n      sload\n      swap1\n      0x0100\n      exp\n      swap1\n      div\n      0xff\n      and\n        /* \"crypto-core/contracts/TimedReleaseVoting.sol\":6161:6205  holders2[holderAddresses2[i]].active == true */\n      iszero\n      iszero\n      eq\n        /* \"crypto-core/contracts/TimedReleaseVoting.sol\":6017:6205  holders2[holderAddresses2[i]].walletAddress == msg.sender &&... */\n    tag_262:\n        /* \"crypto-core/contracts/TimedReleaseVoting.sol\":6012:6763  if ( holders2[holderAddresses2[i]].walletAddress == msg.sender &&... */\n      iszero\n      tag_266\n      jumpi\n        /* \"crypto-core/contracts/TimedReleaseVoting.sol\":6290:6295  false */\n      0x00\n        /* \"crypto-core/contracts/TimedReleaseVoting.sol\":6261:6268  holders */\n      0x02\n        /* \"crypto-core/contracts/TimedReleaseVoting.sol\":6261:6280  holders[msg.sender] */\n      0x00\n        /* \"crypto-core/contracts/TimedReleaseVoting.sol\":6269:6279  msg.sender */\n      caller\n        /* \"crypto-core/contracts/TimedReleaseVoting.sol\":6261:6280  holders[msg.sender] */\n      0xffffffffffffffffffffffffffffffffffffffff\n      and\n      0xffffffffffffffffffffffffffffffffffffffff\n      and\n      dup2\n      mstore\n      0x20\n      add\n      swap1\n      dup2\n      mstore\n      0x20\n      add\n      0x00\n      keccak256\n        /* \"crypto-core/contracts/TimedReleaseVoting.sol\":6261:6287  holders[msg.sender].active */\n      0x03\n      add\n      0x00\n        /* \"crypto-core/contracts/TimedReleaseVoting.sol\":6261:6295  holders[msg.sender].active = false */\n      0x0100\n      exp\n      dup2\n      sload\n      dup2\n      0xff\n      mul\n      not\n      and\n      swap1\n      dup4\n      iszero\n      iszero\n      mul\n      or\n      swap1\n      sstore\n      pop\n        /* \"crypto-core/contracts/TimedReleaseVoting.sol\":6352:6357  false */\n      0x00\n        /* \"crypto-core/contracts/TimedReleaseVoting.sol\":6313:6321  holders2 */\n      0x03\n        /* \"crypto-core/contracts/TimedReleaseVoting.sol\":6322:6338  holderAddresses2 */\n      0x05\n        /* \"crypto-core/contracts/TimedReleaseVoting.sol\":6339:6340  i */\n      dup4\n        /* \"crypto-core/contracts/TimedReleaseVoting.sol\":6322:6341  holderAddresses2[i] */\n      dup2\n      sload\n      dup2\n      lt\n      tag_267\n      jumpi\n      mstore(0x00, 0x4e487b7100000000000000000000000000000000000000000000000000000000)\n      mstore(0x04, 0x32)\n      revert(0x00, 0x24)\n    tag_267:\n      swap1\n      0x00\n      mstore\n      keccak256(0x00, 0x20)\n      add\n        /* \"crypto-core/contracts/TimedReleaseVoting.sol\":6313:6342  holders2[holderAddresses2[i]] */\n      mload(0x40)\n      tag_269\n      swap2\n      swap1\n      tag_257\n      jump\t// in\n    tag_269:\n      swap1\n      dup2\n      mstore\n      0x20\n      add\n      mload(0x40)\n      dup1\n      swap2\n      sub\n      swap1\n      keccak256\n        /* \"crypto-core/contracts/TimedReleaseVoting.sol\":6313:6349  holders2[holderAddresses2[i]].active */\n      0x03\n      add\n      0x00\n        /* \"crypto-core/contracts/TimedReleaseVoting.sol\":6313:6357  holders2[holderAddresses2[i]].active = false */\n      0x0100\n      exp\n      dup2\n      sload\n      dup2\n      0xff\n      mul\n      not\n      and\n      swap1\n      dup4\n      iszero\n      iszero\n      mul\n      or\n      swap1\n      sstore\n      pop\n        /* \"crypto-core/contracts/TimedReleaseVoting.sol\":6375:6391  holderAddresses2 */\n      0x05\n        /* \"crypto-core/contracts/TimedReleaseVoting.sol\":6397:6413  holderAddresses2 */\n      dup1\n        /* \"crypto-core/contracts/TimedReleaseVoting.sol\":6414:6415  i */\n      dup3\n        /* \"crypto-core/contracts/TimedReleaseVoting.sol\":6397:6416  holderAddresses2[i] */\n      dup2\n      sload\n      dup2\n      lt\n      tag_270\n      jumpi\n      mstore(0x00, 0x4e487b7100000000000000000000000000000000000000000000000000000000)\n      mstore(0x04, 0x32)\n      revert(0x00, 0x24)\n    tag_270:\n      swap1\n      0x00\n      mstore\n      keccak256(0x00, 0x20)\n      add\n        /* \"crypto-core/contracts/TimedReleaseVoting.sol\":6375:6417  holderAddresses2.push(holderAddresses2[i]) */\n      swap1\n      dup1\n      0x01\n      dup2\n      sload\n      add\n      dup1\n      dup3\n      sstore\n      dup1\n      swap2\n      pop\n      pop\n      0x01\n      swap1\n      sub\n      swap1\n      0x00\n      mstore\n      keccak256(0x00, 0x20)\n      add\n      0x00\n      swap1\n      swap2\n      swap1\n      swap2\n      swap1\n      swap2\n      pop\n      swap1\n      dup1\n      sload\n      tag_273\n      swap1\n      tag_241\n      jump\t// in\n    tag_273:\n      tag_274\n      swap3\n      swap2\n      swap1\n      tag_275\n      jump\t// in\n    tag_274:\n      pop\n        /* \"crypto-core/contracts/TimedReleaseVoting.sol\":6486:6507  uint256 depositAmount */\n      0x00\n        /* \"crypto-core/contracts/TimedReleaseVoting.sol\":6510:6517  holders */\n      0x02\n        /* \"crypto-core/contracts/TimedReleaseVoting.sol\":6510:6529  holders[msg.sender] */\n      0x00\n        /* \"crypto-core/contracts/TimedReleaseVoting.sol\":6518:6528  msg.sender */\n      caller\n        /* \"crypto-core/contracts/TimedReleaseVoting.sol\":6510:6529  holders[msg.sender] */\n      0xffffffffffffffffffffffffffffffffffffffff\n      and\n      0xffffffffffffffffffffffffffffffffffffffff\n      and\n      dup2\n      mstore\n      0x20\n      add\n      swap1\n      dup2\n      mstore\n      0x20\n      add\n      0x00\n      keccak256\n        /* \"crypto-core/contracts/TimedReleaseVoting.sol\":6510:6537  holders[msg.sender].deposit */\n      0x02\n      add\n      sload\n        /* \"crypto-core/contracts/TimedReleaseVoting.sol\":6486:6537  uint256 depositAmount = holders[msg.sender].deposit */\n      swap1\n      pop\n        /* \"crypto-core/contracts/TimedReleaseVoting.sol\":6585:6586  0 */\n      0x00\n        /* \"crypto-core/contracts/TimedReleaseVoting.sol\":6555:6562  holders */\n      0x02\n        /* \"crypto-core/contracts/TimedReleaseVoting.sol\":6555:6574  holders[msg.sender] */\n      0x00\n        /* \"crypto-core/contracts/TimedReleaseVoting.sol\":6563:6573  msg.sender */\n      caller\n        /* \"crypto-core/contracts/TimedReleaseVoting.sol\":6555:6574  holders[msg.sender] */\n      0xffffffffffffffffffffffffffffffffffffffff\n      and\n      0xffffffffffffffffffffffffffffffffffffffff\n      and\n      dup2\n      mstore\n      0x20\n      add\n      swap1\n      dup2\n      mstore\n      0x20\n      add\n      0x00\n      keccak256\n        /* \"crypto-core/contracts/TimedReleaseVoting.sol\":6555:6582  holders[msg.sender].deposit */\n      0x02\n      add\n        /* \"crypto-core/contracts/TimedReleaseVoting.sol\":6555:6586  holders[msg.sender].deposit = 0 */\n      dup2\n      swap1\n      sstore\n      pop\n        /* \"crypto-core/contracts/TimedReleaseVoting.sol\":6612:6622  msg.sender */\n      caller\n        /* \"crypto-core/contracts/TimedReleaseVoting.sol\":6604:6632  payable(msg.sender).transfer */\n      0xffffffffffffffffffffffffffffffffffffffff\n      and\n        /* \"crypto-core/contracts/TimedReleaseVoting.sol\":6604:6647  payable(msg.sender).transfer(depositAmount) */\n      0x08fc\n        /* \"crypto-core/contracts/TimedReleaseVoting.sol\":6633:6646  depositAmount */\n      dup3\n        /* \"crypto-core/contracts/TimedReleaseVoting.sol\":6604:6647  payable(msg.sender).transfer(depositAmount) */\n      swap1\n      dup2\n      iszero\n      mul\n      swap1\n      mload(0x40)\n      0x00\n      mload(0x40)\n      dup1\n      dup4\n      sub\n      dup2\n      dup6\n      dup9\n      dup9\n      call\n      swap4\n      pop\n      pop\n      pop\n      pop\n      iszero\n      dup1\n      iszero\n      tag_277\n      jumpi\n      returndatasize\n      0x00\n      dup1\n      returndatacopy\n      revert(0x00, returndatasize)\n    tag_277:\n      pop\n        /* \"crypto-core/contracts/TimedReleaseVoting.sol\":6700:6710  msg.sender */\n      caller\n        /* \"crypto-core/contracts/TimedReleaseVoting.sol\":6687:6711  HolderExited(msg.sender) */\n      0xffffffffffffffffffffffffffffffffffffffff\n      and\n      0xadf7a730cb8e5f6d0d4933fcce78776b911b3d86736403569632600df0b99e61\n      mload(0x40)\n      mload(0x40)\n      dup1\n      swap2\n      sub\n      swap1\n      log2\n        /* \"crypto-core/contracts/TimedReleaseVoting.sol\":6744:6748  true */\n      0x01\n        /* \"crypto-core/contracts/TimedReleaseVoting.sol\":6730:6748  activeCheck = true */\n      swap3\n      pop\n        /* \"crypto-core/contracts/TimedReleaseVoting.sol\":6012:6763  if ( holders2[holderAddresses2[i]].walletAddress == msg.sender &&... */\n      pop\n    tag_266:\n        /* \"crypto-core/contracts/TimedReleaseVoting.sol\":5993:5996  i++ */\n      dup1\n      dup1\n      tag_278\n      swap1\n      tag_205\n      jump\t// in\n    tag_278:\n      swap2\n      pop\n      pop\n        /* \"crypto-core/contracts/TimedReleaseVoting.sol\":5944:6773  for (uint256 i = 0; i < holderAddresses2.length; i++) {... */\n      jump(tag_251)\n    tag_252:\n      pop\n        /* \"crypto-core/contracts/TimedReleaseVoting.sol\":6805:6810  false */\n      0x00\n        /* \"crypto-core/contracts/TimedReleaseVoting.sol\":6790:6810  activeCheck == false */\n      iszero\n      iszero\n        /* \"crypto-core/contracts/TimedReleaseVoting.sol\":6790:6801  activeCheck */\n      dup2\n        /* \"crypto-core/contracts/TimedReleaseVoting.sol\":6790:6810  activeCheck == false */\n      iszero\n      iszero\n      eq\n        /* \"crypto-core/contracts/TimedReleaseVoting.sol\":6782:6848  require(activeCheck == false, \"Account isn't a registered holder\") */\n      tag_279\n      jumpi\n      mload(0x40)\n      0x08c379a000000000000000000000000000000000000000000000000000000000\n      dup2\n      mstore\n      0x04\n      add\n      tag_280\n      swap1\n      tag_281\n      jump\t// in\n    tag_280:\n      mload(0x40)\n      dup1\n      swap2\n      sub\n      swap1\n      revert\n    tag_279:\n        /* \"crypto-core/contracts/TimedReleaseVoting.sol\":4172:4173  _ */\n      pop\n        /* \"crypto-core/contracts/TimedReleaseVoting.sol\":5749:6855  function unJoinAsHolder(uint256 electionId) external onlyHolder {... */\n      pop\n      jump\t// out\n        /* \"crypto-core/contracts/TimedReleaseVoting.sol\":12702:13036  function claimRewards() external onlyHolder {... */\n    tag_83:\n        /* \"crypto-core/contracts/TimedReleaseVoting.sol\":4098:4105  holders */\n      0x02\n        /* \"crypto-core/contracts/TimedReleaseVoting.sol\":4098:4117  holders[msg.sender] */\n      0x00\n        /* \"crypto-core/contracts/TimedReleaseVoting.sol\":4106:4116  msg.sender */\n      caller\n        /* \"crypto-core/contracts/TimedReleaseVoting.sol\":4098:4117  holders[msg.sender] */\n      0xffffffffffffffffffffffffffffffffffffffff\n      and\n      0xffffffffffffffffffffffffffffffffffffffff\n      and\n      dup2\n      mstore\n      0x20\n      add\n      swap1\n      dup2\n      mstore\n      0x20\n      add\n      0x00\n      keccak256\n        /* \"crypto-core/contracts/TimedReleaseVoting.sol\":4098:4124  holders[msg.sender].active */\n      0x03\n      add\n      0x00\n      swap1\n      sload\n      swap1\n      0x0100\n      exp\n      swap1\n      div\n      0xff\n      and\n        /* \"crypto-core/contracts/TimedReleaseVoting.sol\":4090:4162  require(holders[msg.sender].active, \"Caller is not a registered holder\") */\n      tag_283\n      jumpi\n      mload(0x40)\n      0x08c379a000000000000000000000000000000000000000000000000000000000\n      dup2\n      mstore\n      0x04\n      add\n      tag_284\n      swap1\n      tag_249\n      jump\t// in\n    tag_284:\n      mload(0x40)\n      dup1\n      swap2\n      sub\n      swap1\n      revert\n    tag_283:\n        /* \"crypto-core/contracts/TimedReleaseVoting.sol\":12756:12776  uint256 rewardAmount */\n      0x00\n        /* \"crypto-core/contracts/TimedReleaseVoting.sol\":12779:12786  holders */\n      0x02\n        /* \"crypto-core/contracts/TimedReleaseVoting.sol\":12779:12798  holders[msg.sender] */\n      0x00\n        /* \"crypto-core/contracts/TimedReleaseVoting.sol\":12787:12797  msg.sender */\n      caller\n        /* \"crypto-core/contracts/TimedReleaseVoting.sol\":12779:12798  holders[msg.sender] */\n      0xffffffffffffffffffffffffffffffffffffffff\n      and\n      0xffffffffffffffffffffffffffffffffffffffff\n      and\n      dup2\n      mstore\n      0x20\n      add\n      swap1\n      dup2\n      mstore\n      0x20\n      add\n      0x00\n      keccak256\n        /* \"crypto-core/contracts/TimedReleaseVoting.sol\":12779:12806  holders[msg.sender].rewards */\n      0x04\n      add\n      sload\n        /* \"crypto-core/contracts/TimedReleaseVoting.sol\":12756:12806  uint256 rewardAmount = holders[msg.sender].rewards */\n      swap1\n      pop\n        /* \"crypto-core/contracts/TimedReleaseVoting.sol\":12839:12840  0 */\n      0x00\n        /* \"crypto-core/contracts/TimedReleaseVoting.sol\":12824:12836  rewardAmount */\n      dup2\n        /* \"crypto-core/contracts/TimedReleaseVoting.sol\":12824:12840  rewardAmount > 0 */\n      gt\n        /* \"crypto-core/contracts/TimedReleaseVoting.sol\":12816:12864  require(rewardAmount > 0, \"No rewards to claim\") */\n      tag_286\n      jumpi\n      mload(0x40)\n      0x08c379a000000000000000000000000000000000000000000000000000000000\n      dup2\n      mstore\n      0x04\n      add\n      tag_287\n      swap1\n      tag_288\n      jump\t// in\n    tag_287:\n      mload(0x40)\n      dup1\n      swap2\n      sub\n      swap1\n      revert\n    tag_286:\n        /* \"crypto-core/contracts/TimedReleaseVoting.sol\":12913:12914  0 */\n      0x00\n        /* \"crypto-core/contracts/TimedReleaseVoting.sol\":12883:12890  holders */\n      0x02\n        /* \"crypto-core/contracts/TimedReleaseVoting.sol\":12883:12902  holders[msg.sender] */\n      0x00\n        /* \"crypto-core/contracts/TimedReleaseVoting.sol\":12891:12901  msg.sender */\n      caller\n        /* \"crypto-core/contracts/TimedReleaseVoting.sol\":12883:12902  holders[msg.sender] */\n      0xffffffffffffffffffffffffffffffffffffffff\n      and\n      0xffffffffffffffffffffffffffffffffffffffff\n      and\n      dup2\n      mstore\n      0x20\n      add\n      swap1\n      dup2\n      mstore\n      0x20\n      add\n      0x00\n      keccak256\n        /* \"crypto-core/contracts/TimedReleaseVoting.sol\":12883:12910  holders[msg.sender].rewards */\n      0x04\n      add\n        /* \"crypto-core/contracts/TimedReleaseVoting.sol\":12883:12914  holders[msg.sender].rewards = 0 */\n      dup2\n      swap1\n      sstore\n      pop\n        /* \"crypto-core/contracts/TimedReleaseVoting.sol\":12932:12942  msg.sender */\n      caller\n        /* \"crypto-core/contracts/TimedReleaseVoting.sol\":12924:12952  payable(msg.sender).transfer */\n      0xffffffffffffffffffffffffffffffffffffffff\n      and\n        /* \"crypto-core/contracts/TimedReleaseVoting.sol\":12924:12966  payable(msg.sender).transfer(rewardAmount) */\n      0x08fc\n        /* \"crypto-core/contracts/TimedReleaseVoting.sol\":12953:12965  rewardAmount */\n      dup3\n        /* \"crypto-core/contracts/TimedReleaseVoting.sol\":12924:12966  payable(msg.sender).transfer(rewardAmount) */\n      swap1\n      dup2\n      iszero\n      mul\n      swap1\n      mload(0x40)\n      0x00\n      mload(0x40)\n      dup1\n      dup4\n      sub\n      dup2\n      dup6\n      dup9\n      dup9\n      call\n      swap4\n      pop\n      pop\n      pop\n      pop\n      iszero\n      dup1\n      iszero\n      tag_290\n      jumpi\n      returndatasize\n      0x00\n      dup1\n      returndatacopy\n      revert(0x00, returndatasize)\n    tag_290:\n      pop\n        /* \"crypto-core/contracts/TimedReleaseVoting.sol\":13004:13014  msg.sender */\n      caller\n        /* \"crypto-core/contracts/TimedReleaseVoting.sol\":12990:13029  RewardClaimed(msg.sender, rewardAmount) */\n      0xffffffffffffffffffffffffffffffffffffffff\n      and\n      0x106f923f993c2149d49b4255ff723acafa1f2d94393f561d3eda32ae348f7241\n        /* \"crypto-core/contracts/TimedReleaseVoting.sol\":13016:13028  rewardAmount */\n      dup3\n        /* \"crypto-core/contracts/TimedReleaseVoting.sol\":12990:13029  RewardClaimed(msg.sender, rewardAmount) */\n      mload(0x40)\n      tag_291\n      swap2\n      swap1\n      tag_46\n      jump\t// in\n    tag_291:\n      mload(0x40)\n      dup1\n      swap2\n      sub\n      swap1\n      log2\n        /* \"crypto-core/contracts/TimedReleaseVoting.sol\":4172:4173  _ */\n      pop\n        /* \"crypto-core/contracts/TimedReleaseVoting.sol\":12702:13036  function claimRewards() external onlyHolder {... */\n      jump\t// out\n        /* \"crypto-core/contracts/TimedReleaseVoting.sol\":576:620  mapping(uint256 => Election) public election */\n    tag_87:\n      mstore(0x20, 0x00)\n      dup1\n      0x00\n      mstore\n      keccak256(0x00, 0x40)\n      0x00\n      swap2\n      pop\n      swap1\n      pop\n      dup1\n      0x00\n      add\n      sload\n      swap1\n      dup1\n      0x01\n      add\n      dup1\n      sload\n      tag_292\n      swap1\n      tag_241\n      jump\t// in\n    tag_292:\n      dup1\n      0x1f\n      add\n      0x20\n      dup1\n      swap2\n      div\n      mul\n      0x20\n      add\n      mload(0x40)\n      swap1\n      dup2\n      add\n      0x40\n      mstore\n      dup1\n      swap3\n      swap2\n      swap1\n      dup2\n      dup2\n      mstore\n      0x20\n      add\n      dup3\n      dup1\n      sload\n      tag_293\n      swap1\n      tag_241\n      jump\t// in\n    tag_293:\n      dup1\n      iszero\n      tag_294\n      jumpi\n      dup1\n      0x1f\n      lt\n      tag_295\n      jumpi\n      0x0100\n      dup1\n      dup4\n      sload\n      div\n      mul\n      dup4\n      mstore\n      swap2\n      0x20\n      add\n      swap2\n      jump(tag_294)\n    tag_295:\n      dup3\n      add\n      swap2\n      swap1\n      0x00\n      mstore\n      keccak256(0x00, 0x20)\n      swap1\n    tag_296:\n      dup2\n      sload\n      dup2\n      mstore\n      swap1\n      0x01\n      add\n      swap1\n      0x20\n      add\n      dup1\n      dup4\n      gt\n      tag_296\n      jumpi\n      dup3\n      swap1\n      sub\n      0x1f\n      and\n      dup3\n      add\n      swap2\n    tag_294:\n      pop\n      pop\n      pop\n      pop\n      pop\n      swap1\n      dup1\n      0x02\n      add\n      dup1\n      sload\n      tag_297\n      swap1\n      tag_241\n      jump\t// in\n    tag_297:\n      dup1\n      0x1f\n      add\n      0x20\n      dup1\n      swap2\n      div\n      mul\n      0x20\n      add\n      mload(0x40)\n      swap1\n      dup2\n      add\n      0x40\n      mstore\n      dup1\n      swap3\n      swap2\n      swap1\n      dup2\n      dup2\n      mstore\n      0x20\n      add\n      dup3\n      dup1\n      sload\n      tag_298\n      swap1\n      tag_241\n      jump\t// in\n    tag_298:\n      dup1\n      iszero\n      tag_299\n      jumpi\n      dup1\n      0x1f\n      lt\n      tag_300\n      jumpi\n      0x0100\n      dup1\n      dup4\n      sload\n      div\n      mul\n      dup4\n      mstore\n      swap2\n      0x20\n      add\n      swap2\n      jump(tag_299)\n    tag_300:\n      dup3\n      add\n      swap2\n      swap1\n      0x00\n      mstore\n      keccak256(0x00, 0x20)\n      swap1\n    tag_301:\n      dup2\n      sload\n      dup2\n      mstore\n      swap1\n      0x01\n      add\n      swap1\n      0x20\n      add\n      dup1\n      dup4\n      gt\n      tag_301\n      jumpi\n      dup3\n      swap1\n      sub\n      0x1f\n      and\n      dup3\n      add\n      swap2\n    tag_299:\n      pop\n      pop\n      pop\n      pop\n      pop\n      swap1\n      dup1\n      0x03\n      add\n      sload\n      swap1\n      dup1\n      0x04\n      add\n      sload\n      swap1\n      dup1\n      0x06\n      add\n      sload\n      swap1\n      dup1\n      0x07\n      add\n      sload\n      swap1\n      pop\n      dup8\n      jump\t// out\n        /* \"crypto-core/contracts/TimedReleaseVoting.sol\":6939:8266  function exitAsHolder() external onlyHolder {... */\n    tag_92:\n        /* \"crypto-core/contracts/TimedReleaseVoting.sol\":4098:4105  holders */\n      0x02\n        /* \"crypto-core/contracts/TimedReleaseVoting.sol\":4098:4117  holders[msg.sender] */\n      0x00\n        /* \"crypto-core/contracts/TimedReleaseVoting.sol\":4106:4116  msg.sender */\n      caller\n        /* \"crypto-core/contracts/TimedReleaseVoting.sol\":4098:4117  holders[msg.sender] */\n      0xffffffffffffffffffffffffffffffffffffffff\n      and\n      0xffffffffffffffffffffffffffffffffffffffff\n      and\n      dup2\n      mstore\n      0x20\n      add\n      swap1\n      dup2\n      mstore\n      0x20\n      add\n      0x00\n      keccak256\n        /* \"crypto-core/contracts/TimedReleaseVoting.sol\":4098:4124  holders[msg.sender].active */\n      0x03\n      add\n      0x00\n      swap1\n      sload\n      swap1\n      0x0100\n      exp\n      swap1\n      div\n      0xff\n      and\n        /* \"crypto-core/contracts/TimedReleaseVoting.sol\":4090:4162  require(holders[msg.sender].active, \"Caller is not a registered holder\") */\n      tag_303\n      jumpi\n      mload(0x40)\n      0x08c379a000000000000000000000000000000000000000000000000000000000\n      dup2\n      mstore\n      0x04\n      add\n      tag_304\n      swap1\n      tag_249\n      jump\t// in\n    tag_304:\n      mload(0x40)\n      dup1\n      swap2\n      sub\n      swap1\n      revert\n    tag_303:\n        /* \"crypto-core/contracts/TimedReleaseVoting.sol\":7098:7107  uint256 i */\n      0x00\n        /* \"crypto-core/contracts/TimedReleaseVoting.sol\":7093:7941  for (uint256 i = 0; i < voteCount; i++) {... */\n    tag_306:\n        /* \"crypto-core/contracts/TimedReleaseVoting.sol\":7117:7126  voteCount */\n      sload(0x07)\n        /* \"crypto-core/contracts/TimedReleaseVoting.sol\":7113:7114  i */\n      dup2\n        /* \"crypto-core/contracts/TimedReleaseVoting.sol\":7113:7126  i < voteCount */\n      lt\n        /* \"crypto-core/contracts/TimedReleaseVoting.sol\":7093:7941  for (uint256 i = 0; i < voteCount; i++) {... */\n      iszero\n      tag_307\n      jumpi\n        /* \"crypto-core/contracts/TimedReleaseVoting.sol\":7151:7156  votes */\n      0x06\n        /* \"crypto-core/contracts/TimedReleaseVoting.sol\":7151:7159  votes[i] */\n      0x00\n        /* \"crypto-core/contracts/TimedReleaseVoting.sol\":7157:7158  i */\n      dup3\n        /* \"crypto-core/contracts/TimedReleaseVoting.sol\":7151:7159  votes[i] */\n      dup2\n      mstore\n      0x20\n      add\n      swap1\n      dup2\n      mstore\n      0x20\n      add\n      0x00\n      keccak256\n        /* \"crypto-core/contracts/TimedReleaseVoting.sol\":7151:7166  votes[i].exists */\n      0x07\n      add\n      0x00\n      swap1\n      sload\n      swap1\n      0x0100\n      exp\n      swap1\n      div\n      0xff\n      and\n        /* \"crypto-core/contracts/TimedReleaseVoting.sol\":7151:7212  votes[i].exists && votes[i].decryptionTime <= block.timestamp */\n      dup1\n      iszero\n      tag_309\n      jumpi\n      pop\n        /* \"crypto-core/contracts/TimedReleaseVoting.sol\":7197:7212  block.timestamp */\n      timestamp\n        /* \"crypto-core/contracts/TimedReleaseVoting.sol\":7170:7175  votes */\n      0x06\n        /* \"crypto-core/contracts/TimedReleaseVoting.sol\":7170:7178  votes[i] */\n      0x00\n        /* \"crypto-core/contracts/TimedReleaseVoting.sol\":7176:7177  i */\n      dup4\n        /* \"crypto-core/contracts/TimedReleaseVoting.sol\":7170:7178  votes[i] */\n      dup2\n      mstore\n      0x20\n      add\n      swap1\n      dup2\n      mstore\n      0x20\n      add\n      0x00\n      keccak256\n        /* \"crypto-core/contracts/TimedReleaseVoting.sol\":7170:7193  votes[i].decryptionTime */\n      0x02\n      add\n      sload\n        /* \"crypto-core/contracts/TimedReleaseVoting.sol\":7170:7212  votes[i].decryptionTime <= block.timestamp */\n      gt\n      iszero\n        /* \"crypto-core/contracts/TimedReleaseVoting.sol\":7151:7212  votes[i].exists && votes[i].decryptionTime <= block.timestamp */\n    tag_309:\n        /* \"crypto-core/contracts/TimedReleaseVoting.sol\":7147:7931  if (votes[i].exists && votes[i].decryptionTime <= block.timestamp) {... */\n      iszero\n      tag_310\n      jumpi\n        /* \"crypto-core/contracts/TimedReleaseVoting.sol\":7338:7355  bool hasSubmitted */\n      0x00\n        /* \"crypto-core/contracts/TimedReleaseVoting.sol\":7386:7395  uint256 j */\n      dup1\n        /* \"crypto-core/contracts/TimedReleaseVoting.sol\":7381:7629  for (uint256 j = 0; j < votes[i].shareSubmitters.length; j++) {... */\n    tag_311:\n        /* \"crypto-core/contracts/TimedReleaseVoting.sol\":7405:7410  votes */\n      0x06\n        /* \"crypto-core/contracts/TimedReleaseVoting.sol\":7405:7413  votes[i] */\n      0x00\n        /* \"crypto-core/contracts/TimedReleaseVoting.sol\":7411:7412  i */\n      dup5\n        /* \"crypto-core/contracts/TimedReleaseVoting.sol\":7405:7413  votes[i] */\n      dup2\n      mstore\n      0x20\n      add\n      swap1\n      dup2\n      mstore\n      0x20\n      add\n      0x00\n      keccak256\n        /* \"crypto-core/contracts/TimedReleaseVoting.sol\":7405:7429  votes[i].shareSubmitters */\n      0x06\n      add\n        /* \"crypto-core/contracts/TimedReleaseVoting.sol\":7405:7436  votes[i].shareSubmitters.length */\n      dup1\n      sload\n      swap1\n      pop\n        /* \"crypto-core/contracts/TimedReleaseVoting.sol\":7401:7402  j */\n      dup2\n        /* \"crypto-core/contracts/TimedReleaseVoting.sol\":7401:7436  j < votes[i].shareSubmitters.length */\n      lt\n        /* \"crypto-core/contracts/TimedReleaseVoting.sol\":7381:7629  for (uint256 j = 0; j < votes[i].shareSubmitters.length; j++) {... */\n      iszero\n      tag_312\n      jumpi\n        /* \"crypto-core/contracts/TimedReleaseVoting.sol\":7500:7510  msg.sender */\n      caller\n        /* \"crypto-core/contracts/TimedReleaseVoting.sol\":7469:7510  votes[i].shareSubmitters[j] == msg.sender */\n      0xffffffffffffffffffffffffffffffffffffffff\n      and\n        /* \"crypto-core/contracts/TimedReleaseVoting.sol\":7469:7474  votes */\n      0x06\n        /* \"crypto-core/contracts/TimedReleaseVoting.sol\":7469:7477  votes[i] */\n      0x00\n        /* \"crypto-core/contracts/TimedReleaseVoting.sol\":7475:7476  i */\n      dup6\n        /* \"crypto-core/contracts/TimedReleaseVoting.sol\":7469:7477  votes[i] */\n      dup2\n      mstore\n      0x20\n      add\n      swap1\n      dup2\n      mstore\n      0x20\n      add\n      0x00\n      keccak256\n        /* \"crypto-core/contracts/TimedReleaseVoting.sol\":7469:7493  votes[i].shareSubmitters */\n      0x06\n      add\n        /* \"crypto-core/contracts/TimedReleaseVoting.sol\":7494:7495  j */\n      dup3\n        /* \"crypto-core/contracts/TimedReleaseVoting.sol\":7469:7496  votes[i].shareSubmitters[j] */\n      dup2\n      sload\n      dup2\n      lt\n      tag_314\n      jumpi\n      mstore(0x00, 0x4e487b7100000000000000000000000000000000000000000000000000000000)\n      mstore(0x04, 0x32)\n      revert(0x00, 0x24)\n    tag_314:\n      swap1\n      0x00\n      mstore\n      keccak256(0x00, 0x20)\n      add\n      0x00\n      swap1\n      sload\n      swap1\n      0x0100\n      exp\n      swap1\n      div\n      0xffffffffffffffffffffffffffffffffffffffff\n      and\n        /* \"crypto-core/contracts/TimedReleaseVoting.sol\":7469:7510  votes[i].shareSubmitters[j] == msg.sender */\n      0xffffffffffffffffffffffffffffffffffffffff\n      and\n      eq\n        /* \"crypto-core/contracts/TimedReleaseVoting.sol\":7465:7611  if (votes[i].shareSubmitters[j] == msg.sender) {... */\n      iszero\n      tag_316\n      jumpi\n        /* \"crypto-core/contracts/TimedReleaseVoting.sol\":7553:7557  true */\n      0x01\n        /* \"crypto-core/contracts/TimedReleaseVoting.sol\":7538:7557  hasSubmitted = true */\n      swap2\n      pop\n        /* \"crypto-core/contracts/TimedReleaseVoting.sol\":7583:7588  break */\n      jump(tag_312)\n        /* \"crypto-core/contracts/TimedReleaseVoting.sol\":7465:7611  if (votes[i].shareSubmitters[j] == msg.sender) {... */\n    tag_316:\n        /* \"crypto-core/contracts/TimedReleaseVoting.sol\":7438:7441  j++ */\n      dup1\n      dup1\n      tag_317\n      swap1\n      tag_205\n      jump\t// in\n    tag_317:\n      swap2\n      pop\n      pop\n        /* \"crypto-core/contracts/TimedReleaseVoting.sol\":7381:7629  for (uint256 j = 0; j < votes[i].shareSubmitters.length; j++) {... */\n      jump(tag_311)\n    tag_312:\n      pop\n        /* \"crypto-core/contracts/TimedReleaseVoting.sol\":7654:7666  hasSubmitted */\n      dup1\n        /* \"crypto-core/contracts/TimedReleaseVoting.sol\":7646:7708  require(hasSubmitted, \"Must submit shares for all past votes\") */\n      tag_318\n      jumpi\n      mload(0x40)\n      0x08c379a000000000000000000000000000000000000000000000000000000000\n      dup2\n      mstore\n      0x04\n      add\n      tag_319\n      swap1\n      tag_320\n      jump\t// in\n    tag_319:\n      mload(0x40)\n      dup1\n      swap2\n      sub\n      swap1\n      revert\n    tag_318:\n        /* \"crypto-core/contracts/TimedReleaseVoting.sol\":7147:7931  if (votes[i].exists && votes[i].decryptionTime <= block.timestamp) {... */\n      pop\n      jump(tag_321)\n    tag_310:\n        /* \"crypto-core/contracts/TimedReleaseVoting.sol\":7733:7738  votes */\n      0x06\n        /* \"crypto-core/contracts/TimedReleaseVoting.sol\":7733:7741  votes[i] */\n      0x00\n        /* \"crypto-core/contracts/TimedReleaseVoting.sol\":7739:7740  i */\n      dup3\n        /* \"crypto-core/contracts/TimedReleaseVoting.sol\":7733:7741  votes[i] */\n      dup2\n      mstore\n      0x20\n      add\n      swap1\n      dup2\n      mstore\n      0x20\n      add\n      0x00\n      keccak256\n        /* \"crypto-core/contracts/TimedReleaseVoting.sol\":7733:7748  votes[i].exists */\n      0x07\n      add\n      0x00\n      swap1\n      sload\n      swap1\n      0x0100\n      exp\n      swap1\n      div\n      0xff\n      and\n        /* \"crypto-core/contracts/TimedReleaseVoting.sol\":7733:7793  votes[i].exists && votes[i].decryptionTime > block.timestamp */\n      dup1\n      iszero\n      tag_322\n      jumpi\n      pop\n        /* \"crypto-core/contracts/TimedReleaseVoting.sol\":7778:7793  block.timestamp */\n      timestamp\n        /* \"crypto-core/contracts/TimedReleaseVoting.sol\":7752:7757  votes */\n      0x06\n        /* \"crypto-core/contracts/TimedReleaseVoting.sol\":7752:7760  votes[i] */\n      0x00\n        /* \"crypto-core/contracts/TimedReleaseVoting.sol\":7758:7759  i */\n      dup4\n        /* \"crypto-core/contracts/TimedReleaseVoting.sol\":7752:7760  votes[i] */\n      dup2\n      mstore\n      0x20\n      add\n      swap1\n      dup2\n      mstore\n      0x20\n      add\n      0x00\n      keccak256\n        /* \"crypto-core/contracts/TimedReleaseVoting.sol\":7752:7775  votes[i].decryptionTime */\n      0x02\n      add\n      sload\n        /* \"crypto-core/contracts/TimedReleaseVoting.sol\":7752:7793  votes[i].decryptionTime > block.timestamp */\n      gt\n        /* \"crypto-core/contracts/TimedReleaseVoting.sol\":7733:7793  votes[i].exists && votes[i].decryptionTime > block.timestamp */\n    tag_322:\n        /* \"crypto-core/contracts/TimedReleaseVoting.sol\":7729:7931  if (votes[i].exists && votes[i].decryptionTime > block.timestamp) {... */\n      iszero\n      tag_323\n      jumpi\n        /* \"crypto-core/contracts/TimedReleaseVoting.sol\":7869:7916  revert(\"Cannot exit with pending future votes\") */\n      mload(0x40)\n      0x08c379a000000000000000000000000000000000000000000000000000000000\n      dup2\n      mstore\n      0x04\n      add\n      tag_324\n      swap1\n      tag_325\n      jump\t// in\n    tag_324:\n      mload(0x40)\n      dup1\n      swap2\n      sub\n      swap1\n      revert\n        /* \"crypto-core/contracts/TimedReleaseVoting.sol\":7729:7931  if (votes[i].exists && votes[i].decryptionTime > block.timestamp) {... */\n    tag_323:\n        /* \"crypto-core/contracts/TimedReleaseVoting.sol\":7147:7931  if (votes[i].exists && votes[i].decryptionTime <= block.timestamp) {... */\n    tag_321:\n        /* \"crypto-core/contracts/TimedReleaseVoting.sol\":7128:7131  i++ */\n      dup1\n      dup1\n      tag_326\n      swap1\n      tag_205\n      jump\t// in\n    tag_326:\n      swap2\n      pop\n      pop\n        /* \"crypto-core/contracts/TimedReleaseVoting.sol\":7093:7941  for (uint256 i = 0; i < voteCount; i++) {... */\n      jump(tag_306)\n    tag_307:\n      pop\n        /* \"crypto-core/contracts/TimedReleaseVoting.sol\":8016:8021  false */\n      0x00\n        /* \"crypto-core/contracts/TimedReleaseVoting.sol\":7987:7994  holders */\n      0x02\n        /* \"crypto-core/contracts/TimedReleaseVoting.sol\":7987:8006  holders[msg.sender] */\n      0x00\n        /* \"crypto-core/contracts/TimedReleaseVoting.sol\":7995:8005  msg.sender */\n      caller\n        /* \"crypto-core/contracts/TimedReleaseVoting.sol\":7987:8006  holders[msg.sender] */\n      0xffffffffffffffffffffffffffffffffffffffff\n      and\n      0xffffffffffffffffffffffffffffffffffffffff\n      and\n      dup2\n      mstore\n      0x20\n      add\n      swap1\n      dup2\n      mstore\n      0x20\n      add\n      0x00\n      keccak256\n        /* \"crypto-core/contracts/TimedReleaseVoting.sol\":7987:8013  holders[msg.sender].active */\n      0x03\n      add\n      0x00\n        /* \"crypto-core/contracts/TimedReleaseVoting.sol\":7987:8021  holders[msg.sender].active = false */\n      0x0100\n      exp\n      dup2\n      sload\n      dup2\n      0xff\n      mul\n      not\n      and\n      swap1\n      dup4\n      iszero\n      iszero\n      mul\n      or\n      swap1\n      sstore\n      pop\n        /* \"crypto-core/contracts/TimedReleaseVoting.sol\":8066:8087  uint256 depositAmount */\n      0x00\n        /* \"crypto-core/contracts/TimedReleaseVoting.sol\":8090:8097  holders */\n      0x02\n        /* \"crypto-core/contracts/TimedReleaseVoting.sol\":8090:8109  holders[msg.sender] */\n      0x00\n        /* \"crypto-core/contracts/TimedReleaseVoting.sol\":8098:8108  msg.sender */\n      caller\n        /* \"crypto-core/contracts/TimedReleaseVoting.sol\":8090:8109  holders[msg.sender] */\n      0xffffffffffffffffffffffffffffffffffffffff\n      and\n      0xffffffffffffffffffffffffffffffffffffffff\n      and\n      dup2\n      mstore\n      0x20\n      add\n      swap1\n      dup2\n      mstore\n      0x20\n      add\n      0x00\n      keccak256\n        /* \"crypto-core/contracts/TimedReleaseVoting.sol\":8090:8117  holders[msg.sender].deposit */\n      0x02\n      add\n      sload\n        /* \"crypto-core/contracts/TimedReleaseVoting.sol\":8066:8117  uint256 depositAmount = holders[msg.sender].deposit */\n      swap1\n      pop\n        /* \"crypto-core/contracts/TimedReleaseVoting.sol\":8157:8158  0 */\n      0x00\n        /* \"crypto-core/contracts/TimedReleaseVoting.sol\":8127:8134  holders */\n      0x02\n        /* \"crypto-core/contracts/TimedReleaseVoting.sol\":8127:8146  holders[msg.sender] */\n      0x00\n        /* \"crypto-core/contracts/TimedReleaseVoting.sol\":8135:8145  msg.sender */\n      caller\n        /* \"crypto-core/contracts/TimedReleaseVoting.sol\":8127:8146  holders[msg.sender] */\n      0xffffffffffffffffffffffffffffffffffffffff\n      and\n      0xffffffffffffffffffffffffffffffffffffffff\n      and\n      dup2\n      mstore\n      0x20\n      add\n      swap1\n      dup2\n      mstore\n      0x20\n      add\n      0x00\n      keccak256\n        /* \"crypto-core/contracts/TimedReleaseVoting.sol\":8127:8154  holders[msg.sender].deposit */\n      0x02\n      add\n        /* \"crypto-core/contracts/TimedReleaseVoting.sol\":8127:8158  holders[msg.sender].deposit = 0 */\n      dup2\n      swap1\n      sstore\n      pop\n        /* \"crypto-core/contracts/TimedReleaseVoting.sol\":8176:8186  msg.sender */\n      caller\n        /* \"crypto-core/contracts/TimedReleaseVoting.sol\":8168:8196  payable(msg.sender).transfer */\n      0xffffffffffffffffffffffffffffffffffffffff\n      and\n        /* \"crypto-core/contracts/TimedReleaseVoting.sol\":8168:8211  payable(msg.sender).transfer(depositAmount) */\n      0x08fc\n        /* \"crypto-core/contracts/TimedReleaseVoting.sol\":8197:8210  depositAmount */\n      dup3\n        /* \"crypto-core/contracts/TimedReleaseVoting.sol\":8168:8211  payable(msg.sender).transfer(depositAmount) */\n      swap1\n      dup2\n      iszero\n      mul\n      swap1\n      mload(0x40)\n      0x00\n      mload(0x40)\n      dup1\n      dup4\n      sub\n      dup2\n      dup6\n      dup9\n      dup9\n      call\n      swap4\n      pop\n      pop\n      pop\n      pop\n      iszero\n      dup1\n      iszero\n      tag_328\n      jumpi\n      returndatasize\n      0x00\n      dup1\n      returndatacopy\n      revert(0x00, returndatasize)\n    tag_328:\n      pop\n        /* \"crypto-core/contracts/TimedReleaseVoting.sol\":8248:8258  msg.sender */\n      caller\n        /* \"crypto-core/contracts/TimedReleaseVoting.sol\":8235:8259  HolderExited(msg.sender) */\n      0xffffffffffffffffffffffffffffffffffffffff\n      and\n      0xadf7a730cb8e5f6d0d4933fcce78776b911b3d86736403569632600df0b99e61\n      mload(0x40)\n      mload(0x40)\n      dup1\n      swap2\n      sub\n      swap1\n      log2\n        /* \"crypto-core/contracts/TimedReleaseVoting.sol\":4172:4173  _ */\n      pop\n        /* \"crypto-core/contracts/TimedReleaseVoting.sol\":6939:8266  function exitAsHolder() external onlyHolder {... */\n      jump\t// out\n        /* \"crypto-core/contracts/TimedReleaseVoting.sol\":16619:17066  function getVote(uint256 voteId) external view voteExists(voteId) returns (... */\n    tag_96:\n        /* \"crypto-core/contracts/TimedReleaseVoting.sol\":16703:16726  bytes memory ciphertext */\n      0x60\n        /* \"crypto-core/contracts/TimedReleaseVoting.sol\":16736:16754  bytes memory nonce */\n      dup1\n        /* \"crypto-core/contracts/TimedReleaseVoting.sol\":16764:16786  uint256 decryptionTime */\n      0x00\n        /* \"crypto-core/contracts/TimedReleaseVoting.sol\":16796:16817  uint256[2] memory g2r */\n      tag_329\n      tag_330\n      jump\t// in\n    tag_329:\n        /* \"crypto-core/contracts/TimedReleaseVoting.sol\":16827:16844  uint256 threshold */\n      0x00\n        /* \"crypto-core/contracts/TimedReleaseVoting.sol\":16677:16683  voteId */\n      dup6\n        /* \"crypto-core/contracts/TimedReleaseVoting.sol\":4244:4249  votes */\n      0x06\n        /* \"crypto-core/contracts/TimedReleaseVoting.sol\":4244:4257  votes[voteId] */\n      0x00\n        /* \"crypto-core/contracts/TimedReleaseVoting.sol\":4250:4256  voteId */\n      dup3\n        /* \"crypto-core/contracts/TimedReleaseVoting.sol\":4244:4257  votes[voteId] */\n      dup2\n      mstore\n      0x20\n      add\n      swap1\n      dup2\n      mstore\n      0x20\n      add\n      0x00\n      keccak256\n        /* \"crypto-core/contracts/TimedReleaseVoting.sol\":4244:4264  votes[voteId].exists */\n      0x07\n      add\n      0x00\n      swap1\n      sload\n      swap1\n      0x0100\n      exp\n      swap1\n      div\n      0xff\n      and\n        /* \"crypto-core/contracts/TimedReleaseVoting.sol\":4236:4288  require(votes[voteId].exists, \"Vote does not exist\") */\n      tag_332\n      jumpi\n      mload(0x40)\n      0x08c379a000000000000000000000000000000000000000000000000000000000\n      dup2\n      mstore\n      0x04\n      add\n      tag_333\n      swap1\n      tag_211\n      jump\t// in\n    tag_333:\n      mload(0x40)\n      dup1\n      swap2\n      sub\n      swap1\n      revert\n    tag_332:\n        /* \"crypto-core/contracts/TimedReleaseVoting.sol\":16882:16887  votes */\n      0x06\n        /* \"crypto-core/contracts/TimedReleaseVoting.sol\":16882:16895  votes[voteId] */\n      0x00\n        /* \"crypto-core/contracts/TimedReleaseVoting.sol\":16888:16894  voteId */\n      dup9\n        /* \"crypto-core/contracts/TimedReleaseVoting.sol\":16882:16895  votes[voteId] */\n      dup2\n      mstore\n      0x20\n      add\n      swap1\n      dup2\n      mstore\n      0x20\n      add\n      0x00\n      keccak256\n        /* \"crypto-core/contracts/TimedReleaseVoting.sol\":16882:16906  votes[voteId].ciphertext */\n      0x00\n      add\n        /* \"crypto-core/contracts/TimedReleaseVoting.sol\":16920:16925  votes */\n      0x06\n        /* \"crypto-core/contracts/TimedReleaseVoting.sol\":16920:16933  votes[voteId] */\n      0x00\n        /* \"crypto-core/contracts/TimedReleaseVoting.sol\":16926:16932  voteId */\n      dup10\n        /* \"crypto-core/contracts/TimedReleaseVoting.sol\":16920:16933  votes[voteId] */\n      dup2\n      mstore\n      0x20\n      add\n      swap1\n      dup2\n      mstore\n      0x20\n      add\n      0x00\n      keccak256\n        /* \"crypto-core/contracts/TimedReleaseVoting.sol\":16920:16939  votes[voteId].nonce */\n      0x01\n      add\n        /* \"crypto-core/contracts/TimedReleaseVoting.sol\":16953:16958  votes */\n      0x06\n        /* \"crypto-core/contracts/TimedReleaseVoting.sol\":16953:16966  votes[voteId] */\n      0x00\n        /* \"crypto-core/contracts/TimedReleaseVoting.sol\":16959:16965  voteId */\n      dup11\n        /* \"crypto-core/contracts/TimedReleaseVoting.sol\":16953:16966  votes[voteId] */\n      dup2\n      mstore\n      0x20\n      add\n      swap1\n      dup2\n      mstore\n      0x20\n      add\n      0x00\n      keccak256\n        /* \"crypto-core/contracts/TimedReleaseVoting.sol\":16953:16981  votes[voteId].decryptionTime */\n      0x02\n      add\n      sload\n        /* \"crypto-core/contracts/TimedReleaseVoting.sol\":16995:17000  votes */\n      0x06\n        /* \"crypto-core/contracts/TimedReleaseVoting.sol\":16995:17008  votes[voteId] */\n      0x00\n        /* \"crypto-core/contracts/TimedReleaseVoting.sol\":17001:17007  voteId */\n      dup12\n        /* \"crypto-core/contracts/TimedReleaseVoting.sol\":16995:17008  votes[voteId] */\n      dup2\n      mstore\n      0x20\n      add\n      swap1\n      dup2\n      mstore\n      0x20\n      add\n      0x00\n      keccak256\n        /* \"crypto-core/contracts/TimedReleaseVoting.sol\":16995:17012  votes[voteId].g2r */\n      0x03\n      add\n        /* \"crypto-core/contracts/TimedReleaseVoting.sol\":17026:17031  votes */\n      0x06\n        /* \"crypto-core/contracts/TimedReleaseVoting.sol\":17026:17039  votes[voteId] */\n      0x00\n        /* \"crypto-core/contracts/TimedReleaseVoting.sol\":17032:17038  voteId */\n      dup13\n        /* \"crypto-core/contracts/TimedReleaseVoting.sol\":17026:17039  votes[voteId] */\n      dup2\n      mstore\n      0x20\n      add\n      swap1\n      dup2\n      mstore\n      0x20\n      add\n      0x00\n      keccak256\n        /* \"crypto-core/contracts/TimedReleaseVoting.sol\":17026:17049  votes[voteId].threshold */\n      0x0a\n      add\n      sload\n        /* \"crypto-core/contracts/TimedReleaseVoting.sol\":16861:17059  return (... */\n      dup5\n      dup1\n      sload\n      tag_335\n      swap1\n      tag_241\n      jump\t// in\n    tag_335:\n      dup1\n      0x1f\n      add\n      0x20\n      dup1\n      swap2\n      div\n      mul\n      0x20\n      add\n      mload(0x40)\n      swap1\n      dup2\n      add\n      0x40\n      mstore\n      dup1\n      swap3\n      swap2\n      swap1\n      dup2\n      dup2\n      mstore\n      0x20\n      add\n      dup3\n      dup1\n      sload\n      tag_336\n      swap1\n      tag_241\n      jump\t// in\n    tag_336:\n      dup1\n      iszero\n      tag_337\n      jumpi\n      dup1\n      0x1f\n      lt\n      tag_338\n      jumpi\n      0x0100\n      dup1\n      dup4\n      sload\n      div\n      mul\n      dup4\n      mstore\n      swap2\n      0x20\n      add\n      swap2\n      jump(tag_337)\n    tag_338:\n      dup3\n      add\n      swap2\n      swap1\n      0x00\n      mstore\n      keccak256(0x00, 0x20)\n      swap1\n    tag_339:\n      dup2\n      sload\n      dup2\n      mstore\n      swap1\n      0x01\n      add\n      swap1\n      0x20\n      add\n      dup1\n      dup4\n      gt\n      tag_339\n      jumpi\n      dup3\n      swap1\n      sub\n      0x1f\n      and\n      dup3\n      add\n      swap2\n    tag_337:\n      pop\n      pop\n      pop\n      pop\n      pop\n      swap5\n      pop\n      dup4\n      dup1\n      sload\n      tag_340\n      swap1\n      tag_241\n      jump\t// in\n    tag_340:\n      dup1\n      0x1f\n      add\n      0x20\n      dup1\n      swap2\n      div\n      mul\n      0x20\n      add\n      mload(0x40)\n      swap1\n      dup2\n      add\n      0x40\n      mstore\n      dup1\n      swap3\n      swap2\n      swap1\n      dup2\n      dup2\n      mstore\n      0x20\n      add\n      dup3\n      dup1\n      sload\n      tag_341\n      swap1\n      tag_241\n      jump\t// in\n    tag_341:\n      dup1\n      iszero\n      tag_342\n      jumpi\n      dup1\n      0x1f\n      lt\n      tag_343\n      jumpi\n      0x0100\n      dup1\n      dup4\n      sload\n      div\n      mul\n      dup4\n      mstore\n      swap2\n      0x20\n      add\n      swap2\n      jump(tag_342)\n    tag_343:\n      dup3\n      add\n      swap2\n      swap1\n      0x00\n      mstore\n      keccak256(0x00, 0x20)\n      swap1\n    tag_344:\n      dup2\n      sload\n      dup2\n      mstore\n      swap1\n      0x01\n      add\n      swap1\n      0x20\n      add\n      dup1\n      dup4\n      gt\n      tag_344\n      jumpi\n      dup3\n      swap1\n      sub\n      0x1f\n      and\n      dup3\n      add\n      swap2\n    tag_342:\n      pop\n      pop\n      pop\n      pop\n      pop\n      swap4\n      pop\n      dup2\n      0x02\n      dup1\n      0x20\n      mul\n      mload(0x40)\n      swap1\n      dup2\n      add\n      0x40\n      mstore\n      dup1\n      swap3\n      swap2\n      swap1\n      dup3\n      0x02\n      dup1\n      iszero\n      tag_345\n      jumpi\n      0x20\n      mul\n      dup3\n      add\n      swap2\n    tag_346:\n      dup2\n      sload\n      dup2\n      mstore\n      0x20\n      add\n      swap1\n      0x01\n      add\n      swap1\n      dup1\n      dup4\n      gt\n      tag_346\n      jumpi\n    tag_345:\n      pop\n      pop\n      pop\n      pop\n      pop\n      swap2\n      pop\n      swap6\n      pop\n      swap6\n      pop\n      swap6\n      pop\n      swap6\n      pop\n      swap6\n      pop\n        /* \"crypto-core/contracts/TimedReleaseVoting.sol\":16619:17066  function getVote(uint256 voteId) external view voteExists(voteId) returns (... */\n      pop\n      swap2\n      swap4\n      swap6\n      swap1\n      swap3\n      swap5\n      pop\n      jump\t// out\n        /* \"crypto-core/contracts/TimedReleaseVoting.sol\":4715:5569  function joinAsHolder(uint256 electionId, bytes memory publicKey) external payable {... */\n    tag_102:\n        /* \"crypto-core/contracts/TimedReleaseVoting.sol\":4890:4899  uint256 i */\n      0x00\n        /* \"crypto-core/contracts/TimedReleaseVoting.sol\":4885:5257  for (uint256 i = 0; i < holderAddresses2.length; i++) {... */\n    tag_348:\n        /* \"crypto-core/contracts/TimedReleaseVoting.sol\":4909:4925  holderAddresses2 */\n      0x05\n        /* \"crypto-core/contracts/TimedReleaseVoting.sol\":4909:4932  holderAddresses2.length */\n      dup1\n      sload\n      swap1\n      pop\n        /* \"crypto-core/contracts/TimedReleaseVoting.sol\":4905:4906  i */\n      dup2\n        /* \"crypto-core/contracts/TimedReleaseVoting.sol\":4905:4932  i < holderAddresses2.length */\n      lt\n        /* \"crypto-core/contracts/TimedReleaseVoting.sol\":4885:5257  for (uint256 i = 0; i < holderAddresses2.length; i++) {... */\n      iszero\n      tag_349\n      jumpi\n        /* \"crypto-core/contracts/TimedReleaseVoting.sol\":5026:5036  msg.sender */\n      caller\n        /* \"crypto-core/contracts/TimedReleaseVoting.sol\":4979:5036  holders2[holderAddresses2[i]].walletAddress != msg.sender */\n      0xffffffffffffffffffffffffffffffffffffffff\n      and\n        /* \"crypto-core/contracts/TimedReleaseVoting.sol\":4979:4987  holders2 */\n      0x03\n        /* \"crypto-core/contracts/TimedReleaseVoting.sol\":4988:5004  holderAddresses2 */\n      0x05\n        /* \"crypto-core/contracts/TimedReleaseVoting.sol\":5005:5006  i */\n      dup4\n        /* \"crypto-core/contracts/TimedReleaseVoting.sol\":4988:5007  holderAddresses2[i] */\n      dup2\n      sload\n      dup2\n      lt\n      tag_351\n      jumpi\n      mstore(0x00, 0x4e487b7100000000000000000000000000000000000000000000000000000000)\n      mstore(0x04, 0x32)\n      revert(0x00, 0x24)\n    tag_351:\n      swap1\n      0x00\n      mstore\n      keccak256(0x00, 0x20)\n      add\n        /* \"crypto-core/contracts/TimedReleaseVoting.sol\":4979:5008  holders2[holderAddresses2[i]] */\n      mload(0x40)\n      tag_353\n      swap2\n      swap1\n      tag_257\n      jump\t// in\n    tag_353:\n      swap1\n      dup2\n      mstore\n      0x20\n      add\n      mload(0x40)\n      dup1\n      swap2\n      sub\n      swap1\n      keccak256\n        /* \"crypto-core/contracts/TimedReleaseVoting.sol\":4979:5022  holders2[holderAddresses2[i]].walletAddress */\n      0x01\n      add\n      0x00\n      swap1\n      sload\n      swap1\n      0x0100\n      exp\n      swap1\n      div\n      0xffffffffffffffffffffffffffffffffffffffff\n      and\n        /* \"crypto-core/contracts/TimedReleaseVoting.sol\":4979:5036  holders2[holderAddresses2[i]].walletAddress != msg.sender */\n      0xffffffffffffffffffffffffffffffffffffffff\n      and\n      eq\n      iszero\n        /* \"crypto-core/contracts/TimedReleaseVoting.sol\":4979:5111  holders2[holderAddresses2[i]].walletAddress != msg.sender || ... */\n      dup1\n      tag_354\n      jumpi\n      pop\n        /* \"crypto-core/contracts/TimedReleaseVoting.sol\":5101:5111  electionId */\n      dup3\n        /* \"crypto-core/contracts/TimedReleaseVoting.sol\":5057:5065  holders2 */\n      0x03\n        /* \"crypto-core/contracts/TimedReleaseVoting.sol\":5066:5082  holderAddresses2 */\n      0x05\n        /* \"crypto-core/contracts/TimedReleaseVoting.sol\":5083:5084  i */\n      dup4\n        /* \"crypto-core/contracts/TimedReleaseVoting.sol\":5066:5085  holderAddresses2[i] */\n      dup2\n      sload\n      dup2\n      lt\n      tag_355\n      jumpi\n      mstore(0x00, 0x4e487b7100000000000000000000000000000000000000000000000000000000)\n      mstore(0x04, 0x32)\n      revert(0x00, 0x24)\n    tag_355:\n      swap1\n      0x00\n      mstore\n      keccak256(0x00, 0x20)\n      add\n        /* \"crypto-core/contracts/TimedReleaseVoting.sol\":5057:5086  holders2[holderAddresses2[i]] */\n      mload(0x40)\n      tag_357\n      swap2\n      swap1\n      tag_257\n      jump\t// in\n    tag_357:\n      swap1\n      dup2\n      mstore\n      0x20\n      add\n      mload(0x40)\n      dup1\n      swap2\n      sub\n      swap1\n      keccak256\n        /* \"crypto-core/contracts/TimedReleaseVoting.sol\":5057:5097  holders2[holderAddresses2[i]].electionId */\n      0x02\n      add\n      sload\n        /* \"crypto-core/contracts/TimedReleaseVoting.sol\":5057:5111  holders2[holderAddresses2[i]].electionId != electionId */\n      eq\n      iszero\n        /* \"crypto-core/contracts/TimedReleaseVoting.sol\":4979:5111  holders2[holderAddresses2[i]].walletAddress != msg.sender || ... */\n    tag_354:\n        /* \"crypto-core/contracts/TimedReleaseVoting.sol\":4978:5176  (holders2[holderAddresses2[i]].walletAddress != msg.sender || ... */\n      dup1\n      iszero\n      tag_358\n      jumpi\n      pop\n        /* \"crypto-core/contracts/TimedReleaseVoting.sol\":5172:5176  true */\n      0x01\n        /* \"crypto-core/contracts/TimedReleaseVoting.sol\":5132:5176  holders2[holderAddresses2[i]].active == true */\n      iszero\n      iszero\n        /* \"crypto-core/contracts/TimedReleaseVoting.sol\":5132:5140  holders2 */\n      0x03\n        /* \"crypto-core/contracts/TimedReleaseVoting.sol\":5141:5157  holderAddresses2 */\n      0x05\n        /* \"crypto-core/contracts/TimedReleaseVoting.sol\":5158:5159  i */\n      dup4\n        /* \"crypto-core/contracts/TimedReleaseVoting.sol\":5141:5160  holderAddresses2[i] */\n      dup2\n      sload\n      dup2\n      lt\n      tag_359\n      jumpi\n      mstore(0x00, 0x4e487b7100000000000000000000000000000000000000000000000000000000)\n      mstore(0x04, 0x32)\n      revert(0x00, 0x24)\n    tag_359:\n      swap1\n      0x00\n      mstore\n      keccak256(0x00, 0x20)\n      add\n        /* \"crypto-core/contracts/TimedReleaseVoting.sol\":5132:5161  holders2[holderAddresses2[i]] */\n      mload(0x40)\n      tag_361\n      swap2\n      swap1\n      tag_257\n      jump\t// in\n    tag_361:\n      swap1\n      dup2\n      mstore\n      0x20\n      add\n      mload(0x40)\n      dup1\n      swap2\n      sub\n      swap1\n      keccak256\n        /* \"crypto-core/contracts/TimedReleaseVoting.sol\":5132:5168  holders2[holderAddresses2[i]].active */\n      0x03\n      add\n      0x00\n      swap1\n      sload\n      swap1\n      0x0100\n      exp\n      swap1\n      div\n      0xff\n      and\n        /* \"crypto-core/contracts/TimedReleaseVoting.sol\":5132:5176  holders2[holderAddresses2[i]].active == true */\n      iszero\n      iszero\n      eq\n        /* \"crypto-core/contracts/TimedReleaseVoting.sol\":4978:5176  (holders2[holderAddresses2[i]].walletAddress != msg.sender || ... */\n    tag_358:\n        /* \"crypto-core/contracts/TimedReleaseVoting.sol\":4953:5246  require(... */\n      tag_362\n      jumpi\n      mload(0x40)\n      0x08c379a000000000000000000000000000000000000000000000000000000000\n      dup2\n      mstore\n      0x04\n      add\n      tag_363\n      swap1\n      tag_364\n      jump\t// in\n    tag_363:\n      mload(0x40)\n      dup1\n      swap2\n      sub\n      swap1\n      revert\n    tag_362:\n        /* \"crypto-core/contracts/TimedReleaseVoting.sol\":4934:4937  i++ */\n      dup1\n      dup1\n      tag_365\n      swap1\n      tag_205\n      jump\t// in\n    tag_365:\n      swap2\n      pop\n      pop\n        /* \"crypto-core/contracts/TimedReleaseVoting.sol\":4885:5257  for (uint256 i = 0; i < holderAddresses2.length; i++) {... */\n      jump(tag_348)\n    tag_349:\n      pop\n        /* \"crypto-core/contracts/TimedReleaseVoting.sol\":5289:5467  Holder2({... */\n      mload(0x40)\n      dup1\n      0xa0\n      add\n      0x40\n      mstore\n      dup1\n        /* \"crypto-core/contracts/TimedReleaseVoting.sol\":5322:5331  publicKey */\n      dup3\n        /* \"crypto-core/contracts/TimedReleaseVoting.sol\":5289:5467  Holder2({... */\n      dup2\n      mstore\n      0x20\n      add\n        /* \"crypto-core/contracts/TimedReleaseVoting.sol\":5360:5370  msg.sender */\n      caller\n        /* \"crypto-core/contracts/TimedReleaseVoting.sol\":5289:5467  Holder2({... */\n      0xffffffffffffffffffffffffffffffffffffffff\n      and\n      dup2\n      mstore\n      0x20\n      add\n        /* \"crypto-core/contracts/TimedReleaseVoting.sol\":5396:5406  electionId */\n      dup4\n        /* \"crypto-core/contracts/TimedReleaseVoting.sol\":5289:5467  Holder2({... */\n      dup2\n      mstore\n      0x20\n      add\n        /* \"crypto-core/contracts/TimedReleaseVoting.sol\":5428:5432  true */\n      0x01\n        /* \"crypto-core/contracts/TimedReleaseVoting.sol\":5289:5467  Holder2({... */\n      iszero\n      iszero\n      dup2\n      mstore\n      0x20\n      add\n        /* \"crypto-core/contracts/TimedReleaseVoting.sol\":5455:5456  0 */\n      0x00\n        /* \"crypto-core/contracts/TimedReleaseVoting.sol\":5289:5467  Holder2({... */\n      dup2\n      mstore\n      pop\n        /* \"crypto-core/contracts/TimedReleaseVoting.sol\":5267:5275  holders2 */\n      0x03\n        /* \"crypto-core/contracts/TimedReleaseVoting.sol\":5276:5285  publicKey */\n      dup3\n        /* \"crypto-core/contracts/TimedReleaseVoting.sol\":5267:5286  holders2[publicKey] */\n      mload(0x40)\n      tag_366\n      swap2\n      swap1\n      tag_367\n      jump\t// in\n    tag_366:\n      swap1\n      dup2\n      mstore\n      0x20\n      add\n      mload(0x40)\n      dup1\n      swap2\n      sub\n      swap1\n      keccak256\n        /* \"crypto-core/contracts/TimedReleaseVoting.sol\":5267:5467  holders2[publicKey] = Holder2({... */\n      0x00\n      dup3\n      add\n      mload\n      dup2\n      0x00\n      add\n      swap1\n      dup1\n      mload\n      swap1\n      0x20\n      add\n      swap1\n      tag_368\n      swap3\n      swap2\n      swap1\n      tag_369\n      jump\t// in\n    tag_368:\n      pop\n      0x20\n      dup3\n      add\n      mload\n      dup2\n      0x01\n      add\n      exp(0x0100, 0x00)\n      dup2\n      sload\n      dup2\n      0xffffffffffffffffffffffffffffffffffffffff\n      mul\n      not\n      and\n      swap1\n      dup4\n      0xffffffffffffffffffffffffffffffffffffffff\n      and\n      mul\n      or\n      swap1\n      sstore\n      pop\n      0x40\n      dup3\n      add\n      mload\n      dup2\n      0x02\n      add\n      sstore\n      0x60\n      dup3\n      add\n      mload\n      dup2\n      0x03\n      add\n      exp(0x0100, 0x00)\n      dup2\n      sload\n      dup2\n      0xff\n      mul\n      not\n      and\n      swap1\n      dup4\n      iszero\n      iszero\n      mul\n      or\n      swap1\n      sstore\n      pop\n      0x80\n      dup3\n      add\n      mload\n      dup2\n      0x04\n      add\n      sstore\n      swap1\n      pop\n      pop\n        /* \"crypto-core/contracts/TimedReleaseVoting.sol\":5478:5494  holderAddresses2 */\n      0x05\n        /* \"crypto-core/contracts/TimedReleaseVoting.sol\":5500:5509  publicKey */\n      dup2\n        /* \"crypto-core/contracts/TimedReleaseVoting.sol\":5478:5510  holderAddresses2.push(publicKey) */\n      swap1\n      dup1\n      0x01\n      dup2\n      sload\n      add\n      dup1\n      dup3\n      sstore\n      dup1\n      swap2\n      pop\n      pop\n      0x01\n      swap1\n      sub\n      swap1\n      0x00\n      mstore\n      keccak256(0x00, 0x20)\n      add\n      0x00\n      swap1\n      swap2\n      swap1\n      swap2\n      swap1\n      swap2\n      pop\n      swap1\n      dup1\n      mload\n      swap1\n      0x20\n      add\n      swap1\n      tag_371\n      swap3\n      swap2\n      swap1\n      tag_369\n      jump\t// in\n    tag_371:\n      pop\n        /* \"crypto-core/contracts/TimedReleaseVoting.sol\":5540:5549  publicKey */\n      dup1\n        /* \"crypto-core/contracts/TimedReleaseVoting.sol\":5526:5562  HolderJoined2(publicKey, electionId) */\n      mload(0x40)\n      tag_372\n      swap2\n      swap1\n      tag_367\n      jump\t// in\n    tag_372:\n      mload(0x40)\n      dup1\n      swap2\n      sub\n      swap1\n      keccak256\n      0xd1289fdd73e159a0dec32ffc16d4a9eb5dd30b68a82d8e888f5a83b80ed557be\n        /* \"crypto-core/contracts/TimedReleaseVoting.sol\":5551:5561  electionId */\n      dup4\n        /* \"crypto-core/contracts/TimedReleaseVoting.sol\":5526:5562  HolderJoined2(publicKey, electionId) */\n      mload(0x40)\n      tag_373\n      swap2\n      swap1\n      tag_46\n      jump\t// in\n    tag_373:\n      mload(0x40)\n      dup1\n      swap2\n      sub\n      swap1\n      log2\n        /* \"crypto-core/contracts/TimedReleaseVoting.sol\":4715:5569  function joinAsHolder(uint256 electionId, bytes memory publicKey) external payable {... */\n      pop\n      pop\n      jump\t// out\n        /* \"crypto-core/contracts/TimedReleaseVoting.sol\":3354:3391  mapping(uint256 => Vote) public votes */\n    tag_106:\n      mstore(0x20, 0x06)\n      dup1\n      0x00\n      mstore\n      keccak256(0x00, 0x40)\n      0x00\n      swap2\n      pop\n      swap1\n      pop\n      dup1\n      0x00\n      add\n      dup1\n      sload\n      tag_374\n      swap1\n      tag_241\n      jump\t// in\n    tag_374:\n      dup1\n      0x1f\n      add\n      0x20\n      dup1\n      swap2\n      div\n      mul\n      0x20\n      add\n      mload(0x40)\n      swap1\n      dup2\n      add\n      0x40\n      mstore\n      dup1\n      swap3\n      swap2\n      swap1\n      dup2\n      dup2\n      mstore\n      0x20\n      add\n      dup3\n      dup1\n      sload\n      tag_375\n      swap1\n      tag_241\n      jump\t// in\n    tag_375:\n      dup1\n      iszero\n      tag_376\n      jumpi\n      dup1\n      0x1f\n      lt\n      tag_377\n      jumpi\n      0x0100\n      dup1\n      dup4\n      sload\n      div\n      mul\n      dup4\n      mstore\n      swap2\n      0x20\n      add\n      swap2\n      jump(tag_376)\n    tag_377:\n      dup3\n      add\n      swap2\n      swap1\n      0x00\n      mstore\n      keccak256(0x00, 0x20)\n      swap1\n    tag_378:\n      dup2\n      sload\n      dup2\n      mstore\n      swap1\n      0x01\n      add\n      swap1\n      0x20\n      add\n      dup1\n      dup4\n      gt\n      tag_378\n      jumpi\n      dup3\n      swap1\n      sub\n      0x1f\n      and\n      dup3\n      add\n      swap2\n    tag_376:\n      pop\n      pop\n      pop\n      pop\n      pop\n      swap1\n      dup1\n      0x01\n      add\n      dup1\n      sload\n      tag_379\n      swap1\n      tag_241\n      jump\t// in\n    tag_379:\n      dup1\n      0x1f\n      add\n      0x20\n      dup1\n      swap2\n      div\n      mul\n      0x20\n      add\n      mload(0x40)\n      swap1\n      dup2\n      add\n      0x40\n      mstore\n      dup1\n      swap3\n      swap2\n      swap1\n      dup2\n      dup2\n      mstore\n      0x20\n      add\n      dup3\n      dup1\n      sload\n      tag_380\n      swap1\n      tag_241\n      jump\t// in\n    tag_380:\n      dup1\n      iszero\n      tag_381\n      jumpi\n      dup1\n      0x1f\n      lt\n      tag_382\n      jumpi\n      0x0100\n      dup1\n      dup4\n      sload\n      div\n      mul\n      dup4\n      mstore\n      swap2\n      0x20\n      add\n      swap2\n      jump(tag_381)\n    tag_382:\n      dup3\n      add\n      swap2\n      swap1\n      0x00\n      mstore\n      keccak256(0x00, 0x20)\n      swap1\n    tag_383:\n      dup2\n      sload\n      dup2\n      mstore\n      swap1\n      0x01\n      add\n      swap1\n      0x20\n      add\n      dup1\n      dup4\n      gt\n      tag_383\n      jumpi\n      dup3\n      swap1\n      sub\n      0x1f\n      and\n      dup3\n      add\n      swap2\n    tag_381:\n      pop\n      pop\n      pop\n      pop\n      pop\n      swap1\n      dup1\n      0x02\n      add\n      sload\n      swap1\n      dup1\n      0x07\n      add\n      0x00\n      swap1\n      sload\n      swap1\n      0x0100\n      exp\n      swap1\n      div\n      0xff\n      and\n      swap1\n      dup1\n      0x08\n      add\n      sload\n      swap1\n      dup1\n      0x09\n      add\n      0x00\n      swap1\n      sload\n      swap1\n      0x0100\n      exp\n      swap1\n      div\n      0xff\n      and\n      swap1\n      dup1\n      0x0a\n      add\n      sload\n      swap1\n      pop\n      dup8\n      jump\t// out\n        /* \"crypto-core/contracts/TimedReleaseVoting.sol\":15743:16229  function getHolders() external view returns (address[] memory) {... */\n    tag_111:\n        /* \"crypto-core/contracts/TimedReleaseVoting.sol\":15788:15804  address[] memory */\n      0x60\n        /* \"crypto-core/contracts/TimedReleaseVoting.sol\":15816:15835  uint256 activeCount */\n      0x00\n        /* \"crypto-core/contracts/TimedReleaseVoting.sol\":15838:15853  getNumHolders() */\n      tag_385\n        /* \"crypto-core/contracts/TimedReleaseVoting.sol\":15838:15851  getNumHolders */\n      tag_170\n        /* \"crypto-core/contracts/TimedReleaseVoting.sol\":15838:15853  getNumHolders() */\n      jump\t// in\n    tag_385:\n        /* \"crypto-core/contracts/TimedReleaseVoting.sol\":15816:15853  uint256 activeCount = getNumHolders() */\n      swap1\n      pop\n        /* \"crypto-core/contracts/TimedReleaseVoting.sol\":15863:15893  address[] memory activeHolders */\n      0x00\n        /* \"crypto-core/contracts/TimedReleaseVoting.sol\":15910:15921  activeCount */\n      dup2\n        /* \"crypto-core/contracts/TimedReleaseVoting.sol\":15896:15922  new address[](activeCount) */\n      0xffffffffffffffff\n      dup2\n      gt\n      iszero\n      tag_386\n      jumpi\n      mstore(0x00, 0x4e487b7100000000000000000000000000000000000000000000000000000000)\n      mstore(0x04, 0x41)\n      revert(0x00, 0x24)\n    tag_386:\n      mload(0x40)\n      swap1\n      dup1\n      dup3\n      mstore\n      dup1\n      0x20\n      mul\n      0x20\n      add\n      dup3\n      add\n      0x40\n      mstore\n      dup1\n      iszero\n      tag_387\n      jumpi\n      dup2\n      0x20\n      add\n      0x20\n      dup3\n      mul\n      dup1\n      calldatasize\n      dup4\n      calldatacopy\n      dup1\n      dup3\n      add\n      swap2\n      pop\n      pop\n      swap1\n      pop\n    tag_387:\n      pop\n        /* \"crypto-core/contracts/TimedReleaseVoting.sol\":15863:15922  address[] memory activeHolders = new address[](activeCount) */\n      swap1\n      pop\n        /* \"crypto-core/contracts/TimedReleaseVoting.sol\":15941:15954  uint256 index */\n      0x00\n        /* \"crypto-core/contracts/TimedReleaseVoting.sol\":15973:15982  uint256 i */\n      dup1\n        /* \"crypto-core/contracts/TimedReleaseVoting.sol\":15968:16184  for (uint256 i = 0; i < holderAddresses.length; i++) {... */\n    tag_388:\n        /* \"crypto-core/contracts/TimedReleaseVoting.sol\":15992:16007  holderAddresses */\n      0x04\n        /* \"crypto-core/contracts/TimedReleaseVoting.sol\":15992:16014  holderAddresses.length */\n      dup1\n      sload\n      swap1\n      pop\n        /* \"crypto-core/contracts/TimedReleaseVoting.sol\":15988:15989  i */\n      dup2\n        /* \"crypto-core/contracts/TimedReleaseVoting.sol\":15988:16014  i < holderAddresses.length */\n      lt\n        /* \"crypto-core/contracts/TimedReleaseVoting.sol\":15968:16184  for (uint256 i = 0; i < holderAddresses.length; i++) {... */\n      iszero\n      tag_389\n      jumpi\n        /* \"crypto-core/contracts/TimedReleaseVoting.sol\":16039:16046  holders */\n      0x02\n        /* \"crypto-core/contracts/TimedReleaseVoting.sol\":16039:16066  holders[holderAddresses[i]] */\n      0x00\n        /* \"crypto-core/contracts/TimedReleaseVoting.sol\":16047:16062  holderAddresses */\n      0x04\n        /* \"crypto-core/contracts/TimedReleaseVoting.sol\":16063:16064  i */\n      dup4\n        /* \"crypto-core/contracts/TimedReleaseVoting.sol\":16047:16065  holderAddresses[i] */\n      dup2\n      sload\n      dup2\n      lt\n      tag_391\n      jumpi\n      mstore(0x00, 0x4e487b7100000000000000000000000000000000000000000000000000000000)\n      mstore(0x04, 0x32)\n      revert(0x00, 0x24)\n    tag_391:\n      swap1\n      0x00\n      mstore\n      keccak256(0x00, 0x20)\n      add\n      0x00\n      swap1\n      sload\n      swap1\n      0x0100\n      exp\n      swap1\n      div\n      0xffffffffffffffffffffffffffffffffffffffff\n      and\n        /* \"crypto-core/contracts/TimedReleaseVoting.sol\":16039:16066  holders[holderAddresses[i]] */\n      0xffffffffffffffffffffffffffffffffffffffff\n      and\n      0xffffffffffffffffffffffffffffffffffffffff\n      and\n      dup2\n      mstore\n      0x20\n      add\n      swap1\n      dup2\n      mstore\n      0x20\n      add\n      0x00\n      keccak256\n        /* \"crypto-core/contracts/TimedReleaseVoting.sol\":16039:16073  holders[holderAddresses[i]].active */\n      0x03\n      add\n      0x00\n      swap1\n      sload\n      swap1\n      0x0100\n      exp\n      swap1\n      div\n      0xff\n      and\n        /* \"crypto-core/contracts/TimedReleaseVoting.sol\":16035:16174  if (holders[holderAddresses[i]].active) {... */\n      iszero\n      tag_393\n      jumpi\n        /* \"crypto-core/contracts/TimedReleaseVoting.sol\":16116:16131  holderAddresses */\n      0x04\n        /* \"crypto-core/contracts/TimedReleaseVoting.sol\":16132:16133  i */\n      dup2\n        /* \"crypto-core/contracts/TimedReleaseVoting.sol\":16116:16134  holderAddresses[i] */\n      dup2\n      sload\n      dup2\n      lt\n      tag_394\n      jumpi\n      mstore(0x00, 0x4e487b7100000000000000000000000000000000000000000000000000000000)\n      mstore(0x04, 0x32)\n      revert(0x00, 0x24)\n    tag_394:\n      swap1\n      0x00\n      mstore\n      keccak256(0x00, 0x20)\n      add\n      0x00\n      swap1\n      sload\n      swap1\n      0x0100\n      exp\n      swap1\n      div\n      0xffffffffffffffffffffffffffffffffffffffff\n      and\n        /* \"crypto-core/contracts/TimedReleaseVoting.sol\":16093:16106  activeHolders */\n      dup4\n        /* \"crypto-core/contracts/TimedReleaseVoting.sol\":16107:16112  index */\n      dup4\n        /* \"crypto-core/contracts/TimedReleaseVoting.sol\":16093:16113  activeHolders[index] */\n      dup2\n      mload\n      dup2\n      lt\n      tag_396\n      jumpi\n      mstore(0x00, 0x4e487b7100000000000000000000000000000000000000000000000000000000)\n      mstore(0x04, 0x32)\n      revert(0x00, 0x24)\n    tag_396:\n      0x20\n      mul\n      0x20\n      add\n      add\n        /* \"crypto-core/contracts/TimedReleaseVoting.sol\":16093:16134  activeHolders[index] = holderAddresses[i] */\n      swap1\n      0xffffffffffffffffffffffffffffffffffffffff\n      and\n      swap1\n      dup2\n      0xffffffffffffffffffffffffffffffffffffffff\n      and\n      dup2\n      mstore\n      pop\n      pop\n        /* \"crypto-core/contracts/TimedReleaseVoting.sol\":16152:16159  index++ */\n      dup2\n      dup1\n      tag_397\n      swap1\n      tag_205\n      jump\t// in\n    tag_397:\n      swap3\n      pop\n      pop\n        /* \"crypto-core/contracts/TimedReleaseVoting.sol\":16035:16174  if (holders[holderAddresses[i]].active) {... */\n    tag_393:\n        /* \"crypto-core/contracts/TimedReleaseVoting.sol\":16016:16019  i++ */\n      dup1\n      dup1\n      tag_398\n      swap1\n      tag_205\n      jump\t// in\n    tag_398:\n      swap2\n      pop\n      pop\n        /* \"crypto-core/contracts/TimedReleaseVoting.sol\":15968:16184  for (uint256 i = 0; i < holderAddresses.length; i++) {... */\n      jump(tag_388)\n    tag_389:\n      pop\n        /* \"crypto-core/contracts/TimedReleaseVoting.sol\":16209:16222  activeHolders */\n      dup2\n        /* \"crypto-core/contracts/TimedReleaseVoting.sol\":16202:16222  return activeHolders */\n      swap4\n      pop\n      pop\n      pop\n      pop\n        /* \"crypto-core/contracts/TimedReleaseVoting.sol\":15743:16229  function getHolders() external view returns (address[] memory) {... */\n      swap1\n      jump\t// out\n        /* \"crypto-core/contracts/TimedReleaseVoting.sol\":15416:15637  function getHolderPublicKey(address holderAddress) external view returns (uint256[2] memory) {... */\n    tag_117:\n        /* \"crypto-core/contracts/TimedReleaseVoting.sol\":15490:15507  uint256[2] memory */\n      tag_399\n      tag_330\n      jump\t// in\n    tag_399:\n        /* \"crypto-core/contracts/TimedReleaseVoting.sol\":15527:15534  holders */\n      0x02\n        /* \"crypto-core/contracts/TimedReleaseVoting.sol\":15527:15549  holders[holderAddress] */\n      0x00\n        /* \"crypto-core/contracts/TimedReleaseVoting.sol\":15535:15548  holderAddress */\n      dup4\n        /* \"crypto-core/contracts/TimedReleaseVoting.sol\":15527:15549  holders[holderAddress] */\n      0xffffffffffffffffffffffffffffffffffffffff\n      and\n      0xffffffffffffffffffffffffffffffffffffffff\n      and\n      dup2\n      mstore\n      0x20\n      add\n      swap1\n      dup2\n      mstore\n      0x20\n      add\n      0x00\n      keccak256\n        /* \"crypto-core/contracts/TimedReleaseVoting.sol\":15527:15556  holders[holderAddress].active */\n      0x03\n      add\n      0x00\n      swap1\n      sload\n      swap1\n      0x0100\n      exp\n      swap1\n      div\n      0xff\n      and\n        /* \"crypto-core/contracts/TimedReleaseVoting.sol\":15519:15581  require(holders[holderAddress].active, \"Not an active holder\") */\n      tag_401\n      jumpi\n      mload(0x40)\n      0x08c379a000000000000000000000000000000000000000000000000000000000\n      dup2\n      mstore\n      0x04\n      add\n      tag_402\n      swap1\n      tag_403\n      jump\t// in\n    tag_402:\n      mload(0x40)\n      dup1\n      swap2\n      sub\n      swap1\n      revert\n    tag_401:\n        /* \"crypto-core/contracts/TimedReleaseVoting.sol\":15598:15605  holders */\n      0x02\n        /* \"crypto-core/contracts/TimedReleaseVoting.sol\":15598:15620  holders[holderAddress] */\n      0x00\n        /* \"crypto-core/contracts/TimedReleaseVoting.sol\":15606:15619  holderAddress */\n      dup4\n        /* \"crypto-core/contracts/TimedReleaseVoting.sol\":15598:15620  holders[holderAddress] */\n      0xffffffffffffffffffffffffffffffffffffffff\n      and\n      0xffffffffffffffffffffffffffffffffffffffff\n      and\n      dup2\n      mstore\n      0x20\n      add\n      swap1\n      dup2\n      mstore\n      0x20\n      add\n      0x00\n      keccak256\n        /* \"crypto-core/contracts/TimedReleaseVoting.sol\":15598:15630  holders[holderAddress].publicKey */\n      0x00\n      add\n        /* \"crypto-core/contracts/TimedReleaseVoting.sol\":15591:15630  return holders[holderAddress].publicKey */\n      0x02\n      dup1\n      0x20\n      mul\n      mload(0x40)\n      swap1\n      dup2\n      add\n      0x40\n      mstore\n      dup1\n      swap3\n      swap2\n      swap1\n      dup3\n      0x02\n      dup1\n      iszero\n      tag_404\n      jumpi\n      0x20\n      mul\n      dup3\n      add\n      swap2\n    tag_405:\n      dup2\n      sload\n      dup2\n      mstore\n      0x20\n      add\n      swap1\n      0x01\n      add\n      swap1\n      dup1\n      dup4\n      gt\n      tag_405\n      jumpi\n    tag_404:\n      pop\n      pop\n      pop\n      pop\n      pop\n      swap1\n      pop\n        /* \"crypto-core/contracts/TimedReleaseVoting.sol\":15416:15637  function getHolderPublicKey(address holderAddress) external view returns (uint256[2] memory) {... */\n      swap2\n      swap1\n      pop\n      jump\t// out\n        /* \"crypto-core/contracts/TimedReleaseVoting.sol\":17309:17771  function getSubmittedShares(uint256 voteId) external view voteExists(voteId) returns (... */\n    tag_123:\n        /* \"crypto-core/contracts/TimedReleaseVoting.sol\":17404:17431  address[] memory submitters */\n      0x60\n        /* \"crypto-core/contracts/TimedReleaseVoting.sol\":17441:17467  uint256[2][] memory shares */\n      dup1\n        /* \"crypto-core/contracts/TimedReleaseVoting.sol\":17378:17384  voteId */\n      dup3\n        /* \"crypto-core/contracts/TimedReleaseVoting.sol\":4244:4249  votes */\n      0x06\n        /* \"crypto-core/contracts/TimedReleaseVoting.sol\":4244:4257  votes[voteId] */\n      0x00\n        /* \"crypto-core/contracts/TimedReleaseVoting.sol\":4250:4256  voteId */\n      dup3\n        /* \"crypto-core/contracts/TimedReleaseVoting.sol\":4244:4257  votes[voteId] */\n      dup2\n      mstore\n      0x20\n      add\n      swap1\n      dup2\n      mstore\n      0x20\n      add\n      0x00\n      keccak256\n        /* \"crypto-core/contracts/TimedReleaseVoting.sol\":4244:4264  votes[voteId].exists */\n      0x07\n      add\n      0x00\n      swap1\n      sload\n      swap1\n      0x0100\n      exp\n      swap1\n      div\n      0xff\n      and\n        /* \"crypto-core/contracts/TimedReleaseVoting.sol\":4236:4288  require(votes[voteId].exists, \"Vote does not exist\") */\n      tag_407\n      jumpi\n      mload(0x40)\n      0x08c379a000000000000000000000000000000000000000000000000000000000\n      dup2\n      mstore\n      0x04\n      add\n      tag_408\n      swap1\n      tag_211\n      jump\t// in\n    tag_408:\n      mload(0x40)\n      dup1\n      swap2\n      sub\n      swap1\n      revert\n    tag_407:\n        /* \"crypto-core/contracts/TimedReleaseVoting.sol\":17497:17502  votes */\n      0x06\n        /* \"crypto-core/contracts/TimedReleaseVoting.sol\":17497:17510  votes[voteId] */\n      0x00\n        /* \"crypto-core/contracts/TimedReleaseVoting.sol\":17503:17509  voteId */\n      dup6\n        /* \"crypto-core/contracts/TimedReleaseVoting.sol\":17497:17510  votes[voteId] */\n      dup2\n      mstore\n      0x20\n      add\n      swap1\n      dup2\n      mstore\n      0x20\n      add\n      0x00\n      keccak256\n        /* \"crypto-core/contracts/TimedReleaseVoting.sol\":17497:17526  votes[voteId].shareSubmitters */\n      0x06\n      add\n        /* \"crypto-core/contracts/TimedReleaseVoting.sol\":17484:17526  submitters = votes[voteId].shareSubmitters */\n      dup1\n      sload\n      dup1\n      0x20\n      mul\n      0x20\n      add\n      mload(0x40)\n      swap1\n      dup2\n      add\n      0x40\n      mstore\n      dup1\n      swap3\n      swap2\n      swap1\n      dup2\n      dup2\n      mstore\n      0x20\n      add\n      dup3\n      dup1\n      sload\n      dup1\n      iszero\n      tag_410\n      jumpi\n      0x20\n      mul\n      dup3\n      add\n      swap2\n      swap1\n      0x00\n      mstore\n      keccak256(0x00, 0x20)\n      swap1\n    tag_411:\n      dup2\n      0x00\n      swap1\n      sload\n      swap1\n      0x0100\n      exp\n      swap1\n      div\n      0xffffffffffffffffffffffffffffffffffffffff\n      and\n      0xffffffffffffffffffffffffffffffffffffffff\n      and\n      dup2\n      mstore\n      0x20\n      add\n      swap1\n      0x01\n      add\n      swap1\n      dup1\n      dup4\n      gt\n      tag_411\n      jumpi\n    tag_410:\n      pop\n      pop\n      pop\n      pop\n      pop\n      swap3\n      pop\n        /* \"crypto-core/contracts/TimedReleaseVoting.sol\":17562:17572  submitters */\n      dup3\n        /* \"crypto-core/contracts/TimedReleaseVoting.sol\":17562:17579  submitters.length */\n      mload\n        /* \"crypto-core/contracts/TimedReleaseVoting.sol\":17545:17580  new uint256[2][](submitters.length) */\n      0xffffffffffffffff\n      dup2\n      gt\n      iszero\n      tag_412\n      jumpi\n      mstore(0x00, 0x4e487b7100000000000000000000000000000000000000000000000000000000)\n      mstore(0x04, 0x41)\n      revert(0x00, 0x24)\n    tag_412:\n      mload(0x40)\n      swap1\n      dup1\n      dup3\n      mstore\n      dup1\n      0x20\n      mul\n      0x20\n      add\n      dup3\n      add\n      0x40\n      mstore\n      dup1\n      iszero\n      tag_413\n      jumpi\n      dup2\n      0x20\n      add\n    tag_414:\n      tag_415\n      tag_330\n      jump\t// in\n    tag_415:\n      dup2\n      mstore\n      0x20\n      add\n      swap1\n      0x01\n      swap1\n      sub\n      swap1\n      dup2\n      tag_414\n      jumpi\n      swap1\n      pop\n    tag_413:\n      pop\n        /* \"crypto-core/contracts/TimedReleaseVoting.sol\":17536:17580  shares = new uint256[2][](submitters.length) */\n      swap2\n      pop\n        /* \"crypto-core/contracts/TimedReleaseVoting.sol\":17604:17613  uint256 i */\n      0x00\n        /* \"crypto-core/contracts/TimedReleaseVoting.sol\":17599:17719  for (uint256 i = 0; i < submitters.length; i++) {... */\n    tag_416:\n        /* \"crypto-core/contracts/TimedReleaseVoting.sol\":17623:17633  submitters */\n      dup4\n        /* \"crypto-core/contracts/TimedReleaseVoting.sol\":17623:17640  submitters.length */\n      mload\n        /* \"crypto-core/contracts/TimedReleaseVoting.sol\":17619:17620  i */\n      dup2\n        /* \"crypto-core/contracts/TimedReleaseVoting.sol\":17619:17640  i < submitters.length */\n      lt\n        /* \"crypto-core/contracts/TimedReleaseVoting.sol\":17599:17719  for (uint256 i = 0; i < submitters.length; i++) {... */\n      iszero\n      tag_417\n      jumpi\n        /* \"crypto-core/contracts/TimedReleaseVoting.sol\":17673:17678  votes */\n      0x06\n        /* \"crypto-core/contracts/TimedReleaseVoting.sol\":17673:17686  votes[voteId] */\n      0x00\n        /* \"crypto-core/contracts/TimedReleaseVoting.sol\":17679:17685  voteId */\n      dup7\n        /* \"crypto-core/contracts/TimedReleaseVoting.sol\":17673:17686  votes[voteId] */\n      dup2\n      mstore\n      0x20\n      add\n      swap1\n      dup2\n      mstore\n      0x20\n      add\n      0x00\n      keccak256\n        /* \"crypto-core/contracts/TimedReleaseVoting.sol\":17673:17693  votes[voteId].shares */\n      0x05\n      add\n        /* \"crypto-core/contracts/TimedReleaseVoting.sol\":17673:17708  votes[voteId].shares[submitters[i]] */\n      0x00\n        /* \"crypto-core/contracts/TimedReleaseVoting.sol\":17694:17704  submitters */\n      dup6\n        /* \"crypto-core/contracts/TimedReleaseVoting.sol\":17705:17706  i */\n      dup4\n        /* \"crypto-core/contracts/TimedReleaseVoting.sol\":17694:17707  submitters[i] */\n      dup2\n      mload\n      dup2\n      lt\n      tag_419\n      jumpi\n      mstore(0x00, 0x4e487b7100000000000000000000000000000000000000000000000000000000)\n      mstore(0x04, 0x32)\n      revert(0x00, 0x24)\n    tag_419:\n      0x20\n      mul\n      0x20\n      add\n      add\n      mload\n        /* \"crypto-core/contracts/TimedReleaseVoting.sol\":17673:17708  votes[voteId].shares[submitters[i]] */\n      0xffffffffffffffffffffffffffffffffffffffff\n      and\n      0xffffffffffffffffffffffffffffffffffffffff\n      and\n      dup2\n      mstore\n      0x20\n      add\n      swap1\n      dup2\n      mstore\n      0x20\n      add\n      0x00\n      keccak256\n        /* \"crypto-core/contracts/TimedReleaseVoting.sol\":17661:17708  shares[i] = votes[voteId].shares[submitters[i]] */\n      0x02\n      dup1\n      0x20\n      mul\n      mload(0x40)\n      swap1\n      dup2\n      add\n      0x40\n      mstore\n      dup1\n      swap3\n      swap2\n      swap1\n      dup3\n      0x02\n      dup1\n      iszero\n      tag_420\n      jumpi\n      0x20\n      mul\n      dup3\n      add\n      swap2\n    tag_421:\n      dup2\n      sload\n      dup2\n      mstore\n      0x20\n      add\n      swap1\n      0x01\n      add\n      swap1\n      dup1\n      dup4\n      gt\n      tag_421\n      jumpi\n    tag_420:\n      pop\n      pop\n      pop\n      pop\n      pop\n        /* \"crypto-core/contracts/TimedReleaseVoting.sol\":17661:17667  shares */\n      dup4\n        /* \"crypto-core/contracts/TimedReleaseVoting.sol\":17668:17669  i */\n      dup3\n        /* \"crypto-core/contracts/TimedReleaseVoting.sol\":17661:17670  shares[i] */\n      dup2\n      mload\n      dup2\n      lt\n      tag_422\n      jumpi\n      mstore(0x00, 0x4e487b7100000000000000000000000000000000000000000000000000000000)\n      mstore(0x04, 0x32)\n      revert(0x00, 0x24)\n    tag_422:\n      0x20\n      mul\n      0x20\n      add\n      add\n        /* \"crypto-core/contracts/TimedReleaseVoting.sol\":17661:17708  shares[i] = votes[voteId].shares[submitters[i]] */\n      dup2\n      swap1\n      mstore\n      pop\n        /* \"crypto-core/contracts/TimedReleaseVoting.sol\":17642:17645  i++ */\n      dup1\n      dup1\n      tag_423\n      swap1\n      tag_205\n      jump\t// in\n    tag_423:\n      swap2\n      pop\n      pop\n        /* \"crypto-core/contracts/TimedReleaseVoting.sol\":17599:17719  for (uint256 i = 0; i < submitters.length; i++) {... */\n      jump(tag_416)\n    tag_417:\n      pop\n        /* \"crypto-core/contracts/TimedReleaseVoting.sol\":17309:17771  function getSubmittedShares(uint256 voteId) external view voteExists(voteId) returns (... */\n      pop\n      swap2\n      pop\n      swap2\n      jump\t// out\n        /* \"crypto-core/contracts/TimedReleaseVoting.sol\":9911:10540  function submitShare(... */\n    tag_130:\n        /* \"crypto-core/contracts/TimedReleaseVoting.sol\":4098:4105  holders */\n      0x02\n        /* \"crypto-core/contracts/TimedReleaseVoting.sol\":4098:4117  holders[msg.sender] */\n      0x00\n        /* \"crypto-core/contracts/TimedReleaseVoting.sol\":4106:4116  msg.sender */\n      caller\n        /* \"crypto-core/contracts/TimedReleaseVoting.sol\":4098:4117  holders[msg.sender] */\n      0xffffffffffffffffffffffffffffffffffffffff\n      and\n      0xffffffffffffffffffffffffffffffffffffffff\n      and\n      dup2\n      mstore\n      0x20\n      add\n      swap1\n      dup2\n      mstore\n      0x20\n      add\n      0x00\n      keccak256\n        /* \"crypto-core/contracts/TimedReleaseVoting.sol\":4098:4124  holders[msg.sender].active */\n      0x03\n      add\n      0x00\n      swap1\n      sload\n      swap1\n      0x0100\n      exp\n      swap1\n      div\n      0xff\n      and\n        /* \"crypto-core/contracts/TimedReleaseVoting.sol\":4090:4162  require(holders[msg.sender].active, \"Caller is not a registered holder\") */\n      tag_425\n      jumpi\n      mload(0x40)\n      0x08c379a000000000000000000000000000000000000000000000000000000000\n      dup2\n      mstore\n      0x04\n      add\n      tag_426\n      swap1\n      tag_249\n      jump\t// in\n    tag_426:\n      mload(0x40)\n      dup1\n      swap2\n      sub\n      swap1\n      revert\n    tag_425:\n        /* \"crypto-core/contracts/TimedReleaseVoting.sol\":10049:10055  voteId */\n      dup3\n        /* \"crypto-core/contracts/TimedReleaseVoting.sol\":4244:4249  votes */\n      0x06\n        /* \"crypto-core/contracts/TimedReleaseVoting.sol\":4244:4257  votes[voteId] */\n      0x00\n        /* \"crypto-core/contracts/TimedReleaseVoting.sol\":4250:4256  voteId */\n      dup3\n        /* \"crypto-core/contracts/TimedReleaseVoting.sol\":4244:4257  votes[voteId] */\n      dup2\n      mstore\n      0x20\n      add\n      swap1\n      dup2\n      mstore\n      0x20\n      add\n      0x00\n      keccak256\n        /* \"crypto-core/contracts/TimedReleaseVoting.sol\":4244:4264  votes[voteId].exists */\n      0x07\n      add\n      0x00\n      swap1\n      sload\n      swap1\n      0x0100\n      exp\n      swap1\n      div\n      0xff\n      and\n        /* \"crypto-core/contracts/TimedReleaseVoting.sol\":4236:4288  require(votes[voteId].exists, \"Vote does not exist\") */\n      tag_428\n      jumpi\n      mload(0x40)\n      0x08c379a000000000000000000000000000000000000000000000000000000000\n      dup2\n      mstore\n      0x04\n      add\n      tag_429\n      swap1\n      tag_211\n      jump\t// in\n    tag_429:\n      mload(0x40)\n      dup1\n      swap2\n      sub\n      swap1\n      revert\n    tag_428:\n        /* \"crypto-core/contracts/TimedReleaseVoting.sol\":10077:10083  voteId */\n      dup4\n        /* \"crypto-core/contracts/TimedReleaseVoting.sol\":4398:4403  votes */\n      0x06\n        /* \"crypto-core/contracts/TimedReleaseVoting.sol\":4398:4411  votes[voteId] */\n      0x00\n        /* \"crypto-core/contracts/TimedReleaseVoting.sol\":4404:4410  voteId */\n      dup3\n        /* \"crypto-core/contracts/TimedReleaseVoting.sol\":4398:4411  votes[voteId] */\n      dup2\n      mstore\n      0x20\n      add\n      swap1\n      dup2\n      mstore\n      0x20\n      add\n      0x00\n      keccak256\n        /* \"crypto-core/contracts/TimedReleaseVoting.sol\":4398:4426  votes[voteId].decryptionTime */\n      0x02\n      add\n      sload\n        /* \"crypto-core/contracts/TimedReleaseVoting.sol\":4379:4394  block.timestamp */\n      timestamp\n        /* \"crypto-core/contracts/TimedReleaseVoting.sol\":4379:4426  block.timestamp >= votes[voteId].decryptionTime */\n      lt\n      iszero\n        /* \"crypto-core/contracts/TimedReleaseVoting.sol\":4371:4458  require(block.timestamp >= votes[voteId].decryptionTime, \"Decryption time not reached\") */\n      tag_431\n      jumpi\n      mload(0x40)\n      0x08c379a000000000000000000000000000000000000000000000000000000000\n      dup2\n      mstore\n      0x04\n      add\n      tag_432\n      swap1\n      tag_433\n      jump\t// in\n    tag_432:\n      mload(0x40)\n      dup1\n      swap2\n      sub\n      swap1\n      revert\n    tag_431:\n        /* \"crypto-core/contracts/TimedReleaseVoting.sol\":10122:10181  votes[voteId].shares[msg.sender] = [shareIndex, shareValue] */\n      mload(0x40)\n      dup1\n      0x40\n      add\n      0x40\n      mstore\n      dup1\n        /* \"crypto-core/contracts/TimedReleaseVoting.sol\":10158:10168  shareIndex */\n      dup6\n        /* \"crypto-core/contracts/TimedReleaseVoting.sol\":10122:10181  votes[voteId].shares[msg.sender] = [shareIndex, shareValue] */\n      dup2\n      mstore\n      0x20\n      add\n        /* \"crypto-core/contracts/TimedReleaseVoting.sol\":10170:10180  shareValue */\n      dup5\n        /* \"crypto-core/contracts/TimedReleaseVoting.sol\":10122:10181  votes[voteId].shares[msg.sender] = [shareIndex, shareValue] */\n      dup2\n      mstore\n      pop\n        /* \"crypto-core/contracts/TimedReleaseVoting.sol\":10122:10127  votes */\n      0x06\n        /* \"crypto-core/contracts/TimedReleaseVoting.sol\":10122:10135  votes[voteId] */\n      0x00\n        /* \"crypto-core/contracts/TimedReleaseVoting.sol\":10128:10134  voteId */\n      dup8\n        /* \"crypto-core/contracts/TimedReleaseVoting.sol\":10122:10135  votes[voteId] */\n      dup2\n      mstore\n      0x20\n      add\n      swap1\n      dup2\n      mstore\n      0x20\n      add\n      0x00\n      keccak256\n        /* \"crypto-core/contracts/TimedReleaseVoting.sol\":10122:10142  votes[voteId].shares */\n      0x05\n      add\n        /* \"crypto-core/contracts/TimedReleaseVoting.sol\":10122:10154  votes[voteId].shares[msg.sender] */\n      0x00\n        /* \"crypto-core/contracts/TimedReleaseVoting.sol\":10143:10153  msg.sender */\n      caller\n        /* \"crypto-core/contracts/TimedReleaseVoting.sol\":10122:10154  votes[voteId].shares[msg.sender] */\n      0xffffffffffffffffffffffffffffffffffffffff\n      and\n      0xffffffffffffffffffffffffffffffffffffffff\n      and\n      dup2\n      mstore\n      0x20\n      add\n      swap1\n      dup2\n      mstore\n      0x20\n      add\n      0x00\n      keccak256\n        /* \"crypto-core/contracts/TimedReleaseVoting.sol\":10122:10181  votes[voteId].shares[msg.sender] = [shareIndex, shareValue] */\n      swap1\n      0x02\n      tag_435\n      swap3\n      swap2\n      swap1\n      tag_436\n      jump\t// in\n    tag_435:\n      pop\n        /* \"crypto-core/contracts/TimedReleaseVoting.sol\":10191:10196  votes */\n      0x06\n        /* \"crypto-core/contracts/TimedReleaseVoting.sol\":10191:10204  votes[voteId] */\n      0x00\n        /* \"crypto-core/contracts/TimedReleaseVoting.sol\":10197:10203  voteId */\n      dup7\n        /* \"crypto-core/contracts/TimedReleaseVoting.sol\":10191:10204  votes[voteId] */\n      dup2\n      mstore\n      0x20\n      add\n      swap1\n      dup2\n      mstore\n      0x20\n      add\n      0x00\n      keccak256\n        /* \"crypto-core/contracts/TimedReleaseVoting.sol\":10191:10220  votes[voteId].shareSubmitters */\n      0x06\n      add\n        /* \"crypto-core/contracts/TimedReleaseVoting.sol\":10226:10236  msg.sender */\n      caller\n        /* \"crypto-core/contracts/TimedReleaseVoting.sol\":10191:10237  votes[voteId].shareSubmitters.push(msg.sender) */\n      swap1\n      dup1\n      0x01\n      dup2\n      sload\n      add\n      dup1\n      dup3\n      sstore\n      dup1\n      swap2\n      pop\n      pop\n      0x01\n      swap1\n      sub\n      swap1\n      0x00\n      mstore\n      keccak256(0x00, 0x20)\n      add\n      0x00\n      swap1\n      swap2\n      swap1\n      swap2\n      swap1\n      swap2\n      0x0100\n      exp\n      dup2\n      sload\n      dup2\n      0xffffffffffffffffffffffffffffffffffffffff\n      mul\n      not\n      and\n      swap1\n      dup4\n      0xffffffffffffffffffffffffffffffffffffffff\n      and\n      mul\n      or\n      swap1\n      sstore\n      pop\n        /* \"crypto-core/contracts/TimedReleaseVoting.sol\":10284:10294  msg.sender */\n      caller\n        /* \"crypto-core/contracts/TimedReleaseVoting.sol\":10261:10295  ShareSubmitted(voteId, msg.sender) */\n      0xffffffffffffffffffffffffffffffffffffffff\n      and\n        /* \"crypto-core/contracts/TimedReleaseVoting.sol\":10276:10282  voteId */\n      dup6\n        /* \"crypto-core/contracts/TimedReleaseVoting.sol\":10261:10295  ShareSubmitted(voteId, msg.sender) */\n      0x60ef478ef7c0f7d3a52e92839f6a502c60d120a4bab1994106a5634853553db9\n      mload(0x40)\n      mload(0x40)\n      dup1\n      swap2\n      sub\n      swap1\n      log3\n        /* \"crypto-core/contracts/TimedReleaseVoting.sol\":10431:10446  getNumHolders() */\n      tag_438\n        /* \"crypto-core/contracts/TimedReleaseVoting.sol\":10431:10444  getNumHolders */\n      tag_170\n        /* \"crypto-core/contracts/TimedReleaseVoting.sol\":10431:10446  getNumHolders() */\n      jump\t// in\n    tag_438:\n        /* \"crypto-core/contracts/TimedReleaseVoting.sol\":10391:10396  votes */\n      0x06\n        /* \"crypto-core/contracts/TimedReleaseVoting.sol\":10391:10404  votes[voteId] */\n      0x00\n        /* \"crypto-core/contracts/TimedReleaseVoting.sol\":10397:10403  voteId */\n      dup8\n        /* \"crypto-core/contracts/TimedReleaseVoting.sol\":10391:10404  votes[voteId] */\n      dup2\n      mstore\n      0x20\n      add\n      swap1\n      dup2\n      mstore\n      0x20\n      add\n      0x00\n      keccak256\n        /* \"crypto-core/contracts/TimedReleaseVoting.sol\":10391:10420  votes[voteId].shareSubmitters */\n      0x06\n      add\n        /* \"crypto-core/contracts/TimedReleaseVoting.sol\":10391:10427  votes[voteId].shareSubmitters.length */\n      dup1\n      sload\n      swap1\n      pop\n        /* \"crypto-core/contracts/TimedReleaseVoting.sol\":10391:10446  votes[voteId].shareSubmitters.length == getNumHolders() */\n      eq\n        /* \"crypto-core/contracts/TimedReleaseVoting.sol\":10391:10482  votes[voteId].shareSubmitters.length == getNumHolders() && !votes[voteId].rewardDistributed */\n      dup1\n      iszero\n      tag_439\n      jumpi\n      pop\n        /* \"crypto-core/contracts/TimedReleaseVoting.sol\":10451:10456  votes */\n      0x06\n        /* \"crypto-core/contracts/TimedReleaseVoting.sol\":10451:10464  votes[voteId] */\n      0x00\n        /* \"crypto-core/contracts/TimedReleaseVoting.sol\":10457:10463  voteId */\n      dup7\n        /* \"crypto-core/contracts/TimedReleaseVoting.sol\":10451:10464  votes[voteId] */\n      dup2\n      mstore\n      0x20\n      add\n      swap1\n      dup2\n      mstore\n      0x20\n      add\n      0x00\n      keccak256\n        /* \"crypto-core/contracts/TimedReleaseVoting.sol\":10451:10482  votes[voteId].rewardDistributed */\n      0x09\n      add\n      0x00\n      swap1\n      sload\n      swap1\n      0x0100\n      exp\n      swap1\n      div\n      0xff\n      and\n        /* \"crypto-core/contracts/TimedReleaseVoting.sol\":10450:10482  !votes[voteId].rewardDistributed */\n      iszero\n        /* \"crypto-core/contracts/TimedReleaseVoting.sol\":10391:10482  votes[voteId].shareSubmitters.length == getNumHolders() && !votes[voteId].rewardDistributed */\n    tag_439:\n        /* \"crypto-core/contracts/TimedReleaseVoting.sol\":10387:10534  if (votes[voteId].shareSubmitters.length == getNumHolders() && !votes[voteId].rewardDistributed) {... */\n      iszero\n      tag_440\n      jumpi\n        /* \"crypto-core/contracts/TimedReleaseVoting.sol\":10498:10523  distributeRewards(voteId) */\n      tag_441\n        /* \"crypto-core/contracts/TimedReleaseVoting.sol\":10516:10522  voteId */\n      dup6\n        /* \"crypto-core/contracts/TimedReleaseVoting.sol\":10498:10515  distributeRewards */\n      tag_442\n        /* \"crypto-core/contracts/TimedReleaseVoting.sol\":10498:10523  distributeRewards(voteId) */\n      jump\t// in\n    tag_441:\n        /* \"crypto-core/contracts/TimedReleaseVoting.sol\":10387:10534  if (votes[voteId].shareSubmitters.length == getNumHolders() && !votes[voteId].rewardDistributed) {... */\n    tag_440:\n        /* \"crypto-core/contracts/TimedReleaseVoting.sol\":4298:4299  _ */\n      pop\n        /* \"crypto-core/contracts/TimedReleaseVoting.sol\":4172:4173  _ */\n      pop\n        /* \"crypto-core/contracts/TimedReleaseVoting.sol\":9911:10540  function submitShare(... */\n      pop\n      pop\n      pop\n      jump\t// out\n        /* \"crypto-core/contracts/TimedReleaseVoting.sol\":14887:15253  function getNumHoldersByElection(uint256 electionId) public view returns (uint256) {... */\n    tag_134:\n        /* \"crypto-core/contracts/TimedReleaseVoting.sol\":14961:14968  uint256 */\n      0x00\n        /* \"crypto-core/contracts/TimedReleaseVoting.sol\":14980:14993  uint256 count */\n      dup1\n        /* \"crypto-core/contracts/TimedReleaseVoting.sol\":14996:14997  0 */\n      0x00\n        /* \"crypto-core/contracts/TimedReleaseVoting.sol\":14980:14997  uint256 count = 0 */\n      swap1\n      pop\n        /* \"crypto-core/contracts/TimedReleaseVoting.sol\":15012:15021  uint256 i */\n      0x00\n        /* \"crypto-core/contracts/TimedReleaseVoting.sol\":15007:15225  for (uint256 i = 0; i < holderAddresses2.length; i++) {... */\n    tag_444:\n        /* \"crypto-core/contracts/TimedReleaseVoting.sol\":15031:15047  holderAddresses2 */\n      0x05\n        /* \"crypto-core/contracts/TimedReleaseVoting.sol\":15031:15054  holderAddresses2.length */\n      dup1\n      sload\n      swap1\n      pop\n        /* \"crypto-core/contracts/TimedReleaseVoting.sol\":15027:15028  i */\n      dup2\n        /* \"crypto-core/contracts/TimedReleaseVoting.sol\":15027:15054  i < holderAddresses2.length */\n      lt\n        /* \"crypto-core/contracts/TimedReleaseVoting.sol\":15007:15225  for (uint256 i = 0; i < holderAddresses2.length; i++) {... */\n      iszero\n      tag_445\n      jumpi\n        /* \"crypto-core/contracts/TimedReleaseVoting.sol\":15079:15087  holders2 */\n      0x03\n        /* \"crypto-core/contracts/TimedReleaseVoting.sol\":15088:15104  holderAddresses2 */\n      0x05\n        /* \"crypto-core/contracts/TimedReleaseVoting.sol\":15105:15106  i */\n      dup3\n        /* \"crypto-core/contracts/TimedReleaseVoting.sol\":15088:15107  holderAddresses2[i] */\n      dup2\n      sload\n      dup2\n      lt\n      tag_447\n      jumpi\n      mstore(0x00, 0x4e487b7100000000000000000000000000000000000000000000000000000000)\n      mstore(0x04, 0x32)\n      revert(0x00, 0x24)\n    tag_447:\n      swap1\n      0x00\n      mstore\n      keccak256(0x00, 0x20)\n      add\n        /* \"crypto-core/contracts/TimedReleaseVoting.sol\":15079:15108  holders2[holderAddresses2[i]] */\n      mload(0x40)\n      tag_449\n      swap2\n      swap1\n      tag_257\n      jump\t// in\n    tag_449:\n      swap1\n      dup2\n      mstore\n      0x20\n      add\n      mload(0x40)\n      dup1\n      swap2\n      sub\n      swap1\n      keccak256\n        /* \"crypto-core/contracts/TimedReleaseVoting.sol\":15079:15115  holders2[holderAddresses2[i]].active */\n      0x03\n      add\n      0x00\n      swap1\n      sload\n      swap1\n      0x0100\n      exp\n      swap1\n      div\n      0xff\n      and\n        /* \"crypto-core/contracts/TimedReleaseVoting.sol\":15079:15173  holders2[holderAddresses2[i]].active && holders2[holderAddresses2[i]].electionId == electionId */\n      dup1\n      iszero\n      tag_450\n      jumpi\n      pop\n        /* \"crypto-core/contracts/TimedReleaseVoting.sol\":15163:15173  electionId */\n      dup4\n        /* \"crypto-core/contracts/TimedReleaseVoting.sol\":15119:15127  holders2 */\n      0x03\n        /* \"crypto-core/contracts/TimedReleaseVoting.sol\":15128:15144  holderAddresses2 */\n      0x05\n        /* \"crypto-core/contracts/TimedReleaseVoting.sol\":15145:15146  i */\n      dup4\n        /* \"crypto-core/contracts/TimedReleaseVoting.sol\":15128:15147  holderAddresses2[i] */\n      dup2\n      sload\n      dup2\n      lt\n      tag_451\n      jumpi\n      mstore(0x00, 0x4e487b7100000000000000000000000000000000000000000000000000000000)\n      mstore(0x04, 0x32)\n      revert(0x00, 0x24)\n    tag_451:\n      swap1\n      0x00\n      mstore\n      keccak256(0x00, 0x20)\n      add\n        /* \"crypto-core/contracts/TimedReleaseVoting.sol\":15119:15148  holders2[holderAddresses2[i]] */\n      mload(0x40)\n      tag_453\n      swap2\n      swap1\n      tag_257\n      jump\t// in\n    tag_453:\n      swap1\n      dup2\n      mstore\n      0x20\n      add\n      mload(0x40)\n      dup1\n      swap2\n      sub\n      swap1\n      keccak256\n        /* \"crypto-core/contracts/TimedReleaseVoting.sol\":15119:15159  holders2[holderAddresses2[i]].electionId */\n      0x02\n      add\n      sload\n        /* \"crypto-core/contracts/TimedReleaseVoting.sol\":15119:15173  holders2[holderAddresses2[i]].electionId == electionId */\n      eq\n        /* \"crypto-core/contracts/TimedReleaseVoting.sol\":15079:15173  holders2[holderAddresses2[i]].active && holders2[holderAddresses2[i]].electionId == electionId */\n    tag_450:\n        /* \"crypto-core/contracts/TimedReleaseVoting.sol\":15075:15215  if (holders2[holderAddresses2[i]].active && holders2[holderAddresses2[i]].electionId == electionId) {... */\n      iszero\n      tag_454\n      jumpi\n        /* \"crypto-core/contracts/TimedReleaseVoting.sol\":15193:15200  count++ */\n      dup2\n      dup1\n      tag_455\n      swap1\n      tag_205\n      jump\t// in\n    tag_455:\n      swap3\n      pop\n      pop\n        /* \"crypto-core/contracts/TimedReleaseVoting.sol\":15075:15215  if (holders2[holderAddresses2[i]].active && holders2[holderAddresses2[i]].electionId == electionId) {... */\n    tag_454:\n        /* \"crypto-core/contracts/TimedReleaseVoting.sol\":15056:15059  i++ */\n      dup1\n      dup1\n      tag_456\n      swap1\n      tag_205\n      jump\t// in\n    tag_456:\n      swap2\n      pop\n      pop\n        /* \"crypto-core/contracts/TimedReleaseVoting.sol\":15007:15225  for (uint256 i = 0; i < holderAddresses2.length; i++) {... */\n      jump(tag_444)\n    tag_445:\n      pop\n        /* \"crypto-core/contracts/TimedReleaseVoting.sol\":15241:15246  count */\n      dup1\n        /* \"crypto-core/contracts/TimedReleaseVoting.sol\":15234:15246  return count */\n      swap2\n      pop\n      pop\n        /* \"crypto-core/contracts/TimedReleaseVoting.sol\":14887:15253  function getNumHoldersByElection(uint256 electionId) public view returns (uint256) {... */\n      swap2\n      swap1\n      pop\n      jump\t// out\n        /* \"crypto-core/contracts/TimedReleaseVoting.sol\":10666:11206  function triggerRewardDistribution(uint256 voteId) external voteExists(voteId) afterDecryptionTime(voteId) {... */\n    tag_139:\n        /* \"crypto-core/contracts/TimedReleaseVoting.sol\":10737:10743  voteId */\n      dup1\n        /* \"crypto-core/contracts/TimedReleaseVoting.sol\":4244:4249  votes */\n      0x06\n        /* \"crypto-core/contracts/TimedReleaseVoting.sol\":4244:4257  votes[voteId] */\n      0x00\n        /* \"crypto-core/contracts/TimedReleaseVoting.sol\":4250:4256  voteId */\n      dup3\n        /* \"crypto-core/contracts/TimedReleaseVoting.sol\":4244:4257  votes[voteId] */\n      dup2\n      mstore\n      0x20\n      add\n      swap1\n      dup2\n      mstore\n      0x20\n      add\n      0x00\n      keccak256\n        /* \"crypto-core/contracts/TimedReleaseVoting.sol\":4244:4264  votes[voteId].exists */\n      0x07\n      add\n      0x00\n      swap1\n      sload\n      swap1\n      0x0100\n      exp\n      swap1\n      div\n      0xff\n      and\n        /* \"crypto-core/contracts/TimedReleaseVoting.sol\":4236:4288  require(votes[voteId].exists, \"Vote does not exist\") */\n      tag_458\n      jumpi\n      mload(0x40)\n      0x08c379a000000000000000000000000000000000000000000000000000000000\n      dup2\n      mstore\n      0x04\n      add\n      tag_459\n      swap1\n      tag_211\n      jump\t// in\n    tag_459:\n      mload(0x40)\n      dup1\n      swap2\n      sub\n      swap1\n      revert\n    tag_458:\n        /* \"crypto-core/contracts/TimedReleaseVoting.sol\":10765:10771  voteId */\n      dup2\n        /* \"crypto-core/contracts/TimedReleaseVoting.sol\":4398:4403  votes */\n      0x06\n        /* \"crypto-core/contracts/TimedReleaseVoting.sol\":4398:4411  votes[voteId] */\n      0x00\n        /* \"crypto-core/contracts/TimedReleaseVoting.sol\":4404:4410  voteId */\n      dup3\n        /* \"crypto-core/contracts/TimedReleaseVoting.sol\":4398:4411  votes[voteId] */\n      dup2\n      mstore\n      0x20\n      add\n      swap1\n      dup2\n      mstore\n      0x20\n      add\n      0x00\n      keccak256\n        /* \"crypto-core/contracts/TimedReleaseVoting.sol\":4398:4426  votes[voteId].decryptionTime */\n      0x02\n      add\n      sload\n        /* \"crypto-core/contracts/TimedReleaseVoting.sol\":4379:4394  block.timestamp */\n      timestamp\n        /* \"crypto-core/contracts/TimedReleaseVoting.sol\":4379:4426  block.timestamp >= votes[voteId].decryptionTime */\n      lt\n      iszero\n        /* \"crypto-core/contracts/TimedReleaseVoting.sol\":4371:4458  require(block.timestamp >= votes[voteId].decryptionTime, \"Decryption time not reached\") */\n      tag_461\n      jumpi\n      mload(0x40)\n      0x08c379a000000000000000000000000000000000000000000000000000000000\n      dup2\n      mstore\n      0x04\n      add\n      tag_462\n      swap1\n      tag_433\n      jump\t// in\n    tag_462:\n      mload(0x40)\n      dup1\n      swap2\n      sub\n      swap1\n      revert\n    tag_461:\n        /* \"crypto-core/contracts/TimedReleaseVoting.sol\":10937:10944  1 hours */\n      0x0e10\n        /* \"crypto-core/contracts/TimedReleaseVoting.sol\":10906:10911  votes */\n      0x06\n        /* \"crypto-core/contracts/TimedReleaseVoting.sol\":10906:10919  votes[voteId] */\n      0x00\n        /* \"crypto-core/contracts/TimedReleaseVoting.sol\":10912:10918  voteId */\n      dup6\n        /* \"crypto-core/contracts/TimedReleaseVoting.sol\":10906:10919  votes[voteId] */\n      dup2\n      mstore\n      0x20\n      add\n      swap1\n      dup2\n      mstore\n      0x20\n      add\n      0x00\n      keccak256\n        /* \"crypto-core/contracts/TimedReleaseVoting.sol\":10906:10934  votes[voteId].decryptionTime */\n      0x02\n      add\n      sload\n        /* \"crypto-core/contracts/TimedReleaseVoting.sol\":10906:10944  votes[voteId].decryptionTime + 1 hours */\n      tag_464\n      swap2\n      swap1\n      tag_465\n      jump\t// in\n    tag_464:\n        /* \"crypto-core/contracts/TimedReleaseVoting.sol\":10887:10902  block.timestamp */\n      timestamp\n        /* \"crypto-core/contracts/TimedReleaseVoting.sol\":10887:10944  block.timestamp >= votes[voteId].decryptionTime + 1 hours */\n      lt\n      iszero\n        /* \"crypto-core/contracts/TimedReleaseVoting.sol\":10879:10991  require(block.timestamp >= votes[voteId].decryptionTime + 1 hours, \"Wait at least 1 hour after decryption time\") */\n      tag_466\n      jumpi\n      mload(0x40)\n      0x08c379a000000000000000000000000000000000000000000000000000000000\n      dup2\n      mstore\n      0x04\n      add\n      tag_467\n      swap1\n      tag_468\n      jump\t// in\n    tag_467:\n      mload(0x40)\n      dup1\n      swap2\n      sub\n      swap1\n      revert\n    tag_466:\n        /* \"crypto-core/contracts/TimedReleaseVoting.sol\":11010:11015  votes */\n      0x06\n        /* \"crypto-core/contracts/TimedReleaseVoting.sol\":11010:11023  votes[voteId] */\n      0x00\n        /* \"crypto-core/contracts/TimedReleaseVoting.sol\":11016:11022  voteId */\n      dup5\n        /* \"crypto-core/contracts/TimedReleaseVoting.sol\":11010:11023  votes[voteId] */\n      dup2\n      mstore\n      0x20\n      add\n      swap1\n      dup2\n      mstore\n      0x20\n      add\n      0x00\n      keccak256\n        /* \"crypto-core/contracts/TimedReleaseVoting.sol\":11010:11041  votes[voteId].rewardDistributed */\n      0x09\n      add\n      0x00\n      swap1\n      sload\n      swap1\n      0x0100\n      exp\n      swap1\n      div\n      0xff\n      and\n        /* \"crypto-core/contracts/TimedReleaseVoting.sol\":11009:11041  !votes[voteId].rewardDistributed */\n      iszero\n        /* \"crypto-core/contracts/TimedReleaseVoting.sol\":11001:11073  require(!votes[voteId].rewardDistributed, \"Rewards already distributed\") */\n      tag_469\n      jumpi\n      mload(0x40)\n      0x08c379a000000000000000000000000000000000000000000000000000000000\n      dup2\n      mstore\n      0x04\n      add\n      tag_470\n      swap1\n      tag_471\n      jump\t// in\n    tag_470:\n      mload(0x40)\n      dup1\n      swap2\n      sub\n      swap1\n      revert\n    tag_469:\n        /* \"crypto-core/contracts/TimedReleaseVoting.sol\":11130:11131  0 */\n      0x00\n        /* \"crypto-core/contracts/TimedReleaseVoting.sol\":11091:11096  votes */\n      0x06\n        /* \"crypto-core/contracts/TimedReleaseVoting.sol\":11091:11104  votes[voteId] */\n      0x00\n        /* \"crypto-core/contracts/TimedReleaseVoting.sol\":11097:11103  voteId */\n      dup6\n        /* \"crypto-core/contracts/TimedReleaseVoting.sol\":11091:11104  votes[voteId] */\n      dup2\n      mstore\n      0x20\n      add\n      swap1\n      dup2\n      mstore\n      0x20\n      add\n      0x00\n      keccak256\n        /* \"crypto-core/contracts/TimedReleaseVoting.sol\":11091:11120  votes[voteId].shareSubmitters */\n      0x06\n      add\n        /* \"crypto-core/contracts/TimedReleaseVoting.sol\":11091:11127  votes[voteId].shareSubmitters.length */\n      dup1\n      sload\n      swap1\n      pop\n        /* \"crypto-core/contracts/TimedReleaseVoting.sol\":11091:11131  votes[voteId].shareSubmitters.length > 0 */\n      gt\n        /* \"crypto-core/contracts/TimedReleaseVoting.sol\":11083:11155  require(votes[voteId].shareSubmitters.length > 0, \"No shares submitted\") */\n      tag_472\n      jumpi\n      mload(0x40)\n      0x08c379a000000000000000000000000000000000000000000000000000000000\n      dup2\n      mstore\n      0x04\n      add\n      tag_473\n      swap1\n      tag_474\n      jump\t// in\n    tag_473:\n      mload(0x40)\n      dup1\n      swap2\n      sub\n      swap1\n      revert\n    tag_472:\n        /* \"crypto-core/contracts/TimedReleaseVoting.sol\":11174:11199  distributeRewards(voteId) */\n      tag_475\n        /* \"crypto-core/contracts/TimedReleaseVoting.sol\":11192:11198  voteId */\n      dup4\n        /* \"crypto-core/contracts/TimedReleaseVoting.sol\":11174:11191  distributeRewards */\n      tag_442\n        /* \"crypto-core/contracts/TimedReleaseVoting.sol\":11174:11199  distributeRewards(voteId) */\n      jump\t// in\n    tag_475:\n        /* \"crypto-core/contracts/TimedReleaseVoting.sol\":4298:4299  _ */\n      pop\n        /* \"crypto-core/contracts/TimedReleaseVoting.sol\":10666:11206  function triggerRewardDistribution(uint256 voteId) external voteExists(voteId) afterDecryptionTime(voteId) {... */\n      pop\n      pop\n      jump\t// out\n        /* \"crypto-core/contracts/TimedReleaseVoting.sol\":626:654  uint256 public electionCount */\n    tag_142:\n      sload(0x01)\n      dup2\n      jump\t// out\n        /* \"crypto-core/contracts/TimedReleaseVoting.sol\":1245:1775  function getElection(uint256 voteId) public view returns (... */\n    tag_147:\n        /* \"crypto-core/contracts/TimedReleaseVoting.sol\":1312:1322  uint256 id */\n      0x00\n        /* \"crypto-core/contracts/TimedReleaseVoting.sol\":1332:1351  string memory title */\n      0x60\n        /* \"crypto-core/contracts/TimedReleaseVoting.sol\":1361:1386  string memory description */\n      dup1\n        /* \"crypto-core/contracts/TimedReleaseVoting.sol\":1396:1413  uint256 startDate */\n      0x00\n        /* \"crypto-core/contracts/TimedReleaseVoting.sol\":1423:1438  uint256 endDate */\n      dup1\n        /* \"crypto-core/contracts/TimedReleaseVoting.sol\":1448:1471  string[] memory options */\n      0x60\n        /* \"crypto-core/contracts/TimedReleaseVoting.sol\":1481:1499  uint256 rewardPool */\n      0x00\n        /* \"crypto-core/contracts/TimedReleaseVoting.sol\":1509:1532  uint256 electionDeposit */\n      dup1\n        /* \"crypto-core/contracts/TimedReleaseVoting.sol\":1566:1579  electionCount */\n      sload(0x01)\n        /* \"crypto-core/contracts/TimedReleaseVoting.sol\":1557:1563  voteId */\n      dup10\n        /* \"crypto-core/contracts/TimedReleaseVoting.sol\":1557:1579  voteId < electionCount */\n      lt\n        /* \"crypto-core/contracts/TimedReleaseVoting.sol\":1549:1607  require(voteId < electionCount, \"Election does not exist\") */\n      tag_477\n      jumpi\n      mload(0x40)\n      0x08c379a000000000000000000000000000000000000000000000000000000000\n      dup2\n      mstore\n      0x04\n      add\n      tag_478\n      swap1\n      tag_479\n      jump\t// in\n    tag_478:\n      mload(0x40)\n      dup1\n      swap2\n      sub\n      swap1\n      revert\n    tag_477:\n        /* \"crypto-core/contracts/TimedReleaseVoting.sol\":1617:1634  Election memory v */\n      0x00\n        /* \"crypto-core/contracts/TimedReleaseVoting.sol\":1637:1645  election */\n      dup1\n        /* \"crypto-core/contracts/TimedReleaseVoting.sol\":1637:1653  election[voteId] */\n      0x00\n        /* \"crypto-core/contracts/TimedReleaseVoting.sol\":1646:1652  voteId */\n      dup12\n        /* \"crypto-core/contracts/TimedReleaseVoting.sol\":1637:1653  election[voteId] */\n      dup2\n      mstore\n      0x20\n      add\n      swap1\n      dup2\n      mstore\n      0x20\n      add\n      0x00\n      keccak256\n        /* \"crypto-core/contracts/TimedReleaseVoting.sol\":1617:1653  Election memory v = election[voteId] */\n      mload(0x40)\n      dup1\n      0x0100\n      add\n      0x40\n      mstore\n      swap1\n      dup2\n      0x00\n      dup3\n      add\n      sload\n      dup2\n      mstore\n      0x20\n      add\n      0x01\n      dup3\n      add\n      dup1\n      sload\n      tag_480\n      swap1\n      tag_241\n      jump\t// in\n    tag_480:\n      dup1\n      0x1f\n      add\n      0x20\n      dup1\n      swap2\n      div\n      mul\n      0x20\n      add\n      mload(0x40)\n      swap1\n      dup2\n      add\n      0x40\n      mstore\n      dup1\n      swap3\n      swap2\n      swap1\n      dup2\n      dup2\n      mstore\n      0x20\n      add\n      dup3\n      dup1\n      sload\n      tag_481\n      swap1\n      tag_241\n      jump\t// in\n    tag_481:\n      dup1\n      iszero\n      tag_482\n      jumpi\n      dup1\n      0x1f\n      lt\n      tag_483\n      jumpi\n      0x0100\n      dup1\n      dup4\n      sload\n      div\n      mul\n      dup4\n      mstore\n      swap2\n      0x20\n      add\n      swap2\n      jump(tag_482)\n    tag_483:\n      dup3\n      add\n      swap2\n      swap1\n      0x00\n      mstore\n      keccak256(0x00, 0x20)\n      swap1\n    tag_484:\n      dup2\n      sload\n      dup2\n      mstore\n      swap1\n      0x01\n      add\n      swap1\n      0x20\n      add\n      dup1\n      dup4\n      gt\n      tag_484\n      jumpi\n      dup3\n      swap1\n      sub\n      0x1f\n      and\n      dup3\n      add\n      swap2\n    tag_482:\n      pop\n      pop\n      pop\n      pop\n      pop\n      dup2\n      mstore\n      0x20\n      add\n      0x02\n      dup3\n      add\n      dup1\n      sload\n      tag_485\n      swap1\n      tag_241\n      jump\t// in\n    tag_485:\n      dup1\n      0x1f\n      add\n      0x20\n      dup1\n      swap2\n      div\n      mul\n      0x20\n      add\n      mload(0x40)\n      swap1\n      dup2\n      add\n      0x40\n      mstore\n      dup1\n      swap3\n      swap2\n      swap1\n      dup2\n      dup2\n      mstore\n      0x20\n      add\n      dup3\n      dup1\n      sload\n      tag_486\n      swap1\n      tag_241\n      jump\t// in\n    tag_486:\n      dup1\n      iszero\n      tag_487\n      jumpi\n      dup1\n      0x1f\n      lt\n      tag_488\n      jumpi\n      0x0100\n      dup1\n      dup4\n      sload\n      div\n      mul\n      dup4\n      mstore\n      swap2\n      0x20\n      add\n      swap2\n      jump(tag_487)\n    tag_488:\n      dup3\n      add\n      swap2\n      swap1\n      0x00\n      mstore\n      keccak256(0x00, 0x20)\n      swap1\n    tag_489:\n      dup2\n      sload\n      dup2\n      mstore\n      swap1\n      0x01\n      add\n      swap1\n      0x20\n      add\n      dup1\n      dup4\n      gt\n      tag_489\n      jumpi\n      dup3\n      swap1\n      sub\n      0x1f\n      and\n      dup3\n      add\n      swap2\n    tag_487:\n      pop\n      pop\n      pop\n      pop\n      pop\n      dup2\n      mstore\n      0x20\n      add\n      0x03\n      dup3\n      add\n      sload\n      dup2\n      mstore\n      0x20\n      add\n      0x04\n      dup3\n      add\n      sload\n      dup2\n      mstore\n      0x20\n      add\n      0x05\n      dup3\n      add\n      dup1\n      sload\n      dup1\n      0x20\n      mul\n      0x20\n      add\n      mload(0x40)\n      swap1\n      dup2\n      add\n      0x40\n      mstore\n      dup1\n      swap3\n      swap2\n      swap1\n      dup2\n      dup2\n      mstore\n      0x20\n      add\n      0x00\n      swap1\n    tag_490:\n      dup3\n      dup3\n      lt\n      iszero\n      tag_491\n      jumpi\n      dup4\n      dup3\n      swap1\n      0x00\n      mstore\n      keccak256(0x00, 0x20)\n      add\n      dup1\n      sload\n      tag_493\n      swap1\n      tag_241\n      jump\t// in\n    tag_493:\n      dup1\n      0x1f\n      add\n      0x20\n      dup1\n      swap2\n      div\n      mul\n      0x20\n      add\n      mload(0x40)\n      swap1\n      dup2\n      add\n      0x40\n      mstore\n      dup1\n      swap3\n      swap2\n      swap1\n      dup2\n      dup2\n      mstore\n      0x20\n      add\n      dup3\n      dup1\n      sload\n      tag_494\n      swap1\n      tag_241\n      jump\t// in\n    tag_494:\n      dup1\n      iszero\n      tag_495\n      jumpi\n      dup1\n      0x1f\n      lt\n      tag_496\n      jumpi\n      0x0100\n      dup1\n      dup4\n      sload\n      div\n      mul\n      dup4\n      mstore\n      swap2\n      0x20\n      add\n      swap2\n      jump(tag_495)\n    tag_496:\n      dup3\n      add\n      swap2\n      swap1\n      0x00\n      mstore\n      keccak256(0x00, 0x20)\n      swap1\n    tag_497:\n      dup2\n      sload\n      dup2\n      mstore\n      swap1\n      0x01\n      add\n      swap1\n      0x20\n      add\n      dup1\n      dup4\n      gt\n      tag_497\n      jumpi\n      dup3\n      swap1\n      sub\n      0x1f\n      and\n      dup3\n      add\n      swap2\n    tag_495:\n      pop\n      pop\n      pop\n      pop\n      pop\n      dup2\n      mstore\n      0x20\n      add\n      swap1\n      0x01\n      add\n      swap1\n      jump(tag_490)\n    tag_491:\n      pop\n      pop\n      pop\n      pop\n      dup2\n      mstore\n      0x20\n      add\n      0x06\n      dup3\n      add\n      sload\n      dup2\n      mstore\n      0x20\n      add\n      0x07\n      dup3\n      add\n      sload\n      dup2\n      mstore\n      pop\n      pop\n      swap1\n      pop\n        /* \"crypto-core/contracts/TimedReleaseVoting.sol\":1671:1672  v */\n      dup1\n        /* \"crypto-core/contracts/TimedReleaseVoting.sol\":1671:1675  v.id */\n      0x00\n      add\n      mload\n        /* \"crypto-core/contracts/TimedReleaseVoting.sol\":1677:1678  v */\n      dup2\n        /* \"crypto-core/contracts/TimedReleaseVoting.sol\":1677:1684  v.title */\n      0x20\n      add\n      mload\n        /* \"crypto-core/contracts/TimedReleaseVoting.sol\":1686:1687  v */\n      dup3\n        /* \"crypto-core/contracts/TimedReleaseVoting.sol\":1686:1699  v.description */\n      0x40\n      add\n      mload\n        /* \"crypto-core/contracts/TimedReleaseVoting.sol\":1701:1702  v */\n      dup4\n        /* \"crypto-core/contracts/TimedReleaseVoting.sol\":1701:1712  v.startDate */\n      0x60\n      add\n      mload\n        /* \"crypto-core/contracts/TimedReleaseVoting.sol\":1714:1715  v */\n      dup5\n        /* \"crypto-core/contracts/TimedReleaseVoting.sol\":1714:1723  v.endDate */\n      0x80\n      add\n      mload\n        /* \"crypto-core/contracts/TimedReleaseVoting.sol\":1725:1726  v */\n      dup6\n        /* \"crypto-core/contracts/TimedReleaseVoting.sol\":1725:1734  v.options */\n      0xa0\n      add\n      mload\n        /* \"crypto-core/contracts/TimedReleaseVoting.sol\":1736:1737  v */\n      dup7\n        /* \"crypto-core/contracts/TimedReleaseVoting.sol\":1736:1748  v.rewardPool */\n      0xc0\n      add\n      mload\n        /* \"crypto-core/contracts/TimedReleaseVoting.sol\":1750:1751  v */\n      dup8\n        /* \"crypto-core/contracts/TimedReleaseVoting.sol\":1750:1767  v.electionDeposit */\n      0xe0\n      add\n      mload\n        /* \"crypto-core/contracts/TimedReleaseVoting.sol\":1663:1768  return (v.id, v.title, v.description, v.startDate, v.endDate, v.options, v.rewardPool, v.electionDeposit) */\n      swap9\n      pop\n      swap9\n      pop\n      swap9\n      pop\n      swap9\n      pop\n      swap9\n      pop\n      swap9\n      pop\n      swap9\n      pop\n      swap9\n      pop\n      pop\n        /* \"crypto-core/contracts/TimedReleaseVoting.sol\":1245:1775  function getElection(uint256 voteId) public view returns (... */\n      swap2\n      swap4\n      swap6\n      swap8\n      pop\n      swap2\n      swap4\n      swap6\n      swap8\n      jump\t// out\n        /* \"crypto-core/contracts/TimedReleaseVoting.sol\":2970:3009  uint256 public constant MIN_HOLDERS = 3 */\n    tag_152:\n        /* \"crypto-core/contracts/TimedReleaseVoting.sol\":3008:3009  3 */\n      0x03\n        /* \"crypto-core/contracts/TimedReleaseVoting.sol\":2970:3009  uint256 public constant MIN_HOLDERS = 3 */\n      dup2\n      jump\t// out\n        /* \"crypto-core/contracts/TimedReleaseVoting.sol\":3317:3348  bytes[] public holderAddresses2 */\n    tag_157:\n      0x05\n      dup2\n      dup2\n      sload\n      dup2\n      lt\n      tag_498\n      jumpi\n      0x00\n      dup1\n      revert\n    tag_498:\n      swap1\n      0x00\n      mstore\n      keccak256(0x00, 0x20)\n      add\n      0x00\n      swap2\n      pop\n      swap1\n      pop\n      dup1\n      sload\n      tag_500\n      swap1\n      tag_241\n      jump\t// in\n    tag_500:\n      dup1\n      0x1f\n      add\n      0x20\n      dup1\n      swap2\n      div\n      mul\n      0x20\n      add\n      mload(0x40)\n      swap1\n      dup2\n      add\n      0x40\n      mstore\n      dup1\n      swap3\n      swap2\n      swap1\n      dup2\n      dup2\n      mstore\n      0x20\n      add\n      dup3\n      dup1\n      sload\n      tag_501\n      swap1\n      tag_241\n      jump\t// in\n    tag_501:\n      dup1\n      iszero\n      tag_502\n      jumpi\n      dup1\n      0x1f\n      lt\n      tag_503\n      jumpi\n      0x0100\n      dup1\n      dup4\n      sload\n      div\n      mul\n      dup4\n      mstore\n      swap2\n      0x20\n      add\n      swap2\n      jump(tag_502)\n    tag_503:\n      dup3\n      add\n      swap2\n      swap1\n      0x00\n      mstore\n      keccak256(0x00, 0x20)\n      swap1\n    tag_504:\n      dup2\n      sload\n      dup2\n      mstore\n      swap1\n      0x01\n      add\n      swap1\n      0x20\n      add\n      dup1\n      dup4\n      gt\n      tag_504\n      jumpi\n      dup3\n      swap1\n      sub\n      0x1f\n      and\n      dup3\n      add\n      swap2\n    tag_502:\n      pop\n      pop\n      pop\n      pop\n      pop\n      dup2\n      jump\t// out\n        /* \"crypto-core/contracts/TimedReleaseVoting.sol\":2874:2924  uint256 public constant REQUIRED_DEPOSIT = 1 ether */\n    tag_162:\n        /* \"crypto-core/contracts/TimedReleaseVoting.sol\":2917:2924  1 ether */\n      0x0de0b6b3a7640000\n        /* \"crypto-core/contracts/TimedReleaseVoting.sol\":2874:2924  uint256 public constant REQUIRED_DEPOSIT = 1 ether */\n      dup2\n      jump\t// out\n        /* \"crypto-core/contracts/TimedReleaseVoting.sol\":3397:3421  uint256 public voteCount */\n    tag_166:\n      sload(0x07)\n      dup2\n      jump\t// out\n        /* \"crypto-core/contracts/TimedReleaseVoting.sol\":14411:14688  function getNumHolders() public view returns (uint256) {... */\n    tag_170:\n        /* \"crypto-core/contracts/TimedReleaseVoting.sol\":14457:14464  uint256 */\n      0x00\n        /* \"crypto-core/contracts/TimedReleaseVoting.sol\":14476:14489  uint256 count */\n      dup1\n        /* \"crypto-core/contracts/TimedReleaseVoting.sol\":14492:14493  0 */\n      0x00\n        /* \"crypto-core/contracts/TimedReleaseVoting.sol\":14476:14493  uint256 count = 0 */\n      swap1\n      pop\n        /* \"crypto-core/contracts/TimedReleaseVoting.sol\":14508:14517  uint256 i */\n      0x00\n        /* \"crypto-core/contracts/TimedReleaseVoting.sol\":14503:14660  for (uint256 i = 0; i < holderAddresses.length; i++) {... */\n    tag_506:\n        /* \"crypto-core/contracts/TimedReleaseVoting.sol\":14527:14542  holderAddresses */\n      0x04\n        /* \"crypto-core/contracts/TimedReleaseVoting.sol\":14527:14549  holderAddresses.length */\n      dup1\n      sload\n      swap1\n      pop\n        /* \"crypto-core/contracts/TimedReleaseVoting.sol\":14523:14524  i */\n      dup2\n        /* \"crypto-core/contracts/TimedReleaseVoting.sol\":14523:14549  i < holderAddresses.length */\n      lt\n        /* \"crypto-core/contracts/TimedReleaseVoting.sol\":14503:14660  for (uint256 i = 0; i < holderAddresses.length; i++) {... */\n      iszero\n      tag_507\n      jumpi\n        /* \"crypto-core/contracts/TimedReleaseVoting.sol\":14574:14581  holders */\n      0x02\n        /* \"crypto-core/contracts/TimedReleaseVoting.sol\":14574:14601  holders[holderAddresses[i]] */\n      0x00\n        /* \"crypto-core/contracts/TimedReleaseVoting.sol\":14582:14597  holderAddresses */\n      0x04\n        /* \"crypto-core/contracts/TimedReleaseVoting.sol\":14598:14599  i */\n      dup4\n        /* \"crypto-core/contracts/TimedReleaseVoting.sol\":14582:14600  holderAddresses[i] */\n      dup2\n      sload\n      dup2\n      lt\n      tag_509\n      jumpi\n      mstore(0x00, 0x4e487b7100000000000000000000000000000000000000000000000000000000)\n      mstore(0x04, 0x32)\n      revert(0x00, 0x24)\n    tag_509:\n      swap1\n      0x00\n      mstore\n      keccak256(0x00, 0x20)\n      add\n      0x00\n      swap1\n      sload\n      swap1\n      0x0100\n      exp\n      swap1\n      div\n      0xffffffffffffffffffffffffffffffffffffffff\n      and\n        /* \"crypto-core/contracts/TimedReleaseVoting.sol\":14574:14601  holders[holderAddresses[i]] */\n      0xffffffffffffffffffffffffffffffffffffffff\n      and\n      0xffffffffffffffffffffffffffffffffffffffff\n      and\n      dup2\n      mstore\n      0x20\n      add\n      swap1\n      dup2\n      mstore\n      0x20\n      add\n      0x00\n      keccak256\n        /* \"crypto-core/contracts/TimedReleaseVoting.sol\":14574:14608  holders[holderAddresses[i]].active */\n      0x03\n      add\n      0x00\n      swap1\n      sload\n      swap1\n      0x0100\n      exp\n      swap1\n      div\n      0xff\n      and\n        /* \"crypto-core/contracts/TimedReleaseVoting.sol\":14570:14650  if (holders[holderAddresses[i]].active) {... */\n      iszero\n      tag_511\n      jumpi\n        /* \"crypto-core/contracts/TimedReleaseVoting.sol\":14628:14635  count++ */\n      dup2\n      dup1\n      tag_512\n      swap1\n      tag_205\n      jump\t// in\n    tag_512:\n      swap3\n      pop\n      pop\n        /* \"crypto-core/contracts/TimedReleaseVoting.sol\":14570:14650  if (holders[holderAddresses[i]].active) {... */\n    tag_511:\n        /* \"crypto-core/contracts/TimedReleaseVoting.sol\":14551:14554  i++ */\n      dup1\n      dup1\n      tag_513\n      swap1\n      tag_205\n      jump\t// in\n    tag_513:\n      swap2\n      pop\n      pop\n        /* \"crypto-core/contracts/TimedReleaseVoting.sol\":14503:14660  for (uint256 i = 0; i < holderAddresses.length; i++) {... */\n      jump(tag_506)\n    tag_507:\n      pop\n        /* \"crypto-core/contracts/TimedReleaseVoting.sol\":14676:14681  count */\n      dup1\n        /* \"crypto-core/contracts/TimedReleaseVoting.sol\":14669:14681  return count */\n      swap2\n      pop\n      pop\n        /* \"crypto-core/contracts/TimedReleaseVoting.sol\":14411:14688  function getNumHolders() public view returns (uint256) {... */\n      swap1\n      jump\t// out\n        /* \"crypto-core/contracts/TimedReleaseVoting.sol\":17959:18082  function isHolder(address holderAddress) external view returns (bool) {... */\n    tag_175:\n        /* \"crypto-core/contracts/TimedReleaseVoting.sol\":18023:18027  bool */\n      0x00\n        /* \"crypto-core/contracts/TimedReleaseVoting.sol\":18046:18053  holders */\n      0x02\n        /* \"crypto-core/contracts/TimedReleaseVoting.sol\":18046:18068  holders[holderAddress] */\n      0x00\n        /* \"crypto-core/contracts/TimedReleaseVoting.sol\":18054:18067  holderAddress */\n      dup4\n        /* \"crypto-core/contracts/TimedReleaseVoting.sol\":18046:18068  holders[holderAddress] */\n      0xffffffffffffffffffffffffffffffffffffffff\n      and\n      0xffffffffffffffffffffffffffffffffffffffff\n      and\n      dup2\n      mstore\n      0x20\n      add\n      swap1\n      dup2\n      mstore\n      0x20\n      add\n      0x00\n      keccak256\n        /* \"crypto-core/contracts/TimedReleaseVoting.sol\":18046:18075  holders[holderAddress].active */\n      0x03\n      add\n      0x00\n      swap1\n      sload\n      swap1\n      0x0100\n      exp\n      swap1\n      div\n      0xff\n      and\n        /* \"crypto-core/contracts/TimedReleaseVoting.sol\":18039:18075  return holders[holderAddress].active */\n      swap1\n      pop\n        /* \"crypto-core/contracts/TimedReleaseVoting.sol\":17959:18082  function isHolder(address holderAddress) external view returns (bool) {... */\n      swap2\n      swap1\n      pop\n      jump\t// out\n        /* \"crypto-core/contracts/TimedReleaseVoting.sol\":18488:18623  function getHolderRewards(address holderAddress) external view returns (uint256) {... */\n    tag_181:\n        /* \"crypto-core/contracts/TimedReleaseVoting.sol\":18560:18567  uint256 */\n      0x00\n        /* \"crypto-core/contracts/TimedReleaseVoting.sol\":18586:18593  holders */\n      0x02\n        /* \"crypto-core/contracts/TimedReleaseVoting.sol\":18586:18608  holders[holderAddress] */\n      0x00\n        /* \"crypto-core/contracts/TimedReleaseVoting.sol\":18594:18607  holderAddress */\n      dup4\n        /* \"crypto-core/contracts/TimedReleaseVoting.sol\":18586:18608  holders[holderAddress] */\n      0xffffffffffffffffffffffffffffffffffffffff\n      and\n      0xffffffffffffffffffffffffffffffffffffffff\n      and\n      dup2\n      mstore\n      0x20\n      add\n      swap1\n      dup2\n      mstore\n      0x20\n      add\n      0x00\n      keccak256\n        /* \"crypto-core/contracts/TimedReleaseVoting.sol\":18586:18616  holders[holderAddress].rewards */\n      0x04\n      add\n      sload\n        /* \"crypto-core/contracts/TimedReleaseVoting.sol\":18579:18616  return holders[holderAddress].rewards */\n      swap1\n      pop\n        /* \"crypto-core/contracts/TimedReleaseVoting.sol\":18488:18623  function getHolderRewards(address holderAddress) external view returns (uint256) {... */\n      swap2\n      swap1\n      pop\n      jump\t// out\n        /* \"crypto-core/contracts/TimedReleaseVoting.sol\":3065:3116  uint256 public constant REWARD_PER_VOTE = 0.1 ether */\n    tag_185:\n        /* \"crypto-core/contracts/TimedReleaseVoting.sol\":3107:3116  0.1 ether */\n      0x016345785d8a0000\n        /* \"crypto-core/contracts/TimedReleaseVoting.sol\":3065:3116  uint256 public constant REWARD_PER_VOTE = 0.1 ether */\n      dup2\n      jump\t// out\n        /* \"crypto-core/contracts/TimedReleaseVoting.sol\":13276:14254  function forceExitHolder(address holderAddress, uint256 voteId) external voteExists(voteId) {... */\n    tag_191:\n        /* \"crypto-core/contracts/TimedReleaseVoting.sol\":13360:13366  voteId */\n      dup1\n        /* \"crypto-core/contracts/TimedReleaseVoting.sol\":4244:4249  votes */\n      0x06\n        /* \"crypto-core/contracts/TimedReleaseVoting.sol\":4244:4257  votes[voteId] */\n      0x00\n        /* \"crypto-core/contracts/TimedReleaseVoting.sol\":4250:4256  voteId */\n      dup3\n        /* \"crypto-core/contracts/TimedReleaseVoting.sol\":4244:4257  votes[voteId] */\n      dup2\n      mstore\n      0x20\n      add\n      swap1\n      dup2\n      mstore\n      0x20\n      add\n      0x00\n      keccak256\n        /* \"crypto-core/contracts/TimedReleaseVoting.sol\":4244:4264  votes[voteId].exists */\n      0x07\n      add\n      0x00\n      swap1\n      sload\n      swap1\n      0x0100\n      exp\n      swap1\n      div\n      0xff\n      and\n        /* \"crypto-core/contracts/TimedReleaseVoting.sol\":4236:4288  require(votes[voteId].exists, \"Vote does not exist\") */\n      tag_517\n      jumpi\n      mload(0x40)\n      0x08c379a000000000000000000000000000000000000000000000000000000000\n      dup2\n      mstore\n      0x04\n      add\n      tag_518\n      swap1\n      tag_211\n      jump\t// in\n    tag_518:\n      mload(0x40)\n      dup1\n      swap2\n      sub\n      swap1\n      revert\n    tag_517:\n        /* \"crypto-core/contracts/TimedReleaseVoting.sol\":13418:13433  block.timestamp */\n      timestamp\n        /* \"crypto-core/contracts/TimedReleaseVoting.sol\":13386:13391  votes */\n      0x06\n        /* \"crypto-core/contracts/TimedReleaseVoting.sol\":13386:13399  votes[voteId] */\n      0x00\n        /* \"crypto-core/contracts/TimedReleaseVoting.sol\":13392:13398  voteId */\n      dup5\n        /* \"crypto-core/contracts/TimedReleaseVoting.sol\":13386:13399  votes[voteId] */\n      dup2\n      mstore\n      0x20\n      add\n      swap1\n      dup2\n      mstore\n      0x20\n      add\n      0x00\n      keccak256\n        /* \"crypto-core/contracts/TimedReleaseVoting.sol\":13386:13414  votes[voteId].decryptionTime */\n      0x02\n      add\n      sload\n        /* \"crypto-core/contracts/TimedReleaseVoting.sol\":13386:13433  votes[voteId].decryptionTime <= block.timestamp */\n      gt\n      iszero\n        /* \"crypto-core/contracts/TimedReleaseVoting.sol\":13378:13465  require(votes[voteId].decryptionTime <= block.timestamp, \"Decryption time not reached\") */\n      tag_520\n      jumpi\n      mload(0x40)\n      0x08c379a000000000000000000000000000000000000000000000000000000000\n      dup2\n      mstore\n      0x04\n      add\n      tag_521\n      swap1\n      tag_433\n      jump\t// in\n    tag_521:\n      mload(0x40)\n      dup1\n      swap2\n      sub\n      swap1\n      revert\n    tag_520:\n        /* \"crypto-core/contracts/TimedReleaseVoting.sol\":13483:13490  holders */\n      0x02\n        /* \"crypto-core/contracts/TimedReleaseVoting.sol\":13483:13505  holders[holderAddress] */\n      0x00\n        /* \"crypto-core/contracts/TimedReleaseVoting.sol\":13491:13504  holderAddress */\n      dup5\n        /* \"crypto-core/contracts/TimedReleaseVoting.sol\":13483:13505  holders[holderAddress] */\n      0xffffffffffffffffffffffffffffffffffffffff\n      and\n      0xffffffffffffffffffffffffffffffffffffffff\n      and\n      dup2\n      mstore\n      0x20\n      add\n      swap1\n      dup2\n      mstore\n      0x20\n      add\n      0x00\n      keccak256\n        /* \"crypto-core/contracts/TimedReleaseVoting.sol\":13483:13512  holders[holderAddress].active */\n      0x03\n      add\n      0x00\n      swap1\n      sload\n      swap1\n      0x0100\n      exp\n      swap1\n      div\n      0xff\n      and\n        /* \"crypto-core/contracts/TimedReleaseVoting.sol\":13475:13537  require(holders[holderAddress].active, \"Not an active holder\") */\n      tag_522\n      jumpi\n      mload(0x40)\n      0x08c379a000000000000000000000000000000000000000000000000000000000\n      dup2\n      mstore\n      0x04\n      add\n      tag_523\n      swap1\n      tag_403\n      jump\t// in\n    tag_523:\n      mload(0x40)\n      dup1\n      swap2\n      sub\n      swap1\n      revert\n    tag_522:\n        /* \"crypto-core/contracts/TimedReleaseVoting.sol\":13609:13626  bool hasSubmitted */\n      0x00\n        /* \"crypto-core/contracts/TimedReleaseVoting.sol\":13649:13658  uint256 i */\n      dup1\n        /* \"crypto-core/contracts/TimedReleaseVoting.sol\":13644:13865  for (uint256 i = 0; i < votes[voteId].shareSubmitters.length; i++) {... */\n    tag_524:\n        /* \"crypto-core/contracts/TimedReleaseVoting.sol\":13668:13673  votes */\n      0x06\n        /* \"crypto-core/contracts/TimedReleaseVoting.sol\":13668:13681  votes[voteId] */\n      0x00\n        /* \"crypto-core/contracts/TimedReleaseVoting.sol\":13674:13680  voteId */\n      dup6\n        /* \"crypto-core/contracts/TimedReleaseVoting.sol\":13668:13681  votes[voteId] */\n      dup2\n      mstore\n      0x20\n      add\n      swap1\n      dup2\n      mstore\n      0x20\n      add\n      0x00\n      keccak256\n        /* \"crypto-core/contracts/TimedReleaseVoting.sol\":13668:13697  votes[voteId].shareSubmitters */\n      0x06\n      add\n        /* \"crypto-core/contracts/TimedReleaseVoting.sol\":13668:13704  votes[voteId].shareSubmitters.length */\n      dup1\n      sload\n      swap1\n      pop\n        /* \"crypto-core/contracts/TimedReleaseVoting.sol\":13664:13665  i */\n      dup2\n        /* \"crypto-core/contracts/TimedReleaseVoting.sol\":13664:13704  i < votes[voteId].shareSubmitters.length */\n      lt\n        /* \"crypto-core/contracts/TimedReleaseVoting.sol\":13644:13865  for (uint256 i = 0; i < votes[voteId].shareSubmitters.length; i++) {... */\n      iszero\n      tag_525\n      jumpi\n        /* \"crypto-core/contracts/TimedReleaseVoting.sol\":13765:13778  holderAddress */\n      dup5\n        /* \"crypto-core/contracts/TimedReleaseVoting.sol\":13729:13778  votes[voteId].shareSubmitters[i] == holderAddress */\n      0xffffffffffffffffffffffffffffffffffffffff\n      and\n        /* \"crypto-core/contracts/TimedReleaseVoting.sol\":13729:13734  votes */\n      0x06\n        /* \"crypto-core/contracts/TimedReleaseVoting.sol\":13729:13742  votes[voteId] */\n      0x00\n        /* \"crypto-core/contracts/TimedReleaseVoting.sol\":13735:13741  voteId */\n      dup7\n        /* \"crypto-core/contracts/TimedReleaseVoting.sol\":13729:13742  votes[voteId] */\n      dup2\n      mstore\n      0x20\n      add\n      swap1\n      dup2\n      mstore\n      0x20\n      add\n      0x00\n      keccak256\n        /* \"crypto-core/contracts/TimedReleaseVoting.sol\":13729:13758  votes[voteId].shareSubmitters */\n      0x06\n      add\n        /* \"crypto-core/contracts/TimedReleaseVoting.sol\":13759:13760  i */\n      dup3\n        /* \"crypto-core/contracts/TimedReleaseVoting.sol\":13729:13761  votes[voteId].shareSubmitters[i] */\n      dup2\n      sload\n      dup2\n      lt\n      tag_527\n      jumpi\n      mstore(0x00, 0x4e487b7100000000000000000000000000000000000000000000000000000000)\n      mstore(0x04, 0x32)\n      revert(0x00, 0x24)\n    tag_527:\n      swap1\n      0x00\n      mstore\n      keccak256(0x00, 0x20)\n      add\n      0x00\n      swap1\n      sload\n      swap1\n      0x0100\n      exp\n      swap1\n      div\n      0xffffffffffffffffffffffffffffffffffffffff\n      and\n        /* \"crypto-core/contracts/TimedReleaseVoting.sol\":13729:13778  votes[voteId].shareSubmitters[i] == holderAddress */\n      0xffffffffffffffffffffffffffffffffffffffff\n      and\n      eq\n        /* \"crypto-core/contracts/TimedReleaseVoting.sol\":13725:13855  if (votes[voteId].shareSubmitters[i] == holderAddress) {... */\n      iszero\n      tag_529\n      jumpi\n        /* \"crypto-core/contracts/TimedReleaseVoting.sol\":13813:13817  true */\n      0x01\n        /* \"crypto-core/contracts/TimedReleaseVoting.sol\":13798:13817  hasSubmitted = true */\n      swap2\n      pop\n        /* \"crypto-core/contracts/TimedReleaseVoting.sol\":13835:13840  break */\n      jump(tag_525)\n        /* \"crypto-core/contracts/TimedReleaseVoting.sol\":13725:13855  if (votes[voteId].shareSubmitters[i] == holderAddress) {... */\n    tag_529:\n        /* \"crypto-core/contracts/TimedReleaseVoting.sol\":13706:13709  i++ */\n      dup1\n      dup1\n      tag_530\n      swap1\n      tag_205\n      jump\t// in\n    tag_530:\n      swap2\n      pop\n      pop\n        /* \"crypto-core/contracts/TimedReleaseVoting.sol\":13644:13865  for (uint256 i = 0; i < votes[voteId].shareSubmitters.length; i++) {... */\n      jump(tag_524)\n    tag_525:\n      pop\n        /* \"crypto-core/contracts/TimedReleaseVoting.sol\":13956:13968  hasSubmitted */\n      dup1\n        /* \"crypto-core/contracts/TimedReleaseVoting.sol\":13955:13968  !hasSubmitted */\n      iszero\n        /* \"crypto-core/contracts/TimedReleaseVoting.sol\":13947:14005  require(!hasSubmitted, \"Holder has submitted their share\") */\n      tag_531\n      jumpi\n      mload(0x40)\n      0x08c379a000000000000000000000000000000000000000000000000000000000\n      dup2\n      mstore\n      0x04\n      add\n      tag_532\n      swap1\n      tag_533\n      jump\t// in\n    tag_532:\n      mload(0x40)\n      dup1\n      swap2\n      sub\n      swap1\n      revert\n    tag_531:\n        /* \"crypto-core/contracts/TimedReleaseVoting.sol\":14084:14089  false */\n      0x00\n        /* \"crypto-core/contracts/TimedReleaseVoting.sol\":14052:14059  holders */\n      0x02\n        /* \"crypto-core/contracts/TimedReleaseVoting.sol\":14052:14074  holders[holderAddress] */\n      0x00\n        /* \"crypto-core/contracts/TimedReleaseVoting.sol\":14060:14073  holderAddress */\n      dup7\n        /* \"crypto-core/contracts/TimedReleaseVoting.sol\":14052:14074  holders[holderAddress] */\n      0xffffffffffffffffffffffffffffffffffffffff\n      and\n      0xffffffffffffffffffffffffffffffffffffffff\n      and\n      dup2\n      mstore\n      0x20\n      add\n      swap1\n      dup2\n      mstore\n      0x20\n      add\n      0x00\n      keccak256\n        /* \"crypto-core/contracts/TimedReleaseVoting.sol\":14052:14081  holders[holderAddress].active */\n      0x03\n      add\n      0x00\n        /* \"crypto-core/contracts/TimedReleaseVoting.sol\":14052:14089  holders[holderAddress].active = false */\n      0x0100\n      exp\n      dup2\n      sload\n      dup2\n      0xff\n      mul\n      not\n      and\n      swap1\n      dup4\n      iszero\n      iszero\n      mul\n      or\n      swap1\n      sstore\n      pop\n        /* \"crypto-core/contracts/TimedReleaseVoting.sol\":14195:14196  0 */\n      0x00\n        /* \"crypto-core/contracts/TimedReleaseVoting.sol\":14162:14169  holders */\n      0x02\n        /* \"crypto-core/contracts/TimedReleaseVoting.sol\":14162:14184  holders[holderAddress] */\n      0x00\n        /* \"crypto-core/contracts/TimedReleaseVoting.sol\":14170:14183  holderAddress */\n      dup7\n        /* \"crypto-core/contracts/TimedReleaseVoting.sol\":14162:14184  holders[holderAddress] */\n      0xffffffffffffffffffffffffffffffffffffffff\n      and\n      0xffffffffffffffffffffffffffffffffffffffff\n      and\n      dup2\n      mstore\n      0x20\n      add\n      swap1\n      dup2\n      mstore\n      0x20\n      add\n      0x00\n      keccak256\n        /* \"crypto-core/contracts/TimedReleaseVoting.sol\":14162:14192  holders[holderAddress].deposit */\n      0x02\n      add\n        /* \"crypto-core/contracts/TimedReleaseVoting.sol\":14162:14196  holders[holderAddress].deposit = 0 */\n      dup2\n      swap1\n      sstore\n      pop\n        /* \"crypto-core/contracts/TimedReleaseVoting.sol\":14233:14246  holderAddress */\n      dup4\n        /* \"crypto-core/contracts/TimedReleaseVoting.sol\":14220:14247  HolderExited(holderAddress) */\n      0xffffffffffffffffffffffffffffffffffffffff\n      and\n      0xadf7a730cb8e5f6d0d4933fcce78776b911b3d86736403569632600df0b99e61\n      mload(0x40)\n      mload(0x40)\n      dup1\n      swap2\n      sub\n      swap1\n      log2\n        /* \"crypto-core/contracts/TimedReleaseVoting.sol\":4298:4299  _ */\n      pop\n        /* \"crypto-core/contracts/TimedReleaseVoting.sol\":13276:14254  function forceExitHolder(address holderAddress, uint256 voteId) external voteExists(voteId) {... */\n      pop\n      pop\n      pop\n      jump\t// out\n        /* \"crypto-core/contracts/TimedReleaseVoting.sol\":18202:18301  function requiredDeposit() external pure returns (uint256) {... */\n    tag_194:\n        /* \"crypto-core/contracts/TimedReleaseVoting.sol\":18252:18259  uint256 */\n      0x00\n        /* \"crypto-core/contracts/TimedReleaseVoting.sol\":2917:2924  1 ether */\n      0x0de0b6b3a7640000\n        /* \"crypto-core/contracts/TimedReleaseVoting.sol\":18271:18294  return REQUIRED_DEPOSIT */\n      swap1\n      pop\n        /* \"crypto-core/contracts/TimedReleaseVoting.sol\":18202:18301  function requiredDeposit() external pure returns (uint256) {... */\n      swap1\n      jump\t// out\n        /* \"crypto-core/contracts/TimedReleaseVoting.sol\":11314:12638  function distributeRewards(uint256 voteId) internal voteExists(voteId) {... */\n    tag_442:\n        /* \"crypto-core/contracts/TimedReleaseVoting.sol\":11377:11383  voteId */\n      dup1\n        /* \"crypto-core/contracts/TimedReleaseVoting.sol\":4244:4249  votes */\n      0x06\n        /* \"crypto-core/contracts/TimedReleaseVoting.sol\":4244:4257  votes[voteId] */\n      0x00\n        /* \"crypto-core/contracts/TimedReleaseVoting.sol\":4250:4256  voteId */\n      dup3\n        /* \"crypto-core/contracts/TimedReleaseVoting.sol\":4244:4257  votes[voteId] */\n      dup2\n      mstore\n      0x20\n      add\n      swap1\n      dup2\n      mstore\n      0x20\n      add\n      0x00\n      keccak256\n        /* \"crypto-core/contracts/TimedReleaseVoting.sol\":4244:4264  votes[voteId].exists */\n      0x07\n      add\n      0x00\n      swap1\n      sload\n      swap1\n      0x0100\n      exp\n      swap1\n      div\n      0xff\n      and\n        /* \"crypto-core/contracts/TimedReleaseVoting.sol\":4236:4288  require(votes[voteId].exists, \"Vote does not exist\") */\n      tag_536\n      jumpi\n      mload(0x40)\n      0x08c379a000000000000000000000000000000000000000000000000000000000\n      dup2\n      mstore\n      0x04\n      add\n      tag_537\n      swap1\n      tag_211\n      jump\t// in\n    tag_537:\n      mload(0x40)\n      dup1\n      swap2\n      sub\n      swap1\n      revert\n    tag_536:\n        /* \"crypto-core/contracts/TimedReleaseVoting.sol\":11404:11409  votes */\n      0x06\n        /* \"crypto-core/contracts/TimedReleaseVoting.sol\":11404:11417  votes[voteId] */\n      0x00\n        /* \"crypto-core/contracts/TimedReleaseVoting.sol\":11410:11416  voteId */\n      dup4\n        /* \"crypto-core/contracts/TimedReleaseVoting.sol\":11404:11417  votes[voteId] */\n      dup2\n      mstore\n      0x20\n      add\n      swap1\n      dup2\n      mstore\n      0x20\n      add\n      0x00\n      keccak256\n        /* \"crypto-core/contracts/TimedReleaseVoting.sol\":11404:11435  votes[voteId].rewardDistributed */\n      0x09\n      add\n      0x00\n      swap1\n      sload\n      swap1\n      0x0100\n      exp\n      swap1\n      div\n      0xff\n      and\n        /* \"crypto-core/contracts/TimedReleaseVoting.sol\":11403:11435  !votes[voteId].rewardDistributed */\n      iszero\n        /* \"crypto-core/contracts/TimedReleaseVoting.sol\":11395:11467  require(!votes[voteId].rewardDistributed, \"Rewards already distributed\") */\n      tag_539\n      jumpi\n      mload(0x40)\n      0x08c379a000000000000000000000000000000000000000000000000000000000\n      dup2\n      mstore\n      0x04\n      add\n      tag_540\n      swap1\n      tag_471\n      jump\t// in\n    tag_540:\n      mload(0x40)\n      dup1\n      swap2\n      sub\n      swap1\n      revert\n    tag_539:\n        /* \"crypto-core/contracts/TimedReleaseVoting.sol\":11524:11525  0 */\n      0x00\n        /* \"crypto-core/contracts/TimedReleaseVoting.sol\":11485:11490  votes */\n      0x06\n        /* \"crypto-core/contracts/TimedReleaseVoting.sol\":11485:11498  votes[voteId] */\n      0x00\n        /* \"crypto-core/contracts/TimedReleaseVoting.sol\":11491:11497  voteId */\n      dup5\n        /* \"crypto-core/contracts/TimedReleaseVoting.sol\":11485:11498  votes[voteId] */\n      dup2\n      mstore\n      0x20\n      add\n      swap1\n      dup2\n      mstore\n      0x20\n      add\n      0x00\n      keccak256\n        /* \"crypto-core/contracts/TimedReleaseVoting.sol\":11485:11514  votes[voteId].shareSubmitters */\n      0x06\n      add\n        /* \"crypto-core/contracts/TimedReleaseVoting.sol\":11485:11521  votes[voteId].shareSubmitters.length */\n      dup1\n      sload\n      swap1\n      pop\n        /* \"crypto-core/contracts/TimedReleaseVoting.sol\":11485:11525  votes[voteId].shareSubmitters.length > 0 */\n      gt\n        /* \"crypto-core/contracts/TimedReleaseVoting.sol\":11477:11549  require(votes[voteId].shareSubmitters.length > 0, \"No shares submitted\") */\n      tag_541\n      jumpi\n      mload(0x40)\n      0x08c379a000000000000000000000000000000000000000000000000000000000\n      dup2\n      mstore\n      0x04\n      add\n      tag_542\n      swap1\n      tag_474\n      jump\t// in\n    tag_542:\n      mload(0x40)\n      dup1\n      swap2\n      sub\n      swap1\n      revert\n    tag_541:\n        /* \"crypto-core/contracts/TimedReleaseVoting.sol\":11568:11587  uint256 totalReward */\n      0x00\n        /* \"crypto-core/contracts/TimedReleaseVoting.sol\":11590:11595  votes */\n      0x06\n        /* \"crypto-core/contracts/TimedReleaseVoting.sol\":11590:11603  votes[voteId] */\n      0x00\n        /* \"crypto-core/contracts/TimedReleaseVoting.sol\":11596:11602  voteId */\n      dup5\n        /* \"crypto-core/contracts/TimedReleaseVoting.sol\":11590:11603  votes[voteId] */\n      dup2\n      mstore\n      0x20\n      add\n      swap1\n      dup2\n      mstore\n      0x20\n      add\n      0x00\n      keccak256\n        /* \"crypto-core/contracts/TimedReleaseVoting.sol\":11590:11610  votes[voteId].reward */\n      0x08\n      add\n      sload\n        /* \"crypto-core/contracts/TimedReleaseVoting.sol\":11568:11610  uint256 totalReward = votes[voteId].reward */\n      swap1\n      pop\n        /* \"crypto-core/contracts/TimedReleaseVoting.sol\":11620:11641  uint256 numRecipients */\n      0x00\n        /* \"crypto-core/contracts/TimedReleaseVoting.sol\":11644:11649  votes */\n      0x06\n        /* \"crypto-core/contracts/TimedReleaseVoting.sol\":11644:11657  votes[voteId] */\n      0x00\n        /* \"crypto-core/contracts/TimedReleaseVoting.sol\":11650:11656  voteId */\n      dup6\n        /* \"crypto-core/contracts/TimedReleaseVoting.sol\":11644:11657  votes[voteId] */\n      dup2\n      mstore\n      0x20\n      add\n      swap1\n      dup2\n      mstore\n      0x20\n      add\n      0x00\n      keccak256\n        /* \"crypto-core/contracts/TimedReleaseVoting.sol\":11644:11673  votes[voteId].shareSubmitters */\n      0x06\n      add\n        /* \"crypto-core/contracts/TimedReleaseVoting.sol\":11644:11680  votes[voteId].shareSubmitters.length */\n      dup1\n      sload\n      swap1\n      pop\n        /* \"crypto-core/contracts/TimedReleaseVoting.sol\":11620:11680  uint256 numRecipients = votes[voteId].shareSubmitters.length */\n      swap1\n      pop\n        /* \"crypto-core/contracts/TimedReleaseVoting.sol\":11788:11803  getNumHolders() */\n      tag_543\n        /* \"crypto-core/contracts/TimedReleaseVoting.sol\":11788:11801  getNumHolders */\n      tag_170\n        /* \"crypto-core/contracts/TimedReleaseVoting.sol\":11788:11803  getNumHolders() */\n      jump\t// in\n    tag_543:\n        /* \"crypto-core/contracts/TimedReleaseVoting.sol\":11771:11784  numRecipients */\n      dup2\n        /* \"crypto-core/contracts/TimedReleaseVoting.sol\":11771:11803  numRecipients == getNumHolders() */\n      eq\n        /* \"crypto-core/contracts/TimedReleaseVoting.sol\":11767:12498  if (numRecipients == getNumHolders()) {... */\n      iszero\n      tag_544\n      jumpi\n        /* \"crypto-core/contracts/TimedReleaseVoting.sol\":11819:11842  uint256 rewardPerHolder */\n      0x00\n        /* \"crypto-core/contracts/TimedReleaseVoting.sol\":11859:11872  numRecipients */\n      dup2\n        /* \"crypto-core/contracts/TimedReleaseVoting.sol\":11845:11856  totalReward */\n      dup4\n        /* \"crypto-core/contracts/TimedReleaseVoting.sol\":11845:11872  totalReward / numRecipients */\n      tag_545\n      swap2\n      swap1\n      tag_546\n      jump\t// in\n    tag_545:\n        /* \"crypto-core/contracts/TimedReleaseVoting.sol\":11819:11872  uint256 rewardPerHolder = totalReward / numRecipients */\n      swap1\n      pop\n        /* \"crypto-core/contracts/TimedReleaseVoting.sol\":11904:11913  uint256 i */\n      0x00\n        /* \"crypto-core/contracts/TimedReleaseVoting.sol\":11899:12099  for (uint256 i = 0; i < numRecipients; i++) {... */\n    tag_547:\n        /* \"crypto-core/contracts/TimedReleaseVoting.sol\":11923:11936  numRecipients */\n      dup3\n        /* \"crypto-core/contracts/TimedReleaseVoting.sol\":11919:11920  i */\n      dup2\n        /* \"crypto-core/contracts/TimedReleaseVoting.sol\":11919:11936  i < numRecipients */\n      lt\n        /* \"crypto-core/contracts/TimedReleaseVoting.sol\":11899:12099  for (uint256 i = 0; i < numRecipients; i++) {... */\n      iszero\n      tag_548\n      jumpi\n        /* \"crypto-core/contracts/TimedReleaseVoting.sol\":11961:11982  address holderAddress */\n      0x00\n        /* \"crypto-core/contracts/TimedReleaseVoting.sol\":11985:11990  votes */\n      0x06\n        /* \"crypto-core/contracts/TimedReleaseVoting.sol\":11985:11998  votes[voteId] */\n      0x00\n        /* \"crypto-core/contracts/TimedReleaseVoting.sol\":11991:11997  voteId */\n      dup9\n        /* \"crypto-core/contracts/TimedReleaseVoting.sol\":11985:11998  votes[voteId] */\n      dup2\n      mstore\n      0x20\n      add\n      swap1\n      dup2\n      mstore\n      0x20\n      add\n      0x00\n      keccak256\n        /* \"crypto-core/contracts/TimedReleaseVoting.sol\":11985:12014  votes[voteId].shareSubmitters */\n      0x06\n      add\n        /* \"crypto-core/contracts/TimedReleaseVoting.sol\":12015:12016  i */\n      dup3\n        /* \"crypto-core/contracts/TimedReleaseVoting.sol\":11985:12017  votes[voteId].shareSubmitters[i] */\n      dup2\n      sload\n      dup2\n      lt\n      tag_550\n      jumpi\n      mstore(0x00, 0x4e487b7100000000000000000000000000000000000000000000000000000000)\n      mstore(0x04, 0x32)\n      revert(0x00, 0x24)\n    tag_550:\n      swap1\n      0x00\n      mstore\n      keccak256(0x00, 0x20)\n      add\n      0x00\n      swap1\n      sload\n      swap1\n      0x0100\n      exp\n      swap1\n      div\n      0xffffffffffffffffffffffffffffffffffffffff\n      and\n        /* \"crypto-core/contracts/TimedReleaseVoting.sol\":11961:12017  address holderAddress = votes[voteId].shareSubmitters[i] */\n      swap1\n      pop\n        /* \"crypto-core/contracts/TimedReleaseVoting.sol\":12069:12084  rewardPerHolder */\n      dup3\n        /* \"crypto-core/contracts/TimedReleaseVoting.sol\":12035:12042  holders */\n      0x02\n        /* \"crypto-core/contracts/TimedReleaseVoting.sol\":12035:12057  holders[holderAddress] */\n      0x00\n        /* \"crypto-core/contracts/TimedReleaseVoting.sol\":12043:12056  holderAddress */\n      dup4\n        /* \"crypto-core/contracts/TimedReleaseVoting.sol\":12035:12057  holders[holderAddress] */\n      0xffffffffffffffffffffffffffffffffffffffff\n      and\n      0xffffffffffffffffffffffffffffffffffffffff\n      and\n      dup2\n      mstore\n      0x20\n      add\n      swap1\n      dup2\n      mstore\n      0x20\n      add\n      0x00\n      keccak256\n        /* \"crypto-core/contracts/TimedReleaseVoting.sol\":12035:12065  holders[holderAddress].rewards */\n      0x04\n      add\n      0x00\n        /* \"crypto-core/contracts/TimedReleaseVoting.sol\":12035:12084  holders[holderAddress].rewards += rewardPerHolder */\n      dup3\n      dup3\n      sload\n      tag_552\n      swap2\n      swap1\n      tag_465\n      jump\t// in\n    tag_552:\n      swap3\n      pop\n      pop\n      dup2\n      swap1\n      sstore\n      pop\n        /* \"crypto-core/contracts/TimedReleaseVoting.sol\":11899:12099  for (uint256 i = 0; i < numRecipients; i++) {... */\n      pop\n        /* \"crypto-core/contracts/TimedReleaseVoting.sol\":11938:11941  i++ */\n      dup1\n      dup1\n      tag_553\n      swap1\n      tag_205\n      jump\t// in\n    tag_553:\n      swap2\n      pop\n      pop\n        /* \"crypto-core/contracts/TimedReleaseVoting.sol\":11899:12099  for (uint256 i = 0; i < numRecipients; i++) {... */\n      jump(tag_547)\n    tag_548:\n      pop\n        /* \"crypto-core/contracts/TimedReleaseVoting.sol\":11767:12498  if (numRecipients == getNumHolders()) {... */\n      pop\n      jump(tag_554)\n    tag_544:\n        /* \"crypto-core/contracts/TimedReleaseVoting.sol\":12208:12231  uint256 rewardPerHolder */\n      0x00\n        /* \"crypto-core/contracts/TimedReleaseVoting.sol\":12248:12261  numRecipients */\n      dup2\n        /* \"crypto-core/contracts/TimedReleaseVoting.sol\":12234:12245  totalReward */\n      dup4\n        /* \"crypto-core/contracts/TimedReleaseVoting.sol\":12234:12261  totalReward / numRecipients */\n      tag_555\n      swap2\n      swap1\n      tag_546\n      jump\t// in\n    tag_555:\n        /* \"crypto-core/contracts/TimedReleaseVoting.sol\":12208:12261  uint256 rewardPerHolder = totalReward / numRecipients */\n      swap1\n      pop\n        /* \"crypto-core/contracts/TimedReleaseVoting.sol\":12293:12302  uint256 i */\n      0x00\n        /* \"crypto-core/contracts/TimedReleaseVoting.sol\":12288:12488  for (uint256 i = 0; i < numRecipients; i++) {... */\n    tag_556:\n        /* \"crypto-core/contracts/TimedReleaseVoting.sol\":12312:12325  numRecipients */\n      dup3\n        /* \"crypto-core/contracts/TimedReleaseVoting.sol\":12308:12309  i */\n      dup2\n        /* \"crypto-core/contracts/TimedReleaseVoting.sol\":12308:12325  i < numRecipients */\n      lt\n        /* \"crypto-core/contracts/TimedReleaseVoting.sol\":12288:12488  for (uint256 i = 0; i < numRecipients; i++) {... */\n      iszero\n      tag_557\n      jumpi\n        /* \"crypto-core/contracts/TimedReleaseVoting.sol\":12350:12371  address holderAddress */\n      0x00\n        /* \"crypto-core/contracts/TimedReleaseVoting.sol\":12374:12379  votes */\n      0x06\n        /* \"crypto-core/contracts/TimedReleaseVoting.sol\":12374:12387  votes[voteId] */\n      0x00\n        /* \"crypto-core/contracts/TimedReleaseVoting.sol\":12380:12386  voteId */\n      dup9\n        /* \"crypto-core/contracts/TimedReleaseVoting.sol\":12374:12387  votes[voteId] */\n      dup2\n      mstore\n      0x20\n      add\n      swap1\n      dup2\n      mstore\n      0x20\n      add\n      0x00\n      keccak256\n        /* \"crypto-core/contracts/TimedReleaseVoting.sol\":12374:12403  votes[voteId].shareSubmitters */\n      0x06\n      add\n        /* \"crypto-core/contracts/TimedReleaseVoting.sol\":12404:12405  i */\n      dup3\n        /* \"crypto-core/contracts/TimedReleaseVoting.sol\":12374:12406  votes[voteId].shareSubmitters[i] */\n      dup2\n      sload\n      dup2\n      lt\n      tag_559\n      jumpi\n      mstore(0x00, 0x4e487b7100000000000000000000000000000000000000000000000000000000)\n      mstore(0x04, 0x32)\n      revert(0x00, 0x24)\n    tag_559:\n      swap1\n      0x00\n      mstore\n      keccak256(0x00, 0x20)\n      add\n      0x00\n      swap1\n      sload\n      swap1\n      0x0100\n      exp\n      swap1\n      div\n      0xffffffffffffffffffffffffffffffffffffffff\n      and\n        /* \"crypto-core/contracts/TimedReleaseVoting.sol\":12350:12406  address holderAddress = votes[voteId].shareSubmitters[i] */\n      swap1\n      pop\n        /* \"crypto-core/contracts/TimedReleaseVoting.sol\":12458:12473  rewardPerHolder */\n      dup3\n        /* \"crypto-core/contracts/TimedReleaseVoting.sol\":12424:12431  holders */\n      0x02\n        /* \"crypto-core/contracts/TimedReleaseVoting.sol\":12424:12446  holders[holderAddress] */\n      0x00\n        /* \"crypto-core/contracts/TimedReleaseVoting.sol\":12432:12445  holderAddress */\n      dup4\n        /* \"crypto-core/contracts/TimedReleaseVoting.sol\":12424:12446  holders[holderAddress] */\n      0xffffffffffffffffffffffffffffffffffffffff\n      and\n      0xffffffffffffffffffffffffffffffffffffffff\n      and\n      dup2\n      mstore\n      0x20\n      add\n      swap1\n      dup2\n      mstore\n      0x20\n      add\n      0x00\n      keccak256\n        /* \"crypto-core/contracts/TimedReleaseVoting.sol\":12424:12454  holders[holderAddress].rewards */\n      0x04\n      add\n      0x00\n        /* \"crypto-core/contracts/TimedReleaseVoting.sol\":12424:12473  holders[holderAddress].rewards += rewardPerHolder */\n      dup3\n      dup3\n      sload\n      tag_561\n      swap2\n      swap1\n      tag_465\n      jump\t// in\n    tag_561:\n      swap3\n      pop\n      pop\n      dup2\n      swap1\n      sstore\n      pop\n        /* \"crypto-core/contracts/TimedReleaseVoting.sol\":12288:12488  for (uint256 i = 0; i < numRecipients; i++) {... */\n      pop\n        /* \"crypto-core/contracts/TimedReleaseVoting.sol\":12327:12330  i++ */\n      dup1\n      dup1\n      tag_562\n      swap1\n      tag_205\n      jump\t// in\n    tag_562:\n      swap2\n      pop\n      pop\n        /* \"crypto-core/contracts/TimedReleaseVoting.sol\":12288:12488  for (uint256 i = 0; i < numRecipients; i++) {... */\n      jump(tag_556)\n    tag_557:\n      pop\n        /* \"crypto-core/contracts/TimedReleaseVoting.sol\":11767:12498  if (numRecipients == getNumHolders()) {... */\n      pop\n    tag_554:\n        /* \"crypto-core/contracts/TimedReleaseVoting.sol\":12550:12554  true */\n      0x01\n        /* \"crypto-core/contracts/TimedReleaseVoting.sol\":12516:12521  votes */\n      0x06\n        /* \"crypto-core/contracts/TimedReleaseVoting.sol\":12516:12529  votes[voteId] */\n      0x00\n        /* \"crypto-core/contracts/TimedReleaseVoting.sol\":12522:12528  voteId */\n      dup7\n        /* \"crypto-core/contracts/TimedReleaseVoting.sol\":12516:12529  votes[voteId] */\n      dup2\n      mstore\n      0x20\n      add\n      swap1\n      dup2\n      mstore\n      0x20\n      add\n      0x00\n      keccak256\n        /* \"crypto-core/contracts/TimedReleaseVoting.sol\":12516:12547  votes[voteId].rewardDistributed */\n      0x09\n      add\n      0x00\n        /* \"crypto-core/contracts/TimedReleaseVoting.sol\":12516:12554  votes[voteId].rewardDistributed = true */\n      0x0100\n      exp\n      dup2\n      sload\n      dup2\n      0xff\n      mul\n      not\n      and\n      swap1\n      dup4\n      iszero\n      iszero\n      mul\n      or\n      swap1\n      sstore\n      pop\n        /* \"crypto-core/contracts/TimedReleaseVoting.sol\":12596:12602  voteId */\n      dup4\n        /* \"crypto-core/contracts/TimedReleaseVoting.sol\":12578:12631  RewardDistributed(voteId, totalReward, numRecipients) */\n      0xda04004d58812f3e164f58e498158acca1b0054d975fce0e3bafdf56f2e254ba\n        /* \"crypto-core/contracts/TimedReleaseVoting.sol\":12604:12615  totalReward */\n      dup4\n        /* \"crypto-core/contracts/TimedReleaseVoting.sol\":12617:12630  numRecipients */\n      dup4\n        /* \"crypto-core/contracts/TimedReleaseVoting.sol\":12578:12631  RewardDistributed(voteId, totalReward, numRecipients) */\n      mload(0x40)\n      tag_563\n      swap3\n      swap2\n      swap1\n      tag_239\n      jump\t// in\n    tag_563:\n      mload(0x40)\n      dup1\n      swap2\n      sub\n      swap1\n      log2\n        /* \"crypto-core/contracts/TimedReleaseVoting.sol\":4298:4299  _ */\n      pop\n      pop\n        /* \"crypto-core/contracts/TimedReleaseVoting.sol\":11314:12638  function distributeRewards(uint256 voteId) internal voteExists(voteId) {... */\n      pop\n      pop\n      jump\t// out\n    tag_198:\n      dup3\n      dup1\n      sload\n      tag_564\n      swap1\n      tag_241\n      jump\t// in\n    tag_564:\n      swap1\n      0x00\n      mstore\n      keccak256(0x00, 0x20)\n      swap1\n      0x1f\n      add\n      0x20\n      swap1\n      div\n      dup2\n      add\n      swap3\n      dup3\n      tag_566\n      jumpi\n      0x00\n      dup6\n      sstore\n      jump(tag_565)\n    tag_566:\n      dup3\n      0x1f\n      lt\n      tag_567\n      jumpi\n      dup1\n      mload\n      not(0xff)\n      and\n      dup4\n      dup1\n      add\n      or\n      dup6\n      sstore\n      jump(tag_565)\n    tag_567:\n      dup3\n      dup1\n      add\n      0x01\n      add\n      dup6\n      sstore\n      dup3\n      iszero\n      tag_565\n      jumpi\n      swap2\n      dup3\n      add\n    tag_568:\n      dup3\n      dup2\n      gt\n      iszero\n      tag_569\n      jumpi\n      dup3\n      mload\n      dup3\n      sstore\n      swap2\n      0x20\n      add\n      swap2\n      swap1\n      0x01\n      add\n      swap1\n      jump(tag_568)\n    tag_569:\n    tag_565:\n      pop\n      swap1\n      pop\n      tag_570\n      swap2\n      swap1\n      tag_571\n      jump\t// in\n    tag_570:\n      pop\n      swap1\n      jump\t// out\n    tag_201:\n      dup3\n      dup1\n      sload\n      dup3\n      dup3\n      sstore\n      swap1\n      0x00\n      mstore\n      keccak256(0x00, 0x20)\n      swap1\n      dup2\n      add\n      swap3\n      dup3\n      iszero\n      tag_572\n      jumpi\n      swap2\n      0x20\n      mul\n      dup3\n      add\n    tag_573:\n      dup3\n      dup2\n      gt\n      iszero\n      tag_574\n      jumpi\n      dup3\n      mload\n      dup3\n      swap1\n      dup1\n      mload\n      swap1\n      0x20\n      add\n      swap1\n      tag_575\n      swap3\n      swap2\n      swap1\n      tag_198\n      jump\t// in\n    tag_575:\n      pop\n      swap2\n      0x20\n      add\n      swap2\n      swap1\n      0x01\n      add\n      swap1\n      jump(tag_573)\n    tag_574:\n    tag_572:\n      pop\n      swap1\n      pop\n      tag_576\n      swap2\n      swap1\n      tag_577\n      jump\t// in\n    tag_576:\n      pop\n      swap1\n      jump\t// out\n    tag_232:\n      dup3\n      dup1\n      sload\n      tag_578\n      swap1\n      tag_241\n      jump\t// in\n    tag_578:\n      swap1\n      0x00\n      mstore\n      keccak256(0x00, 0x20)\n      swap1\n      0x1f\n      add\n      0x20\n      swap1\n      div\n      dup2\n      add\n      swap3\n      dup3\n      tag_580\n      jumpi\n      0x00\n      dup6\n      sstore\n      jump(tag_579)\n    tag_580:\n      dup3\n      0x1f\n      lt\n      tag_581\n      jumpi\n      dup1\n      calldataload\n      not(0xff)\n      and\n      dup4\n      dup1\n      add\n      or\n      dup6\n      sstore\n      jump(tag_579)\n    tag_581:\n      dup3\n      dup1\n      add\n      0x01\n      add\n      dup6\n      sstore\n      dup3\n      iszero\n      tag_579\n      jumpi\n      swap2\n      dup3\n      add\n    tag_582:\n      dup3\n      dup2\n      gt\n      iszero\n      tag_583\n      jumpi\n      dup3\n      calldataload\n      dup3\n      sstore\n      swap2\n      0x20\n      add\n      swap2\n      swap1\n      0x01\n      add\n      swap1\n      jump(tag_582)\n    tag_583:\n    tag_579:\n      pop\n      swap1\n      pop\n      tag_584\n      swap2\n      swap1\n      tag_571\n      jump\t// in\n    tag_584:\n      pop\n      swap1\n      jump\t// out\n    tag_235:\n      dup3\n      0x02\n      dup2\n      add\n      swap3\n      dup3\n      iszero\n      tag_585\n      jumpi\n      swap2\n      0x20\n      mul\n      dup3\n      add\n    tag_586:\n      dup3\n      dup2\n      gt\n      iszero\n      tag_587\n      jumpi\n      dup3\n      calldataload\n      dup3\n      sstore\n      swap2\n      0x20\n      add\n      swap2\n      swap1\n      0x01\n      add\n      swap1\n      jump(tag_586)\n    tag_587:\n    tag_585:\n      pop\n      swap1\n      pop\n      tag_588\n      swap2\n      swap1\n      tag_571\n      jump\t// in\n    tag_588:\n      pop\n      swap1\n      jump\t// out\n    tag_275:\n      dup3\n      dup1\n      sload\n      tag_589\n      swap1\n      tag_241\n      jump\t// in\n    tag_589:\n      swap1\n      0x00\n      mstore\n      keccak256(0x00, 0x20)\n      swap1\n      0x1f\n      add\n      0x20\n      swap1\n      div\n      dup2\n      add\n      swap3\n      dup3\n      tag_591\n      jumpi\n      0x00\n      dup6\n      sstore\n      jump(tag_590)\n    tag_591:\n      dup3\n      0x1f\n      lt\n      tag_592\n      jumpi\n      dup1\n      sload\n      dup6\n      sstore\n      jump(tag_590)\n    tag_592:\n      dup3\n      dup1\n      add\n      0x01\n      add\n      dup6\n      sstore\n      dup3\n      iszero\n      tag_590\n      jumpi\n      0x00\n      mstore\n      keccak256(0x00, 0x20)\n      swap2\n      0x1f\n      add\n      0x20\n      swap1\n      div\n      dup3\n      add\n    tag_593:\n      dup3\n      dup2\n      gt\n      iszero\n      tag_594\n      jumpi\n      dup3\n      sload\n      dup3\n      sstore\n      swap2\n      0x01\n      add\n      swap2\n      swap1\n      0x01\n      add\n      swap1\n      jump(tag_593)\n    tag_594:\n    tag_590:\n      pop\n      swap1\n      pop\n      tag_595\n      swap2\n      swap1\n      tag_571\n      jump\t// in\n    tag_595:\n      pop\n      swap1\n      jump\t// out\n    tag_330:\n      mload(0x40)\n      dup1\n      0x40\n      add\n      0x40\n      mstore\n      dup1\n      0x02\n      swap1\n      0x20\n      dup3\n      mul\n      dup1\n      calldatasize\n      dup4\n      calldatacopy\n      dup1\n      dup3\n      add\n      swap2\n      pop\n      pop\n      swap1\n      pop\n      pop\n      swap1\n      jump\t// out\n    tag_369:\n      dup3\n      dup1\n      sload\n      tag_596\n      swap1\n      tag_241\n      jump\t// in\n    tag_596:\n      swap1\n      0x00\n      mstore\n      keccak256(0x00, 0x20)\n      swap1\n      0x1f\n      add\n      0x20\n      swap1\n      div\n      dup2\n      add\n      swap3\n      dup3\n      tag_598\n      jumpi\n      0x00\n      dup6\n      sstore\n      jump(tag_597)\n    tag_598:\n      dup3\n      0x1f\n      lt\n      tag_599\n      jumpi\n      dup1\n      mload\n      not(0xff)\n      and\n      dup4\n      dup1\n      add\n      or\n      dup6\n      sstore\n      jump(tag_597)\n    tag_599:\n      dup3\n      dup1\n      add\n      0x01\n      add\n      dup6\n      sstore\n      dup3\n      iszero\n      tag_597\n      jumpi\n      swap2\n      dup3\n      add\n    tag_600:\n      dup3\n      dup2\n      gt\n      iszero\n      tag_601\n      jumpi\n      dup3\n      mload\n      dup3\n      sstore\n      swap2\n      0x20\n      add\n      swap2\n      swap1\n      0x01\n      add\n      swap1\n      jump(tag_600)\n    tag_601:\n    tag_597:\n      pop\n      swap1\n      pop\n      tag_602\n      swap2\n      swap1\n      tag_571\n      jump\t// in\n    tag_602:\n      pop\n      swap1\n      jump\t// out\n    tag_436:\n      dup3\n      0x02\n      dup2\n      add\n      swap3\n      dup3\n      iszero\n      tag_603\n      jumpi\n      swap2\n      0x20\n      mul\n      dup3\n      add\n    tag_604:\n      dup3\n      dup2\n      gt\n      iszero\n      tag_605\n      jumpi\n      dup3\n      mload\n      dup3\n      sstore\n      swap2\n      0x20\n      add\n      swap2\n      swap1\n      0x01\n      add\n      swap1\n      jump(tag_604)\n    tag_605:\n    tag_603:\n      pop\n      swap1\n      pop\n      tag_606\n      swap2\n      swap1\n      tag_571\n      jump\t// in\n    tag_606:\n      pop\n      swap1\n      jump\t// out\n    tag_571:\n    tag_607:\n      dup1\n      dup3\n      gt\n      iszero\n      tag_608\n      jumpi\n      0x00\n      dup2\n      0x00\n      swap1\n      sstore\n      pop\n      0x01\n      add\n      jump(tag_607)\n    tag_608:\n      pop\n      swap1\n      jump\t// out\n    tag_577:\n    tag_609:\n      dup1\n      dup3\n      gt\n      iszero\n      tag_610\n      jumpi\n      0x00\n      dup2\n      dup2\n      tag_611\n      swap2\n      swap1\n      tag_612\n      jump\t// in\n    tag_611:\n      pop\n      0x01\n      add\n      jump(tag_609)\n    tag_610:\n      pop\n      swap1\n      jump\t// out\n    tag_612:\n      pop\n      dup1\n      sload\n      tag_613\n      swap1\n      tag_241\n      jump\t// in\n    tag_613:\n      0x00\n      dup3\n      sstore\n      dup1\n      0x1f\n      lt\n      tag_615\n      jumpi\n      pop\n      jump(tag_614)\n    tag_615:\n      0x1f\n      add\n      0x20\n      swap1\n      div\n      swap1\n      0x00\n      mstore\n      keccak256(0x00, 0x20)\n      swap1\n      dup2\n      add\n      swap1\n      tag_616\n      swap2\n      swap1\n      tag_571\n      jump\t// in\n    tag_616:\n    tag_614:\n      pop\n      jump\t// out\n        /* \"#utility.yul\":23:638   */\n    tag_618:\n      0x00\n        /* \"#utility.yul\":154:244   */\n      tag_620\n        /* \"#utility.yul\":169:243   */\n      tag_621\n        /* \"#utility.yul\":236:242   */\n      dup5\n        /* \"#utility.yul\":169:243   */\n      tag_622\n      jump\t// in\n    tag_621:\n        /* \"#utility.yul\":154:244   */\n      tag_623\n      jump\t// in\n    tag_620:\n        /* \"#utility.yul\":145:244   */\n      swap1\n      pop\n        /* \"#utility.yul\":264:269   */\n      dup1\n        /* \"#utility.yul\":292:298   */\n      dup4\n        /* \"#utility.yul\":285:290   */\n      dup3\n        /* \"#utility.yul\":278:299   */\n      mstore\n        /* \"#utility.yul\":318:322   */\n      0x20\n        /* \"#utility.yul\":311:316   */\n      dup3\n        /* \"#utility.yul\":307:323   */\n      add\n        /* \"#utility.yul\":300:323   */\n      swap1\n      pop\n        /* \"#utility.yul\":343:349   */\n      dup3\n        /* \"#utility.yul\":374:375   */\n      0x00\n        /* \"#utility.yul\":359:632   */\n    tag_624:\n        /* \"#utility.yul\":384:390   */\n      dup6\n        /* \"#utility.yul\":381:382   */\n      dup2\n        /* \"#utility.yul\":378:391   */\n      lt\n        /* \"#utility.yul\":359:632   */\n      iszero\n      tag_626\n      jumpi\n        /* \"#utility.yul\":476:479   */\n      dup2\n        /* \"#utility.yul\":463:480   */\n      calldataload\n        /* \"#utility.yul\":455:461   */\n      dup6\n        /* \"#utility.yul\":451:481   */\n      add\n        /* \"#utility.yul\":506:553   */\n      tag_627\n        /* \"#utility.yul\":549:552   */\n      dup9\n        /* \"#utility.yul\":537:547   */\n      dup3\n        /* \"#utility.yul\":506:553   */\n      tag_628\n      jump\t// in\n    tag_627:\n        /* \"#utility.yul\":501:504   */\n      dup5\n        /* \"#utility.yul\":494:554   */\n      mstore\n        /* \"#utility.yul\":583:587   */\n      0x20\n        /* \"#utility.yul\":578:581   */\n      dup5\n        /* \"#utility.yul\":574:588   */\n      add\n        /* \"#utility.yul\":567:588   */\n      swap4\n      pop\n        /* \"#utility.yul\":617:621   */\n      0x20\n        /* \"#utility.yul\":612:615   */\n      dup4\n        /* \"#utility.yul\":608:622   */\n      add\n        /* \"#utility.yul\":601:622   */\n      swap3\n      pop\n        /* \"#utility.yul\":419:632   */\n      pop\n        /* \"#utility.yul\":406:407   */\n      0x01\n        /* \"#utility.yul\":403:404   */\n      dup2\n        /* \"#utility.yul\":399:408   */\n      add\n        /* \"#utility.yul\":394:408   */\n      swap1\n      pop\n        /* \"#utility.yul\":359:632   */\n      jump(tag_624)\n    tag_626:\n        /* \"#utility.yul\":363:377   */\n      pop\n        /* \"#utility.yul\":135:638   */\n      pop\n      pop\n      swap4\n      swap3\n      pop\n      pop\n      pop\n      jump\t// out\n        /* \"#utility.yul\":644:986   */\n    tag_629:\n      0x00\n        /* \"#utility.yul\":746:810   */\n      tag_631\n        /* \"#utility.yul\":761:809   */\n      tag_632\n        /* \"#utility.yul\":802:808   */\n      dup5\n        /* \"#utility.yul\":761:809   */\n      tag_633\n      jump\t// in\n    tag_632:\n        /* \"#utility.yul\":746:810   */\n      tag_623\n      jump\t// in\n    tag_631:\n        /* \"#utility.yul\":737:810   */\n      swap1\n      pop\n        /* \"#utility.yul\":833:839   */\n      dup3\n        /* \"#utility.yul\":826:831   */\n      dup2\n        /* \"#utility.yul\":819:840   */\n      mstore\n        /* \"#utility.yul\":871:875   */\n      0x20\n        /* \"#utility.yul\":864:869   */\n      dup2\n        /* \"#utility.yul\":860:876   */\n      add\n        /* \"#utility.yul\":909:912   */\n      dup5\n        /* \"#utility.yul\":900:906   */\n      dup5\n        /* \"#utility.yul\":895:898   */\n      dup5\n        /* \"#utility.yul\":891:907   */\n      add\n        /* \"#utility.yul\":888:913   */\n      gt\n        /* \"#utility.yul\":885:887   */\n      iszero\n      tag_634\n      jumpi\n        /* \"#utility.yul\":926:927   */\n      0x00\n        /* \"#utility.yul\":923:924   */\n      dup1\n        /* \"#utility.yul\":916:928   */\n      revert\n        /* \"#utility.yul\":885:887   */\n    tag_634:\n        /* \"#utility.yul\":939:980   */\n      tag_635\n        /* \"#utility.yul\":973:979   */\n      dup5\n        /* \"#utility.yul\":968:971   */\n      dup3\n        /* \"#utility.yul\":963:966   */\n      dup6\n        /* \"#utility.yul\":939:980   */\n      tag_636\n      jump\t// in\n    tag_635:\n        /* \"#utility.yul\":727:986   */\n      pop\n      swap4\n      swap3\n      pop\n      pop\n      pop\n      jump\t// out\n        /* \"#utility.yul\":992:1336   */\n    tag_637:\n      0x00\n        /* \"#utility.yul\":1095:1160   */\n      tag_639\n        /* \"#utility.yul\":1110:1159   */\n      tag_640\n        /* \"#utility.yul\":1152:1158   */\n      dup5\n        /* \"#utility.yul\":1110:1159   */\n      tag_641\n      jump\t// in\n    tag_640:\n        /* \"#utility.yul\":1095:1160   */\n      tag_623\n      jump\t// in\n    tag_639:\n        /* \"#utility.yul\":1086:1160   */\n      swap1\n      pop\n        /* \"#utility.yul\":1183:1189   */\n      dup3\n        /* \"#utility.yul\":1176:1181   */\n      dup2\n        /* \"#utility.yul\":1169:1190   */\n      mstore\n        /* \"#utility.yul\":1221:1225   */\n      0x20\n        /* \"#utility.yul\":1214:1219   */\n      dup2\n        /* \"#utility.yul\":1210:1226   */\n      add\n        /* \"#utility.yul\":1259:1262   */\n      dup5\n        /* \"#utility.yul\":1250:1256   */\n      dup5\n        /* \"#utility.yul\":1245:1248   */\n      dup5\n        /* \"#utility.yul\":1241:1257   */\n      add\n        /* \"#utility.yul\":1238:1263   */\n      gt\n        /* \"#utility.yul\":1235:1237   */\n      iszero\n      tag_642\n      jumpi\n        /* \"#utility.yul\":1276:1277   */\n      0x00\n        /* \"#utility.yul\":1273:1274   */\n      dup1\n        /* \"#utility.yul\":1266:1278   */\n      revert\n        /* \"#utility.yul\":1235:1237   */\n    tag_642:\n        /* \"#utility.yul\":1289:1330   */\n      tag_643\n        /* \"#utility.yul\":1323:1329   */\n      dup5\n        /* \"#utility.yul\":1318:1321   */\n      dup3\n        /* \"#utility.yul\":1313:1316   */\n      dup6\n        /* \"#utility.yul\":1289:1330   */\n      tag_636\n      jump\t// in\n    tag_643:\n        /* \"#utility.yul\":1076:1336   */\n      pop\n      swap4\n      swap3\n      pop\n      pop\n      pop\n      jump\t// out\n        /* \"#utility.yul\":1342:1481   */\n    tag_644:\n      0x00\n        /* \"#utility.yul\":1426:1432   */\n      dup2\n        /* \"#utility.yul\":1413:1433   */\n      calldataload\n        /* \"#utility.yul\":1404:1433   */\n      swap1\n      pop\n        /* \"#utility.yul\":1442:1475   */\n      tag_646\n        /* \"#utility.yul\":1469:1474   */\n      dup2\n        /* \"#utility.yul\":1442:1475   */\n      tag_647\n      jump\t// in\n    tag_646:\n        /* \"#utility.yul\":1394:1481   */\n      swap3\n      swap2\n      pop\n      pop\n      jump\t// out\n        /* \"#utility.yul\":1503:1826   */\n    tag_648:\n      0x00\n        /* \"#utility.yul\":1633:1636   */\n      dup3\n        /* \"#utility.yul\":1626:1630   */\n      0x1f\n        /* \"#utility.yul\":1618:1624   */\n      dup4\n        /* \"#utility.yul\":1614:1631   */\n      add\n        /* \"#utility.yul\":1610:1637   */\n      slt\n        /* \"#utility.yul\":1600:1602   */\n      tag_650\n      jumpi\n        /* \"#utility.yul\":1651:1652   */\n      0x00\n        /* \"#utility.yul\":1648:1649   */\n      dup1\n        /* \"#utility.yul\":1641:1653   */\n      revert\n        /* \"#utility.yul\":1600:1602   */\n    tag_650:\n        /* \"#utility.yul\":1691:1697   */\n      dup2\n        /* \"#utility.yul\":1678:1698   */\n      calldataload\n        /* \"#utility.yul\":1716:1820   */\n      tag_651\n        /* \"#utility.yul\":1816:1819   */\n      dup5\n        /* \"#utility.yul\":1808:1814   */\n      dup3\n        /* \"#utility.yul\":1801:1805   */\n      0x20\n        /* \"#utility.yul\":1793:1799   */\n      dup7\n        /* \"#utility.yul\":1789:1806   */\n      add\n        /* \"#utility.yul\":1716:1820   */\n      tag_618\n      jump\t// in\n    tag_651:\n        /* \"#utility.yul\":1707:1820   */\n      swap2\n      pop\n        /* \"#utility.yul\":1590:1826   */\n      pop\n      swap3\n      swap2\n      pop\n      pop\n      jump\t// out\n        /* \"#utility.yul\":1850:2032   */\n    tag_652:\n      0x00\n        /* \"#utility.yul\":1952:1958   */\n      dup2\n        /* \"#utility.yul\":1940:1958   */\n      swap1\n      pop\n        /* \"#utility.yul\":2005:2008   */\n      dup3\n        /* \"#utility.yul\":1997:2001   */\n      0x20\n        /* \"#utility.yul\":1991:1995   */\n      0x02\n        /* \"#utility.yul\":1987:2002   */\n      mul\n        /* \"#utility.yul\":1977:1985   */\n      dup3\n        /* \"#utility.yul\":1973:2003   */\n      add\n        /* \"#utility.yul\":1970:2009   */\n      gt\n        /* \"#utility.yul\":1967:1969   */\n      iszero\n      tag_654\n      jumpi\n        /* \"#utility.yul\":2022:2023   */\n      0x00\n        /* \"#utility.yul\":2019:2020   */\n      dup1\n        /* \"#utility.yul\":2012:2024   */\n      revert\n        /* \"#utility.yul\":1967:1969   */\n    tag_654:\n        /* \"#utility.yul\":1930:2032   */\n      swap3\n      swap2\n      pop\n      pop\n      jump\t// out\n        /* \"#utility.yul\":2051:2402   */\n    tag_655:\n      0x00\n      dup1\n        /* \"#utility.yul\":2168:2171   */\n      dup4\n        /* \"#utility.yul\":2161:2165   */\n      0x1f\n        /* \"#utility.yul\":2153:2159   */\n      dup5\n        /* \"#utility.yul\":2149:2166   */\n      add\n        /* \"#utility.yul\":2145:2172   */\n      slt\n        /* \"#utility.yul\":2135:2137   */\n      tag_657\n      jumpi\n        /* \"#utility.yul\":2186:2187   */\n      0x00\n        /* \"#utility.yul\":2183:2184   */\n      dup1\n        /* \"#utility.yul\":2176:2188   */\n      revert\n        /* \"#utility.yul\":2135:2137   */\n    tag_657:\n        /* \"#utility.yul\":2222:2228   */\n      dup3\n        /* \"#utility.yul\":2209:2229   */\n      calldataload\n        /* \"#utility.yul\":2199:2229   */\n      swap1\n      pop\n        /* \"#utility.yul\":2252:2270   */\n      0xffffffffffffffff\n        /* \"#utility.yul\":2244:2250   */\n      dup2\n        /* \"#utility.yul\":2241:2271   */\n      gt\n        /* \"#utility.yul\":2238:2240   */\n      iszero\n      tag_658\n      jumpi\n        /* \"#utility.yul\":2284:2285   */\n      0x00\n        /* \"#utility.yul\":2281:2282   */\n      dup1\n        /* \"#utility.yul\":2274:2286   */\n      revert\n        /* \"#utility.yul\":2238:2240   */\n    tag_658:\n        /* \"#utility.yul\":2321:2325   */\n      0x20\n        /* \"#utility.yul\":2313:2319   */\n      dup4\n        /* \"#utility.yul\":2309:2326   */\n      add\n        /* \"#utility.yul\":2297:2326   */\n      swap2\n      pop\n        /* \"#utility.yul\":2375:2378   */\n      dup4\n        /* \"#utility.yul\":2367:2371   */\n      0x01\n        /* \"#utility.yul\":2359:2365   */\n      dup3\n        /* \"#utility.yul\":2355:2372   */\n      mul\n        /* \"#utility.yul\":2345:2353   */\n      dup4\n        /* \"#utility.yul\":2341:2373   */\n      add\n        /* \"#utility.yul\":2338:2379   */\n      gt\n        /* \"#utility.yul\":2335:2337   */\n      iszero\n      tag_659\n      jumpi\n        /* \"#utility.yul\":2392:2393   */\n      0x00\n        /* \"#utility.yul\":2389:2390   */\n      dup1\n        /* \"#utility.yul\":2382:2394   */\n      revert\n        /* \"#utility.yul\":2335:2337   */\n    tag_659:\n        /* \"#utility.yul\":2125:2402   */\n      swap3\n      pop\n      swap3\n      swap1\n      pop\n      jump\t// out\n        /* \"#utility.yul\":2421:2692   */\n    tag_660:\n      0x00\n        /* \"#utility.yul\":2525:2528   */\n      dup3\n        /* \"#utility.yul\":2518:2522   */\n      0x1f\n        /* \"#utility.yul\":2510:2516   */\n      dup4\n        /* \"#utility.yul\":2506:2523   */\n      add\n        /* \"#utility.yul\":2502:2529   */\n      slt\n        /* \"#utility.yul\":2492:2494   */\n      tag_662\n      jumpi\n        /* \"#utility.yul\":2543:2544   */\n      0x00\n        /* \"#utility.yul\":2540:2541   */\n      dup1\n        /* \"#utility.yul\":2533:2545   */\n      revert\n        /* \"#utility.yul\":2492:2494   */\n    tag_662:\n        /* \"#utility.yul\":2583:2589   */\n      dup2\n        /* \"#utility.yul\":2570:2590   */\n      calldataload\n        /* \"#utility.yul\":2608:2686   */\n      tag_663\n        /* \"#utility.yul\":2682:2685   */\n      dup5\n        /* \"#utility.yul\":2674:2680   */\n      dup3\n        /* \"#utility.yul\":2667:2671   */\n      0x20\n        /* \"#utility.yul\":2659:2665   */\n      dup7\n        /* \"#utility.yul\":2655:2672   */\n      add\n        /* \"#utility.yul\":2608:2686   */\n      tag_629\n      jump\t// in\n    tag_663:\n        /* \"#utility.yul\":2599:2686   */\n      swap2\n      pop\n        /* \"#utility.yul\":2482:2692   */\n      pop\n      swap3\n      swap2\n      pop\n      pop\n      jump\t// out\n        /* \"#utility.yul\":2712:2985   */\n    tag_628:\n      0x00\n        /* \"#utility.yul\":2817:2820   */\n      dup3\n        /* \"#utility.yul\":2810:2814   */\n      0x1f\n        /* \"#utility.yul\":2802:2808   */\n      dup4\n        /* \"#utility.yul\":2798:2815   */\n      add\n        /* \"#utility.yul\":2794:2821   */\n      slt\n        /* \"#utility.yul\":2784:2786   */\n      tag_665\n      jumpi\n        /* \"#utility.yul\":2835:2836   */\n      0x00\n        /* \"#utility.yul\":2832:2833   */\n      dup1\n        /* \"#utility.yul\":2825:2837   */\n      revert\n        /* \"#utility.yul\":2784:2786   */\n    tag_665:\n        /* \"#utility.yul\":2875:2881   */\n      dup2\n        /* \"#utility.yul\":2862:2882   */\n      calldataload\n        /* \"#utility.yul\":2900:2979   */\n      tag_666\n        /* \"#utility.yul\":2975:2978   */\n      dup5\n        /* \"#utility.yul\":2967:2973   */\n      dup3\n        /* \"#utility.yul\":2960:2964   */\n      0x20\n        /* \"#utility.yul\":2952:2958   */\n      dup7\n        /* \"#utility.yul\":2948:2965   */\n      add\n        /* \"#utility.yul\":2900:2979   */\n      tag_637\n      jump\t// in\n    tag_666:\n        /* \"#utility.yul\":2891:2979   */\n      swap2\n      pop\n        /* \"#utility.yul\":2774:2985   */\n      pop\n      swap3\n      swap2\n      pop\n      pop\n      jump\t// out\n        /* \"#utility.yul\":2991:3130   */\n    tag_667:\n      0x00\n        /* \"#utility.yul\":3075:3081   */\n      dup2\n        /* \"#utility.yul\":3062:3082   */\n      calldataload\n        /* \"#utility.yul\":3053:3082   */\n      swap1\n      pop\n        /* \"#utility.yul\":3091:3124   */\n      tag_669\n        /* \"#utility.yul\":3118:3123   */\n      dup2\n        /* \"#utility.yul\":3091:3124   */\n      tag_670\n      jump\t// in\n    tag_669:\n        /* \"#utility.yul\":3043:3130   */\n      swap3\n      swap2\n      pop\n      pop\n      jump\t// out\n        /* \"#utility.yul\":3136:3398   */\n    tag_66:\n      0x00\n        /* \"#utility.yul\":3244:3246   */\n      0x20\n        /* \"#utility.yul\":3232:3241   */\n      dup3\n        /* \"#utility.yul\":3223:3230   */\n      dup5\n        /* \"#utility.yul\":3219:3242   */\n      sub\n        /* \"#utility.yul\":3215:3247   */\n      slt\n        /* \"#utility.yul\":3212:3214   */\n      iszero\n      tag_672\n      jumpi\n        /* \"#utility.yul\":3260:3261   */\n      0x00\n        /* \"#utility.yul\":3257:3258   */\n      dup1\n        /* \"#utility.yul\":3250:3262   */\n      revert\n        /* \"#utility.yul\":3212:3214   */\n    tag_672:\n        /* \"#utility.yul\":3303:3304   */\n      0x00\n        /* \"#utility.yul\":3328:3381   */\n      tag_673\n        /* \"#utility.yul\":3373:3380   */\n      dup5\n        /* \"#utility.yul\":3364:3370   */\n      dup3\n        /* \"#utility.yul\":3353:3362   */\n      dup6\n        /* \"#utility.yul\":3349:3371   */\n      add\n        /* \"#utility.yul\":3328:3381   */\n      tag_644\n      jump\t// in\n    tag_673:\n        /* \"#utility.yul\":3318:3381   */\n      swap2\n      pop\n        /* \"#utility.yul\":3274:3391   */\n      pop\n        /* \"#utility.yul\":3202:3398   */\n      swap3\n      swap2\n      pop\n      pop\n      jump\t// out\n        /* \"#utility.yul\":3404:3811   */\n    tag_190:\n      0x00\n      dup1\n        /* \"#utility.yul\":3529:3531   */\n      0x40\n        /* \"#utility.yul\":3517:3526   */\n      dup4\n        /* \"#utility.yul\":3508:3515   */\n      dup6\n        /* \"#utility.yul\":3504:3527   */\n      sub\n        /* \"#utility.yul\":3500:3532   */\n      slt\n        /* \"#utility.yul\":3497:3499   */\n      iszero\n      tag_675\n      jumpi\n        /* \"#utility.yul\":3545:3546   */\n      0x00\n        /* \"#utility.yul\":3542:3543   */\n      dup1\n        /* \"#utility.yul\":3535:3547   */\n      revert\n        /* \"#utility.yul\":3497:3499   */\n    tag_675:\n        /* \"#utility.yul\":3588:3589   */\n      0x00\n        /* \"#utility.yul\":3613:3666   */\n      tag_676\n        /* \"#utility.yul\":3658:3665   */\n      dup6\n        /* \"#utility.yul\":3649:3655   */\n      dup3\n        /* \"#utility.yul\":3638:3647   */\n      dup7\n        /* \"#utility.yul\":3634:3656   */\n      add\n        /* \"#utility.yul\":3613:3666   */\n      tag_644\n      jump\t// in\n    tag_676:\n        /* \"#utility.yul\":3603:3666   */\n      swap3\n      pop\n        /* \"#utility.yul\":3559:3676   */\n      pop\n        /* \"#utility.yul\":3715:3717   */\n      0x20\n        /* \"#utility.yul\":3741:3794   */\n      tag_677\n        /* \"#utility.yul\":3786:3793   */\n      dup6\n        /* \"#utility.yul\":3777:3783   */\n      dup3\n        /* \"#utility.yul\":3766:3775   */\n      dup7\n        /* \"#utility.yul\":3762:3784   */\n      add\n        /* \"#utility.yul\":3741:3794   */\n      tag_667\n      jump\t// in\n    tag_677:\n        /* \"#utility.yul\":3731:3794   */\n      swap2\n      pop\n        /* \"#utility.yul\":3686:3804   */\n      pop\n        /* \"#utility.yul\":3487:3811   */\n      swap3\n      pop\n      swap3\n      swap1\n      pop\n      jump\t// out\n        /* \"#utility.yul\":3817:4973   */\n    tag_61:\n      0x00\n      dup1\n      0x00\n      dup1\n      0x00\n      dup1\n      0x00\n        /* \"#utility.yul\":4056:4059   */\n      0xc0\n        /* \"#utility.yul\":4044:4053   */\n      dup9\n        /* \"#utility.yul\":4035:4042   */\n      dup11\n        /* \"#utility.yul\":4031:4054   */\n      sub\n        /* \"#utility.yul\":4027:4060   */\n      slt\n        /* \"#utility.yul\":4024:4026   */\n      iszero\n      tag_679\n      jumpi\n        /* \"#utility.yul\":4073:4074   */\n      0x00\n        /* \"#utility.yul\":4070:4071   */\n      dup1\n        /* \"#utility.yul\":4063:4075   */\n      revert\n        /* \"#utility.yul\":4024:4026   */\n    tag_679:\n        /* \"#utility.yul\":4144:4145   */\n      0x00\n        /* \"#utility.yul\":4133:4142   */\n      dup9\n        /* \"#utility.yul\":4129:4146   */\n      add\n        /* \"#utility.yul\":4116:4147   */\n      calldataload\n        /* \"#utility.yul\":4174:4192   */\n      0xffffffffffffffff\n        /* \"#utility.yul\":4166:4172   */\n      dup2\n        /* \"#utility.yul\":4163:4193   */\n      gt\n        /* \"#utility.yul\":4160:4162   */\n      iszero\n      tag_680\n      jumpi\n        /* \"#utility.yul\":4206:4207   */\n      0x00\n        /* \"#utility.yul\":4203:4204   */\n      dup1\n        /* \"#utility.yul\":4196:4208   */\n      revert\n        /* \"#utility.yul\":4160:4162   */\n    tag_680:\n        /* \"#utility.yul\":4242:4306   */\n      tag_681\n        /* \"#utility.yul\":4298:4305   */\n      dup11\n        /* \"#utility.yul\":4289:4295   */\n      dup3\n        /* \"#utility.yul\":4278:4287   */\n      dup12\n        /* \"#utility.yul\":4274:4296   */\n      add\n        /* \"#utility.yul\":4242:4306   */\n      tag_655\n      jump\t// in\n    tag_681:\n        /* \"#utility.yul\":4224:4306   */\n      swap8\n      pop\n      swap8\n      pop\n        /* \"#utility.yul\":4087:4316   */\n      pop\n        /* \"#utility.yul\":4383:4385   */\n      0x20\n        /* \"#utility.yul\":4372:4381   */\n      dup9\n        /* \"#utility.yul\":4368:4386   */\n      add\n        /* \"#utility.yul\":4355:4387   */\n      calldataload\n        /* \"#utility.yul\":4414:4432   */\n      0xffffffffffffffff\n        /* \"#utility.yul\":4406:4412   */\n      dup2\n        /* \"#utility.yul\":4403:4433   */\n      gt\n        /* \"#utility.yul\":4400:4402   */\n      iszero\n      tag_682\n      jumpi\n        /* \"#utility.yul\":4446:4447   */\n      0x00\n        /* \"#utility.yul\":4443:4444   */\n      dup1\n        /* \"#utility.yul\":4436:4448   */\n      revert\n        /* \"#utility.yul\":4400:4402   */\n    tag_682:\n        /* \"#utility.yul\":4482:4546   */\n      tag_683\n        /* \"#utility.yul\":4538:4545   */\n      dup11\n        /* \"#utility.yul\":4529:4535   */\n      dup3\n        /* \"#utility.yul\":4518:4527   */\n      dup12\n        /* \"#utility.yul\":4514:4536   */\n      add\n        /* \"#utility.yul\":4482:4546   */\n      tag_655\n      jump\t// in\n    tag_683:\n        /* \"#utility.yul\":4464:4546   */\n      swap6\n      pop\n      swap6\n      pop\n        /* \"#utility.yul\":4326:4556   */\n      pop\n        /* \"#utility.yul\":4595:4597   */\n      0x40\n        /* \"#utility.yul\":4621:4674   */\n      tag_684\n        /* \"#utility.yul\":4666:4673   */\n      dup11\n        /* \"#utility.yul\":4657:4663   */\n      dup3\n        /* \"#utility.yul\":4646:4655   */\n      dup12\n        /* \"#utility.yul\":4642:4664   */\n      add\n        /* \"#utility.yul\":4621:4674   */\n      tag_667\n      jump\t// in\n    tag_684:\n        /* \"#utility.yul\":4611:4674   */\n      swap4\n      pop\n        /* \"#utility.yul\":4566:4684   */\n      pop\n        /* \"#utility.yul\":4723:4725   */\n      0x60\n        /* \"#utility.yul\":4749:4827   */\n      tag_685\n        /* \"#utility.yul\":4819:4826   */\n      dup11\n        /* \"#utility.yul\":4810:4816   */\n      dup3\n        /* \"#utility.yul\":4799:4808   */\n      dup12\n        /* \"#utility.yul\":4795:4817   */\n      add\n        /* \"#utility.yul\":4749:4827   */\n      tag_652\n      jump\t// in\n    tag_685:\n        /* \"#utility.yul\":4739:4827   */\n      swap3\n      pop\n        /* \"#utility.yul\":4694:4837   */\n      pop\n        /* \"#utility.yul\":4876:4879   */\n      0xa0\n        /* \"#utility.yul\":4903:4956   */\n      tag_686\n        /* \"#utility.yul\":4948:4955   */\n      dup11\n        /* \"#utility.yul\":4939:4945   */\n      dup3\n        /* \"#utility.yul\":4928:4937   */\n      dup12\n        /* \"#utility.yul\":4924:4946   */\n      add\n        /* \"#utility.yul\":4903:4956   */\n      tag_667\n      jump\t// in\n    tag_686:\n        /* \"#utility.yul\":4893:4956   */\n      swap2\n      pop\n        /* \"#utility.yul\":4847:4966   */\n      pop\n        /* \"#utility.yul\":4014:4973   */\n      swap3\n      swap6\n      swap9\n      swap2\n      swap5\n      swap8\n      pop\n      swap3\n      swap6\n      pop\n      jump\t// out\n        /* \"#utility.yul\":4979:5352   */\n    tag_73:\n      0x00\n        /* \"#utility.yul\":5096:5098   */\n      0x20\n        /* \"#utility.yul\":5084:5093   */\n      dup3\n        /* \"#utility.yul\":5075:5082   */\n      dup5\n        /* \"#utility.yul\":5071:5094   */\n      sub\n        /* \"#utility.yul\":5067:5099   */\n      slt\n        /* \"#utility.yul\":5064:5066   */\n      iszero\n      tag_688\n      jumpi\n        /* \"#utility.yul\":5112:5113   */\n      0x00\n        /* \"#utility.yul\":5109:5110   */\n      dup1\n        /* \"#utility.yul\":5102:5114   */\n      revert\n        /* \"#utility.yul\":5064:5066   */\n    tag_688:\n        /* \"#utility.yul\":5183:5184   */\n      0x00\n        /* \"#utility.yul\":5172:5181   */\n      dup3\n        /* \"#utility.yul\":5168:5185   */\n      add\n        /* \"#utility.yul\":5155:5186   */\n      calldataload\n        /* \"#utility.yul\":5213:5231   */\n      0xffffffffffffffff\n        /* \"#utility.yul\":5205:5211   */\n      dup2\n        /* \"#utility.yul\":5202:5232   */\n      gt\n        /* \"#utility.yul\":5199:5201   */\n      iszero\n      tag_689\n      jumpi\n        /* \"#utility.yul\":5245:5246   */\n      0x00\n        /* \"#utility.yul\":5242:5243   */\n      dup1\n        /* \"#utility.yul\":5235:5247   */\n      revert\n        /* \"#utility.yul\":5199:5201   */\n    tag_689:\n        /* \"#utility.yul\":5273:5335   */\n      tag_690\n        /* \"#utility.yul\":5327:5334   */\n      dup5\n        /* \"#utility.yul\":5318:5324   */\n      dup3\n        /* \"#utility.yul\":5307:5316   */\n      dup6\n        /* \"#utility.yul\":5303:5325   */\n      add\n        /* \"#utility.yul\":5273:5335   */\n      tag_660\n      jump\t// in\n    tag_690:\n        /* \"#utility.yul\":5263:5335   */\n      swap2\n      pop\n        /* \"#utility.yul\":5126:5345   */\n      pop\n        /* \"#utility.yul\":5054:5352   */\n      swap3\n      swap2\n      pop\n      pop\n      jump\t// out\n        /* \"#utility.yul\":5358:6883   */\n    tag_43:\n      0x00\n      dup1\n      0x00\n      dup1\n      0x00\n      dup1\n      0x00\n        /* \"#utility.yul\":5623:5626   */\n      0xe0\n        /* \"#utility.yul\":5611:5620   */\n      dup9\n        /* \"#utility.yul\":5602:5609   */\n      dup11\n        /* \"#utility.yul\":5598:5621   */\n      sub\n        /* \"#utility.yul\":5594:5627   */\n      slt\n        /* \"#utility.yul\":5591:5593   */\n      iszero\n      tag_692\n      jumpi\n        /* \"#utility.yul\":5640:5641   */\n      0x00\n        /* \"#utility.yul\":5637:5638   */\n      dup1\n        /* \"#utility.yul\":5630:5642   */\n      revert\n        /* \"#utility.yul\":5591:5593   */\n    tag_692:\n        /* \"#utility.yul\":5711:5712   */\n      0x00\n        /* \"#utility.yul\":5700:5709   */\n      dup9\n        /* \"#utility.yul\":5696:5713   */\n      add\n        /* \"#utility.yul\":5683:5714   */\n      calldataload\n        /* \"#utility.yul\":5741:5759   */\n      0xffffffffffffffff\n        /* \"#utility.yul\":5733:5739   */\n      dup2\n        /* \"#utility.yul\":5730:5760   */\n      gt\n        /* \"#utility.yul\":5727:5729   */\n      iszero\n      tag_693\n      jumpi\n        /* \"#utility.yul\":5773:5774   */\n      0x00\n        /* \"#utility.yul\":5770:5771   */\n      dup1\n        /* \"#utility.yul\":5763:5775   */\n      revert\n        /* \"#utility.yul\":5727:5729   */\n    tag_693:\n        /* \"#utility.yul\":5801:5864   */\n      tag_694\n        /* \"#utility.yul\":5856:5863   */\n      dup11\n        /* \"#utility.yul\":5847:5853   */\n      dup3\n        /* \"#utility.yul\":5836:5845   */\n      dup12\n        /* \"#utility.yul\":5832:5854   */\n      add\n        /* \"#utility.yul\":5801:5864   */\n      tag_628\n      jump\t// in\n    tag_694:\n        /* \"#utility.yul\":5791:5864   */\n      swap8\n      pop\n        /* \"#utility.yul\":5654:5874   */\n      pop\n        /* \"#utility.yul\":5941:5943   */\n      0x20\n        /* \"#utility.yul\":5930:5939   */\n      dup9\n        /* \"#utility.yul\":5926:5944   */\n      add\n        /* \"#utility.yul\":5913:5945   */\n      calldataload\n        /* \"#utility.yul\":5972:5990   */\n      0xffffffffffffffff\n        /* \"#utility.yul\":5964:5970   */\n      dup2\n        /* \"#utility.yul\":5961:5991   */\n      gt\n        /* \"#utility.yul\":5958:5960   */\n      iszero\n      tag_695\n      jumpi\n        /* \"#utility.yul\":6004:6005   */\n      0x00\n        /* \"#utility.yul\":6001:6002   */\n      dup1\n        /* \"#utility.yul\":5994:6006   */\n      revert\n        /* \"#utility.yul\":5958:5960   */\n    tag_695:\n        /* \"#utility.yul\":6032:6095   */\n      tag_696\n        /* \"#utility.yul\":6087:6094   */\n      dup11\n        /* \"#utility.yul\":6078:6084   */\n      dup3\n        /* \"#utility.yul\":6067:6076   */\n      dup12\n        /* \"#utility.yul\":6063:6085   */\n      add\n        /* \"#utility.yul\":6032:6095   */\n      tag_628\n      jump\t// in\n    tag_696:\n        /* \"#utility.yul\":6022:6095   */\n      swap7\n      pop\n        /* \"#utility.yul\":5884:6105   */\n      pop\n        /* \"#utility.yul\":6144:6146   */\n      0x40\n        /* \"#utility.yul\":6170:6223   */\n      tag_697\n        /* \"#utility.yul\":6215:6222   */\n      dup11\n        /* \"#utility.yul\":6206:6212   */\n      dup3\n        /* \"#utility.yul\":6195:6204   */\n      dup12\n        /* \"#utility.yul\":6191:6213   */\n      add\n        /* \"#utility.yul\":6170:6223   */\n      tag_667\n      jump\t// in\n    tag_697:\n        /* \"#utility.yul\":6160:6223   */\n      swap6\n      pop\n        /* \"#utility.yul\":6115:6233   */\n      pop\n        /* \"#utility.yul\":6272:6274   */\n      0x60\n        /* \"#utility.yul\":6298:6351   */\n      tag_698\n        /* \"#utility.yul\":6343:6350   */\n      dup11\n        /* \"#utility.yul\":6334:6340   */\n      dup3\n        /* \"#utility.yul\":6323:6332   */\n      dup12\n        /* \"#utility.yul\":6319:6341   */\n      add\n        /* \"#utility.yul\":6298:6351   */\n      tag_667\n      jump\t// in\n    tag_698:\n        /* \"#utility.yul\":6288:6351   */\n      swap5\n      pop\n        /* \"#utility.yul\":6243:6361   */\n      pop\n        /* \"#utility.yul\":6428:6431   */\n      0x80\n        /* \"#utility.yul\":6417:6426   */\n      dup9\n        /* \"#utility.yul\":6413:6432   */\n      add\n        /* \"#utility.yul\":6400:6433   */\n      calldataload\n        /* \"#utility.yul\":6460:6478   */\n      0xffffffffffffffff\n        /* \"#utility.yul\":6452:6458   */\n      dup2\n        /* \"#utility.yul\":6449:6479   */\n      gt\n        /* \"#utility.yul\":6446:6448   */\n      iszero\n      tag_699\n      jumpi\n        /* \"#utility.yul\":6492:6493   */\n      0x00\n        /* \"#utility.yul\":6489:6490   */\n      dup1\n        /* \"#utility.yul\":6482:6494   */\n      revert\n        /* \"#utility.yul\":6446:6448   */\n    tag_699:\n        /* \"#utility.yul\":6520:6608   */\n      tag_700\n        /* \"#utility.yul\":6600:6607   */\n      dup11\n        /* \"#utility.yul\":6591:6597   */\n      dup3\n        /* \"#utility.yul\":6580:6589   */\n      dup12\n        /* \"#utility.yul\":6576:6598   */\n      add\n        /* \"#utility.yul\":6520:6608   */\n      tag_648\n      jump\t// in\n    tag_700:\n        /* \"#utility.yul\":6510:6608   */\n      swap4\n      pop\n        /* \"#utility.yul\":6371:6618   */\n      pop\n        /* \"#utility.yul\":6657:6660   */\n      0xa0\n        /* \"#utility.yul\":6684:6737   */\n      tag_701\n        /* \"#utility.yul\":6729:6736   */\n      dup11\n        /* \"#utility.yul\":6720:6726   */\n      dup3\n        /* \"#utility.yul\":6709:6718   */\n      dup12\n        /* \"#utility.yul\":6705:6727   */\n      add\n        /* \"#utility.yul\":6684:6737   */\n      tag_667\n      jump\t// in\n    tag_701:\n        /* \"#utility.yul\":6674:6737   */\n      swap3\n      pop\n        /* \"#utility.yul\":6628:6747   */\n      pop\n        /* \"#utility.yul\":6786:6789   */\n      0xc0\n        /* \"#utility.yul\":6813:6866   */\n      tag_702\n        /* \"#utility.yul\":6858:6865   */\n      dup11\n        /* \"#utility.yul\":6849:6855   */\n      dup3\n        /* \"#utility.yul\":6838:6847   */\n      dup12\n        /* \"#utility.yul\":6834:6856   */\n      add\n        /* \"#utility.yul\":6813:6866   */\n      tag_667\n      jump\t// in\n    tag_702:\n        /* \"#utility.yul\":6803:6866   */\n      swap2\n      pop\n        /* \"#utility.yul\":6757:6876   */\n      pop\n        /* \"#utility.yul\":5581:6883   */\n      swap3\n      swap6\n      swap9\n      swap2\n      swap5\n      swap8\n      pop\n      swap3\n      swap6\n      pop\n      jump\t// out\n        /* \"#utility.yul\":6889:7151   */\n    tag_50:\n      0x00\n        /* \"#utility.yul\":6997:6999   */\n      0x20\n        /* \"#utility.yul\":6985:6994   */\n      dup3\n        /* \"#utility.yul\":6976:6983   */\n      dup5\n        /* \"#utility.yul\":6972:6995   */\n      sub\n        /* \"#utility.yul\":6968:7000   */\n      slt\n        /* \"#utility.yul\":6965:6967   */\n      iszero\n      tag_704\n      jumpi\n        /* \"#utility.yul\":7013:7014   */\n      0x00\n        /* \"#utility.yul\":7010:7011   */\n      dup1\n        /* \"#utility.yul\":7003:7015   */\n      revert\n        /* \"#utility.yul\":6965:6967   */\n    tag_704:\n        /* \"#utility.yul\":7056:7057   */\n      0x00\n        /* \"#utility.yul\":7081:7134   */\n      tag_705\n        /* \"#utility.yul\":7126:7133   */\n      dup5\n        /* \"#utility.yul\":7117:7123   */\n      dup3\n        /* \"#utility.yul\":7106:7115   */\n      dup6\n        /* \"#utility.yul\":7102:7124   */\n      add\n        /* \"#utility.yul\":7081:7134   */\n      tag_667\n      jump\t// in\n    tag_705:\n        /* \"#utility.yul\":7071:7134   */\n      swap2\n      pop\n        /* \"#utility.yul\":7027:7144   */\n      pop\n        /* \"#utility.yul\":6955:7151   */\n      swap3\n      swap2\n      pop\n      pop\n      jump\t// out\n        /* \"#utility.yul\":7157:7675   */\n    tag_101:\n      0x00\n      dup1\n        /* \"#utility.yul\":7291:7293   */\n      0x40\n        /* \"#utility.yul\":7279:7288   */\n      dup4\n        /* \"#utility.yul\":7270:7277   */\n      dup6\n        /* \"#utility.yul\":7266:7289   */\n      sub\n        /* \"#utility.yul\":7262:7294   */\n      slt\n        /* \"#utility.yul\":7259:7261   */\n      iszero\n      tag_707\n      jumpi\n        /* \"#utility.yul\":7307:7308   */\n      0x00\n        /* \"#utility.yul\":7304:7305   */\n      dup1\n        /* \"#utility.yul\":7297:7309   */\n      revert\n        /* \"#utility.yul\":7259:7261   */\n    tag_707:\n        /* \"#utility.yul\":7350:7351   */\n      0x00\n        /* \"#utility.yul\":7375:7428   */\n      tag_708\n        /* \"#utility.yul\":7420:7427   */\n      dup6\n        /* \"#utility.yul\":7411:7417   */\n      dup3\n        /* \"#utility.yul\":7400:7409   */\n      dup7\n        /* \"#utility.yul\":7396:7418   */\n      add\n        /* \"#utility.yul\":7375:7428   */\n      tag_667\n      jump\t// in\n    tag_708:\n        /* \"#utility.yul\":7365:7428   */\n      swap3\n      pop\n        /* \"#utility.yul\":7321:7438   */\n      pop\n        /* \"#utility.yul\":7505:7507   */\n      0x20\n        /* \"#utility.yul\":7494:7503   */\n      dup4\n        /* \"#utility.yul\":7490:7508   */\n      add\n        /* \"#utility.yul\":7477:7509   */\n      calldataload\n        /* \"#utility.yul\":7536:7554   */\n      0xffffffffffffffff\n        /* \"#utility.yul\":7528:7534   */\n      dup2\n        /* \"#utility.yul\":7525:7555   */\n      gt\n        /* \"#utility.yul\":7522:7524   */\n      iszero\n      tag_709\n      jumpi\n        /* \"#utility.yul\":7568:7569   */\n      0x00\n        /* \"#utility.yul\":7565:7566   */\n      dup1\n        /* \"#utility.yul\":7558:7570   */\n      revert\n        /* \"#utility.yul\":7522:7524   */\n    tag_709:\n        /* \"#utility.yul\":7596:7658   */\n      tag_710\n        /* \"#utility.yul\":7650:7657   */\n      dup6\n        /* \"#utility.yul\":7641:7647   */\n      dup3\n        /* \"#utility.yul\":7630:7639   */\n      dup7\n        /* \"#utility.yul\":7626:7648   */\n      add\n        /* \"#utility.yul\":7596:7658   */\n      tag_660\n      jump\t// in\n    tag_710:\n        /* \"#utility.yul\":7586:7658   */\n      swap2\n      pop\n        /* \"#utility.yul\":7448:7668   */\n      pop\n        /* \"#utility.yul\":7249:7675   */\n      swap3\n      pop\n      swap3\n      swap1\n      pop\n      jump\t// out\n        /* \"#utility.yul\":7681:8233   */\n    tag_129:\n      0x00\n      dup1\n      0x00\n        /* \"#utility.yul\":7823:7825   */\n      0x60\n        /* \"#utility.yul\":7811:7820   */\n      dup5\n        /* \"#utility.yul\":7802:7809   */\n      dup7\n        /* \"#utility.yul\":7798:7821   */\n      sub\n        /* \"#utility.yul\":7794:7826   */\n      slt\n        /* \"#utility.yul\":7791:7793   */\n      iszero\n      tag_712\n      jumpi\n        /* \"#utility.yul\":7839:7840   */\n      0x00\n        /* \"#utility.yul\":7836:7837   */\n      dup1\n        /* \"#utility.yul\":7829:7841   */\n      revert\n        /* \"#utility.yul\":7791:7793   */\n    tag_712:\n        /* \"#utility.yul\":7882:7883   */\n      0x00\n        /* \"#utility.yul\":7907:7960   */\n      tag_713\n        /* \"#utility.yul\":7952:7959   */\n      dup7\n        /* \"#utility.yul\":7943:7949   */\n      dup3\n        /* \"#utility.yul\":7932:7941   */\n      dup8\n        /* \"#utility.yul\":7928:7950   */\n      add\n        /* \"#utility.yul\":7907:7960   */\n      tag_667\n      jump\t// in\n    tag_713:\n        /* \"#utility.yul\":7897:7960   */\n      swap4\n      pop\n        /* \"#utility.yul\":7853:7970   */\n      pop\n        /* \"#utility.yul\":8009:8011   */\n      0x20\n        /* \"#utility.yul\":8035:8088   */\n      tag_714\n        /* \"#utility.yul\":8080:8087   */\n      dup7\n        /* \"#utility.yul\":8071:8077   */\n      dup3\n        /* \"#utility.yul\":8060:8069   */\n      dup8\n        /* \"#utility.yul\":8056:8078   */\n      add\n        /* \"#utility.yul\":8035:8088   */\n      tag_667\n      jump\t// in\n    tag_714:\n        /* \"#utility.yul\":8025:8088   */\n      swap3\n      pop\n        /* \"#utility.yul\":7980:8098   */\n      pop\n        /* \"#utility.yul\":8137:8139   */\n      0x40\n        /* \"#utility.yul\":8163:8216   */\n      tag_715\n        /* \"#utility.yul\":8208:8215   */\n      dup7\n        /* \"#utility.yul\":8199:8205   */\n      dup3\n        /* \"#utility.yul\":8188:8197   */\n      dup8\n        /* \"#utility.yul\":8184:8206   */\n      add\n        /* \"#utility.yul\":8163:8216   */\n      tag_667\n      jump\t// in\n    tag_715:\n        /* \"#utility.yul\":8153:8216   */\n      swap2\n      pop\n        /* \"#utility.yul\":8108:8226   */\n      pop\n        /* \"#utility.yul\":7781:8233   */\n      swap3\n      pop\n      swap3\n      pop\n      swap3\n      jump\t// out\n        /* \"#utility.yul\":8239:8418   */\n    tag_716:\n      0x00\n        /* \"#utility.yul\":8329:8375   */\n      tag_718\n        /* \"#utility.yul\":8371:8374   */\n      dup4\n        /* \"#utility.yul\":8363:8369   */\n      dup4\n        /* \"#utility.yul\":8329:8375   */\n      tag_719\n      jump\t// in\n    tag_718:\n        /* \"#utility.yul\":8407:8411   */\n      0x20\n        /* \"#utility.yul\":8402:8405   */\n      dup4\n        /* \"#utility.yul\":8398:8412   */\n      add\n        /* \"#utility.yul\":8384:8412   */\n      swap1\n      pop\n        /* \"#utility.yul\":8319:8418   */\n      swap3\n      swap2\n      pop\n      pop\n      jump\t// out\n        /* \"#utility.yul\":8424:8695   */\n    tag_720:\n      0x00\n        /* \"#utility.yul\":8560:8652   */\n      tag_722\n        /* \"#utility.yul\":8648:8651   */\n      dup4\n        /* \"#utility.yul\":8640:8646   */\n      dup4\n        /* \"#utility.yul\":8560:8652   */\n      tag_723\n      jump\t// in\n    tag_722:\n        /* \"#utility.yul\":8684:8688   */\n      0x40\n        /* \"#utility.yul\":8679:8682   */\n      dup4\n        /* \"#utility.yul\":8675:8689   */\n      add\n        /* \"#utility.yul\":8661:8689   */\n      swap1\n      pop\n        /* \"#utility.yul\":8550:8695   */\n      swap3\n      swap2\n      pop\n      pop\n      jump\t// out\n        /* \"#utility.yul\":8701:8897   */\n    tag_724:\n      0x00\n        /* \"#utility.yul\":8825:8891   */\n      tag_726\n        /* \"#utility.yul\":8887:8890   */\n      dup4\n        /* \"#utility.yul\":8879:8885   */\n      dup4\n        /* \"#utility.yul\":8825:8891   */\n      tag_727\n      jump\t// in\n    tag_726:\n        /* \"#utility.yul\":8811:8891   */\n      swap1\n      pop\n        /* \"#utility.yul\":8801:8897   */\n      swap3\n      swap2\n      pop\n      pop\n      jump\t// out\n        /* \"#utility.yul\":8903:9082   */\n    tag_728:\n      0x00\n        /* \"#utility.yul\":8993:9039   */\n      tag_730\n        /* \"#utility.yul\":9035:9038   */\n      dup4\n        /* \"#utility.yul\":9027:9033   */\n      dup4\n        /* \"#utility.yul\":8993:9039   */\n      tag_731\n      jump\t// in\n    tag_730:\n        /* \"#utility.yul\":9071:9075   */\n      0x20\n        /* \"#utility.yul\":9066:9069   */\n      dup4\n        /* \"#utility.yul\":9062:9076   */\n      add\n        /* \"#utility.yul\":9048:9076   */\n      swap1\n      pop\n        /* \"#utility.yul\":8983:9082   */\n      swap3\n      swap2\n      pop\n      pop\n      jump\t// out\n        /* \"#utility.yul\":9088:9196   */\n    tag_719:\n        /* \"#utility.yul\":9165:9189   */\n      tag_733\n        /* \"#utility.yul\":9183:9188   */\n      dup2\n        /* \"#utility.yul\":9165:9189   */\n      tag_734\n      jump\t// in\n    tag_733:\n        /* \"#utility.yul\":9160:9163   */\n      dup3\n        /* \"#utility.yul\":9153:9190   */\n      mstore\n        /* \"#utility.yul\":9143:9196   */\n      pop\n      pop\n      jump\t// out\n        /* \"#utility.yul\":9202:9320   */\n    tag_735:\n        /* \"#utility.yul\":9289:9313   */\n      tag_737\n        /* \"#utility.yul\":9307:9312   */\n      dup2\n        /* \"#utility.yul\":9289:9313   */\n      tag_734\n      jump\t// in\n    tag_737:\n        /* \"#utility.yul\":9284:9287   */\n      dup3\n        /* \"#utility.yul\":9277:9314   */\n      mstore\n        /* \"#utility.yul\":9267:9320   */\n      pop\n      pop\n      jump\t// out\n        /* \"#utility.yul\":9356:10088   */\n    tag_738:\n      0x00\n        /* \"#utility.yul\":9504:9558   */\n      tag_740\n        /* \"#utility.yul\":9552:9557   */\n      dup3\n        /* \"#utility.yul\":9504:9558   */\n      tag_741\n      jump\t// in\n    tag_740:\n        /* \"#utility.yul\":9574:9660   */\n      tag_742\n        /* \"#utility.yul\":9653:9659   */\n      dup2\n        /* \"#utility.yul\":9648:9651   */\n      dup6\n        /* \"#utility.yul\":9574:9660   */\n      tag_743\n      jump\t// in\n    tag_742:\n        /* \"#utility.yul\":9567:9660   */\n      swap4\n      pop\n        /* \"#utility.yul\":9684:9740   */\n      tag_744\n        /* \"#utility.yul\":9734:9739   */\n      dup4\n        /* \"#utility.yul\":9684:9740   */\n      tag_745\n      jump\t// in\n    tag_744:\n        /* \"#utility.yul\":9763:9770   */\n      dup1\n        /* \"#utility.yul\":9794:9795   */\n      0x00\n        /* \"#utility.yul\":9779:10063   */\n    tag_746:\n        /* \"#utility.yul\":9804:9810   */\n      dup4\n        /* \"#utility.yul\":9801:9802   */\n      dup2\n        /* \"#utility.yul\":9798:9811   */\n      lt\n        /* \"#utility.yul\":9779:10063   */\n      iszero\n      tag_748\n      jumpi\n        /* \"#utility.yul\":9880:9886   */\n      dup2\n        /* \"#utility.yul\":9874:9887   */\n      mload\n        /* \"#utility.yul\":9907:9970   */\n      tag_749\n        /* \"#utility.yul\":9966:9969   */\n      dup9\n        /* \"#utility.yul\":9951:9964   */\n      dup3\n        /* \"#utility.yul\":9907:9970   */\n      tag_716\n      jump\t// in\n    tag_749:\n        /* \"#utility.yul\":9900:9970   */\n      swap8\n      pop\n        /* \"#utility.yul\":9993:10053   */\n      tag_750\n        /* \"#utility.yul\":10046:10052   */\n      dup4\n        /* \"#utility.yul\":9993:10053   */\n      tag_751\n      jump\t// in\n    tag_750:\n        /* \"#utility.yul\":9983:10053   */\n      swap3\n      pop\n        /* \"#utility.yul\":9839:10063   */\n      pop\n        /* \"#utility.yul\":9826:9827   */\n      0x01\n        /* \"#utility.yul\":9823:9824   */\n      dup2\n        /* \"#utility.yul\":9819:9828   */\n      add\n        /* \"#utility.yul\":9814:9828   */\n      swap1\n      pop\n        /* \"#utility.yul\":9779:10063   */\n      jump(tag_746)\n    tag_748:\n        /* \"#utility.yul\":9783:9797   */\n      pop\n        /* \"#utility.yul\":10079:10082   */\n      dup6\n        /* \"#utility.yul\":10072:10082   */\n      swap4\n      pop\n        /* \"#utility.yul\":9480:10088   */\n      pop\n      pop\n      pop\n      swap3\n      swap2\n      pop\n      pop\n      jump\t// out\n        /* \"#utility.yul\":10130:11046   */\n    tag_752:\n      0x00\n        /* \"#utility.yul\":10324:10401   */\n      tag_754\n        /* \"#utility.yul\":10395:10400   */\n      dup3\n        /* \"#utility.yul\":10324:10401   */\n      tag_755\n      jump\t// in\n    tag_754:\n        /* \"#utility.yul\":10417:10526   */\n      tag_756\n        /* \"#utility.yul\":10519:10525   */\n      dup2\n        /* \"#utility.yul\":10514:10517   */\n      dup6\n        /* \"#utility.yul\":10417:10526   */\n      tag_757\n      jump\t// in\n    tag_756:\n        /* \"#utility.yul\":10410:10526   */\n      swap4\n      pop\n        /* \"#utility.yul\":10550:10629   */\n      tag_758\n        /* \"#utility.yul\":10623:10628   */\n      dup4\n        /* \"#utility.yul\":10550:10629   */\n      tag_759\n      jump\t// in\n    tag_758:\n        /* \"#utility.yul\":10652:10659   */\n      dup1\n        /* \"#utility.yul\":10683:10684   */\n      0x00\n        /* \"#utility.yul\":10668:11021   */\n    tag_760:\n        /* \"#utility.yul\":10693:10699   */\n      dup4\n        /* \"#utility.yul\":10690:10691   */\n      dup2\n        /* \"#utility.yul\":10687:10700   */\n      lt\n        /* \"#utility.yul\":10668:11021   */\n      iszero\n      tag_762\n      jumpi\n        /* \"#utility.yul\":10769:10775   */\n      dup2\n        /* \"#utility.yul\":10763:10776   */\n      mload\n        /* \"#utility.yul\":10796:10905   */\n      tag_763\n        /* \"#utility.yul\":10901:10904   */\n      dup9\n        /* \"#utility.yul\":10886:10899   */\n      dup3\n        /* \"#utility.yul\":10796:10905   */\n      tag_720\n      jump\t// in\n    tag_763:\n        /* \"#utility.yul\":10789:10905   */\n      swap8\n      pop\n        /* \"#utility.yul\":10928:11011   */\n      tag_764\n        /* \"#utility.yul\":11004:11010   */\n      dup4\n        /* \"#utility.yul\":10928:11011   */\n      tag_765\n      jump\t// in\n    tag_764:\n        /* \"#utility.yul\":10918:11011   */\n      swap3\n      pop\n        /* \"#utility.yul\":10728:11021   */\n      pop\n        /* \"#utility.yul\":10715:10716   */\n      0x01\n        /* \"#utility.yul\":10712:10713   */\n      dup2\n        /* \"#utility.yul\":10708:10717   */\n      add\n        /* \"#utility.yul\":10703:10717   */\n      swap1\n      pop\n        /* \"#utility.yul\":10668:11021   */\n      jump(tag_760)\n    tag_762:\n        /* \"#utility.yul\":10672:10686   */\n      pop\n        /* \"#utility.yul\":11037:11040   */\n      dup6\n        /* \"#utility.yul\":11030:11040   */\n      swap4\n      pop\n        /* \"#utility.yul\":10300:11046   */\n      pop\n      pop\n      pop\n      swap3\n      swap2\n      pop\n      pop\n      jump\t// out\n        /* \"#utility.yul\":11080:12071   */\n    tag_766:\n      0x00\n        /* \"#utility.yul\":11248:11312   */\n      tag_768\n        /* \"#utility.yul\":11306:11311   */\n      dup3\n        /* \"#utility.yul\":11248:11312   */\n      tag_769\n      jump\t// in\n    tag_768:\n        /* \"#utility.yul\":11328:11424   */\n      tag_770\n        /* \"#utility.yul\":11417:11423   */\n      dup2\n        /* \"#utility.yul\":11412:11415   */\n      dup6\n        /* \"#utility.yul\":11328:11424   */\n      tag_771\n      jump\t// in\n    tag_770:\n        /* \"#utility.yul\":11321:11424   */\n      swap4\n      pop\n        /* \"#utility.yul\":11450:11453   */\n      dup4\n        /* \"#utility.yul\":11495:11499   */\n      0x20\n        /* \"#utility.yul\":11487:11493   */\n      dup3\n        /* \"#utility.yul\":11483:11500   */\n      mul\n        /* \"#utility.yul\":11478:11481   */\n      dup6\n        /* \"#utility.yul\":11474:11501   */\n      add\n        /* \"#utility.yul\":11525:11591   */\n      tag_772\n        /* \"#utility.yul\":11585:11590   */\n      dup6\n        /* \"#utility.yul\":11525:11591   */\n      tag_773\n      jump\t// in\n    tag_772:\n        /* \"#utility.yul\":11614:11621   */\n      dup1\n        /* \"#utility.yul\":11645:11646   */\n      0x00\n        /* \"#utility.yul\":11630:12026   */\n    tag_774:\n        /* \"#utility.yul\":11655:11661   */\n      dup6\n        /* \"#utility.yul\":11652:11653   */\n      dup2\n        /* \"#utility.yul\":11649:11662   */\n      lt\n        /* \"#utility.yul\":11630:12026   */\n      iszero\n      tag_776\n      jumpi\n        /* \"#utility.yul\":11726:11735   */\n      dup5\n        /* \"#utility.yul\":11720:11724   */\n      dup5\n        /* \"#utility.yul\":11716:11736   */\n      sub\n        /* \"#utility.yul\":11711:11714   */\n      dup10\n        /* \"#utility.yul\":11704:11737   */\n      mstore\n        /* \"#utility.yul\":11777:11783   */\n      dup2\n        /* \"#utility.yul\":11771:11784   */\n      mload\n        /* \"#utility.yul\":11805:11889   */\n      tag_777\n        /* \"#utility.yul\":11884:11888   */\n      dup6\n        /* \"#utility.yul\":11869:11882   */\n      dup3\n        /* \"#utility.yul\":11805:11889   */\n      tag_724\n      jump\t// in\n    tag_777:\n        /* \"#utility.yul\":11797:11889   */\n      swap5\n      pop\n        /* \"#utility.yul\":11912:11982   */\n      tag_778\n        /* \"#utility.yul\":11975:11981   */\n      dup4\n        /* \"#utility.yul\":11912:11982   */\n      tag_779\n      jump\t// in\n    tag_778:\n        /* \"#utility.yul\":11902:11982   */\n      swap3\n      pop\n        /* \"#utility.yul\":12011:12015   */\n      0x20\n        /* \"#utility.yul\":12006:12009   */\n      dup11\n        /* \"#utility.yul\":12002:12016   */\n      add\n        /* \"#utility.yul\":11995:12016   */\n      swap10\n      pop\n        /* \"#utility.yul\":11690:12026   */\n      pop\n        /* \"#utility.yul\":11677:11678   */\n      0x01\n        /* \"#utility.yul\":11674:11675   */\n      dup2\n        /* \"#utility.yul\":11670:11679   */\n      add\n        /* \"#utility.yul\":11665:11679   */\n      swap1\n      pop\n        /* \"#utility.yul\":11630:12026   */\n      jump(tag_774)\n    tag_776:\n        /* \"#utility.yul\":11634:11648   */\n      pop\n        /* \"#utility.yul\":12042:12046   */\n      dup3\n        /* \"#utility.yul\":12035:12046   */\n      swap8\n      pop\n        /* \"#utility.yul\":12062:12065   */\n      dup8\n        /* \"#utility.yul\":12055:12065   */\n      swap6\n      pop\n        /* \"#utility.yul\":11224:12071   */\n      pop\n      pop\n      pop\n      pop\n      pop\n      swap3\n      swap2\n      pop\n      pop\n      jump\t// out\n        /* \"#utility.yul\":12109:12783   */\n    tag_723:\n        /* \"#utility.yul\":12235:12287   */\n      tag_781\n        /* \"#utility.yul\":12281:12286   */\n      dup2\n        /* \"#utility.yul\":12235:12287   */\n      tag_782\n      jump\t// in\n    tag_781:\n        /* \"#utility.yul\":12303:12377   */\n      tag_783\n        /* \"#utility.yul\":12370:12376   */\n      dup2\n        /* \"#utility.yul\":12365:12368   */\n      dup5\n        /* \"#utility.yul\":12303:12377   */\n      tag_784\n      jump\t// in\n    tag_783:\n        /* \"#utility.yul\":12296:12377   */\n      swap3\n      pop\n        /* \"#utility.yul\":12401:12455   */\n      tag_785\n        /* \"#utility.yul\":12449:12454   */\n      dup3\n        /* \"#utility.yul\":12401:12455   */\n      tag_786\n      jump\t// in\n    tag_785:\n        /* \"#utility.yul\":12478:12485   */\n      dup1\n        /* \"#utility.yul\":12509:12510   */\n      0x00\n        /* \"#utility.yul\":12494:12776   */\n    tag_787:\n        /* \"#utility.yul\":12519:12525   */\n      dup4\n        /* \"#utility.yul\":12516:12517   */\n      dup2\n        /* \"#utility.yul\":12513:12526   */\n      lt\n        /* \"#utility.yul\":12494:12776   */\n      iszero\n      tag_789\n      jumpi\n        /* \"#utility.yul\":12595:12601   */\n      dup2\n        /* \"#utility.yul\":12589:12602   */\n      mload\n        /* \"#utility.yul\":12622:12685   */\n      tag_790\n        /* \"#utility.yul\":12681:12684   */\n      dup8\n        /* \"#utility.yul\":12666:12679   */\n      dup3\n        /* \"#utility.yul\":12622:12685   */\n      tag_728\n      jump\t// in\n    tag_790:\n        /* \"#utility.yul\":12615:12685   */\n      swap7\n      pop\n        /* \"#utility.yul\":12708:12766   */\n      tag_791\n        /* \"#utility.yul\":12759:12765   */\n      dup4\n        /* \"#utility.yul\":12708:12766   */\n      tag_792\n      jump\t// in\n    tag_791:\n        /* \"#utility.yul\":12698:12766   */\n      swap3\n      pop\n        /* \"#utility.yul\":12554:12776   */\n      pop\n        /* \"#utility.yul\":12541:12542   */\n      0x01\n        /* \"#utility.yul\":12538:12539   */\n      dup2\n        /* \"#utility.yul\":12534:12543   */\n      add\n        /* \"#utility.yul\":12529:12543   */\n      swap1\n      pop\n        /* \"#utility.yul\":12494:12776   */\n      jump(tag_787)\n    tag_789:\n        /* \"#utility.yul\":12498:12512   */\n      pop\n        /* \"#utility.yul\":12211:12783   */\n      pop\n      pop\n      pop\n      pop\n      pop\n      jump\t// out\n        /* \"#utility.yul\":12821:13515   */\n    tag_793:\n        /* \"#utility.yul\":12957:13009   */\n      tag_795\n        /* \"#utility.yul\":13003:13008   */\n      dup2\n        /* \"#utility.yul\":12957:13009   */\n      tag_782\n      jump\t// in\n    tag_795:\n        /* \"#utility.yul\":13025:13109   */\n      tag_796\n        /* \"#utility.yul\":13102:13108   */\n      dup2\n        /* \"#utility.yul\":13097:13100   */\n      dup5\n        /* \"#utility.yul\":13025:13109   */\n      tag_797\n      jump\t// in\n    tag_796:\n        /* \"#utility.yul\":13018:13109   */\n      swap3\n      pop\n        /* \"#utility.yul\":13133:13187   */\n      tag_798\n        /* \"#utility.yul\":13181:13186   */\n      dup3\n        /* \"#utility.yul\":13133:13187   */\n      tag_786\n      jump\t// in\n    tag_798:\n        /* \"#utility.yul\":13210:13217   */\n      dup1\n        /* \"#utility.yul\":13241:13242   */\n      0x00\n        /* \"#utility.yul\":13226:13508   */\n    tag_799:\n        /* \"#utility.yul\":13251:13257   */\n      dup4\n        /* \"#utility.yul\":13248:13249   */\n      dup2\n        /* \"#utility.yul\":13245:13258   */\n      lt\n        /* \"#utility.yul\":13226:13508   */\n      iszero\n      tag_801\n      jumpi\n        /* \"#utility.yul\":13327:13333   */\n      dup2\n        /* \"#utility.yul\":13321:13334   */\n      mload\n        /* \"#utility.yul\":13354:13417   */\n      tag_802\n        /* \"#utility.yul\":13413:13416   */\n      dup8\n        /* \"#utility.yul\":13398:13411   */\n      dup3\n        /* \"#utility.yul\":13354:13417   */\n      tag_728\n      jump\t// in\n    tag_802:\n        /* \"#utility.yul\":13347:13417   */\n      swap7\n      pop\n        /* \"#utility.yul\":13440:13498   */\n      tag_803\n        /* \"#utility.yul\":13491:13497   */\n      dup4\n        /* \"#utility.yul\":13440:13498   */\n      tag_792\n      jump\t// in\n    tag_803:\n        /* \"#utility.yul\":13430:13498   */\n      swap3\n      pop\n        /* \"#utility.yul\":13286:13508   */\n      pop\n        /* \"#utility.yul\":13273:13274   */\n      0x01\n        /* \"#utility.yul\":13270:13271   */\n      dup2\n        /* \"#utility.yul\":13266:13275   */\n      add\n        /* \"#utility.yul\":13261:13275   */\n      swap1\n      pop\n        /* \"#utility.yul\":13226:13508   */\n      jump(tag_799)\n    tag_801:\n        /* \"#utility.yul\":13230:13244   */\n      pop\n        /* \"#utility.yul\":12933:13515   */\n      pop\n      pop\n      pop\n      pop\n      pop\n      jump\t// out\n        /* \"#utility.yul\":13521:13630   */\n    tag_804:\n        /* \"#utility.yul\":13602:13623   */\n      tag_806\n        /* \"#utility.yul\":13617:13622   */\n      dup2\n        /* \"#utility.yul\":13602:13623   */\n      tag_807\n      jump\t// in\n    tag_806:\n        /* \"#utility.yul\":13597:13600   */\n      dup3\n        /* \"#utility.yul\":13590:13624   */\n      mstore\n        /* \"#utility.yul\":13580:13630   */\n      pop\n      pop\n      jump\t// out\n        /* \"#utility.yul\":13636:13996   */\n    tag_808:\n      0x00\n        /* \"#utility.yul\":13750:13788   */\n      tag_810\n        /* \"#utility.yul\":13782:13787   */\n      dup3\n        /* \"#utility.yul\":13750:13788   */\n      tag_811\n      jump\t// in\n    tag_810:\n        /* \"#utility.yul\":13804:13874   */\n      tag_812\n        /* \"#utility.yul\":13867:13873   */\n      dup2\n        /* \"#utility.yul\":13862:13865   */\n      dup6\n        /* \"#utility.yul\":13804:13874   */\n      tag_813\n      jump\t// in\n    tag_812:\n        /* \"#utility.yul\":13797:13874   */\n      swap4\n      pop\n        /* \"#utility.yul\":13883:13935   */\n      tag_814\n        /* \"#utility.yul\":13928:13934   */\n      dup2\n        /* \"#utility.yul\":13923:13926   */\n      dup6\n        /* \"#utility.yul\":13916:13920   */\n      0x20\n        /* \"#utility.yul\":13909:13914   */\n      dup7\n        /* \"#utility.yul\":13905:13921   */\n      add\n        /* \"#utility.yul\":13883:13935   */\n      tag_815\n      jump\t// in\n    tag_814:\n        /* \"#utility.yul\":13960:13989   */\n      tag_816\n        /* \"#utility.yul\":13982:13988   */\n      dup2\n        /* \"#utility.yul\":13960:13989   */\n      tag_817\n      jump\t// in\n    tag_816:\n        /* \"#utility.yul\":13955:13958   */\n      dup5\n        /* \"#utility.yul\":13951:13990   */\n      add\n        /* \"#utility.yul\":13944:13990   */\n      swap2\n      pop\n        /* \"#utility.yul\":13726:13996   */\n      pop\n      swap3\n      swap2\n      pop\n      pop\n      jump\t// out\n        /* \"#utility.yul\":14002:14375   */\n    tag_818:\n      0x00\n        /* \"#utility.yul\":14134:14172   */\n      tag_820\n        /* \"#utility.yul\":14166:14171   */\n      dup3\n        /* \"#utility.yul\":14134:14172   */\n      tag_811\n      jump\t// in\n    tag_820:\n        /* \"#utility.yul\":14188:14276   */\n      tag_821\n        /* \"#utility.yul\":14269:14275   */\n      dup2\n        /* \"#utility.yul\":14264:14267   */\n      dup6\n        /* \"#utility.yul\":14188:14276   */\n      tag_822\n      jump\t// in\n    tag_821:\n        /* \"#utility.yul\":14181:14276   */\n      swap4\n      pop\n        /* \"#utility.yul\":14285:14337   */\n      tag_823\n        /* \"#utility.yul\":14330:14336   */\n      dup2\n        /* \"#utility.yul\":14325:14328   */\n      dup6\n        /* \"#utility.yul\":14318:14322   */\n      0x20\n        /* \"#utility.yul\":14311:14316   */\n      dup7\n        /* \"#utility.yul\":14307:14323   */\n      add\n        /* \"#utility.yul\":14285:14337   */\n      tag_815\n      jump\t// in\n    tag_823:\n        /* \"#utility.yul\":14362:14368   */\n      dup1\n        /* \"#utility.yul\":14357:14360   */\n      dup5\n        /* \"#utility.yul\":14353:14369   */\n      add\n        /* \"#utility.yul\":14346:14369   */\n      swap2\n      pop\n        /* \"#utility.yul\":14110:14375   */\n      pop\n      swap3\n      swap2\n      pop\n      pop\n      jump\t// out\n        /* \"#utility.yul\":14403:15244   */\n    tag_824:\n      0x00\n        /* \"#utility.yul\":14541:14546   */\n      dup2\n        /* \"#utility.yul\":14535:14547   */\n      sload\n        /* \"#utility.yul\":14570:14606   */\n      tag_826\n        /* \"#utility.yul\":14596:14605   */\n      dup2\n        /* \"#utility.yul\":14570:14606   */\n      tag_241\n      jump\t// in\n    tag_826:\n        /* \"#utility.yul\":14622:14710   */\n      tag_827\n        /* \"#utility.yul\":14703:14709   */\n      dup2\n        /* \"#utility.yul\":14698:14701   */\n      dup7\n        /* \"#utility.yul\":14622:14710   */\n      tag_822\n      jump\t// in\n    tag_827:\n        /* \"#utility.yul\":14615:14710   */\n      swap5\n      pop\n        /* \"#utility.yul\":14741:14742   */\n      0x01\n        /* \"#utility.yul\":14730:14739   */\n      dup3\n        /* \"#utility.yul\":14726:14743   */\n      and\n        /* \"#utility.yul\":14757:14758   */\n      0x00\n        /* \"#utility.yul\":14752:14889   */\n      dup2\n      eq\n      tag_829\n      jumpi\n        /* \"#utility.yul\":14903:14904   */\n      0x01\n        /* \"#utility.yul\":14898:15238   */\n      dup2\n      eq\n      tag_830\n      jumpi\n        /* \"#utility.yul\":14719:15238   */\n      jump(tag_828)\n        /* \"#utility.yul\":14752:14889   */\n    tag_829:\n        /* \"#utility.yul\":14836:14840   */\n      0xff\n        /* \"#utility.yul\":14832:14841   */\n      not\n        /* \"#utility.yul\":14821:14830   */\n      dup4\n        /* \"#utility.yul\":14817:14842   */\n      and\n        /* \"#utility.yul\":14812:14815   */\n      dup7\n        /* \"#utility.yul\":14805:14843   */\n      mstore\n        /* \"#utility.yul\":14872:14878   */\n      dup2\n        /* \"#utility.yul\":14867:14870   */\n      dup7\n        /* \"#utility.yul\":14863:14879   */\n      add\n        /* \"#utility.yul\":14856:14879   */\n      swap4\n      pop\n        /* \"#utility.yul\":14752:14889   */\n      jump(tag_828)\n        /* \"#utility.yul\":14898:15238   */\n    tag_830:\n        /* \"#utility.yul\":14965:15002   */\n      tag_831\n        /* \"#utility.yul\":14996:15001   */\n      dup6\n        /* \"#utility.yul\":14965:15002   */\n      tag_832\n      jump\t// in\n    tag_831:\n        /* \"#utility.yul\":15024:15025   */\n      0x00\n        /* \"#utility.yul\":15038:15192   */\n    tag_833:\n        /* \"#utility.yul\":15052:15058   */\n      dup4\n        /* \"#utility.yul\":15049:15050   */\n      dup2\n        /* \"#utility.yul\":15046:15059   */\n      lt\n        /* \"#utility.yul\":15038:15192   */\n      iszero\n      tag_835\n      jumpi\n        /* \"#utility.yul\":15126:15133   */\n      dup2\n        /* \"#utility.yul\":15120:15134   */\n      sload\n        /* \"#utility.yul\":15116:15117   */\n      dup2\n        /* \"#utility.yul\":15111:15114   */\n      dup10\n        /* \"#utility.yul\":15107:15118   */\n      add\n        /* \"#utility.yul\":15100:15135   */\n      mstore\n        /* \"#utility.yul\":15176:15177   */\n      0x01\n        /* \"#utility.yul\":15167:15174   */\n      dup3\n        /* \"#utility.yul\":15163:15178   */\n      add\n        /* \"#utility.yul\":15152:15178   */\n      swap2\n      pop\n        /* \"#utility.yul\":15074:15078   */\n      0x20\n        /* \"#utility.yul\":15071:15072   */\n      dup2\n        /* \"#utility.yul\":15067:15079   */\n      add\n        /* \"#utility.yul\":15062:15079   */\n      swap1\n      pop\n        /* \"#utility.yul\":15038:15192   */\n      jump(tag_833)\n    tag_835:\n        /* \"#utility.yul\":15221:15227   */\n      dup4\n        /* \"#utility.yul\":15216:15219   */\n      dup9\n        /* \"#utility.yul\":15212:15228   */\n      add\n        /* \"#utility.yul\":15205:15228   */\n      swap6\n      pop\n        /* \"#utility.yul\":14905:15238   */\n      pop\n      pop\n        /* \"#utility.yul\":14719:15238   */\n    tag_828:\n      pop\n        /* \"#utility.yul\":14508:15244   */\n      pop\n      pop\n      swap3\n      swap2\n      pop\n      pop\n      jump\t// out\n        /* \"#utility.yul\":15250:15594   */\n    tag_727:\n      0x00\n        /* \"#utility.yul\":15356:15395   */\n      tag_837\n        /* \"#utility.yul\":15389:15394   */\n      dup3\n        /* \"#utility.yul\":15356:15395   */\n      tag_838\n      jump\t// in\n    tag_837:\n        /* \"#utility.yul\":15411:15472   */\n      tag_839\n        /* \"#utility.yul\":15465:15471   */\n      dup2\n        /* \"#utility.yul\":15460:15463   */\n      dup6\n        /* \"#utility.yul\":15411:15472   */\n      tag_840\n      jump\t// in\n    tag_839:\n        /* \"#utility.yul\":15404:15472   */\n      swap4\n      pop\n        /* \"#utility.yul\":15481:15533   */\n      tag_841\n        /* \"#utility.yul\":15526:15532   */\n      dup2\n        /* \"#utility.yul\":15521:15524   */\n      dup6\n        /* \"#utility.yul\":15514:15518   */\n      0x20\n        /* \"#utility.yul\":15507:15512   */\n      dup7\n        /* \"#utility.yul\":15503:15519   */\n      add\n        /* \"#utility.yul\":15481:15533   */\n      tag_815\n      jump\t// in\n    tag_841:\n        /* \"#utility.yul\":15558:15587   */\n      tag_842\n        /* \"#utility.yul\":15580:15586   */\n      dup2\n        /* \"#utility.yul\":15558:15587   */\n      tag_817\n      jump\t// in\n    tag_842:\n        /* \"#utility.yul\":15553:15556   */\n      dup5\n        /* \"#utility.yul\":15549:15588   */\n      add\n        /* \"#utility.yul\":15542:15588   */\n      swap2\n      pop\n        /* \"#utility.yul\":15332:15594   */\n      pop\n      swap3\n      swap2\n      pop\n      pop\n      jump\t// out\n        /* \"#utility.yul\":15600:15964   */\n    tag_843:\n      0x00\n        /* \"#utility.yul\":15716:15755   */\n      tag_845\n        /* \"#utility.yul\":15749:15754   */\n      dup3\n        /* \"#utility.yul\":15716:15755   */\n      tag_838\n      jump\t// in\n    tag_845:\n        /* \"#utility.yul\":15771:15842   */\n      tag_846\n        /* \"#utility.yul\":15835:15841   */\n      dup2\n        /* \"#utility.yul\":15830:15833   */\n      dup6\n        /* \"#utility.yul\":15771:15842   */\n      tag_847\n      jump\t// in\n    tag_846:\n        /* \"#utility.yul\":15764:15842   */\n      swap4\n      pop\n        /* \"#utility.yul\":15851:15903   */\n      tag_848\n        /* \"#utility.yul\":15896:15902   */\n      dup2\n        /* \"#utility.yul\":15891:15894   */\n      dup6\n        /* \"#utility.yul\":15884:15888   */\n      0x20\n        /* \"#utility.yul\":15877:15882   */\n      dup7\n        /* \"#utility.yul\":15873:15889   */\n      add\n        /* \"#utility.yul\":15851:15903   */\n      tag_815\n      jump\t// in\n    tag_848:\n        /* \"#utility.yul\":15928:15957   */\n      tag_849\n        /* \"#utility.yul\":15950:15956   */\n      dup2\n        /* \"#utility.yul\":15928:15957   */\n      tag_817\n      jump\t// in\n    tag_849:\n        /* \"#utility.yul\":15923:15926   */\n      dup5\n        /* \"#utility.yul\":15919:15958   */\n      add\n        /* \"#utility.yul\":15912:15958   */\n      swap2\n      pop\n        /* \"#utility.yul\":15692:15964   */\n      pop\n      swap3\n      swap2\n      pop\n      pop\n      jump\t// out\n        /* \"#utility.yul\":15970:16344   */\n    tag_850:\n      0x00\n        /* \"#utility.yul\":16133:16200   */\n      tag_852\n        /* \"#utility.yul\":16197:16199   */\n      0x2a\n        /* \"#utility.yul\":16192:16195   */\n      dup4\n        /* \"#utility.yul\":16133:16200   */\n      tag_847\n      jump\t// in\n    tag_852:\n        /* \"#utility.yul\":16126:16200   */\n      swap2\n      pop\n        /* \"#utility.yul\":16230:16264   */\n      0x57616974206174206c65617374203120686f7572206166746572206465637279\n        /* \"#utility.yul\":16226:16227   */\n      0x00\n        /* \"#utility.yul\":16221:16224   */\n      dup4\n        /* \"#utility.yul\":16217:16228   */\n      add\n        /* \"#utility.yul\":16210:16265   */\n      mstore\n        /* \"#utility.yul\":16296:16308   */\n      0x7074696f6e2074696d6500000000000000000000000000000000000000000000\n        /* \"#utility.yul\":16291:16293   */\n      0x20\n        /* \"#utility.yul\":16286:16289   */\n      dup4\n        /* \"#utility.yul\":16282:16294   */\n      add\n        /* \"#utility.yul\":16275:16309   */\n      mstore\n        /* \"#utility.yul\":16335:16337   */\n      0x40\n        /* \"#utility.yul\":16330:16333   */\n      dup3\n        /* \"#utility.yul\":16326:16338   */\n      add\n        /* \"#utility.yul\":16319:16338   */\n      swap1\n      pop\n        /* \"#utility.yul\":16116:16344   */\n      swap2\n      swap1\n      pop\n      jump\t// out\n        /* \"#utility.yul\":16350:16719   */\n    tag_853:\n      0x00\n        /* \"#utility.yul\":16513:16580   */\n      tag_855\n        /* \"#utility.yul\":16577:16579   */\n      0x25\n        /* \"#utility.yul\":16572:16575   */\n      dup4\n        /* \"#utility.yul\":16513:16580   */\n      tag_847\n      jump\t// in\n    tag_855:\n        /* \"#utility.yul\":16506:16580   */\n      swap2\n      pop\n        /* \"#utility.yul\":16610:16644   */\n      0x43616e6e6f74206578697420776974682070656e64696e672066757475726520\n        /* \"#utility.yul\":16606:16607   */\n      0x00\n        /* \"#utility.yul\":16601:16604   */\n      dup4\n        /* \"#utility.yul\":16597:16608   */\n      add\n        /* \"#utility.yul\":16590:16645   */\n      mstore\n        /* \"#utility.yul\":16676:16683   */\n      0x766f746573000000000000000000000000000000000000000000000000000000\n        /* \"#utility.yul\":16671:16673   */\n      0x20\n        /* \"#utility.yul\":16666:16669   */\n      dup4\n        /* \"#utility.yul\":16662:16674   */\n      add\n        /* \"#utility.yul\":16655:16684   */\n      mstore\n        /* \"#utility.yul\":16710:16712   */\n      0x40\n        /* \"#utility.yul\":16705:16708   */\n      dup3\n        /* \"#utility.yul\":16701:16713   */\n      add\n        /* \"#utility.yul\":16694:16713   */\n      swap1\n      pop\n        /* \"#utility.yul\":16496:16719   */\n      swap2\n      swap1\n      pop\n      jump\t// out\n        /* \"#utility.yul\":16725:17043   */\n    tag_856:\n      0x00\n        /* \"#utility.yul\":16888:16955   */\n      tag_858\n        /* \"#utility.yul\":16952:16954   */\n      0x14\n        /* \"#utility.yul\":16947:16950   */\n      dup4\n        /* \"#utility.yul\":16888:16955   */\n      tag_847\n      jump\t// in\n    tag_858:\n        /* \"#utility.yul\":16881:16955   */\n      swap2\n      pop\n        /* \"#utility.yul\":16985:17007   */\n      0x4e6f7420616e2061637469766520686f6c646572000000000000000000000000\n        /* \"#utility.yul\":16981:16982   */\n      0x00\n        /* \"#utility.yul\":16976:16979   */\n      dup4\n        /* \"#utility.yul\":16972:16983   */\n      add\n        /* \"#utility.yul\":16965:17008   */\n      mstore\n        /* \"#utility.yul\":17034:17036   */\n      0x20\n        /* \"#utility.yul\":17029:17032   */\n      dup3\n        /* \"#utility.yul\":17025:17037   */\n      add\n        /* \"#utility.yul\":17018:17037   */\n      swap1\n      pop\n        /* \"#utility.yul\":16871:17043   */\n      swap2\n      swap1\n      pop\n      jump\t// out\n        /* \"#utility.yul\":17049:17366   */\n    tag_859:\n      0x00\n        /* \"#utility.yul\":17212:17279   */\n      tag_861\n        /* \"#utility.yul\":17276:17278   */\n      0x13\n        /* \"#utility.yul\":17271:17274   */\n      dup4\n        /* \"#utility.yul\":17212:17279   */\n      tag_847\n      jump\t// in\n    tag_861:\n        /* \"#utility.yul\":17205:17279   */\n      swap2\n      pop\n        /* \"#utility.yul\":17309:17330   */\n      0x4e6f207265776172647320746f20636c61696d00000000000000000000000000\n        /* \"#utility.yul\":17305:17306   */\n      0x00\n        /* \"#utility.yul\":17300:17303   */\n      dup4\n        /* \"#utility.yul\":17296:17307   */\n      add\n        /* \"#utility.yul\":17289:17331   */\n      mstore\n        /* \"#utility.yul\":17357:17359   */\n      0x20\n        /* \"#utility.yul\":17352:17355   */\n      dup3\n        /* \"#utility.yul\":17348:17360   */\n      add\n        /* \"#utility.yul\":17341:17360   */\n      swap1\n      pop\n        /* \"#utility.yul\":17195:17366   */\n      swap2\n      swap1\n      pop\n      jump\t// out\n        /* \"#utility.yul\":17372:17739   */\n    tag_862:\n      0x00\n        /* \"#utility.yul\":17535:17602   */\n      tag_864\n        /* \"#utility.yul\":17599:17601   */\n      0x23\n        /* \"#utility.yul\":17594:17597   */\n      dup4\n        /* \"#utility.yul\":17535:17602   */\n      tag_847\n      jump\t// in\n    tag_864:\n        /* \"#utility.yul\":17528:17602   */\n      swap2\n      pop\n        /* \"#utility.yul\":17632:17666   */\n      0x4163636f756e7420616c72656164792061207265676973746572656420686f6c\n        /* \"#utility.yul\":17628:17629   */\n      0x00\n        /* \"#utility.yul\":17623:17626   */\n      dup4\n        /* \"#utility.yul\":17619:17630   */\n      add\n        /* \"#utility.yul\":17612:17667   */\n      mstore\n        /* \"#utility.yul\":17698:17703   */\n      0x6465720000000000000000000000000000000000000000000000000000000000\n        /* \"#utility.yul\":17693:17695   */\n      0x20\n        /* \"#utility.yul\":17688:17691   */\n      dup4\n        /* \"#utility.yul\":17684:17696   */\n      add\n        /* \"#utility.yul\":17677:17704   */\n      mstore\n        /* \"#utility.yul\":17730:17732   */\n      0x40\n        /* \"#utility.yul\":17725:17728   */\n      dup3\n        /* \"#utility.yul\":17721:17733   */\n      add\n        /* \"#utility.yul\":17714:17733   */\n      swap1\n      pop\n        /* \"#utility.yul\":17518:17739   */\n      swap2\n      swap1\n      pop\n      jump\t// out\n        /* \"#utility.yul\":17745:18066   */\n    tag_865:\n      0x00\n        /* \"#utility.yul\":17908:17975   */\n      tag_867\n        /* \"#utility.yul\":17972:17974   */\n      0x17\n        /* \"#utility.yul\":17967:17970   */\n      dup4\n        /* \"#utility.yul\":17908:17975   */\n      tag_847\n      jump\t// in\n    tag_867:\n        /* \"#utility.yul\":17901:17975   */\n      swap2\n      pop\n        /* \"#utility.yul\":18005:18030   */\n      0x456c656374696f6e20646f6573206e6f74206578697374000000000000000000\n        /* \"#utility.yul\":18001:18002   */\n      0x00\n        /* \"#utility.yul\":17996:17999   */\n      dup4\n        /* \"#utility.yul\":17992:18003   */\n      add\n        /* \"#utility.yul\":17985:18031   */\n      mstore\n        /* \"#utility.yul\":18057:18059   */\n      0x20\n        /* \"#utility.yul\":18052:18055   */\n      dup3\n        /* \"#utility.yul\":18048:18060   */\n      add\n        /* \"#utility.yul\":18041:18060   */\n      swap1\n      pop\n        /* \"#utility.yul\":17891:18066   */\n      swap2\n      swap1\n      pop\n      jump\t// out\n        /* \"#utility.yul\":18072:18389   */\n    tag_868:\n      0x00\n        /* \"#utility.yul\":18235:18302   */\n      tag_870\n        /* \"#utility.yul\":18299:18301   */\n      0x13\n        /* \"#utility.yul\":18294:18297   */\n      dup4\n        /* \"#utility.yul\":18235:18302   */\n      tag_847\n      jump\t// in\n    tag_870:\n        /* \"#utility.yul\":18228:18302   */\n      swap2\n      pop\n        /* \"#utility.yul\":18332:18353   */\n      0x4e6f20736861726573207375626d697474656400000000000000000000000000\n        /* \"#utility.yul\":18328:18329   */\n      0x00\n        /* \"#utility.yul\":18323:18326   */\n      dup4\n        /* \"#utility.yul\":18319:18330   */\n      add\n        /* \"#utility.yul\":18312:18354   */\n      mstore\n        /* \"#utility.yul\":18380:18382   */\n      0x20\n        /* \"#utility.yul\":18375:18378   */\n      dup3\n        /* \"#utility.yul\":18371:18383   */\n      add\n        /* \"#utility.yul\":18364:18383   */\n      swap1\n      pop\n        /* \"#utility.yul\":18218:18389   */\n      swap2\n      swap1\n      pop\n      jump\t// out\n        /* \"#utility.yul\":18395:18721   */\n    tag_871:\n      0x00\n        /* \"#utility.yul\":18558:18625   */\n      tag_873\n        /* \"#utility.yul\":18622:18624   */\n      0x1c\n        /* \"#utility.yul\":18617:18620   */\n      dup4\n        /* \"#utility.yul\":18558:18625   */\n      tag_847\n      jump\t// in\n    tag_873:\n        /* \"#utility.yul\":18551:18625   */\n      swap2\n      pop\n        /* \"#utility.yul\":18655:18685   */\n      0x5468726573686f6c64206d757374206265206174206c65617374203200000000\n        /* \"#utility.yul\":18651:18652   */\n      0x00\n        /* \"#utility.yul\":18646:18649   */\n      dup4\n        /* \"#utility.yul\":18642:18653   */\n      add\n        /* \"#utility.yul\":18635:18686   */\n      mstore\n        /* \"#utility.yul\":18712:18714   */\n      0x20\n        /* \"#utility.yul\":18707:18710   */\n      dup3\n        /* \"#utility.yul\":18703:18715   */\n      add\n        /* \"#utility.yul\":18696:18715   */\n      swap1\n      pop\n        /* \"#utility.yul\":18541:18721   */\n      swap2\n      swap1\n      pop\n      jump\t// out\n        /* \"#utility.yul\":18727:19096   */\n    tag_874:\n      0x00\n        /* \"#utility.yul\":18890:18957   */\n      tag_876\n        /* \"#utility.yul\":18954:18956   */\n      0x25\n        /* \"#utility.yul\":18949:18952   */\n      dup4\n        /* \"#utility.yul\":18890:18957   */\n      tag_847\n      jump\t// in\n    tag_876:\n        /* \"#utility.yul\":18883:18957   */\n      swap2\n      pop\n        /* \"#utility.yul\":18987:19021   */\n      0x44656372797074696f6e2074696d65206d75737420626520696e207468652066\n        /* \"#utility.yul\":18983:18984   */\n      0x00\n        /* \"#utility.yul\":18978:18981   */\n      dup4\n        /* \"#utility.yul\":18974:18985   */\n      add\n        /* \"#utility.yul\":18967:19022   */\n      mstore\n        /* \"#utility.yul\":19053:19060   */\n      0x7574757265000000000000000000000000000000000000000000000000000000\n        /* \"#utility.yul\":19048:19050   */\n      0x20\n        /* \"#utility.yul\":19043:19046   */\n      dup4\n        /* \"#utility.yul\":19039:19051   */\n      add\n        /* \"#utility.yul\":19032:19061   */\n      mstore\n        /* \"#utility.yul\":19087:19089   */\n      0x40\n        /* \"#utility.yul\":19082:19085   */\n      dup3\n        /* \"#utility.yul\":19078:19090   */\n      add\n        /* \"#utility.yul\":19071:19090   */\n      swap1\n      pop\n        /* \"#utility.yul\":18873:19096   */\n      swap2\n      swap1\n      pop\n      jump\t// out\n        /* \"#utility.yul\":19102:19467   */\n    tag_877:\n      0x00\n        /* \"#utility.yul\":19265:19332   */\n      tag_879\n        /* \"#utility.yul\":19329:19331   */\n      0x21\n        /* \"#utility.yul\":19324:19327   */\n      dup4\n        /* \"#utility.yul\":19265:19332   */\n      tag_847\n      jump\t// in\n    tag_879:\n        /* \"#utility.yul\":19258:19332   */\n      swap2\n      pop\n        /* \"#utility.yul\":19362:19396   */\n      0x43616c6c6572206973206e6f742061207265676973746572656420686f6c6465\n        /* \"#utility.yul\":19358:19359   */\n      0x00\n        /* \"#utility.yul\":19353:19356   */\n      dup4\n        /* \"#utility.yul\":19349:19360   */\n      add\n        /* \"#utility.yul\":19342:19397   */\n      mstore\n        /* \"#utility.yul\":19428:19431   */\n      0x7200000000000000000000000000000000000000000000000000000000000000\n        /* \"#utility.yul\":19423:19425   */\n      0x20\n        /* \"#utility.yul\":19418:19421   */\n      dup4\n        /* \"#utility.yul\":19414:19426   */\n      add\n        /* \"#utility.yul\":19407:19432   */\n      mstore\n        /* \"#utility.yul\":19458:19460   */\n      0x40\n        /* \"#utility.yul\":19453:19456   */\n      dup3\n        /* \"#utility.yul\":19449:19461   */\n      add\n        /* \"#utility.yul\":19442:19461   */\n      swap1\n      pop\n        /* \"#utility.yul\":19248:19467   */\n      swap2\n      swap1\n      pop\n      jump\t// out\n        /* \"#utility.yul\":19473:19842   */\n    tag_880:\n      0x00\n        /* \"#utility.yul\":19636:19703   */\n      tag_882\n        /* \"#utility.yul\":19700:19702   */\n      0x25\n        /* \"#utility.yul\":19695:19698   */\n      dup4\n        /* \"#utility.yul\":19636:19703   */\n      tag_847\n      jump\t// in\n    tag_882:\n        /* \"#utility.yul\":19629:19703   */\n      swap2\n      pop\n        /* \"#utility.yul\":19733:19767   */\n      0x4d757374207375626d69742073686172657320666f7220616c6c207061737420\n        /* \"#utility.yul\":19729:19730   */\n      0x00\n        /* \"#utility.yul\":19724:19727   */\n      dup4\n        /* \"#utility.yul\":19720:19731   */\n      add\n        /* \"#utility.yul\":19713:19768   */\n      mstore\n        /* \"#utility.yul\":19799:19806   */\n      0x766f746573000000000000000000000000000000000000000000000000000000\n        /* \"#utility.yul\":19794:19796   */\n      0x20\n        /* \"#utility.yul\":19789:19792   */\n      dup4\n        /* \"#utility.yul\":19785:19797   */\n      add\n        /* \"#utility.yul\":19778:19807   */\n      mstore\n        /* \"#utility.yul\":19833:19835   */\n      0x40\n        /* \"#utility.yul\":19828:19831   */\n      dup3\n        /* \"#utility.yul\":19824:19836   */\n      add\n        /* \"#utility.yul\":19817:19836   */\n      swap1\n      pop\n        /* \"#utility.yul\":19619:19842   */\n      swap2\n      swap1\n      pop\n      jump\t// out\n        /* \"#utility.yul\":19848:20173   */\n    tag_883:\n      0x00\n        /* \"#utility.yul\":20011:20078   */\n      tag_885\n        /* \"#utility.yul\":20075:20077   */\n      0x1b\n        /* \"#utility.yul\":20070:20073   */\n      dup4\n        /* \"#utility.yul\":20011:20078   */\n      tag_847\n      jump\t// in\n    tag_885:\n        /* \"#utility.yul\":20004:20078   */\n      swap2\n      pop\n        /* \"#utility.yul\":20108:20137   */\n      0x44656372797074696f6e2074696d65206e6f7420726561636865640000000000\n        /* \"#utility.yul\":20104:20105   */\n      0x00\n        /* \"#utility.yul\":20099:20102   */\n      dup4\n        /* \"#utility.yul\":20095:20106   */\n      add\n        /* \"#utility.yul\":20088:20138   */\n      mstore\n        /* \"#utility.yul\":20164:20166   */\n      0x20\n        /* \"#utility.yul\":20159:20162   */\n      dup3\n        /* \"#utility.yul\":20155:20167   */\n      add\n        /* \"#utility.yul\":20148:20167   */\n      swap1\n      pop\n        /* \"#utility.yul\":19994:20173   */\n      swap2\n      swap1\n      pop\n      jump\t// out\n        /* \"#utility.yul\":20179:20544   */\n    tag_886:\n      0x00\n        /* \"#utility.yul\":20342:20409   */\n      tag_888\n        /* \"#utility.yul\":20406:20408   */\n      0x21\n        /* \"#utility.yul\":20401:20404   */\n      dup4\n        /* \"#utility.yul\":20342:20409   */\n      tag_847\n      jump\t// in\n    tag_888:\n        /* \"#utility.yul\":20335:20409   */\n      swap2\n      pop\n        /* \"#utility.yul\":20439:20473   */\n      0x4163636f756e742069736e27742061207265676973746572656420686f6c6465\n        /* \"#utility.yul\":20435:20436   */\n      0x00\n        /* \"#utility.yul\":20430:20433   */\n      dup4\n        /* \"#utility.yul\":20426:20437   */\n      add\n        /* \"#utility.yul\":20419:20474   */\n      mstore\n        /* \"#utility.yul\":20505:20508   */\n      0x7200000000000000000000000000000000000000000000000000000000000000\n        /* \"#utility.yul\":20500:20502   */\n      0x20\n        /* \"#utility.yul\":20495:20498   */\n      dup4\n        /* \"#utility.yul\":20491:20503   */\n      add\n        /* \"#utility.yul\":20484:20509   */\n      mstore\n        /* \"#utility.yul\":20535:20537   */\n      0x40\n        /* \"#utility.yul\":20530:20533   */\n      dup3\n        /* \"#utility.yul\":20526:20538   */\n      add\n        /* \"#utility.yul\":20519:20538   */\n      swap1\n      pop\n        /* \"#utility.yul\":20325:20544   */\n      swap2\n      swap1\n      pop\n      jump\t// out\n        /* \"#utility.yul\":20550:20880   */\n    tag_889:\n      0x00\n        /* \"#utility.yul\":20713:20780   */\n      tag_891\n        /* \"#utility.yul\":20777:20779   */\n      0x20\n        /* \"#utility.yul\":20772:20775   */\n      dup4\n        /* \"#utility.yul\":20713:20780   */\n      tag_847\n      jump\t// in\n    tag_891:\n        /* \"#utility.yul\":20706:20780   */\n      swap2\n      pop\n        /* \"#utility.yul\":20810:20844   */\n      0x486f6c64657220686173207375626d6974746564207468656972207368617265\n        /* \"#utility.yul\":20806:20807   */\n      0x00\n        /* \"#utility.yul\":20801:20804   */\n      dup4\n        /* \"#utility.yul\":20797:20808   */\n      add\n        /* \"#utility.yul\":20790:20845   */\n      mstore\n        /* \"#utility.yul\":20871:20873   */\n      0x20\n        /* \"#utility.yul\":20866:20869   */\n      dup3\n        /* \"#utility.yul\":20862:20874   */\n      add\n        /* \"#utility.yul\":20855:20874   */\n      swap1\n      pop\n        /* \"#utility.yul\":20696:20880   */\n      swap2\n      swap1\n      pop\n      jump\t// out\n        /* \"#utility.yul\":20886:21211   */\n    tag_892:\n      0x00\n        /* \"#utility.yul\":21049:21116   */\n      tag_894\n        /* \"#utility.yul\":21113:21115   */\n      0x1b\n        /* \"#utility.yul\":21108:21111   */\n      dup4\n        /* \"#utility.yul\":21049:21116   */\n      tag_847\n      jump\t// in\n    tag_894:\n        /* \"#utility.yul\":21042:21116   */\n      swap2\n      pop\n        /* \"#utility.yul\":21146:21175   */\n      0x5265776172647320616c72656164792064697374726962757465640000000000\n        /* \"#utility.yul\":21142:21143   */\n      0x00\n        /* \"#utility.yul\":21137:21140   */\n      dup4\n        /* \"#utility.yul\":21133:21144   */\n      add\n        /* \"#utility.yul\":21126:21176   */\n      mstore\n        /* \"#utility.yul\":21202:21204   */\n      0x20\n        /* \"#utility.yul\":21197:21200   */\n      dup3\n        /* \"#utility.yul\":21193:21205   */\n      add\n        /* \"#utility.yul\":21186:21205   */\n      swap1\n      pop\n        /* \"#utility.yul\":21032:21211   */\n      swap2\n      swap1\n      pop\n      jump\t// out\n        /* \"#utility.yul\":21217:21590   */\n    tag_895:\n      0x00\n        /* \"#utility.yul\":21380:21447   */\n      tag_897\n        /* \"#utility.yul\":21444:21446   */\n      0x29\n        /* \"#utility.yul\":21439:21442   */\n      dup4\n        /* \"#utility.yul\":21380:21447   */\n      tag_847\n      jump\t// in\n    tag_897:\n        /* \"#utility.yul\":21373:21447   */\n      swap2\n      pop\n        /* \"#utility.yul\":21477:21511   */\n      0x5468726573686f6c642063616e6e6f7420657863656564206e756d626572206f\n        /* \"#utility.yul\":21473:21474   */\n      0x00\n        /* \"#utility.yul\":21468:21471   */\n      dup4\n        /* \"#utility.yul\":21464:21475   */\n      add\n        /* \"#utility.yul\":21457:21512   */\n      mstore\n        /* \"#utility.yul\":21543:21554   */\n      0x6620686f6c646572730000000000000000000000000000000000000000000000\n        /* \"#utility.yul\":21538:21540   */\n      0x20\n        /* \"#utility.yul\":21533:21536   */\n      dup4\n        /* \"#utility.yul\":21529:21541   */\n      add\n        /* \"#utility.yul\":21522:21555   */\n      mstore\n        /* \"#utility.yul\":21581:21583   */\n      0x40\n        /* \"#utility.yul\":21576:21579   */\n      dup3\n        /* \"#utility.yul\":21572:21584   */\n      add\n        /* \"#utility.yul\":21565:21584   */\n      swap1\n      pop\n        /* \"#utility.yul\":21363:21590   */\n      swap2\n      swap1\n      pop\n      jump\t// out\n        /* \"#utility.yul\":21596:21912   */\n    tag_898:\n      0x00\n        /* \"#utility.yul\":21759:21826   */\n      tag_900\n        /* \"#utility.yul\":21823:21825   */\n      0x12\n        /* \"#utility.yul\":21818:21821   */\n      dup4\n        /* \"#utility.yul\":21759:21826   */\n      tag_847\n      jump\t// in\n    tag_900:\n        /* \"#utility.yul\":21752:21826   */\n      swap2\n      pop\n        /* \"#utility.yul\":21856:21876   */\n      0x4e6f7420656e6f75676820686f6c646572730000000000000000000000000000\n        /* \"#utility.yul\":21852:21853   */\n      0x00\n        /* \"#utility.yul\":21847:21850   */\n      dup4\n        /* \"#utility.yul\":21843:21854   */\n      add\n        /* \"#utility.yul\":21836:21877   */\n      mstore\n        /* \"#utility.yul\":21903:21905   */\n      0x20\n        /* \"#utility.yul\":21898:21901   */\n      dup3\n        /* \"#utility.yul\":21894:21906   */\n      add\n        /* \"#utility.yul\":21887:21906   */\n      swap1\n      pop\n        /* \"#utility.yul\":21742:21912   */\n      swap2\n      swap1\n      pop\n      jump\t// out\n        /* \"#utility.yul\":21918:22235   */\n    tag_901:\n      0x00\n        /* \"#utility.yul\":22081:22148   */\n      tag_903\n        /* \"#utility.yul\":22145:22147   */\n      0x13\n        /* \"#utility.yul\":22140:22143   */\n      dup4\n        /* \"#utility.yul\":22081:22148   */\n      tag_847\n      jump\t// in\n    tag_903:\n        /* \"#utility.yul\":22074:22148   */\n      swap2\n      pop\n        /* \"#utility.yul\":22178:22199   */\n      0x566f746520646f6573206e6f7420657869737400000000000000000000000000\n        /* \"#utility.yul\":22174:22175   */\n      0x00\n        /* \"#utility.yul\":22169:22172   */\n      dup4\n        /* \"#utility.yul\":22165:22176   */\n      add\n        /* \"#utility.yul\":22158:22200   */\n      mstore\n        /* \"#utility.yul\":22226:22228   */\n      0x20\n        /* \"#utility.yul\":22221:22224   */\n      dup3\n        /* \"#utility.yul\":22217:22229   */\n      add\n        /* \"#utility.yul\":22210:22229   */\n      swap1\n      pop\n        /* \"#utility.yul\":22064:22235   */\n      swap2\n      swap1\n      pop\n      jump\t// out\n        /* \"#utility.yul\":22241:22349   */\n    tag_731:\n        /* \"#utility.yul\":22318:22342   */\n      tag_905\n        /* \"#utility.yul\":22336:22341   */\n      dup2\n        /* \"#utility.yul\":22318:22342   */\n      tag_906\n      jump\t// in\n    tag_905:\n        /* \"#utility.yul\":22313:22316   */\n      dup3\n        /* \"#utility.yul\":22306:22343   */\n      mstore\n        /* \"#utility.yul\":22296:22349   */\n      pop\n      pop\n      jump\t// out\n        /* \"#utility.yul\":22355:22473   */\n    tag_907:\n        /* \"#utility.yul\":22442:22466   */\n      tag_909\n        /* \"#utility.yul\":22460:22465   */\n      dup2\n        /* \"#utility.yul\":22442:22466   */\n      tag_906\n      jump\t// in\n    tag_909:\n        /* \"#utility.yul\":22437:22440   */\n      dup3\n        /* \"#utility.yul\":22430:22467   */\n      mstore\n        /* \"#utility.yul\":22420:22473   */\n      pop\n      pop\n      jump\t// out\n        /* \"#utility.yul\":22479:22750   */\n    tag_367:\n      0x00\n        /* \"#utility.yul\":22631:22724   */\n      tag_911\n        /* \"#utility.yul\":22720:22723   */\n      dup3\n        /* \"#utility.yul\":22711:22717   */\n      dup5\n        /* \"#utility.yul\":22631:22724   */\n      tag_818\n      jump\t// in\n    tag_911:\n        /* \"#utility.yul\":22624:22724   */\n      swap2\n      pop\n        /* \"#utility.yul\":22741:22744   */\n      dup2\n        /* \"#utility.yul\":22734:22744   */\n      swap1\n      pop\n        /* \"#utility.yul\":22613:22750   */\n      swap3\n      swap2\n      pop\n      pop\n      jump\t// out\n        /* \"#utility.yul\":22756:23021   */\n    tag_257:\n      0x00\n        /* \"#utility.yul\":22905:22995   */\n      tag_913\n        /* \"#utility.yul\":22991:22994   */\n      dup3\n        /* \"#utility.yul\":22982:22988   */\n      dup5\n        /* \"#utility.yul\":22905:22995   */\n      tag_824\n      jump\t// in\n    tag_913:\n        /* \"#utility.yul\":22898:22995   */\n      swap2\n      pop\n        /* \"#utility.yul\":23012:23015   */\n      dup2\n        /* \"#utility.yul\":23005:23015   */\n      swap1\n      pop\n        /* \"#utility.yul\":22887:23021   */\n      swap3\n      swap2\n      pop\n      pop\n      jump\t// out\n        /* \"#utility.yul\":23027:23249   */\n    tag_58:\n      0x00\n        /* \"#utility.yul\":23158:23160   */\n      0x20\n        /* \"#utility.yul\":23147:23156   */\n      dup3\n        /* \"#utility.yul\":23143:23161   */\n      add\n        /* \"#utility.yul\":23135:23161   */\n      swap1\n      pop\n        /* \"#utility.yul\":23171:23242   */\n      tag_915\n        /* \"#utility.yul\":23239:23240   */\n      0x00\n        /* \"#utility.yul\":23228:23237   */\n      dup4\n        /* \"#utility.yul\":23224:23241   */\n      add\n        /* \"#utility.yul\":23215:23221   */\n      dup5\n        /* \"#utility.yul\":23171:23242   */\n      tag_735\n      jump\t// in\n    tag_915:\n        /* \"#utility.yul\":23125:23249   */\n      swap3\n      swap2\n      pop\n      pop\n      jump\t// out\n        /* \"#utility.yul\":23255:23628   */\n    tag_113:\n      0x00\n        /* \"#utility.yul\":23436:23438   */\n      0x20\n        /* \"#utility.yul\":23425:23434   */\n      dup3\n        /* \"#utility.yul\":23421:23439   */\n      add\n        /* \"#utility.yul\":23413:23439   */\n      swap1\n      pop\n        /* \"#utility.yul\":23485:23494   */\n      dup2\n        /* \"#utility.yul\":23479:23483   */\n      dup2\n        /* \"#utility.yul\":23475:23495   */\n      sub\n        /* \"#utility.yul\":23471:23472   */\n      0x00\n        /* \"#utility.yul\":23460:23469   */\n      dup4\n        /* \"#utility.yul\":23456:23473   */\n      add\n        /* \"#utility.yul\":23449:23496   */\n      mstore\n        /* \"#utility.yul\":23513:23621   */\n      tag_917\n        /* \"#utility.yul\":23616:23620   */\n      dup2\n        /* \"#utility.yul\":23607:23613   */\n      dup5\n        /* \"#utility.yul\":23513:23621   */\n      tag_738\n      jump\t// in\n    tag_917:\n        /* \"#utility.yul\":23505:23621   */\n      swap1\n      pop\n        /* \"#utility.yul\":23403:23628   */\n      swap3\n      swap2\n      pop\n      pop\n      jump\t// out\n        /* \"#utility.yul\":23634:24360   */\n    tag_125:\n      0x00\n        /* \"#utility.yul\":23939:23941   */\n      0x40\n        /* \"#utility.yul\":23928:23937   */\n      dup3\n        /* \"#utility.yul\":23924:23942   */\n      add\n        /* \"#utility.yul\":23916:23942   */\n      swap1\n      pop\n        /* \"#utility.yul\":23988:23997   */\n      dup2\n        /* \"#utility.yul\":23982:23986   */\n      dup2\n        /* \"#utility.yul\":23978:23998   */\n      sub\n        /* \"#utility.yul\":23974:23975   */\n      0x00\n        /* \"#utility.yul\":23963:23972   */\n      dup4\n        /* \"#utility.yul\":23959:23976   */\n      add\n        /* \"#utility.yul\":23952:23999   */\n      mstore\n        /* \"#utility.yul\":24016:24124   */\n      tag_919\n        /* \"#utility.yul\":24119:24123   */\n      dup2\n        /* \"#utility.yul\":24110:24116   */\n      dup6\n        /* \"#utility.yul\":24016:24124   */\n      tag_738\n      jump\t// in\n    tag_919:\n        /* \"#utility.yul\":24008:24124   */\n      swap1\n      pop\n        /* \"#utility.yul\":24171:24180   */\n      dup2\n        /* \"#utility.yul\":24165:24169   */\n      dup2\n        /* \"#utility.yul\":24161:24181   */\n      sub\n        /* \"#utility.yul\":24156:24158   */\n      0x20\n        /* \"#utility.yul\":24145:24154   */\n      dup4\n        /* \"#utility.yul\":24141:24159   */\n      add\n        /* \"#utility.yul\":24134:24182   */\n      mstore\n        /* \"#utility.yul\":24199:24353   */\n      tag_920\n        /* \"#utility.yul\":24348:24352   */\n      dup2\n        /* \"#utility.yul\":24339:24345   */\n      dup5\n        /* \"#utility.yul\":24199:24353   */\n      tag_752\n      jump\t// in\n    tag_920:\n        /* \"#utility.yul\":24191:24353   */\n      swap1\n      pop\n        /* \"#utility.yul\":23906:24360   */\n      swap4\n      swap3\n      pop\n      pop\n      pop\n      jump\t// out\n        /* \"#utility.yul\":24366:24680   */\n    tag_119:\n      0x00\n        /* \"#utility.yul\":24543:24545   */\n      0x40\n        /* \"#utility.yul\":24532:24541   */\n      dup3\n        /* \"#utility.yul\":24528:24546   */\n      add\n        /* \"#utility.yul\":24520:24546   */\n      swap1\n      pop\n        /* \"#utility.yul\":24556:24673   */\n      tag_922\n        /* \"#utility.yul\":24670:24671   */\n      0x00\n        /* \"#utility.yul\":24659:24668   */\n      dup4\n        /* \"#utility.yul\":24655:24672   */\n      add\n        /* \"#utility.yul\":24646:24652   */\n      dup5\n        /* \"#utility.yul\":24556:24673   */\n      tag_793\n      jump\t// in\n    tag_922:\n        /* \"#utility.yul\":24510:24680   */\n      swap3\n      swap2\n      pop\n      pop\n      jump\t// out\n        /* \"#utility.yul\":24686:24896   */\n    tag_177:\n      0x00\n        /* \"#utility.yul\":24811:24813   */\n      0x20\n        /* \"#utility.yul\":24800:24809   */\n      dup3\n        /* \"#utility.yul\":24796:24814   */\n      add\n        /* \"#utility.yul\":24788:24814   */\n      swap1\n      pop\n        /* \"#utility.yul\":24824:24889   */\n      tag_924\n        /* \"#utility.yul\":24886:24887   */\n      0x00\n        /* \"#utility.yul\":24875:24884   */\n      dup4\n        /* \"#utility.yul\":24871:24888   */\n      add\n        /* \"#utility.yul\":24862:24868   */\n      dup5\n        /* \"#utility.yul\":24824:24889   */\n      tag_804\n      jump\t// in\n    tag_924:\n        /* \"#utility.yul\":24778:24896   */\n      swap3\n      swap2\n      pop\n      pop\n      jump\t// out\n        /* \"#utility.yul\":24902:25211   */\n    tag_159:\n      0x00\n        /* \"#utility.yul\":25051:25053   */\n      0x20\n        /* \"#utility.yul\":25040:25049   */\n      dup3\n        /* \"#utility.yul\":25036:25054   */\n      add\n        /* \"#utility.yul\":25028:25054   */\n      swap1\n      pop\n        /* \"#utility.yul\":25100:25109   */\n      dup2\n        /* \"#utility.yul\":25094:25098   */\n      dup2\n        /* \"#utility.yul\":25090:25110   */\n      sub\n        /* \"#utility.yul\":25086:25087   */\n      0x00\n        /* \"#utility.yul\":25075:25084   */\n      dup4\n        /* \"#utility.yul\":25071:25088   */\n      add\n        /* \"#utility.yul\":25064:25111   */\n      mstore\n        /* \"#utility.yul\":25128:25204   */\n      tag_926\n        /* \"#utility.yul\":25199:25203   */\n      dup2\n        /* \"#utility.yul\":25190:25196   */\n      dup5\n        /* \"#utility.yul\":25128:25204   */\n      tag_808\n      jump\t// in\n    tag_926:\n        /* \"#utility.yul\":25120:25204   */\n      swap1\n      pop\n        /* \"#utility.yul\":25018:25211   */\n      swap3\n      swap2\n      pop\n      pop\n      jump\t// out\n        /* \"#utility.yul\":25217:25956   */\n    tag_76:\n      0x00\n        /* \"#utility.yul\":25472:25475   */\n      0xa0\n        /* \"#utility.yul\":25461:25470   */\n      dup3\n        /* \"#utility.yul\":25457:25476   */\n      add\n        /* \"#utility.yul\":25449:25476   */\n      swap1\n      pop\n        /* \"#utility.yul\":25522:25531   */\n      dup2\n        /* \"#utility.yul\":25516:25520   */\n      dup2\n        /* \"#utility.yul\":25512:25532   */\n      sub\n        /* \"#utility.yul\":25508:25509   */\n      0x00\n        /* \"#utility.yul\":25497:25506   */\n      dup4\n        /* \"#utility.yul\":25493:25510   */\n      add\n        /* \"#utility.yul\":25486:25533   */\n      mstore\n        /* \"#utility.yul\":25550:25626   */\n      tag_928\n        /* \"#utility.yul\":25621:25625   */\n      dup2\n        /* \"#utility.yul\":25612:25618   */\n      dup9\n        /* \"#utility.yul\":25550:25626   */\n      tag_808\n      jump\t// in\n    tag_928:\n        /* \"#utility.yul\":25542:25626   */\n      swap1\n      pop\n        /* \"#utility.yul\":25636:25708   */\n      tag_929\n        /* \"#utility.yul\":25704:25706   */\n      0x20\n        /* \"#utility.yul\":25693:25702   */\n      dup4\n        /* \"#utility.yul\":25689:25707   */\n      add\n        /* \"#utility.yul\":25680:25686   */\n      dup8\n        /* \"#utility.yul\":25636:25708   */\n      tag_735\n      jump\t// in\n    tag_929:\n        /* \"#utility.yul\":25718:25790   */\n      tag_930\n        /* \"#utility.yul\":25786:25788   */\n      0x40\n        /* \"#utility.yul\":25775:25784   */\n      dup4\n        /* \"#utility.yul\":25771:25789   */\n      add\n        /* \"#utility.yul\":25762:25768   */\n      dup7\n        /* \"#utility.yul\":25718:25790   */\n      tag_907\n      jump\t// in\n    tag_930:\n        /* \"#utility.yul\":25800:25866   */\n      tag_931\n        /* \"#utility.yul\":25862:25864   */\n      0x60\n        /* \"#utility.yul\":25851:25860   */\n      dup4\n        /* \"#utility.yul\":25847:25865   */\n      add\n        /* \"#utility.yul\":25838:25844   */\n      dup6\n        /* \"#utility.yul\":25800:25866   */\n      tag_804\n      jump\t// in\n    tag_931:\n        /* \"#utility.yul\":25876:25949   */\n      tag_932\n        /* \"#utility.yul\":25944:25947   */\n      0x80\n        /* \"#utility.yul\":25933:25942   */\n      dup4\n        /* \"#utility.yul\":25929:25948   */\n      add\n        /* \"#utility.yul\":25920:25926   */\n      dup5\n        /* \"#utility.yul\":25876:25949   */\n      tag_907\n      jump\t// in\n    tag_932:\n        /* \"#utility.yul\":25439:25956   */\n      swap7\n      swap6\n      pop\n      pop\n      pop\n      pop\n      pop\n      pop\n      jump\t// out\n        /* \"#utility.yul\":25962:26892   */\n    tag_98:\n      0x00\n        /* \"#utility.yul\":26287:26290   */\n      0xc0\n        /* \"#utility.yul\":26276:26285   */\n      dup3\n        /* \"#utility.yul\":26272:26291   */\n      add\n        /* \"#utility.yul\":26264:26291   */\n      swap1\n      pop\n        /* \"#utility.yul\":26337:26346   */\n      dup2\n        /* \"#utility.yul\":26331:26335   */\n      dup2\n        /* \"#utility.yul\":26327:26347   */\n      sub\n        /* \"#utility.yul\":26323:26324   */\n      0x00\n        /* \"#utility.yul\":26312:26321   */\n      dup4\n        /* \"#utility.yul\":26308:26325   */\n      add\n        /* \"#utility.yul\":26301:26348   */\n      mstore\n        /* \"#utility.yul\":26365:26441   */\n      tag_934\n        /* \"#utility.yul\":26436:26440   */\n      dup2\n        /* \"#utility.yul\":26427:26433   */\n      dup9\n        /* \"#utility.yul\":26365:26441   */\n      tag_808\n      jump\t// in\n    tag_934:\n        /* \"#utility.yul\":26357:26441   */\n      swap1\n      pop\n        /* \"#utility.yul\":26488:26497   */\n      dup2\n        /* \"#utility.yul\":26482:26486   */\n      dup2\n        /* \"#utility.yul\":26478:26498   */\n      sub\n        /* \"#utility.yul\":26473:26475   */\n      0x20\n        /* \"#utility.yul\":26462:26471   */\n      dup4\n        /* \"#utility.yul\":26458:26476   */\n      add\n        /* \"#utility.yul\":26451:26499   */\n      mstore\n        /* \"#utility.yul\":26516:26592   */\n      tag_935\n        /* \"#utility.yul\":26587:26591   */\n      dup2\n        /* \"#utility.yul\":26578:26584   */\n      dup8\n        /* \"#utility.yul\":26516:26592   */\n      tag_808\n      jump\t// in\n    tag_935:\n        /* \"#utility.yul\":26508:26592   */\n      swap1\n      pop\n        /* \"#utility.yul\":26602:26674   */\n      tag_936\n        /* \"#utility.yul\":26670:26672   */\n      0x40\n        /* \"#utility.yul\":26659:26668   */\n      dup4\n        /* \"#utility.yul\":26655:26673   */\n      add\n        /* \"#utility.yul\":26646:26652   */\n      dup7\n        /* \"#utility.yul\":26602:26674   */\n      tag_907\n      jump\t// in\n    tag_936:\n        /* \"#utility.yul\":26684:26802   */\n      tag_937\n        /* \"#utility.yul\":26798:26800   */\n      0x60\n        /* \"#utility.yul\":26787:26796   */\n      dup4\n        /* \"#utility.yul\":26783:26801   */\n      add\n        /* \"#utility.yul\":26774:26780   */\n      dup6\n        /* \"#utility.yul\":26684:26802   */\n      tag_793\n      jump\t// in\n    tag_937:\n        /* \"#utility.yul\":26812:26885   */\n      tag_938\n        /* \"#utility.yul\":26880:26883   */\n      0xa0\n        /* \"#utility.yul\":26869:26878   */\n      dup4\n        /* \"#utility.yul\":26865:26884   */\n      add\n        /* \"#utility.yul\":26856:26862   */\n      dup5\n        /* \"#utility.yul\":26812:26885   */\n      tag_907\n      jump\t// in\n    tag_938:\n        /* \"#utility.yul\":26254:26892   */\n      swap7\n      swap6\n      pop\n      pop\n      pop\n      pop\n      pop\n      pop\n      jump\t// out\n        /* \"#utility.yul\":26898:27934   */\n    tag_108:\n      0x00\n        /* \"#utility.yul\":27221:27224   */\n      0xe0\n        /* \"#utility.yul\":27210:27219   */\n      dup3\n        /* \"#utility.yul\":27206:27225   */\n      add\n        /* \"#utility.yul\":27198:27225   */\n      swap1\n      pop\n        /* \"#utility.yul\":27271:27280   */\n      dup2\n        /* \"#utility.yul\":27265:27269   */\n      dup2\n        /* \"#utility.yul\":27261:27281   */\n      sub\n        /* \"#utility.yul\":27257:27258   */\n      0x00\n        /* \"#utility.yul\":27246:27255   */\n      dup4\n        /* \"#utility.yul\":27242:27259   */\n      add\n        /* \"#utility.yul\":27235:27282   */\n      mstore\n        /* \"#utility.yul\":27299:27375   */\n      tag_940\n        /* \"#utility.yul\":27370:27374   */\n      dup2\n        /* \"#utility.yul\":27361:27367   */\n      dup11\n        /* \"#utility.yul\":27299:27375   */\n      tag_808\n      jump\t// in\n    tag_940:\n        /* \"#utility.yul\":27291:27375   */\n      swap1\n      pop\n        /* \"#utility.yul\":27422:27431   */\n      dup2\n        /* \"#utility.yul\":27416:27420   */\n      dup2\n        /* \"#utility.yul\":27412:27432   */\n      sub\n        /* \"#utility.yul\":27407:27409   */\n      0x20\n        /* \"#utility.yul\":27396:27405   */\n      dup4\n        /* \"#utility.yul\":27392:27410   */\n      add\n        /* \"#utility.yul\":27385:27433   */\n      mstore\n        /* \"#utility.yul\":27450:27526   */\n      tag_941\n        /* \"#utility.yul\":27521:27525   */\n      dup2\n        /* \"#utility.yul\":27512:27518   */\n      dup10\n        /* \"#utility.yul\":27450:27526   */\n      tag_808\n      jump\t// in\n    tag_941:\n        /* \"#utility.yul\":27442:27526   */\n      swap1\n      pop\n        /* \"#utility.yul\":27536:27608   */\n      tag_942\n        /* \"#utility.yul\":27604:27606   */\n      0x40\n        /* \"#utility.yul\":27593:27602   */\n      dup4\n        /* \"#utility.yul\":27589:27607   */\n      add\n        /* \"#utility.yul\":27580:27586   */\n      dup9\n        /* \"#utility.yul\":27536:27608   */\n      tag_907\n      jump\t// in\n    tag_942:\n        /* \"#utility.yul\":27618:27684   */\n      tag_943\n        /* \"#utility.yul\":27680:27682   */\n      0x60\n        /* \"#utility.yul\":27669:27678   */\n      dup4\n        /* \"#utility.yul\":27665:27683   */\n      add\n        /* \"#utility.yul\":27656:27662   */\n      dup8\n        /* \"#utility.yul\":27618:27684   */\n      tag_804\n      jump\t// in\n    tag_943:\n        /* \"#utility.yul\":27694:27767   */\n      tag_944\n        /* \"#utility.yul\":27762:27765   */\n      0x80\n        /* \"#utility.yul\":27751:27760   */\n      dup4\n        /* \"#utility.yul\":27747:27766   */\n      add\n        /* \"#utility.yul\":27738:27744   */\n      dup7\n        /* \"#utility.yul\":27694:27767   */\n      tag_907\n      jump\t// in\n    tag_944:\n        /* \"#utility.yul\":27777:27844   */\n      tag_945\n        /* \"#utility.yul\":27839:27842   */\n      0xa0\n        /* \"#utility.yul\":27828:27837   */\n      dup4\n        /* \"#utility.yul\":27824:27843   */\n      add\n        /* \"#utility.yul\":27815:27821   */\n      dup6\n        /* \"#utility.yul\":27777:27844   */\n      tag_804\n      jump\t// in\n    tag_945:\n        /* \"#utility.yul\":27854:27927   */\n      tag_946\n        /* \"#utility.yul\":27922:27925   */\n      0xc0\n        /* \"#utility.yul\":27911:27920   */\n      dup4\n        /* \"#utility.yul\":27907:27926   */\n      add\n        /* \"#utility.yul\":27898:27904   */\n      dup5\n        /* \"#utility.yul\":27854:27927   */\n      tag_907\n      jump\t// in\n    tag_946:\n        /* \"#utility.yul\":27188:27934   */\n      swap9\n      swap8\n      pop\n      pop\n      pop\n      pop\n      pop\n      pop\n      pop\n      pop\n      jump\t// out\n        /* \"#utility.yul\":27940:28359   */\n    tag_468:\n      0x00\n        /* \"#utility.yul\":28144:28146   */\n      0x20\n        /* \"#utility.yul\":28133:28142   */\n      dup3\n        /* \"#utility.yul\":28129:28147   */\n      add\n        /* \"#utility.yul\":28121:28147   */\n      swap1\n      pop\n        /* \"#utility.yul\":28193:28202   */\n      dup2\n        /* \"#utility.yul\":28187:28191   */\n      dup2\n        /* \"#utility.yul\":28183:28203   */\n      sub\n        /* \"#utility.yul\":28179:28180   */\n      0x00\n        /* \"#utility.yul\":28168:28177   */\n      dup4\n        /* \"#utility.yul\":28164:28181   */\n      add\n        /* \"#utility.yul\":28157:28204   */\n      mstore\n        /* \"#utility.yul\":28221:28352   */\n      tag_948\n        /* \"#utility.yul\":28347:28351   */\n      dup2\n        /* \"#utility.yul\":28221:28352   */\n      tag_850\n      jump\t// in\n    tag_948:\n        /* \"#utility.yul\":28213:28352   */\n      swap1\n      pop\n        /* \"#utility.yul\":28111:28359   */\n      swap2\n      swap1\n      pop\n      jump\t// out\n        /* \"#utility.yul\":28365:28784   */\n    tag_325:\n      0x00\n        /* \"#utility.yul\":28569:28571   */\n      0x20\n        /* \"#utility.yul\":28558:28567   */\n      dup3\n        /* \"#utility.yul\":28554:28572   */\n      add\n        /* \"#utility.yul\":28546:28572   */\n      swap1\n      pop\n        /* \"#utility.yul\":28618:28627   */\n      dup2\n        /* \"#utility.yul\":28612:28616   */\n      dup2\n        /* \"#utility.yul\":28608:28628   */\n      sub\n        /* \"#utility.yul\":28604:28605   */\n      0x00\n        /* \"#utility.yul\":28593:28602   */\n      dup4\n        /* \"#utility.yul\":28589:28606   */\n      add\n        /* \"#utility.yul\":28582:28629   */\n      mstore\n        /* \"#utility.yul\":28646:28777   */\n      tag_950\n        /* \"#utility.yul\":28772:28776   */\n      dup2\n        /* \"#utility.yul\":28646:28777   */\n      tag_853\n      jump\t// in\n    tag_950:\n        /* \"#utility.yul\":28638:28777   */\n      swap1\n      pop\n        /* \"#utility.yul\":28536:28784   */\n      swap2\n      swap1\n      pop\n      jump\t// out\n        /* \"#utility.yul\":28790:29209   */\n    tag_403:\n      0x00\n        /* \"#utility.yul\":28994:28996   */\n      0x20\n        /* \"#utility.yul\":28983:28992   */\n      dup3\n        /* \"#utility.yul\":28979:28997   */\n      add\n        /* \"#utility.yul\":28971:28997   */\n      swap1\n      pop\n        /* \"#utility.yul\":29043:29052   */\n      dup2\n        /* \"#utility.yul\":29037:29041   */\n      dup2\n        /* \"#utility.yul\":29033:29053   */\n      sub\n        /* \"#utility.yul\":29029:29030   */\n      0x00\n        /* \"#utility.yul\":29018:29027   */\n      dup4\n        /* \"#utility.yul\":29014:29031   */\n      add\n        /* \"#utility.yul\":29007:29054   */\n      mstore\n        /* \"#utility.yul\":29071:29202   */\n      tag_952\n        /* \"#utility.yul\":29197:29201   */\n      dup2\n        /* \"#utility.yul\":29071:29202   */\n      tag_856\n      jump\t// in\n    tag_952:\n        /* \"#utility.yul\":29063:29202   */\n      swap1\n      pop\n        /* \"#utility.yul\":28961:29209   */\n      swap2\n      swap1\n      pop\n      jump\t// out\n        /* \"#utility.yul\":29215:29634   */\n    tag_288:\n      0x00\n        /* \"#utility.yul\":29419:29421   */\n      0x20\n        /* \"#utility.yul\":29408:29417   */\n      dup3\n        /* \"#utility.yul\":29404:29422   */\n      add\n        /* \"#utility.yul\":29396:29422   */\n      swap1\n      pop\n        /* \"#utility.yul\":29468:29477   */\n      dup2\n        /* \"#utility.yul\":29462:29466   */\n      dup2\n        /* \"#utility.yul\":29458:29478   */\n      sub\n        /* \"#utility.yul\":29454:29455   */\n      0x00\n        /* \"#utility.yul\":29443:29452   */\n      dup4\n        /* \"#utility.yul\":29439:29456   */\n      add\n        /* \"#utility.yul\":29432:29479   */\n      mstore\n        /* \"#utility.yul\":29496:29627   */\n      tag_954\n        /* \"#utility.yul\":29622:29626   */\n      dup2\n        /* \"#utility.yul\":29496:29627   */\n      tag_859\n      jump\t// in\n    tag_954:\n        /* \"#utility.yul\":29488:29627   */\n      swap1\n      pop\n        /* \"#utility.yul\":29386:29634   */\n      swap2\n      swap1\n      pop\n      jump\t// out\n        /* \"#utility.yul\":29640:30059   */\n    tag_364:\n      0x00\n        /* \"#utility.yul\":29844:29846   */\n      0x20\n        /* \"#utility.yul\":29833:29842   */\n      dup3\n        /* \"#utility.yul\":29829:29847   */\n      add\n        /* \"#utility.yul\":29821:29847   */\n      swap1\n      pop\n        /* \"#utility.yul\":29893:29902   */\n      dup2\n        /* \"#utility.yul\":29887:29891   */\n      dup2\n        /* \"#utility.yul\":29883:29903   */\n      sub\n        /* \"#utility.yul\":29879:29880   */\n      0x00\n        /* \"#utility.yul\":29868:29877   */\n      dup4\n        /* \"#utility.yul\":29864:29881   */\n      add\n        /* \"#utility.yul\":29857:29904   */\n      mstore\n        /* \"#utility.yul\":29921:30052   */\n      tag_956\n        /* \"#utility.yul\":30047:30051   */\n      dup2\n        /* \"#utility.yul\":29921:30052   */\n      tag_862\n      jump\t// in\n    tag_956:\n        /* \"#utility.yul\":29913:30052   */\n      swap1\n      pop\n        /* \"#utility.yul\":29811:30059   */\n      swap2\n      swap1\n      pop\n      jump\t// out\n        /* \"#utility.yul\":30065:30484   */\n    tag_479:\n      0x00\n        /* \"#utility.yul\":30269:30271   */\n      0x20\n        /* \"#utility.yul\":30258:30267   */\n      dup3\n        /* \"#utility.yul\":30254:30272   */\n      add\n        /* \"#utility.yul\":30246:30272   */\n      swap1\n      pop\n        /* \"#utility.yul\":30318:30327   */\n      dup2\n        /* \"#utility.yul\":30312:30316   */\n      dup2\n        /* \"#utility.yul\":30308:30328   */\n      sub\n        /* \"#utility.yul\":30304:30305   */\n      0x00\n        /* \"#utility.yul\":30293:30302   */\n      dup4\n        /* \"#utility.yul\":30289:30306   */\n      add\n        /* \"#utility.yul\":30282:30329   */\n      mstore\n        /* \"#utility.yul\":30346:30477   */\n      tag_958\n        /* \"#utility.yul\":30472:30476   */\n      dup2\n        /* \"#utility.yul\":30346:30477   */\n      tag_865\n      jump\t// in\n    tag_958:\n        /* \"#utility.yul\":30338:30477   */\n      swap1\n      pop\n        /* \"#utility.yul\":30236:30484   */\n      swap2\n      swap1\n      pop\n      jump\t// out\n        /* \"#utility.yul\":30490:30909   */\n    tag_474:\n      0x00\n        /* \"#utility.yul\":30694:30696   */\n      0x20\n        /* \"#utility.yul\":30683:30692   */\n      dup3\n        /* \"#utility.yul\":30679:30697   */\n      add\n        /* \"#utility.yul\":30671:30697   */\n      swap1\n      pop\n        /* \"#utility.yul\":30743:30752   */\n      dup2\n        /* \"#utility.yul\":30737:30741   */\n      dup2\n        /* \"#utility.yul\":30733:30753   */\n      sub\n        /* \"#utility.yul\":30729:30730   */\n      0x00\n        /* \"#utility.yul\":30718:30727   */\n      dup4\n        /* \"#utility.yul\":30714:30731   */\n      add\n        /* \"#utility.yul\":30707:30754   */\n      mstore\n        /* \"#utility.yul\":30771:30902   */\n      tag_960\n        /* \"#utility.yul\":30897:30901   */\n      dup2\n        /* \"#utility.yul\":30771:30902   */\n      tag_868\n      jump\t// in\n    tag_960:\n        /* \"#utility.yul\":30763:30902   */\n      swap1\n      pop\n        /* \"#utility.yul\":30661:30909   */\n      swap2\n      swap1\n      pop\n      jump\t// out\n        /* \"#utility.yul\":30915:31334   */\n    tag_225:\n      0x00\n        /* \"#utility.yul\":31119:31121   */\n      0x20\n        /* \"#utility.yul\":31108:31117   */\n      dup3\n        /* \"#utility.yul\":31104:31122   */\n      add\n        /* \"#utility.yul\":31096:31122   */\n      swap1\n      pop\n        /* \"#utility.yul\":31168:31177   */\n      dup2\n        /* \"#utility.yul\":31162:31166   */\n      dup2\n        /* \"#utility.yul\":31158:31178   */\n      sub\n        /* \"#utility.yul\":31154:31155   */\n      0x00\n        /* \"#utility.yul\":31143:31152   */\n      dup4\n        /* \"#utility.yul\":31139:31156   */\n      add\n        /* \"#utility.yul\":31132:31179   */\n      mstore\n        /* \"#utility.yul\":31196:31327   */\n      tag_962\n        /* \"#utility.yul\":31322:31326   */\n      dup2\n        /* \"#utility.yul\":31196:31327   */\n      tag_871\n      jump\t// in\n    tag_962:\n        /* \"#utility.yul\":31188:31327   */\n      swap1\n      pop\n        /* \"#utility.yul\":31086:31334   */\n      swap2\n      swap1\n      pop\n      jump\t// out\n        /* \"#utility.yul\":31340:31759   */\n    tag_222:\n      0x00\n        /* \"#utility.yul\":31544:31546   */\n      0x20\n        /* \"#utility.yul\":31533:31542   */\n      dup3\n        /* \"#utility.yul\":31529:31547   */\n      add\n        /* \"#utility.yul\":31521:31547   */\n      swap1\n      pop\n        /* \"#utility.yul\":31593:31602   */\n      dup2\n        /* \"#utility.yul\":31587:31591   */\n      dup2\n        /* \"#utility.yul\":31583:31603   */\n      sub\n        /* \"#utility.yul\":31579:31580   */\n      0x00\n        /* \"#utility.yul\":31568:31577   */\n      dup4\n        /* \"#utility.yul\":31564:31581   */\n      add\n        /* \"#utility.yul\":31557:31604   */\n      mstore\n        /* \"#utility.yul\":31621:31752   */\n      tag_964\n        /* \"#utility.yul\":31747:31751   */\n      dup2\n        /* \"#utility.yul\":31621:31752   */\n      tag_874\n      jump\t// in\n    tag_964:\n        /* \"#utility.yul\":31613:31752   */\n      swap1\n      pop\n        /* \"#utility.yul\":31511:31759   */\n      swap2\n      swap1\n      pop\n      jump\t// out\n        /* \"#utility.yul\":31765:32184   */\n    tag_249:\n      0x00\n        /* \"#utility.yul\":31969:31971   */\n      0x20\n        /* \"#utility.yul\":31958:31967   */\n      dup3\n        /* \"#utility.yul\":31954:31972   */\n      add\n        /* \"#utility.yul\":31946:31972   */\n      swap1\n      pop\n        /* \"#utility.yul\":32018:32027   */\n      dup2\n        /* \"#utility.yul\":32012:32016   */\n      dup2\n        /* \"#utility.yul\":32008:32028   */\n      sub\n        /* \"#utility.yul\":32004:32005   */\n      0x00\n        /* \"#utility.yul\":31993:32002   */\n      dup4\n        /* \"#utility.yul\":31989:32006   */\n      add\n        /* \"#utility.yul\":31982:32029   */\n      mstore\n        /* \"#utility.yul\":32046:32177   */\n      tag_966\n        /* \"#utility.yul\":32172:32176   */\n      dup2\n        /* \"#utility.yul\":32046:32177   */\n      tag_877\n      jump\t// in\n    tag_966:\n        /* \"#utility.yul\":32038:32177   */\n      swap1\n      pop\n        /* \"#utility.yul\":31936:32184   */\n      swap2\n      swap1\n      pop\n      jump\t// out\n        /* \"#utility.yul\":32190:32609   */\n    tag_320:\n      0x00\n        /* \"#utility.yul\":32394:32396   */\n      0x20\n        /* \"#utility.yul\":32383:32392   */\n      dup3\n        /* \"#utility.yul\":32379:32397   */\n      add\n        /* \"#utility.yul\":32371:32397   */\n      swap1\n      pop\n        /* \"#utility.yul\":32443:32452   */\n      dup2\n        /* \"#utility.yul\":32437:32441   */\n      dup2\n        /* \"#utility.yul\":32433:32453   */\n      sub\n        /* \"#utility.yul\":32429:32430   */\n      0x00\n        /* \"#utility.yul\":32418:32427   */\n      dup4\n        /* \"#utility.yul\":32414:32431   */\n      add\n        /* \"#utility.yul\":32407:32454   */\n      mstore\n        /* \"#utility.yul\":32471:32602   */\n      tag_968\n        /* \"#utility.yul\":32597:32601   */\n      dup2\n        /* \"#utility.yul\":32471:32602   */\n      tag_880\n      jump\t// in\n    tag_968:\n        /* \"#utility.yul\":32463:32602   */\n      swap1\n      pop\n        /* \"#utility.yul\":32361:32609   */\n      swap2\n      swap1\n      pop\n      jump\t// out\n        /* \"#utility.yul\":32615:33034   */\n    tag_433:\n      0x00\n        /* \"#utility.yul\":32819:32821   */\n      0x20\n        /* \"#utility.yul\":32808:32817   */\n      dup3\n        /* \"#utility.yul\":32804:32822   */\n      add\n        /* \"#utility.yul\":32796:32822   */\n      swap1\n      pop\n        /* \"#utility.yul\":32868:32877   */\n      dup2\n        /* \"#utility.yul\":32862:32866   */\n      dup2\n        /* \"#utility.yul\":32858:32878   */\n      sub\n        /* \"#utility.yul\":32854:32855   */\n      0x00\n        /* \"#utility.yul\":32843:32852   */\n      dup4\n        /* \"#utility.yul\":32839:32856   */\n      add\n        /* \"#utility.yul\":32832:32879   */\n      mstore\n        /* \"#utility.yul\":32896:33027   */\n      tag_970\n        /* \"#utility.yul\":33022:33026   */\n      dup2\n        /* \"#utility.yul\":32896:33027   */\n      tag_883\n      jump\t// in\n    tag_970:\n        /* \"#utility.yul\":32888:33027   */\n      swap1\n      pop\n        /* \"#utility.yul\":32786:33034   */\n      swap2\n      swap1\n      pop\n      jump\t// out\n        /* \"#utility.yul\":33040:33459   */\n    tag_281:\n      0x00\n        /* \"#utility.yul\":33244:33246   */\n      0x20\n        /* \"#utility.yul\":33233:33242   */\n      dup3\n        /* \"#utility.yul\":33229:33247   */\n      add\n        /* \"#utility.yul\":33221:33247   */\n      swap1\n      pop\n        /* \"#utility.yul\":33293:33302   */\n      dup2\n        /* \"#utility.yul\":33287:33291   */\n      dup2\n        /* \"#utility.yul\":33283:33303   */\n      sub\n        /* \"#utility.yul\":33279:33280   */\n      0x00\n        /* \"#utility.yul\":33268:33277   */\n      dup4\n        /* \"#utility.yul\":33264:33281   */\n      add\n        /* \"#utility.yul\":33257:33304   */\n      mstore\n        /* \"#utility.yul\":33321:33452   */\n      tag_972\n        /* \"#utility.yul\":33447:33451   */\n      dup2\n        /* \"#utility.yul\":33321:33452   */\n      tag_886\n      jump\t// in\n    tag_972:\n        /* \"#utility.yul\":33313:33452   */\n      swap1\n      pop\n        /* \"#utility.yul\":33211:33459   */\n      swap2\n      swap1\n      pop\n      jump\t// out\n        /* \"#utility.yul\":33465:33884   */\n    tag_533:\n      0x00\n        /* \"#utility.yul\":33669:33671   */\n      0x20\n        /* \"#utility.yul\":33658:33667   */\n      dup3\n        /* \"#utility.yul\":33654:33672   */\n      add\n        /* \"#utility.yul\":33646:33672   */\n      swap1\n      pop\n        /* \"#utility.yul\":33718:33727   */\n      dup2\n        /* \"#utility.yul\":33712:33716   */\n      dup2\n        /* \"#utility.yul\":33708:33728   */\n      sub\n        /* \"#utility.yul\":33704:33705   */\n      0x00\n        /* \"#utility.yul\":33693:33702   */\n      dup4\n        /* \"#utility.yul\":33689:33706   */\n      add\n        /* \"#utility.yul\":33682:33729   */\n      mstore\n        /* \"#utility.yul\":33746:33877   */\n      tag_974\n        /* \"#utility.yul\":33872:33876   */\n      dup2\n        /* \"#utility.yul\":33746:33877   */\n      tag_889\n      jump\t// in\n    tag_974:\n        /* \"#utility.yul\":33738:33877   */\n      swap1\n      pop\n        /* \"#utility.yul\":33636:33884   */\n      swap2\n      swap1\n      pop\n      jump\t// out\n        /* \"#utility.yul\":33890:34309   */\n    tag_471:\n      0x00\n        /* \"#utility.yul\":34094:34096   */\n      0x20\n        /* \"#utility.yul\":34083:34092   */\n      dup3\n        /* \"#utility.yul\":34079:34097   */\n      add\n        /* \"#utility.yul\":34071:34097   */\n      swap1\n      pop\n        /* \"#utility.yul\":34143:34152   */\n      dup2\n        /* \"#utility.yul\":34137:34141   */\n      dup2\n        /* \"#utility.yul\":34133:34153   */\n      sub\n        /* \"#utility.yul\":34129:34130   */\n      0x00\n        /* \"#utility.yul\":34118:34127   */\n      dup4\n        /* \"#utility.yul\":34114:34131   */\n      add\n        /* \"#utility.yul\":34107:34154   */\n      mstore\n        /* \"#utility.yul\":34171:34302   */\n      tag_976\n        /* \"#utility.yul\":34297:34301   */\n      dup2\n        /* \"#utility.yul\":34171:34302   */\n      tag_892\n      jump\t// in\n    tag_976:\n        /* \"#utility.yul\":34163:34302   */\n      swap1\n      pop\n        /* \"#utility.yul\":34061:34309   */\n      swap2\n      swap1\n      pop\n      jump\t// out\n        /* \"#utility.yul\":34315:34734   */\n    tag_229:\n      0x00\n        /* \"#utility.yul\":34519:34521   */\n      0x20\n        /* \"#utility.yul\":34508:34517   */\n      dup3\n        /* \"#utility.yul\":34504:34522   */\n      add\n        /* \"#utility.yul\":34496:34522   */\n      swap1\n      pop\n        /* \"#utility.yul\":34568:34577   */\n      dup2\n        /* \"#utility.yul\":34562:34566   */\n      dup2\n        /* \"#utility.yul\":34558:34578   */\n      sub\n        /* \"#utility.yul\":34554:34555   */\n      0x00\n        /* \"#utility.yul\":34543:34552   */\n      dup4\n        /* \"#utility.yul\":34539:34556   */\n      add\n        /* \"#utility.yul\":34532:34579   */\n      mstore\n        /* \"#utility.yul\":34596:34727   */\n      tag_978\n        /* \"#utility.yul\":34722:34726   */\n      dup2\n        /* \"#utility.yul\":34596:34727   */\n      tag_895\n      jump\t// in\n    tag_978:\n        /* \"#utility.yul\":34588:34727   */\n      swap1\n      pop\n        /* \"#utility.yul\":34486:34734   */\n      swap2\n      swap1\n      pop\n      jump\t// out\n        /* \"#utility.yul\":34740:35159   */\n    tag_219:\n      0x00\n        /* \"#utility.yul\":34944:34946   */\n      0x20\n        /* \"#utility.yul\":34933:34942   */\n      dup3\n        /* \"#utility.yul\":34929:34947   */\n      add\n        /* \"#utility.yul\":34921:34947   */\n      swap1\n      pop\n        /* \"#utility.yul\":34993:35002   */\n      dup2\n        /* \"#utility.yul\":34987:34991   */\n      dup2\n        /* \"#utility.yul\":34983:35003   */\n      sub\n        /* \"#utility.yul\":34979:34980   */\n      0x00\n        /* \"#utility.yul\":34968:34977   */\n      dup4\n        /* \"#utility.yul\":34964:34981   */\n      add\n        /* \"#utility.yul\":34957:35004   */\n      mstore\n        /* \"#utility.yul\":35021:35152   */\n      tag_980\n        /* \"#utility.yul\":35147:35151   */\n      dup2\n        /* \"#utility.yul\":35021:35152   */\n      tag_898\n      jump\t// in\n    tag_980:\n        /* \"#utility.yul\":35013:35152   */\n      swap1\n      pop\n        /* \"#utility.yul\":34911:35159   */\n      swap2\n      swap1\n      pop\n      jump\t// out\n        /* \"#utility.yul\":35165:35584   */\n    tag_211:\n      0x00\n        /* \"#utility.yul\":35369:35371   */\n      0x20\n        /* \"#utility.yul\":35358:35367   */\n      dup3\n        /* \"#utility.yul\":35354:35372   */\n      add\n        /* \"#utility.yul\":35346:35372   */\n      swap1\n      pop\n        /* \"#utility.yul\":35418:35427   */\n      dup2\n        /* \"#utility.yul\":35412:35416   */\n      dup2\n        /* \"#utility.yul\":35408:35428   */\n      sub\n        /* \"#utility.yul\":35404:35405   */\n      0x00\n        /* \"#utility.yul\":35393:35402   */\n      dup4\n        /* \"#utility.yul\":35389:35406   */\n      add\n        /* \"#utility.yul\":35382:35429   */\n      mstore\n        /* \"#utility.yul\":35446:35577   */\n      tag_982\n        /* \"#utility.yul\":35572:35576   */\n      dup2\n        /* \"#utility.yul\":35446:35577   */\n      tag_901\n      jump\t// in\n    tag_982:\n        /* \"#utility.yul\":35438:35577   */\n      swap1\n      pop\n        /* \"#utility.yul\":35336:35584   */\n      swap2\n      swap1\n      pop\n      jump\t// out\n        /* \"#utility.yul\":35590:35812   */\n    tag_46:\n      0x00\n        /* \"#utility.yul\":35721:35723   */\n      0x20\n        /* \"#utility.yul\":35710:35719   */\n      dup3\n        /* \"#utility.yul\":35706:35724   */\n      add\n        /* \"#utility.yul\":35698:35724   */\n      swap1\n      pop\n        /* \"#utility.yul\":35734:35805   */\n      tag_984\n        /* \"#utility.yul\":35802:35803   */\n      0x00\n        /* \"#utility.yul\":35791:35800   */\n      dup4\n        /* \"#utility.yul\":35787:35804   */\n      add\n        /* \"#utility.yul\":35778:35784   */\n      dup5\n        /* \"#utility.yul\":35734:35805   */\n      tag_907\n      jump\t// in\n    tag_984:\n        /* \"#utility.yul\":35688:35812   */\n      swap3\n      swap2\n      pop\n      pop\n      jump\t// out\n        /* \"#utility.yul\":35818:36248   */\n    tag_69:\n      0x00\n        /* \"#utility.yul\":35999:36001   */\n      0x60\n        /* \"#utility.yul\":35988:35997   */\n      dup3\n        /* \"#utility.yul\":35984:36002   */\n      add\n        /* \"#utility.yul\":35976:36002   */\n      swap1\n      pop\n        /* \"#utility.yul\":36012:36083   */\n      tag_986\n        /* \"#utility.yul\":36080:36081   */\n      0x00\n        /* \"#utility.yul\":36069:36078   */\n      dup4\n        /* \"#utility.yul\":36065:36082   */\n      add\n        /* \"#utility.yul\":36056:36062   */\n      dup7\n        /* \"#utility.yul\":36012:36083   */\n      tag_907\n      jump\t// in\n    tag_986:\n        /* \"#utility.yul\":36093:36159   */\n      tag_987\n        /* \"#utility.yul\":36155:36157   */\n      0x20\n        /* \"#utility.yul\":36144:36153   */\n      dup4\n        /* \"#utility.yul\":36140:36158   */\n      add\n        /* \"#utility.yul\":36131:36137   */\n      dup6\n        /* \"#utility.yul\":36093:36159   */\n      tag_804\n      jump\t// in\n    tag_987:\n        /* \"#utility.yul\":36169:36241   */\n      tag_988\n        /* \"#utility.yul\":36237:36239   */\n      0x40\n        /* \"#utility.yul\":36226:36235   */\n      dup4\n        /* \"#utility.yul\":36222:36240   */\n      add\n        /* \"#utility.yul\":36213:36219   */\n      dup5\n        /* \"#utility.yul\":36169:36241   */\n      tag_907\n      jump\t// in\n    tag_988:\n        /* \"#utility.yul\":35966:36248   */\n      swap5\n      swap4\n      pop\n      pop\n      pop\n      pop\n      jump\t// out\n        /* \"#utility.yul\":36254:36677   */\n    tag_203:\n      0x00\n        /* \"#utility.yul\":36433:36435   */\n      0x40\n        /* \"#utility.yul\":36422:36431   */\n      dup3\n        /* \"#utility.yul\":36418:36436   */\n      add\n        /* \"#utility.yul\":36410:36436   */\n      swap1\n      pop\n        /* \"#utility.yul\":36446:36517   */\n      tag_990\n        /* \"#utility.yul\":36514:36515   */\n      0x00\n        /* \"#utility.yul\":36503:36512   */\n      dup4\n        /* \"#utility.yul\":36499:36516   */\n      add\n        /* \"#utility.yul\":36490:36496   */\n      dup6\n        /* \"#utility.yul\":36446:36517   */\n      tag_907\n      jump\t// in\n    tag_990:\n        /* \"#utility.yul\":36564:36573   */\n      dup2\n        /* \"#utility.yul\":36558:36562   */\n      dup2\n        /* \"#utility.yul\":36554:36574   */\n      sub\n        /* \"#utility.yul\":36549:36551   */\n      0x20\n        /* \"#utility.yul\":36538:36547   */\n      dup4\n        /* \"#utility.yul\":36534:36552   */\n      add\n        /* \"#utility.yul\":36527:36575   */\n      mstore\n        /* \"#utility.yul\":36592:36670   */\n      tag_991\n        /* \"#utility.yul\":36665:36669   */\n      dup2\n        /* \"#utility.yul\":36656:36662   */\n      dup5\n        /* \"#utility.yul\":36592:36670   */\n      tag_843\n      jump\t// in\n    tag_991:\n        /* \"#utility.yul\":36584:36670   */\n      swap1\n      pop\n        /* \"#utility.yul\":36400:36677   */\n      swap4\n      swap3\n      pop\n      pop\n      pop\n      jump\t// out\n        /* \"#utility.yul\":36683:38053   */\n    tag_149:\n      0x00\n        /* \"#utility.yul\":37120:37123   */\n      0x0100\n        /* \"#utility.yul\":37109:37118   */\n      dup3\n        /* \"#utility.yul\":37105:37124   */\n      add\n        /* \"#utility.yul\":37097:37124   */\n      swap1\n      pop\n        /* \"#utility.yul\":37134:37205   */\n      tag_993\n        /* \"#utility.yul\":37202:37203   */\n      0x00\n        /* \"#utility.yul\":37191:37200   */\n      dup4\n        /* \"#utility.yul\":37187:37204   */\n      add\n        /* \"#utility.yul\":37178:37184   */\n      dup12\n        /* \"#utility.yul\":37134:37205   */\n      tag_907\n      jump\t// in\n    tag_993:\n        /* \"#utility.yul\":37252:37261   */\n      dup2\n        /* \"#utility.yul\":37246:37250   */\n      dup2\n        /* \"#utility.yul\":37242:37262   */\n      sub\n        /* \"#utility.yul\":37237:37239   */\n      0x20\n        /* \"#utility.yul\":37226:37235   */\n      dup4\n        /* \"#utility.yul\":37222:37240   */\n      add\n        /* \"#utility.yul\":37215:37263   */\n      mstore\n        /* \"#utility.yul\":37280:37358   */\n      tag_994\n        /* \"#utility.yul\":37353:37357   */\n      dup2\n        /* \"#utility.yul\":37344:37350   */\n      dup11\n        /* \"#utility.yul\":37280:37358   */\n      tag_843\n      jump\t// in\n    tag_994:\n        /* \"#utility.yul\":37272:37358   */\n      swap1\n      pop\n        /* \"#utility.yul\":37405:37414   */\n      dup2\n        /* \"#utility.yul\":37399:37403   */\n      dup2\n        /* \"#utility.yul\":37395:37415   */\n      sub\n        /* \"#utility.yul\":37390:37392   */\n      0x40\n        /* \"#utility.yul\":37379:37388   */\n      dup4\n        /* \"#utility.yul\":37375:37393   */\n      add\n        /* \"#utility.yul\":37368:37416   */\n      mstore\n        /* \"#utility.yul\":37433:37511   */\n      tag_995\n        /* \"#utility.yul\":37506:37510   */\n      dup2\n        /* \"#utility.yul\":37497:37503   */\n      dup10\n        /* \"#utility.yul\":37433:37511   */\n      tag_843\n      jump\t// in\n    tag_995:\n        /* \"#utility.yul\":37425:37511   */\n      swap1\n      pop\n        /* \"#utility.yul\":37521:37593   */\n      tag_996\n        /* \"#utility.yul\":37589:37591   */\n      0x60\n        /* \"#utility.yul\":37578:37587   */\n      dup4\n        /* \"#utility.yul\":37574:37592   */\n      add\n        /* \"#utility.yul\":37565:37571   */\n      dup9\n        /* \"#utility.yul\":37521:37593   */\n      tag_907\n      jump\t// in\n    tag_996:\n        /* \"#utility.yul\":37603:37676   */\n      tag_997\n        /* \"#utility.yul\":37671:37674   */\n      0x80\n        /* \"#utility.yul\":37660:37669   */\n      dup4\n        /* \"#utility.yul\":37656:37675   */\n      add\n        /* \"#utility.yul\":37647:37653   */\n      dup8\n        /* \"#utility.yul\":37603:37676   */\n      tag_907\n      jump\t// in\n    tag_997:\n        /* \"#utility.yul\":37724:37733   */\n      dup2\n        /* \"#utility.yul\":37718:37722   */\n      dup2\n        /* \"#utility.yul\":37714:37734   */\n      sub\n        /* \"#utility.yul\":37708:37711   */\n      0xa0\n        /* \"#utility.yul\":37697:37706   */\n      dup4\n        /* \"#utility.yul\":37693:37712   */\n      add\n        /* \"#utility.yul\":37686:37735   */\n      mstore\n        /* \"#utility.yul\":37752:37880   */\n      tag_998\n        /* \"#utility.yul\":37875:37879   */\n      dup2\n        /* \"#utility.yul\":37866:37872   */\n      dup7\n        /* \"#utility.yul\":37752:37880   */\n      tag_766\n      jump\t// in\n    tag_998:\n        /* \"#utility.yul\":37744:37880   */\n      swap1\n      pop\n        /* \"#utility.yul\":37890:37963   */\n      tag_999\n        /* \"#utility.yul\":37958:37961   */\n      0xc0\n        /* \"#utility.yul\":37947:37956   */\n      dup4\n        /* \"#utility.yul\":37943:37962   */\n      add\n        /* \"#utility.yul\":37934:37940   */\n      dup6\n        /* \"#utility.yul\":37890:37963   */\n      tag_907\n      jump\t// in\n    tag_999:\n        /* \"#utility.yul\":37973:38046   */\n      tag_1000\n        /* \"#utility.yul\":38041:38044   */\n      0xe0\n        /* \"#utility.yul\":38030:38039   */\n      dup4\n        /* \"#utility.yul\":38026:38045   */\n      add\n        /* \"#utility.yul\":38017:38023   */\n      dup5\n        /* \"#utility.yul\":37973:38046   */\n      tag_907\n      jump\t// in\n    tag_1000:\n        /* \"#utility.yul\":37087:38053   */\n      swap10\n      swap9\n      pop\n      pop\n      pop\n      pop\n      pop\n      pop\n      pop\n      pop\n      pop\n      jump\t// out\n        /* \"#utility.yul\":38059:39127   */\n    tag_89:\n      0x00\n        /* \"#utility.yul\":38398:38401   */\n      0xe0\n        /* \"#utility.yul\":38387:38396   */\n      dup3\n        /* \"#utility.yul\":38383:38402   */\n      add\n        /* \"#utility.yul\":38375:38402   */\n      swap1\n      pop\n        /* \"#utility.yul\":38412:38483   */\n      tag_1002\n        /* \"#utility.yul\":38480:38481   */\n      0x00\n        /* \"#utility.yul\":38469:38478   */\n      dup4\n        /* \"#utility.yul\":38465:38482   */\n      add\n        /* \"#utility.yul\":38456:38462   */\n      dup11\n        /* \"#utility.yul\":38412:38483   */\n      tag_907\n      jump\t// in\n    tag_1002:\n        /* \"#utility.yul\":38530:38539   */\n      dup2\n        /* \"#utility.yul\":38524:38528   */\n      dup2\n        /* \"#utility.yul\":38520:38540   */\n      sub\n        /* \"#utility.yul\":38515:38517   */\n      0x20\n        /* \"#utility.yul\":38504:38513   */\n      dup4\n        /* \"#utility.yul\":38500:38518   */\n      add\n        /* \"#utility.yul\":38493:38541   */\n      mstore\n        /* \"#utility.yul\":38558:38636   */\n      tag_1003\n        /* \"#utility.yul\":38631:38635   */\n      dup2\n        /* \"#utility.yul\":38622:38628   */\n      dup10\n        /* \"#utility.yul\":38558:38636   */\n      tag_843\n      jump\t// in\n    tag_1003:\n        /* \"#utility.yul\":38550:38636   */\n      swap1\n      pop\n        /* \"#utility.yul\":38683:38692   */\n      dup2\n        /* \"#utility.yul\":38677:38681   */\n      dup2\n        /* \"#utility.yul\":38673:38693   */\n      sub\n        /* \"#utility.yul\":38668:38670   */\n      0x40\n        /* \"#utility.yul\":38657:38666   */\n      dup4\n        /* \"#utility.yul\":38653:38671   */\n      add\n        /* \"#utility.yul\":38646:38694   */\n      mstore\n        /* \"#utility.yul\":38711:38789   */\n      tag_1004\n        /* \"#utility.yul\":38784:38788   */\n      dup2\n        /* \"#utility.yul\":38775:38781   */\n      dup9\n        /* \"#utility.yul\":38711:38789   */\n      tag_843\n      jump\t// in\n    tag_1004:\n        /* \"#utility.yul\":38703:38789   */\n      swap1\n      pop\n        /* \"#utility.yul\":38799:38871   */\n      tag_1005\n        /* \"#utility.yul\":38867:38869   */\n      0x60\n        /* \"#utility.yul\":38856:38865   */\n      dup4\n        /* \"#utility.yul\":38852:38870   */\n      add\n        /* \"#utility.yul\":38843:38849   */\n      dup8\n        /* \"#utility.yul\":38799:38871   */\n      tag_907\n      jump\t// in\n    tag_1005:\n        /* \"#utility.yul\":38881:38954   */\n      tag_1006\n        /* \"#utility.yul\":38949:38952   */\n      0x80\n        /* \"#utility.yul\":38938:38947   */\n      dup4\n        /* \"#utility.yul\":38934:38953   */\n      add\n        /* \"#utility.yul\":38925:38931   */\n      dup7\n        /* \"#utility.yul\":38881:38954   */\n      tag_907\n      jump\t// in\n    tag_1006:\n        /* \"#utility.yul\":38964:39037   */\n      tag_1007\n        /* \"#utility.yul\":39032:39035   */\n      0xa0\n        /* \"#utility.yul\":39021:39030   */\n      dup4\n        /* \"#utility.yul\":39017:39036   */\n      add\n        /* \"#utility.yul\":39008:39014   */\n      dup6\n        /* \"#utility.yul\":38964:39037   */\n      tag_907\n      jump\t// in\n    tag_1007:\n        /* \"#utility.yul\":39047:39120   */\n      tag_1008\n        /* \"#utility.yul\":39115:39118   */\n      0xc0\n        /* \"#utility.yul\":39104:39113   */\n      dup4\n        /* \"#utility.yul\":39100:39119   */\n      add\n        /* \"#utility.yul\":39091:39097   */\n      dup5\n        /* \"#utility.yul\":39047:39120   */\n      tag_907\n      jump\t// in\n    tag_1008:\n        /* \"#utility.yul\":38365:39127   */\n      swap9\n      swap8\n      pop\n      pop\n      pop\n      pop\n      pop\n      pop\n      pop\n      pop\n      jump\t// out\n        /* \"#utility.yul\":39133:39465   */\n    tag_239:\n      0x00\n        /* \"#utility.yul\":39292:39294   */\n      0x40\n        /* \"#utility.yul\":39281:39290   */\n      dup3\n        /* \"#utility.yul\":39277:39295   */\n      add\n        /* \"#utility.yul\":39269:39295   */\n      swap1\n      pop\n        /* \"#utility.yul\":39305:39376   */\n      tag_1010\n        /* \"#utility.yul\":39373:39374   */\n      0x00\n        /* \"#utility.yul\":39362:39371   */\n      dup4\n        /* \"#utility.yul\":39358:39375   */\n      add\n        /* \"#utility.yul\":39349:39355   */\n      dup6\n        /* \"#utility.yul\":39305:39376   */\n      tag_907\n      jump\t// in\n    tag_1010:\n        /* \"#utility.yul\":39386:39458   */\n      tag_1011\n        /* \"#utility.yul\":39454:39456   */\n      0x20\n        /* \"#utility.yul\":39443:39452   */\n      dup4\n        /* \"#utility.yul\":39439:39457   */\n      add\n        /* \"#utility.yul\":39430:39436   */\n      dup5\n        /* \"#utility.yul\":39386:39458   */\n      tag_907\n      jump\t// in\n    tag_1011:\n        /* \"#utility.yul\":39259:39465   */\n      swap4\n      swap3\n      pop\n      pop\n      pop\n      jump\t// out\n        /* \"#utility.yul\":39471:39754   */\n    tag_623:\n      0x00\n        /* \"#utility.yul\":39537:39539   */\n      0x40\n        /* \"#utility.yul\":39531:39540   */\n      mload\n        /* \"#utility.yul\":39521:39540   */\n      swap1\n      pop\n        /* \"#utility.yul\":39579:39583   */\n      dup2\n        /* \"#utility.yul\":39571:39577   */\n      dup2\n        /* \"#utility.yul\":39567:39584   */\n      add\n        /* \"#utility.yul\":39686:39692   */\n      dup2\n        /* \"#utility.yul\":39674:39684   */\n      dup2\n        /* \"#utility.yul\":39671:39693   */\n      lt\n        /* \"#utility.yul\":39650:39668   */\n      0xffffffffffffffff\n        /* \"#utility.yul\":39638:39648   */\n      dup3\n        /* \"#utility.yul\":39635:39669   */\n      gt\n        /* \"#utility.yul\":39632:39694   */\n      or\n        /* \"#utility.yul\":39629:39631   */\n      iszero\n      tag_1013\n      jumpi\n        /* \"#utility.yul\":39697:39715   */\n      tag_1014\n      tag_1015\n      jump\t// in\n    tag_1014:\n        /* \"#utility.yul\":39629:39631   */\n    tag_1013:\n        /* \"#utility.yul\":39737:39747   */\n      dup1\n        /* \"#utility.yul\":39733:39735   */\n      0x40\n        /* \"#utility.yul\":39726:39748   */\n      mstore\n        /* \"#utility.yul\":39511:39754   */\n      pop\n      swap2\n      swap1\n      pop\n      jump\t// out\n        /* \"#utility.yul\":39760:40081   */\n    tag_622:\n      0x00\n        /* \"#utility.yul\":39937:39955   */\n      0xffffffffffffffff\n        /* \"#utility.yul\":39929:39935   */\n      dup3\n        /* \"#utility.yul\":39926:39956   */\n      gt\n        /* \"#utility.yul\":39923:39925   */\n      iszero\n      tag_1017\n      jumpi\n        /* \"#utility.yul\":39959:39977   */\n      tag_1018\n      tag_1015\n      jump\t// in\n    tag_1018:\n        /* \"#utility.yul\":39923:39925   */\n    tag_1017:\n        /* \"#utility.yul\":40009:40013   */\n      0x20\n        /* \"#utility.yul\":40001:40007   */\n      dup3\n        /* \"#utility.yul\":39997:40014   */\n      mul\n        /* \"#utility.yul\":39989:40014   */\n      swap1\n      pop\n        /* \"#utility.yul\":40069:40073   */\n      0x20\n        /* \"#utility.yul\":40063:40067   */\n      dup2\n        /* \"#utility.yul\":40059:40074   */\n      add\n        /* \"#utility.yul\":40051:40074   */\n      swap1\n      pop\n        /* \"#utility.yul\":39852:40081   */\n      swap2\n      swap1\n      pop\n      jump\t// out\n        /* \"#utility.yul\":40087:40418   */\n    tag_633:\n      0x00\n        /* \"#utility.yul\":40238:40256   */\n      0xffffffffffffffff\n        /* \"#utility.yul\":40230:40236   */\n      dup3\n        /* \"#utility.yul\":40227:40257   */\n      gt\n        /* \"#utility.yul\":40224:40226   */\n      iszero\n      tag_1020\n      jumpi\n        /* \"#utility.yul\":40260:40278   */\n      tag_1021\n      tag_1015\n      jump\t// in\n    tag_1021:\n        /* \"#utility.yul\":40224:40226   */\n    tag_1020:\n        /* \"#utility.yul\":40345:40349   */\n      0x1f\n        /* \"#utility.yul\":40341:40350   */\n      not\n        /* \"#utility.yul\":40334:40338   */\n      0x1f\n        /* \"#utility.yul\":40326:40332   */\n      dup4\n        /* \"#utility.yul\":40322:40339   */\n      add\n        /* \"#utility.yul\":40318:40351   */\n      and\n        /* \"#utility.yul\":40310:40351   */\n      swap1\n      pop\n        /* \"#utility.yul\":40406:40410   */\n      0x20\n        /* \"#utility.yul\":40400:40404   */\n      dup2\n        /* \"#utility.yul\":40396:40411   */\n      add\n        /* \"#utility.yul\":40388:40411   */\n      swap1\n      pop\n        /* \"#utility.yul\":40153:40418   */\n      swap2\n      swap1\n      pop\n      jump\t// out\n        /* \"#utility.yul\":40424:40756   */\n    tag_641:\n      0x00\n        /* \"#utility.yul\":40576:40594   */\n      0xffffffffffffffff\n        /* \"#utility.yul\":40568:40574   */\n      dup3\n        /* \"#utility.yul\":40565:40595   */\n      gt\n        /* \"#utility.yul\":40562:40564   */\n      iszero\n      tag_1023\n      jumpi\n        /* \"#utility.yul\":40598:40616   */\n      tag_1024\n      tag_1015\n      jump\t// in\n    tag_1024:\n        /* \"#utility.yul\":40562:40564   */\n    tag_1023:\n        /* \"#utility.yul\":40683:40687   */\n      0x1f\n        /* \"#utility.yul\":40679:40688   */\n      not\n        /* \"#utility.yul\":40672:40676   */\n      0x1f\n        /* \"#utility.yul\":40664:40670   */\n      dup4\n        /* \"#utility.yul\":40660:40677   */\n      add\n        /* \"#utility.yul\":40656:40689   */\n      and\n        /* \"#utility.yul\":40648:40689   */\n      swap1\n      pop\n        /* \"#utility.yul\":40744:40748   */\n      0x20\n        /* \"#utility.yul\":40738:40742   */\n      dup2\n        /* \"#utility.yul\":40734:40749   */\n      add\n        /* \"#utility.yul\":40726:40749   */\n      swap1\n      pop\n        /* \"#utility.yul\":40491:40756   */\n      swap2\n      swap1\n      pop\n      jump\t// out\n        /* \"#utility.yul\":40762:40894   */\n    tag_745:\n      0x00\n        /* \"#utility.yul\":40852:40855   */\n      dup2\n        /* \"#utility.yul\":40844:40855   */\n      swap1\n      pop\n        /* \"#utility.yul\":40882:40886   */\n      0x20\n        /* \"#utility.yul\":40877:40880   */\n      dup3\n        /* \"#utility.yul\":40873:40887   */\n      add\n        /* \"#utility.yul\":40865:40887   */\n      swap1\n      pop\n        /* \"#utility.yul\":40834:40894   */\n      swap2\n      swap1\n      pop\n      jump\t// out\n        /* \"#utility.yul\":40900:41055   */\n    tag_759:\n      0x00\n        /* \"#utility.yul\":41013:41016   */\n      dup2\n        /* \"#utility.yul\":41005:41016   */\n      swap1\n      pop\n        /* \"#utility.yul\":41043:41047   */\n      0x20\n        /* \"#utility.yul\":41038:41041   */\n      dup3\n        /* \"#utility.yul\":41034:41048   */\n      add\n        /* \"#utility.yul\":41026:41048   */\n      swap1\n      pop\n        /* \"#utility.yul\":40995:41055   */\n      swap2\n      swap1\n      pop\n      jump\t// out\n        /* \"#utility.yul\":41061:41203   */\n    tag_773:\n      0x00\n        /* \"#utility.yul\":41161:41164   */\n      dup2\n        /* \"#utility.yul\":41153:41164   */\n      swap1\n      pop\n        /* \"#utility.yul\":41191:41195   */\n      0x20\n        /* \"#utility.yul\":41186:41189   */\n      dup3\n        /* \"#utility.yul\":41182:41196   */\n      add\n        /* \"#utility.yul\":41174:41196   */\n      swap1\n      pop\n        /* \"#utility.yul\":41143:41203   */\n      swap2\n      swap1\n      pop\n      jump\t// out\n        /* \"#utility.yul\":41209:41307   */\n    tag_786:\n      0x00\n        /* \"#utility.yul\":41297:41300   */\n      dup2\n        /* \"#utility.yul\":41289:41300   */\n      swap1\n      pop\n        /* \"#utility.yul\":41279:41307   */\n      swap2\n      swap1\n      pop\n      jump\t// out\n        /* \"#utility.yul\":41313:41453   */\n    tag_832:\n      0x00\n        /* \"#utility.yul\":41384:41387   */\n      dup2\n        /* \"#utility.yul\":41376:41387   */\n      swap1\n      pop\n        /* \"#utility.yul\":41407:41410   */\n      dup2\n        /* \"#utility.yul\":41404:41405   */\n      0x00\n        /* \"#utility.yul\":41397:41411   */\n      mstore\n        /* \"#utility.yul\":41441:41445   */\n      0x20\n        /* \"#utility.yul\":41438:41439   */\n      0x00\n        /* \"#utility.yul\":41428:41446   */\n      keccak256\n        /* \"#utility.yul\":41420:41446   */\n      swap1\n      pop\n        /* \"#utility.yul\":41366:41453   */\n      swap2\n      swap1\n      pop\n      jump\t// out\n        /* \"#utility.yul\":41459:41573   */\n    tag_741:\n      0x00\n        /* \"#utility.yul\":41560:41565   */\n      dup2\n        /* \"#utility.yul\":41554:41566   */\n      mload\n        /* \"#utility.yul\":41544:41566   */\n      swap1\n      pop\n        /* \"#utility.yul\":41533:41573   */\n      swap2\n      swap1\n      pop\n      jump\t// out\n        /* \"#utility.yul\":41579:41716   */\n    tag_755:\n      0x00\n        /* \"#utility.yul\":41703:41708   */\n      dup2\n        /* \"#utility.yul\":41697:41709   */\n      mload\n        /* \"#utility.yul\":41687:41709   */\n      swap1\n      pop\n        /* \"#utility.yul\":41676:41716   */\n      swap2\n      swap1\n      pop\n      jump\t// out\n        /* \"#utility.yul\":41722:41846   */\n    tag_769:\n      0x00\n        /* \"#utility.yul\":41833:41838   */\n      dup2\n        /* \"#utility.yul\":41827:41839   */\n      mload\n        /* \"#utility.yul\":41817:41839   */\n      swap1\n      pop\n        /* \"#utility.yul\":41806:41846   */\n      swap2\n      swap1\n      pop\n      jump\t// out\n        /* \"#utility.yul\":41852:41956   */\n    tag_782:\n      0x00\n        /* \"#utility.yul\":41945:41949   */\n      0x02\n        /* \"#utility.yul\":41935:41949   */\n      swap1\n      pop\n        /* \"#utility.yul\":41924:41956   */\n      swap2\n      swap1\n      pop\n      jump\t// out\n        /* \"#utility.yul\":41962:42060   */\n    tag_811:\n      0x00\n        /* \"#utility.yul\":42047:42052   */\n      dup2\n        /* \"#utility.yul\":42041:42053   */\n      mload\n        /* \"#utility.yul\":42031:42053   */\n      swap1\n      pop\n        /* \"#utility.yul\":42020:42060   */\n      swap2\n      swap1\n      pop\n      jump\t// out\n        /* \"#utility.yul\":42066:42165   */\n    tag_838:\n      0x00\n        /* \"#utility.yul\":42152:42157   */\n      dup2\n        /* \"#utility.yul\":42146:42158   */\n      mload\n        /* \"#utility.yul\":42136:42158   */\n      swap1\n      pop\n        /* \"#utility.yul\":42125:42165   */\n      swap2\n      swap1\n      pop\n      jump\t// out\n        /* \"#utility.yul\":42171:42284   */\n    tag_751:\n      0x00\n        /* \"#utility.yul\":42273:42277   */\n      0x20\n        /* \"#utility.yul\":42268:42271   */\n      dup3\n        /* \"#utility.yul\":42264:42278   */\n      add\n        /* \"#utility.yul\":42256:42278   */\n      swap1\n      pop\n        /* \"#utility.yul\":42246:42284   */\n      swap2\n      swap1\n      pop\n      jump\t// out\n        /* \"#utility.yul\":42290:42426   */\n    tag_765:\n      0x00\n        /* \"#utility.yul\":42415:42419   */\n      0x20\n        /* \"#utility.yul\":42410:42413   */\n      dup3\n        /* \"#utility.yul\":42406:42420   */\n      add\n        /* \"#utility.yul\":42398:42420   */\n      swap1\n      pop\n        /* \"#utility.yul\":42388:42426   */\n      swap2\n      swap1\n      pop\n      jump\t// out\n        /* \"#utility.yul\":42432:42555   */\n    tag_779:\n      0x00\n        /* \"#utility.yul\":42544:42548   */\n      0x20\n        /* \"#utility.yul\":42539:42542   */\n      dup3\n        /* \"#utility.yul\":42535:42549   */\n      add\n        /* \"#utility.yul\":42527:42549   */\n      swap1\n      pop\n        /* \"#utility.yul\":42517:42555   */\n      swap2\n      swap1\n      pop\n      jump\t// out\n        /* \"#utility.yul\":42561:42672   */\n    tag_792:\n      0x00\n        /* \"#utility.yul\":42661:42665   */\n      0x20\n        /* \"#utility.yul\":42656:42659   */\n      dup3\n        /* \"#utility.yul\":42652:42666   */\n      add\n        /* \"#utility.yul\":42644:42666   */\n      swap1\n      pop\n        /* \"#utility.yul\":42634:42672   */\n      swap2\n      swap1\n      pop\n      jump\t// out\n        /* \"#utility.yul\":42678:42862   */\n    tag_743:\n      0x00\n        /* \"#utility.yul\":42811:42817   */\n      dup3\n        /* \"#utility.yul\":42806:42809   */\n      dup3\n        /* \"#utility.yul\":42799:42818   */\n      mstore\n        /* \"#utility.yul\":42851:42855   */\n      0x20\n        /* \"#utility.yul\":42846:42849   */\n      dup3\n        /* \"#utility.yul\":42842:42856   */\n      add\n        /* \"#utility.yul\":42827:42856   */\n      swap1\n      pop\n        /* \"#utility.yul\":42789:42862   */\n      swap3\n      swap2\n      pop\n      pop\n      jump\t// out\n        /* \"#utility.yul\":42868:43075   */\n    tag_757:\n      0x00\n        /* \"#utility.yul\":43024:43030   */\n      dup3\n        /* \"#utility.yul\":43019:43022   */\n      dup3\n        /* \"#utility.yul\":43012:43031   */\n      mstore\n        /* \"#utility.yul\":43064:43068   */\n      0x20\n        /* \"#utility.yul\":43059:43062   */\n      dup3\n        /* \"#utility.yul\":43055:43069   */\n      add\n        /* \"#utility.yul\":43040:43069   */\n      swap1\n      pop\n        /* \"#utility.yul\":43002:43075   */\n      swap3\n      swap2\n      pop\n      pop\n      jump\t// out\n        /* \"#utility.yul\":43081:43275   */\n    tag_771:\n      0x00\n        /* \"#utility.yul\":43224:43230   */\n      dup3\n        /* \"#utility.yul\":43219:43222   */\n      dup3\n        /* \"#utility.yul\":43212:43231   */\n      mstore\n        /* \"#utility.yul\":43264:43268   */\n      0x20\n        /* \"#utility.yul\":43259:43262   */\n      dup3\n        /* \"#utility.yul\":43255:43269   */\n      add\n        /* \"#utility.yul\":43240:43269   */\n      swap1\n      pop\n        /* \"#utility.yul\":43202:43275   */\n      swap3\n      swap2\n      pop\n      pop\n      jump\t// out\n        /* \"#utility.yul\":43281:43414   */\n    tag_784:\n      0x00\n        /* \"#utility.yul\":43405:43408   */\n      dup2\n        /* \"#utility.yul\":43390:43408   */\n      swap1\n      pop\n        /* \"#utility.yul\":43380:43414   */\n      swap3\n      swap2\n      pop\n      pop\n      jump\t// out\n        /* \"#utility.yul\":43420:43563   */\n    tag_797:\n      0x00\n        /* \"#utility.yul\":43554:43557   */\n      dup2\n        /* \"#utility.yul\":43539:43557   */\n      swap1\n      pop\n        /* \"#utility.yul\":43529:43563   */\n      swap3\n      swap2\n      pop\n      pop\n      jump\t// out\n        /* \"#utility.yul\":43569:43737   */\n    tag_813:\n      0x00\n        /* \"#utility.yul\":43686:43692   */\n      dup3\n        /* \"#utility.yul\":43681:43684   */\n      dup3\n        /* \"#utility.yul\":43674:43693   */\n      mstore\n        /* \"#utility.yul\":43726:43730   */\n      0x20\n        /* \"#utility.yul\":43721:43724   */\n      dup3\n        /* \"#utility.yul\":43717:43731   */\n      add\n        /* \"#utility.yul\":43702:43731   */\n      swap1\n      pop\n        /* \"#utility.yul\":43664:43737   */\n      swap3\n      swap2\n      pop\n      pop\n      jump\t// out\n        /* \"#utility.yul\":43743:43890   */\n    tag_822:\n      0x00\n        /* \"#utility.yul\":43881:43884   */\n      dup2\n        /* \"#utility.yul\":43866:43884   */\n      swap1\n      pop\n        /* \"#utility.yul\":43856:43890   */\n      swap3\n      swap2\n      pop\n      pop\n      jump\t// out\n        /* \"#utility.yul\":43896:44055   */\n    tag_840:\n      0x00\n        /* \"#utility.yul\":44004:44010   */\n      dup3\n        /* \"#utility.yul\":43999:44002   */\n      dup3\n        /* \"#utility.yul\":43992:44011   */\n      mstore\n        /* \"#utility.yul\":44044:44048   */\n      0x20\n        /* \"#utility.yul\":44039:44042   */\n      dup3\n        /* \"#utility.yul\":44035:44049   */\n      add\n        /* \"#utility.yul\":44020:44049   */\n      swap1\n      pop\n        /* \"#utility.yul\":43982:44055   */\n      swap3\n      swap2\n      pop\n      pop\n      jump\t// out\n        /* \"#utility.yul\":44061:44230   */\n    tag_847:\n      0x00\n        /* \"#utility.yul\":44179:44185   */\n      dup3\n        /* \"#utility.yul\":44174:44177   */\n      dup3\n        /* \"#utility.yul\":44167:44186   */\n      mstore\n        /* \"#utility.yul\":44219:44223   */\n      0x20\n        /* \"#utility.yul\":44214:44217   */\n      dup3\n        /* \"#utility.yul\":44210:44224   */\n      add\n        /* \"#utility.yul\":44195:44224   */\n      swap1\n      pop\n        /* \"#utility.yul\":44157:44230   */\n      swap3\n      swap2\n      pop\n      pop\n      jump\t// out\n        /* \"#utility.yul\":44236:44541   */\n    tag_465:\n      0x00\n        /* \"#utility.yul\":44295:44315   */\n      tag_1050\n        /* \"#utility.yul\":44313:44314   */\n      dup3\n        /* \"#utility.yul\":44295:44315   */\n      tag_906\n      jump\t// in\n    tag_1050:\n        /* \"#utility.yul\":44290:44315   */\n      swap2\n      pop\n        /* \"#utility.yul\":44329:44349   */\n      tag_1051\n        /* \"#utility.yul\":44347:44348   */\n      dup4\n        /* \"#utility.yul\":44329:44349   */\n      tag_906\n      jump\t// in\n    tag_1051:\n        /* \"#utility.yul\":44324:44349   */\n      swap3\n      pop\n        /* \"#utility.yul\":44483:44484   */\n      dup3\n        /* \"#utility.yul\":44415:44481   */\n      0xffffffffffffffffffffffffffffffffffffffffffffffffffffffffffffffff\n        /* \"#utility.yul\":44411:44485   */\n      sub\n        /* \"#utility.yul\":44408:44409   */\n      dup3\n        /* \"#utility.yul\":44405:44486   */\n      gt\n        /* \"#utility.yul\":44402:44404   */\n      iszero\n      tag_1052\n      jumpi\n        /* \"#utility.yul\":44489:44507   */\n      tag_1053\n      tag_1054\n      jump\t// in\n    tag_1053:\n        /* \"#utility.yul\":44402:44404   */\n    tag_1052:\n        /* \"#utility.yul\":44533:44534   */\n      dup3\n        /* \"#utility.yul\":44530:44531   */\n      dup3\n        /* \"#utility.yul\":44526:44535   */\n      add\n        /* \"#utility.yul\":44519:44535   */\n      swap1\n      pop\n        /* \"#utility.yul\":44280:44541   */\n      swap3\n      swap2\n      pop\n      pop\n      jump\t// out\n        /* \"#utility.yul\":44547:44732   */\n    tag_546:\n      0x00\n        /* \"#utility.yul\":44604:44624   */\n      tag_1056\n        /* \"#utility.yul\":44622:44623   */\n      dup3\n        /* \"#utility.yul\":44604:44624   */\n      tag_906\n      jump\t// in\n    tag_1056:\n        /* \"#utility.yul\":44599:44624   */\n      swap2\n      pop\n        /* \"#utility.yul\":44638:44658   */\n      tag_1057\n        /* \"#utility.yul\":44656:44657   */\n      dup4\n        /* \"#utility.yul\":44638:44658   */\n      tag_906\n      jump\t// in\n    tag_1057:\n        /* \"#utility.yul\":44633:44658   */\n      swap3\n      pop\n        /* \"#utility.yul\":44677:44678   */\n      dup3\n        /* \"#utility.yul\":44667:44669   */\n      tag_1058\n      jumpi\n        /* \"#utility.yul\":44682:44700   */\n      tag_1059\n      tag_1060\n      jump\t// in\n    tag_1059:\n        /* \"#utility.yul\":44667:44669   */\n    tag_1058:\n        /* \"#utility.yul\":44724:44725   */\n      dup3\n        /* \"#utility.yul\":44721:44722   */\n      dup3\n        /* \"#utility.yul\":44717:44726   */\n      div\n        /* \"#utility.yul\":44712:44726   */\n      swap1\n      pop\n        /* \"#utility.yul\":44589:44732   */\n      swap3\n      swap2\n      pop\n      pop\n      jump\t// out\n        /* \"#utility.yul\":44738:44929   */\n    tag_207:\n      0x00\n        /* \"#utility.yul\":44798:44818   */\n      tag_1062\n        /* \"#utility.yul\":44816:44817   */\n      dup3\n        /* \"#utility.yul\":44798:44818   */\n      tag_906\n      jump\t// in\n    tag_1062:\n        /* \"#utility.yul\":44793:44818   */\n      swap2\n      pop\n        /* \"#utility.yul\":44832:44852   */\n      tag_1063\n        /* \"#utility.yul\":44850:44851   */\n      dup4\n        /* \"#utility.yul\":44832:44852   */\n      tag_906\n      jump\t// in\n    tag_1063:\n        /* \"#utility.yul\":44827:44852   */\n      swap3\n      pop\n        /* \"#utility.yul\":44871:44872   */\n      dup3\n        /* \"#utility.yul\":44868:44869   */\n      dup3\n        /* \"#utility.yul\":44865:44873   */\n      lt\n        /* \"#utility.yul\":44862:44864   */\n      iszero\n      tag_1064\n      jumpi\n        /* \"#utility.yul\":44876:44894   */\n      tag_1065\n      tag_1054\n      jump\t// in\n    tag_1065:\n        /* \"#utility.yul\":44862:44864   */\n    tag_1064:\n        /* \"#utility.yul\":44921:44922   */\n      dup3\n        /* \"#utility.yul\":44918:44919   */\n      dup3\n        /* \"#utility.yul\":44914:44923   */\n      sub\n        /* \"#utility.yul\":44906:44923   */\n      swap1\n      pop\n        /* \"#utility.yul\":44783:44929   */\n      swap3\n      swap2\n      pop\n      pop\n      jump\t// out\n        /* \"#utility.yul\":44935:45031   */\n    tag_734:\n      0x00\n        /* \"#utility.yul\":45001:45025   */\n      tag_1067\n        /* \"#utility.yul\":45019:45024   */\n      dup3\n        /* \"#utility.yul\":45001:45025   */\n      tag_1068\n      jump\t// in\n    tag_1067:\n        /* \"#utility.yul\":44990:45025   */\n      swap1\n      pop\n        /* \"#utility.yul\":44980:45031   */\n      swap2\n      swap1\n      pop\n      jump\t// out\n        /* \"#utility.yul\":45037:45127   */\n    tag_807:\n      0x00\n        /* \"#utility.yul\":45114:45119   */\n      dup2\n        /* \"#utility.yul\":45107:45120   */\n      iszero\n        /* \"#utility.yul\":45100:45121   */\n      iszero\n        /* \"#utility.yul\":45089:45121   */\n      swap1\n      pop\n        /* \"#utility.yul\":45079:45127   */\n      swap2\n      swap1\n      pop\n      jump\t// out\n        /* \"#utility.yul\":45133:45259   */\n    tag_1068:\n      0x00\n        /* \"#utility.yul\":45210:45252   */\n      0xffffffffffffffffffffffffffffffffffffffff\n        /* \"#utility.yul\":45203:45208   */\n      dup3\n        /* \"#utility.yul\":45199:45253   */\n      and\n        /* \"#utility.yul\":45188:45253   */\n      swap1\n      pop\n        /* \"#utility.yul\":45178:45259   */\n      swap2\n      swap1\n      pop\n      jump\t// out\n        /* \"#utility.yul\":45265:45342   */\n    tag_906:\n      0x00\n        /* \"#utility.yul\":45331:45336   */\n      dup2\n        /* \"#utility.yul\":45320:45336   */\n      swap1\n      pop\n        /* \"#utility.yul\":45310:45342   */\n      swap2\n      swap1\n      pop\n      jump\t// out\n        /* \"#utility.yul\":45348:45502   */\n    tag_636:\n        /* \"#utility.yul\":45432:45438   */\n      dup3\n        /* \"#utility.yul\":45427:45430   */\n      dup2\n        /* \"#utility.yul\":45422:45425   */\n      dup4\n        /* \"#utility.yul\":45409:45439   */\n      calldatacopy\n        /* \"#utility.yul\":45494:45495   */\n      0x00\n        /* \"#utility.yul\":45485:45491   */\n      dup4\n        /* \"#utility.yul\":45480:45483   */\n      dup4\n        /* \"#utility.yul\":45476:45492   */\n      add\n        /* \"#utility.yul\":45469:45496   */\n      mstore\n        /* \"#utility.yul\":45399:45502   */\n      pop\n      pop\n      pop\n      jump\t// out\n        /* \"#utility.yul\":45508:45815   */\n    tag_815:\n        /* \"#utility.yul\":45576:45577   */\n      0x00\n        /* \"#utility.yul\":45586:45699   */\n    tag_1074:\n        /* \"#utility.yul\":45600:45606   */\n      dup4\n        /* \"#utility.yul\":45597:45598   */\n      dup2\n        /* \"#utility.yul\":45594:45607   */\n      lt\n        /* \"#utility.yul\":45586:45699   */\n      iszero\n      tag_1076\n      jumpi\n        /* \"#utility.yul\":45685:45686   */\n      dup1\n        /* \"#utility.yul\":45680:45683   */\n      dup3\n        /* \"#utility.yul\":45676:45687   */\n      add\n        /* \"#utility.yul\":45670:45688   */\n      mload\n        /* \"#utility.yul\":45666:45667   */\n      dup2\n        /* \"#utility.yul\":45661:45664   */\n      dup5\n        /* \"#utility.yul\":45657:45668   */\n      add\n        /* \"#utility.yul\":45650:45689   */\n      mstore\n        /* \"#utility.yul\":45622:45624   */\n      0x20\n        /* \"#utility.yul\":45619:45620   */\n      dup2\n        /* \"#utility.yul\":45615:45625   */\n      add\n        /* \"#utility.yul\":45610:45625   */\n      swap1\n      pop\n        /* \"#utility.yul\":45586:45699   */\n      jump(tag_1074)\n    tag_1076:\n        /* \"#utility.yul\":45717:45723   */\n      dup4\n        /* \"#utility.yul\":45714:45715   */\n      dup2\n        /* \"#utility.yul\":45711:45724   */\n      gt\n        /* \"#utility.yul\":45708:45710   */\n      iszero\n      tag_1077\n      jumpi\n        /* \"#utility.yul\":45797:45798   */\n      0x00\n        /* \"#utility.yul\":45788:45794   */\n      dup5\n        /* \"#utility.yul\":45783:45786   */\n      dup5\n        /* \"#utility.yul\":45779:45795   */\n      add\n        /* \"#utility.yul\":45772:45799   */\n      mstore\n        /* \"#utility.yul\":45708:45710   */\n    tag_1077:\n        /* \"#utility.yul\":45557:45815   */\n      pop\n      pop\n      pop\n      pop\n      jump\t// out\n        /* \"#utility.yul\":45821:46141   */\n    tag_241:\n      0x00\n        /* \"#utility.yul\":45902:45903   */\n      0x02\n        /* \"#utility.yul\":45896:45900   */\n      dup3\n        /* \"#utility.yul\":45892:45904   */\n      div\n        /* \"#utility.yul\":45882:45904   */\n      swap1\n      pop\n        /* \"#utility.yul\":45949:45950   */\n      0x01\n        /* \"#utility.yul\":45943:45947   */\n      dup3\n        /* \"#utility.yul\":45939:45951   */\n      and\n        /* \"#utility.yul\":45970:45988   */\n      dup1\n        /* \"#utility.yul\":45960:45962   */\n      tag_1079\n      jumpi\n        /* \"#utility.yul\":46026:46030   */\n      0x7f\n        /* \"#utility.yul\":46018:46024   */\n      dup3\n        /* \"#utility.yul\":46014:46031   */\n      and\n        /* \"#utility.yul\":46004:46031   */\n      swap2\n      pop\n        /* \"#utility.yul\":45960:45962   */\n    tag_1079:\n        /* \"#utility.yul\":46088:46090   */\n      0x20\n        /* \"#utility.yul\":46080:46086   */\n      dup3\n        /* \"#utility.yul\":46077:46091   */\n      lt\n        /* \"#utility.yul\":46057:46075   */\n      dup2\n        /* \"#utility.yul\":46054:46092   */\n      eq\n        /* \"#utility.yul\":46051:46053   */\n      iszero\n      tag_1080\n      jumpi\n        /* \"#utility.yul\":46107:46125   */\n      tag_1081\n      tag_1082\n      jump\t// in\n    tag_1081:\n        /* \"#utility.yul\":46051:46053   */\n    tag_1080:\n        /* \"#utility.yul\":45872:46141   */\n      pop\n      swap2\n      swap1\n      pop\n      jump\t// out\n        /* \"#utility.yul\":46147:46380   */\n    tag_205:\n      0x00\n        /* \"#utility.yul\":46209:46233   */\n      tag_1084\n        /* \"#utility.yul\":46227:46232   */\n      dup3\n        /* \"#utility.yul\":46209:46233   */\n      tag_906\n      jump\t// in\n    tag_1084:\n        /* \"#utility.yul\":46200:46233   */\n      swap2\n      pop\n        /* \"#utility.yul\":46255:46321   */\n      0xffffffffffffffffffffffffffffffffffffffffffffffffffffffffffffffff\n        /* \"#utility.yul\":46248:46253   */\n      dup3\n        /* \"#utility.yul\":46245:46322   */\n      eq\n        /* \"#utility.yul\":46242:46244   */\n      iszero\n      tag_1085\n      jumpi\n        /* \"#utility.yul\":46325:46343   */\n      tag_1086\n      tag_1054\n      jump\t// in\n    tag_1086:\n        /* \"#utility.yul\":46242:46244   */\n    tag_1085:\n        /* \"#utility.yul\":46372:46373   */\n      0x01\n        /* \"#utility.yul\":46365:46370   */\n      dup3\n        /* \"#utility.yul\":46361:46374   */\n      add\n        /* \"#utility.yul\":46354:46374   */\n      swap1\n      pop\n        /* \"#utility.yul\":46190:46380   */\n      swap2\n      swap1\n      pop\n      jump\t// out\n        /* \"#utility.yul\":46386:46566   */\n    tag_1054:\n        /* \"#utility.yul\":46434:46511   */\n      0x4e487b7100000000000000000000000000000000000000000000000000000000\n        /* \"#utility.yul\":46431:46432   */\n      0x00\n        /* \"#utility.yul\":46424:46512   */\n      mstore\n        /* \"#utility.yul\":46531:46535   */\n      0x11\n        /* \"#utility.yul\":46528:46529   */\n      0x04\n        /* \"#utility.yul\":46521:46536   */\n      mstore\n        /* \"#utility.yul\":46555:46559   */\n      0x24\n        /* \"#utility.yul\":46552:46553   */\n      0x00\n        /* \"#utility.yul\":46545:46560   */\n      revert\n        /* \"#utility.yul\":46572:46752   */\n    tag_1060:\n        /* \"#utility.yul\":46620:46697   */\n      0x4e487b7100000000000000000000000000000000000000000000000000000000\n        /* \"#utility.yul\":46617:46618   */\n      0x00\n        /* \"#utility.yul\":46610:46698   */\n      mstore\n        /* \"#utility.yul\":46717:46721   */\n      0x12\n        /* \"#utility.yul\":46714:46715   */\n      0x04\n        /* \"#utility.yul\":46707:46722   */\n      mstore\n        /* \"#utility.yul\":46741:46745   */\n      0x24\n        /* \"#utility.yul\":46738:46739   */\n      0x00\n        /* \"#utility.yul\":46731:46746   */\n      revert\n        /* \"#utility.yul\":46758:46938   */\n    tag_1082:\n        /* \"#utility.yul\":46806:46883   */\n      0x4e487b7100000000000000000000000000000000000000000000000000000000\n        /* \"#utility.yul\":46803:46804   */\n      0x00\n        /* \"#utility.yul\":46796:46884   */\n      mstore\n        /* \"#utility.yul\":46903:46907   */\n      0x22\n        /* \"#utility.yul\":46900:46901   */\n      0x04\n        /* \"#utility.yul\":46893:46908   */\n      mstore\n        /* \"#utility.yul\":46927:46931   */\n      0x24\n        /* \"#utility.yul\":46924:46925   */\n      0x00\n        /* \"#utility.yul\":46917:46932   */\n      revert\n        /* \"#utility.yul\":46944:47124   */\n    tag_1015:\n        /* \"#utility.yul\":46992:47069   */\n      0x4e487b7100000000000000000000000000000000000000000000000000000000\n        /* \"#utility.yul\":46989:46990   */\n      0x00\n        /* \"#utility.yul\":46982:47070   */\n      mstore\n        /* \"#utility.yul\":47089:47093   */\n      0x41\n        /* \"#utility.yul\":47086:47087   */\n      0x04\n        /* \"#utility.yul\":47079:47094   */\n      mstore\n        /* \"#utility.yul\":47113:47117   */\n      0x24\n        /* \"#utility.yul\":47110:47111   */\n      0x00\n        /* \"#utility.yul\":47103:47118   */\n      revert\n        /* \"#utility.yul\":47130:47232   */\n    tag_817:\n      0x00\n        /* \"#utility.yul\":47222:47224   */\n      0x1f\n        /* \"#utility.yul\":47218:47225   */\n      not\n        /* \"#utility.yul\":47213:47215   */\n      0x1f\n        /* \"#utility.yul\":47206:47211   */\n      dup4\n        /* \"#utility.yul\":47202:47216   */\n      add\n        /* \"#utility.yul\":47198:47226   */\n      and\n        /* \"#utility.yul\":47188:47226   */\n      swap1\n      pop\n        /* \"#utility.yul\":47178:47232   */\n      swap2\n      swap1\n      pop\n      jump\t// out\n        /* \"#utility.yul\":47238:47360   */\n    tag_647:\n        /* \"#utility.yul\":47311:47335   */\n      tag_1093\n        /* \"#utility.yul\":47329:47334   */\n      dup2\n        /* \"#utility.yul\":47311:47335   */\n      tag_734\n      jump\t// in\n    tag_1093:\n        /* \"#utility.yul\":47304:47309   */\n      dup2\n        /* \"#utility.yul\":47301:47336   */\n      eq\n        /* \"#utility.yul\":47291:47293   */\n      tag_1094\n      jumpi\n        /* \"#utility.yul\":47350:47351   */\n      0x00\n        /* \"#utility.yul\":47347:47348   */\n      dup1\n        /* \"#utility.yul\":47340:47352   */\n      revert\n        /* \"#utility.yul\":47291:47293   */\n    tag_1094:\n        /* \"#utility.yul\":47281:47360   */\n      pop\n      jump\t// out\n        /* \"#utility.yul\":47366:47488   */\n    tag_670:\n        /* \"#utility.yul\":47439:47463   */\n      tag_1096\n        /* \"#utility.yul\":47457:47462   */\n      dup2\n        /* \"#utility.yul\":47439:47463   */\n      tag_906\n      jump\t// in\n    tag_1096:\n        /* \"#utility.yul\":47432:47437   */\n      dup2\n        /* \"#utility.yul\":47429:47464   */\n      eq\n        /* \"#utility.yul\":47419:47421   */\n      tag_1097\n      jumpi\n        /* \"#utility.yul\":47478:47479   */\n      0x00\n        /* \"#utility.yul\":47475:47476   */\n      dup1\n        /* \"#utility.yul\":47468:47480   */\n      revert\n        /* \"#utility.yul\":47419:47421   */\n    tag_1097:\n        /* \"#utility.yul\":47409:47488   */\n      pop\n      jump\t// out\n\n    auxdata: 0xa2646970667358221220167ac0a01c522919904bcf4054602f40b3939030de3b68fa5cdb462e66a12c7464736f6c63430008000033\n}\n",
				"bytecode": {
					"linkReferences": {},
					"object": "608060405234801561001057600080fd5b506157f980620000216000396000f3fe6080604052600436106101d85760003560e01c80637897d89a11610102578063be64b76b11610095578063db8d942911610064578063db8d942914610734578063f4d7046814610771578063f9b0b1eb1461079c578063fb7cfdd7146107c5576101d8565b8063be64b76b14610676578063c6384071146106a1578063c7344165146106cc578063d4d7b19a146106f7576101d8565b8063997d2830116100d1578063997d28301461059f5780639d710777146105ca578063abbd8fef1461060e578063adff212314610639576101d8565b80637897d89a146104d25780637bbce9f51461051057806383af2d1614610539578063910b069114610576576101d8565b8063372500ab1161017a5780635c1a82e0116101495780635c1a82e01461040b5780635df81330146104275780635fe8e7cc1461046a5780637018a17814610495576101d8565b8063372500ab146103595780633f056905146103705780633fc4f914146103b35780635a55c1f0146103ca576101d8565b8063118e47bc116101b6578063118e47bc1461029457806318a5bbdc146102b05780631c43b504146102ef5780631d1fad0a14610330576101d8565b806302a5f856146101dd578063041d31381461021a5780630f8c9e2814610257575b600080fd5b3480156101e957600080fd5b5061020460048036038101906101ff919061418f565b6107f0565b6040516102119190615144565b60405180910390f35b34801561022657600080fd5b50610241600480360381019061023c9190614275565b61093c565b60405161024e9190615144565b60405180910390f35b34801561026357600080fd5b5061027e60048036038101906102799190614275565b6109c1565b60405161028b9190614d00565b60405180910390f35b6102ae60048036038101906102a9919061409e565b610a00565b005b3480156102bc57600080fd5b506102d760048036038101906102d29190614039565b610cb2565b6040516102e69392919061515f565b60405180910390f35b3480156102fb57600080fd5b506103166004803603810190610311919061414e565b610ce9565b604051610327959493929190614dcc565b60405180910390f35b34801561033c57600080fd5b5061035760048036038101906103529190614275565b610dea565b005b34801561036557600080fd5b5061036e61130a565b005b34801561037c57600080fd5b5061039760048036038101906103929190614275565b611503565b6040516103aa9796959493929190615259565b60405180910390f35b3480156103bf57600080fd5b506103c8611655565b005b3480156103d657600080fd5b506103f160048036038101906103ec9190614275565b611a81565b604051610402959493929190614e26565b60405180910390f35b6104256004803603810190610420919061429e565b611ccf565b005b34801561043357600080fd5b5061044e60048036038101906104499190614275565b61205d565b6040516104619796959493929190614e87565b60405180910390f35b34801561047657600080fd5b5061047f6121c9565b60405161048c9190614d1b565b60405180910390f35b3480156104a157600080fd5b506104bc60048036038101906104b79190614039565b612418565b6040516104c99190614d74565b60405180910390f35b3480156104de57600080fd5b506104f960048036038101906104f49190614275565b612534565b604051610507929190614d3d565b60405180910390f35b34801561051c57600080fd5b50610537600480360381019061053291906142f2565b6127ee565b005b34801561054557600080fd5b50610560600480360381019061055b9190614275565b612ad3565b60405161056d9190615144565b60405180910390f35b34801561058257600080fd5b5061059d60048036038101906105989190614275565b612bfc565b005b3480156105ab57600080fd5b506105b4612dee565b6040516105c19190615144565b60405180910390f35b3480156105d657600080fd5b506105f160048036038101906105ec9190614275565b612df4565b6040516106059897969594939291906151c6565b60405180910390f35b34801561061a57600080fd5b506106236130da565b6040516106309190615144565b60405180910390f35b34801561064557600080fd5b50610660600480360381019061065b9190614275565b6130df565b60405161066d9190614daa565b60405180910390f35b34801561068257600080fd5b5061068b61318b565b6040516106989190615144565b60405180910390f35b3480156106ad57600080fd5b506106b6613197565b6040516106c39190615144565b60405180910390f35b3480156106d857600080fd5b506106e161319d565b6040516106ee9190615144565b60405180910390f35b34801561070357600080fd5b5061071e60048036038101906107199190614039565b613297565b60405161072b9190614d8f565b60405180910390f35b34801561074057600080fd5b5061075b60048036038101906107569190614039565b6132f0565b6040516107689190615144565b60405180910390f35b34801561077d57600080fd5b5061078661333c565b6040516107939190615144565b60405180910390f35b3480156107a857600080fd5b506107c360048036038101906107be9190614062565b613348565b005b3480156107d157600080fd5b506107da6136af565b6040516107e79190615144565b60405180910390f35b60006040518061010001604052806001548152602001898152602001888152602001878152602001868152602001858152602001848152602001838152506000806001548152602001908152602001600020600082015181600001556020820151816001019080519060200190610868929190613aae565b506040820151816002019080519060200190610885929190613aae565b50606082015181600301556080820151816004015560a08201518160050190805190602001906108b6929190613b34565b5060c0820151816006015560e082015181600701559050507f52be7c4e77b4de76b7607d621492061fe13b58597e72dfb5e51ab8f6187ed14160015489604051610901929190615196565b60405180910390a16001600081548092919061091c9061567f565b91905055506001805461092f919061558f565b9050979650505050505050565b6000816006600082815260200190815260200160002060070160009054906101000a900460ff166109a2576040517f08c379a000000000000000000000000000000000000000000000000000000000815260040161099990615124565b60405180910390fd5b6006600084815260200190815260200160002060080154915050919050565b600481815481106109d157600080fd5b906000526020600020016000915054906101000a900473ffffffffffffffffffffffffffffffffffffffff1681565b6003610a0a61319d565b1015610a4b576040517f08c379a0000000000000000000000000000000000000000000000000000000008152600401610a4290615104565b60405180910390fd5b428311610a8d576040517f08c379a0000000000000000000000000000000000000000000000000000000008152600401610a8490615004565b60405180910390fd5b6002811015610ad1576040517f08c379a0000000000000000000000000000000000000000000000000000000008152600401610ac890614fe4565b60405180910390fd5b610ad961319d565b811115610b1b576040517f08c379a0000000000000000000000000000000000000000000000000000000008152600401610b12906150e4565b60405180910390fd5b600060076000815480929190610b309061567f565b9190505590508787600660008481526020019081526020016000206000019190610b5b929190613b94565b508585600660008481526020019081526020016000206001019190610b81929190613b94565b508360066000838152602001908152602001600020600201819055508260066000838152602001908152602001600020600301906002610bc2929190613c1a565b5060016006600083815260200190815260200160002060070160006101000a81548160ff02191690831515021790555060003411610c085767016345785d8a0000610c0a565b345b600660008381526020019081526020016000206008018190555060006006600083815260200190815260200160002060090160006101000a81548160ff0219169083151502179055508160066000838152602001908152602001600020600a0181905550807feae33df196a32d272e8aa809e6cf4f18536005fa3f76c93c4b4072f5c47669038584604051610ca09291906152d6565b60405180910390a25050505050505050565b60026020528060005260406000206000915090508060020154908060030160009054906101000a900460ff16908060040154905083565b600381805160208101820180518482526020830160208501208183528095505050505050600091509050806000018054610d229061564d565b80601f0160208091040260200160405190810160405280929190818152602001828054610d4e9061564d565b8015610d9b5780601f10610d7057610100808354040283529160200191610d9b565b820191906000526020600020905b815481529060010190602001808311610d7e57829003601f168201915b5050505050908060010160009054906101000a900473ffffffffffffffffffffffffffffffffffffffff16908060020154908060030160009054906101000a900460ff16908060040154905085565b600260003373ffffffffffffffffffffffffffffffffffffffff1673ffffffffffffffffffffffffffffffffffffffff16815260200190815260200160002060030160009054906101000a900460ff16610e79576040517f08c379a0000000000000000000000000000000000000000000000000000000008152600401610e7090615024565b60405180910390fd5b6000805b6005805490508110156112be573373ffffffffffffffffffffffffffffffffffffffff16600360058381548110610edd577f4e487b7100000000000000000000000000000000000000000000000000000000600052603260045260246000fd5b90600052602060002001604051610ef49190614ce9565b908152602001604051809103902060010160009054906101000a900473ffffffffffffffffffffffffffffffffffffffff1673ffffffffffffffffffffffffffffffffffffffff16148015610fac575082600360058381548110610f81577f4e487b7100000000000000000000000000000000000000000000000000000000600052603260045260246000fd5b90600052602060002001604051610f989190614ce9565b908152602001604051809103902060020154145b801561102d575060011515600360058381548110610ff3577f4e487b7100000000000000000000000000000000000000000000000000000000600052603260045260246000fd5b9060005260206000200160405161100a9190614ce9565b908152602001604051809103902060030160009054906101000a900460ff161515145b156112ab576000600260003373ffffffffffffffffffffffffffffffffffffffff1673ffffffffffffffffffffffffffffffffffffffff16815260200190815260200160002060030160006101000a81548160ff02191690831515021790555060006003600583815481106110cb577f4e487b7100000000000000000000000000000000000000000000000000000000600052603260045260246000fd5b906000526020600020016040516110e29190614ce9565b908152602001604051809103902060030160006101000a81548160ff0219169083151502179055506005808281548110611145577f4e487b7100000000000000000000000000000000000000000000000000000000600052603260045260246000fd5b90600052602060002001908060018154018082558091505060019003906000526020600020016000909190919091509080546111809061564d565b61118b929190613c5a565b506000600260003373ffffffffffffffffffffffffffffffffffffffff1673ffffffffffffffffffffffffffffffffffffffff1681526020019081526020016000206002015490506000600260003373ffffffffffffffffffffffffffffffffffffffff1673ffffffffffffffffffffffffffffffffffffffff168152602001908152602001600020600201819055503373ffffffffffffffffffffffffffffffffffffffff166108fc829081150290604051600060405180830381858888f19350505050158015611261573d6000803e3d6000fd5b503373ffffffffffffffffffffffffffffffffffffffff167fadf7a730cb8e5f6d0d4933fcce78776b911b3d86736403569632600df0b99e6160405160405180910390a260019250505b80806112b69061567f565b915050610e7d565b506000151581151514611306576040517f08c379a00000000000000000000000000000000000000000000000000000000081526004016112fd90615084565b60405180910390fd5b5050565b600260003373ffffffffffffffffffffffffffffffffffffffff1673ffffffffffffffffffffffffffffffffffffffff16815260200190815260200160002060030160009054906101000a900460ff16611399576040517f08c379a000000000000000000000000000000000000000000000000000000000815260040161139090615024565b60405180910390fd5b6000600260003373ffffffffffffffffffffffffffffffffffffffff1673ffffffffffffffffffffffffffffffffffffffff16815260200190815260200160002060040154905060008111611423576040517f08c379a000000000000000000000000000000000000000000000000000000000815260040161141a90614f64565b60405180910390fd5b6000600260003373ffffffffffffffffffffffffffffffffffffffff1673ffffffffffffffffffffffffffffffffffffffff168152602001908152602001600020600401819055503373ffffffffffffffffffffffffffffffffffffffff166108fc829081150290604051600060405180830381858888f193505050501580156114b1573d6000803e3d6000fd5b503373ffffffffffffffffffffffffffffffffffffffff167f106f923f993c2149d49b4255ff723acafa1f2d94393f561d3eda32ae348f7241826040516114f89190615144565b60405180910390a250565b600060205280600052604060002060009150905080600001549080600101805461152c9061564d565b80601f01602080910402602001604051908101604052809291908181526020018280546115589061564d565b80156115a55780601f1061157a576101008083540402835291602001916115a5565b820191906000526020600020905b81548152906001019060200180831161158857829003601f168201915b5050505050908060020180546115ba9061564d565b80601f01602080910402602001604051908101604052809291908181526020018280546115e69061564d565b80156116335780601f1061160857610100808354040283529160200191611633565b820191906000526020600020905b81548152906001019060200180831161161657829003601f168201915b5050505050908060030154908060040154908060060154908060070154905087565b600260003373ffffffffffffffffffffffffffffffffffffffff1673ffffffffffffffffffffffffffffffffffffffff16815260200190815260200160002060030160009054906101000a900460ff166116e4576040517f08c379a00000000000000000000000000000000000000000000000000000000081526004016116db90615024565b60405180910390fd5b60005b600754811015611909576006600082815260200190815260200160002060070160009054906101000a900460ff168015611737575042600660008381526020019081526020016000206002015411155b15611870576000805b6006600084815260200190815260200160002060060180549050811015611829573373ffffffffffffffffffffffffffffffffffffffff166006600085815260200190815260200160002060060182815481106117c6577f4e487b7100000000000000000000000000000000000000000000000000000000600052603260045260246000fd5b9060005260206000200160009054906101000a900473ffffffffffffffffffffffffffffffffffffffff1673ffffffffffffffffffffffffffffffffffffffff1614156118165760019150611829565b80806118219061567f565b915050611740565b508061186a576040517f08c379a000000000000000000000000000000000000000000000000000000000815260040161186190615044565b60405180910390fd5b506118f6565b6006600082815260200190815260200160002060070160009054906101000a900460ff1680156118b55750426006600083815260200190815260200160002060020154115b156118f5576040517f08c379a00000000000000000000000000000000000000000000000000000000081526004016118ec90614f24565b60405180910390fd5b5b80806119019061567f565b9150506116e7565b506000600260003373ffffffffffffffffffffffffffffffffffffffff1673ffffffffffffffffffffffffffffffffffffffff16815260200190815260200160002060030160006101000a81548160ff0219169083151502179055506000600260003373ffffffffffffffffffffffffffffffffffffffff1673ffffffffffffffffffffffffffffffffffffffff1681526020019081526020016000206002015490506000600260003373ffffffffffffffffffffffffffffffffffffffff1673ffffffffffffffffffffffffffffffffffffffff168152602001908152602001600020600201819055503373ffffffffffffffffffffffffffffffffffffffff166108fc829081150290604051600060405180830381858888f19350505050158015611a3a573d6000803e3d6000fd5b503373ffffffffffffffffffffffffffffffffffffffff167fadf7a730cb8e5f6d0d4933fcce78776b911b3d86736403569632600df0b99e6160405160405180910390a250565b6060806000611a8e613ce7565b6000856006600082815260200190815260200160002060070160009054906101000a900460ff16611af4576040517f08c379a0000000000000000000000000000000000000000000000000000000008152600401611aeb90615124565b60405180910390fd5b6006600088815260200190815260200160002060000160066000898152602001908152602001600020600101600660008a815260200190815260200160002060020154600660008b8152602001908152602001600020600301600660008c8152602001908152602001600020600a0154848054611b709061564d565b80601f0160208091040260200160405190810160405280929190818152602001828054611b9c9061564d565b8015611be95780601f10611bbe57610100808354040283529160200191611be9565b820191906000526020600020905b815481529060010190602001808311611bcc57829003601f168201915b50505050509450838054611bfc9061564d565b80601f0160208091040260200160405190810160405280929190818152602001828054611c289061564d565b8015611c755780601f10611c4a57610100808354040283529160200191611c75565b820191906000526020600020905b815481529060010190602001808311611c5857829003601f168201915b5050505050935081600280602002604051908101604052809291908260028015611cb4576020028201915b815481526020019060010190808311611ca0575b50505050509150955095509550955095505091939590929450565b60005b600580549050811015611ed5573373ffffffffffffffffffffffffffffffffffffffff16600360058381548110611d32577f4e487b7100000000000000000000000000000000000000000000000000000000600052603260045260246000fd5b90600052602060002001604051611d499190614ce9565b908152602001604051809103902060010160009054906101000a900473ffffffffffffffffffffffffffffffffffffffff1673ffffffffffffffffffffffffffffffffffffffff16141580611e02575082600360058381548110611dd6577f4e487b7100000000000000000000000000000000000000000000000000000000600052603260045260246000fd5b90600052602060002001604051611ded9190614ce9565b90815260200160405180910390206002015414155b8015611e83575060011515600360058381548110611e49577f4e487b7100000000000000000000000000000000000000000000000000000000600052603260045260246000fd5b90600052602060002001604051611e609190614ce9565b908152602001604051809103902060030160009054906101000a900460ff161515145b611ec2576040517f08c379a0000000000000000000000000000000000000000000000000000000008152600401611eb990614f84565b60405180910390fd5b8080611ecd9061567f565b915050611cd2565b506040518060a001604052808281526020013373ffffffffffffffffffffffffffffffffffffffff1681526020018381526020016001151581526020016000815250600382604051611f279190614cd2565b90815260200160405180910390206000820151816000019080519060200190611f51929190613d09565b5060208201518160010160006101000a81548173ffffffffffffffffffffffffffffffffffffffff021916908373ffffffffffffffffffffffffffffffffffffffff1602179055506040820151816002015560608201518160030160006101000a81548160ff0219169083151502179055506080820151816004015590505060058190806001815401808255809150506001900390600052602060002001600090919091909150908051906020019061200b929190613d09565b508060405161201a9190614cd2565b60405180910390207fd1289fdd73e159a0dec32ffc16d4a9eb5dd30b68a82d8e888f5a83b80ed557be836040516120519190615144565b60405180910390a25050565b60066020528060005260406000206000915090508060000180546120809061564d565b80601f01602080910402602001604051908101604052809291908181526020018280546120ac9061564d565b80156120f95780601f106120ce576101008083540402835291602001916120f9565b820191906000526020600020905b8154815290600101906020018083116120dc57829003601f168201915b50505050509080600101805461210e9061564d565b80601f016020809104026020016040519081016040528092919081815260200182805461213a9061564d565b80156121875780601f1061215c57610100808354040283529160200191612187565b820191906000526020600020905b81548152906001019060200180831161216a57829003601f168201915b5050505050908060020154908060070160009054906101000a900460ff16908060080154908060090160009054906101000a900460ff169080600a0154905087565b606060006121d561319d565b905060008167ffffffffffffffff811115612219577f4e487b7100000000000000000000000000000000000000000000000000000000600052604160045260246000fd5b6040519080825280602002602001820160405280156122475781602001602082028036833780820191505090505b5090506000805b60048054905081101561240e576002600060048381548110612299577f4e487b7100000000000000000000000000000000000000000000000000000000600052603260045260246000fd5b9060005260206000200160009054906101000a900473ffffffffffffffffffffffffffffffffffffffff1673ffffffffffffffffffffffffffffffffffffffff1673ffffffffffffffffffffffffffffffffffffffff16815260200190815260200160002060030160009054906101000a900460ff16156123fb576004818154811061234e577f4e487b7100000000000000000000000000000000000000000000000000000000600052603260045260246000fd5b9060005260206000200160009054906101000a900473ffffffffffffffffffffffffffffffffffffffff168383815181106123b2577f4e487b7100000000000000000000000000000000000000000000000000000000600052603260045260246000fd5b602002602001019073ffffffffffffffffffffffffffffffffffffffff16908173ffffffffffffffffffffffffffffffffffffffff168152505081806123f79061567f565b9250505b80806124069061567f565b91505061224e565b5081935050505090565b612420613ce7565b600260008373ffffffffffffffffffffffffffffffffffffffff1673ffffffffffffffffffffffffffffffffffffffff16815260200190815260200160002060030160009054906101000a900460ff166124af576040517f08c379a00000000000000000000000000000000000000000000000000000000081526004016124a690614f44565b60405180910390fd5b600260008373ffffffffffffffffffffffffffffffffffffffff1673ffffffffffffffffffffffffffffffffffffffff168152602001908152602001600020600001600280602002604051908101604052809291908260028015612528576020028201915b815481526020019060010190808311612514575b50505050509050919050565b606080826006600082815260200190815260200160002060070160009054906101000a900460ff1661259b576040517f08c379a000000000000000000000000000000000000000000000000000000000815260040161259290615124565b60405180910390fd5b6006600085815260200190815260200160002060060180548060200260200160405190810160405280929190818152602001828054801561263157602002820191906000526020600020905b8160009054906101000a900473ffffffffffffffffffffffffffffffffffffffff1673ffffffffffffffffffffffffffffffffffffffff16815260200190600101908083116125e7575b50505050509250825167ffffffffffffffff811115612679577f4e487b7100000000000000000000000000000000000000000000000000000000600052604160045260246000fd5b6040519080825280602002602001820160405280156126b257816020015b61269f613ce7565b8152602001906001900390816126975790505b50915060005b83518110156127e757600660008681526020019081526020016000206005016000858381518110612712577f4e487b7100000000000000000000000000000000000000000000000000000000600052603260045260246000fd5b602002602001015173ffffffffffffffffffffffffffffffffffffffff1673ffffffffffffffffffffffffffffffffffffffff16815260200190815260200160002060028060200260405190810160405280929190826002801561278b576020028201915b815481526020019060010190808311612777575b50505050508382815181106127c9577f4e487b7100000000000000000000000000000000000000000000000000000000600052603260045260246000fd5b602002602001018190525080806127df9061567f565b9150506126b8565b5050915091565b600260003373ffffffffffffffffffffffffffffffffffffffff1673ffffffffffffffffffffffffffffffffffffffff16815260200190815260200160002060030160009054906101000a900460ff1661287d576040517f08c379a000000000000000000000000000000000000000000000000000000000815260040161287490615024565b60405180910390fd5b826006600082815260200190815260200160002060070160009054906101000a900460ff166128e1576040517f08c379a00000000000000000000000000000000000000000000000000000000081526004016128d890615124565b60405180910390fd5b83600660008281526020019081526020016000206002015442101561293b576040517f08c379a000000000000000000000000000000000000000000000000000000000815260040161293290615064565b60405180910390fd5b6040518060400160405280858152602001848152506006600087815260200190815260200160002060050160003373ffffffffffffffffffffffffffffffffffffffff1673ffffffffffffffffffffffffffffffffffffffff1681526020019081526020016000209060026129b1929190613d8f565b5060066000868152602001908152602001600020600601339080600181540180825580915050600190039060005260206000200160009091909190916101000a81548173ffffffffffffffffffffffffffffffffffffffff021916908373ffffffffffffffffffffffffffffffffffffffff1602179055503373ffffffffffffffffffffffffffffffffffffffff16857f60ef478ef7c0f7d3a52e92839f6a502c60d120a4bab1994106a5634853553db960405160405180910390a3612a7561319d565b6006600087815260200190815260200160002060060180549050148015612abd57506006600086815260200190815260200160002060090160009054906101000a900460ff16155b15612acc57612acb856136bf565b5b5050505050565b6000806000905060005b600580549050811015612bf257600360058281548110612b26577f4e487b7100000000000000000000000000000000000000000000000000000000600052603260045260246000fd5b90600052602060002001604051612b3d9190614ce9565b908152602001604051809103902060030160009054906101000a900460ff168015612bcb575083600360058381548110612ba0577f4e487b7100000000000000000000000000000000000000000000000000000000600052603260045260246000fd5b90600052602060002001604051612bb79190614ce9565b908152602001604051809103902060020154145b15612bdf578180612bdb9061567f565b9250505b8080612bea9061567f565b915050612add565b5080915050919050565b806006600082815260200190815260200160002060070160009054906101000a900460ff16612c60576040517f08c379a0000000000000000000000000000000000000000000000000000000008152600401612c5790615124565b60405180910390fd5b816006600082815260200190815260200160002060020154421015612cba576040517f08c379a0000000000000000000000000000000000000000000000000000000008152600401612cb190615064565b60405180910390fd5b610e106006600085815260200190815260200160002060020154612cde9190615508565b421015612d20576040517f08c379a0000000000000000000000000000000000000000000000000000000008152600401612d1790614f04565b60405180910390fd5b6006600084815260200190815260200160002060090160009054906101000a900460ff1615612d84576040517f08c379a0000000000000000000000000000000000000000000000000000000008152600401612d7b906150c4565b60405180910390fd5b6000600660008581526020019081526020016000206006018054905011612de0576040517f08c379a0000000000000000000000000000000000000000000000000000000008152600401612dd790614fc4565b60405180910390fd5b612de9836136bf565b505050565b60015481565b600060608060008060606000806001548910612e45576040517f08c379a0000000000000000000000000000000000000000000000000000000008152600401612e3c90614fa4565b60405180910390fd5b60008060008b81526020019081526020016000206040518061010001604052908160008201548152602001600182018054612e7f9061564d565b80601f0160208091040260200160405190810160405280929190818152602001828054612eab9061564d565b8015612ef85780601f10612ecd57610100808354040283529160200191612ef8565b820191906000526020600020905b815481529060010190602001808311612edb57829003601f168201915b50505050508152602001600282018054612f119061564d565b80601f0160208091040260200160405190810160405280929190818152602001828054612f3d9061564d565b8015612f8a5780601f10612f5f57610100808354040283529160200191612f8a565b820191906000526020600020905b815481529060010190602001808311612f6d57829003601f168201915b50505050508152602001600382015481526020016004820154815260200160058201805480602002602001604051908101604052809291908181526020016000905b82821015613078578382906000526020600020018054612feb9061564d565b80601f01602080910402602001604051908101604052809291908181526020018280546130179061564d565b80156130645780601f1061303957610100808354040283529160200191613064565b820191906000526020600020905b81548152906001019060200180831161304757829003601f168201915b505050505081526020019060010190612fcc565b505050508152602001600682015481526020016007820154815250509050806000015181602001518260400151836060015184608001518560a001518660c001518760e001519850985098509850985098509850985050919395975091939597565b600381565b600581815481106130ef57600080fd5b90600052602060002001600091509050805461310a9061564d565b80601f01602080910402602001604051908101604052809291908181526020018280546131369061564d565b80156131835780601f1061315857610100808354040283529160200191613183565b820191906000526020600020905b81548152906001019060200180831161316657829003601f168201915b505050505081565b670de0b6b3a764000081565b60075481565b6000806000905060005b60048054905081101561328f5760026000600483815481106131f2577f4e487b7100000000000000000000000000000000000000000000000000000000600052603260045260246000fd5b9060005260206000200160009054906101000a900473ffffffffffffffffffffffffffffffffffffffff1673ffffffffffffffffffffffffffffffffffffffff1673ffffffffffffffffffffffffffffffffffffffff16815260200190815260200160002060030160009054906101000a900460ff161561327c5781806132789061567f565b9250505b80806132879061567f565b9150506131a7565b508091505090565b6000600260008373ffffffffffffffffffffffffffffffffffffffff1673ffffffffffffffffffffffffffffffffffffffff16815260200190815260200160002060030160009054906101000a900460ff169050919050565b6000600260008373ffffffffffffffffffffffffffffffffffffffff1673ffffffffffffffffffffffffffffffffffffffff168152602001908152602001600020600401549050919050565b67016345785d8a000081565b806006600082815260200190815260200160002060070160009054906101000a900460ff166133ac576040517f08c379a00000000000000000000000000000000000000000000000000000000081526004016133a390615124565b60405180910390fd5b4260066000848152602001908152602001600020600201541115613405576040517f08c379a00000000000000000000000000000000000000000000000000000000081526004016133fc90615064565b60405180910390fd5b600260008473ffffffffffffffffffffffffffffffffffffffff1673ffffffffffffffffffffffffffffffffffffffff16815260200190815260200160002060030160009054906101000a900460ff16613494576040517f08c379a000000000000000000000000000000000000000000000000000000000815260040161348b90614f44565b60405180910390fd5b6000805b6006600085815260200190815260200160002060060180549050811015613581578473ffffffffffffffffffffffffffffffffffffffff1660066000868152602001908152602001600020600601828154811061351e577f4e487b7100000000000000000000000000000000000000000000000000000000600052603260045260246000fd5b9060005260206000200160009054906101000a900473ffffffffffffffffffffffffffffffffffffffff1673ffffffffffffffffffffffffffffffffffffffff16141561356e5760019150613581565b80806135799061567f565b915050613498565b5080156135c3576040517f08c379a00000000000000000000000000000000000000000000000000000000081526004016135ba906150a4565b60405180910390fd5b6000600260008673ffffffffffffffffffffffffffffffffffffffff1673ffffffffffffffffffffffffffffffffffffffff16815260200190815260200160002060030160006101000a81548160ff0219169083151502179055506000600260008673ffffffffffffffffffffffffffffffffffffffff1673ffffffffffffffffffffffffffffffffffffffff168152602001908152602001600020600201819055508373ffffffffffffffffffffffffffffffffffffffff167fadf7a730cb8e5f6d0d4933fcce78776b911b3d86736403569632600df0b99e6160405160405180910390a250505050565b6000670de0b6b3a7640000905090565b806006600082815260200190815260200160002060070160009054906101000a900460ff16613723576040517f08c379a000000000000000000000000000000000000000000000000000000000815260040161371a90615124565b60405180910390fd5b6006600083815260200190815260200160002060090160009054906101000a900460ff1615613787576040517f08c379a000000000000000000000000000000000000000000000000000000000815260040161377e906150c4565b60405180910390fd5b60006006600084815260200190815260200160002060060180549050116137e3576040517f08c379a00000000000000000000000000000000000000000000000000000000081526004016137da90614fc4565b60405180910390fd5b60006006600084815260200190815260200160002060080154905060006006600085815260200190815260200160002060060180549050905061382461319d565b8114156139375760008183613839919061555e565b905060005b82811015613930576000600660008881526020019081526020016000206006018281548110613896577f4e487b7100000000000000000000000000000000000000000000000000000000600052603260045260246000fd5b9060005260206000200160009054906101000a900473ffffffffffffffffffffffffffffffffffffffff16905082600260008373ffffffffffffffffffffffffffffffffffffffff1673ffffffffffffffffffffffffffffffffffffffff16815260200190815260200160002060040160008282546139159190615508565b925050819055505080806139289061567f565b91505061383e565b5050613a3f565b60008183613945919061555e565b905060005b82811015613a3c5760006006600088815260200190815260200160002060060182815481106139a2577f4e487b7100000000000000000000000000000000000000000000000000000000600052603260045260246000fd5b9060005260206000200160009054906101000a900473ffffffffffffffffffffffffffffffffffffffff16905082600260008373ffffffffffffffffffffffffffffffffffffffff1673ffffffffffffffffffffffffffffffffffffffff1681526020019081526020016000206004016000828254613a219190615508565b92505081905550508080613a349061567f565b91505061394a565b50505b60016006600086815260200190815260200160002060090160006101000a81548160ff021916908315150217905550837fda04004d58812f3e164f58e498158acca1b0054d975fce0e3bafdf56f2e254ba8383604051613aa09291906152d6565b60405180910390a250505050565b828054613aba9061564d565b90600052602060002090601f016020900481019282613adc5760008555613b23565b82601f10613af557805160ff1916838001178555613b23565b82800160010185558215613b23579182015b82811115613b22578251825591602001919060010190613b07565b5b509050613b309190613dcf565b5090565b828054828255906000526020600020908101928215613b83579160200282015b82811115613b82578251829080519060200190613b72929190613aae565b5091602001919060010190613b54565b5b509050613b909190613dec565b5090565b828054613ba09061564d565b90600052602060002090601f016020900481019282613bc25760008555613c09565b82601f10613bdb57803560ff1916838001178555613c09565b82800160010185558215613c09579182015b82811115613c08578235825591602001919060010190613bed565b5b509050613c169190613dcf565b5090565b8260028101928215613c49579160200282015b82811115613c48578235825591602001919060010190613c2d565b5b509050613c569190613dcf565b5090565b828054613c669061564d565b90600052602060002090601f016020900481019282613c885760008555613cd6565b82601f10613c995780548555613cd6565b82800160010185558215613cd657600052602060002091601f016020900482015b82811115613cd5578254825591600101919060010190613cba565b5b509050613ce39190613dcf565b5090565b6040518060400160405280600290602082028036833780820191505090505090565b828054613d159061564d565b90600052602060002090601f016020900481019282613d375760008555613d7e565b82601f10613d5057805160ff1916838001178555613d7e565b82800160010185558215613d7e579182015b82811115613d7d578251825591602001919060010190613d62565b5b509050613d8b9190613dcf565b5090565b8260028101928215613dbe579160200282015b82811115613dbd578251825591602001919060010190613da2565b5b509050613dcb9190613dcf565b5090565b5b80821115613de8576000816000905550600101613dd0565b5090565b5b80821115613e0c5760008181613e039190613e10565b50600101613ded565b5090565b508054613e1c9061564d565b6000825580601f10613e2e5750613e4d565b601f016020900490600052602060002090810190613e4c9190613dcf565b5b50565b6000613e63613e5e84615330565b6152ff565b9050808382526020820190508260005b85811015613ea35781358501613e898882613ffa565b845260208401935060208301925050600181019050613e73565b5050509392505050565b6000613ec0613ebb8461535c565b6152ff565b905082815260208101848484011115613ed857600080fd5b613ee384828561560b565b509392505050565b6000613efe613ef98461538c565b6152ff565b905082815260208101848484011115613f1657600080fd5b613f2184828561560b565b509392505050565b600081359050613f3881615795565b92915050565b600082601f830112613f4f57600080fd5b8135613f5f848260208601613e50565b91505092915050565b600081905082602060020282011115613f8057600080fd5b92915050565b60008083601f840112613f9857600080fd5b8235905067ffffffffffffffff811115613fb157600080fd5b602083019150836001820283011115613fc957600080fd5b9250929050565b600082601f830112613fe157600080fd5b8135613ff1848260208601613ead565b91505092915050565b600082601f83011261400b57600080fd5b813561401b848260208601613eeb565b91505092915050565b600081359050614033816157ac565b92915050565b60006020828403121561404b57600080fd5b600061405984828501613f29565b91505092915050565b6000806040838503121561407557600080fd5b600061408385828601613f29565b925050602061409485828601614024565b9150509250929050565b600080600080600080600060c0888a0312156140b957600080fd5b600088013567ffffffffffffffff8111156140d357600080fd5b6140df8a828b01613f86565b9750975050602088013567ffffffffffffffff8111156140fe57600080fd5b61410a8a828b01613f86565b9550955050604061411d8a828b01614024565b935050606061412e8a828b01613f68565b92505060a061413f8a828b01614024565b91505092959891949750929550565b60006020828403121561416057600080fd5b600082013567ffffffffffffffff81111561417a57600080fd5b61418684828501613fd0565b91505092915050565b600080600080600080600060e0888a0312156141aa57600080fd5b600088013567ffffffffffffffff8111156141c457600080fd5b6141d08a828b01613ffa565b975050602088013567ffffffffffffffff8111156141ed57600080fd5b6141f98a828b01613ffa565b965050604061420a8a828b01614024565b955050606061421b8a828b01614024565b945050608088013567ffffffffffffffff81111561423857600080fd5b6142448a828b01613f3e565b93505060a06142558a828b01614024565b92505060c06142668a828b01614024565b91505092959891949750929550565b60006020828403121561428757600080fd5b600061429584828501614024565b91505092915050565b600080604083850312156142b157600080fd5b60006142bf85828601614024565b925050602083013567ffffffffffffffff8111156142dc57600080fd5b6142e885828601613fd0565b9150509250929050565b60008060006060848603121561430757600080fd5b600061431586828701614024565b935050602061432686828701614024565b925050604061433786828701614024565b9150509250925092565b600061434d838361439d565b60208301905092915050565b600061436583836144ec565b60408301905092915050565b600061437d8383614692565b905092915050565b60006143918383614cb4565b60208301905092915050565b6143a6816155c3565b82525050565b6143b5816155c3565b82525050565b60006143c68261540b565b6143d08185615481565b93506143db836153bc565b8060005b8381101561440c5781516143f38882614341565b97506143fe8361544d565b9250506001810190506143df565b5085935050505092915050565b600061442482615416565b61442e8185615492565b9350614439836153cc565b8060005b8381101561446a5781516144518882614359565b975061445c8361545a565b92505060018101905061443d565b5085935050505092915050565b600061448282615421565b61448c81856154a3565b93508360208202850161449e856153dc565b8060005b858110156144da57848403895281516144bb8582614371565b94506144c683615467565b925060208a019950506001810190506144a2565b50829750879550505050505092915050565b6144f58161542c565b6144ff81846154b4565b925061450a826153ec565b8060005b8381101561453b5781516145228782614385565b965061452d83615474565b92505060018101905061450e565b505050505050565b61454c8161542c565b61455681846154bf565b9250614561826153ec565b8060005b838110156145925781516145798782614385565b965061458483615474565b925050600181019050614565565b505050505050565b6145a3816155d5565b82525050565b60006145b482615437565b6145be81856154ca565b93506145ce81856020860161561a565b6145d781615784565b840191505092915050565b60006145ed82615437565b6145f781856154db565b935061460781856020860161561a565b80840191505092915050565b600081546146208161564d565b61462a81866154db565b94506001821660008114614645576001811461465657614689565b60ff19831686528186019350614689565b61465f856153f6565b60005b8381101561468157815481890152600182019150602081019050614662565b838801955050505b50505092915050565b600061469d82615442565b6146a781856154e6565b93506146b781856020860161561a565b6146c081615784565b840191505092915050565b60006146d682615442565b6146e081856154f7565b93506146f081856020860161561a565b6146f981615784565b840191505092915050565b6000614711602a836154f7565b91507f57616974206174206c65617374203120686f757220616674657220646563727960008301527f7074696f6e2074696d65000000000000000000000000000000000000000000006020830152604082019050919050565b60006147776025836154f7565b91507f43616e6e6f74206578697420776974682070656e64696e67206675747572652060008301527f766f7465730000000000000000000000000000000000000000000000000000006020830152604082019050919050565b60006147dd6014836154f7565b91507f4e6f7420616e2061637469766520686f6c6465720000000000000000000000006000830152602082019050919050565b600061481d6013836154f7565b91507f4e6f207265776172647320746f20636c61696d000000000000000000000000006000830152602082019050919050565b600061485d6023836154f7565b91507f4163636f756e7420616c72656164792061207265676973746572656420686f6c60008301527f64657200000000000000000000000000000000000000000000000000000000006020830152604082019050919050565b60006148c36017836154f7565b91507f456c656374696f6e20646f6573206e6f742065786973740000000000000000006000830152602082019050919050565b60006149036013836154f7565b91507f4e6f20736861726573207375626d6974746564000000000000000000000000006000830152602082019050919050565b6000614943601c836154f7565b91507f5468726573686f6c64206d757374206265206174206c656173742032000000006000830152602082019050919050565b60006149836025836154f7565b91507f44656372797074696f6e2074696d65206d75737420626520696e20746865206660008301527f75747572650000000000000000000000000000000000000000000000000000006020830152604082019050919050565b60006149e96021836154f7565b91507f43616c6c6572206973206e6f742061207265676973746572656420686f6c646560008301527f72000000000000000000000000000000000000000000000000000000000000006020830152604082019050919050565b6000614a4f6025836154f7565b91507f4d757374207375626d69742073686172657320666f7220616c6c20706173742060008301527f766f7465730000000000000000000000000000000000000000000000000000006020830152604082019050919050565b6000614ab5601b836154f7565b91507f44656372797074696f6e2074696d65206e6f74207265616368656400000000006000830152602082019050919050565b6000614af56021836154f7565b91507f4163636f756e742069736e27742061207265676973746572656420686f6c646560008301527f72000000000000000000000000000000000000000000000000000000000000006020830152604082019050919050565b6000614b5b6020836154f7565b91507f486f6c64657220686173207375626d69747465642074686569722073686172656000830152602082019050919050565b6000614b9b601b836154f7565b91507f5265776172647320616c726561647920646973747269627574656400000000006000830152602082019050919050565b6000614bdb6029836154f7565b91507f5468726573686f6c642063616e6e6f7420657863656564206e756d626572206f60008301527f6620686f6c6465727300000000000000000000000000000000000000000000006020830152604082019050919050565b6000614c416012836154f7565b91507f4e6f7420656e6f75676820686f6c6465727300000000000000000000000000006000830152602082019050919050565b6000614c816013836154f7565b91507f566f746520646f6573206e6f74206578697374000000000000000000000000006000830152602082019050919050565b614cbd81615601565b82525050565b614ccc81615601565b82525050565b6000614cde82846145e2565b915081905092915050565b6000614cf58284614613565b915081905092915050565b6000602082019050614d1560008301846143ac565b92915050565b60006020820190508181036000830152614d3581846143bb565b905092915050565b60006040820190508181036000830152614d5781856143bb565b90508181036020830152614d6b8184614419565b90509392505050565b6000604082019050614d896000830184614543565b92915050565b6000602082019050614da4600083018461459a565b92915050565b60006020820190508181036000830152614dc481846145a9565b905092915050565b600060a0820190508181036000830152614de681886145a9565b9050614df560208301876143ac565b614e026040830186614cc3565b614e0f606083018561459a565b614e1c6080830184614cc3565b9695505050505050565b600060c0820190508181036000830152614e4081886145a9565b90508181036020830152614e5481876145a9565b9050614e636040830186614cc3565b614e706060830185614543565b614e7d60a0830184614cc3565b9695505050505050565b600060e0820190508181036000830152614ea1818a6145a9565b90508181036020830152614eb581896145a9565b9050614ec46040830188614cc3565b614ed1606083018761459a565b614ede6080830186614cc3565b614eeb60a083018561459a565b614ef860c0830184614cc3565b98975050505050505050565b60006020820190508181036000830152614f1d81614704565b9050919050565b60006020820190508181036000830152614f3d8161476a565b9050919050565b60006020820190508181036000830152614f5d816147d0565b9050919050565b60006020820190508181036000830152614f7d81614810565b9050919050565b60006020820190508181036000830152614f9d81614850565b9050919050565b60006020820190508181036000830152614fbd816148b6565b9050919050565b60006020820190508181036000830152614fdd816148f6565b9050919050565b60006020820190508181036000830152614ffd81614936565b9050919050565b6000602082019050818103600083015261501d81614976565b9050919050565b6000602082019050818103600083015261503d816149dc565b9050919050565b6000602082019050818103600083015261505d81614a42565b9050919050565b6000602082019050818103600083015261507d81614aa8565b9050919050565b6000602082019050818103600083015261509d81614ae8565b9050919050565b600060208201905081810360008301526150bd81614b4e565b9050919050565b600060208201905081810360008301526150dd81614b8e565b9050919050565b600060208201905081810360008301526150fd81614bce565b9050919050565b6000602082019050818103600083015261511d81614c34565b9050919050565b6000602082019050818103600083015261513d81614c74565b9050919050565b60006020820190506151596000830184614cc3565b92915050565b60006060820190506151746000830186614cc3565b615181602083018561459a565b61518e6040830184614cc3565b949350505050565b60006040820190506151ab6000830185614cc3565b81810360208301526151bd81846146cb565b90509392505050565b6000610100820190506151dc600083018b614cc3565b81810360208301526151ee818a6146cb565b9050818103604083015261520281896146cb565b90506152116060830188614cc3565b61521e6080830187614cc3565b81810360a08301526152308186614477565b905061523f60c0830185614cc3565b61524c60e0830184614cc3565b9998505050505050505050565b600060e08201905061526e600083018a614cc3565b818103602083015261528081896146cb565b9050818103604083015261529481886146cb565b90506152a36060830187614cc3565b6152b06080830186614cc3565b6152bd60a0830185614cc3565b6152ca60c0830184614cc3565b98975050505050505050565b60006040820190506152eb6000830185614cc3565b6152f86020830184614cc3565b9392505050565b6000604051905081810181811067ffffffffffffffff8211171561532657615325615755565b5b8060405250919050565b600067ffffffffffffffff82111561534b5761534a615755565b5b602082029050602081019050919050565b600067ffffffffffffffff82111561537757615376615755565b5b601f19601f8301169050602081019050919050565b600067ffffffffffffffff8211156153a7576153a6615755565b5b601f19601f8301169050602081019050919050565b6000819050602082019050919050565b6000819050602082019050919050565b6000819050602082019050919050565b6000819050919050565b60008190508160005260206000209050919050565b600081519050919050565b600081519050919050565b600081519050919050565b600060029050919050565b600081519050919050565b600081519050919050565b6000602082019050919050565b6000602082019050919050565b6000602082019050919050565b6000602082019050919050565b600082825260208201905092915050565b600082825260208201905092915050565b600082825260208201905092915050565b600081905092915050565b600081905092915050565b600082825260208201905092915050565b600081905092915050565b600082825260208201905092915050565b600082825260208201905092915050565b600061551382615601565b915061551e83615601565b9250827fffffffffffffffffffffffffffffffffffffffffffffffffffffffffffffffff03821115615553576155526156c8565b5b828201905092915050565b600061556982615601565b915061557483615601565b925082615584576155836156f7565b5b828204905092915050565b600061559a82615601565b91506155a583615601565b9250828210156155b8576155b76156c8565b5b828203905092915050565b60006155ce826155e1565b9050919050565b60008115159050919050565b600073ffffffffffffffffffffffffffffffffffffffff82169050919050565b6000819050919050565b82818337600083830152505050565b60005b8381101561563857808201518184015260208101905061561d565b83811115615647576000848401525b50505050565b6000600282049050600182168061566557607f821691505b6020821081141561567957615678615726565b5b50919050565b600061568a82615601565b91507fffffffffffffffffffffffffffffffffffffffffffffffffffffffffffffffff8214156156bd576156bc6156c8565b5b600182019050919050565b7f4e487b7100000000000000000000000000000000000000000000000000000000600052601160045260246000fd5b7f4e487b7100000000000000000000000000000000000000000000000000000000600052601260045260246000fd5b7f4e487b7100000000000000000000000000000000000000000000000000000000600052602260045260246000fd5b7f4e487b7100000000000000000000000000000000000000000000000000000000600052604160045260246000fd5b6000601f19601f8301169050919050565b61579e816155c3565b81146157a957600080fd5b50565b6157b581615601565b81146157c057600080fd5b5056fea2646970667358221220167ac0a01c522919904bcf4054602f40b3939030de3b68fa5cdb462e66a12c7464736f6c63430008000033",
					"opcodes": "PUSH1 0x80 PUSH1 0x40 MSTORE CALLVALUE DUP1 ISZERO PUSH2 0x10 JUMPI PUSH1 0x0 DUP1 REVERT JUMPDEST POP PUSH2 0x57F9 DUP1 PUSH3 0x21 PUSH1 0x0 CODECOPY PUSH1 0x0 RETURN INVALID PUSH1 0x80 PUSH1 0x40 MSTORE PUSH1 0x4 CALLDATASIZE LT PUSH2 0x1D8 JUMPI PUSH1 0x0 CALLDATALOAD PUSH1 0xE0 SHR DUP1 PUSH4 0x7897D89A GT PUSH2 0x102 JUMPI DUP1 PUSH4 0xBE64B76B GT PUSH2 0x95 JUMPI DUP1 PUSH4 0xDB8D9429 GT PUSH2 0x64 JUMPI DUP1 PUSH4 0xDB8D9429 EQ PUSH2 0x734 JUMPI DUP1 PUSH4 0xF4D70468 EQ PUSH2 0x771 JUMPI DUP1 PUSH4 0xF9B0B1EB EQ PUSH2 0x79C JUMPI DUP1 PUSH4 0xFB7CFDD7 EQ PUSH2 0x7C5 JUMPI PUSH2 0x1D8 JUMP JUMPDEST DUP1 PUSH4 0xBE64B76B EQ PUSH2 0x676 JUMPI DUP1 PUSH4 0xC6384071 EQ PUSH2 0x6A1 JUMPI DUP1 PUSH4 0xC7344165 EQ PUSH2 0x6CC JUMPI DUP1 PUSH4 0xD4D7B19A EQ PUSH2 0x6F7 JUMPI PUSH2 0x1D8 JUMP JUMPDEST DUP1 PUSH4 0x997D2830 GT PUSH2 0xD1 JUMPI DUP1 PUSH4 0x997D2830 EQ PUSH2 0x59F JUMPI DUP1 PUSH4 0x9D710777 EQ PUSH2 0x5CA JUMPI DUP1 PUSH4 0xABBD8FEF EQ PUSH2 0x60E JUMPI DUP1 PUSH4 0xADFF2123 EQ PUSH2 0x639 JUMPI PUSH2 0x1D8 JUMP JUMPDEST DUP1 PUSH4 0x7897D89A EQ PUSH2 0x4D2 JUMPI DUP1 PUSH4 0x7BBCE9F5 EQ PUSH2 0x510 JUMPI DUP1 PUSH4 0x83AF2D16 EQ PUSH2 0x539 JUMPI DUP1 PUSH4 0x910B0691 EQ PUSH2 0x576 JUMPI PUSH2 0x1D8 JUMP JUMPDEST DUP1 PUSH4 0x372500AB GT PUSH2 0x17A JUMPI DUP1 PUSH4 0x5C1A82E0 GT PUSH2 0x149 JUMPI DUP1 PUSH4 0x5C1A82E0 EQ PUSH2 0x40B JUMPI DUP1 PUSH4 0x5DF81330 EQ PUSH2 0x427 JUMPI DUP1 PUSH4 0x5FE8E7CC EQ PUSH2 0x46A JUMPI DUP1 PUSH4 0x7018A178 EQ PUSH2 0x495 JUMPI PUSH2 0x1D8 JUMP JUMPDEST DUP1 PUSH4 0x372500AB EQ PUSH2 0x359 JUMPI DUP1 PUSH4 0x3F056905 EQ PUSH2 0x370 JUMPI DUP1 PUSH4 0x3FC4F914 EQ PUSH2 0x3B3 JUMPI DUP1 PUSH4 0x5A55C1F0 EQ PUSH2 0x3CA JUMPI PUSH2 0x1D8 JUMP JUMPDEST DUP1 PUSH4 0x118E47BC GT PUSH2 0x1B6 JUMPI DUP1 PUSH4 0x118E47BC EQ PUSH2 0x294 JUMPI DUP1 PUSH4 0x18A5BBDC EQ PUSH2 0x2B0 JUMPI DUP1 PUSH4 0x1C43B504 EQ PUSH2 0x2EF JUMPI DUP1 PUSH4 0x1D1FAD0A EQ PUSH2 0x330 JUMPI PUSH2 0x1D8 JUMP JUMPDEST DUP1 PUSH4 0x2A5F856 EQ PUSH2 0x1DD JUMPI DUP1 PUSH4 0x41D3138 EQ PUSH2 0x21A JUMPI DUP1 PUSH4 0xF8C9E28 EQ PUSH2 0x257 JUMPI JUMPDEST PUSH1 0x0 DUP1 REVERT JUMPDEST CALLVALUE DUP1 ISZERO PUSH2 0x1E9 JUMPI PUSH1 0x0 DUP1 REVERT JUMPDEST POP PUSH2 0x204 PUSH1 0x4 DUP1 CALLDATASIZE SUB DUP2 ADD SWAP1 PUSH2 0x1FF SWAP2 SWAP1 PUSH2 0x418F JUMP JUMPDEST PUSH2 0x7F0 JUMP JUMPDEST PUSH1 0x40 MLOAD PUSH2 0x211 SWAP2 SWAP1 PUSH2 0x5144 JUMP JUMPDEST PUSH1 0x40 MLOAD DUP1 SWAP2 SUB SWAP1 RETURN JUMPDEST CALLVALUE DUP1 ISZERO PUSH2 0x226 JUMPI PUSH1 0x0 DUP1 REVERT JUMPDEST POP PUSH2 0x241 PUSH1 0x4 DUP1 CALLDATASIZE SUB DUP2 ADD SWAP1 PUSH2 0x23C SWAP2 SWAP1 PUSH2 0x4275 JUMP JUMPDEST PUSH2 0x93C JUMP JUMPDEST PUSH1 0x40 MLOAD PUSH2 0x24E SWAP2 SWAP1 PUSH2 0x5144 JUMP JUMPDEST PUSH1 0x40 MLOAD DUP1 SWAP2 SUB SWAP1 RETURN JUMPDEST CALLVALUE DUP1 ISZERO PUSH2 0x263 JUMPI PUSH1 0x0 DUP1 REVERT JUMPDEST POP PUSH2 0x27E PUSH1 0x4 DUP1 CALLDATASIZE SUB DUP2 ADD SWAP1 PUSH2 0x279 SWAP2 SWAP1 PUSH2 0x4275 JUMP JUMPDEST PUSH2 0x9C1 JUMP JUMPDEST PUSH1 0x40 MLOAD PUSH2 0x28B SWAP2 SWAP1 PUSH2 0x4D00 JUMP JUMPDEST PUSH1 0x40 MLOAD DUP1 SWAP2 SUB SWAP1 RETURN JUMPDEST PUSH2 0x2AE PUSH1 0x4 DUP1 CALLDATASIZE SUB DUP2 ADD SWAP1 PUSH2 0x2A9 SWAP2 SWAP1 PUSH2 0x409E JUMP JUMPDEST PUSH2 0xA00 JUMP JUMPDEST STOP JUMPDEST CALLVALUE DUP1 ISZERO PUSH2 0x2BC JUMPI PUSH1 0x0 DUP1 REVERT JUMPDEST POP PUSH2 0x2D7 PUSH1 0x4 DUP1 CALLDATASIZE SUB DUP2 ADD SWAP1 PUSH2 0x2D2 SWAP2 SWAP1 PUSH2 0x4039 JUMP JUMPDEST PUSH2 0xCB2 JUMP JUMPDEST PUSH1 0x40 MLOAD PUSH2 0x2E6 SWAP4 SWAP3 SWAP2 SWAP1 PUSH2 0x515F JUMP JUMPDEST PUSH1 0x40 MLOAD DUP1 SWAP2 SUB SWAP1 RETURN JUMPDEST CALLVALUE DUP1 ISZERO PUSH2 0x2FB JUMPI PUSH1 0x0 DUP1 REVERT JUMPDEST POP PUSH2 0x316 PUSH1 0x4 DUP1 CALLDATASIZE SUB DUP2 ADD SWAP1 PUSH2 0x311 SWAP2 SWAP1 PUSH2 0x414E JUMP JUMPDEST PUSH2 0xCE9 JUMP JUMPDEST PUSH1 0x40 MLOAD PUSH2 0x327 SWAP6 SWAP5 SWAP4 SWAP3 SWAP2 SWAP1 PUSH2 0x4DCC JUMP JUMPDEST PUSH1 0x40 MLOAD DUP1 SWAP2 SUB SWAP1 RETURN JUMPDEST CALLVALUE DUP1 ISZERO PUSH2 0x33C JUMPI PUSH1 0x0 DUP1 REVERT JUMPDEST POP PUSH2 0x357 PUSH1 0x4 DUP1 CALLDATASIZE SUB DUP2 ADD SWAP1 PUSH2 0x352 SWAP2 SWAP1 PUSH2 0x4275 JUMP JUMPDEST PUSH2 0xDEA JUMP JUMPDEST STOP JUMPDEST CALLVALUE DUP1 ISZERO PUSH2 0x365 JUMPI PUSH1 0x0 DUP1 REVERT JUMPDEST POP PUSH2 0x36E PUSH2 0x130A JUMP JUMPDEST STOP JUMPDEST CALLVALUE DUP1 ISZERO PUSH2 0x37C JUMPI PUSH1 0x0 DUP1 REVERT JUMPDEST POP PUSH2 0x397 PUSH1 0x4 DUP1 CALLDATASIZE SUB DUP2 ADD SWAP1 PUSH2 0x392 SWAP2 SWAP1 PUSH2 0x4275 JUMP JUMPDEST PUSH2 0x1503 JUMP JUMPDEST PUSH1 0x40 MLOAD PUSH2 0x3AA SWAP8 SWAP7 SWAP6 SWAP5 SWAP4 SWAP3 SWAP2 SWAP1 PUSH2 0x5259 JUMP JUMPDEST PUSH1 0x40 MLOAD DUP1 SWAP2 SUB SWAP1 RETURN JUMPDEST CALLVALUE DUP1 ISZERO PUSH2 0x3BF JUMPI PUSH1 0x0 DUP1 REVERT JUMPDEST POP PUSH2 0x3C8 PUSH2 0x1655 JUMP JUMPDEST STOP JUMPDEST CALLVALUE DUP1 ISZERO PUSH2 0x3D6 JUMPI PUSH1 0x0 DUP1 REVERT JUMPDEST POP PUSH2 0x3F1 PUSH1 0x4 DUP1 CALLDATASIZE SUB DUP2 ADD SWAP1 PUSH2 0x3EC SWAP2 SWAP1 PUSH2 0x4275 JUMP JUMPDEST PUSH2 0x1A81 JUMP JUMPDEST PUSH1 0x40 MLOAD PUSH2 0x402 SWAP6 SWAP5 SWAP4 SWAP3 SWAP2 SWAP1 PUSH2 0x4E26 JUMP JUMPDEST PUSH1 0x40 MLOAD DUP1 SWAP2 SUB SWAP1 RETURN JUMPDEST PUSH2 0x425 PUSH1 0x4 DUP1 CALLDATASIZE SUB DUP2 ADD SWAP1 PUSH2 0x420 SWAP2 SWAP1 PUSH2 0x429E JUMP JUMPDEST PUSH2 0x1CCF JUMP JUMPDEST STOP JUMPDEST CALLVALUE DUP1 ISZERO PUSH2 0x433 JUMPI PUSH1 0x0 DUP1 REVERT JUMPDEST POP PUSH2 0x44E PUSH1 0x4 DUP1 CALLDATASIZE SUB DUP2 ADD SWAP1 PUSH2 0x449 SWAP2 SWAP1 PUSH2 0x4275 JUMP JUMPDEST PUSH2 0x205D JUMP JUMPDEST PUSH1 0x40 MLOAD PUSH2 0x461 SWAP8 SWAP7 SWAP6 SWAP5 SWAP4 SWAP3 SWAP2 SWAP1 PUSH2 0x4E87 JUMP JUMPDEST PUSH1 0x40 MLOAD DUP1 SWAP2 SUB SWAP1 RETURN JUMPDEST CALLVALUE DUP1 ISZERO PUSH2 0x476 JUMPI PUSH1 0x0 DUP1 REVERT JUMPDEST POP PUSH2 0x47F PUSH2 0x21C9 JUMP JUMPDEST PUSH1 0x40 MLOAD PUSH2 0x48C SWAP2 SWAP1 PUSH2 0x4D1B JUMP JUMPDEST PUSH1 0x40 MLOAD DUP1 SWAP2 SUB SWAP1 RETURN JUMPDEST CALLVALUE DUP1 ISZERO PUSH2 0x4A1 JUMPI PUSH1 0x0 DUP1 REVERT JUMPDEST POP PUSH2 0x4BC PUSH1 0x4 DUP1 CALLDATASIZE SUB DUP2 ADD SWAP1 PUSH2 0x4B7 SWAP2 SWAP1 PUSH2 0x4039 JUMP JUMPDEST PUSH2 0x2418 JUMP JUMPDEST PUSH1 0x40 MLOAD PUSH2 0x4C9 SWAP2 SWAP1 PUSH2 0x4D74 JUMP JUMPDEST PUSH1 0x40 MLOAD DUP1 SWAP2 SUB SWAP1 RETURN JUMPDEST CALLVALUE DUP1 ISZERO PUSH2 0x4DE JUMPI PUSH1 0x0 DUP1 REVERT JUMPDEST POP PUSH2 0x4F9 PUSH1 0x4 DUP1 CALLDATASIZE SUB DUP2 ADD SWAP1 PUSH2 0x4F4 SWAP2 SWAP1 PUSH2 0x4275 JUMP JUMPDEST PUSH2 0x2534 JUMP JUMPDEST PUSH1 0x40 MLOAD PUSH2 0x507 SWAP3 SWAP2 SWAP1 PUSH2 0x4D3D JUMP JUMPDEST PUSH1 0x40 MLOAD DUP1 SWAP2 SUB SWAP1 RETURN JUMPDEST CALLVALUE DUP1 ISZERO PUSH2 0x51C JUMPI PUSH1 0x0 DUP1 REVERT JUMPDEST POP PUSH2 0x537 PUSH1 0x4 DUP1 CALLDATASIZE SUB DUP2 ADD SWAP1 PUSH2 0x532 SWAP2 SWAP1 PUSH2 0x42F2 JUMP JUMPDEST PUSH2 0x27EE JUMP JUMPDEST STOP JUMPDEST CALLVALUE DUP1 ISZERO PUSH2 0x545 JUMPI PUSH1 0x0 DUP1 REVERT JUMPDEST POP PUSH2 0x560 PUSH1 0x4 DUP1 CALLDATASIZE SUB DUP2 ADD SWAP1 PUSH2 0x55B SWAP2 SWAP1 PUSH2 0x4275 JUMP JUMPDEST PUSH2 0x2AD3 JUMP JUMPDEST PUSH1 0x40 MLOAD PUSH2 0x56D SWAP2 SWAP1 PUSH2 0x5144 JUMP JUMPDEST PUSH1 0x40 MLOAD DUP1 SWAP2 SUB SWAP1 RETURN JUMPDEST CALLVALUE DUP1 ISZERO PUSH2 0x582 JUMPI PUSH1 0x0 DUP1 REVERT JUMPDEST POP PUSH2 0x59D PUSH1 0x4 DUP1 CALLDATASIZE SUB DUP2 ADD SWAP1 PUSH2 0x598 SWAP2 SWAP1 PUSH2 0x4275 JUMP JUMPDEST PUSH2 0x2BFC JUMP JUMPDEST STOP JUMPDEST CALLVALUE DUP1 ISZERO PUSH2 0x5AB JUMPI PUSH1 0x0 DUP1 REVERT JUMPDEST POP PUSH2 0x5B4 PUSH2 0x2DEE JUMP JUMPDEST PUSH1 0x40 MLOAD PUSH2 0x5C1 SWAP2 SWAP1 PUSH2 0x5144 JUMP JUMPDEST PUSH1 0x40 MLOAD DUP1 SWAP2 SUB SWAP1 RETURN JUMPDEST CALLVALUE DUP1 ISZERO PUSH2 0x5D6 JUMPI PUSH1 0x0 DUP1 REVERT JUMPDEST POP PUSH2 0x5F1 PUSH1 0x4 DUP1 CALLDATASIZE SUB DUP2 ADD SWAP1 PUSH2 0x5EC SWAP2 SWAP1 PUSH2 0x4275 JUMP JUMPDEST PUSH2 0x2DF4 JUMP JUMPDEST PUSH1 0x40 MLOAD PUSH2 0x605 SWAP9 SWAP8 SWAP7 SWAP6 SWAP5 SWAP4 SWAP3 SWAP2 SWAP1 PUSH2 0x51C6 JUMP JUMPDEST PUSH1 0x40 MLOAD DUP1 SWAP2 SUB SWAP1 RETURN JUMPDEST CALLVALUE DUP1 ISZERO PUSH2 0x61A JUMPI PUSH1 0x0 DUP1 REVERT JUMPDEST POP PUSH2 0x623 PUSH2 0x30DA JUMP JUMPDEST PUSH1 0x40 MLOAD PUSH2 0x630 SWAP2 SWAP1 PUSH2 0x5144 JUMP JUMPDEST PUSH1 0x40 MLOAD DUP1 SWAP2 SUB SWAP1 RETURN JUMPDEST CALLVALUE DUP1 ISZERO PUSH2 0x645 JUMPI PUSH1 0x0 DUP1 REVERT JUMPDEST POP PUSH2 0x660 PUSH1 0x4 DUP1 CALLDATASIZE SUB DUP2 ADD SWAP1 PUSH2 0x65B SWAP2 SWAP1 PUSH2 0x4275 JUMP JUMPDEST PUSH2 0x30DF JUMP JUMPDEST PUSH1 0x40 MLOAD PUSH2 0x66D SWAP2 SWAP1 PUSH2 0x4DAA JUMP JUMPDEST PUSH1 0x40 MLOAD DUP1 SWAP2 SUB SWAP1 RETURN JUMPDEST CALLVALUE DUP1 ISZERO PUSH2 0x682 JUMPI PUSH1 0x0 DUP1 REVERT JUMPDEST POP PUSH2 0x68B PUSH2 0x318B JUMP JUMPDEST PUSH1 0x40 MLOAD PUSH2 0x698 SWAP2 SWAP1 PUSH2 0x5144 JUMP JUMPDEST PUSH1 0x40 MLOAD DUP1 SWAP2 SUB SWAP1 RETURN JUMPDEST CALLVALUE DUP1 ISZERO PUSH2 0x6AD JUMPI PUSH1 0x0 DUP1 REVERT JUMPDEST POP PUSH2 0x6B6 PUSH2 0x3197 JUMP JUMPDEST PUSH1 0x40 MLOAD PUSH2 0x6C3 SWAP2 SWAP1 PUSH2 0x5144 JUMP JUMPDEST PUSH1 0x40 MLOAD DUP1 SWAP2 SUB SWAP1 RETURN JUMPDEST CALLVALUE DUP1 ISZERO PUSH2 0x6D8 JUMPI PUSH1 0x0 DUP1 REVERT JUMPDEST POP PUSH2 0x6E1 PUSH2 0x319D JUMP JUMPDEST PUSH1 0x40 MLOAD PUSH2 0x6EE SWAP2 SWAP1 PUSH2 0x5144 JUMP JUMPDEST PUSH1 0x40 MLOAD DUP1 SWAP2 SUB SWAP1 RETURN JUMPDEST CALLVALUE DUP1 ISZERO PUSH2 0x703 JUMPI PUSH1 0x0 DUP1 REVERT JUMPDEST POP PUSH2 0x71E PUSH1 0x4 DUP1 CALLDATASIZE SUB DUP2 ADD SWAP1 PUSH2 0x719 SWAP2 SWAP1 PUSH2 0x4039 JUMP JUMPDEST PUSH2 0x3297 JUMP JUMPDEST PUSH1 0x40 MLOAD PUSH2 0x72B SWAP2 SWAP1 PUSH2 0x4D8F JUMP JUMPDEST PUSH1 0x40 MLOAD DUP1 SWAP2 SUB SWAP1 RETURN JUMPDEST CALLVALUE DUP1 ISZERO PUSH2 0x740 JUMPI PUSH1 0x0 DUP1 REVERT JUMPDEST POP PUSH2 0x75B PUSH1 0x4 DUP1 CALLDATASIZE SUB DUP2 ADD SWAP1 PUSH2 0x756 SWAP2 SWAP1 PUSH2 0x4039 JUMP JUMPDEST PUSH2 0x32F0 JUMP JUMPDEST PUSH1 0x40 MLOAD PUSH2 0x768 SWAP2 SWAP1 PUSH2 0x5144 JUMP JUMPDEST PUSH1 0x40 MLOAD DUP1 SWAP2 SUB SWAP1 RETURN JUMPDEST CALLVALUE DUP1 ISZERO PUSH2 0x77D JUMPI PUSH1 0x0 DUP1 REVERT JUMPDEST POP PUSH2 0x786 PUSH2 0x333C JUMP JUMPDEST PUSH1 0x40 MLOAD PUSH2 0x793 SWAP2 SWAP1 PUSH2 0x5144 JUMP JUMPDEST PUSH1 0x40 MLOAD DUP1 SWAP2 SUB SWAP1 RETURN JUMPDEST CALLVALUE DUP1 ISZERO PUSH2 0x7A8 JUMPI PUSH1 0x0 DUP1 REVERT JUMPDEST POP PUSH2 0x7C3 PUSH1 0x4 DUP1 CALLDATASIZE SUB DUP2 ADD SWAP1 PUSH2 0x7BE SWAP2 SWAP1 PUSH2 0x4062 JUMP JUMPDEST PUSH2 0x3348 JUMP JUMPDEST STOP JUMPDEST CALLVALUE DUP1 ISZERO PUSH2 0x7D1 JUMPI PUSH1 0x0 DUP1 REVERT JUMPDEST POP PUSH2 0x7DA PUSH2 0x36AF JUMP JUMPDEST PUSH1 0x40 MLOAD PUSH2 0x7E7 SWAP2 SWAP1 PUSH2 0x5144 JUMP JUMPDEST PUSH1 0x40 MLOAD DUP1 SWAP2 SUB SWAP1 RETURN JUMPDEST PUSH1 0x0 PUSH1 0x40 MLOAD DUP1 PUSH2 0x100 ADD PUSH1 0x40 MSTORE DUP1 PUSH1 0x1 SLOAD DUP2 MSTORE PUSH1 0x20 ADD DUP10 DUP2 MSTORE PUSH1 0x20 ADD DUP9 DUP2 MSTORE PUSH1 0x20 ADD DUP8 DUP2 MSTORE PUSH1 0x20 ADD DUP7 DUP2 MSTORE PUSH1 0x20 ADD DUP6 DUP2 MSTORE PUSH1 0x20 ADD DUP5 DUP2 MSTORE PUSH1 0x20 ADD DUP4 DUP2 MSTORE POP PUSH1 0x0 DUP1 PUSH1 0x1 SLOAD DUP2 MSTORE PUSH1 0x20 ADD SWAP1 DUP2 MSTORE PUSH1 0x20 ADD PUSH1 0x0 KECCAK256 PUSH1 0x0 DUP3 ADD MLOAD DUP2 PUSH1 0x0 ADD SSTORE PUSH1 0x20 DUP3 ADD MLOAD DUP2 PUSH1 0x1 ADD SWAP1 DUP1 MLOAD SWAP1 PUSH1 0x20 ADD SWAP1 PUSH2 0x868 SWAP3 SWAP2 SWAP1 PUSH2 0x3AAE JUMP JUMPDEST POP PUSH1 0x40 DUP3 ADD MLOAD DUP2 PUSH1 0x2 ADD SWAP1 DUP1 MLOAD SWAP1 PUSH1 0x20 ADD SWAP1 PUSH2 0x885 SWAP3 SWAP2 SWAP1 PUSH2 0x3AAE JUMP JUMPDEST POP PUSH1 0x60 DUP3 ADD MLOAD DUP2 PUSH1 0x3 ADD SSTORE PUSH1 0x80 DUP3 ADD MLOAD DUP2 PUSH1 0x4 ADD SSTORE PUSH1 0xA0 DUP3 ADD MLOAD DUP2 PUSH1 0x5 ADD SWAP1 DUP1 MLOAD SWAP1 PUSH1 0x20 ADD SWAP1 PUSH2 0x8B6 SWAP3 SWAP2 SWAP1 PUSH2 0x3B34 JUMP JUMPDEST POP PUSH1 0xC0 DUP3 ADD MLOAD DUP2 PUSH1 0x6 ADD SSTORE PUSH1 0xE0 DUP3 ADD MLOAD DUP2 PUSH1 0x7 ADD SSTORE SWAP1 POP POP PUSH32 0x52BE7C4E77B4DE76B7607D621492061FE13B58597E72DFB5E51AB8F6187ED141 PUSH1 0x1 SLOAD DUP10 PUSH1 0x40 MLOAD PUSH2 0x901 SWAP3 SWAP2 SWAP1 PUSH2 0x5196 JUMP JUMPDEST PUSH1 0x40 MLOAD DUP1 SWAP2 SUB SWAP1 LOG1 PUSH1 0x1 PUSH1 0x0 DUP2 SLOAD DUP1 SWAP3 SWAP2 SWAP1 PUSH2 0x91C SWAP1 PUSH2 0x567F JUMP JUMPDEST SWAP2 SWAP1 POP SSTORE POP PUSH1 0x1 DUP1 SLOAD PUSH2 0x92F SWAP2 SWAP1 PUSH2 0x558F JUMP JUMPDEST SWAP1 POP SWAP8 SWAP7 POP POP POP POP POP POP POP JUMP JUMPDEST PUSH1 0x0 DUP2 PUSH1 0x6 PUSH1 0x0 DUP3 DUP2 MSTORE PUSH1 0x20 ADD SWAP1 DUP2 MSTORE PUSH1 0x20 ADD PUSH1 0x0 KECCAK256 PUSH1 0x7 ADD PUSH1 0x0 SWAP1 SLOAD SWAP1 PUSH2 0x100 EXP SWAP1 DIV PUSH1 0xFF AND PUSH2 0x9A2 JUMPI PUSH1 0x40 MLOAD PUSH32 0x8C379A000000000000000000000000000000000000000000000000000000000 DUP2 MSTORE PUSH1 0x4 ADD PUSH2 0x999 SWAP1 PUSH2 0x5124 JUMP JUMPDEST PUSH1 0x40 MLOAD DUP1 SWAP2 SUB SWAP1 REVERT JUMPDEST PUSH1 0x6 PUSH1 0x0 DUP5 DUP2 MSTORE PUSH1 0x20 ADD SWAP1 DUP2 MSTORE PUSH1 0x20 ADD PUSH1 0x0 KECCAK256 PUSH1 0x8 ADD SLOAD SWAP2 POP POP SWAP2 SWAP1 POP JUMP JUMPDEST PUSH1 0x4 DUP2 DUP2 SLOAD DUP2 LT PUSH2 0x9D1 JUMPI PUSH1 0x0 DUP1 REVERT JUMPDEST SWAP1 PUSH1 0x0 MSTORE PUSH1 0x20 PUSH1 0x0 KECCAK256 ADD PUSH1 0x0 SWAP2 POP SLOAD SWAP1 PUSH2 0x100 EXP SWAP1 DIV PUSH20 0xFFFFFFFFFFFFFFFFFFFFFFFFFFFFFFFFFFFFFFFF AND DUP2 JUMP JUMPDEST PUSH1 0x3 PUSH2 0xA0A PUSH2 0x319D JUMP JUMPDEST LT ISZERO PUSH2 0xA4B JUMPI PUSH1 0x40 MLOAD PUSH32 0x8C379A000000000000000000000000000000000000000000000000000000000 DUP2 MSTORE PUSH1 0x4 ADD PUSH2 0xA42 SWAP1 PUSH2 0x5104 JUMP JUMPDEST PUSH1 0x40 MLOAD DUP1 SWAP2 SUB SWAP1 REVERT JUMPDEST TIMESTAMP DUP4 GT PUSH2 0xA8D JUMPI PUSH1 0x40 MLOAD PUSH32 0x8C379A000000000000000000000000000000000000000000000000000000000 DUP2 MSTORE PUSH1 0x4 ADD PUSH2 0xA84 SWAP1 PUSH2 0x5004 JUMP JUMPDEST PUSH1 0x40 MLOAD DUP1 SWAP2 SUB SWAP1 REVERT JUMPDEST PUSH1 0x2 DUP2 LT ISZERO PUSH2 0xAD1 JUMPI PUSH1 0x40 MLOAD PUSH32 0x8C379A000000000000000000000000000000000000000000000000000000000 DUP2 MSTORE PUSH1 0x4 ADD PUSH2 0xAC8 SWAP1 PUSH2 0x4FE4 JUMP JUMPDEST PUSH1 0x40 MLOAD DUP1 SWAP2 SUB SWAP1 REVERT JUMPDEST PUSH2 0xAD9 PUSH2 0x319D JUMP JUMPDEST DUP2 GT ISZERO PUSH2 0xB1B JUMPI PUSH1 0x40 MLOAD PUSH32 0x8C379A000000000000000000000000000000000000000000000000000000000 DUP2 MSTORE PUSH1 0x4 ADD PUSH2 0xB12 SWAP1 PUSH2 0x50E4 JUMP JUMPDEST PUSH1 0x40 MLOAD DUP1 SWAP2 SUB SWAP1 REVERT JUMPDEST PUSH1 0x0 PUSH1 0x7 PUSH1 0x0 DUP2 SLOAD DUP1 SWAP3 SWAP2 SWAP1 PUSH2 0xB30 SWAP1 PUSH2 0x567F JUMP JUMPDEST SWAP2 SWAP1 POP SSTORE SWAP1 POP DUP8 DUP8 PUSH1 0x6 PUSH1 0x0 DUP5 DUP2 MSTORE PUSH1 0x20 ADD SWAP1 DUP2 MSTORE PUSH1 0x20 ADD PUSH1 0x0 KECCAK256 PUSH1 0x0 ADD SWAP2 SWAP1 PUSH2 0xB5B SWAP3 SWAP2 SWAP1 PUSH2 0x3B94 JUMP JUMPDEST POP DUP6 DUP6 PUSH1 0x6 PUSH1 0x0 DUP5 DUP2 MSTORE PUSH1 0x20 ADD SWAP1 DUP2 MSTORE PUSH1 0x20 ADD PUSH1 0x0 KECCAK256 PUSH1 0x1 ADD SWAP2 SWAP1 PUSH2 0xB81 SWAP3 SWAP2 SWAP1 PUSH2 0x3B94 JUMP JUMPDEST POP DUP4 PUSH1 0x6 PUSH1 0x0 DUP4 DUP2 MSTORE PUSH1 0x20 ADD SWAP1 DUP2 MSTORE PUSH1 0x20 ADD PUSH1 0x0 KECCAK256 PUSH1 0x2 ADD DUP2 SWAP1 SSTORE POP DUP3 PUSH1 0x6 PUSH1 0x0 DUP4 DUP2 MSTORE PUSH1 0x20 ADD SWAP1 DUP2 MSTORE PUSH1 0x20 ADD PUSH1 0x0 KECCAK256 PUSH1 0x3 ADD SWAP1 PUSH1 0x2 PUSH2 0xBC2 SWAP3 SWAP2 SWAP1 PUSH2 0x3C1A JUMP JUMPDEST POP PUSH1 0x1 PUSH1 0x6 PUSH1 0x0 DUP4 DUP2 MSTORE PUSH1 0x20 ADD SWAP1 DUP2 MSTORE PUSH1 0x20 ADD PUSH1 0x0 KECCAK256 PUSH1 0x7 ADD PUSH1 0x0 PUSH2 0x100 EXP DUP2 SLOAD DUP2 PUSH1 0xFF MUL NOT AND SWAP1 DUP4 ISZERO ISZERO MUL OR SWAP1 SSTORE POP PUSH1 0x0 CALLVALUE GT PUSH2 0xC08 JUMPI PUSH8 0x16345785D8A0000 PUSH2 0xC0A JUMP JUMPDEST CALLVALUE JUMPDEST PUSH1 0x6 PUSH1 0x0 DUP4 DUP2 MSTORE PUSH1 0x20 ADD SWAP1 DUP2 MSTORE PUSH1 0x20 ADD PUSH1 0x0 KECCAK256 PUSH1 0x8 ADD DUP2 SWAP1 SSTORE POP PUSH1 0x0 PUSH1 0x6 PUSH1 0x0 DUP4 DUP2 MSTORE PUSH1 0x20 ADD SWAP1 DUP2 MSTORE PUSH1 0x20 ADD PUSH1 0x0 KECCAK256 PUSH1 0x9 ADD PUSH1 0x0 PUSH2 0x100 EXP DUP2 SLOAD DUP2 PUSH1 0xFF MUL NOT AND SWAP1 DUP4 ISZERO ISZERO MUL OR SWAP1 SSTORE POP DUP2 PUSH1 0x6 PUSH1 0x0 DUP4 DUP2 MSTORE PUSH1 0x20 ADD SWAP1 DUP2 MSTORE PUSH1 0x20 ADD PUSH1 0x0 KECCAK256 PUSH1 0xA ADD DUP2 SWAP1 SSTORE POP DUP1 PUSH32 0xEAE33DF196A32D272E8AA809E6CF4F18536005FA3F76C93C4B4072F5C4766903 DUP6 DUP5 PUSH1 0x40 MLOAD PUSH2 0xCA0 SWAP3 SWAP2 SWAP1 PUSH2 0x52D6 JUMP JUMPDEST PUSH1 0x40 MLOAD DUP1 SWAP2 SUB SWAP1 LOG2 POP POP POP POP POP POP POP POP JUMP JUMPDEST PUSH1 0x2 PUSH1 0x20 MSTORE DUP1 PUSH1 0x0 MSTORE PUSH1 0x40 PUSH1 0x0 KECCAK256 PUSH1 0x0 SWAP2 POP SWAP1 POP DUP1 PUSH1 0x2 ADD SLOAD SWAP1 DUP1 PUSH1 0x3 ADD PUSH1 0x0 SWAP1 SLOAD SWAP1 PUSH2 0x100 EXP SWAP1 DIV PUSH1 0xFF AND SWAP1 DUP1 PUSH1 0x4 ADD SLOAD SWAP1 POP DUP4 JUMP JUMPDEST PUSH1 0x3 DUP2 DUP1 MLOAD PUSH1 0x20 DUP2 ADD DUP3 ADD DUP1 MLOAD DUP5 DUP3 MSTORE PUSH1 0x20 DUP4 ADD PUSH1 0x20 DUP6 ADD KECCAK256 DUP2 DUP4 MSTORE DUP1 SWAP6 POP POP POP POP POP POP PUSH1 0x0 SWAP2 POP SWAP1 POP DUP1 PUSH1 0x0 ADD DUP1 SLOAD PUSH2 0xD22 SWAP1 PUSH2 0x564D JUMP JUMPDEST DUP1 PUSH1 0x1F ADD PUSH1 0x20 DUP1 SWAP2 DIV MUL PUSH1 0x20 ADD PUSH1 0x40 MLOAD SWAP1 DUP2 ADD PUSH1 0x40 MSTORE DUP1 SWAP3 SWAP2 SWAP1 DUP2 DUP2 MSTORE PUSH1 0x20 ADD DUP3 DUP1 SLOAD PUSH2 0xD4E SWAP1 PUSH2 0x564D JUMP JUMPDEST DUP1 ISZERO PUSH2 0xD9B JUMPI DUP1 PUSH1 0x1F LT PUSH2 0xD70 JUMPI PUSH2 0x100 DUP1 DUP4 SLOAD DIV MUL DUP4 MSTORE SWAP2 PUSH1 0x20 ADD SWAP2 PUSH2 0xD9B JUMP JUMPDEST DUP3 ADD SWAP2 SWAP1 PUSH1 0x0 MSTORE PUSH1 0x20 PUSH1 0x0 KECCAK256 SWAP1 JUMPDEST DUP2 SLOAD DUP2 MSTORE SWAP1 PUSH1 0x1 ADD SWAP1 PUSH1 0x20 ADD DUP1 DUP4 GT PUSH2 0xD7E JUMPI DUP3 SWAP1 SUB PUSH1 0x1F AND DUP3 ADD SWAP2 JUMPDEST POP POP POP POP POP SWAP1 DUP1 PUSH1 0x1 ADD PUSH1 0x0 SWAP1 SLOAD SWAP1 PUSH2 0x100 EXP SWAP1 DIV PUSH20 0xFFFFFFFFFFFFFFFFFFFFFFFFFFFFFFFFFFFFFFFF AND SWAP1 DUP1 PUSH1 0x2 ADD SLOAD SWAP1 DUP1 PUSH1 0x3 ADD PUSH1 0x0 SWAP1 SLOAD SWAP1 PUSH2 0x100 EXP SWAP1 DIV PUSH1 0xFF AND SWAP1 DUP1 PUSH1 0x4 ADD SLOAD SWAP1 POP DUP6 JUMP JUMPDEST PUSH1 0x2 PUSH1 0x0 CALLER PUSH20 0xFFFFFFFFFFFFFFFFFFFFFFFFFFFFFFFFFFFFFFFF AND PUSH20 0xFFFFFFFFFFFFFFFFFFFFFFFFFFFFFFFFFFFFFFFF AND DUP2 MSTORE PUSH1 0x20 ADD SWAP1 DUP2 MSTORE PUSH1 0x20 ADD PUSH1 0x0 KECCAK256 PUSH1 0x3 ADD PUSH1 0x0 SWAP1 SLOAD SWAP1 PUSH2 0x100 EXP SWAP1 DIV PUSH1 0xFF AND PUSH2 0xE79 JUMPI PUSH1 0x40 MLOAD PUSH32 0x8C379A000000000000000000000000000000000000000000000000000000000 DUP2 MSTORE PUSH1 0x4 ADD PUSH2 0xE70 SWAP1 PUSH2 0x5024 JUMP JUMPDEST PUSH1 0x40 MLOAD DUP1 SWAP2 SUB SWAP1 REVERT JUMPDEST PUSH1 0x0 DUP1 JUMPDEST PUSH1 0x5 DUP1 SLOAD SWAP1 POP DUP2 LT ISZERO PUSH2 0x12BE JUMPI CALLER PUSH20 0xFFFFFFFFFFFFFFFFFFFFFFFFFFFFFFFFFFFFFFFF AND PUSH1 0x3 PUSH1 0x5 DUP4 DUP2 SLOAD DUP2 LT PUSH2 0xEDD JUMPI PUSH32 0x4E487B7100000000000000000000000000000000000000000000000000000000 PUSH1 0x0 MSTORE PUSH1 0x32 PUSH1 0x4 MSTORE PUSH1 0x24 PUSH1 0x0 REVERT JUMPDEST SWAP1 PUSH1 0x0 MSTORE PUSH1 0x20 PUSH1 0x0 KECCAK256 ADD PUSH1 0x40 MLOAD PUSH2 0xEF4 SWAP2 SWAP1 PUSH2 0x4CE9 JUMP JUMPDEST SWAP1 DUP2 MSTORE PUSH1 0x20 ADD PUSH1 0x40 MLOAD DUP1 SWAP2 SUB SWAP1 KECCAK256 PUSH1 0x1 ADD PUSH1 0x0 SWAP1 SLOAD SWAP1 PUSH2 0x100 EXP SWAP1 DIV PUSH20 0xFFFFFFFFFFFFFFFFFFFFFFFFFFFFFFFFFFFFFFFF AND PUSH20 0xFFFFFFFFFFFFFFFFFFFFFFFFFFFFFFFFFFFFFFFF AND EQ DUP1 ISZERO PUSH2 0xFAC JUMPI POP DUP3 PUSH1 0x3 PUSH1 0x5 DUP4 DUP2 SLOAD DUP2 LT PUSH2 0xF81 JUMPI PUSH32 0x4E487B7100000000000000000000000000000000000000000000000000000000 PUSH1 0x0 MSTORE PUSH1 0x32 PUSH1 0x4 MSTORE PUSH1 0x24 PUSH1 0x0 REVERT JUMPDEST SWAP1 PUSH1 0x0 MSTORE PUSH1 0x20 PUSH1 0x0 KECCAK256 ADD PUSH1 0x40 MLOAD PUSH2 0xF98 SWAP2 SWAP1 PUSH2 0x4CE9 JUMP JUMPDEST SWAP1 DUP2 MSTORE PUSH1 0x20 ADD PUSH1 0x40 MLOAD DUP1 SWAP2 SUB SWAP1 KECCAK256 PUSH1 0x2 ADD SLOAD EQ JUMPDEST DUP1 ISZERO PUSH2 0x102D JUMPI POP PUSH1 0x1 ISZERO ISZERO PUSH1 0x3 PUSH1 0x5 DUP4 DUP2 SLOAD DUP2 LT PUSH2 0xFF3 JUMPI PUSH32 0x4E487B7100000000000000000000000000000000000000000000000000000000 PUSH1 0x0 MSTORE PUSH1 0x32 PUSH1 0x4 MSTORE PUSH1 0x24 PUSH1 0x0 REVERT JUMPDEST SWAP1 PUSH1 0x0 MSTORE PUSH1 0x20 PUSH1 0x0 KECCAK256 ADD PUSH1 0x40 MLOAD PUSH2 0x100A SWAP2 SWAP1 PUSH2 0x4CE9 JUMP JUMPDEST SWAP1 DUP2 MSTORE PUSH1 0x20 ADD PUSH1 0x40 MLOAD DUP1 SWAP2 SUB SWAP1 KECCAK256 PUSH1 0x3 ADD PUSH1 0x0 SWAP1 SLOAD SWAP1 PUSH2 0x100 EXP SWAP1 DIV PUSH1 0xFF AND ISZERO ISZERO EQ JUMPDEST ISZERO PUSH2 0x12AB JUMPI PUSH1 0x0 PUSH1 0x2 PUSH1 0x0 CALLER PUSH20 0xFFFFFFFFFFFFFFFFFFFFFFFFFFFFFFFFFFFFFFFF AND PUSH20 0xFFFFFFFFFFFFFFFFFFFFFFFFFFFFFFFFFFFFFFFF AND DUP2 MSTORE PUSH1 0x20 ADD SWAP1 DUP2 MSTORE PUSH1 0x20 ADD PUSH1 0x0 KECCAK256 PUSH1 0x3 ADD PUSH1 0x0 PUSH2 0x100 EXP DUP2 SLOAD DUP2 PUSH1 0xFF MUL NOT AND SWAP1 DUP4 ISZERO ISZERO MUL OR SWAP1 SSTORE POP PUSH1 0x0 PUSH1 0x3 PUSH1 0x5 DUP4 DUP2 SLOAD DUP2 LT PUSH2 0x10CB JUMPI PUSH32 0x4E487B7100000000000000000000000000000000000000000000000000000000 PUSH1 0x0 MSTORE PUSH1 0x32 PUSH1 0x4 MSTORE PUSH1 0x24 PUSH1 0x0 REVERT JUMPDEST SWAP1 PUSH1 0x0 MSTORE PUSH1 0x20 PUSH1 0x0 KECCAK256 ADD PUSH1 0x40 MLOAD PUSH2 0x10E2 SWAP2 SWAP1 PUSH2 0x4CE9 JUMP JUMPDEST SWAP1 DUP2 MSTORE PUSH1 0x20 ADD PUSH1 0x40 MLOAD DUP1 SWAP2 SUB SWAP1 KECCAK256 PUSH1 0x3 ADD PUSH1 0x0 PUSH2 0x100 EXP DUP2 SLOAD DUP2 PUSH1 0xFF MUL NOT AND SWAP1 DUP4 ISZERO ISZERO MUL OR SWAP1 SSTORE POP PUSH1 0x5 DUP1 DUP3 DUP2 SLOAD DUP2 LT PUSH2 0x1145 JUMPI PUSH32 0x4E487B7100000000000000000000000000000000000000000000000000000000 PUSH1 0x0 MSTORE PUSH1 0x32 PUSH1 0x4 MSTORE PUSH1 0x24 PUSH1 0x0 REVERT JUMPDEST SWAP1 PUSH1 0x0 MSTORE PUSH1 0x20 PUSH1 0x0 KECCAK256 ADD SWAP1 DUP1 PUSH1 0x1 DUP2 SLOAD ADD DUP1 DUP3 SSTORE DUP1 SWAP2 POP POP PUSH1 0x1 SWAP1 SUB SWAP1 PUSH1 0x0 MSTORE PUSH1 0x20 PUSH1 0x0 KECCAK256 ADD PUSH1 0x0 SWAP1 SWAP2 SWAP1 SWAP2 SWAP1 SWAP2 POP SWAP1 DUP1 SLOAD PUSH2 0x1180 SWAP1 PUSH2 0x564D JUMP JUMPDEST PUSH2 0x118B SWAP3 SWAP2 SWAP1 PUSH2 0x3C5A JUMP JUMPDEST POP PUSH1 0x0 PUSH1 0x2 PUSH1 0x0 CALLER PUSH20 0xFFFFFFFFFFFFFFFFFFFFFFFFFFFFFFFFFFFFFFFF AND PUSH20 0xFFFFFFFFFFFFFFFFFFFFFFFFFFFFFFFFFFFFFFFF AND DUP2 MSTORE PUSH1 0x20 ADD SWAP1 DUP2 MSTORE PUSH1 0x20 ADD PUSH1 0x0 KECCAK256 PUSH1 0x2 ADD SLOAD SWAP1 POP PUSH1 0x0 PUSH1 0x2 PUSH1 0x0 CALLER PUSH20 0xFFFFFFFFFFFFFFFFFFFFFFFFFFFFFFFFFFFFFFFF AND PUSH20 0xFFFFFFFFFFFFFFFFFFFFFFFFFFFFFFFFFFFFFFFF AND DUP2 MSTORE PUSH1 0x20 ADD SWAP1 DUP2 MSTORE PUSH1 0x20 ADD PUSH1 0x0 KECCAK256 PUSH1 0x2 ADD DUP2 SWAP1 SSTORE POP CALLER PUSH20 0xFFFFFFFFFFFFFFFFFFFFFFFFFFFFFFFFFFFFFFFF AND PUSH2 0x8FC DUP3 SWAP1 DUP2 ISZERO MUL SWAP1 PUSH1 0x40 MLOAD PUSH1 0x0 PUSH1 0x40 MLOAD DUP1 DUP4 SUB DUP2 DUP6 DUP9 DUP9 CALL SWAP4 POP POP POP POP ISZERO DUP1 ISZERO PUSH2 0x1261 JUMPI RETURNDATASIZE PUSH1 0x0 DUP1 RETURNDATACOPY RETURNDATASIZE PUSH1 0x0 REVERT JUMPDEST POP CALLER PUSH20 0xFFFFFFFFFFFFFFFFFFFFFFFFFFFFFFFFFFFFFFFF AND PUSH32 0xADF7A730CB8E5F6D0D4933FCCE78776B911B3D86736403569632600DF0B99E61 PUSH1 0x40 MLOAD PUSH1 0x40 MLOAD DUP1 SWAP2 SUB SWAP1 LOG2 PUSH1 0x1 SWAP3 POP POP JUMPDEST DUP1 DUP1 PUSH2 0x12B6 SWAP1 PUSH2 0x567F JUMP JUMPDEST SWAP2 POP POP PUSH2 0xE7D JUMP JUMPDEST POP PUSH1 0x0 ISZERO ISZERO DUP2 ISZERO ISZERO EQ PUSH2 0x1306 JUMPI PUSH1 0x40 MLOAD PUSH32 0x8C379A000000000000000000000000000000000000000000000000000000000 DUP2 MSTORE PUSH1 0x4 ADD PUSH2 0x12FD SWAP1 PUSH2 0x5084 JUMP JUMPDEST PUSH1 0x40 MLOAD DUP1 SWAP2 SUB SWAP1 REVERT JUMPDEST POP POP JUMP JUMPDEST PUSH1 0x2 PUSH1 0x0 CALLER PUSH20 0xFFFFFFFFFFFFFFFFFFFFFFFFFFFFFFFFFFFFFFFF AND PUSH20 0xFFFFFFFFFFFFFFFFFFFFFFFFFFFFFFFFFFFFFFFF AND DUP2 MSTORE PUSH1 0x20 ADD SWAP1 DUP2 MSTORE PUSH1 0x20 ADD PUSH1 0x0 KECCAK256 PUSH1 0x3 ADD PUSH1 0x0 SWAP1 SLOAD SWAP1 PUSH2 0x100 EXP SWAP1 DIV PUSH1 0xFF AND PUSH2 0x1399 JUMPI PUSH1 0x40 MLOAD PUSH32 0x8C379A000000000000000000000000000000000000000000000000000000000 DUP2 MSTORE PUSH1 0x4 ADD PUSH2 0x1390 SWAP1 PUSH2 0x5024 JUMP JUMPDEST PUSH1 0x40 MLOAD DUP1 SWAP2 SUB SWAP1 REVERT JUMPDEST PUSH1 0x0 PUSH1 0x2 PUSH1 0x0 CALLER PUSH20 0xFFFFFFFFFFFFFFFFFFFFFFFFFFFFFFFFFFFFFFFF AND PUSH20 0xFFFFFFFFFFFFFFFFFFFFFFFFFFFFFFFFFFFFFFFF AND DUP2 MSTORE PUSH1 0x20 ADD SWAP1 DUP2 MSTORE PUSH1 0x20 ADD PUSH1 0x0 KECCAK256 PUSH1 0x4 ADD SLOAD SWAP1 POP PUSH1 0x0 DUP2 GT PUSH2 0x1423 JUMPI PUSH1 0x40 MLOAD PUSH32 0x8C379A000000000000000000000000000000000000000000000000000000000 DUP2 MSTORE PUSH1 0x4 ADD PUSH2 0x141A SWAP1 PUSH2 0x4F64 JUMP JUMPDEST PUSH1 0x40 MLOAD DUP1 SWAP2 SUB SWAP1 REVERT JUMPDEST PUSH1 0x0 PUSH1 0x2 PUSH1 0x0 CALLER PUSH20 0xFFFFFFFFFFFFFFFFFFFFFFFFFFFFFFFFFFFFFFFF AND PUSH20 0xFFFFFFFFFFFFFFFFFFFFFFFFFFFFFFFFFFFFFFFF AND DUP2 MSTORE PUSH1 0x20 ADD SWAP1 DUP2 MSTORE PUSH1 0x20 ADD PUSH1 0x0 KECCAK256 PUSH1 0x4 ADD DUP2 SWAP1 SSTORE POP CALLER PUSH20 0xFFFFFFFFFFFFFFFFFFFFFFFFFFFFFFFFFFFFFFFF AND PUSH2 0x8FC DUP3 SWAP1 DUP2 ISZERO MUL SWAP1 PUSH1 0x40 MLOAD PUSH1 0x0 PUSH1 0x40 MLOAD DUP1 DUP4 SUB DUP2 DUP6 DUP9 DUP9 CALL SWAP4 POP POP POP POP ISZERO DUP1 ISZERO PUSH2 0x14B1 JUMPI RETURNDATASIZE PUSH1 0x0 DUP1 RETURNDATACOPY RETURNDATASIZE PUSH1 0x0 REVERT JUMPDEST POP CALLER PUSH20 0xFFFFFFFFFFFFFFFFFFFFFFFFFFFFFFFFFFFFFFFF AND PUSH32 0x106F923F993C2149D49B4255FF723ACAFA1F2D94393F561D3EDA32AE348F7241 DUP3 PUSH1 0x40 MLOAD PUSH2 0x14F8 SWAP2 SWAP1 PUSH2 0x5144 JUMP JUMPDEST PUSH1 0x40 MLOAD DUP1 SWAP2 SUB SWAP1 LOG2 POP JUMP JUMPDEST PUSH1 0x0 PUSH1 0x20 MSTORE DUP1 PUSH1 0x0 MSTORE PUSH1 0x40 PUSH1 0x0 KECCAK256 PUSH1 0x0 SWAP2 POP SWAP1 POP DUP1 PUSH1 0x0 ADD SLOAD SWAP1 DUP1 PUSH1 0x1 ADD DUP1 SLOAD PUSH2 0x152C SWAP1 PUSH2 0x564D JUMP JUMPDEST DUP1 PUSH1 0x1F ADD PUSH1 0x20 DUP1 SWAP2 DIV MUL PUSH1 0x20 ADD PUSH1 0x40 MLOAD SWAP1 DUP2 ADD PUSH1 0x40 MSTORE DUP1 SWAP3 SWAP2 SWAP1 DUP2 DUP2 MSTORE PUSH1 0x20 ADD DUP3 DUP1 SLOAD PUSH2 0x1558 SWAP1 PUSH2 0x564D JUMP JUMPDEST DUP1 ISZERO PUSH2 0x15A5 JUMPI DUP1 PUSH1 0x1F LT PUSH2 0x157A JUMPI PUSH2 0x100 DUP1 DUP4 SLOAD DIV MUL DUP4 MSTORE SWAP2 PUSH1 0x20 ADD SWAP2 PUSH2 0x15A5 JUMP JUMPDEST DUP3 ADD SWAP2 SWAP1 PUSH1 0x0 MSTORE PUSH1 0x20 PUSH1 0x0 KECCAK256 SWAP1 JUMPDEST DUP2 SLOAD DUP2 MSTORE SWAP1 PUSH1 0x1 ADD SWAP1 PUSH1 0x20 ADD DUP1 DUP4 GT PUSH2 0x1588 JUMPI DUP3 SWAP1 SUB PUSH1 0x1F AND DUP3 ADD SWAP2 JUMPDEST POP POP POP POP POP SWAP1 DUP1 PUSH1 0x2 ADD DUP1 SLOAD PUSH2 0x15BA SWAP1 PUSH2 0x564D JUMP JUMPDEST DUP1 PUSH1 0x1F ADD PUSH1 0x20 DUP1 SWAP2 DIV MUL PUSH1 0x20 ADD PUSH1 0x40 MLOAD SWAP1 DUP2 ADD PUSH1 0x40 MSTORE DUP1 SWAP3 SWAP2 SWAP1 DUP2 DUP2 MSTORE PUSH1 0x20 ADD DUP3 DUP1 SLOAD PUSH2 0x15E6 SWAP1 PUSH2 0x564D JUMP JUMPDEST DUP1 ISZERO PUSH2 0x1633 JUMPI DUP1 PUSH1 0x1F LT PUSH2 0x1608 JUMPI PUSH2 0x100 DUP1 DUP4 SLOAD DIV MUL DUP4 MSTORE SWAP2 PUSH1 0x20 ADD SWAP2 PUSH2 0x1633 JUMP JUMPDEST DUP3 ADD SWAP2 SWAP1 PUSH1 0x0 MSTORE PUSH1 0x20 PUSH1 0x0 KECCAK256 SWAP1 JUMPDEST DUP2 SLOAD DUP2 MSTORE SWAP1 PUSH1 0x1 ADD SWAP1 PUSH1 0x20 ADD DUP1 DUP4 GT PUSH2 0x1616 JUMPI DUP3 SWAP1 SUB PUSH1 0x1F AND DUP3 ADD SWAP2 JUMPDEST POP POP POP POP POP SWAP1 DUP1 PUSH1 0x3 ADD SLOAD SWAP1 DUP1 PUSH1 0x4 ADD SLOAD SWAP1 DUP1 PUSH1 0x6 ADD SLOAD SWAP1 DUP1 PUSH1 0x7 ADD SLOAD SWAP1 POP DUP8 JUMP JUMPDEST PUSH1 0x2 PUSH1 0x0 CALLER PUSH20 0xFFFFFFFFFFFFFFFFFFFFFFFFFFFFFFFFFFFFFFFF AND PUSH20 0xFFFFFFFFFFFFFFFFFFFFFFFFFFFFFFFFFFFFFFFF AND DUP2 MSTORE PUSH1 0x20 ADD SWAP1 DUP2 MSTORE PUSH1 0x20 ADD PUSH1 0x0 KECCAK256 PUSH1 0x3 ADD PUSH1 0x0 SWAP1 SLOAD SWAP1 PUSH2 0x100 EXP SWAP1 DIV PUSH1 0xFF AND PUSH2 0x16E4 JUMPI PUSH1 0x40 MLOAD PUSH32 0x8C379A000000000000000000000000000000000000000000000000000000000 DUP2 MSTORE PUSH1 0x4 ADD PUSH2 0x16DB SWAP1 PUSH2 0x5024 JUMP JUMPDEST PUSH1 0x40 MLOAD DUP1 SWAP2 SUB SWAP1 REVERT JUMPDEST PUSH1 0x0 JUMPDEST PUSH1 0x7 SLOAD DUP2 LT ISZERO PUSH2 0x1909 JUMPI PUSH1 0x6 PUSH1 0x0 DUP3 DUP2 MSTORE PUSH1 0x20 ADD SWAP1 DUP2 MSTORE PUSH1 0x20 ADD PUSH1 0x0 KECCAK256 PUSH1 0x7 ADD PUSH1 0x0 SWAP1 SLOAD SWAP1 PUSH2 0x100 EXP SWAP1 DIV PUSH1 0xFF AND DUP1 ISZERO PUSH2 0x1737 JUMPI POP TIMESTAMP PUSH1 0x6 PUSH1 0x0 DUP4 DUP2 MSTORE PUSH1 0x20 ADD SWAP1 DUP2 MSTORE PUSH1 0x20 ADD PUSH1 0x0 KECCAK256 PUSH1 0x2 ADD SLOAD GT ISZERO JUMPDEST ISZERO PUSH2 0x1870 JUMPI PUSH1 0x0 DUP1 JUMPDEST PUSH1 0x6 PUSH1 0x0 DUP5 DUP2 MSTORE PUSH1 0x20 ADD SWAP1 DUP2 MSTORE PUSH1 0x20 ADD PUSH1 0x0 KECCAK256 PUSH1 0x6 ADD DUP1 SLOAD SWAP1 POP DUP2 LT ISZERO PUSH2 0x1829 JUMPI CALLER PUSH20 0xFFFFFFFFFFFFFFFFFFFFFFFFFFFFFFFFFFFFFFFF AND PUSH1 0x6 PUSH1 0x0 DUP6 DUP2 MSTORE PUSH1 0x20 ADD SWAP1 DUP2 MSTORE PUSH1 0x20 ADD PUSH1 0x0 KECCAK256 PUSH1 0x6 ADD DUP3 DUP2 SLOAD DUP2 LT PUSH2 0x17C6 JUMPI PUSH32 0x4E487B7100000000000000000000000000000000000000000000000000000000 PUSH1 0x0 MSTORE PUSH1 0x32 PUSH1 0x4 MSTORE PUSH1 0x24 PUSH1 0x0 REVERT JUMPDEST SWAP1 PUSH1 0x0 MSTORE PUSH1 0x20 PUSH1 0x0 KECCAK256 ADD PUSH1 0x0 SWAP1 SLOAD SWAP1 PUSH2 0x100 EXP SWAP1 DIV PUSH20 0xFFFFFFFFFFFFFFFFFFFFFFFFFFFFFFFFFFFFFFFF AND PUSH20 0xFFFFFFFFFFFFFFFFFFFFFFFFFFFFFFFFFFFFFFFF AND EQ ISZERO PUSH2 0x1816 JUMPI PUSH1 0x1 SWAP2 POP PUSH2 0x1829 JUMP JUMPDEST DUP1 DUP1 PUSH2 0x1821 SWAP1 PUSH2 0x567F JUMP JUMPDEST SWAP2 POP POP PUSH2 0x1740 JUMP JUMPDEST POP DUP1 PUSH2 0x186A JUMPI PUSH1 0x40 MLOAD PUSH32 0x8C379A000000000000000000000000000000000000000000000000000000000 DUP2 MSTORE PUSH1 0x4 ADD PUSH2 0x1861 SWAP1 PUSH2 0x5044 JUMP JUMPDEST PUSH1 0x40 MLOAD DUP1 SWAP2 SUB SWAP1 REVERT JUMPDEST POP PUSH2 0x18F6 JUMP JUMPDEST PUSH1 0x6 PUSH1 0x0 DUP3 DUP2 MSTORE PUSH1 0x20 ADD SWAP1 DUP2 MSTORE PUSH1 0x20 ADD PUSH1 0x0 KECCAK256 PUSH1 0x7 ADD PUSH1 0x0 SWAP1 SLOAD SWAP1 PUSH2 0x100 EXP SWAP1 DIV PUSH1 0xFF AND DUP1 ISZERO PUSH2 0x18B5 JUMPI POP TIMESTAMP PUSH1 0x6 PUSH1 0x0 DUP4 DUP2 MSTORE PUSH1 0x20 ADD SWAP1 DUP2 MSTORE PUSH1 0x20 ADD PUSH1 0x0 KECCAK256 PUSH1 0x2 ADD SLOAD GT JUMPDEST ISZERO PUSH2 0x18F5 JUMPI PUSH1 0x40 MLOAD PUSH32 0x8C379A000000000000000000000000000000000000000000000000000000000 DUP2 MSTORE PUSH1 0x4 ADD PUSH2 0x18EC SWAP1 PUSH2 0x4F24 JUMP JUMPDEST PUSH1 0x40 MLOAD DUP1 SWAP2 SUB SWAP1 REVERT JUMPDEST JUMPDEST DUP1 DUP1 PUSH2 0x1901 SWAP1 PUSH2 0x567F JUMP JUMPDEST SWAP2 POP POP PUSH2 0x16E7 JUMP JUMPDEST POP PUSH1 0x0 PUSH1 0x2 PUSH1 0x0 CALLER PUSH20 0xFFFFFFFFFFFFFFFFFFFFFFFFFFFFFFFFFFFFFFFF AND PUSH20 0xFFFFFFFFFFFFFFFFFFFFFFFFFFFFFFFFFFFFFFFF AND DUP2 MSTORE PUSH1 0x20 ADD SWAP1 DUP2 MSTORE PUSH1 0x20 ADD PUSH1 0x0 KECCAK256 PUSH1 0x3 ADD PUSH1 0x0 PUSH2 0x100 EXP DUP2 SLOAD DUP2 PUSH1 0xFF MUL NOT AND SWAP1 DUP4 ISZERO ISZERO MUL OR SWAP1 SSTORE POP PUSH1 0x0 PUSH1 0x2 PUSH1 0x0 CALLER PUSH20 0xFFFFFFFFFFFFFFFFFFFFFFFFFFFFFFFFFFFFFFFF AND PUSH20 0xFFFFFFFFFFFFFFFFFFFFFFFFFFFFFFFFFFFFFFFF AND DUP2 MSTORE PUSH1 0x20 ADD SWAP1 DUP2 MSTORE PUSH1 0x20 ADD PUSH1 0x0 KECCAK256 PUSH1 0x2 ADD SLOAD SWAP1 POP PUSH1 0x0 PUSH1 0x2 PUSH1 0x0 CALLER PUSH20 0xFFFFFFFFFFFFFFFFFFFFFFFFFFFFFFFFFFFFFFFF AND PUSH20 0xFFFFFFFFFFFFFFFFFFFFFFFFFFFFFFFFFFFFFFFF AND DUP2 MSTORE PUSH1 0x20 ADD SWAP1 DUP2 MSTORE PUSH1 0x20 ADD PUSH1 0x0 KECCAK256 PUSH1 0x2 ADD DUP2 SWAP1 SSTORE POP CALLER PUSH20 0xFFFFFFFFFFFFFFFFFFFFFFFFFFFFFFFFFFFFFFFF AND PUSH2 0x8FC DUP3 SWAP1 DUP2 ISZERO MUL SWAP1 PUSH1 0x40 MLOAD PUSH1 0x0 PUSH1 0x40 MLOAD DUP1 DUP4 SUB DUP2 DUP6 DUP9 DUP9 CALL SWAP4 POP POP POP POP ISZERO DUP1 ISZERO PUSH2 0x1A3A JUMPI RETURNDATASIZE PUSH1 0x0 DUP1 RETURNDATACOPY RETURNDATASIZE PUSH1 0x0 REVERT JUMPDEST POP CALLER PUSH20 0xFFFFFFFFFFFFFFFFFFFFFFFFFFFFFFFFFFFFFFFF AND PUSH32 0xADF7A730CB8E5F6D0D4933FCCE78776B911B3D86736403569632600DF0B99E61 PUSH1 0x40 MLOAD PUSH1 0x40 MLOAD DUP1 SWAP2 SUB SWAP1 LOG2 POP JUMP JUMPDEST PUSH1 0x60 DUP1 PUSH1 0x0 PUSH2 0x1A8E PUSH2 0x3CE7 JUMP JUMPDEST PUSH1 0x0 DUP6 PUSH1 0x6 PUSH1 0x0 DUP3 DUP2 MSTORE PUSH1 0x20 ADD SWAP1 DUP2 MSTORE PUSH1 0x20 ADD PUSH1 0x0 KECCAK256 PUSH1 0x7 ADD PUSH1 0x0 SWAP1 SLOAD SWAP1 PUSH2 0x100 EXP SWAP1 DIV PUSH1 0xFF AND PUSH2 0x1AF4 JUMPI PUSH1 0x40 MLOAD PUSH32 0x8C379A000000000000000000000000000000000000000000000000000000000 DUP2 MSTORE PUSH1 0x4 ADD PUSH2 0x1AEB SWAP1 PUSH2 0x5124 JUMP JUMPDEST PUSH1 0x40 MLOAD DUP1 SWAP2 SUB SWAP1 REVERT JUMPDEST PUSH1 0x6 PUSH1 0x0 DUP9 DUP2 MSTORE PUSH1 0x20 ADD SWAP1 DUP2 MSTORE PUSH1 0x20 ADD PUSH1 0x0 KECCAK256 PUSH1 0x0 ADD PUSH1 0x6 PUSH1 0x0 DUP10 DUP2 MSTORE PUSH1 0x20 ADD SWAP1 DUP2 MSTORE PUSH1 0x20 ADD PUSH1 0x0 KECCAK256 PUSH1 0x1 ADD PUSH1 0x6 PUSH1 0x0 DUP11 DUP2 MSTORE PUSH1 0x20 ADD SWAP1 DUP2 MSTORE PUSH1 0x20 ADD PUSH1 0x0 KECCAK256 PUSH1 0x2 ADD SLOAD PUSH1 0x6 PUSH1 0x0 DUP12 DUP2 MSTORE PUSH1 0x20 ADD SWAP1 DUP2 MSTORE PUSH1 0x20 ADD PUSH1 0x0 KECCAK256 PUSH1 0x3 ADD PUSH1 0x6 PUSH1 0x0 DUP13 DUP2 MSTORE PUSH1 0x20 ADD SWAP1 DUP2 MSTORE PUSH1 0x20 ADD PUSH1 0x0 KECCAK256 PUSH1 0xA ADD SLOAD DUP5 DUP1 SLOAD PUSH2 0x1B70 SWAP1 PUSH2 0x564D JUMP JUMPDEST DUP1 PUSH1 0x1F ADD PUSH1 0x20 DUP1 SWAP2 DIV MUL PUSH1 0x20 ADD PUSH1 0x40 MLOAD SWAP1 DUP2 ADD PUSH1 0x40 MSTORE DUP1 SWAP3 SWAP2 SWAP1 DUP2 DUP2 MSTORE PUSH1 0x20 ADD DUP3 DUP1 SLOAD PUSH2 0x1B9C SWAP1 PUSH2 0x564D JUMP JUMPDEST DUP1 ISZERO PUSH2 0x1BE9 JUMPI DUP1 PUSH1 0x1F LT PUSH2 0x1BBE JUMPI PUSH2 0x100 DUP1 DUP4 SLOAD DIV MUL DUP4 MSTORE SWAP2 PUSH1 0x20 ADD SWAP2 PUSH2 0x1BE9 JUMP JUMPDEST DUP3 ADD SWAP2 SWAP1 PUSH1 0x0 MSTORE PUSH1 0x20 PUSH1 0x0 KECCAK256 SWAP1 JUMPDEST DUP2 SLOAD DUP2 MSTORE SWAP1 PUSH1 0x1 ADD SWAP1 PUSH1 0x20 ADD DUP1 DUP4 GT PUSH2 0x1BCC JUMPI DUP3 SWAP1 SUB PUSH1 0x1F AND DUP3 ADD SWAP2 JUMPDEST POP POP POP POP POP SWAP5 POP DUP4 DUP1 SLOAD PUSH2 0x1BFC SWAP1 PUSH2 0x564D JUMP JUMPDEST DUP1 PUSH1 0x1F ADD PUSH1 0x20 DUP1 SWAP2 DIV MUL PUSH1 0x20 ADD PUSH1 0x40 MLOAD SWAP1 DUP2 ADD PUSH1 0x40 MSTORE DUP1 SWAP3 SWAP2 SWAP1 DUP2 DUP2 MSTORE PUSH1 0x20 ADD DUP3 DUP1 SLOAD PUSH2 0x1C28 SWAP1 PUSH2 0x564D JUMP JUMPDEST DUP1 ISZERO PUSH2 0x1C75 JUMPI DUP1 PUSH1 0x1F LT PUSH2 0x1C4A JUMPI PUSH2 0x100 DUP1 DUP4 SLOAD DIV MUL DUP4 MSTORE SWAP2 PUSH1 0x20 ADD SWAP2 PUSH2 0x1C75 JUMP JUMPDEST DUP3 ADD SWAP2 SWAP1 PUSH1 0x0 MSTORE PUSH1 0x20 PUSH1 0x0 KECCAK256 SWAP1 JUMPDEST DUP2 SLOAD DUP2 MSTORE SWAP1 PUSH1 0x1 ADD SWAP1 PUSH1 0x20 ADD DUP1 DUP4 GT PUSH2 0x1C58 JUMPI DUP3 SWAP1 SUB PUSH1 0x1F AND DUP3 ADD SWAP2 JUMPDEST POP POP POP POP POP SWAP4 POP DUP2 PUSH1 0x2 DUP1 PUSH1 0x20 MUL PUSH1 0x40 MLOAD SWAP1 DUP2 ADD PUSH1 0x40 MSTORE DUP1 SWAP3 SWAP2 SWAP1 DUP3 PUSH1 0x2 DUP1 ISZERO PUSH2 0x1CB4 JUMPI PUSH1 0x20 MUL DUP3 ADD SWAP2 JUMPDEST DUP2 SLOAD DUP2 MSTORE PUSH1 0x20 ADD SWAP1 PUSH1 0x1 ADD SWAP1 DUP1 DUP4 GT PUSH2 0x1CA0 JUMPI JUMPDEST POP POP POP POP POP SWAP2 POP SWAP6 POP SWAP6 POP SWAP6 POP SWAP6 POP SWAP6 POP POP SWAP2 SWAP4 SWAP6 SWAP1 SWAP3 SWAP5 POP JUMP JUMPDEST PUSH1 0x0 JUMPDEST PUSH1 0x5 DUP1 SLOAD SWAP1 POP DUP2 LT ISZERO PUSH2 0x1ED5 JUMPI CALLER PUSH20 0xFFFFFFFFFFFFFFFFFFFFFFFFFFFFFFFFFFFFFFFF AND PUSH1 0x3 PUSH1 0x5 DUP4 DUP2 SLOAD DUP2 LT PUSH2 0x1D32 JUMPI PUSH32 0x4E487B7100000000000000000000000000000000000000000000000000000000 PUSH1 0x0 MSTORE PUSH1 0x32 PUSH1 0x4 MSTORE PUSH1 0x24 PUSH1 0x0 REVERT JUMPDEST SWAP1 PUSH1 0x0 MSTORE PUSH1 0x20 PUSH1 0x0 KECCAK256 ADD PUSH1 0x40 MLOAD PUSH2 0x1D49 SWAP2 SWAP1 PUSH2 0x4CE9 JUMP JUMPDEST SWAP1 DUP2 MSTORE PUSH1 0x20 ADD PUSH1 0x40 MLOAD DUP1 SWAP2 SUB SWAP1 KECCAK256 PUSH1 0x1 ADD PUSH1 0x0 SWAP1 SLOAD SWAP1 PUSH2 0x100 EXP SWAP1 DIV PUSH20 0xFFFFFFFFFFFFFFFFFFFFFFFFFFFFFFFFFFFFFFFF AND PUSH20 0xFFFFFFFFFFFFFFFFFFFFFFFFFFFFFFFFFFFFFFFF AND EQ ISZERO DUP1 PUSH2 0x1E02 JUMPI POP DUP3 PUSH1 0x3 PUSH1 0x5 DUP4 DUP2 SLOAD DUP2 LT PUSH2 0x1DD6 JUMPI PUSH32 0x4E487B7100000000000000000000000000000000000000000000000000000000 PUSH1 0x0 MSTORE PUSH1 0x32 PUSH1 0x4 MSTORE PUSH1 0x24 PUSH1 0x0 REVERT JUMPDEST SWAP1 PUSH1 0x0 MSTORE PUSH1 0x20 PUSH1 0x0 KECCAK256 ADD PUSH1 0x40 MLOAD PUSH2 0x1DED SWAP2 SWAP1 PUSH2 0x4CE9 JUMP JUMPDEST SWAP1 DUP2 MSTORE PUSH1 0x20 ADD PUSH1 0x40 MLOAD DUP1 SWAP2 SUB SWAP1 KECCAK256 PUSH1 0x2 ADD SLOAD EQ ISZERO JUMPDEST DUP1 ISZERO PUSH2 0x1E83 JUMPI POP PUSH1 0x1 ISZERO ISZERO PUSH1 0x3 PUSH1 0x5 DUP4 DUP2 SLOAD DUP2 LT PUSH2 0x1E49 JUMPI PUSH32 0x4E487B7100000000000000000000000000000000000000000000000000000000 PUSH1 0x0 MSTORE PUSH1 0x32 PUSH1 0x4 MSTORE PUSH1 0x24 PUSH1 0x0 REVERT JUMPDEST SWAP1 PUSH1 0x0 MSTORE PUSH1 0x20 PUSH1 0x0 KECCAK256 ADD PUSH1 0x40 MLOAD PUSH2 0x1E60 SWAP2 SWAP1 PUSH2 0x4CE9 JUMP JUMPDEST SWAP1 DUP2 MSTORE PUSH1 0x20 ADD PUSH1 0x40 MLOAD DUP1 SWAP2 SUB SWAP1 KECCAK256 PUSH1 0x3 ADD PUSH1 0x0 SWAP1 SLOAD SWAP1 PUSH2 0x100 EXP SWAP1 DIV PUSH1 0xFF AND ISZERO ISZERO EQ JUMPDEST PUSH2 0x1EC2 JUMPI PUSH1 0x40 MLOAD PUSH32 0x8C379A000000000000000000000000000000000000000000000000000000000 DUP2 MSTORE PUSH1 0x4 ADD PUSH2 0x1EB9 SWAP1 PUSH2 0x4F84 JUMP JUMPDEST PUSH1 0x40 MLOAD DUP1 SWAP2 SUB SWAP1 REVERT JUMPDEST DUP1 DUP1 PUSH2 0x1ECD SWAP1 PUSH2 0x567F JUMP JUMPDEST SWAP2 POP POP PUSH2 0x1CD2 JUMP JUMPDEST POP PUSH1 0x40 MLOAD DUP1 PUSH1 0xA0 ADD PUSH1 0x40 MSTORE DUP1 DUP3 DUP2 MSTORE PUSH1 0x20 ADD CALLER PUSH20 0xFFFFFFFFFFFFFFFFFFFFFFFFFFFFFFFFFFFFFFFF AND DUP2 MSTORE PUSH1 0x20 ADD DUP4 DUP2 MSTORE PUSH1 0x20 ADD PUSH1 0x1 ISZERO ISZERO DUP2 MSTORE PUSH1 0x20 ADD PUSH1 0x0 DUP2 MSTORE POP PUSH1 0x3 DUP3 PUSH1 0x40 MLOAD PUSH2 0x1F27 SWAP2 SWAP1 PUSH2 0x4CD2 JUMP JUMPDEST SWAP1 DUP2 MSTORE PUSH1 0x20 ADD PUSH1 0x40 MLOAD DUP1 SWAP2 SUB SWAP1 KECCAK256 PUSH1 0x0 DUP3 ADD MLOAD DUP2 PUSH1 0x0 ADD SWAP1 DUP1 MLOAD SWAP1 PUSH1 0x20 ADD SWAP1 PUSH2 0x1F51 SWAP3 SWAP2 SWAP1 PUSH2 0x3D09 JUMP JUMPDEST POP PUSH1 0x20 DUP3 ADD MLOAD DUP2 PUSH1 0x1 ADD PUSH1 0x0 PUSH2 0x100 EXP DUP2 SLOAD DUP2 PUSH20 0xFFFFFFFFFFFFFFFFFFFFFFFFFFFFFFFFFFFFFFFF MUL NOT AND SWAP1 DUP4 PUSH20 0xFFFFFFFFFFFFFFFFFFFFFFFFFFFFFFFFFFFFFFFF AND MUL OR SWAP1 SSTORE POP PUSH1 0x40 DUP3 ADD MLOAD DUP2 PUSH1 0x2 ADD SSTORE PUSH1 0x60 DUP3 ADD MLOAD DUP2 PUSH1 0x3 ADD PUSH1 0x0 PUSH2 0x100 EXP DUP2 SLOAD DUP2 PUSH1 0xFF MUL NOT AND SWAP1 DUP4 ISZERO ISZERO MUL OR SWAP1 SSTORE POP PUSH1 0x80 DUP3 ADD MLOAD DUP2 PUSH1 0x4 ADD SSTORE SWAP1 POP POP PUSH1 0x5 DUP2 SWAP1 DUP1 PUSH1 0x1 DUP2 SLOAD ADD DUP1 DUP3 SSTORE DUP1 SWAP2 POP POP PUSH1 0x1 SWAP1 SUB SWAP1 PUSH1 0x0 MSTORE PUSH1 0x20 PUSH1 0x0 KECCAK256 ADD PUSH1 0x0 SWAP1 SWAP2 SWAP1 SWAP2 SWAP1 SWAP2 POP SWAP1 DUP1 MLOAD SWAP1 PUSH1 0x20 ADD SWAP1 PUSH2 0x200B SWAP3 SWAP2 SWAP1 PUSH2 0x3D09 JUMP JUMPDEST POP DUP1 PUSH1 0x40 MLOAD PUSH2 0x201A SWAP2 SWAP1 PUSH2 0x4CD2 JUMP JUMPDEST PUSH1 0x40 MLOAD DUP1 SWAP2 SUB SWAP1 KECCAK256 PUSH32 0xD1289FDD73E159A0DEC32FFC16D4A9EB5DD30B68A82D8E888F5A83B80ED557BE DUP4 PUSH1 0x40 MLOAD PUSH2 0x2051 SWAP2 SWAP1 PUSH2 0x5144 JUMP JUMPDEST PUSH1 0x40 MLOAD DUP1 SWAP2 SUB SWAP1 LOG2 POP POP JUMP JUMPDEST PUSH1 0x6 PUSH1 0x20 MSTORE DUP1 PUSH1 0x0 MSTORE PUSH1 0x40 PUSH1 0x0 KECCAK256 PUSH1 0x0 SWAP2 POP SWAP1 POP DUP1 PUSH1 0x0 ADD DUP1 SLOAD PUSH2 0x2080 SWAP1 PUSH2 0x564D JUMP JUMPDEST DUP1 PUSH1 0x1F ADD PUSH1 0x20 DUP1 SWAP2 DIV MUL PUSH1 0x20 ADD PUSH1 0x40 MLOAD SWAP1 DUP2 ADD PUSH1 0x40 MSTORE DUP1 SWAP3 SWAP2 SWAP1 DUP2 DUP2 MSTORE PUSH1 0x20 ADD DUP3 DUP1 SLOAD PUSH2 0x20AC SWAP1 PUSH2 0x564D JUMP JUMPDEST DUP1 ISZERO PUSH2 0x20F9 JUMPI DUP1 PUSH1 0x1F LT PUSH2 0x20CE JUMPI PUSH2 0x100 DUP1 DUP4 SLOAD DIV MUL DUP4 MSTORE SWAP2 PUSH1 0x20 ADD SWAP2 PUSH2 0x20F9 JUMP JUMPDEST DUP3 ADD SWAP2 SWAP1 PUSH1 0x0 MSTORE PUSH1 0x20 PUSH1 0x0 KECCAK256 SWAP1 JUMPDEST DUP2 SLOAD DUP2 MSTORE SWAP1 PUSH1 0x1 ADD SWAP1 PUSH1 0x20 ADD DUP1 DUP4 GT PUSH2 0x20DC JUMPI DUP3 SWAP1 SUB PUSH1 0x1F AND DUP3 ADD SWAP2 JUMPDEST POP POP POP POP POP SWAP1 DUP1 PUSH1 0x1 ADD DUP1 SLOAD PUSH2 0x210E SWAP1 PUSH2 0x564D JUMP JUMPDEST DUP1 PUSH1 0x1F ADD PUSH1 0x20 DUP1 SWAP2 DIV MUL PUSH1 0x20 ADD PUSH1 0x40 MLOAD SWAP1 DUP2 ADD PUSH1 0x40 MSTORE DUP1 SWAP3 SWAP2 SWAP1 DUP2 DUP2 MSTORE PUSH1 0x20 ADD DUP3 DUP1 SLOAD PUSH2 0x213A SWAP1 PUSH2 0x564D JUMP JUMPDEST DUP1 ISZERO PUSH2 0x2187 JUMPI DUP1 PUSH1 0x1F LT PUSH2 0x215C JUMPI PUSH2 0x100 DUP1 DUP4 SLOAD DIV MUL DUP4 MSTORE SWAP2 PUSH1 0x20 ADD SWAP2 PUSH2 0x2187 JUMP JUMPDEST DUP3 ADD SWAP2 SWAP1 PUSH1 0x0 MSTORE PUSH1 0x20 PUSH1 0x0 KECCAK256 SWAP1 JUMPDEST DUP2 SLOAD DUP2 MSTORE SWAP1 PUSH1 0x1 ADD SWAP1 PUSH1 0x20 ADD DUP1 DUP4 GT PUSH2 0x216A JUMPI DUP3 SWAP1 SUB PUSH1 0x1F AND DUP3 ADD SWAP2 JUMPDEST POP POP POP POP POP SWAP1 DUP1 PUSH1 0x2 ADD SLOAD SWAP1 DUP1 PUSH1 0x7 ADD PUSH1 0x0 SWAP1 SLOAD SWAP1 PUSH2 0x100 EXP SWAP1 DIV PUSH1 0xFF AND SWAP1 DUP1 PUSH1 0x8 ADD SLOAD SWAP1 DUP1 PUSH1 0x9 ADD PUSH1 0x0 SWAP1 SLOAD SWAP1 PUSH2 0x100 EXP SWAP1 DIV PUSH1 0xFF AND SWAP1 DUP1 PUSH1 0xA ADD SLOAD SWAP1 POP DUP8 JUMP JUMPDEST PUSH1 0x60 PUSH1 0x0 PUSH2 0x21D5 PUSH2 0x319D JUMP JUMPDEST SWAP1 POP PUSH1 0x0 DUP2 PUSH8 0xFFFFFFFFFFFFFFFF DUP2 GT ISZERO PUSH2 0x2219 JUMPI PUSH32 0x4E487B7100000000000000000000000000000000000000000000000000000000 PUSH1 0x0 MSTORE PUSH1 0x41 PUSH1 0x4 MSTORE PUSH1 0x24 PUSH1 0x0 REVERT JUMPDEST PUSH1 0x40 MLOAD SWAP1 DUP1 DUP3 MSTORE DUP1 PUSH1 0x20 MUL PUSH1 0x20 ADD DUP3 ADD PUSH1 0x40 MSTORE DUP1 ISZERO PUSH2 0x2247 JUMPI DUP2 PUSH1 0x20 ADD PUSH1 0x20 DUP3 MUL DUP1 CALLDATASIZE DUP4 CALLDATACOPY DUP1 DUP3 ADD SWAP2 POP POP SWAP1 POP JUMPDEST POP SWAP1 POP PUSH1 0x0 DUP1 JUMPDEST PUSH1 0x4 DUP1 SLOAD SWAP1 POP DUP2 LT ISZERO PUSH2 0x240E JUMPI PUSH1 0x2 PUSH1 0x0 PUSH1 0x4 DUP4 DUP2 SLOAD DUP2 LT PUSH2 0x2299 JUMPI PUSH32 0x4E487B7100000000000000000000000000000000000000000000000000000000 PUSH1 0x0 MSTORE PUSH1 0x32 PUSH1 0x4 MSTORE PUSH1 0x24 PUSH1 0x0 REVERT JUMPDEST SWAP1 PUSH1 0x0 MSTORE PUSH1 0x20 PUSH1 0x0 KECCAK256 ADD PUSH1 0x0 SWAP1 SLOAD SWAP1 PUSH2 0x100 EXP SWAP1 DIV PUSH20 0xFFFFFFFFFFFFFFFFFFFFFFFFFFFFFFFFFFFFFFFF AND PUSH20 0xFFFFFFFFFFFFFFFFFFFFFFFFFFFFFFFFFFFFFFFF AND PUSH20 0xFFFFFFFFFFFFFFFFFFFFFFFFFFFFFFFFFFFFFFFF AND DUP2 MSTORE PUSH1 0x20 ADD SWAP1 DUP2 MSTORE PUSH1 0x20 ADD PUSH1 0x0 KECCAK256 PUSH1 0x3 ADD PUSH1 0x0 SWAP1 SLOAD SWAP1 PUSH2 0x100 EXP SWAP1 DIV PUSH1 0xFF AND ISZERO PUSH2 0x23FB JUMPI PUSH1 0x4 DUP2 DUP2 SLOAD DUP2 LT PUSH2 0x234E JUMPI PUSH32 0x4E487B7100000000000000000000000000000000000000000000000000000000 PUSH1 0x0 MSTORE PUSH1 0x32 PUSH1 0x4 MSTORE PUSH1 0x24 PUSH1 0x0 REVERT JUMPDEST SWAP1 PUSH1 0x0 MSTORE PUSH1 0x20 PUSH1 0x0 KECCAK256 ADD PUSH1 0x0 SWAP1 SLOAD SWAP1 PUSH2 0x100 EXP SWAP1 DIV PUSH20 0xFFFFFFFFFFFFFFFFFFFFFFFFFFFFFFFFFFFFFFFF AND DUP4 DUP4 DUP2 MLOAD DUP2 LT PUSH2 0x23B2 JUMPI PUSH32 0x4E487B7100000000000000000000000000000000000000000000000000000000 PUSH1 0x0 MSTORE PUSH1 0x32 PUSH1 0x4 MSTORE PUSH1 0x24 PUSH1 0x0 REVERT JUMPDEST PUSH1 0x20 MUL PUSH1 0x20 ADD ADD SWAP1 PUSH20 0xFFFFFFFFFFFFFFFFFFFFFFFFFFFFFFFFFFFFFFFF AND SWAP1 DUP2 PUSH20 0xFFFFFFFFFFFFFFFFFFFFFFFFFFFFFFFFFFFFFFFF AND DUP2 MSTORE POP POP DUP2 DUP1 PUSH2 0x23F7 SWAP1 PUSH2 0x567F JUMP JUMPDEST SWAP3 POP POP JUMPDEST DUP1 DUP1 PUSH2 0x2406 SWAP1 PUSH2 0x567F JUMP JUMPDEST SWAP2 POP POP PUSH2 0x224E JUMP JUMPDEST POP DUP2 SWAP4 POP POP POP POP SWAP1 JUMP JUMPDEST PUSH2 0x2420 PUSH2 0x3CE7 JUMP JUMPDEST PUSH1 0x2 PUSH1 0x0 DUP4 PUSH20 0xFFFFFFFFFFFFFFFFFFFFFFFFFFFFFFFFFFFFFFFF AND PUSH20 0xFFFFFFFFFFFFFFFFFFFFFFFFFFFFFFFFFFFFFFFF AND DUP2 MSTORE PUSH1 0x20 ADD SWAP1 DUP2 MSTORE PUSH1 0x20 ADD PUSH1 0x0 KECCAK256 PUSH1 0x3 ADD PUSH1 0x0 SWAP1 SLOAD SWAP1 PUSH2 0x100 EXP SWAP1 DIV PUSH1 0xFF AND PUSH2 0x24AF JUMPI PUSH1 0x40 MLOAD PUSH32 0x8C379A000000000000000000000000000000000000000000000000000000000 DUP2 MSTORE PUSH1 0x4 ADD PUSH2 0x24A6 SWAP1 PUSH2 0x4F44 JUMP JUMPDEST PUSH1 0x40 MLOAD DUP1 SWAP2 SUB SWAP1 REVERT JUMPDEST PUSH1 0x2 PUSH1 0x0 DUP4 PUSH20 0xFFFFFFFFFFFFFFFFFFFFFFFFFFFFFFFFFFFFFFFF AND PUSH20 0xFFFFFFFFFFFFFFFFFFFFFFFFFFFFFFFFFFFFFFFF AND DUP2 MSTORE PUSH1 0x20 ADD SWAP1 DUP2 MSTORE PUSH1 0x20 ADD PUSH1 0x0 KECCAK256 PUSH1 0x0 ADD PUSH1 0x2 DUP1 PUSH1 0x20 MUL PUSH1 0x40 MLOAD SWAP1 DUP2 ADD PUSH1 0x40 MSTORE DUP1 SWAP3 SWAP2 SWAP1 DUP3 PUSH1 0x2 DUP1 ISZERO PUSH2 0x2528 JUMPI PUSH1 0x20 MUL DUP3 ADD SWAP2 JUMPDEST DUP2 SLOAD DUP2 MSTORE PUSH1 0x20 ADD SWAP1 PUSH1 0x1 ADD SWAP1 DUP1 DUP4 GT PUSH2 0x2514 JUMPI JUMPDEST POP POP POP POP POP SWAP1 POP SWAP2 SWAP1 POP JUMP JUMPDEST PUSH1 0x60 DUP1 DUP3 PUSH1 0x6 PUSH1 0x0 DUP3 DUP2 MSTORE PUSH1 0x20 ADD SWAP1 DUP2 MSTORE PUSH1 0x20 ADD PUSH1 0x0 KECCAK256 PUSH1 0x7 ADD PUSH1 0x0 SWAP1 SLOAD SWAP1 PUSH2 0x100 EXP SWAP1 DIV PUSH1 0xFF AND PUSH2 0x259B JUMPI PUSH1 0x40 MLOAD PUSH32 0x8C379A000000000000000000000000000000000000000000000000000000000 DUP2 MSTORE PUSH1 0x4 ADD PUSH2 0x2592 SWAP1 PUSH2 0x5124 JUMP JUMPDEST PUSH1 0x40 MLOAD DUP1 SWAP2 SUB SWAP1 REVERT JUMPDEST PUSH1 0x6 PUSH1 0x0 DUP6 DUP2 MSTORE PUSH1 0x20 ADD SWAP1 DUP2 MSTORE PUSH1 0x20 ADD PUSH1 0x0 KECCAK256 PUSH1 0x6 ADD DUP1 SLOAD DUP1 PUSH1 0x20 MUL PUSH1 0x20 ADD PUSH1 0x40 MLOAD SWAP1 DUP2 ADD PUSH1 0x40 MSTORE DUP1 SWAP3 SWAP2 SWAP1 DUP2 DUP2 MSTORE PUSH1 0x20 ADD DUP3 DUP1 SLOAD DUP1 ISZERO PUSH2 0x2631 JUMPI PUSH1 0x20 MUL DUP3 ADD SWAP2 SWAP1 PUSH1 0x0 MSTORE PUSH1 0x20 PUSH1 0x0 KECCAK256 SWAP1 JUMPDEST DUP2 PUSH1 0x0 SWAP1 SLOAD SWAP1 PUSH2 0x100 EXP SWAP1 DIV PUSH20 0xFFFFFFFFFFFFFFFFFFFFFFFFFFFFFFFFFFFFFFFF AND PUSH20 0xFFFFFFFFFFFFFFFFFFFFFFFFFFFFFFFFFFFFFFFF AND DUP2 MSTORE PUSH1 0x20 ADD SWAP1 PUSH1 0x1 ADD SWAP1 DUP1 DUP4 GT PUSH2 0x25E7 JUMPI JUMPDEST POP POP POP POP POP SWAP3 POP DUP3 MLOAD PUSH8 0xFFFFFFFFFFFFFFFF DUP2 GT ISZERO PUSH2 0x2679 JUMPI PUSH32 0x4E487B7100000000000000000000000000000000000000000000000000000000 PUSH1 0x0 MSTORE PUSH1 0x41 PUSH1 0x4 MSTORE PUSH1 0x24 PUSH1 0x0 REVERT JUMPDEST PUSH1 0x40 MLOAD SWAP1 DUP1 DUP3 MSTORE DUP1 PUSH1 0x20 MUL PUSH1 0x20 ADD DUP3 ADD PUSH1 0x40 MSTORE DUP1 ISZERO PUSH2 0x26B2 JUMPI DUP2 PUSH1 0x20 ADD JUMPDEST PUSH2 0x269F PUSH2 0x3CE7 JUMP JUMPDEST DUP2 MSTORE PUSH1 0x20 ADD SWAP1 PUSH1 0x1 SWAP1 SUB SWAP1 DUP2 PUSH2 0x2697 JUMPI SWAP1 POP JUMPDEST POP SWAP2 POP PUSH1 0x0 JUMPDEST DUP4 MLOAD DUP2 LT ISZERO PUSH2 0x27E7 JUMPI PUSH1 0x6 PUSH1 0x0 DUP7 DUP2 MSTORE PUSH1 0x20 ADD SWAP1 DUP2 MSTORE PUSH1 0x20 ADD PUSH1 0x0 KECCAK256 PUSH1 0x5 ADD PUSH1 0x0 DUP6 DUP4 DUP2 MLOAD DUP2 LT PUSH2 0x2712 JUMPI PUSH32 0x4E487B7100000000000000000000000000000000000000000000000000000000 PUSH1 0x0 MSTORE PUSH1 0x32 PUSH1 0x4 MSTORE PUSH1 0x24 PUSH1 0x0 REVERT JUMPDEST PUSH1 0x20 MUL PUSH1 0x20 ADD ADD MLOAD PUSH20 0xFFFFFFFFFFFFFFFFFFFFFFFFFFFFFFFFFFFFFFFF AND PUSH20 0xFFFFFFFFFFFFFFFFFFFFFFFFFFFFFFFFFFFFFFFF AND DUP2 MSTORE PUSH1 0x20 ADD SWAP1 DUP2 MSTORE PUSH1 0x20 ADD PUSH1 0x0 KECCAK256 PUSH1 0x2 DUP1 PUSH1 0x20 MUL PUSH1 0x40 MLOAD SWAP1 DUP2 ADD PUSH1 0x40 MSTORE DUP1 SWAP3 SWAP2 SWAP1 DUP3 PUSH1 0x2 DUP1 ISZERO PUSH2 0x278B JUMPI PUSH1 0x20 MUL DUP3 ADD SWAP2 JUMPDEST DUP2 SLOAD DUP2 MSTORE PUSH1 0x20 ADD SWAP1 PUSH1 0x1 ADD SWAP1 DUP1 DUP4 GT PUSH2 0x2777 JUMPI JUMPDEST POP POP POP POP POP DUP4 DUP3 DUP2 MLOAD DUP2 LT PUSH2 0x27C9 JUMPI PUSH32 0x4E487B7100000000000000000000000000000000000000000000000000000000 PUSH1 0x0 MSTORE PUSH1 0x32 PUSH1 0x4 MSTORE PUSH1 0x24 PUSH1 0x0 REVERT JUMPDEST PUSH1 0x20 MUL PUSH1 0x20 ADD ADD DUP2 SWAP1 MSTORE POP DUP1 DUP1 PUSH2 0x27DF SWAP1 PUSH2 0x567F JUMP JUMPDEST SWAP2 POP POP PUSH2 0x26B8 JUMP JUMPDEST POP POP SWAP2 POP SWAP2 JUMP JUMPDEST PUSH1 0x2 PUSH1 0x0 CALLER PUSH20 0xFFFFFFFFFFFFFFFFFFFFFFFFFFFFFFFFFFFFFFFF AND PUSH20 0xFFFFFFFFFFFFFFFFFFFFFFFFFFFFFFFFFFFFFFFF AND DUP2 MSTORE PUSH1 0x20 ADD SWAP1 DUP2 MSTORE PUSH1 0x20 ADD PUSH1 0x0 KECCAK256 PUSH1 0x3 ADD PUSH1 0x0 SWAP1 SLOAD SWAP1 PUSH2 0x100 EXP SWAP1 DIV PUSH1 0xFF AND PUSH2 0x287D JUMPI PUSH1 0x40 MLOAD PUSH32 0x8C379A000000000000000000000000000000000000000000000000000000000 DUP2 MSTORE PUSH1 0x4 ADD PUSH2 0x2874 SWAP1 PUSH2 0x5024 JUMP JUMPDEST PUSH1 0x40 MLOAD DUP1 SWAP2 SUB SWAP1 REVERT JUMPDEST DUP3 PUSH1 0x6 PUSH1 0x0 DUP3 DUP2 MSTORE PUSH1 0x20 ADD SWAP1 DUP2 MSTORE PUSH1 0x20 ADD PUSH1 0x0 KECCAK256 PUSH1 0x7 ADD PUSH1 0x0 SWAP1 SLOAD SWAP1 PUSH2 0x100 EXP SWAP1 DIV PUSH1 0xFF AND PUSH2 0x28E1 JUMPI PUSH1 0x40 MLOAD PUSH32 0x8C379A000000000000000000000000000000000000000000000000000000000 DUP2 MSTORE PUSH1 0x4 ADD PUSH2 0x28D8 SWAP1 PUSH2 0x5124 JUMP JUMPDEST PUSH1 0x40 MLOAD DUP1 SWAP2 SUB SWAP1 REVERT JUMPDEST DUP4 PUSH1 0x6 PUSH1 0x0 DUP3 DUP2 MSTORE PUSH1 0x20 ADD SWAP1 DUP2 MSTORE PUSH1 0x20 ADD PUSH1 0x0 KECCAK256 PUSH1 0x2 ADD SLOAD TIMESTAMP LT ISZERO PUSH2 0x293B JUMPI PUSH1 0x40 MLOAD PUSH32 0x8C379A000000000000000000000000000000000000000000000000000000000 DUP2 MSTORE PUSH1 0x4 ADD PUSH2 0x2932 SWAP1 PUSH2 0x5064 JUMP JUMPDEST PUSH1 0x40 MLOAD DUP1 SWAP2 SUB SWAP1 REVERT JUMPDEST PUSH1 0x40 MLOAD DUP1 PUSH1 0x40 ADD PUSH1 0x40 MSTORE DUP1 DUP6 DUP2 MSTORE PUSH1 0x20 ADD DUP5 DUP2 MSTORE POP PUSH1 0x6 PUSH1 0x0 DUP8 DUP2 MSTORE PUSH1 0x20 ADD SWAP1 DUP2 MSTORE PUSH1 0x20 ADD PUSH1 0x0 KECCAK256 PUSH1 0x5 ADD PUSH1 0x0 CALLER PUSH20 0xFFFFFFFFFFFFFFFFFFFFFFFFFFFFFFFFFFFFFFFF AND PUSH20 0xFFFFFFFFFFFFFFFFFFFFFFFFFFFFFFFFFFFFFFFF AND DUP2 MSTORE PUSH1 0x20 ADD SWAP1 DUP2 MSTORE PUSH1 0x20 ADD PUSH1 0x0 KECCAK256 SWAP1 PUSH1 0x2 PUSH2 0x29B1 SWAP3 SWAP2 SWAP1 PUSH2 0x3D8F JUMP JUMPDEST POP PUSH1 0x6 PUSH1 0x0 DUP7 DUP2 MSTORE PUSH1 0x20 ADD SWAP1 DUP2 MSTORE PUSH1 0x20 ADD PUSH1 0x0 KECCAK256 PUSH1 0x6 ADD CALLER SWAP1 DUP1 PUSH1 0x1 DUP2 SLOAD ADD DUP1 DUP3 SSTORE DUP1 SWAP2 POP POP PUSH1 0x1 SWAP1 SUB SWAP1 PUSH1 0x0 MSTORE PUSH1 0x20 PUSH1 0x0 KECCAK256 ADD PUSH1 0x0 SWAP1 SWAP2 SWAP1 SWAP2 SWAP1 SWAP2 PUSH2 0x100 EXP DUP2 SLOAD DUP2 PUSH20 0xFFFFFFFFFFFFFFFFFFFFFFFFFFFFFFFFFFFFFFFF MUL NOT AND SWAP1 DUP4 PUSH20 0xFFFFFFFFFFFFFFFFFFFFFFFFFFFFFFFFFFFFFFFF AND MUL OR SWAP1 SSTORE POP CALLER PUSH20 0xFFFFFFFFFFFFFFFFFFFFFFFFFFFFFFFFFFFFFFFF AND DUP6 PUSH32 0x60EF478EF7C0F7D3A52E92839F6A502C60D120A4BAB1994106A5634853553DB9 PUSH1 0x40 MLOAD PUSH1 0x40 MLOAD DUP1 SWAP2 SUB SWAP1 LOG3 PUSH2 0x2A75 PUSH2 0x319D JUMP JUMPDEST PUSH1 0x6 PUSH1 0x0 DUP8 DUP2 MSTORE PUSH1 0x20 ADD SWAP1 DUP2 MSTORE PUSH1 0x20 ADD PUSH1 0x0 KECCAK256 PUSH1 0x6 ADD DUP1 SLOAD SWAP1 POP EQ DUP1 ISZERO PUSH2 0x2ABD JUMPI POP PUSH1 0x6 PUSH1 0x0 DUP7 DUP2 MSTORE PUSH1 0x20 ADD SWAP1 DUP2 MSTORE PUSH1 0x20 ADD PUSH1 0x0 KECCAK256 PUSH1 0x9 ADD PUSH1 0x0 SWAP1 SLOAD SWAP1 PUSH2 0x100 EXP SWAP1 DIV PUSH1 0xFF AND ISZERO JUMPDEST ISZERO PUSH2 0x2ACC JUMPI PUSH2 0x2ACB DUP6 PUSH2 0x36BF JUMP JUMPDEST JUMPDEST POP POP POP POP POP JUMP JUMPDEST PUSH1 0x0 DUP1 PUSH1 0x0 SWAP1 POP PUSH1 0x0 JUMPDEST PUSH1 0x5 DUP1 SLOAD SWAP1 POP DUP2 LT ISZERO PUSH2 0x2BF2 JUMPI PUSH1 0x3 PUSH1 0x5 DUP3 DUP2 SLOAD DUP2 LT PUSH2 0x2B26 JUMPI PUSH32 0x4E487B7100000000000000000000000000000000000000000000000000000000 PUSH1 0x0 MSTORE PUSH1 0x32 PUSH1 0x4 MSTORE PUSH1 0x24 PUSH1 0x0 REVERT JUMPDEST SWAP1 PUSH1 0x0 MSTORE PUSH1 0x20 PUSH1 0x0 KECCAK256 ADD PUSH1 0x40 MLOAD PUSH2 0x2B3D SWAP2 SWAP1 PUSH2 0x4CE9 JUMP JUMPDEST SWAP1 DUP2 MSTORE PUSH1 0x20 ADD PUSH1 0x40 MLOAD DUP1 SWAP2 SUB SWAP1 KECCAK256 PUSH1 0x3 ADD PUSH1 0x0 SWAP1 SLOAD SWAP1 PUSH2 0x100 EXP SWAP1 DIV PUSH1 0xFF AND DUP1 ISZERO PUSH2 0x2BCB JUMPI POP DUP4 PUSH1 0x3 PUSH1 0x5 DUP4 DUP2 SLOAD DUP2 LT PUSH2 0x2BA0 JUMPI PUSH32 0x4E487B7100000000000000000000000000000000000000000000000000000000 PUSH1 0x0 MSTORE PUSH1 0x32 PUSH1 0x4 MSTORE PUSH1 0x24 PUSH1 0x0 REVERT JUMPDEST SWAP1 PUSH1 0x0 MSTORE PUSH1 0x20 PUSH1 0x0 KECCAK256 ADD PUSH1 0x40 MLOAD PUSH2 0x2BB7 SWAP2 SWAP1 PUSH2 0x4CE9 JUMP JUMPDEST SWAP1 DUP2 MSTORE PUSH1 0x20 ADD PUSH1 0x40 MLOAD DUP1 SWAP2 SUB SWAP1 KECCAK256 PUSH1 0x2 ADD SLOAD EQ JUMPDEST ISZERO PUSH2 0x2BDF JUMPI DUP2 DUP1 PUSH2 0x2BDB SWAP1 PUSH2 0x567F JUMP JUMPDEST SWAP3 POP POP JUMPDEST DUP1 DUP1 PUSH2 0x2BEA SWAP1 PUSH2 0x567F JUMP JUMPDEST SWAP2 POP POP PUSH2 0x2ADD JUMP JUMPDEST POP DUP1 SWAP2 POP POP SWAP2 SWAP1 POP JUMP JUMPDEST DUP1 PUSH1 0x6 PUSH1 0x0 DUP3 DUP2 MSTORE PUSH1 0x20 ADD SWAP1 DUP2 MSTORE PUSH1 0x20 ADD PUSH1 0x0 KECCAK256 PUSH1 0x7 ADD PUSH1 0x0 SWAP1 SLOAD SWAP1 PUSH2 0x100 EXP SWAP1 DIV PUSH1 0xFF AND PUSH2 0x2C60 JUMPI PUSH1 0x40 MLOAD PUSH32 0x8C379A000000000000000000000000000000000000000000000000000000000 DUP2 MSTORE PUSH1 0x4 ADD PUSH2 0x2C57 SWAP1 PUSH2 0x5124 JUMP JUMPDEST PUSH1 0x40 MLOAD DUP1 SWAP2 SUB SWAP1 REVERT JUMPDEST DUP2 PUSH1 0x6 PUSH1 0x0 DUP3 DUP2 MSTORE PUSH1 0x20 ADD SWAP1 DUP2 MSTORE PUSH1 0x20 ADD PUSH1 0x0 KECCAK256 PUSH1 0x2 ADD SLOAD TIMESTAMP LT ISZERO PUSH2 0x2CBA JUMPI PUSH1 0x40 MLOAD PUSH32 0x8C379A000000000000000000000000000000000000000000000000000000000 DUP2 MSTORE PUSH1 0x4 ADD PUSH2 0x2CB1 SWAP1 PUSH2 0x5064 JUMP JUMPDEST PUSH1 0x40 MLOAD DUP1 SWAP2 SUB SWAP1 REVERT JUMPDEST PUSH2 0xE10 PUSH1 0x6 PUSH1 0x0 DUP6 DUP2 MSTORE PUSH1 0x20 ADD SWAP1 DUP2 MSTORE PUSH1 0x20 ADD PUSH1 0x0 KECCAK256 PUSH1 0x2 ADD SLOAD PUSH2 0x2CDE SWAP2 SWAP1 PUSH2 0x5508 JUMP JUMPDEST TIMESTAMP LT ISZERO PUSH2 0x2D20 JUMPI PUSH1 0x40 MLOAD PUSH32 0x8C379A000000000000000000000000000000000000000000000000000000000 DUP2 MSTORE PUSH1 0x4 ADD PUSH2 0x2D17 SWAP1 PUSH2 0x4F04 JUMP JUMPDEST PUSH1 0x40 MLOAD DUP1 SWAP2 SUB SWAP1 REVERT JUMPDEST PUSH1 0x6 PUSH1 0x0 DUP5 DUP2 MSTORE PUSH1 0x20 ADD SWAP1 DUP2 MSTORE PUSH1 0x20 ADD PUSH1 0x0 KECCAK256 PUSH1 0x9 ADD PUSH1 0x0 SWAP1 SLOAD SWAP1 PUSH2 0x100 EXP SWAP1 DIV PUSH1 0xFF AND ISZERO PUSH2 0x2D84 JUMPI PUSH1 0x40 MLOAD PUSH32 0x8C379A000000000000000000000000000000000000000000000000000000000 DUP2 MSTORE PUSH1 0x4 ADD PUSH2 0x2D7B SWAP1 PUSH2 0x50C4 JUMP JUMPDEST PUSH1 0x40 MLOAD DUP1 SWAP2 SUB SWAP1 REVERT JUMPDEST PUSH1 0x0 PUSH1 0x6 PUSH1 0x0 DUP6 DUP2 MSTORE PUSH1 0x20 ADD SWAP1 DUP2 MSTORE PUSH1 0x20 ADD PUSH1 0x0 KECCAK256 PUSH1 0x6 ADD DUP1 SLOAD SWAP1 POP GT PUSH2 0x2DE0 JUMPI PUSH1 0x40 MLOAD PUSH32 0x8C379A000000000000000000000000000000000000000000000000000000000 DUP2 MSTORE PUSH1 0x4 ADD PUSH2 0x2DD7 SWAP1 PUSH2 0x4FC4 JUMP JUMPDEST PUSH1 0x40 MLOAD DUP1 SWAP2 SUB SWAP1 REVERT JUMPDEST PUSH2 0x2DE9 DUP4 PUSH2 0x36BF JUMP JUMPDEST POP POP POP JUMP JUMPDEST PUSH1 0x1 SLOAD DUP2 JUMP JUMPDEST PUSH1 0x0 PUSH1 0x60 DUP1 PUSH1 0x0 DUP1 PUSH1 0x60 PUSH1 0x0 DUP1 PUSH1 0x1 SLOAD DUP10 LT PUSH2 0x2E45 JUMPI PUSH1 0x40 MLOAD PUSH32 0x8C379A000000000000000000000000000000000000000000000000000000000 DUP2 MSTORE PUSH1 0x4 ADD PUSH2 0x2E3C SWAP1 PUSH2 0x4FA4 JUMP JUMPDEST PUSH1 0x40 MLOAD DUP1 SWAP2 SUB SWAP1 REVERT JUMPDEST PUSH1 0x0 DUP1 PUSH1 0x0 DUP12 DUP2 MSTORE PUSH1 0x20 ADD SWAP1 DUP2 MSTORE PUSH1 0x20 ADD PUSH1 0x0 KECCAK256 PUSH1 0x40 MLOAD DUP1 PUSH2 0x100 ADD PUSH1 0x40 MSTORE SWAP1 DUP2 PUSH1 0x0 DUP3 ADD SLOAD DUP2 MSTORE PUSH1 0x20 ADD PUSH1 0x1 DUP3 ADD DUP1 SLOAD PUSH2 0x2E7F SWAP1 PUSH2 0x564D JUMP JUMPDEST DUP1 PUSH1 0x1F ADD PUSH1 0x20 DUP1 SWAP2 DIV MUL PUSH1 0x20 ADD PUSH1 0x40 MLOAD SWAP1 DUP2 ADD PUSH1 0x40 MSTORE DUP1 SWAP3 SWAP2 SWAP1 DUP2 DUP2 MSTORE PUSH1 0x20 ADD DUP3 DUP1 SLOAD PUSH2 0x2EAB SWAP1 PUSH2 0x564D JUMP JUMPDEST DUP1 ISZERO PUSH2 0x2EF8 JUMPI DUP1 PUSH1 0x1F LT PUSH2 0x2ECD JUMPI PUSH2 0x100 DUP1 DUP4 SLOAD DIV MUL DUP4 MSTORE SWAP2 PUSH1 0x20 ADD SWAP2 PUSH2 0x2EF8 JUMP JUMPDEST DUP3 ADD SWAP2 SWAP1 PUSH1 0x0 MSTORE PUSH1 0x20 PUSH1 0x0 KECCAK256 SWAP1 JUMPDEST DUP2 SLOAD DUP2 MSTORE SWAP1 PUSH1 0x1 ADD SWAP1 PUSH1 0x20 ADD DUP1 DUP4 GT PUSH2 0x2EDB JUMPI DUP3 SWAP1 SUB PUSH1 0x1F AND DUP3 ADD SWAP2 JUMPDEST POP POP POP POP POP DUP2 MSTORE PUSH1 0x20 ADD PUSH1 0x2 DUP3 ADD DUP1 SLOAD PUSH2 0x2F11 SWAP1 PUSH2 0x564D JUMP JUMPDEST DUP1 PUSH1 0x1F ADD PUSH1 0x20 DUP1 SWAP2 DIV MUL PUSH1 0x20 ADD PUSH1 0x40 MLOAD SWAP1 DUP2 ADD PUSH1 0x40 MSTORE DUP1 SWAP3 SWAP2 SWAP1 DUP2 DUP2 MSTORE PUSH1 0x20 ADD DUP3 DUP1 SLOAD PUSH2 0x2F3D SWAP1 PUSH2 0x564D JUMP JUMPDEST DUP1 ISZERO PUSH2 0x2F8A JUMPI DUP1 PUSH1 0x1F LT PUSH2 0x2F5F JUMPI PUSH2 0x100 DUP1 DUP4 SLOAD DIV MUL DUP4 MSTORE SWAP2 PUSH1 0x20 ADD SWAP2 PUSH2 0x2F8A JUMP JUMPDEST DUP3 ADD SWAP2 SWAP1 PUSH1 0x0 MSTORE PUSH1 0x20 PUSH1 0x0 KECCAK256 SWAP1 JUMPDEST DUP2 SLOAD DUP2 MSTORE SWAP1 PUSH1 0x1 ADD SWAP1 PUSH1 0x20 ADD DUP1 DUP4 GT PUSH2 0x2F6D JUMPI DUP3 SWAP1 SUB PUSH1 0x1F AND DUP3 ADD SWAP2 JUMPDEST POP POP POP POP POP DUP2 MSTORE PUSH1 0x20 ADD PUSH1 0x3 DUP3 ADD SLOAD DUP2 MSTORE PUSH1 0x20 ADD PUSH1 0x4 DUP3 ADD SLOAD DUP2 MSTORE PUSH1 0x20 ADD PUSH1 0x5 DUP3 ADD DUP1 SLOAD DUP1 PUSH1 0x20 MUL PUSH1 0x20 ADD PUSH1 0x40 MLOAD SWAP1 DUP2 ADD PUSH1 0x40 MSTORE DUP1 SWAP3 SWAP2 SWAP1 DUP2 DUP2 MSTORE PUSH1 0x20 ADD PUSH1 0x0 SWAP1 JUMPDEST DUP3 DUP3 LT ISZERO PUSH2 0x3078 JUMPI DUP4 DUP3 SWAP1 PUSH1 0x0 MSTORE PUSH1 0x20 PUSH1 0x0 KECCAK256 ADD DUP1 SLOAD PUSH2 0x2FEB SWAP1 PUSH2 0x564D JUMP JUMPDEST DUP1 PUSH1 0x1F ADD PUSH1 0x20 DUP1 SWAP2 DIV MUL PUSH1 0x20 ADD PUSH1 0x40 MLOAD SWAP1 DUP2 ADD PUSH1 0x40 MSTORE DUP1 SWAP3 SWAP2 SWAP1 DUP2 DUP2 MSTORE PUSH1 0x20 ADD DUP3 DUP1 SLOAD PUSH2 0x3017 SWAP1 PUSH2 0x564D JUMP JUMPDEST DUP1 ISZERO PUSH2 0x3064 JUMPI DUP1 PUSH1 0x1F LT PUSH2 0x3039 JUMPI PUSH2 0x100 DUP1 DUP4 SLOAD DIV MUL DUP4 MSTORE SWAP2 PUSH1 0x20 ADD SWAP2 PUSH2 0x3064 JUMP JUMPDEST DUP3 ADD SWAP2 SWAP1 PUSH1 0x0 MSTORE PUSH1 0x20 PUSH1 0x0 KECCAK256 SWAP1 JUMPDEST DUP2 SLOAD DUP2 MSTORE SWAP1 PUSH1 0x1 ADD SWAP1 PUSH1 0x20 ADD DUP1 DUP4 GT PUSH2 0x3047 JUMPI DUP3 SWAP1 SUB PUSH1 0x1F AND DUP3 ADD SWAP2 JUMPDEST POP POP POP POP POP DUP2 MSTORE PUSH1 0x20 ADD SWAP1 PUSH1 0x1 ADD SWAP1 PUSH2 0x2FCC JUMP JUMPDEST POP POP POP POP DUP2 MSTORE PUSH1 0x20 ADD PUSH1 0x6 DUP3 ADD SLOAD DUP2 MSTORE PUSH1 0x20 ADD PUSH1 0x7 DUP3 ADD SLOAD DUP2 MSTORE POP POP SWAP1 POP DUP1 PUSH1 0x0 ADD MLOAD DUP2 PUSH1 0x20 ADD MLOAD DUP3 PUSH1 0x40 ADD MLOAD DUP4 PUSH1 0x60 ADD MLOAD DUP5 PUSH1 0x80 ADD MLOAD DUP6 PUSH1 0xA0 ADD MLOAD DUP7 PUSH1 0xC0 ADD MLOAD DUP8 PUSH1 0xE0 ADD MLOAD SWAP9 POP SWAP9 POP SWAP9 POP SWAP9 POP SWAP9 POP SWAP9 POP SWAP9 POP SWAP9 POP POP SWAP2 SWAP4 SWAP6 SWAP8 POP SWAP2 SWAP4 SWAP6 SWAP8 JUMP JUMPDEST PUSH1 0x3 DUP2 JUMP JUMPDEST PUSH1 0x5 DUP2 DUP2 SLOAD DUP2 LT PUSH2 0x30EF JUMPI PUSH1 0x0 DUP1 REVERT JUMPDEST SWAP1 PUSH1 0x0 MSTORE PUSH1 0x20 PUSH1 0x0 KECCAK256 ADD PUSH1 0x0 SWAP2 POP SWAP1 POP DUP1 SLOAD PUSH2 0x310A SWAP1 PUSH2 0x564D JUMP JUMPDEST DUP1 PUSH1 0x1F ADD PUSH1 0x20 DUP1 SWAP2 DIV MUL PUSH1 0x20 ADD PUSH1 0x40 MLOAD SWAP1 DUP2 ADD PUSH1 0x40 MSTORE DUP1 SWAP3 SWAP2 SWAP1 DUP2 DUP2 MSTORE PUSH1 0x20 ADD DUP3 DUP1 SLOAD PUSH2 0x3136 SWAP1 PUSH2 0x564D JUMP JUMPDEST DUP1 ISZERO PUSH2 0x3183 JUMPI DUP1 PUSH1 0x1F LT PUSH2 0x3158 JUMPI PUSH2 0x100 DUP1 DUP4 SLOAD DIV MUL DUP4 MSTORE SWAP2 PUSH1 0x20 ADD SWAP2 PUSH2 0x3183 JUMP JUMPDEST DUP3 ADD SWAP2 SWAP1 PUSH1 0x0 MSTORE PUSH1 0x20 PUSH1 0x0 KECCAK256 SWAP1 JUMPDEST DUP2 SLOAD DUP2 MSTORE SWAP1 PUSH1 0x1 ADD SWAP1 PUSH1 0x20 ADD DUP1 DUP4 GT PUSH2 0x3166 JUMPI DUP3 SWAP1 SUB PUSH1 0x1F AND DUP3 ADD SWAP2 JUMPDEST POP POP POP POP POP DUP2 JUMP JUMPDEST PUSH8 0xDE0B6B3A7640000 DUP2 JUMP JUMPDEST PUSH1 0x7 SLOAD DUP2 JUMP JUMPDEST PUSH1 0x0 DUP1 PUSH1 0x0 SWAP1 POP PUSH1 0x0 JUMPDEST PUSH1 0x4 DUP1 SLOAD SWAP1 POP DUP2 LT ISZERO PUSH2 0x328F JUMPI PUSH1 0x2 PUSH1 0x0 PUSH1 0x4 DUP4 DUP2 SLOAD DUP2 LT PUSH2 0x31F2 JUMPI PUSH32 0x4E487B7100000000000000000000000000000000000000000000000000000000 PUSH1 0x0 MSTORE PUSH1 0x32 PUSH1 0x4 MSTORE PUSH1 0x24 PUSH1 0x0 REVERT JUMPDEST SWAP1 PUSH1 0x0 MSTORE PUSH1 0x20 PUSH1 0x0 KECCAK256 ADD PUSH1 0x0 SWAP1 SLOAD SWAP1 PUSH2 0x100 EXP SWAP1 DIV PUSH20 0xFFFFFFFFFFFFFFFFFFFFFFFFFFFFFFFFFFFFFFFF AND PUSH20 0xFFFFFFFFFFFFFFFFFFFFFFFFFFFFFFFFFFFFFFFF AND PUSH20 0xFFFFFFFFFFFFFFFFFFFFFFFFFFFFFFFFFFFFFFFF AND DUP2 MSTORE PUSH1 0x20 ADD SWAP1 DUP2 MSTORE PUSH1 0x20 ADD PUSH1 0x0 KECCAK256 PUSH1 0x3 ADD PUSH1 0x0 SWAP1 SLOAD SWAP1 PUSH2 0x100 EXP SWAP1 DIV PUSH1 0xFF AND ISZERO PUSH2 0x327C JUMPI DUP2 DUP1 PUSH2 0x3278 SWAP1 PUSH2 0x567F JUMP JUMPDEST SWAP3 POP POP JUMPDEST DUP1 DUP1 PUSH2 0x3287 SWAP1 PUSH2 0x567F JUMP JUMPDEST SWAP2 POP POP PUSH2 0x31A7 JUMP JUMPDEST POP DUP1 SWAP2 POP POP SWAP1 JUMP JUMPDEST PUSH1 0x0 PUSH1 0x2 PUSH1 0x0 DUP4 PUSH20 0xFFFFFFFFFFFFFFFFFFFFFFFFFFFFFFFFFFFFFFFF AND PUSH20 0xFFFFFFFFFFFFFFFFFFFFFFFFFFFFFFFFFFFFFFFF AND DUP2 MSTORE PUSH1 0x20 ADD SWAP1 DUP2 MSTORE PUSH1 0x20 ADD PUSH1 0x0 KECCAK256 PUSH1 0x3 ADD PUSH1 0x0 SWAP1 SLOAD SWAP1 PUSH2 0x100 EXP SWAP1 DIV PUSH1 0xFF AND SWAP1 POP SWAP2 SWAP1 POP JUMP JUMPDEST PUSH1 0x0 PUSH1 0x2 PUSH1 0x0 DUP4 PUSH20 0xFFFFFFFFFFFFFFFFFFFFFFFFFFFFFFFFFFFFFFFF AND PUSH20 0xFFFFFFFFFFFFFFFFFFFFFFFFFFFFFFFFFFFFFFFF AND DUP2 MSTORE PUSH1 0x20 ADD SWAP1 DUP2 MSTORE PUSH1 0x20 ADD PUSH1 0x0 KECCAK256 PUSH1 0x4 ADD SLOAD SWAP1 POP SWAP2 SWAP1 POP JUMP JUMPDEST PUSH8 0x16345785D8A0000 DUP2 JUMP JUMPDEST DUP1 PUSH1 0x6 PUSH1 0x0 DUP3 DUP2 MSTORE PUSH1 0x20 ADD SWAP1 DUP2 MSTORE PUSH1 0x20 ADD PUSH1 0x0 KECCAK256 PUSH1 0x7 ADD PUSH1 0x0 SWAP1 SLOAD SWAP1 PUSH2 0x100 EXP SWAP1 DIV PUSH1 0xFF AND PUSH2 0x33AC JUMPI PUSH1 0x40 MLOAD PUSH32 0x8C379A000000000000000000000000000000000000000000000000000000000 DUP2 MSTORE PUSH1 0x4 ADD PUSH2 0x33A3 SWAP1 PUSH2 0x5124 JUMP JUMPDEST PUSH1 0x40 MLOAD DUP1 SWAP2 SUB SWAP1 REVERT JUMPDEST TIMESTAMP PUSH1 0x6 PUSH1 0x0 DUP5 DUP2 MSTORE PUSH1 0x20 ADD SWAP1 DUP2 MSTORE PUSH1 0x20 ADD PUSH1 0x0 KECCAK256 PUSH1 0x2 ADD SLOAD GT ISZERO PUSH2 0x3405 JUMPI PUSH1 0x40 MLOAD PUSH32 0x8C379A000000000000000000000000000000000000000000000000000000000 DUP2 MSTORE PUSH1 0x4 ADD PUSH2 0x33FC SWAP1 PUSH2 0x5064 JUMP JUMPDEST PUSH1 0x40 MLOAD DUP1 SWAP2 SUB SWAP1 REVERT JUMPDEST PUSH1 0x2 PUSH1 0x0 DUP5 PUSH20 0xFFFFFFFFFFFFFFFFFFFFFFFFFFFFFFFFFFFFFFFF AND PUSH20 0xFFFFFFFFFFFFFFFFFFFFFFFFFFFFFFFFFFFFFFFF AND DUP2 MSTORE PUSH1 0x20 ADD SWAP1 DUP2 MSTORE PUSH1 0x20 ADD PUSH1 0x0 KECCAK256 PUSH1 0x3 ADD PUSH1 0x0 SWAP1 SLOAD SWAP1 PUSH2 0x100 EXP SWAP1 DIV PUSH1 0xFF AND PUSH2 0x3494 JUMPI PUSH1 0x40 MLOAD PUSH32 0x8C379A000000000000000000000000000000000000000000000000000000000 DUP2 MSTORE PUSH1 0x4 ADD PUSH2 0x348B SWAP1 PUSH2 0x4F44 JUMP JUMPDEST PUSH1 0x40 MLOAD DUP1 SWAP2 SUB SWAP1 REVERT JUMPDEST PUSH1 0x0 DUP1 JUMPDEST PUSH1 0x6 PUSH1 0x0 DUP6 DUP2 MSTORE PUSH1 0x20 ADD SWAP1 DUP2 MSTORE PUSH1 0x20 ADD PUSH1 0x0 KECCAK256 PUSH1 0x6 ADD DUP1 SLOAD SWAP1 POP DUP2 LT ISZERO PUSH2 0x3581 JUMPI DUP5 PUSH20 0xFFFFFFFFFFFFFFFFFFFFFFFFFFFFFFFFFFFFFFFF AND PUSH1 0x6 PUSH1 0x0 DUP7 DUP2 MSTORE PUSH1 0x20 ADD SWAP1 DUP2 MSTORE PUSH1 0x20 ADD PUSH1 0x0 KECCAK256 PUSH1 0x6 ADD DUP3 DUP2 SLOAD DUP2 LT PUSH2 0x351E JUMPI PUSH32 0x4E487B7100000000000000000000000000000000000000000000000000000000 PUSH1 0x0 MSTORE PUSH1 0x32 PUSH1 0x4 MSTORE PUSH1 0x24 PUSH1 0x0 REVERT JUMPDEST SWAP1 PUSH1 0x0 MSTORE PUSH1 0x20 PUSH1 0x0 KECCAK256 ADD PUSH1 0x0 SWAP1 SLOAD SWAP1 PUSH2 0x100 EXP SWAP1 DIV PUSH20 0xFFFFFFFFFFFFFFFFFFFFFFFFFFFFFFFFFFFFFFFF AND PUSH20 0xFFFFFFFFFFFFFFFFFFFFFFFFFFFFFFFFFFFFFFFF AND EQ ISZERO PUSH2 0x356E JUMPI PUSH1 0x1 SWAP2 POP PUSH2 0x3581 JUMP JUMPDEST DUP1 DUP1 PUSH2 0x3579 SWAP1 PUSH2 0x567F JUMP JUMPDEST SWAP2 POP POP PUSH2 0x3498 JUMP JUMPDEST POP DUP1 ISZERO PUSH2 0x35C3 JUMPI PUSH1 0x40 MLOAD PUSH32 0x8C379A000000000000000000000000000000000000000000000000000000000 DUP2 MSTORE PUSH1 0x4 ADD PUSH2 0x35BA SWAP1 PUSH2 0x50A4 JUMP JUMPDEST PUSH1 0x40 MLOAD DUP1 SWAP2 SUB SWAP1 REVERT JUMPDEST PUSH1 0x0 PUSH1 0x2 PUSH1 0x0 DUP7 PUSH20 0xFFFFFFFFFFFFFFFFFFFFFFFFFFFFFFFFFFFFFFFF AND PUSH20 0xFFFFFFFFFFFFFFFFFFFFFFFFFFFFFFFFFFFFFFFF AND DUP2 MSTORE PUSH1 0x20 ADD SWAP1 DUP2 MSTORE PUSH1 0x20 ADD PUSH1 0x0 KECCAK256 PUSH1 0x3 ADD PUSH1 0x0 PUSH2 0x100 EXP DUP2 SLOAD DUP2 PUSH1 0xFF MUL NOT AND SWAP1 DUP4 ISZERO ISZERO MUL OR SWAP1 SSTORE POP PUSH1 0x0 PUSH1 0x2 PUSH1 0x0 DUP7 PUSH20 0xFFFFFFFFFFFFFFFFFFFFFFFFFFFFFFFFFFFFFFFF AND PUSH20 0xFFFFFFFFFFFFFFFFFFFFFFFFFFFFFFFFFFFFFFFF AND DUP2 MSTORE PUSH1 0x20 ADD SWAP1 DUP2 MSTORE PUSH1 0x20 ADD PUSH1 0x0 KECCAK256 PUSH1 0x2 ADD DUP2 SWAP1 SSTORE POP DUP4 PUSH20 0xFFFFFFFFFFFFFFFFFFFFFFFFFFFFFFFFFFFFFFFF AND PUSH32 0xADF7A730CB8E5F6D0D4933FCCE78776B911B3D86736403569632600DF0B99E61 PUSH1 0x40 MLOAD PUSH1 0x40 MLOAD DUP1 SWAP2 SUB SWAP1 LOG2 POP POP POP POP JUMP JUMPDEST PUSH1 0x0 PUSH8 0xDE0B6B3A7640000 SWAP1 POP SWAP1 JUMP JUMPDEST DUP1 PUSH1 0x6 PUSH1 0x0 DUP3 DUP2 MSTORE PUSH1 0x20 ADD SWAP1 DUP2 MSTORE PUSH1 0x20 ADD PUSH1 0x0 KECCAK256 PUSH1 0x7 ADD PUSH1 0x0 SWAP1 SLOAD SWAP1 PUSH2 0x100 EXP SWAP1 DIV PUSH1 0xFF AND PUSH2 0x3723 JUMPI PUSH1 0x40 MLOAD PUSH32 0x8C379A000000000000000000000000000000000000000000000000000000000 DUP2 MSTORE PUSH1 0x4 ADD PUSH2 0x371A SWAP1 PUSH2 0x5124 JUMP JUMPDEST PUSH1 0x40 MLOAD DUP1 SWAP2 SUB SWAP1 REVERT JUMPDEST PUSH1 0x6 PUSH1 0x0 DUP4 DUP2 MSTORE PUSH1 0x20 ADD SWAP1 DUP2 MSTORE PUSH1 0x20 ADD PUSH1 0x0 KECCAK256 PUSH1 0x9 ADD PUSH1 0x0 SWAP1 SLOAD SWAP1 PUSH2 0x100 EXP SWAP1 DIV PUSH1 0xFF AND ISZERO PUSH2 0x3787 JUMPI PUSH1 0x40 MLOAD PUSH32 0x8C379A000000000000000000000000000000000000000000000000000000000 DUP2 MSTORE PUSH1 0x4 ADD PUSH2 0x377E SWAP1 PUSH2 0x50C4 JUMP JUMPDEST PUSH1 0x40 MLOAD DUP1 SWAP2 SUB SWAP1 REVERT JUMPDEST PUSH1 0x0 PUSH1 0x6 PUSH1 0x0 DUP5 DUP2 MSTORE PUSH1 0x20 ADD SWAP1 DUP2 MSTORE PUSH1 0x20 ADD PUSH1 0x0 KECCAK256 PUSH1 0x6 ADD DUP1 SLOAD SWAP1 POP GT PUSH2 0x37E3 JUMPI PUSH1 0x40 MLOAD PUSH32 0x8C379A000000000000000000000000000000000000000000000000000000000 DUP2 MSTORE PUSH1 0x4 ADD PUSH2 0x37DA SWAP1 PUSH2 0x4FC4 JUMP JUMPDEST PUSH1 0x40 MLOAD DUP1 SWAP2 SUB SWAP1 REVERT JUMPDEST PUSH1 0x0 PUSH1 0x6 PUSH1 0x0 DUP5 DUP2 MSTORE PUSH1 0x20 ADD SWAP1 DUP2 MSTORE PUSH1 0x20 ADD PUSH1 0x0 KECCAK256 PUSH1 0x8 ADD SLOAD SWAP1 POP PUSH1 0x0 PUSH1 0x6 PUSH1 0x0 DUP6 DUP2 MSTORE PUSH1 0x20 ADD SWAP1 DUP2 MSTORE PUSH1 0x20 ADD PUSH1 0x0 KECCAK256 PUSH1 0x6 ADD DUP1 SLOAD SWAP1 POP SWAP1 POP PUSH2 0x3824 PUSH2 0x319D JUMP JUMPDEST DUP2 EQ ISZERO PUSH2 0x3937 JUMPI PUSH1 0x0 DUP2 DUP4 PUSH2 0x3839 SWAP2 SWAP1 PUSH2 0x555E JUMP JUMPDEST SWAP1 POP PUSH1 0x0 JUMPDEST DUP3 DUP2 LT ISZERO PUSH2 0x3930 JUMPI PUSH1 0x0 PUSH1 0x6 PUSH1 0x0 DUP9 DUP2 MSTORE PUSH1 0x20 ADD SWAP1 DUP2 MSTORE PUSH1 0x20 ADD PUSH1 0x0 KECCAK256 PUSH1 0x6 ADD DUP3 DUP2 SLOAD DUP2 LT PUSH2 0x3896 JUMPI PUSH32 0x4E487B7100000000000000000000000000000000000000000000000000000000 PUSH1 0x0 MSTORE PUSH1 0x32 PUSH1 0x4 MSTORE PUSH1 0x24 PUSH1 0x0 REVERT JUMPDEST SWAP1 PUSH1 0x0 MSTORE PUSH1 0x20 PUSH1 0x0 KECCAK256 ADD PUSH1 0x0 SWAP1 SLOAD SWAP1 PUSH2 0x100 EXP SWAP1 DIV PUSH20 0xFFFFFFFFFFFFFFFFFFFFFFFFFFFFFFFFFFFFFFFF AND SWAP1 POP DUP3 PUSH1 0x2 PUSH1 0x0 DUP4 PUSH20 0xFFFFFFFFFFFFFFFFFFFFFFFFFFFFFFFFFFFFFFFF AND PUSH20 0xFFFFFFFFFFFFFFFFFFFFFFFFFFFFFFFFFFFFFFFF AND DUP2 MSTORE PUSH1 0x20 ADD SWAP1 DUP2 MSTORE PUSH1 0x20 ADD PUSH1 0x0 KECCAK256 PUSH1 0x4 ADD PUSH1 0x0 DUP3 DUP3 SLOAD PUSH2 0x3915 SWAP2 SWAP1 PUSH2 0x5508 JUMP JUMPDEST SWAP3 POP POP DUP2 SWAP1 SSTORE POP POP DUP1 DUP1 PUSH2 0x3928 SWAP1 PUSH2 0x567F JUMP JUMPDEST SWAP2 POP POP PUSH2 0x383E JUMP JUMPDEST POP POP PUSH2 0x3A3F JUMP JUMPDEST PUSH1 0x0 DUP2 DUP4 PUSH2 0x3945 SWAP2 SWAP1 PUSH2 0x555E JUMP JUMPDEST SWAP1 POP PUSH1 0x0 JUMPDEST DUP3 DUP2 LT ISZERO PUSH2 0x3A3C JUMPI PUSH1 0x0 PUSH1 0x6 PUSH1 0x0 DUP9 DUP2 MSTORE PUSH1 0x20 ADD SWAP1 DUP2 MSTORE PUSH1 0x20 ADD PUSH1 0x0 KECCAK256 PUSH1 0x6 ADD DUP3 DUP2 SLOAD DUP2 LT PUSH2 0x39A2 JUMPI PUSH32 0x4E487B7100000000000000000000000000000000000000000000000000000000 PUSH1 0x0 MSTORE PUSH1 0x32 PUSH1 0x4 MSTORE PUSH1 0x24 PUSH1 0x0 REVERT JUMPDEST SWAP1 PUSH1 0x0 MSTORE PUSH1 0x20 PUSH1 0x0 KECCAK256 ADD PUSH1 0x0 SWAP1 SLOAD SWAP1 PUSH2 0x100 EXP SWAP1 DIV PUSH20 0xFFFFFFFFFFFFFFFFFFFFFFFFFFFFFFFFFFFFFFFF AND SWAP1 POP DUP3 PUSH1 0x2 PUSH1 0x0 DUP4 PUSH20 0xFFFFFFFFFFFFFFFFFFFFFFFFFFFFFFFFFFFFFFFF AND PUSH20 0xFFFFFFFFFFFFFFFFFFFFFFFFFFFFFFFFFFFFFFFF AND DUP2 MSTORE PUSH1 0x20 ADD SWAP1 DUP2 MSTORE PUSH1 0x20 ADD PUSH1 0x0 KECCAK256 PUSH1 0x4 ADD PUSH1 0x0 DUP3 DUP3 SLOAD PUSH2 0x3A21 SWAP2 SWAP1 PUSH2 0x5508 JUMP JUMPDEST SWAP3 POP POP DUP2 SWAP1 SSTORE POP POP DUP1 DUP1 PUSH2 0x3A34 SWAP1 PUSH2 0x567F JUMP JUMPDEST SWAP2 POP POP PUSH2 0x394A JUMP JUMPDEST POP POP JUMPDEST PUSH1 0x1 PUSH1 0x6 PUSH1 0x0 DUP7 DUP2 MSTORE PUSH1 0x20 ADD SWAP1 DUP2 MSTORE PUSH1 0x20 ADD PUSH1 0x0 KECCAK256 PUSH1 0x9 ADD PUSH1 0x0 PUSH2 0x100 EXP DUP2 SLOAD DUP2 PUSH1 0xFF MUL NOT AND SWAP1 DUP4 ISZERO ISZERO MUL OR SWAP1 SSTORE POP DUP4 PUSH32 0xDA04004D58812F3E164F58E498158ACCA1B0054D975FCE0E3BAFDF56F2E254BA DUP4 DUP4 PUSH1 0x40 MLOAD PUSH2 0x3AA0 SWAP3 SWAP2 SWAP1 PUSH2 0x52D6 JUMP JUMPDEST PUSH1 0x40 MLOAD DUP1 SWAP2 SUB SWAP1 LOG2 POP POP POP POP JUMP JUMPDEST DUP3 DUP1 SLOAD PUSH2 0x3ABA SWAP1 PUSH2 0x564D JUMP JUMPDEST SWAP1 PUSH1 0x0 MSTORE PUSH1 0x20 PUSH1 0x0 KECCAK256 SWAP1 PUSH1 0x1F ADD PUSH1 0x20 SWAP1 DIV DUP2 ADD SWAP3 DUP3 PUSH2 0x3ADC JUMPI PUSH1 0x0 DUP6 SSTORE PUSH2 0x3B23 JUMP JUMPDEST DUP3 PUSH1 0x1F LT PUSH2 0x3AF5 JUMPI DUP1 MLOAD PUSH1 0xFF NOT AND DUP4 DUP1 ADD OR DUP6 SSTORE PUSH2 0x3B23 JUMP JUMPDEST DUP3 DUP1 ADD PUSH1 0x1 ADD DUP6 SSTORE DUP3 ISZERO PUSH2 0x3B23 JUMPI SWAP2 DUP3 ADD JUMPDEST DUP3 DUP2 GT ISZERO PUSH2 0x3B22 JUMPI DUP3 MLOAD DUP3 SSTORE SWAP2 PUSH1 0x20 ADD SWAP2 SWAP1 PUSH1 0x1 ADD SWAP1 PUSH2 0x3B07 JUMP JUMPDEST JUMPDEST POP SWAP1 POP PUSH2 0x3B30 SWAP2 SWAP1 PUSH2 0x3DCF JUMP JUMPDEST POP SWAP1 JUMP JUMPDEST DUP3 DUP1 SLOAD DUP3 DUP3 SSTORE SWAP1 PUSH1 0x0 MSTORE PUSH1 0x20 PUSH1 0x0 KECCAK256 SWAP1 DUP2 ADD SWAP3 DUP3 ISZERO PUSH2 0x3B83 JUMPI SWAP2 PUSH1 0x20 MUL DUP3 ADD JUMPDEST DUP3 DUP2 GT ISZERO PUSH2 0x3B82 JUMPI DUP3 MLOAD DUP3 SWAP1 DUP1 MLOAD SWAP1 PUSH1 0x20 ADD SWAP1 PUSH2 0x3B72 SWAP3 SWAP2 SWAP1 PUSH2 0x3AAE JUMP JUMPDEST POP SWAP2 PUSH1 0x20 ADD SWAP2 SWAP1 PUSH1 0x1 ADD SWAP1 PUSH2 0x3B54 JUMP JUMPDEST JUMPDEST POP SWAP1 POP PUSH2 0x3B90 SWAP2 SWAP1 PUSH2 0x3DEC JUMP JUMPDEST POP SWAP1 JUMP JUMPDEST DUP3 DUP1 SLOAD PUSH2 0x3BA0 SWAP1 PUSH2 0x564D JUMP JUMPDEST SWAP1 PUSH1 0x0 MSTORE PUSH1 0x20 PUSH1 0x0 KECCAK256 SWAP1 PUSH1 0x1F ADD PUSH1 0x20 SWAP1 DIV DUP2 ADD SWAP3 DUP3 PUSH2 0x3BC2 JUMPI PUSH1 0x0 DUP6 SSTORE PUSH2 0x3C09 JUMP JUMPDEST DUP3 PUSH1 0x1F LT PUSH2 0x3BDB JUMPI DUP1 CALLDATALOAD PUSH1 0xFF NOT AND DUP4 DUP1 ADD OR DUP6 SSTORE PUSH2 0x3C09 JUMP JUMPDEST DUP3 DUP1 ADD PUSH1 0x1 ADD DUP6 SSTORE DUP3 ISZERO PUSH2 0x3C09 JUMPI SWAP2 DUP3 ADD JUMPDEST DUP3 DUP2 GT ISZERO PUSH2 0x3C08 JUMPI DUP3 CALLDATALOAD DUP3 SSTORE SWAP2 PUSH1 0x20 ADD SWAP2 SWAP1 PUSH1 0x1 ADD SWAP1 PUSH2 0x3BED JUMP JUMPDEST JUMPDEST POP SWAP1 POP PUSH2 0x3C16 SWAP2 SWAP1 PUSH2 0x3DCF JUMP JUMPDEST POP SWAP1 JUMP JUMPDEST DUP3 PUSH1 0x2 DUP2 ADD SWAP3 DUP3 ISZERO PUSH2 0x3C49 JUMPI SWAP2 PUSH1 0x20 MUL DUP3 ADD JUMPDEST DUP3 DUP2 GT ISZERO PUSH2 0x3C48 JUMPI DUP3 CALLDATALOAD DUP3 SSTORE SWAP2 PUSH1 0x20 ADD SWAP2 SWAP1 PUSH1 0x1 ADD SWAP1 PUSH2 0x3C2D JUMP JUMPDEST JUMPDEST POP SWAP1 POP PUSH2 0x3C56 SWAP2 SWAP1 PUSH2 0x3DCF JUMP JUMPDEST POP SWAP1 JUMP JUMPDEST DUP3 DUP1 SLOAD PUSH2 0x3C66 SWAP1 PUSH2 0x564D JUMP JUMPDEST SWAP1 PUSH1 0x0 MSTORE PUSH1 0x20 PUSH1 0x0 KECCAK256 SWAP1 PUSH1 0x1F ADD PUSH1 0x20 SWAP1 DIV DUP2 ADD SWAP3 DUP3 PUSH2 0x3C88 JUMPI PUSH1 0x0 DUP6 SSTORE PUSH2 0x3CD6 JUMP JUMPDEST DUP3 PUSH1 0x1F LT PUSH2 0x3C99 JUMPI DUP1 SLOAD DUP6 SSTORE PUSH2 0x3CD6 JUMP JUMPDEST DUP3 DUP1 ADD PUSH1 0x1 ADD DUP6 SSTORE DUP3 ISZERO PUSH2 0x3CD6 JUMPI PUSH1 0x0 MSTORE PUSH1 0x20 PUSH1 0x0 KECCAK256 SWAP2 PUSH1 0x1F ADD PUSH1 0x20 SWAP1 DIV DUP3 ADD JUMPDEST DUP3 DUP2 GT ISZERO PUSH2 0x3CD5 JUMPI DUP3 SLOAD DUP3 SSTORE SWAP2 PUSH1 0x1 ADD SWAP2 SWAP1 PUSH1 0x1 ADD SWAP1 PUSH2 0x3CBA JUMP JUMPDEST JUMPDEST POP SWAP1 POP PUSH2 0x3CE3 SWAP2 SWAP1 PUSH2 0x3DCF JUMP JUMPDEST POP SWAP1 JUMP JUMPDEST PUSH1 0x40 MLOAD DUP1 PUSH1 0x40 ADD PUSH1 0x40 MSTORE DUP1 PUSH1 0x2 SWAP1 PUSH1 0x20 DUP3 MUL DUP1 CALLDATASIZE DUP4 CALLDATACOPY DUP1 DUP3 ADD SWAP2 POP POP SWAP1 POP POP SWAP1 JUMP JUMPDEST DUP3 DUP1 SLOAD PUSH2 0x3D15 SWAP1 PUSH2 0x564D JUMP JUMPDEST SWAP1 PUSH1 0x0 MSTORE PUSH1 0x20 PUSH1 0x0 KECCAK256 SWAP1 PUSH1 0x1F ADD PUSH1 0x20 SWAP1 DIV DUP2 ADD SWAP3 DUP3 PUSH2 0x3D37 JUMPI PUSH1 0x0 DUP6 SSTORE PUSH2 0x3D7E JUMP JUMPDEST DUP3 PUSH1 0x1F LT PUSH2 0x3D50 JUMPI DUP1 MLOAD PUSH1 0xFF NOT AND DUP4 DUP1 ADD OR DUP6 SSTORE PUSH2 0x3D7E JUMP JUMPDEST DUP3 DUP1 ADD PUSH1 0x1 ADD DUP6 SSTORE DUP3 ISZERO PUSH2 0x3D7E JUMPI SWAP2 DUP3 ADD JUMPDEST DUP3 DUP2 GT ISZERO PUSH2 0x3D7D JUMPI DUP3 MLOAD DUP3 SSTORE SWAP2 PUSH1 0x20 ADD SWAP2 SWAP1 PUSH1 0x1 ADD SWAP1 PUSH2 0x3D62 JUMP JUMPDEST JUMPDEST POP SWAP1 POP PUSH2 0x3D8B SWAP2 SWAP1 PUSH2 0x3DCF JUMP JUMPDEST POP SWAP1 JUMP JUMPDEST DUP3 PUSH1 0x2 DUP2 ADD SWAP3 DUP3 ISZERO PUSH2 0x3DBE JUMPI SWAP2 PUSH1 0x20 MUL DUP3 ADD JUMPDEST DUP3 DUP2 GT ISZERO PUSH2 0x3DBD JUMPI DUP3 MLOAD DUP3 SSTORE SWAP2 PUSH1 0x20 ADD SWAP2 SWAP1 PUSH1 0x1 ADD SWAP1 PUSH2 0x3DA2 JUMP JUMPDEST JUMPDEST POP SWAP1 POP PUSH2 0x3DCB SWAP2 SWAP1 PUSH2 0x3DCF JUMP JUMPDEST POP SWAP1 JUMP JUMPDEST JUMPDEST DUP1 DUP3 GT ISZERO PUSH2 0x3DE8 JUMPI PUSH1 0x0 DUP2 PUSH1 0x0 SWAP1 SSTORE POP PUSH1 0x1 ADD PUSH2 0x3DD0 JUMP JUMPDEST POP SWAP1 JUMP JUMPDEST JUMPDEST DUP1 DUP3 GT ISZERO PUSH2 0x3E0C JUMPI PUSH1 0x0 DUP2 DUP2 PUSH2 0x3E03 SWAP2 SWAP1 PUSH2 0x3E10 JUMP JUMPDEST POP PUSH1 0x1 ADD PUSH2 0x3DED JUMP JUMPDEST POP SWAP1 JUMP JUMPDEST POP DUP1 SLOAD PUSH2 0x3E1C SWAP1 PUSH2 0x564D JUMP JUMPDEST PUSH1 0x0 DUP3 SSTORE DUP1 PUSH1 0x1F LT PUSH2 0x3E2E JUMPI POP PUSH2 0x3E4D JUMP JUMPDEST PUSH1 0x1F ADD PUSH1 0x20 SWAP1 DIV SWAP1 PUSH1 0x0 MSTORE PUSH1 0x20 PUSH1 0x0 KECCAK256 SWAP1 DUP2 ADD SWAP1 PUSH2 0x3E4C SWAP2 SWAP1 PUSH2 0x3DCF JUMP JUMPDEST JUMPDEST POP JUMP JUMPDEST PUSH1 0x0 PUSH2 0x3E63 PUSH2 0x3E5E DUP5 PUSH2 0x5330 JUMP JUMPDEST PUSH2 0x52FF JUMP JUMPDEST SWAP1 POP DUP1 DUP4 DUP3 MSTORE PUSH1 0x20 DUP3 ADD SWAP1 POP DUP3 PUSH1 0x0 JUMPDEST DUP6 DUP2 LT ISZERO PUSH2 0x3EA3 JUMPI DUP2 CALLDATALOAD DUP6 ADD PUSH2 0x3E89 DUP9 DUP3 PUSH2 0x3FFA JUMP JUMPDEST DUP5 MSTORE PUSH1 0x20 DUP5 ADD SWAP4 POP PUSH1 0x20 DUP4 ADD SWAP3 POP POP PUSH1 0x1 DUP2 ADD SWAP1 POP PUSH2 0x3E73 JUMP JUMPDEST POP POP POP SWAP4 SWAP3 POP POP POP JUMP JUMPDEST PUSH1 0x0 PUSH2 0x3EC0 PUSH2 0x3EBB DUP5 PUSH2 0x535C JUMP JUMPDEST PUSH2 0x52FF JUMP JUMPDEST SWAP1 POP DUP3 DUP2 MSTORE PUSH1 0x20 DUP2 ADD DUP5 DUP5 DUP5 ADD GT ISZERO PUSH2 0x3ED8 JUMPI PUSH1 0x0 DUP1 REVERT JUMPDEST PUSH2 0x3EE3 DUP5 DUP3 DUP6 PUSH2 0x560B JUMP JUMPDEST POP SWAP4 SWAP3 POP POP POP JUMP JUMPDEST PUSH1 0x0 PUSH2 0x3EFE PUSH2 0x3EF9 DUP5 PUSH2 0x538C JUMP JUMPDEST PUSH2 0x52FF JUMP JUMPDEST SWAP1 POP DUP3 DUP2 MSTORE PUSH1 0x20 DUP2 ADD DUP5 DUP5 DUP5 ADD GT ISZERO PUSH2 0x3F16 JUMPI PUSH1 0x0 DUP1 REVERT JUMPDEST PUSH2 0x3F21 DUP5 DUP3 DUP6 PUSH2 0x560B JUMP JUMPDEST POP SWAP4 SWAP3 POP POP POP JUMP JUMPDEST PUSH1 0x0 DUP2 CALLDATALOAD SWAP1 POP PUSH2 0x3F38 DUP2 PUSH2 0x5795 JUMP JUMPDEST SWAP3 SWAP2 POP POP JUMP JUMPDEST PUSH1 0x0 DUP3 PUSH1 0x1F DUP4 ADD SLT PUSH2 0x3F4F JUMPI PUSH1 0x0 DUP1 REVERT JUMPDEST DUP2 CALLDATALOAD PUSH2 0x3F5F DUP5 DUP3 PUSH1 0x20 DUP7 ADD PUSH2 0x3E50 JUMP JUMPDEST SWAP2 POP POP SWAP3 SWAP2 POP POP JUMP JUMPDEST PUSH1 0x0 DUP2 SWAP1 POP DUP3 PUSH1 0x20 PUSH1 0x2 MUL DUP3 ADD GT ISZERO PUSH2 0x3F80 JUMPI PUSH1 0x0 DUP1 REVERT JUMPDEST SWAP3 SWAP2 POP POP JUMP JUMPDEST PUSH1 0x0 DUP1 DUP4 PUSH1 0x1F DUP5 ADD SLT PUSH2 0x3F98 JUMPI PUSH1 0x0 DUP1 REVERT JUMPDEST DUP3 CALLDATALOAD SWAP1 POP PUSH8 0xFFFFFFFFFFFFFFFF DUP2 GT ISZERO PUSH2 0x3FB1 JUMPI PUSH1 0x0 DUP1 REVERT JUMPDEST PUSH1 0x20 DUP4 ADD SWAP2 POP DUP4 PUSH1 0x1 DUP3 MUL DUP4 ADD GT ISZERO PUSH2 0x3FC9 JUMPI PUSH1 0x0 DUP1 REVERT JUMPDEST SWAP3 POP SWAP3 SWAP1 POP JUMP JUMPDEST PUSH1 0x0 DUP3 PUSH1 0x1F DUP4 ADD SLT PUSH2 0x3FE1 JUMPI PUSH1 0x0 DUP1 REVERT JUMPDEST DUP2 CALLDATALOAD PUSH2 0x3FF1 DUP5 DUP3 PUSH1 0x20 DUP7 ADD PUSH2 0x3EAD JUMP JUMPDEST SWAP2 POP POP SWAP3 SWAP2 POP POP JUMP JUMPDEST PUSH1 0x0 DUP3 PUSH1 0x1F DUP4 ADD SLT PUSH2 0x400B JUMPI PUSH1 0x0 DUP1 REVERT JUMPDEST DUP2 CALLDATALOAD PUSH2 0x401B DUP5 DUP3 PUSH1 0x20 DUP7 ADD PUSH2 0x3EEB JUMP JUMPDEST SWAP2 POP POP SWAP3 SWAP2 POP POP JUMP JUMPDEST PUSH1 0x0 DUP2 CALLDATALOAD SWAP1 POP PUSH2 0x4033 DUP2 PUSH2 0x57AC JUMP JUMPDEST SWAP3 SWAP2 POP POP JUMP JUMPDEST PUSH1 0x0 PUSH1 0x20 DUP3 DUP5 SUB SLT ISZERO PUSH2 0x404B JUMPI PUSH1 0x0 DUP1 REVERT JUMPDEST PUSH1 0x0 PUSH2 0x4059 DUP5 DUP3 DUP6 ADD PUSH2 0x3F29 JUMP JUMPDEST SWAP2 POP POP SWAP3 SWAP2 POP POP JUMP JUMPDEST PUSH1 0x0 DUP1 PUSH1 0x40 DUP4 DUP6 SUB SLT ISZERO PUSH2 0x4075 JUMPI PUSH1 0x0 DUP1 REVERT JUMPDEST PUSH1 0x0 PUSH2 0x4083 DUP6 DUP3 DUP7 ADD PUSH2 0x3F29 JUMP JUMPDEST SWAP3 POP POP PUSH1 0x20 PUSH2 0x4094 DUP6 DUP3 DUP7 ADD PUSH2 0x4024 JUMP JUMPDEST SWAP2 POP POP SWAP3 POP SWAP3 SWAP1 POP JUMP JUMPDEST PUSH1 0x0 DUP1 PUSH1 0x0 DUP1 PUSH1 0x0 DUP1 PUSH1 0x0 PUSH1 0xC0 DUP9 DUP11 SUB SLT ISZERO PUSH2 0x40B9 JUMPI PUSH1 0x0 DUP1 REVERT JUMPDEST PUSH1 0x0 DUP9 ADD CALLDATALOAD PUSH8 0xFFFFFFFFFFFFFFFF DUP2 GT ISZERO PUSH2 0x40D3 JUMPI PUSH1 0x0 DUP1 REVERT JUMPDEST PUSH2 0x40DF DUP11 DUP3 DUP12 ADD PUSH2 0x3F86 JUMP JUMPDEST SWAP8 POP SWAP8 POP POP PUSH1 0x20 DUP9 ADD CALLDATALOAD PUSH8 0xFFFFFFFFFFFFFFFF DUP2 GT ISZERO PUSH2 0x40FE JUMPI PUSH1 0x0 DUP1 REVERT JUMPDEST PUSH2 0x410A DUP11 DUP3 DUP12 ADD PUSH2 0x3F86 JUMP JUMPDEST SWAP6 POP SWAP6 POP POP PUSH1 0x40 PUSH2 0x411D DUP11 DUP3 DUP12 ADD PUSH2 0x4024 JUMP JUMPDEST SWAP4 POP POP PUSH1 0x60 PUSH2 0x412E DUP11 DUP3 DUP12 ADD PUSH2 0x3F68 JUMP JUMPDEST SWAP3 POP POP PUSH1 0xA0 PUSH2 0x413F DUP11 DUP3 DUP12 ADD PUSH2 0x4024 JUMP JUMPDEST SWAP2 POP POP SWAP3 SWAP6 SWAP9 SWAP2 SWAP5 SWAP8 POP SWAP3 SWAP6 POP JUMP JUMPDEST PUSH1 0x0 PUSH1 0x20 DUP3 DUP5 SUB SLT ISZERO PUSH2 0x4160 JUMPI PUSH1 0x0 DUP1 REVERT JUMPDEST PUSH1 0x0 DUP3 ADD CALLDATALOAD PUSH8 0xFFFFFFFFFFFFFFFF DUP2 GT ISZERO PUSH2 0x417A JUMPI PUSH1 0x0 DUP1 REVERT JUMPDEST PUSH2 0x4186 DUP5 DUP3 DUP6 ADD PUSH2 0x3FD0 JUMP JUMPDEST SWAP2 POP POP SWAP3 SWAP2 POP POP JUMP JUMPDEST PUSH1 0x0 DUP1 PUSH1 0x0 DUP1 PUSH1 0x0 DUP1 PUSH1 0x0 PUSH1 0xE0 DUP9 DUP11 SUB SLT ISZERO PUSH2 0x41AA JUMPI PUSH1 0x0 DUP1 REVERT JUMPDEST PUSH1 0x0 DUP9 ADD CALLDATALOAD PUSH8 0xFFFFFFFFFFFFFFFF DUP2 GT ISZERO PUSH2 0x41C4 JUMPI PUSH1 0x0 DUP1 REVERT JUMPDEST PUSH2 0x41D0 DUP11 DUP3 DUP12 ADD PUSH2 0x3FFA JUMP JUMPDEST SWAP8 POP POP PUSH1 0x20 DUP9 ADD CALLDATALOAD PUSH8 0xFFFFFFFFFFFFFFFF DUP2 GT ISZERO PUSH2 0x41ED JUMPI PUSH1 0x0 DUP1 REVERT JUMPDEST PUSH2 0x41F9 DUP11 DUP3 DUP12 ADD PUSH2 0x3FFA JUMP JUMPDEST SWAP7 POP POP PUSH1 0x40 PUSH2 0x420A DUP11 DUP3 DUP12 ADD PUSH2 0x4024 JUMP JUMPDEST SWAP6 POP POP PUSH1 0x60 PUSH2 0x421B DUP11 DUP3 DUP12 ADD PUSH2 0x4024 JUMP JUMPDEST SWAP5 POP POP PUSH1 0x80 DUP9 ADD CALLDATALOAD PUSH8 0xFFFFFFFFFFFFFFFF DUP2 GT ISZERO PUSH2 0x4238 JUMPI PUSH1 0x0 DUP1 REVERT JUMPDEST PUSH2 0x4244 DUP11 DUP3 DUP12 ADD PUSH2 0x3F3E JUMP JUMPDEST SWAP4 POP POP PUSH1 0xA0 PUSH2 0x4255 DUP11 DUP3 DUP12 ADD PUSH2 0x4024 JUMP JUMPDEST SWAP3 POP POP PUSH1 0xC0 PUSH2 0x4266 DUP11 DUP3 DUP12 ADD PUSH2 0x4024 JUMP JUMPDEST SWAP2 POP POP SWAP3 SWAP6 SWAP9 SWAP2 SWAP5 SWAP8 POP SWAP3 SWAP6 POP JUMP JUMPDEST PUSH1 0x0 PUSH1 0x20 DUP3 DUP5 SUB SLT ISZERO PUSH2 0x4287 JUMPI PUSH1 0x0 DUP1 REVERT JUMPDEST PUSH1 0x0 PUSH2 0x4295 DUP5 DUP3 DUP6 ADD PUSH2 0x4024 JUMP JUMPDEST SWAP2 POP POP SWAP3 SWAP2 POP POP JUMP JUMPDEST PUSH1 0x0 DUP1 PUSH1 0x40 DUP4 DUP6 SUB SLT ISZERO PUSH2 0x42B1 JUMPI PUSH1 0x0 DUP1 REVERT JUMPDEST PUSH1 0x0 PUSH2 0x42BF DUP6 DUP3 DUP7 ADD PUSH2 0x4024 JUMP JUMPDEST SWAP3 POP POP PUSH1 0x20 DUP4 ADD CALLDATALOAD PUSH8 0xFFFFFFFFFFFFFFFF DUP2 GT ISZERO PUSH2 0x42DC JUMPI PUSH1 0x0 DUP1 REVERT JUMPDEST PUSH2 0x42E8 DUP6 DUP3 DUP7 ADD PUSH2 0x3FD0 JUMP JUMPDEST SWAP2 POP POP SWAP3 POP SWAP3 SWAP1 POP JUMP JUMPDEST PUSH1 0x0 DUP1 PUSH1 0x0 PUSH1 0x60 DUP5 DUP7 SUB SLT ISZERO PUSH2 0x4307 JUMPI PUSH1 0x0 DUP1 REVERT JUMPDEST PUSH1 0x0 PUSH2 0x4315 DUP7 DUP3 DUP8 ADD PUSH2 0x4024 JUMP JUMPDEST SWAP4 POP POP PUSH1 0x20 PUSH2 0x4326 DUP7 DUP3 DUP8 ADD PUSH2 0x4024 JUMP JUMPDEST SWAP3 POP POP PUSH1 0x40 PUSH2 0x4337 DUP7 DUP3 DUP8 ADD PUSH2 0x4024 JUMP JUMPDEST SWAP2 POP POP SWAP3 POP SWAP3 POP SWAP3 JUMP JUMPDEST PUSH1 0x0 PUSH2 0x434D DUP4 DUP4 PUSH2 0x439D JUMP JUMPDEST PUSH1 0x20 DUP4 ADD SWAP1 POP SWAP3 SWAP2 POP POP JUMP JUMPDEST PUSH1 0x0 PUSH2 0x4365 DUP4 DUP4 PUSH2 0x44EC JUMP JUMPDEST PUSH1 0x40 DUP4 ADD SWAP1 POP SWAP3 SWAP2 POP POP JUMP JUMPDEST PUSH1 0x0 PUSH2 0x437D DUP4 DUP4 PUSH2 0x4692 JUMP JUMPDEST SWAP1 POP SWAP3 SWAP2 POP POP JUMP JUMPDEST PUSH1 0x0 PUSH2 0x4391 DUP4 DUP4 PUSH2 0x4CB4 JUMP JUMPDEST PUSH1 0x20 DUP4 ADD SWAP1 POP SWAP3 SWAP2 POP POP JUMP JUMPDEST PUSH2 0x43A6 DUP2 PUSH2 0x55C3 JUMP JUMPDEST DUP3 MSTORE POP POP JUMP JUMPDEST PUSH2 0x43B5 DUP2 PUSH2 0x55C3 JUMP JUMPDEST DUP3 MSTORE POP POP JUMP JUMPDEST PUSH1 0x0 PUSH2 0x43C6 DUP3 PUSH2 0x540B JUMP JUMPDEST PUSH2 0x43D0 DUP2 DUP6 PUSH2 0x5481 JUMP JUMPDEST SWAP4 POP PUSH2 0x43DB DUP4 PUSH2 0x53BC JUMP JUMPDEST DUP1 PUSH1 0x0 JUMPDEST DUP4 DUP2 LT ISZERO PUSH2 0x440C JUMPI DUP2 MLOAD PUSH2 0x43F3 DUP9 DUP3 PUSH2 0x4341 JUMP JUMPDEST SWAP8 POP PUSH2 0x43FE DUP4 PUSH2 0x544D JUMP JUMPDEST SWAP3 POP POP PUSH1 0x1 DUP2 ADD SWAP1 POP PUSH2 0x43DF JUMP JUMPDEST POP DUP6 SWAP4 POP POP POP POP SWAP3 SWAP2 POP POP JUMP JUMPDEST PUSH1 0x0 PUSH2 0x4424 DUP3 PUSH2 0x5416 JUMP JUMPDEST PUSH2 0x442E DUP2 DUP6 PUSH2 0x5492 JUMP JUMPDEST SWAP4 POP PUSH2 0x4439 DUP4 PUSH2 0x53CC JUMP JUMPDEST DUP1 PUSH1 0x0 JUMPDEST DUP4 DUP2 LT ISZERO PUSH2 0x446A JUMPI DUP2 MLOAD PUSH2 0x4451 DUP9 DUP3 PUSH2 0x4359 JUMP JUMPDEST SWAP8 POP PUSH2 0x445C DUP4 PUSH2 0x545A JUMP JUMPDEST SWAP3 POP POP PUSH1 0x1 DUP2 ADD SWAP1 POP PUSH2 0x443D JUMP JUMPDEST POP DUP6 SWAP4 POP POP POP POP SWAP3 SWAP2 POP POP JUMP JUMPDEST PUSH1 0x0 PUSH2 0x4482 DUP3 PUSH2 0x5421 JUMP JUMPDEST PUSH2 0x448C DUP2 DUP6 PUSH2 0x54A3 JUMP JUMPDEST SWAP4 POP DUP4 PUSH1 0x20 DUP3 MUL DUP6 ADD PUSH2 0x449E DUP6 PUSH2 0x53DC JUMP JUMPDEST DUP1 PUSH1 0x0 JUMPDEST DUP6 DUP2 LT ISZERO PUSH2 0x44DA JUMPI DUP5 DUP5 SUB DUP10 MSTORE DUP2 MLOAD PUSH2 0x44BB DUP6 DUP3 PUSH2 0x4371 JUMP JUMPDEST SWAP5 POP PUSH2 0x44C6 DUP4 PUSH2 0x5467 JUMP JUMPDEST SWAP3 POP PUSH1 0x20 DUP11 ADD SWAP10 POP POP PUSH1 0x1 DUP2 ADD SWAP1 POP PUSH2 0x44A2 JUMP JUMPDEST POP DUP3 SWAP8 POP DUP8 SWAP6 POP POP POP POP POP POP SWAP3 SWAP2 POP POP JUMP JUMPDEST PUSH2 0x44F5 DUP2 PUSH2 0x542C JUMP JUMPDEST PUSH2 0x44FF DUP2 DUP5 PUSH2 0x54B4 JUMP JUMPDEST SWAP3 POP PUSH2 0x450A DUP3 PUSH2 0x53EC JUMP JUMPDEST DUP1 PUSH1 0x0 JUMPDEST DUP4 DUP2 LT ISZERO PUSH2 0x453B JUMPI DUP2 MLOAD PUSH2 0x4522 DUP8 DUP3 PUSH2 0x4385 JUMP JUMPDEST SWAP7 POP PUSH2 0x452D DUP4 PUSH2 0x5474 JUMP JUMPDEST SWAP3 POP POP PUSH1 0x1 DUP2 ADD SWAP1 POP PUSH2 0x450E JUMP JUMPDEST POP POP POP POP POP POP JUMP JUMPDEST PUSH2 0x454C DUP2 PUSH2 0x542C JUMP JUMPDEST PUSH2 0x4556 DUP2 DUP5 PUSH2 0x54BF JUMP JUMPDEST SWAP3 POP PUSH2 0x4561 DUP3 PUSH2 0x53EC JUMP JUMPDEST DUP1 PUSH1 0x0 JUMPDEST DUP4 DUP2 LT ISZERO PUSH2 0x4592 JUMPI DUP2 MLOAD PUSH2 0x4579 DUP8 DUP3 PUSH2 0x4385 JUMP JUMPDEST SWAP7 POP PUSH2 0x4584 DUP4 PUSH2 0x5474 JUMP JUMPDEST SWAP3 POP POP PUSH1 0x1 DUP2 ADD SWAP1 POP PUSH2 0x4565 JUMP JUMPDEST POP POP POP POP POP POP JUMP JUMPDEST PUSH2 0x45A3 DUP2 PUSH2 0x55D5 JUMP JUMPDEST DUP3 MSTORE POP POP JUMP JUMPDEST PUSH1 0x0 PUSH2 0x45B4 DUP3 PUSH2 0x5437 JUMP JUMPDEST PUSH2 0x45BE DUP2 DUP6 PUSH2 0x54CA JUMP JUMPDEST SWAP4 POP PUSH2 0x45CE DUP2 DUP6 PUSH1 0x20 DUP7 ADD PUSH2 0x561A JUMP JUMPDEST PUSH2 0x45D7 DUP2 PUSH2 0x5784 JUMP JUMPDEST DUP5 ADD SWAP2 POP POP SWAP3 SWAP2 POP POP JUMP JUMPDEST PUSH1 0x0 PUSH2 0x45ED DUP3 PUSH2 0x5437 JUMP JUMPDEST PUSH2 0x45F7 DUP2 DUP6 PUSH2 0x54DB JUMP JUMPDEST SWAP4 POP PUSH2 0x4607 DUP2 DUP6 PUSH1 0x20 DUP7 ADD PUSH2 0x561A JUMP JUMPDEST DUP1 DUP5 ADD SWAP2 POP POP SWAP3 SWAP2 POP POP JUMP JUMPDEST PUSH1 0x0 DUP2 SLOAD PUSH2 0x4620 DUP2 PUSH2 0x564D JUMP JUMPDEST PUSH2 0x462A DUP2 DUP7 PUSH2 0x54DB JUMP JUMPDEST SWAP5 POP PUSH1 0x1 DUP3 AND PUSH1 0x0 DUP2 EQ PUSH2 0x4645 JUMPI PUSH1 0x1 DUP2 EQ PUSH2 0x4656 JUMPI PUSH2 0x4689 JUMP JUMPDEST PUSH1 0xFF NOT DUP4 AND DUP7 MSTORE DUP2 DUP7 ADD SWAP4 POP PUSH2 0x4689 JUMP JUMPDEST PUSH2 0x465F DUP6 PUSH2 0x53F6 JUMP JUMPDEST PUSH1 0x0 JUMPDEST DUP4 DUP2 LT ISZERO PUSH2 0x4681 JUMPI DUP2 SLOAD DUP2 DUP10 ADD MSTORE PUSH1 0x1 DUP3 ADD SWAP2 POP PUSH1 0x20 DUP2 ADD SWAP1 POP PUSH2 0x4662 JUMP JUMPDEST DUP4 DUP9 ADD SWAP6 POP POP POP JUMPDEST POP POP POP SWAP3 SWAP2 POP POP JUMP JUMPDEST PUSH1 0x0 PUSH2 0x469D DUP3 PUSH2 0x5442 JUMP JUMPDEST PUSH2 0x46A7 DUP2 DUP6 PUSH2 0x54E6 JUMP JUMPDEST SWAP4 POP PUSH2 0x46B7 DUP2 DUP6 PUSH1 0x20 DUP7 ADD PUSH2 0x561A JUMP JUMPDEST PUSH2 0x46C0 DUP2 PUSH2 0x5784 JUMP JUMPDEST DUP5 ADD SWAP2 POP POP SWAP3 SWAP2 POP POP JUMP JUMPDEST PUSH1 0x0 PUSH2 0x46D6 DUP3 PUSH2 0x5442 JUMP JUMPDEST PUSH2 0x46E0 DUP2 DUP6 PUSH2 0x54F7 JUMP JUMPDEST SWAP4 POP PUSH2 0x46F0 DUP2 DUP6 PUSH1 0x20 DUP7 ADD PUSH2 0x561A JUMP JUMPDEST PUSH2 0x46F9 DUP2 PUSH2 0x5784 JUMP JUMPDEST DUP5 ADD SWAP2 POP POP SWAP3 SWAP2 POP POP JUMP JUMPDEST PUSH1 0x0 PUSH2 0x4711 PUSH1 0x2A DUP4 PUSH2 0x54F7 JUMP JUMPDEST SWAP2 POP PUSH32 0x57616974206174206C65617374203120686F7572206166746572206465637279 PUSH1 0x0 DUP4 ADD MSTORE PUSH32 0x7074696F6E2074696D6500000000000000000000000000000000000000000000 PUSH1 0x20 DUP4 ADD MSTORE PUSH1 0x40 DUP3 ADD SWAP1 POP SWAP2 SWAP1 POP JUMP JUMPDEST PUSH1 0x0 PUSH2 0x4777 PUSH1 0x25 DUP4 PUSH2 0x54F7 JUMP JUMPDEST SWAP2 POP PUSH32 0x43616E6E6F74206578697420776974682070656E64696E672066757475726520 PUSH1 0x0 DUP4 ADD MSTORE PUSH32 0x766F746573000000000000000000000000000000000000000000000000000000 PUSH1 0x20 DUP4 ADD MSTORE PUSH1 0x40 DUP3 ADD SWAP1 POP SWAP2 SWAP1 POP JUMP JUMPDEST PUSH1 0x0 PUSH2 0x47DD PUSH1 0x14 DUP4 PUSH2 0x54F7 JUMP JUMPDEST SWAP2 POP PUSH32 0x4E6F7420616E2061637469766520686F6C646572000000000000000000000000 PUSH1 0x0 DUP4 ADD MSTORE PUSH1 0x20 DUP3 ADD SWAP1 POP SWAP2 SWAP1 POP JUMP JUMPDEST PUSH1 0x0 PUSH2 0x481D PUSH1 0x13 DUP4 PUSH2 0x54F7 JUMP JUMPDEST SWAP2 POP PUSH32 0x4E6F207265776172647320746F20636C61696D00000000000000000000000000 PUSH1 0x0 DUP4 ADD MSTORE PUSH1 0x20 DUP3 ADD SWAP1 POP SWAP2 SWAP1 POP JUMP JUMPDEST PUSH1 0x0 PUSH2 0x485D PUSH1 0x23 DUP4 PUSH2 0x54F7 JUMP JUMPDEST SWAP2 POP PUSH32 0x4163636F756E7420616C72656164792061207265676973746572656420686F6C PUSH1 0x0 DUP4 ADD MSTORE PUSH32 0x6465720000000000000000000000000000000000000000000000000000000000 PUSH1 0x20 DUP4 ADD MSTORE PUSH1 0x40 DUP3 ADD SWAP1 POP SWAP2 SWAP1 POP JUMP JUMPDEST PUSH1 0x0 PUSH2 0x48C3 PUSH1 0x17 DUP4 PUSH2 0x54F7 JUMP JUMPDEST SWAP2 POP PUSH32 0x456C656374696F6E20646F6573206E6F74206578697374000000000000000000 PUSH1 0x0 DUP4 ADD MSTORE PUSH1 0x20 DUP3 ADD SWAP1 POP SWAP2 SWAP1 POP JUMP JUMPDEST PUSH1 0x0 PUSH2 0x4903 PUSH1 0x13 DUP4 PUSH2 0x54F7 JUMP JUMPDEST SWAP2 POP PUSH32 0x4E6F20736861726573207375626D697474656400000000000000000000000000 PUSH1 0x0 DUP4 ADD MSTORE PUSH1 0x20 DUP3 ADD SWAP1 POP SWAP2 SWAP1 POP JUMP JUMPDEST PUSH1 0x0 PUSH2 0x4943 PUSH1 0x1C DUP4 PUSH2 0x54F7 JUMP JUMPDEST SWAP2 POP PUSH32 0x5468726573686F6C64206D757374206265206174206C65617374203200000000 PUSH1 0x0 DUP4 ADD MSTORE PUSH1 0x20 DUP3 ADD SWAP1 POP SWAP2 SWAP1 POP JUMP JUMPDEST PUSH1 0x0 PUSH2 0x4983 PUSH1 0x25 DUP4 PUSH2 0x54F7 JUMP JUMPDEST SWAP2 POP PUSH32 0x44656372797074696F6E2074696D65206D75737420626520696E207468652066 PUSH1 0x0 DUP4 ADD MSTORE PUSH32 0x7574757265000000000000000000000000000000000000000000000000000000 PUSH1 0x20 DUP4 ADD MSTORE PUSH1 0x40 DUP3 ADD SWAP1 POP SWAP2 SWAP1 POP JUMP JUMPDEST PUSH1 0x0 PUSH2 0x49E9 PUSH1 0x21 DUP4 PUSH2 0x54F7 JUMP JUMPDEST SWAP2 POP PUSH32 0x43616C6C6572206973206E6F742061207265676973746572656420686F6C6465 PUSH1 0x0 DUP4 ADD MSTORE PUSH32 0x7200000000000000000000000000000000000000000000000000000000000000 PUSH1 0x20 DUP4 ADD MSTORE PUSH1 0x40 DUP3 ADD SWAP1 POP SWAP2 SWAP1 POP JUMP JUMPDEST PUSH1 0x0 PUSH2 0x4A4F PUSH1 0x25 DUP4 PUSH2 0x54F7 JUMP JUMPDEST SWAP2 POP PUSH32 0x4D757374207375626D69742073686172657320666F7220616C6C207061737420 PUSH1 0x0 DUP4 ADD MSTORE PUSH32 0x766F746573000000000000000000000000000000000000000000000000000000 PUSH1 0x20 DUP4 ADD MSTORE PUSH1 0x40 DUP3 ADD SWAP1 POP SWAP2 SWAP1 POP JUMP JUMPDEST PUSH1 0x0 PUSH2 0x4AB5 PUSH1 0x1B DUP4 PUSH2 0x54F7 JUMP JUMPDEST SWAP2 POP PUSH32 0x44656372797074696F6E2074696D65206E6F7420726561636865640000000000 PUSH1 0x0 DUP4 ADD MSTORE PUSH1 0x20 DUP3 ADD SWAP1 POP SWAP2 SWAP1 POP JUMP JUMPDEST PUSH1 0x0 PUSH2 0x4AF5 PUSH1 0x21 DUP4 PUSH2 0x54F7 JUMP JUMPDEST SWAP2 POP PUSH32 0x4163636F756E742069736E27742061207265676973746572656420686F6C6465 PUSH1 0x0 DUP4 ADD MSTORE PUSH32 0x7200000000000000000000000000000000000000000000000000000000000000 PUSH1 0x20 DUP4 ADD MSTORE PUSH1 0x40 DUP3 ADD SWAP1 POP SWAP2 SWAP1 POP JUMP JUMPDEST PUSH1 0x0 PUSH2 0x4B5B PUSH1 0x20 DUP4 PUSH2 0x54F7 JUMP JUMPDEST SWAP2 POP PUSH32 0x486F6C64657220686173207375626D6974746564207468656972207368617265 PUSH1 0x0 DUP4 ADD MSTORE PUSH1 0x20 DUP3 ADD SWAP1 POP SWAP2 SWAP1 POP JUMP JUMPDEST PUSH1 0x0 PUSH2 0x4B9B PUSH1 0x1B DUP4 PUSH2 0x54F7 JUMP JUMPDEST SWAP2 POP PUSH32 0x5265776172647320616C72656164792064697374726962757465640000000000 PUSH1 0x0 DUP4 ADD MSTORE PUSH1 0x20 DUP3 ADD SWAP1 POP SWAP2 SWAP1 POP JUMP JUMPDEST PUSH1 0x0 PUSH2 0x4BDB PUSH1 0x29 DUP4 PUSH2 0x54F7 JUMP JUMPDEST SWAP2 POP PUSH32 0x5468726573686F6C642063616E6E6F7420657863656564206E756D626572206F PUSH1 0x0 DUP4 ADD MSTORE PUSH32 0x6620686F6C646572730000000000000000000000000000000000000000000000 PUSH1 0x20 DUP4 ADD MSTORE PUSH1 0x40 DUP3 ADD SWAP1 POP SWAP2 SWAP1 POP JUMP JUMPDEST PUSH1 0x0 PUSH2 0x4C41 PUSH1 0x12 DUP4 PUSH2 0x54F7 JUMP JUMPDEST SWAP2 POP PUSH32 0x4E6F7420656E6F75676820686F6C646572730000000000000000000000000000 PUSH1 0x0 DUP4 ADD MSTORE PUSH1 0x20 DUP3 ADD SWAP1 POP SWAP2 SWAP1 POP JUMP JUMPDEST PUSH1 0x0 PUSH2 0x4C81 PUSH1 0x13 DUP4 PUSH2 0x54F7 JUMP JUMPDEST SWAP2 POP PUSH32 0x566F746520646F6573206E6F7420657869737400000000000000000000000000 PUSH1 0x0 DUP4 ADD MSTORE PUSH1 0x20 DUP3 ADD SWAP1 POP SWAP2 SWAP1 POP JUMP JUMPDEST PUSH2 0x4CBD DUP2 PUSH2 0x5601 JUMP JUMPDEST DUP3 MSTORE POP POP JUMP JUMPDEST PUSH2 0x4CCC DUP2 PUSH2 0x5601 JUMP JUMPDEST DUP3 MSTORE POP POP JUMP JUMPDEST PUSH1 0x0 PUSH2 0x4CDE DUP3 DUP5 PUSH2 0x45E2 JUMP JUMPDEST SWAP2 POP DUP2 SWAP1 POP SWAP3 SWAP2 POP POP JUMP JUMPDEST PUSH1 0x0 PUSH2 0x4CF5 DUP3 DUP5 PUSH2 0x4613 JUMP JUMPDEST SWAP2 POP DUP2 SWAP1 POP SWAP3 SWAP2 POP POP JUMP JUMPDEST PUSH1 0x0 PUSH1 0x20 DUP3 ADD SWAP1 POP PUSH2 0x4D15 PUSH1 0x0 DUP4 ADD DUP5 PUSH2 0x43AC JUMP JUMPDEST SWAP3 SWAP2 POP POP JUMP JUMPDEST PUSH1 0x0 PUSH1 0x20 DUP3 ADD SWAP1 POP DUP2 DUP2 SUB PUSH1 0x0 DUP4 ADD MSTORE PUSH2 0x4D35 DUP2 DUP5 PUSH2 0x43BB JUMP JUMPDEST SWAP1 POP SWAP3 SWAP2 POP POP JUMP JUMPDEST PUSH1 0x0 PUSH1 0x40 DUP3 ADD SWAP1 POP DUP2 DUP2 SUB PUSH1 0x0 DUP4 ADD MSTORE PUSH2 0x4D57 DUP2 DUP6 PUSH2 0x43BB JUMP JUMPDEST SWAP1 POP DUP2 DUP2 SUB PUSH1 0x20 DUP4 ADD MSTORE PUSH2 0x4D6B DUP2 DUP5 PUSH2 0x4419 JUMP JUMPDEST SWAP1 POP SWAP4 SWAP3 POP POP POP JUMP JUMPDEST PUSH1 0x0 PUSH1 0x40 DUP3 ADD SWAP1 POP PUSH2 0x4D89 PUSH1 0x0 DUP4 ADD DUP5 PUSH2 0x4543 JUMP JUMPDEST SWAP3 SWAP2 POP POP JUMP JUMPDEST PUSH1 0x0 PUSH1 0x20 DUP3 ADD SWAP1 POP PUSH2 0x4DA4 PUSH1 0x0 DUP4 ADD DUP5 PUSH2 0x459A JUMP JUMPDEST SWAP3 SWAP2 POP POP JUMP JUMPDEST PUSH1 0x0 PUSH1 0x20 DUP3 ADD SWAP1 POP DUP2 DUP2 SUB PUSH1 0x0 DUP4 ADD MSTORE PUSH2 0x4DC4 DUP2 DUP5 PUSH2 0x45A9 JUMP JUMPDEST SWAP1 POP SWAP3 SWAP2 POP POP JUMP JUMPDEST PUSH1 0x0 PUSH1 0xA0 DUP3 ADD SWAP1 POP DUP2 DUP2 SUB PUSH1 0x0 DUP4 ADD MSTORE PUSH2 0x4DE6 DUP2 DUP9 PUSH2 0x45A9 JUMP JUMPDEST SWAP1 POP PUSH2 0x4DF5 PUSH1 0x20 DUP4 ADD DUP8 PUSH2 0x43AC JUMP JUMPDEST PUSH2 0x4E02 PUSH1 0x40 DUP4 ADD DUP7 PUSH2 0x4CC3 JUMP JUMPDEST PUSH2 0x4E0F PUSH1 0x60 DUP4 ADD DUP6 PUSH2 0x459A JUMP JUMPDEST PUSH2 0x4E1C PUSH1 0x80 DUP4 ADD DUP5 PUSH2 0x4CC3 JUMP JUMPDEST SWAP7 SWAP6 POP POP POP POP POP POP JUMP JUMPDEST PUSH1 0x0 PUSH1 0xC0 DUP3 ADD SWAP1 POP DUP2 DUP2 SUB PUSH1 0x0 DUP4 ADD MSTORE PUSH2 0x4E40 DUP2 DUP9 PUSH2 0x45A9 JUMP JUMPDEST SWAP1 POP DUP2 DUP2 SUB PUSH1 0x20 DUP4 ADD MSTORE PUSH2 0x4E54 DUP2 DUP8 PUSH2 0x45A9 JUMP JUMPDEST SWAP1 POP PUSH2 0x4E63 PUSH1 0x40 DUP4 ADD DUP7 PUSH2 0x4CC3 JUMP JUMPDEST PUSH2 0x4E70 PUSH1 0x60 DUP4 ADD DUP6 PUSH2 0x4543 JUMP JUMPDEST PUSH2 0x4E7D PUSH1 0xA0 DUP4 ADD DUP5 PUSH2 0x4CC3 JUMP JUMPDEST SWAP7 SWAP6 POP POP POP POP POP POP JUMP JUMPDEST PUSH1 0x0 PUSH1 0xE0 DUP3 ADD SWAP1 POP DUP2 DUP2 SUB PUSH1 0x0 DUP4 ADD MSTORE PUSH2 0x4EA1 DUP2 DUP11 PUSH2 0x45A9 JUMP JUMPDEST SWAP1 POP DUP2 DUP2 SUB PUSH1 0x20 DUP4 ADD MSTORE PUSH2 0x4EB5 DUP2 DUP10 PUSH2 0x45A9 JUMP JUMPDEST SWAP1 POP PUSH2 0x4EC4 PUSH1 0x40 DUP4 ADD DUP9 PUSH2 0x4CC3 JUMP JUMPDEST PUSH2 0x4ED1 PUSH1 0x60 DUP4 ADD DUP8 PUSH2 0x459A JUMP JUMPDEST PUSH2 0x4EDE PUSH1 0x80 DUP4 ADD DUP7 PUSH2 0x4CC3 JUMP JUMPDEST PUSH2 0x4EEB PUSH1 0xA0 DUP4 ADD DUP6 PUSH2 0x459A JUMP JUMPDEST PUSH2 0x4EF8 PUSH1 0xC0 DUP4 ADD DUP5 PUSH2 0x4CC3 JUMP JUMPDEST SWAP9 SWAP8 POP POP POP POP POP POP POP POP JUMP JUMPDEST PUSH1 0x0 PUSH1 0x20 DUP3 ADD SWAP1 POP DUP2 DUP2 SUB PUSH1 0x0 DUP4 ADD MSTORE PUSH2 0x4F1D DUP2 PUSH2 0x4704 JUMP JUMPDEST SWAP1 POP SWAP2 SWAP1 POP JUMP JUMPDEST PUSH1 0x0 PUSH1 0x20 DUP3 ADD SWAP1 POP DUP2 DUP2 SUB PUSH1 0x0 DUP4 ADD MSTORE PUSH2 0x4F3D DUP2 PUSH2 0x476A JUMP JUMPDEST SWAP1 POP SWAP2 SWAP1 POP JUMP JUMPDEST PUSH1 0x0 PUSH1 0x20 DUP3 ADD SWAP1 POP DUP2 DUP2 SUB PUSH1 0x0 DUP4 ADD MSTORE PUSH2 0x4F5D DUP2 PUSH2 0x47D0 JUMP JUMPDEST SWAP1 POP SWAP2 SWAP1 POP JUMP JUMPDEST PUSH1 0x0 PUSH1 0x20 DUP3 ADD SWAP1 POP DUP2 DUP2 SUB PUSH1 0x0 DUP4 ADD MSTORE PUSH2 0x4F7D DUP2 PUSH2 0x4810 JUMP JUMPDEST SWAP1 POP SWAP2 SWAP1 POP JUMP JUMPDEST PUSH1 0x0 PUSH1 0x20 DUP3 ADD SWAP1 POP DUP2 DUP2 SUB PUSH1 0x0 DUP4 ADD MSTORE PUSH2 0x4F9D DUP2 PUSH2 0x4850 JUMP JUMPDEST SWAP1 POP SWAP2 SWAP1 POP JUMP JUMPDEST PUSH1 0x0 PUSH1 0x20 DUP3 ADD SWAP1 POP DUP2 DUP2 SUB PUSH1 0x0 DUP4 ADD MSTORE PUSH2 0x4FBD DUP2 PUSH2 0x48B6 JUMP JUMPDEST SWAP1 POP SWAP2 SWAP1 POP JUMP JUMPDEST PUSH1 0x0 PUSH1 0x20 DUP3 ADD SWAP1 POP DUP2 DUP2 SUB PUSH1 0x0 DUP4 ADD MSTORE PUSH2 0x4FDD DUP2 PUSH2 0x48F6 JUMP JUMPDEST SWAP1 POP SWAP2 SWAP1 POP JUMP JUMPDEST PUSH1 0x0 PUSH1 0x20 DUP3 ADD SWAP1 POP DUP2 DUP2 SUB PUSH1 0x0 DUP4 ADD MSTORE PUSH2 0x4FFD DUP2 PUSH2 0x4936 JUMP JUMPDEST SWAP1 POP SWAP2 SWAP1 POP JUMP JUMPDEST PUSH1 0x0 PUSH1 0x20 DUP3 ADD SWAP1 POP DUP2 DUP2 SUB PUSH1 0x0 DUP4 ADD MSTORE PUSH2 0x501D DUP2 PUSH2 0x4976 JUMP JUMPDEST SWAP1 POP SWAP2 SWAP1 POP JUMP JUMPDEST PUSH1 0x0 PUSH1 0x20 DUP3 ADD SWAP1 POP DUP2 DUP2 SUB PUSH1 0x0 DUP4 ADD MSTORE PUSH2 0x503D DUP2 PUSH2 0x49DC JUMP JUMPDEST SWAP1 POP SWAP2 SWAP1 POP JUMP JUMPDEST PUSH1 0x0 PUSH1 0x20 DUP3 ADD SWAP1 POP DUP2 DUP2 SUB PUSH1 0x0 DUP4 ADD MSTORE PUSH2 0x505D DUP2 PUSH2 0x4A42 JUMP JUMPDEST SWAP1 POP SWAP2 SWAP1 POP JUMP JUMPDEST PUSH1 0x0 PUSH1 0x20 DUP3 ADD SWAP1 POP DUP2 DUP2 SUB PUSH1 0x0 DUP4 ADD MSTORE PUSH2 0x507D DUP2 PUSH2 0x4AA8 JUMP JUMPDEST SWAP1 POP SWAP2 SWAP1 POP JUMP JUMPDEST PUSH1 0x0 PUSH1 0x20 DUP3 ADD SWAP1 POP DUP2 DUP2 SUB PUSH1 0x0 DUP4 ADD MSTORE PUSH2 0x509D DUP2 PUSH2 0x4AE8 JUMP JUMPDEST SWAP1 POP SWAP2 SWAP1 POP JUMP JUMPDEST PUSH1 0x0 PUSH1 0x20 DUP3 ADD SWAP1 POP DUP2 DUP2 SUB PUSH1 0x0 DUP4 ADD MSTORE PUSH2 0x50BD DUP2 PUSH2 0x4B4E JUMP JUMPDEST SWAP1 POP SWAP2 SWAP1 POP JUMP JUMPDEST PUSH1 0x0 PUSH1 0x20 DUP3 ADD SWAP1 POP DUP2 DUP2 SUB PUSH1 0x0 DUP4 ADD MSTORE PUSH2 0x50DD DUP2 PUSH2 0x4B8E JUMP JUMPDEST SWAP1 POP SWAP2 SWAP1 POP JUMP JUMPDEST PUSH1 0x0 PUSH1 0x20 DUP3 ADD SWAP1 POP DUP2 DUP2 SUB PUSH1 0x0 DUP4 ADD MSTORE PUSH2 0x50FD DUP2 PUSH2 0x4BCE JUMP JUMPDEST SWAP1 POP SWAP2 SWAP1 POP JUMP JUMPDEST PUSH1 0x0 PUSH1 0x20 DUP3 ADD SWAP1 POP DUP2 DUP2 SUB PUSH1 0x0 DUP4 ADD MSTORE PUSH2 0x511D DUP2 PUSH2 0x4C34 JUMP JUMPDEST SWAP1 POP SWAP2 SWAP1 POP JUMP JUMPDEST PUSH1 0x0 PUSH1 0x20 DUP3 ADD SWAP1 POP DUP2 DUP2 SUB PUSH1 0x0 DUP4 ADD MSTORE PUSH2 0x513D DUP2 PUSH2 0x4C74 JUMP JUMPDEST SWAP1 POP SWAP2 SWAP1 POP JUMP JUMPDEST PUSH1 0x0 PUSH1 0x20 DUP3 ADD SWAP1 POP PUSH2 0x5159 PUSH1 0x0 DUP4 ADD DUP5 PUSH2 0x4CC3 JUMP JUMPDEST SWAP3 SWAP2 POP POP JUMP JUMPDEST PUSH1 0x0 PUSH1 0x60 DUP3 ADD SWAP1 POP PUSH2 0x5174 PUSH1 0x0 DUP4 ADD DUP7 PUSH2 0x4CC3 JUMP JUMPDEST PUSH2 0x5181 PUSH1 0x20 DUP4 ADD DUP6 PUSH2 0x459A JUMP JUMPDEST PUSH2 0x518E PUSH1 0x40 DUP4 ADD DUP5 PUSH2 0x4CC3 JUMP JUMPDEST SWAP5 SWAP4 POP POP POP POP JUMP JUMPDEST PUSH1 0x0 PUSH1 0x40 DUP3 ADD SWAP1 POP PUSH2 0x51AB PUSH1 0x0 DUP4 ADD DUP6 PUSH2 0x4CC3 JUMP JUMPDEST DUP2 DUP2 SUB PUSH1 0x20 DUP4 ADD MSTORE PUSH2 0x51BD DUP2 DUP5 PUSH2 0x46CB JUMP JUMPDEST SWAP1 POP SWAP4 SWAP3 POP POP POP JUMP JUMPDEST PUSH1 0x0 PUSH2 0x100 DUP3 ADD SWAP1 POP PUSH2 0x51DC PUSH1 0x0 DUP4 ADD DUP12 PUSH2 0x4CC3 JUMP JUMPDEST DUP2 DUP2 SUB PUSH1 0x20 DUP4 ADD MSTORE PUSH2 0x51EE DUP2 DUP11 PUSH2 0x46CB JUMP JUMPDEST SWAP1 POP DUP2 DUP2 SUB PUSH1 0x40 DUP4 ADD MSTORE PUSH2 0x5202 DUP2 DUP10 PUSH2 0x46CB JUMP JUMPDEST SWAP1 POP PUSH2 0x5211 PUSH1 0x60 DUP4 ADD DUP9 PUSH2 0x4CC3 JUMP JUMPDEST PUSH2 0x521E PUSH1 0x80 DUP4 ADD DUP8 PUSH2 0x4CC3 JUMP JUMPDEST DUP2 DUP2 SUB PUSH1 0xA0 DUP4 ADD MSTORE PUSH2 0x5230 DUP2 DUP7 PUSH2 0x4477 JUMP JUMPDEST SWAP1 POP PUSH2 0x523F PUSH1 0xC0 DUP4 ADD DUP6 PUSH2 0x4CC3 JUMP JUMPDEST PUSH2 0x524C PUSH1 0xE0 DUP4 ADD DUP5 PUSH2 0x4CC3 JUMP JUMPDEST SWAP10 SWAP9 POP POP POP POP POP POP POP POP POP JUMP JUMPDEST PUSH1 0x0 PUSH1 0xE0 DUP3 ADD SWAP1 POP PUSH2 0x526E PUSH1 0x0 DUP4 ADD DUP11 PUSH2 0x4CC3 JUMP JUMPDEST DUP2 DUP2 SUB PUSH1 0x20 DUP4 ADD MSTORE PUSH2 0x5280 DUP2 DUP10 PUSH2 0x46CB JUMP JUMPDEST SWAP1 POP DUP2 DUP2 SUB PUSH1 0x40 DUP4 ADD MSTORE PUSH2 0x5294 DUP2 DUP9 PUSH2 0x46CB JUMP JUMPDEST SWAP1 POP PUSH2 0x52A3 PUSH1 0x60 DUP4 ADD DUP8 PUSH2 0x4CC3 JUMP JUMPDEST PUSH2 0x52B0 PUSH1 0x80 DUP4 ADD DUP7 PUSH2 0x4CC3 JUMP JUMPDEST PUSH2 0x52BD PUSH1 0xA0 DUP4 ADD DUP6 PUSH2 0x4CC3 JUMP JUMPDEST PUSH2 0x52CA PUSH1 0xC0 DUP4 ADD DUP5 PUSH2 0x4CC3 JUMP JUMPDEST SWAP9 SWAP8 POP POP POP POP POP POP POP POP JUMP JUMPDEST PUSH1 0x0 PUSH1 0x40 DUP3 ADD SWAP1 POP PUSH2 0x52EB PUSH1 0x0 DUP4 ADD DUP6 PUSH2 0x4CC3 JUMP JUMPDEST PUSH2 0x52F8 PUSH1 0x20 DUP4 ADD DUP5 PUSH2 0x4CC3 JUMP JUMPDEST SWAP4 SWAP3 POP POP POP JUMP JUMPDEST PUSH1 0x0 PUSH1 0x40 MLOAD SWAP1 POP DUP2 DUP2 ADD DUP2 DUP2 LT PUSH8 0xFFFFFFFFFFFFFFFF DUP3 GT OR ISZERO PUSH2 0x5326 JUMPI PUSH2 0x5325 PUSH2 0x5755 JUMP JUMPDEST JUMPDEST DUP1 PUSH1 0x40 MSTORE POP SWAP2 SWAP1 POP JUMP JUMPDEST PUSH1 0x0 PUSH8 0xFFFFFFFFFFFFFFFF DUP3 GT ISZERO PUSH2 0x534B JUMPI PUSH2 0x534A PUSH2 0x5755 JUMP JUMPDEST JUMPDEST PUSH1 0x20 DUP3 MUL SWAP1 POP PUSH1 0x20 DUP2 ADD SWAP1 POP SWAP2 SWAP1 POP JUMP JUMPDEST PUSH1 0x0 PUSH8 0xFFFFFFFFFFFFFFFF DUP3 GT ISZERO PUSH2 0x5377 JUMPI PUSH2 0x5376 PUSH2 0x5755 JUMP JUMPDEST JUMPDEST PUSH1 0x1F NOT PUSH1 0x1F DUP4 ADD AND SWAP1 POP PUSH1 0x20 DUP2 ADD SWAP1 POP SWAP2 SWAP1 POP JUMP JUMPDEST PUSH1 0x0 PUSH8 0xFFFFFFFFFFFFFFFF DUP3 GT ISZERO PUSH2 0x53A7 JUMPI PUSH2 0x53A6 PUSH2 0x5755 JUMP JUMPDEST JUMPDEST PUSH1 0x1F NOT PUSH1 0x1F DUP4 ADD AND SWAP1 POP PUSH1 0x20 DUP2 ADD SWAP1 POP SWAP2 SWAP1 POP JUMP JUMPDEST PUSH1 0x0 DUP2 SWAP1 POP PUSH1 0x20 DUP3 ADD SWAP1 POP SWAP2 SWAP1 POP JUMP JUMPDEST PUSH1 0x0 DUP2 SWAP1 POP PUSH1 0x20 DUP3 ADD SWAP1 POP SWAP2 SWAP1 POP JUMP JUMPDEST PUSH1 0x0 DUP2 SWAP1 POP PUSH1 0x20 DUP3 ADD SWAP1 POP SWAP2 SWAP1 POP JUMP JUMPDEST PUSH1 0x0 DUP2 SWAP1 POP SWAP2 SWAP1 POP JUMP JUMPDEST PUSH1 0x0 DUP2 SWAP1 POP DUP2 PUSH1 0x0 MSTORE PUSH1 0x20 PUSH1 0x0 KECCAK256 SWAP1 POP SWAP2 SWAP1 POP JUMP JUMPDEST PUSH1 0x0 DUP2 MLOAD SWAP1 POP SWAP2 SWAP1 POP JUMP JUMPDEST PUSH1 0x0 DUP2 MLOAD SWAP1 POP SWAP2 SWAP1 POP JUMP JUMPDEST PUSH1 0x0 DUP2 MLOAD SWAP1 POP SWAP2 SWAP1 POP JUMP JUMPDEST PUSH1 0x0 PUSH1 0x2 SWAP1 POP SWAP2 SWAP1 POP JUMP JUMPDEST PUSH1 0x0 DUP2 MLOAD SWAP1 POP SWAP2 SWAP1 POP JUMP JUMPDEST PUSH1 0x0 DUP2 MLOAD SWAP1 POP SWAP2 SWAP1 POP JUMP JUMPDEST PUSH1 0x0 PUSH1 0x20 DUP3 ADD SWAP1 POP SWAP2 SWAP1 POP JUMP JUMPDEST PUSH1 0x0 PUSH1 0x20 DUP3 ADD SWAP1 POP SWAP2 SWAP1 POP JUMP JUMPDEST PUSH1 0x0 PUSH1 0x20 DUP3 ADD SWAP1 POP SWAP2 SWAP1 POP JUMP JUMPDEST PUSH1 0x0 PUSH1 0x20 DUP3 ADD SWAP1 POP SWAP2 SWAP1 POP JUMP JUMPDEST PUSH1 0x0 DUP3 DUP3 MSTORE PUSH1 0x20 DUP3 ADD SWAP1 POP SWAP3 SWAP2 POP POP JUMP JUMPDEST PUSH1 0x0 DUP3 DUP3 MSTORE PUSH1 0x20 DUP3 ADD SWAP1 POP SWAP3 SWAP2 POP POP JUMP JUMPDEST PUSH1 0x0 DUP3 DUP3 MSTORE PUSH1 0x20 DUP3 ADD SWAP1 POP SWAP3 SWAP2 POP POP JUMP JUMPDEST PUSH1 0x0 DUP2 SWAP1 POP SWAP3 SWAP2 POP POP JUMP JUMPDEST PUSH1 0x0 DUP2 SWAP1 POP SWAP3 SWAP2 POP POP JUMP JUMPDEST PUSH1 0x0 DUP3 DUP3 MSTORE PUSH1 0x20 DUP3 ADD SWAP1 POP SWAP3 SWAP2 POP POP JUMP JUMPDEST PUSH1 0x0 DUP2 SWAP1 POP SWAP3 SWAP2 POP POP JUMP JUMPDEST PUSH1 0x0 DUP3 DUP3 MSTORE PUSH1 0x20 DUP3 ADD SWAP1 POP SWAP3 SWAP2 POP POP JUMP JUMPDEST PUSH1 0x0 DUP3 DUP3 MSTORE PUSH1 0x20 DUP3 ADD SWAP1 POP SWAP3 SWAP2 POP POP JUMP JUMPDEST PUSH1 0x0 PUSH2 0x5513 DUP3 PUSH2 0x5601 JUMP JUMPDEST SWAP2 POP PUSH2 0x551E DUP4 PUSH2 0x5601 JUMP JUMPDEST SWAP3 POP DUP3 PUSH32 0xFFFFFFFFFFFFFFFFFFFFFFFFFFFFFFFFFFFFFFFFFFFFFFFFFFFFFFFFFFFFFFFF SUB DUP3 GT ISZERO PUSH2 0x5553 JUMPI PUSH2 0x5552 PUSH2 0x56C8 JUMP JUMPDEST JUMPDEST DUP3 DUP3 ADD SWAP1 POP SWAP3 SWAP2 POP POP JUMP JUMPDEST PUSH1 0x0 PUSH2 0x5569 DUP3 PUSH2 0x5601 JUMP JUMPDEST SWAP2 POP PUSH2 0x5574 DUP4 PUSH2 0x5601 JUMP JUMPDEST SWAP3 POP DUP3 PUSH2 0x5584 JUMPI PUSH2 0x5583 PUSH2 0x56F7 JUMP JUMPDEST JUMPDEST DUP3 DUP3 DIV SWAP1 POP SWAP3 SWAP2 POP POP JUMP JUMPDEST PUSH1 0x0 PUSH2 0x559A DUP3 PUSH2 0x5601 JUMP JUMPDEST SWAP2 POP PUSH2 0x55A5 DUP4 PUSH2 0x5601 JUMP JUMPDEST SWAP3 POP DUP3 DUP3 LT ISZERO PUSH2 0x55B8 JUMPI PUSH2 0x55B7 PUSH2 0x56C8 JUMP JUMPDEST JUMPDEST DUP3 DUP3 SUB SWAP1 POP SWAP3 SWAP2 POP POP JUMP JUMPDEST PUSH1 0x0 PUSH2 0x55CE DUP3 PUSH2 0x55E1 JUMP JUMPDEST SWAP1 POP SWAP2 SWAP1 POP JUMP JUMPDEST PUSH1 0x0 DUP2 ISZERO ISZERO SWAP1 POP SWAP2 SWAP1 POP JUMP JUMPDEST PUSH1 0x0 PUSH20 0xFFFFFFFFFFFFFFFFFFFFFFFFFFFFFFFFFFFFFFFF DUP3 AND SWAP1 POP SWAP2 SWAP1 POP JUMP JUMPDEST PUSH1 0x0 DUP2 SWAP1 POP SWAP2 SWAP1 POP JUMP JUMPDEST DUP3 DUP2 DUP4 CALLDATACOPY PUSH1 0x0 DUP4 DUP4 ADD MSTORE POP POP POP JUMP JUMPDEST PUSH1 0x0 JUMPDEST DUP4 DUP2 LT ISZERO PUSH2 0x5638 JUMPI DUP1 DUP3 ADD MLOAD DUP2 DUP5 ADD MSTORE PUSH1 0x20 DUP2 ADD SWAP1 POP PUSH2 0x561D JUMP JUMPDEST DUP4 DUP2 GT ISZERO PUSH2 0x5647 JUMPI PUSH1 0x0 DUP5 DUP5 ADD MSTORE JUMPDEST POP POP POP POP JUMP JUMPDEST PUSH1 0x0 PUSH1 0x2 DUP3 DIV SWAP1 POP PUSH1 0x1 DUP3 AND DUP1 PUSH2 0x5665 JUMPI PUSH1 0x7F DUP3 AND SWAP2 POP JUMPDEST PUSH1 0x20 DUP3 LT DUP2 EQ ISZERO PUSH2 0x5679 JUMPI PUSH2 0x5678 PUSH2 0x5726 JUMP JUMPDEST JUMPDEST POP SWAP2 SWAP1 POP JUMP JUMPDEST PUSH1 0x0 PUSH2 0x568A DUP3 PUSH2 0x5601 JUMP JUMPDEST SWAP2 POP PUSH32 0xFFFFFFFFFFFFFFFFFFFFFFFFFFFFFFFFFFFFFFFFFFFFFFFFFFFFFFFFFFFFFFFF DUP3 EQ ISZERO PUSH2 0x56BD JUMPI PUSH2 0x56BC PUSH2 0x56C8 JUMP JUMPDEST JUMPDEST PUSH1 0x1 DUP3 ADD SWAP1 POP SWAP2 SWAP1 POP JUMP JUMPDEST PUSH32 0x4E487B7100000000000000000000000000000000000000000000000000000000 PUSH1 0x0 MSTORE PUSH1 0x11 PUSH1 0x4 MSTORE PUSH1 0x24 PUSH1 0x0 REVERT JUMPDEST PUSH32 0x4E487B7100000000000000000000000000000000000000000000000000000000 PUSH1 0x0 MSTORE PUSH1 0x12 PUSH1 0x4 MSTORE PUSH1 0x24 PUSH1 0x0 REVERT JUMPDEST PUSH32 0x4E487B7100000000000000000000000000000000000000000000000000000000 PUSH1 0x0 MSTORE PUSH1 0x22 PUSH1 0x4 MSTORE PUSH1 0x24 PUSH1 0x0 REVERT JUMPDEST PUSH32 0x4E487B7100000000000000000000000000000000000000000000000000000000 PUSH1 0x0 MSTORE PUSH1 0x41 PUSH1 0x4 MSTORE PUSH1 0x24 PUSH1 0x0 REVERT JUMPDEST PUSH1 0x0 PUSH1 0x1F NOT PUSH1 0x1F DUP4 ADD AND SWAP1 POP SWAP2 SWAP1 POP JUMP JUMPDEST PUSH2 0x579E DUP2 PUSH2 0x55C3 JUMP JUMPDEST DUP2 EQ PUSH2 0x57A9 JUMPI PUSH1 0x0 DUP1 REVERT JUMPDEST POP JUMP JUMPDEST PUSH2 0x57B5 DUP2 PUSH2 0x5601 JUMP JUMPDEST DUP2 EQ PUSH2 0x57C0 JUMPI PUSH1 0x0 DUP1 REVERT JUMPDEST POP JUMP INVALID LOG2 PUSH5 0x6970667358 0x22 SLT KECCAK256 AND PUSH27 0xC0A01C522919904BCF4054602F40B3939030DE3B68FA5CDB462E66 LOG1 0x2C PUSH21 0x64736F6C6343000800003300000000000000000000 "
				},
				"gasEstimates": {
					"creation": {
						"codeDepositCost": "4504200",
						"executionCost": "5243",
						"totalCost": "4509443"
					},
					"external": {
						"MIN_HOLDERS()": "418",
						"REQUIRED_DEPOSIT()": "374",
						"REWARD_PER_VOTE()": "395",
						"claimRewards()": "infinite",
						"createElection(string,string,uint256,uint256,string[],uint256,uint256)": "infinite",
						"election(uint256)": "infinite",
						"electionCount()": "1174",
						"exitAsHolder()": "infinite",
						"forceExitHolder(address,uint256)": "infinite",
						"getElection(uint256)": "infinite",
						"getHolderPublicKey(address)": "infinite",
						"getHolderRewards(address)": "1591",
						"getHolders()": "infinite",
						"getNumHolders()": "infinite",
						"getNumHoldersByElection(uint256)": "infinite",
						"getSubmittedShares(uint256)": "infinite",
						"getVote(uint256)": "infinite",
						"getVoteReward(uint256)": "infinite",
						"holderAddresses(uint256)": "2447",
						"holderAddresses2(uint256)": "infinite",
						"holders(address)": "infinite",
						"holders2(bytes)": "infinite",
						"isHolder(address)": "1700",
						"joinAsHolder(uint256,bytes)": "infinite",
						"requiredDeposit()": "447",
						"submitShare(uint256,uint256,uint256)": "infinite",
						"submitVote(bytes,bytes,uint256,uint256[2],uint256)": "infinite",
						"triggerRewardDistribution(uint256)": "infinite",
						"unJoinAsHolder(uint256)": "infinite",
						"voteCount()": "1196",
						"votes(uint256)": "infinite"
					},
					"internal": {
						"distributeRewards(uint256)": "infinite"
					}
				},
				"methodIdentifiers": {
					"MIN_HOLDERS()": "abbd8fef",
					"REQUIRED_DEPOSIT()": "be64b76b",
					"REWARD_PER_VOTE()": "f4d70468",
					"claimRewards()": "372500ab",
					"createElection(string,string,uint256,uint256,string[],uint256,uint256)": "02a5f856",
					"election(uint256)": "3f056905",
					"electionCount()": "997d2830",
					"exitAsHolder()": "3fc4f914",
					"forceExitHolder(address,uint256)": "f9b0b1eb",
					"getElection(uint256)": "9d710777",
					"getHolderPublicKey(address)": "7018a178",
					"getHolderRewards(address)": "db8d9429",
					"getHolders()": "5fe8e7cc",
					"getNumHolders()": "c7344165",
					"getNumHoldersByElection(uint256)": "83af2d16",
					"getSubmittedShares(uint256)": "7897d89a",
					"getVote(uint256)": "5a55c1f0",
					"getVoteReward(uint256)": "041d3138",
					"holderAddresses(uint256)": "0f8c9e28",
					"holderAddresses2(uint256)": "adff2123",
					"holders(address)": "18a5bbdc",
					"holders2(bytes)": "1c43b504",
					"isHolder(address)": "d4d7b19a",
					"joinAsHolder(uint256,bytes)": "5c1a82e0",
					"requiredDeposit()": "fb7cfdd7",
					"submitShare(uint256,uint256,uint256)": "7bbce9f5",
					"submitVote(bytes,bytes,uint256,uint256[2],uint256)": "118e47bc",
					"triggerRewardDistribution(uint256)": "910b0691",
					"unJoinAsHolder(uint256)": "1d1fad0a",
					"voteCount()": "c6384071",
					"votes(uint256)": "5df81330"
				}
			},
			"storageLayout": {
				"storage": [
					{
						"astId": 25,
						"contract": "crypto-core/contracts/TimedReleaseVoting.sol:TimedReleaseVoting",
						"label": "election",
						"offset": 0,
						"slot": "0",
						"type": "t_mapping(t_uint256,t_struct(Election)20_storage)"
					},
					{
						"astId": 27,
						"contract": "crypto-core/contracts/TimedReleaseVoting.sol:TimedReleaseVoting",
						"label": "electionCount",
						"offset": 0,
						"slot": "1",
						"type": "t_uint256"
					},
					{
						"astId": 200,
						"contract": "crypto-core/contracts/TimedReleaseVoting.sol:TimedReleaseVoting",
						"label": "holders",
						"offset": 0,
						"slot": "2",
						"type": "t_mapping(t_address,t_struct(Holder)147_storage)"
					},
					{
						"astId": 205,
						"contract": "crypto-core/contracts/TimedReleaseVoting.sol:TimedReleaseVoting",
						"label": "holders2",
						"offset": 0,
						"slot": "3",
						"type": "t_mapping(t_bytes_memory_ptr,t_struct(Holder2)158_storage)"
					},
					{
						"astId": 208,
						"contract": "crypto-core/contracts/TimedReleaseVoting.sol:TimedReleaseVoting",
						"label": "holderAddresses",
						"offset": 0,
						"slot": "4",
						"type": "t_array(t_address)dyn_storage"
					},
					{
						"astId": 211,
						"contract": "crypto-core/contracts/TimedReleaseVoting.sol:TimedReleaseVoting",
						"label": "holderAddresses2",
						"offset": 0,
						"slot": "5",
						"type": "t_array(t_bytes_storage)dyn_storage"
					},
					{
						"astId": 216,
						"contract": "crypto-core/contracts/TimedReleaseVoting.sol:TimedReleaseVoting",
						"label": "votes",
						"offset": 0,
						"slot": "6",
						"type": "t_mapping(t_uint256,t_struct(Vote)186_storage)"
					},
					{
						"astId": 218,
						"contract": "crypto-core/contracts/TimedReleaseVoting.sol:TimedReleaseVoting",
						"label": "voteCount",
						"offset": 0,
						"slot": "7",
						"type": "t_uint256"
					}
				],
				"types": {
					"t_address": {
						"encoding": "inplace",
						"label": "address",
						"numberOfBytes": "20"
					},
					"t_array(t_address)dyn_storage": {
						"base": "t_address",
						"encoding": "dynamic_array",
						"label": "address[]",
						"numberOfBytes": "32"
					},
					"t_array(t_bytes_storage)dyn_storage": {
						"base": "t_bytes_storage",
						"encoding": "dynamic_array",
						"label": "bytes[]",
						"numberOfBytes": "32"
					},
					"t_array(t_string_storage)dyn_storage": {
						"base": "t_string_storage",
						"encoding": "dynamic_array",
						"label": "string[]",
						"numberOfBytes": "32"
					},
					"t_array(t_uint256)2_storage": {
						"base": "t_uint256",
						"encoding": "inplace",
						"label": "uint256[2]",
						"numberOfBytes": "64"
					},
					"t_bool": {
						"encoding": "inplace",
						"label": "bool",
						"numberOfBytes": "1"
					},
					"t_bytes_memory_ptr": {
						"encoding": "bytes",
						"label": "bytes",
						"numberOfBytes": "32"
					},
					"t_bytes_storage": {
						"encoding": "bytes",
						"label": "bytes",
						"numberOfBytes": "32"
					},
					"t_mapping(t_address,t_array(t_uint256)2_storage)": {
						"encoding": "mapping",
						"key": "t_address",
						"label": "mapping(address => uint256[2])",
						"numberOfBytes": "32",
						"value": "t_array(t_uint256)2_storage"
					},
					"t_mapping(t_address,t_struct(Holder)147_storage)": {
						"encoding": "mapping",
						"key": "t_address",
						"label": "mapping(address => struct TimedReleaseVoting.Holder)",
						"numberOfBytes": "32",
						"value": "t_struct(Holder)147_storage"
					},
					"t_mapping(t_bytes_memory_ptr,t_struct(Holder2)158_storage)": {
						"encoding": "mapping",
						"key": "t_bytes_memory_ptr",
						"label": "mapping(bytes => struct TimedReleaseVoting.Holder2)",
						"numberOfBytes": "32",
						"value": "t_struct(Holder2)158_storage"
					},
					"t_mapping(t_uint256,t_struct(Election)20_storage)": {
						"encoding": "mapping",
						"key": "t_uint256",
						"label": "mapping(uint256 => struct TimedReleaseVoting.Election)",
						"numberOfBytes": "32",
						"value": "t_struct(Election)20_storage"
					},
					"t_mapping(t_uint256,t_struct(Vote)186_storage)": {
						"encoding": "mapping",
						"key": "t_uint256",
						"label": "mapping(uint256 => struct TimedReleaseVoting.Vote)",
						"numberOfBytes": "32",
						"value": "t_struct(Vote)186_storage"
					},
					"t_string_storage": {
						"encoding": "bytes",
						"label": "string",
						"numberOfBytes": "32"
					},
					"t_struct(Election)20_storage": {
						"encoding": "inplace",
						"label": "struct TimedReleaseVoting.Election",
						"members": [
							{
								"astId": 4,
								"contract": "crypto-core/contracts/TimedReleaseVoting.sol:TimedReleaseVoting",
								"label": "id",
								"offset": 0,
								"slot": "0",
								"type": "t_uint256"
							},
							{
								"astId": 6,
								"contract": "crypto-core/contracts/TimedReleaseVoting.sol:TimedReleaseVoting",
								"label": "title",
								"offset": 0,
								"slot": "1",
								"type": "t_string_storage"
							},
							{
								"astId": 8,
								"contract": "crypto-core/contracts/TimedReleaseVoting.sol:TimedReleaseVoting",
								"label": "description",
								"offset": 0,
								"slot": "2",
								"type": "t_string_storage"
							},
							{
								"astId": 10,
								"contract": "crypto-core/contracts/TimedReleaseVoting.sol:TimedReleaseVoting",
								"label": "startDate",
								"offset": 0,
								"slot": "3",
								"type": "t_uint256"
							},
							{
								"astId": 12,
								"contract": "crypto-core/contracts/TimedReleaseVoting.sol:TimedReleaseVoting",
								"label": "endDate",
								"offset": 0,
								"slot": "4",
								"type": "t_uint256"
							},
							{
								"astId": 15,
								"contract": "crypto-core/contracts/TimedReleaseVoting.sol:TimedReleaseVoting",
								"label": "options",
								"offset": 0,
								"slot": "5",
								"type": "t_array(t_string_storage)dyn_storage"
							},
							{
								"astId": 17,
								"contract": "crypto-core/contracts/TimedReleaseVoting.sol:TimedReleaseVoting",
								"label": "rewardPool",
								"offset": 0,
								"slot": "6",
								"type": "t_uint256"
							},
							{
								"astId": 19,
								"contract": "crypto-core/contracts/TimedReleaseVoting.sol:TimedReleaseVoting",
								"label": "electionDeposit",
								"offset": 0,
								"slot": "7",
								"type": "t_uint256"
							}
						],
						"numberOfBytes": "256"
					},
					"t_struct(Holder)147_storage": {
						"encoding": "inplace",
						"label": "struct TimedReleaseVoting.Holder",
						"members": [
							{
								"astId": 140,
								"contract": "crypto-core/contracts/TimedReleaseVoting.sol:TimedReleaseVoting",
								"label": "publicKey",
								"offset": 0,
								"slot": "0",
								"type": "t_array(t_uint256)2_storage"
							},
							{
								"astId": 142,
								"contract": "crypto-core/contracts/TimedReleaseVoting.sol:TimedReleaseVoting",
								"label": "deposit",
								"offset": 0,
								"slot": "2",
								"type": "t_uint256"
							},
							{
								"astId": 144,
								"contract": "crypto-core/contracts/TimedReleaseVoting.sol:TimedReleaseVoting",
								"label": "active",
								"offset": 0,
								"slot": "3",
								"type": "t_bool"
							},
							{
								"astId": 146,
								"contract": "crypto-core/contracts/TimedReleaseVoting.sol:TimedReleaseVoting",
								"label": "rewards",
								"offset": 0,
								"slot": "4",
								"type": "t_uint256"
							}
						],
						"numberOfBytes": "160"
					},
					"t_struct(Holder2)158_storage": {
						"encoding": "inplace",
						"label": "struct TimedReleaseVoting.Holder2",
						"members": [
							{
								"astId": 149,
								"contract": "crypto-core/contracts/TimedReleaseVoting.sol:TimedReleaseVoting",
								"label": "publicKey",
								"offset": 0,
								"slot": "0",
								"type": "t_bytes_storage"
							},
							{
								"astId": 151,
								"contract": "crypto-core/contracts/TimedReleaseVoting.sol:TimedReleaseVoting",
								"label": "walletAddress",
								"offset": 0,
								"slot": "1",
								"type": "t_address"
							},
							{
								"astId": 153,
								"contract": "crypto-core/contracts/TimedReleaseVoting.sol:TimedReleaseVoting",
								"label": "electionId",
								"offset": 0,
								"slot": "2",
								"type": "t_uint256"
							},
							{
								"astId": 155,
								"contract": "crypto-core/contracts/TimedReleaseVoting.sol:TimedReleaseVoting",
								"label": "active",
								"offset": 0,
								"slot": "3",
								"type": "t_bool"
							},
							{
								"astId": 157,
								"contract": "crypto-core/contracts/TimedReleaseVoting.sol:TimedReleaseVoting",
								"label": "rewards",
								"offset": 0,
								"slot": "4",
								"type": "t_uint256"
							}
						],
						"numberOfBytes": "160"
					},
					"t_struct(Vote)186_storage": {
						"encoding": "inplace",
						"label": "struct TimedReleaseVoting.Vote",
						"members": [
							{
								"astId": 160,
								"contract": "crypto-core/contracts/TimedReleaseVoting.sol:TimedReleaseVoting",
								"label": "ciphertext",
								"offset": 0,
								"slot": "0",
								"type": "t_bytes_storage"
							},
							{
								"astId": 162,
								"contract": "crypto-core/contracts/TimedReleaseVoting.sol:TimedReleaseVoting",
								"label": "nonce",
								"offset": 0,
								"slot": "1",
								"type": "t_bytes_storage"
							},
							{
								"astId": 164,
								"contract": "crypto-core/contracts/TimedReleaseVoting.sol:TimedReleaseVoting",
								"label": "decryptionTime",
								"offset": 0,
								"slot": "2",
								"type": "t_uint256"
							},
							{
								"astId": 168,
								"contract": "crypto-core/contracts/TimedReleaseVoting.sol:TimedReleaseVoting",
								"label": "g2r",
								"offset": 0,
								"slot": "3",
								"type": "t_array(t_uint256)2_storage"
							},
							{
								"astId": 174,
								"contract": "crypto-core/contracts/TimedReleaseVoting.sol:TimedReleaseVoting",
								"label": "shares",
								"offset": 0,
								"slot": "5",
								"type": "t_mapping(t_address,t_array(t_uint256)2_storage)"
							},
							{
								"astId": 177,
								"contract": "crypto-core/contracts/TimedReleaseVoting.sol:TimedReleaseVoting",
								"label": "shareSubmitters",
								"offset": 0,
								"slot": "6",
								"type": "t_array(t_address)dyn_storage"
							},
							{
								"astId": 179,
								"contract": "crypto-core/contracts/TimedReleaseVoting.sol:TimedReleaseVoting",
								"label": "exists",
								"offset": 0,
								"slot": "7",
								"type": "t_bool"
							},
							{
								"astId": 181,
								"contract": "crypto-core/contracts/TimedReleaseVoting.sol:TimedReleaseVoting",
								"label": "reward",
								"offset": 0,
								"slot": "8",
								"type": "t_uint256"
							},
							{
								"astId": 183,
								"contract": "crypto-core/contracts/TimedReleaseVoting.sol:TimedReleaseVoting",
								"label": "rewardDistributed",
								"offset": 0,
								"slot": "9",
								"type": "t_bool"
							},
							{
								"astId": 185,
								"contract": "crypto-core/contracts/TimedReleaseVoting.sol:TimedReleaseVoting",
								"label": "threshold",
								"offset": 0,
								"slot": "10",
								"type": "t_uint256"
							}
						],
						"numberOfBytes": "352"
					},
					"t_uint256": {
						"encoding": "inplace",
						"label": "uint256",
						"numberOfBytes": "32"
					}
				}
			},
			"userdoc": {
				"kind": "user",
				"methods": {},
				"version": 1
			}
		}
	}
}