{
	"crypto-core/contracts/Vote.sol": {
		"Vote": {
			"abi": [
				{
					"anonymous": false,
					"inputs": [
						{
							"indexed": false,
							"internalType": "uint256",
							"name": "voteId",
							"type": "uint256"
						},
						{
							"indexed": false,
							"internalType": "address",
							"name": "secretHolder",
							"type": "address"
						}
					],
					"name": "SecretHolderAdded",
					"type": "event"
				},
				{
					"anonymous": false,
					"inputs": [
						{
							"indexed": false,
							"internalType": "uint256",
							"name": "id",
							"type": "uint256"
						},
						{
							"indexed": false,
							"internalType": "string",
							"name": "title",
							"type": "string"
						}
					],
					"name": "VoteCreated",
					"type": "event"
				},
				{
					"inputs": [
						{
							"internalType": "uint256",
							"name": "voteId",
							"type": "uint256"
						},
						{
							"internalType": "address",
							"name": "secretHolder",
							"type": "address"
						}
					],
					"name": "addSecretHolder",
					"outputs": [],
					"stateMutability": "nonpayable",
					"type": "function"
				},
				{
					"inputs": [
						{
							"internalType": "string",
							"name": "title",
							"type": "string"
						},
						{
							"internalType": "string",
							"name": "description",
							"type": "string"
						},
						{
							"internalType": "uint256",
							"name": "startDate",
							"type": "uint256"
						},
						{
							"internalType": "uint256",
							"name": "endDate",
							"type": "uint256"
						},
						{
							"internalType": "string",
							"name": "status",
							"type": "string"
						},
						{
							"internalType": "uint256",
							"name": "participantCount",
							"type": "uint256"
						},
						{
							"internalType": "string[]",
							"name": "options",
							"type": "string[]"
						}
					],
					"name": "createVote",
					"outputs": [
						{
							"internalType": "uint256",
							"name": "",
							"type": "uint256"
						}
					],
					"stateMutability": "nonpayable",
					"type": "function"
				},
				{
					"inputs": [
						{
							"internalType": "uint256",
							"name": "voteId",
							"type": "uint256"
						}
					],
					"name": "getSecretHolders",
					"outputs": [
						{
							"internalType": "address[]",
							"name": "",
							"type": "address[]"
						}
					],
					"stateMutability": "view",
					"type": "function"
				},
				{
					"inputs": [
						{
							"internalType": "uint256",
							"name": "voteId",
							"type": "uint256"
						}
					],
					"name": "getVote",
					"outputs": [
						{
							"internalType": "uint256",
							"name": "id",
							"type": "uint256"
						},
						{
							"internalType": "string",
							"name": "title",
							"type": "string"
						},
						{
							"internalType": "string",
							"name": "description",
							"type": "string"
						},
						{
							"internalType": "uint256",
							"name": "startDate",
							"type": "uint256"
						},
						{
							"internalType": "uint256",
							"name": "endDate",
							"type": "uint256"
						},
						{
							"internalType": "string",
							"name": "status",
							"type": "string"
						},
						{
							"internalType": "uint256",
							"name": "participantCount",
							"type": "uint256"
						},
						{
							"internalType": "string[]",
							"name": "options",
							"type": "string[]"
						}
					],
					"stateMutability": "view",
					"type": "function"
				},
				{
					"inputs": [
						{
							"internalType": "uint256",
							"name": "",
							"type": "uint256"
						},
						{
							"internalType": "uint256",
							"name": "",
							"type": "uint256"
						}
					],
					"name": "secretHolders",
					"outputs": [
						{
							"internalType": "address",
							"name": "",
							"type": "address"
						}
					],
					"stateMutability": "view",
					"type": "function"
				},
				{
					"inputs": [],
					"name": "voteCount",
					"outputs": [
						{
							"internalType": "uint256",
							"name": "",
							"type": "uint256"
						}
					],
					"stateMutability": "view",
					"type": "function"
				},
				{
					"inputs": [
						{
							"internalType": "uint256",
							"name": "",
							"type": "uint256"
						}
					],
					"name": "votes",
					"outputs": [
						{
							"internalType": "uint256",
							"name": "id",
							"type": "uint256"
						},
						{
							"internalType": "string",
							"name": "title",
							"type": "string"
						},
						{
							"internalType": "string",
							"name": "description",
							"type": "string"
						},
						{
							"internalType": "uint256",
							"name": "startDate",
							"type": "uint256"
						},
						{
							"internalType": "uint256",
							"name": "endDate",
							"type": "uint256"
						},
						{
							"internalType": "string",
							"name": "status",
							"type": "string"
						},
						{
							"internalType": "uint256",
							"name": "participantCount",
							"type": "uint256"
						}
					],
					"stateMutability": "view",
					"type": "function"
				}
			],
			"devdoc": {
				"details": "Implements voting creation and retrieval",
				"kind": "dev",
				"methods": {},
				"title": "Vote",
				"version": 1
			},
			"evm": {
				"assembly": "    /* \"crypto-core/contracts/Vote.sol\":149:2242  contract Vote {... */\n  mstore(0x40, 0x80)\n  callvalue\n  dup1\n  iszero\n  tag_1\n  jumpi\n  revert(0x00, 0x00)\ntag_1:\n  pop\n  dataSize(sub_0)\n  dup1\n  dataOffset(sub_0)\n  0x00\n  codecopy\n  0x00\n  return\nstop\n\nsub_0: assembly {\n        /* \"crypto-core/contracts/Vote.sol\":149:2242  contract Vote {... */\n      mstore(0x40, 0x80)\n      callvalue\n      dup1\n      iszero\n      tag_1\n      jumpi\n      revert(0x00, 0x00)\n    tag_1:\n      pop\n      jumpi(tag_2, lt(calldatasize, 0x04))\n      shr(0xe0, calldataload(0x00))\n      dup1\n      0x6b9d84d8\n      gt\n      tag_10\n      jumpi\n      dup1\n      0x6b9d84d8\n      eq\n      tag_6\n      jumpi\n      dup1\n      0x804701ab\n      eq\n      tag_7\n      jumpi\n      dup1\n      0xc6384071\n      eq\n      tag_8\n      jumpi\n      dup1\n      0xcaba6aad\n      eq\n      tag_9\n      jumpi\n      jump(tag_2)\n    tag_10:\n      dup1\n      0x13c7ee0d\n      eq\n      tag_3\n      jumpi\n      dup1\n      0x5a55c1f0\n      eq\n      tag_4\n      jumpi\n      dup1\n      0x5df81330\n      eq\n      tag_5\n      jumpi\n    tag_2:\n      revert(0x00, 0x00)\n        /* \"crypto-core/contracts/Vote.sol\":1797:2042  function addSecretHolder(uint256 voteId, address secretHolder) public {... */\n    tag_3:\n      tag_11\n      0x04\n      dup1\n      calldatasize\n      sub\n      dup2\n      add\n      swap1\n      tag_12\n      swap2\n      swap1\n      tag_13\n      jump\t// in\n    tag_12:\n      tag_14\n      jump\t// in\n    tag_11:\n      stop\n        /* \"crypto-core/contracts/Vote.sol\":1259:1789  function getVote(uint256 voteId) public view returns (... */\n    tag_4:\n      tag_15\n      0x04\n      dup1\n      calldatasize\n      sub\n      dup2\n      add\n      swap1\n      tag_16\n      swap2\n      swap1\n      tag_17\n      jump\t// in\n    tag_16:\n      tag_18\n      jump\t// in\n    tag_15:\n      mload(0x40)\n      tag_19\n      swap9\n      swap8\n      swap7\n      swap6\n      swap5\n      swap4\n      swap3\n      swap2\n      swap1\n      tag_20\n      jump\t// in\n    tag_19:\n      mload(0x40)\n      dup1\n      swap2\n      sub\n      swap1\n      return\n        /* \"crypto-core/contracts/Vote.sol\":417:460  mapping(uint256 => VoteStruct) public votes */\n    tag_5:\n      tag_21\n      0x04\n      dup1\n      calldatasize\n      sub\n      dup2\n      add\n      swap1\n      tag_22\n      swap2\n      swap1\n      tag_17\n      jump\t// in\n    tag_22:\n      tag_23\n      jump\t// in\n    tag_21:\n      mload(0x40)\n      tag_24\n      swap8\n      swap7\n      swap6\n      swap5\n      swap4\n      swap3\n      swap2\n      swap1\n      tag_25\n      jump\t// in\n    tag_24:\n      mload(0x40)\n      dup1\n      swap2\n      sub\n      swap1\n      return\n        /* \"crypto-core/contracts/Vote.sol\":2050:2239  function getSecretHolders(uint256 voteId) public view returns (address[] memory) {... */\n    tag_6:\n      tag_26\n      0x04\n      dup1\n      calldatasize\n      sub\n      dup2\n      add\n      swap1\n      tag_27\n      swap2\n      swap1\n      tag_17\n      jump\t// in\n    tag_27:\n      tag_28\n      jump\t// in\n    tag_26:\n      mload(0x40)\n      tag_29\n      swap2\n      swap1\n      tag_30\n      jump\t// in\n    tag_29:\n      mload(0x40)\n      dup1\n      swap2\n      sub\n      swap1\n      return\n        /* \"crypto-core/contracts/Vote.sol\":747:1251  function createVote(... */\n    tag_7:\n      tag_31\n      0x04\n      dup1\n      calldatasize\n      sub\n      dup2\n      add\n      swap1\n      tag_32\n      swap2\n      swap1\n      tag_33\n      jump\t// in\n    tag_32:\n      tag_34\n      jump\t// in\n    tag_31:\n      mload(0x40)\n      tag_35\n      swap2\n      swap1\n      tag_36\n      jump\t// in\n    tag_35:\n      mload(0x40)\n      dup1\n      swap2\n      sub\n      swap1\n      return\n        /* \"crypto-core/contracts/Vote.sol\":594:618  uint256 public voteCount */\n    tag_8:\n      tag_37\n      tag_38\n      jump\t// in\n    tag_37:\n      mload(0x40)\n      tag_39\n      swap2\n      swap1\n      tag_36\n      jump\t// in\n    tag_39:\n      mload(0x40)\n      dup1\n      swap2\n      sub\n      swap1\n      return\n        /* \"crypto-core/contracts/Vote.sol\":494:544  mapping(uint256 => address[]) public secretHolders */\n    tag_9:\n      tag_40\n      0x04\n      dup1\n      calldatasize\n      sub\n      dup2\n      add\n      swap1\n      tag_41\n      swap2\n      swap1\n      tag_42\n      jump\t// in\n    tag_41:\n      tag_43\n      jump\t// in\n    tag_40:\n      mload(0x40)\n      tag_44\n      swap2\n      swap1\n      tag_45\n      jump\t// in\n    tag_44:\n      mload(0x40)\n      dup1\n      swap2\n      sub\n      swap1\n      return\n        /* \"crypto-core/contracts/Vote.sol\":1797:2042  function addSecretHolder(uint256 voteId, address secretHolder) public {... */\n    tag_14:\n        /* \"crypto-core/contracts/Vote.sol\":1895:1904  voteCount */\n      sload(0x02)\n        /* \"crypto-core/contracts/Vote.sol\":1886:1892  voteId */\n      dup3\n        /* \"crypto-core/contracts/Vote.sol\":1886:1904  voteId < voteCount */\n      lt\n        /* \"crypto-core/contracts/Vote.sol\":1878:1928  require(voteId < voteCount, \"Vote does not exist\") */\n      tag_47\n      jumpi\n      mload(0x40)\n      0x08c379a000000000000000000000000000000000000000000000000000000000\n      dup2\n      mstore\n      0x04\n      add\n      tag_48\n      swap1\n      tag_49\n      jump\t// in\n    tag_48:\n      mload(0x40)\n      dup1\n      swap2\n      sub\n      swap1\n      revert\n    tag_47:\n        /* \"crypto-core/contracts/Vote.sol\":1939:1952  secretHolders */\n      0x01\n        /* \"crypto-core/contracts/Vote.sol\":1939:1960  secretHolders[voteId] */\n      0x00\n        /* \"crypto-core/contracts/Vote.sol\":1953:1959  voteId */\n      dup4\n        /* \"crypto-core/contracts/Vote.sol\":1939:1960  secretHolders[voteId] */\n      dup2\n      mstore\n      0x20\n      add\n      swap1\n      dup2\n      mstore\n      0x20\n      add\n      0x00\n      keccak256\n        /* \"crypto-core/contracts/Vote.sol\":1966:1978  secretHolder */\n      dup2\n        /* \"crypto-core/contracts/Vote.sol\":1939:1979  secretHolders[voteId].push(secretHolder) */\n      swap1\n      dup1\n      0x01\n      dup2\n      sload\n      add\n      dup1\n      dup3\n      sstore\n      dup1\n      swap2\n      pop\n      pop\n      0x01\n      swap1\n      sub\n      swap1\n      0x00\n      mstore\n      keccak256(0x00, 0x20)\n      add\n      0x00\n      swap1\n      swap2\n      swap1\n      swap2\n      swap1\n      swap2\n      0x0100\n      exp\n      dup2\n      sload\n      dup2\n      0xffffffffffffffffffffffffffffffffffffffff\n      mul\n      not\n      and\n      swap1\n      dup4\n      0xffffffffffffffffffffffffffffffffffffffff\n      and\n      mul\n      or\n      swap1\n      sstore\n      pop\n        /* \"crypto-core/contracts/Vote.sol\":1995:2034  SecretHolderAdded(voteId, secretHolder) */\n      0x3035eca168307cb0cfbe9490648b49492ae9954b2f8b86f8ada18492e6b49434\n        /* \"crypto-core/contracts/Vote.sol\":2013:2019  voteId */\n      dup3\n        /* \"crypto-core/contracts/Vote.sol\":2021:2033  secretHolder */\n      dup3\n        /* \"crypto-core/contracts/Vote.sol\":1995:2034  SecretHolderAdded(voteId, secretHolder) */\n      mload(0x40)\n      tag_51\n      swap3\n      swap2\n      swap1\n      tag_52\n      jump\t// in\n    tag_51:\n      mload(0x40)\n      dup1\n      swap2\n      sub\n      swap1\n      log1\n        /* \"crypto-core/contracts/Vote.sol\":1797:2042  function addSecretHolder(uint256 voteId, address secretHolder) public {... */\n      pop\n      pop\n      jump\t// out\n        /* \"crypto-core/contracts/Vote.sol\":1259:1789  function getVote(uint256 voteId) public view returns (... */\n    tag_18:\n        /* \"crypto-core/contracts/Vote.sol\":1323:1333  uint256 id */\n      0x00\n        /* \"crypto-core/contracts/Vote.sol\":1344:1363  string memory title */\n      0x60\n        /* \"crypto-core/contracts/Vote.sol\":1374:1399  string memory description */\n      dup1\n        /* \"crypto-core/contracts/Vote.sol\":1410:1427  uint256 startDate */\n      0x00\n        /* \"crypto-core/contracts/Vote.sol\":1438:1453  uint256 endDate */\n      0x00\n        /* \"crypto-core/contracts/Vote.sol\":1464:1484  string memory status */\n      0x60\n        /* \"crypto-core/contracts/Vote.sol\":1495:1519  uint256 participantCount */\n      0x00\n        /* \"crypto-core/contracts/Vote.sol\":1530:1553  string[] memory options */\n      0x60\n        /* \"crypto-core/contracts/Vote.sol\":1589:1598  voteCount */\n      sload(0x02)\n        /* \"crypto-core/contracts/Vote.sol\":1580:1586  voteId */\n      dup10\n        /* \"crypto-core/contracts/Vote.sol\":1580:1598  voteId < voteCount */\n      lt\n        /* \"crypto-core/contracts/Vote.sol\":1572:1622  require(voteId < voteCount, \"Vote does not exist\") */\n      tag_54\n      jumpi\n      mload(0x40)\n      0x08c379a000000000000000000000000000000000000000000000000000000000\n      dup2\n      mstore\n      0x04\n      add\n      tag_55\n      swap1\n      tag_49\n      jump\t// in\n    tag_55:\n      mload(0x40)\n      dup1\n      swap2\n      sub\n      swap1\n      revert\n    tag_54:\n        /* \"crypto-core/contracts/Vote.sol\":1633:1652  VoteStruct memory v */\n      0x00\n        /* \"crypto-core/contracts/Vote.sol\":1655:1660  votes */\n      0x00\n        /* \"crypto-core/contracts/Vote.sol\":1655:1668  votes[voteId] */\n      0x00\n        /* \"crypto-core/contracts/Vote.sol\":1661:1667  voteId */\n      dup12\n        /* \"crypto-core/contracts/Vote.sol\":1655:1668  votes[voteId] */\n      dup2\n      mstore\n      0x20\n      add\n      swap1\n      dup2\n      mstore\n      0x20\n      add\n      0x00\n      keccak256\n        /* \"crypto-core/contracts/Vote.sol\":1633:1668  VoteStruct memory v = votes[voteId] */\n      mload(0x40)\n      dup1\n      0x0100\n      add\n      0x40\n      mstore\n      swap1\n      dup2\n      0x00\n      dup3\n      add\n      sload\n      dup2\n      mstore\n      0x20\n      add\n      0x01\n      dup3\n      add\n      dup1\n      sload\n      tag_56\n      swap1\n      tag_57\n      jump\t// in\n    tag_56:\n      dup1\n      0x1f\n      add\n      0x20\n      dup1\n      swap2\n      div\n      mul\n      0x20\n      add\n      mload(0x40)\n      swap1\n      dup2\n      add\n      0x40\n      mstore\n      dup1\n      swap3\n      swap2\n      swap1\n      dup2\n      dup2\n      mstore\n      0x20\n      add\n      dup3\n      dup1\n      sload\n      tag_58\n      swap1\n      tag_57\n      jump\t// in\n    tag_58:\n      dup1\n      iszero\n      tag_59\n      jumpi\n      dup1\n      0x1f\n      lt\n      tag_60\n      jumpi\n      0x0100\n      dup1\n      dup4\n      sload\n      div\n      mul\n      dup4\n      mstore\n      swap2\n      0x20\n      add\n      swap2\n      jump(tag_59)\n    tag_60:\n      dup3\n      add\n      swap2\n      swap1\n      0x00\n      mstore\n      keccak256(0x00, 0x20)\n      swap1\n    tag_61:\n      dup2\n      sload\n      dup2\n      mstore\n      swap1\n      0x01\n      add\n      swap1\n      0x20\n      add\n      dup1\n      dup4\n      gt\n      tag_61\n      jumpi\n      dup3\n      swap1\n      sub\n      0x1f\n      and\n      dup3\n      add\n      swap2\n    tag_59:\n      pop\n      pop\n      pop\n      pop\n      pop\n      dup2\n      mstore\n      0x20\n      add\n      0x02\n      dup3\n      add\n      dup1\n      sload\n      tag_62\n      swap1\n      tag_57\n      jump\t// in\n    tag_62:\n      dup1\n      0x1f\n      add\n      0x20\n      dup1\n      swap2\n      div\n      mul\n      0x20\n      add\n      mload(0x40)\n      swap1\n      dup2\n      add\n      0x40\n      mstore\n      dup1\n      swap3\n      swap2\n      swap1\n      dup2\n      dup2\n      mstore\n      0x20\n      add\n      dup3\n      dup1\n      sload\n      tag_63\n      swap1\n      tag_57\n      jump\t// in\n    tag_63:\n      dup1\n      iszero\n      tag_64\n      jumpi\n      dup1\n      0x1f\n      lt\n      tag_65\n      jumpi\n      0x0100\n      dup1\n      dup4\n      sload\n      div\n      mul\n      dup4\n      mstore\n      swap2\n      0x20\n      add\n      swap2\n      jump(tag_64)\n    tag_65:\n      dup3\n      add\n      swap2\n      swap1\n      0x00\n      mstore\n      keccak256(0x00, 0x20)\n      swap1\n    tag_66:\n      dup2\n      sload\n      dup2\n      mstore\n      swap1\n      0x01\n      add\n      swap1\n      0x20\n      add\n      dup1\n      dup4\n      gt\n      tag_66\n      jumpi\n      dup3\n      swap1\n      sub\n      0x1f\n      and\n      dup3\n      add\n      swap2\n    tag_64:\n      pop\n      pop\n      pop\n      pop\n      pop\n      dup2\n      mstore\n      0x20\n      add\n      0x03\n      dup3\n      add\n      sload\n      dup2\n      mstore\n      0x20\n      add\n      0x04\n      dup3\n      add\n      sload\n      dup2\n      mstore\n      0x20\n      add\n      0x05\n      dup3\n      add\n      dup1\n      sload\n      tag_67\n      swap1\n      tag_57\n      jump\t// in\n    tag_67:\n      dup1\n      0x1f\n      add\n      0x20\n      dup1\n      swap2\n      div\n      mul\n      0x20\n      add\n      mload(0x40)\n      swap1\n      dup2\n      add\n      0x40\n      mstore\n      dup1\n      swap3\n      swap2\n      swap1\n      dup2\n      dup2\n      mstore\n      0x20\n      add\n      dup3\n      dup1\n      sload\n      tag_68\n      swap1\n      tag_57\n      jump\t// in\n    tag_68:\n      dup1\n      iszero\n      tag_69\n      jumpi\n      dup1\n      0x1f\n      lt\n      tag_70\n      jumpi\n      0x0100\n      dup1\n      dup4\n      sload\n      div\n      mul\n      dup4\n      mstore\n      swap2\n      0x20\n      add\n      swap2\n      jump(tag_69)\n    tag_70:\n      dup3\n      add\n      swap2\n      swap1\n      0x00\n      mstore\n      keccak256(0x00, 0x20)\n      swap1\n    tag_71:\n      dup2\n      sload\n      dup2\n      mstore\n      swap1\n      0x01\n      add\n      swap1\n      0x20\n      add\n      dup1\n      dup4\n      gt\n      tag_71\n      jumpi\n      dup3\n      swap1\n      sub\n      0x1f\n      and\n      dup3\n      add\n      swap2\n    tag_69:\n      pop\n      pop\n      pop\n      pop\n      pop\n      dup2\n      mstore\n      0x20\n      add\n      0x06\n      dup3\n      add\n      sload\n      dup2\n      mstore\n      0x20\n      add\n      0x07\n      dup3\n      add\n      dup1\n      sload\n      dup1\n      0x20\n      mul\n      0x20\n      add\n      mload(0x40)\n      swap1\n      dup2\n      add\n      0x40\n      mstore\n      dup1\n      swap3\n      swap2\n      swap1\n      dup2\n      dup2\n      mstore\n      0x20\n      add\n      0x00\n      swap1\n    tag_72:\n      dup3\n      dup3\n      lt\n      iszero\n      tag_73\n      jumpi\n      dup4\n      dup3\n      swap1\n      0x00\n      mstore\n      keccak256(0x00, 0x20)\n      add\n      dup1\n      sload\n      tag_75\n      swap1\n      tag_57\n      jump\t// in\n    tag_75:\n      dup1\n      0x1f\n      add\n      0x20\n      dup1\n      swap2\n      div\n      mul\n      0x20\n      add\n      mload(0x40)\n      swap1\n      dup2\n      add\n      0x40\n      mstore\n      dup1\n      swap3\n      swap2\n      swap1\n      dup2\n      dup2\n      mstore\n      0x20\n      add\n      dup3\n      dup1\n      sload\n      tag_76\n      swap1\n      tag_57\n      jump\t// in\n    tag_76:\n      dup1\n      iszero\n      tag_77\n      jumpi\n      dup1\n      0x1f\n      lt\n      tag_78\n      jumpi\n      0x0100\n      dup1\n      dup4\n      sload\n      div\n      mul\n      dup4\n      mstore\n      swap2\n      0x20\n      add\n      swap2\n      jump(tag_77)\n    tag_78:\n      dup3\n      add\n      swap2\n      swap1\n      0x00\n      mstore\n      keccak256(0x00, 0x20)\n      swap1\n    tag_79:\n      dup2\n      sload\n      dup2\n      mstore\n      swap1\n      0x01\n      add\n      swap1\n      0x20\n      add\n      dup1\n      dup4\n      gt\n      tag_79\n      jumpi\n      dup3\n      swap1\n      sub\n      0x1f\n      and\n      dup3\n      add\n      swap2\n    tag_77:\n      pop\n      pop\n      pop\n      pop\n      pop\n      dup2\n      mstore\n      0x20\n      add\n      swap1\n      0x01\n      add\n      swap1\n      jump(tag_72)\n    tag_73:\n      pop\n      pop\n      pop\n      pop\n      dup2\n      mstore\n      pop\n      pop\n      swap1\n      pop\n        /* \"crypto-core/contracts/Vote.sol\":1687:1688  v */\n      dup1\n        /* \"crypto-core/contracts/Vote.sol\":1687:1691  v.id */\n      0x00\n      add\n      mload\n        /* \"crypto-core/contracts/Vote.sol\":1693:1694  v */\n      dup2\n        /* \"crypto-core/contracts/Vote.sol\":1693:1700  v.title */\n      0x20\n      add\n      mload\n        /* \"crypto-core/contracts/Vote.sol\":1702:1703  v */\n      dup3\n        /* \"crypto-core/contracts/Vote.sol\":1702:1715  v.description */\n      0x40\n      add\n      mload\n        /* \"crypto-core/contracts/Vote.sol\":1717:1718  v */\n      dup4\n        /* \"crypto-core/contracts/Vote.sol\":1717:1728  v.startDate */\n      0x60\n      add\n      mload\n        /* \"crypto-core/contracts/Vote.sol\":1730:1731  v */\n      dup5\n        /* \"crypto-core/contracts/Vote.sol\":1730:1739  v.endDate */\n      0x80\n      add\n      mload\n        /* \"crypto-core/contracts/Vote.sol\":1741:1742  v */\n      dup6\n        /* \"crypto-core/contracts/Vote.sol\":1741:1749  v.status */\n      0xa0\n      add\n      mload\n        /* \"crypto-core/contracts/Vote.sol\":1751:1752  v */\n      dup7\n        /* \"crypto-core/contracts/Vote.sol\":1751:1769  v.participantCount */\n      0xc0\n      add\n      mload\n        /* \"crypto-core/contracts/Vote.sol\":1771:1772  v */\n      dup8\n        /* \"crypto-core/contracts/Vote.sol\":1771:1780  v.options */\n      0xe0\n      add\n      mload\n        /* \"crypto-core/contracts/Vote.sol\":1679:1781  return (v.id, v.title, v.description, v.startDate, v.endDate, v.status, v.participantCount, v.options) */\n      swap9\n      pop\n      swap9\n      pop\n      swap9\n      pop\n      swap9\n      pop\n      swap9\n      pop\n      swap9\n      pop\n      swap9\n      pop\n      swap9\n      pop\n      pop\n        /* \"crypto-core/contracts/Vote.sol\":1259:1789  function getVote(uint256 voteId) public view returns (... */\n      swap2\n      swap4\n      swap6\n      swap8\n      pop\n      swap2\n      swap4\n      swap6\n      swap8\n      jump\t// out\n        /* \"crypto-core/contracts/Vote.sol\":417:460  mapping(uint256 => VoteStruct) public votes */\n    tag_23:\n      mstore(0x20, 0x00)\n      dup1\n      0x00\n      mstore\n      keccak256(0x00, 0x40)\n      0x00\n      swap2\n      pop\n      swap1\n      pop\n      dup1\n      0x00\n      add\n      sload\n      swap1\n      dup1\n      0x01\n      add\n      dup1\n      sload\n      tag_80\n      swap1\n      tag_57\n      jump\t// in\n    tag_80:\n      dup1\n      0x1f\n      add\n      0x20\n      dup1\n      swap2\n      div\n      mul\n      0x20\n      add\n      mload(0x40)\n      swap1\n      dup2\n      add\n      0x40\n      mstore\n      dup1\n      swap3\n      swap2\n      swap1\n      dup2\n      dup2\n      mstore\n      0x20\n      add\n      dup3\n      dup1\n      sload\n      tag_81\n      swap1\n      tag_57\n      jump\t// in\n    tag_81:\n      dup1\n      iszero\n      tag_82\n      jumpi\n      dup1\n      0x1f\n      lt\n      tag_83\n      jumpi\n      0x0100\n      dup1\n      dup4\n      sload\n      div\n      mul\n      dup4\n      mstore\n      swap2\n      0x20\n      add\n      swap2\n      jump(tag_82)\n    tag_83:\n      dup3\n      add\n      swap2\n      swap1\n      0x00\n      mstore\n      keccak256(0x00, 0x20)\n      swap1\n    tag_84:\n      dup2\n      sload\n      dup2\n      mstore\n      swap1\n      0x01\n      add\n      swap1\n      0x20\n      add\n      dup1\n      dup4\n      gt\n      tag_84\n      jumpi\n      dup3\n      swap1\n      sub\n      0x1f\n      and\n      dup3\n      add\n      swap2\n    tag_82:\n      pop\n      pop\n      pop\n      pop\n      pop\n      swap1\n      dup1\n      0x02\n      add\n      dup1\n      sload\n      tag_85\n      swap1\n      tag_57\n      jump\t// in\n    tag_85:\n      dup1\n      0x1f\n      add\n      0x20\n      dup1\n      swap2\n      div\n      mul\n      0x20\n      add\n      mload(0x40)\n      swap1\n      dup2\n      add\n      0x40\n      mstore\n      dup1\n      swap3\n      swap2\n      swap1\n      dup2\n      dup2\n      mstore\n      0x20\n      add\n      dup3\n      dup1\n      sload\n      tag_86\n      swap1\n      tag_57\n      jump\t// in\n    tag_86:\n      dup1\n      iszero\n      tag_87\n      jumpi\n      dup1\n      0x1f\n      lt\n      tag_88\n      jumpi\n      0x0100\n      dup1\n      dup4\n      sload\n      div\n      mul\n      dup4\n      mstore\n      swap2\n      0x20\n      add\n      swap2\n      jump(tag_87)\n    tag_88:\n      dup3\n      add\n      swap2\n      swap1\n      0x00\n      mstore\n      keccak256(0x00, 0x20)\n      swap1\n    tag_89:\n      dup2\n      sload\n      dup2\n      mstore\n      swap1\n      0x01\n      add\n      swap1\n      0x20\n      add\n      dup1\n      dup4\n      gt\n      tag_89\n      jumpi\n      dup3\n      swap1\n      sub\n      0x1f\n      and\n      dup3\n      add\n      swap2\n    tag_87:\n      pop\n      pop\n      pop\n      pop\n      pop\n      swap1\n      dup1\n      0x03\n      add\n      sload\n      swap1\n      dup1\n      0x04\n      add\n      sload\n      swap1\n      dup1\n      0x05\n      add\n      dup1\n      sload\n      tag_90\n      swap1\n      tag_57\n      jump\t// in\n    tag_90:\n      dup1\n      0x1f\n      add\n      0x20\n      dup1\n      swap2\n      div\n      mul\n      0x20\n      add\n      mload(0x40)\n      swap1\n      dup2\n      add\n      0x40\n      mstore\n      dup1\n      swap3\n      swap2\n      swap1\n      dup2\n      dup2\n      mstore\n      0x20\n      add\n      dup3\n      dup1\n      sload\n      tag_91\n      swap1\n      tag_57\n      jump\t// in\n    tag_91:\n      dup1\n      iszero\n      tag_92\n      jumpi\n      dup1\n      0x1f\n      lt\n      tag_93\n      jumpi\n      0x0100\n      dup1\n      dup4\n      sload\n      div\n      mul\n      dup4\n      mstore\n      swap2\n      0x20\n      add\n      swap2\n      jump(tag_92)\n    tag_93:\n      dup3\n      add\n      swap2\n      swap1\n      0x00\n      mstore\n      keccak256(0x00, 0x20)\n      swap1\n    tag_94:\n      dup2\n      sload\n      dup2\n      mstore\n      swap1\n      0x01\n      add\n      swap1\n      0x20\n      add\n      dup1\n      dup4\n      gt\n      tag_94\n      jumpi\n      dup3\n      swap1\n      sub\n      0x1f\n      and\n      dup3\n      add\n      swap2\n    tag_92:\n      pop\n      pop\n      pop\n      pop\n      pop\n      swap1\n      dup1\n      0x06\n      add\n      sload\n      swap1\n      pop\n      dup8\n      jump\t// out\n        /* \"crypto-core/contracts/Vote.sol\":2050:2239  function getSecretHolders(uint256 voteId) public view returns (address[] memory) {... */\n    tag_28:\n        /* \"crypto-core/contracts/Vote.sol\":2113:2129  address[] memory */\n      0x60\n        /* \"crypto-core/contracts/Vote.sol\":2159:2168  voteCount */\n      sload(0x02)\n        /* \"crypto-core/contracts/Vote.sol\":2150:2156  voteId */\n      dup3\n        /* \"crypto-core/contracts/Vote.sol\":2150:2168  voteId < voteCount */\n      lt\n        /* \"crypto-core/contracts/Vote.sol\":2142:2192  require(voteId < voteCount, \"Vote does not exist\") */\n      tag_96\n      jumpi\n      mload(0x40)\n      0x08c379a000000000000000000000000000000000000000000000000000000000\n      dup2\n      mstore\n      0x04\n      add\n      tag_97\n      swap1\n      tag_49\n      jump\t// in\n    tag_97:\n      mload(0x40)\n      dup1\n      swap2\n      sub\n      swap1\n      revert\n    tag_96:\n        /* \"crypto-core/contracts/Vote.sol\":2210:2223  secretHolders */\n      0x01\n        /* \"crypto-core/contracts/Vote.sol\":2210:2231  secretHolders[voteId] */\n      0x00\n        /* \"crypto-core/contracts/Vote.sol\":2224:2230  voteId */\n      dup4\n        /* \"crypto-core/contracts/Vote.sol\":2210:2231  secretHolders[voteId] */\n      dup2\n      mstore\n      0x20\n      add\n      swap1\n      dup2\n      mstore\n      0x20\n      add\n      0x00\n      keccak256\n        /* \"crypto-core/contracts/Vote.sol\":2203:2231  return secretHolders[voteId] */\n      dup1\n      sload\n      dup1\n      0x20\n      mul\n      0x20\n      add\n      mload(0x40)\n      swap1\n      dup2\n      add\n      0x40\n      mstore\n      dup1\n      swap3\n      swap2\n      swap1\n      dup2\n      dup2\n      mstore\n      0x20\n      add\n      dup3\n      dup1\n      sload\n      dup1\n      iszero\n      tag_98\n      jumpi\n      0x20\n      mul\n      dup3\n      add\n      swap2\n      swap1\n      0x00\n      mstore\n      keccak256(0x00, 0x20)\n      swap1\n    tag_99:\n      dup2\n      0x00\n      swap1\n      sload\n      swap1\n      0x0100\n      exp\n      swap1\n      div\n      0xffffffffffffffffffffffffffffffffffffffff\n      and\n      0xffffffffffffffffffffffffffffffffffffffff\n      and\n      dup2\n      mstore\n      0x20\n      add\n      swap1\n      0x01\n      add\n      swap1\n      dup1\n      dup4\n      gt\n      tag_99\n      jumpi\n    tag_98:\n      pop\n      pop\n      pop\n      pop\n      pop\n      swap1\n      pop\n        /* \"crypto-core/contracts/Vote.sol\":2050:2239  function getSecretHolders(uint256 voteId) public view returns (address[] memory) {... */\n      swap2\n      swap1\n      pop\n      jump\t// out\n        /* \"crypto-core/contracts/Vote.sol\":747:1251  function createVote(... */\n    tag_34:\n        /* \"crypto-core/contracts/Vote.sol\":1010:1017  uint256 */\n      0x00\n        /* \"crypto-core/contracts/Vote.sol\":1049:1145  VoteStruct(voteCount, title, description, startDate, endDate, status, participantCount, options) */\n      mload(0x40)\n      dup1\n      0x0100\n      add\n      0x40\n      mstore\n      dup1\n        /* \"crypto-core/contracts/Vote.sol\":1060:1069  voteCount */\n      sload(0x02)\n        /* \"crypto-core/contracts/Vote.sol\":1049:1145  VoteStruct(voteCount, title, description, startDate, endDate, status, participantCount, options) */\n      dup2\n      mstore\n      0x20\n      add\n        /* \"crypto-core/contracts/Vote.sol\":1071:1076  title */\n      dup10\n        /* \"crypto-core/contracts/Vote.sol\":1049:1145  VoteStruct(voteCount, title, description, startDate, endDate, status, participantCount, options) */\n      dup2\n      mstore\n      0x20\n      add\n        /* \"crypto-core/contracts/Vote.sol\":1078:1089  description */\n      dup9\n        /* \"crypto-core/contracts/Vote.sol\":1049:1145  VoteStruct(voteCount, title, description, startDate, endDate, status, participantCount, options) */\n      dup2\n      mstore\n      0x20\n      add\n        /* \"crypto-core/contracts/Vote.sol\":1091:1100  startDate */\n      dup8\n        /* \"crypto-core/contracts/Vote.sol\":1049:1145  VoteStruct(voteCount, title, description, startDate, endDate, status, participantCount, options) */\n      dup2\n      mstore\n      0x20\n      add\n        /* \"crypto-core/contracts/Vote.sol\":1102:1109  endDate */\n      dup7\n        /* \"crypto-core/contracts/Vote.sol\":1049:1145  VoteStruct(voteCount, title, description, startDate, endDate, status, participantCount, options) */\n      dup2\n      mstore\n      0x20\n      add\n        /* \"crypto-core/contracts/Vote.sol\":1111:1117  status */\n      dup6\n        /* \"crypto-core/contracts/Vote.sol\":1049:1145  VoteStruct(voteCount, title, description, startDate, endDate, status, participantCount, options) */\n      dup2\n      mstore\n      0x20\n      add\n        /* \"crypto-core/contracts/Vote.sol\":1119:1135  participantCount */\n      dup5\n        /* \"crypto-core/contracts/Vote.sol\":1049:1145  VoteStruct(voteCount, title, description, startDate, endDate, status, participantCount, options) */\n      dup2\n      mstore\n      0x20\n      add\n        /* \"crypto-core/contracts/Vote.sol\":1137:1144  options */\n      dup4\n        /* \"crypto-core/contracts/Vote.sol\":1049:1145  VoteStruct(voteCount, title, description, startDate, endDate, status, participantCount, options) */\n      dup2\n      mstore\n      pop\n        /* \"crypto-core/contracts/Vote.sol\":1030:1035  votes */\n      0x00\n        /* \"crypto-core/contracts/Vote.sol\":1030:1046  votes[voteCount] */\n      0x00\n        /* \"crypto-core/contracts/Vote.sol\":1036:1045  voteCount */\n      sload(0x02)\n        /* \"crypto-core/contracts/Vote.sol\":1030:1046  votes[voteCount] */\n      dup2\n      mstore\n      0x20\n      add\n      swap1\n      dup2\n      mstore\n      0x20\n      add\n      0x00\n      keccak256\n        /* \"crypto-core/contracts/Vote.sol\":1030:1145  votes[voteCount] = VoteStruct(voteCount, title, description, startDate, endDate, status, participantCount, options) */\n      0x00\n      dup3\n      add\n      mload\n      dup2\n      0x00\n      add\n      sstore\n      0x20\n      dup3\n      add\n      mload\n      dup2\n      0x01\n      add\n      swap1\n      dup2\n      tag_101\n      swap2\n      swap1\n      tag_102\n      jump\t// in\n    tag_101:\n      pop\n      0x40\n      dup3\n      add\n      mload\n      dup2\n      0x02\n      add\n      swap1\n      dup2\n      tag_103\n      swap2\n      swap1\n      tag_102\n      jump\t// in\n    tag_103:\n      pop\n      0x60\n      dup3\n      add\n      mload\n      dup2\n      0x03\n      add\n      sstore\n      0x80\n      dup3\n      add\n      mload\n      dup2\n      0x04\n      add\n      sstore\n      0xa0\n      dup3\n      add\n      mload\n      dup2\n      0x05\n      add\n      swap1\n      dup2\n      tag_104\n      swap2\n      swap1\n      tag_102\n      jump\t// in\n    tag_104:\n      pop\n      0xc0\n      dup3\n      add\n      mload\n      dup2\n      0x06\n      add\n      sstore\n      0xe0\n      dup3\n      add\n      mload\n      dup2\n      0x07\n      add\n      swap1\n      dup1\n      mload\n      swap1\n      0x20\n      add\n      swap1\n      tag_105\n      swap3\n      swap2\n      swap1\n      tag_106\n      jump\t// in\n    tag_105:\n      pop\n      swap1\n      pop\n      pop\n        /* \"crypto-core/contracts/Vote.sol\":1161:1190  VoteCreated(voteCount, title) */\n      0x8225b3ad6e66d4c2342e977fbab464beaf3ae9d33b222938cff268dfd7b55b83\n        /* \"crypto-core/contracts/Vote.sol\":1173:1182  voteCount */\n      sload(0x02)\n        /* \"crypto-core/contracts/Vote.sol\":1184:1189  title */\n      dup10\n        /* \"crypto-core/contracts/Vote.sol\":1161:1190  VoteCreated(voteCount, title) */\n      mload(0x40)\n      tag_107\n      swap3\n      swap2\n      swap1\n      tag_108\n      jump\t// in\n    tag_107:\n      mload(0x40)\n      dup1\n      swap2\n      sub\n      swap1\n      log1\n        /* \"crypto-core/contracts/Vote.sol\":1201:1210  voteCount */\n      0x02\n      0x00\n        /* \"crypto-core/contracts/Vote.sol\":1201:1212  voteCount++ */\n      dup2\n      sload\n      dup1\n      swap3\n      swap2\n      swap1\n      tag_109\n      swap1\n      tag_110\n      jump\t// in\n    tag_109:\n      swap2\n      swap1\n      pop\n      sstore\n      pop\n        /* \"crypto-core/contracts/Vote.sol\":1242:1243  1 */\n      0x01\n        /* \"crypto-core/contracts/Vote.sol\":1230:1239  voteCount */\n      sload(0x02)\n        /* \"crypto-core/contracts/Vote.sol\":1230:1243  voteCount - 1 */\n      tag_111\n      swap2\n      swap1\n      tag_112\n      jump\t// in\n    tag_111:\n        /* \"crypto-core/contracts/Vote.sol\":1223:1243  return voteCount - 1 */\n      swap1\n      pop\n        /* \"crypto-core/contracts/Vote.sol\":747:1251  function createVote(... */\n      swap8\n      swap7\n      pop\n      pop\n      pop\n      pop\n      pop\n      pop\n      pop\n      jump\t// out\n        /* \"crypto-core/contracts/Vote.sol\":594:618  uint256 public voteCount */\n    tag_38:\n      sload(0x02)\n      dup2\n      jump\t// out\n        /* \"crypto-core/contracts/Vote.sol\":494:544  mapping(uint256 => address[]) public secretHolders */\n    tag_43:\n      mstore(0x20, 0x01)\n      dup2\n      0x00\n      mstore\n      keccak256(0x00, 0x40)\n      dup2\n      dup2\n      sload\n      dup2\n      lt\n      tag_113\n      jumpi\n      0x00\n      dup1\n      revert\n    tag_113:\n      swap1\n      0x00\n      mstore\n      keccak256(0x00, 0x20)\n      add\n      0x00\n      swap2\n      pop\n      swap2\n      pop\n      swap1\n      sload\n      swap1\n      0x0100\n      exp\n      swap1\n      div\n      0xffffffffffffffffffffffffffffffffffffffff\n      and\n      dup2\n      jump\t// out\n    tag_106:\n      dup3\n      dup1\n      sload\n      dup3\n      dup3\n      sstore\n      swap1\n      0x00\n      mstore\n      keccak256(0x00, 0x20)\n      swap1\n      dup2\n      add\n      swap3\n      dup3\n      iszero\n      tag_115\n      jumpi\n      swap2\n      0x20\n      mul\n      dup3\n      add\n    tag_116:\n      dup3\n      dup2\n      gt\n      iszero\n      tag_117\n      jumpi\n      dup3\n      mload\n      dup3\n      swap1\n      dup2\n      tag_118\n      swap2\n      swap1\n      tag_102\n      jump\t// in\n    tag_118:\n      pop\n      swap2\n      0x20\n      add\n      swap2\n      swap1\n      0x01\n      add\n      swap1\n      jump(tag_116)\n    tag_117:\n    tag_115:\n      pop\n      swap1\n      pop\n      tag_119\n      swap2\n      swap1\n      tag_120\n      jump\t// in\n    tag_119:\n      pop\n      swap1\n      jump\t// out\n    tag_120:\n    tag_121:\n      dup1\n      dup3\n      gt\n      iszero\n      tag_122\n      jumpi\n      0x00\n      dup2\n      dup2\n      tag_123\n      swap2\n      swap1\n      tag_124\n      jump\t// in\n    tag_123:\n      pop\n      0x01\n      add\n      jump(tag_121)\n    tag_122:\n      pop\n      swap1\n      jump\t// out\n    tag_124:\n      pop\n      dup1\n      sload\n      tag_125\n      swap1\n      tag_57\n      jump\t// in\n    tag_125:\n      0x00\n      dup3\n      sstore\n      dup1\n      0x1f\n      lt\n      tag_127\n      jumpi\n      pop\n      jump(tag_126)\n    tag_127:\n      0x1f\n      add\n      0x20\n      swap1\n      div\n      swap1\n      0x00\n      mstore\n      keccak256(0x00, 0x20)\n      swap1\n      dup2\n      add\n      swap1\n      tag_128\n      swap2\n      swap1\n      tag_129\n      jump\t// in\n    tag_128:\n    tag_126:\n      pop\n      jump\t// out\n    tag_129:\n    tag_130:\n      dup1\n      dup3\n      gt\n      iszero\n      tag_131\n      jumpi\n      0x00\n      dup2\n      0x00\n      swap1\n      sstore\n      pop\n      0x01\n      add\n      jump(tag_130)\n    tag_131:\n      pop\n      swap1\n      jump\t// out\n        /* \"#utility.yul\":7:82   */\n    tag_132:\n        /* \"#utility.yul\":40:46   */\n      0x00\n        /* \"#utility.yul\":73:75   */\n      0x40\n        /* \"#utility.yul\":67:76   */\n      mload\n        /* \"#utility.yul\":57:76   */\n      swap1\n      pop\n        /* \"#utility.yul\":7:82   */\n      swap1\n      jump\t// out\n        /* \"#utility.yul\":88:205   */\n    tag_133:\n        /* \"#utility.yul\":197:198   */\n      0x00\n        /* \"#utility.yul\":194:195   */\n      0x00\n        /* \"#utility.yul\":187:199   */\n      revert\n        /* \"#utility.yul\":211:328   */\n    tag_134:\n        /* \"#utility.yul\":320:321   */\n      0x00\n        /* \"#utility.yul\":317:318   */\n      0x00\n        /* \"#utility.yul\":310:322   */\n      revert\n        /* \"#utility.yul\":334:411   */\n    tag_135:\n        /* \"#utility.yul\":371:378   */\n      0x00\n        /* \"#utility.yul\":400:405   */\n      dup2\n        /* \"#utility.yul\":389:405   */\n      swap1\n      pop\n        /* \"#utility.yul\":334:411   */\n      swap2\n      swap1\n      pop\n      jump\t// out\n        /* \"#utility.yul\":417:539   */\n    tag_136:\n        /* \"#utility.yul\":490:514   */\n      tag_202\n        /* \"#utility.yul\":508:513   */\n      dup2\n        /* \"#utility.yul\":490:514   */\n      tag_135\n      jump\t// in\n    tag_202:\n        /* \"#utility.yul\":483:488   */\n      dup2\n        /* \"#utility.yul\":480:515   */\n      eq\n        /* \"#utility.yul\":470:533   */\n      tag_203\n      jumpi\n        /* \"#utility.yul\":529:530   */\n      0x00\n        /* \"#utility.yul\":526:527   */\n      0x00\n        /* \"#utility.yul\":519:531   */\n      revert\n        /* \"#utility.yul\":470:533   */\n    tag_203:\n        /* \"#utility.yul\":417:539   */\n      pop\n      jump\t// out\n        /* \"#utility.yul\":545:684   */\n    tag_137:\n        /* \"#utility.yul\":591:596   */\n      0x00\n        /* \"#utility.yul\":629:635   */\n      dup2\n        /* \"#utility.yul\":616:636   */\n      calldataload\n        /* \"#utility.yul\":607:636   */\n      swap1\n      pop\n        /* \"#utility.yul\":645:678   */\n      tag_205\n        /* \"#utility.yul\":672:677   */\n      dup2\n        /* \"#utility.yul\":645:678   */\n      tag_136\n      jump\t// in\n    tag_205:\n        /* \"#utility.yul\":545:684   */\n      swap3\n      swap2\n      pop\n      pop\n      jump\t// out\n        /* \"#utility.yul\":690:816   */\n    tag_138:\n        /* \"#utility.yul\":727:734   */\n      0x00\n        /* \"#utility.yul\":767:809   */\n      0xffffffffffffffffffffffffffffffffffffffff\n        /* \"#utility.yul\":760:765   */\n      dup3\n        /* \"#utility.yul\":756:810   */\n      and\n        /* \"#utility.yul\":745:810   */\n      swap1\n      pop\n        /* \"#utility.yul\":690:816   */\n      swap2\n      swap1\n      pop\n      jump\t// out\n        /* \"#utility.yul\":822:918   */\n    tag_139:\n        /* \"#utility.yul\":859:866   */\n      0x00\n        /* \"#utility.yul\":888:912   */\n      tag_208\n        /* \"#utility.yul\":906:911   */\n      dup3\n        /* \"#utility.yul\":888:912   */\n      tag_138\n      jump\t// in\n    tag_208:\n        /* \"#utility.yul\":877:912   */\n      swap1\n      pop\n        /* \"#utility.yul\":822:918   */\n      swap2\n      swap1\n      pop\n      jump\t// out\n        /* \"#utility.yul\":924:1046   */\n    tag_140:\n        /* \"#utility.yul\":997:1021   */\n      tag_210\n        /* \"#utility.yul\":1015:1020   */\n      dup2\n        /* \"#utility.yul\":997:1021   */\n      tag_139\n      jump\t// in\n    tag_210:\n        /* \"#utility.yul\":990:995   */\n      dup2\n        /* \"#utility.yul\":987:1022   */\n      eq\n        /* \"#utility.yul\":977:1040   */\n      tag_211\n      jumpi\n        /* \"#utility.yul\":1036:1037   */\n      0x00\n        /* \"#utility.yul\":1033:1034   */\n      0x00\n        /* \"#utility.yul\":1026:1038   */\n      revert\n        /* \"#utility.yul\":977:1040   */\n    tag_211:\n        /* \"#utility.yul\":924:1046   */\n      pop\n      jump\t// out\n        /* \"#utility.yul\":1052:1191   */\n    tag_141:\n        /* \"#utility.yul\":1098:1103   */\n      0x00\n        /* \"#utility.yul\":1136:1142   */\n      dup2\n        /* \"#utility.yul\":1123:1143   */\n      calldataload\n        /* \"#utility.yul\":1114:1143   */\n      swap1\n      pop\n        /* \"#utility.yul\":1152:1185   */\n      tag_213\n        /* \"#utility.yul\":1179:1184   */\n      dup2\n        /* \"#utility.yul\":1152:1185   */\n      tag_140\n      jump\t// in\n    tag_213:\n        /* \"#utility.yul\":1052:1191   */\n      swap3\n      swap2\n      pop\n      pop\n      jump\t// out\n        /* \"#utility.yul\":1197:1671   */\n    tag_13:\n        /* \"#utility.yul\":1265:1271   */\n      0x00\n        /* \"#utility.yul\":1273:1279   */\n      0x00\n        /* \"#utility.yul\":1322:1324   */\n      0x40\n        /* \"#utility.yul\":1310:1319   */\n      dup4\n        /* \"#utility.yul\":1301:1308   */\n      dup6\n        /* \"#utility.yul\":1297:1320   */\n      sub\n        /* \"#utility.yul\":1293:1325   */\n      slt\n        /* \"#utility.yul\":1290:1409   */\n      iszero\n      tag_215\n      jumpi\n        /* \"#utility.yul\":1328:1407   */\n      tag_216\n      tag_133\n      jump\t// in\n    tag_216:\n        /* \"#utility.yul\":1290:1409   */\n    tag_215:\n        /* \"#utility.yul\":1448:1449   */\n      0x00\n        /* \"#utility.yul\":1473:1526   */\n      tag_217\n        /* \"#utility.yul\":1518:1525   */\n      dup6\n        /* \"#utility.yul\":1509:1515   */\n      dup3\n        /* \"#utility.yul\":1498:1507   */\n      dup7\n        /* \"#utility.yul\":1494:1516   */\n      add\n        /* \"#utility.yul\":1473:1526   */\n      tag_137\n      jump\t// in\n    tag_217:\n        /* \"#utility.yul\":1463:1526   */\n      swap3\n      pop\n        /* \"#utility.yul\":1419:1536   */\n      pop\n        /* \"#utility.yul\":1575:1577   */\n      0x20\n        /* \"#utility.yul\":1601:1654   */\n      tag_218\n        /* \"#utility.yul\":1646:1653   */\n      dup6\n        /* \"#utility.yul\":1637:1643   */\n      dup3\n        /* \"#utility.yul\":1626:1635   */\n      dup7\n        /* \"#utility.yul\":1622:1644   */\n      add\n        /* \"#utility.yul\":1601:1654   */\n      tag_141\n      jump\t// in\n    tag_218:\n        /* \"#utility.yul\":1591:1654   */\n      swap2\n      pop\n        /* \"#utility.yul\":1546:1664   */\n      pop\n        /* \"#utility.yul\":1197:1671   */\n      swap3\n      pop\n      swap3\n      swap1\n      pop\n      jump\t// out\n        /* \"#utility.yul\":1677:2006   */\n    tag_17:\n        /* \"#utility.yul\":1736:1742   */\n      0x00\n        /* \"#utility.yul\":1785:1787   */\n      0x20\n        /* \"#utility.yul\":1773:1782   */\n      dup3\n        /* \"#utility.yul\":1764:1771   */\n      dup5\n        /* \"#utility.yul\":1760:1783   */\n      sub\n        /* \"#utility.yul\":1756:1788   */\n      slt\n        /* \"#utility.yul\":1753:1872   */\n      iszero\n      tag_220\n      jumpi\n        /* \"#utility.yul\":1791:1870   */\n      tag_221\n      tag_133\n      jump\t// in\n    tag_221:\n        /* \"#utility.yul\":1753:1872   */\n    tag_220:\n        /* \"#utility.yul\":1911:1912   */\n      0x00\n        /* \"#utility.yul\":1936:1989   */\n      tag_222\n        /* \"#utility.yul\":1981:1988   */\n      dup5\n        /* \"#utility.yul\":1972:1978   */\n      dup3\n        /* \"#utility.yul\":1961:1970   */\n      dup6\n        /* \"#utility.yul\":1957:1979   */\n      add\n        /* \"#utility.yul\":1936:1989   */\n      tag_137\n      jump\t// in\n    tag_222:\n        /* \"#utility.yul\":1926:1989   */\n      swap2\n      pop\n        /* \"#utility.yul\":1882:1999   */\n      pop\n        /* \"#utility.yul\":1677:2006   */\n      swap3\n      swap2\n      pop\n      pop\n      jump\t// out\n        /* \"#utility.yul\":2012:2130   */\n    tag_142:\n        /* \"#utility.yul\":2099:2123   */\n      tag_224\n        /* \"#utility.yul\":2117:2122   */\n      dup2\n        /* \"#utility.yul\":2099:2123   */\n      tag_135\n      jump\t// in\n    tag_224:\n        /* \"#utility.yul\":2094:2097   */\n      dup3\n        /* \"#utility.yul\":2087:2124   */\n      mstore\n        /* \"#utility.yul\":2012:2130   */\n      pop\n      pop\n      jump\t// out\n        /* \"#utility.yul\":2136:2235   */\n    tag_143:\n        /* \"#utility.yul\":2188:2194   */\n      0x00\n        /* \"#utility.yul\":2222:2227   */\n      dup2\n        /* \"#utility.yul\":2216:2228   */\n      mload\n        /* \"#utility.yul\":2206:2228   */\n      swap1\n      pop\n        /* \"#utility.yul\":2136:2235   */\n      swap2\n      swap1\n      pop\n      jump\t// out\n        /* \"#utility.yul\":2241:2410   */\n    tag_144:\n        /* \"#utility.yul\":2325:2336   */\n      0x00\n        /* \"#utility.yul\":2359:2365   */\n      dup3\n        /* \"#utility.yul\":2354:2357   */\n      dup3\n        /* \"#utility.yul\":2347:2366   */\n      mstore\n        /* \"#utility.yul\":2399:2403   */\n      0x20\n        /* \"#utility.yul\":2394:2397   */\n      dup3\n        /* \"#utility.yul\":2390:2404   */\n      add\n        /* \"#utility.yul\":2375:2404   */\n      swap1\n      pop\n        /* \"#utility.yul\":2241:2410   */\n      swap3\n      swap2\n      pop\n      pop\n      jump\t// out\n        /* \"#utility.yul\":2416:2555   */\n    tag_145:\n        /* \"#utility.yul\":2505:2511   */\n      dup3\n        /* \"#utility.yul\":2500:2503   */\n      dup2\n        /* \"#utility.yul\":2495:2498   */\n      dup4\n        /* \"#utility.yul\":2489:2512   */\n      mcopy\n        /* \"#utility.yul\":2546:2547   */\n      0x00\n        /* \"#utility.yul\":2537:2543   */\n      dup4\n        /* \"#utility.yul\":2532:2535   */\n      dup4\n        /* \"#utility.yul\":2528:2544   */\n      add\n        /* \"#utility.yul\":2521:2548   */\n      mstore\n        /* \"#utility.yul\":2416:2555   */\n      pop\n      pop\n      pop\n      jump\t// out\n        /* \"#utility.yul\":2561:2663   */\n    tag_146:\n        /* \"#utility.yul\":2602:2608   */\n      0x00\n        /* \"#utility.yul\":2653:2655   */\n      0x1f\n        /* \"#utility.yul\":2649:2656   */\n      not\n        /* \"#utility.yul\":2644:2646   */\n      0x1f\n        /* \"#utility.yul\":2637:2642   */\n      dup4\n        /* \"#utility.yul\":2633:2647   */\n      add\n        /* \"#utility.yul\":2629:2657   */\n      and\n        /* \"#utility.yul\":2619:2657   */\n      swap1\n      pop\n        /* \"#utility.yul\":2561:2663   */\n      swap2\n      swap1\n      pop\n      jump\t// out\n        /* \"#utility.yul\":2669:3046   */\n    tag_147:\n        /* \"#utility.yul\":2757:2760   */\n      0x00\n        /* \"#utility.yul\":2785:2824   */\n      tag_230\n        /* \"#utility.yul\":2818:2823   */\n      dup3\n        /* \"#utility.yul\":2785:2824   */\n      tag_143\n      jump\t// in\n    tag_230:\n        /* \"#utility.yul\":2840:2911   */\n      tag_231\n        /* \"#utility.yul\":2904:2910   */\n      dup2\n        /* \"#utility.yul\":2899:2902   */\n      dup6\n        /* \"#utility.yul\":2840:2911   */\n      tag_144\n      jump\t// in\n    tag_231:\n        /* \"#utility.yul\":2833:2911   */\n      swap4\n      pop\n        /* \"#utility.yul\":2920:2985   */\n      tag_232\n        /* \"#utility.yul\":2978:2984   */\n      dup2\n        /* \"#utility.yul\":2973:2976   */\n      dup6\n        /* \"#utility.yul\":2966:2970   */\n      0x20\n        /* \"#utility.yul\":2959:2964   */\n      dup7\n        /* \"#utility.yul\":2955:2971   */\n      add\n        /* \"#utility.yul\":2920:2985   */\n      tag_145\n      jump\t// in\n    tag_232:\n        /* \"#utility.yul\":3010:3039   */\n      tag_233\n        /* \"#utility.yul\":3032:3038   */\n      dup2\n        /* \"#utility.yul\":3010:3039   */\n      tag_146\n      jump\t// in\n    tag_233:\n        /* \"#utility.yul\":3005:3008   */\n      dup5\n        /* \"#utility.yul\":3001:3040   */\n      add\n        /* \"#utility.yul\":2994:3040   */\n      swap2\n      pop\n        /* \"#utility.yul\":2761:3046   */\n      pop\n        /* \"#utility.yul\":2669:3046   */\n      swap3\n      swap2\n      pop\n      pop\n      jump\t// out\n        /* \"#utility.yul\":3052:3176   */\n    tag_148:\n        /* \"#utility.yul\":3129:3135   */\n      0x00\n        /* \"#utility.yul\":3163:3168   */\n      dup2\n        /* \"#utility.yul\":3157:3169   */\n      mload\n        /* \"#utility.yul\":3147:3169   */\n      swap1\n      pop\n        /* \"#utility.yul\":3052:3176   */\n      swap2\n      swap1\n      pop\n      jump\t// out\n        /* \"#utility.yul\":3182:3376   */\n    tag_149:\n        /* \"#utility.yul\":3291:3302   */\n      0x00\n        /* \"#utility.yul\":3325:3331   */\n      dup3\n        /* \"#utility.yul\":3320:3323   */\n      dup3\n        /* \"#utility.yul\":3313:3332   */\n      mstore\n        /* \"#utility.yul\":3365:3369   */\n      0x20\n        /* \"#utility.yul\":3360:3363   */\n      dup3\n        /* \"#utility.yul\":3356:3370   */\n      add\n        /* \"#utility.yul\":3341:3370   */\n      swap1\n      pop\n        /* \"#utility.yul\":3182:3376   */\n      swap3\n      swap2\n      pop\n      pop\n      jump\t// out\n        /* \"#utility.yul\":3382:3524   */\n    tag_150:\n        /* \"#utility.yul\":3459:3463   */\n      0x00\n        /* \"#utility.yul\":3482:3485   */\n      dup2\n        /* \"#utility.yul\":3474:3485   */\n      swap1\n      pop\n        /* \"#utility.yul\":3512:3516   */\n      0x20\n        /* \"#utility.yul\":3507:3510   */\n      dup3\n        /* \"#utility.yul\":3503:3517   */\n      add\n        /* \"#utility.yul\":3495:3517   */\n      swap1\n      pop\n        /* \"#utility.yul\":3382:3524   */\n      swap2\n      swap1\n      pop\n      jump\t// out\n        /* \"#utility.yul\":3530:3689   */\n    tag_151:\n        /* \"#utility.yul\":3604:3615   */\n      0x00\n        /* \"#utility.yul\":3638:3644   */\n      dup3\n        /* \"#utility.yul\":3633:3636   */\n      dup3\n        /* \"#utility.yul\":3626:3645   */\n      mstore\n        /* \"#utility.yul\":3678:3682   */\n      0x20\n        /* \"#utility.yul\":3673:3676   */\n      dup3\n        /* \"#utility.yul\":3669:3683   */\n      add\n        /* \"#utility.yul\":3654:3683   */\n      swap1\n      pop\n        /* \"#utility.yul\":3530:3689   */\n      swap3\n      swap2\n      pop\n      pop\n      jump\t// out\n        /* \"#utility.yul\":3695:4052   */\n    tag_152:\n        /* \"#utility.yul\":3773:3776   */\n      0x00\n        /* \"#utility.yul\":3801:3840   */\n      tag_239\n        /* \"#utility.yul\":3834:3839   */\n      dup3\n        /* \"#utility.yul\":3801:3840   */\n      tag_143\n      jump\t// in\n    tag_239:\n        /* \"#utility.yul\":3856:3917   */\n      tag_240\n        /* \"#utility.yul\":3910:3916   */\n      dup2\n        /* \"#utility.yul\":3905:3908   */\n      dup6\n        /* \"#utility.yul\":3856:3917   */\n      tag_151\n      jump\t// in\n    tag_240:\n        /* \"#utility.yul\":3849:3917   */\n      swap4\n      pop\n        /* \"#utility.yul\":3926:3991   */\n      tag_241\n        /* \"#utility.yul\":3984:3990   */\n      dup2\n        /* \"#utility.yul\":3979:3982   */\n      dup6\n        /* \"#utility.yul\":3972:3976   */\n      0x20\n        /* \"#utility.yul\":3965:3970   */\n      dup7\n        /* \"#utility.yul\":3961:3977   */\n      add\n        /* \"#utility.yul\":3926:3991   */\n      tag_145\n      jump\t// in\n    tag_241:\n        /* \"#utility.yul\":4016:4045   */\n      tag_242\n        /* \"#utility.yul\":4038:4044   */\n      dup2\n        /* \"#utility.yul\":4016:4045   */\n      tag_146\n      jump\t// in\n    tag_242:\n        /* \"#utility.yul\":4011:4014   */\n      dup5\n        /* \"#utility.yul\":4007:4046   */\n      add\n        /* \"#utility.yul\":4000:4046   */\n      swap2\n      pop\n        /* \"#utility.yul\":3777:4052   */\n      pop\n        /* \"#utility.yul\":3695:4052   */\n      swap3\n      swap2\n      pop\n      pop\n      jump\t// out\n        /* \"#utility.yul\":4058:4254   */\n    tag_153:\n        /* \"#utility.yul\":4147:4157   */\n      0x00\n        /* \"#utility.yul\":4182:4248   */\n      tag_244\n        /* \"#utility.yul\":4244:4247   */\n      dup4\n        /* \"#utility.yul\":4236:4242   */\n      dup4\n        /* \"#utility.yul\":4182:4248   */\n      tag_152\n      jump\t// in\n    tag_244:\n        /* \"#utility.yul\":4168:4248   */\n      swap1\n      pop\n        /* \"#utility.yul\":4058:4254   */\n      swap3\n      swap2\n      pop\n      pop\n      jump\t// out\n        /* \"#utility.yul\":4260:4383   */\n    tag_154:\n        /* \"#utility.yul\":4340:4344   */\n      0x00\n        /* \"#utility.yul\":4372:4376   */\n      0x20\n        /* \"#utility.yul\":4367:4370   */\n      dup3\n        /* \"#utility.yul\":4363:4377   */\n      add\n        /* \"#utility.yul\":4355:4377   */\n      swap1\n      pop\n        /* \"#utility.yul\":4260:4383   */\n      swap2\n      swap1\n      pop\n      jump\t// out\n        /* \"#utility.yul\":4417:5408   */\n    tag_155:\n        /* \"#utility.yul\":4556:4559   */\n      0x00\n        /* \"#utility.yul\":4585:4649   */\n      tag_247\n        /* \"#utility.yul\":4643:4648   */\n      dup3\n        /* \"#utility.yul\":4585:4649   */\n      tag_148\n      jump\t// in\n    tag_247:\n        /* \"#utility.yul\":4665:4761   */\n      tag_248\n        /* \"#utility.yul\":4754:4760   */\n      dup2\n        /* \"#utility.yul\":4749:4752   */\n      dup6\n        /* \"#utility.yul\":4665:4761   */\n      tag_149\n      jump\t// in\n    tag_248:\n        /* \"#utility.yul\":4658:4761   */\n      swap4\n      pop\n        /* \"#utility.yul\":4787:4790   */\n      dup4\n        /* \"#utility.yul\":4832:4836   */\n      0x20\n        /* \"#utility.yul\":4824:4830   */\n      dup3\n        /* \"#utility.yul\":4820:4837   */\n      mul\n        /* \"#utility.yul\":4815:4818   */\n      dup6\n        /* \"#utility.yul\":4811:4838   */\n      add\n        /* \"#utility.yul\":4862:4928   */\n      tag_249\n        /* \"#utility.yul\":4922:4927   */\n      dup6\n        /* \"#utility.yul\":4862:4928   */\n      tag_150\n      jump\t// in\n    tag_249:\n        /* \"#utility.yul\":4951:4958   */\n      dup1\n        /* \"#utility.yul\":4982:4983   */\n      0x00\n        /* \"#utility.yul\":4967:5363   */\n    tag_250:\n        /* \"#utility.yul\":4992:4998   */\n      dup6\n        /* \"#utility.yul\":4989:4990   */\n      dup2\n        /* \"#utility.yul\":4986:4999   */\n      lt\n        /* \"#utility.yul\":4967:5363   */\n      iszero\n      tag_252\n      jumpi\n        /* \"#utility.yul\":5063:5072   */\n      dup5\n        /* \"#utility.yul\":5057:5061   */\n      dup5\n        /* \"#utility.yul\":5053:5073   */\n      sub\n        /* \"#utility.yul\":5048:5051   */\n      dup10\n        /* \"#utility.yul\":5041:5074   */\n      mstore\n        /* \"#utility.yul\":5114:5120   */\n      dup2\n        /* \"#utility.yul\":5108:5121   */\n      mload\n        /* \"#utility.yul\":5142:5226   */\n      tag_253\n        /* \"#utility.yul\":5221:5225   */\n      dup6\n        /* \"#utility.yul\":5206:5219   */\n      dup3\n        /* \"#utility.yul\":5142:5226   */\n      tag_153\n      jump\t// in\n    tag_253:\n        /* \"#utility.yul\":5134:5226   */\n      swap5\n      pop\n        /* \"#utility.yul\":5249:5319   */\n      tag_254\n        /* \"#utility.yul\":5312:5318   */\n      dup4\n        /* \"#utility.yul\":5249:5319   */\n      tag_154\n      jump\t// in\n    tag_254:\n        /* \"#utility.yul\":5239:5319   */\n      swap3\n      pop\n        /* \"#utility.yul\":5348:5352   */\n      0x20\n        /* \"#utility.yul\":5343:5346   */\n      dup11\n        /* \"#utility.yul\":5339:5353   */\n      add\n        /* \"#utility.yul\":5332:5353   */\n      swap10\n      pop\n        /* \"#utility.yul\":5027:5363   */\n      pop\n        /* \"#utility.yul\":5014:5015   */\n      0x01\n        /* \"#utility.yul\":5011:5012   */\n      dup2\n        /* \"#utility.yul\":5007:5016   */\n      add\n        /* \"#utility.yul\":5002:5016   */\n      swap1\n      pop\n        /* \"#utility.yul\":4967:5363   */\n      jump(tag_250)\n    tag_252:\n        /* \"#utility.yul\":4971:4985   */\n      pop\n        /* \"#utility.yul\":5379:5383   */\n      dup3\n        /* \"#utility.yul\":5372:5383   */\n      swap8\n      pop\n        /* \"#utility.yul\":5399:5402   */\n      dup8\n        /* \"#utility.yul\":5392:5402   */\n      swap6\n      pop\n        /* \"#utility.yul\":4561:5408   */\n      pop\n      pop\n      pop\n      pop\n      pop\n        /* \"#utility.yul\":4417:5408   */\n      swap3\n      swap2\n      pop\n      pop\n      jump\t// out\n        /* \"#utility.yul\":5414:6875   */\n    tag_20:\n        /* \"#utility.yul\":5833:5837   */\n      0x00\n        /* \"#utility.yul\":5871:5874   */\n      0x0100\n        /* \"#utility.yul\":5860:5869   */\n      dup3\n        /* \"#utility.yul\":5856:5875   */\n      add\n        /* \"#utility.yul\":5848:5875   */\n      swap1\n      pop\n        /* \"#utility.yul\":5885:5956   */\n      tag_256\n        /* \"#utility.yul\":5953:5954   */\n      0x00\n        /* \"#utility.yul\":5942:5951   */\n      dup4\n        /* \"#utility.yul\":5938:5955   */\n      add\n        /* \"#utility.yul\":5929:5935   */\n      dup12\n        /* \"#utility.yul\":5885:5956   */\n      tag_142\n      jump\t// in\n    tag_256:\n        /* \"#utility.yul\":6003:6012   */\n      dup2\n        /* \"#utility.yul\":5997:6001   */\n      dup2\n        /* \"#utility.yul\":5993:6013   */\n      sub\n        /* \"#utility.yul\":5988:5990   */\n      0x20\n        /* \"#utility.yul\":5977:5986   */\n      dup4\n        /* \"#utility.yul\":5973:5991   */\n      add\n        /* \"#utility.yul\":5966:6014   */\n      mstore\n        /* \"#utility.yul\":6031:6109   */\n      tag_257\n        /* \"#utility.yul\":6104:6108   */\n      dup2\n        /* \"#utility.yul\":6095:6101   */\n      dup11\n        /* \"#utility.yul\":6031:6109   */\n      tag_147\n      jump\t// in\n    tag_257:\n        /* \"#utility.yul\":6023:6109   */\n      swap1\n      pop\n        /* \"#utility.yul\":6156:6165   */\n      dup2\n        /* \"#utility.yul\":6150:6154   */\n      dup2\n        /* \"#utility.yul\":6146:6166   */\n      sub\n        /* \"#utility.yul\":6141:6143   */\n      0x40\n        /* \"#utility.yul\":6130:6139   */\n      dup4\n        /* \"#utility.yul\":6126:6144   */\n      add\n        /* \"#utility.yul\":6119:6167   */\n      mstore\n        /* \"#utility.yul\":6184:6262   */\n      tag_258\n        /* \"#utility.yul\":6257:6261   */\n      dup2\n        /* \"#utility.yul\":6248:6254   */\n      dup10\n        /* \"#utility.yul\":6184:6262   */\n      tag_147\n      jump\t// in\n    tag_258:\n        /* \"#utility.yul\":6176:6262   */\n      swap1\n      pop\n        /* \"#utility.yul\":6272:6344   */\n      tag_259\n        /* \"#utility.yul\":6340:6342   */\n      0x60\n        /* \"#utility.yul\":6329:6338   */\n      dup4\n        /* \"#utility.yul\":6325:6343   */\n      add\n        /* \"#utility.yul\":6316:6322   */\n      dup9\n        /* \"#utility.yul\":6272:6344   */\n      tag_142\n      jump\t// in\n    tag_259:\n        /* \"#utility.yul\":6354:6427   */\n      tag_260\n        /* \"#utility.yul\":6422:6425   */\n      0x80\n        /* \"#utility.yul\":6411:6420   */\n      dup4\n        /* \"#utility.yul\":6407:6426   */\n      add\n        /* \"#utility.yul\":6398:6404   */\n      dup8\n        /* \"#utility.yul\":6354:6427   */\n      tag_142\n      jump\t// in\n    tag_260:\n        /* \"#utility.yul\":6475:6484   */\n      dup2\n        /* \"#utility.yul\":6469:6473   */\n      dup2\n        /* \"#utility.yul\":6465:6485   */\n      sub\n        /* \"#utility.yul\":6459:6462   */\n      0xa0\n        /* \"#utility.yul\":6448:6457   */\n      dup4\n        /* \"#utility.yul\":6444:6463   */\n      add\n        /* \"#utility.yul\":6437:6486   */\n      mstore\n        /* \"#utility.yul\":6503:6581   */\n      tag_261\n        /* \"#utility.yul\":6576:6580   */\n      dup2\n        /* \"#utility.yul\":6567:6573   */\n      dup7\n        /* \"#utility.yul\":6503:6581   */\n      tag_147\n      jump\t// in\n    tag_261:\n        /* \"#utility.yul\":6495:6581   */\n      swap1\n      pop\n        /* \"#utility.yul\":6591:6664   */\n      tag_262\n        /* \"#utility.yul\":6659:6662   */\n      0xc0\n        /* \"#utility.yul\":6648:6657   */\n      dup4\n        /* \"#utility.yul\":6644:6663   */\n      add\n        /* \"#utility.yul\":6635:6641   */\n      dup6\n        /* \"#utility.yul\":6591:6664   */\n      tag_142\n      jump\t// in\n    tag_262:\n        /* \"#utility.yul\":6712:6721   */\n      dup2\n        /* \"#utility.yul\":6706:6710   */\n      dup2\n        /* \"#utility.yul\":6702:6722   */\n      sub\n        /* \"#utility.yul\":6696:6699   */\n      0xe0\n        /* \"#utility.yul\":6685:6694   */\n      dup4\n        /* \"#utility.yul\":6681:6700   */\n      add\n        /* \"#utility.yul\":6674:6723   */\n      mstore\n        /* \"#utility.yul\":6740:6868   */\n      tag_263\n        /* \"#utility.yul\":6863:6867   */\n      dup2\n        /* \"#utility.yul\":6854:6860   */\n      dup5\n        /* \"#utility.yul\":6740:6868   */\n      tag_155\n      jump\t// in\n    tag_263:\n        /* \"#utility.yul\":6732:6868   */\n      swap1\n      pop\n        /* \"#utility.yul\":5414:6875   */\n      swap10\n      swap9\n      pop\n      pop\n      pop\n      pop\n      pop\n      pop\n      pop\n      pop\n      pop\n      jump\t// out\n        /* \"#utility.yul\":6881:8040   */\n    tag_25:\n        /* \"#utility.yul\":7202:7206   */\n      0x00\n        /* \"#utility.yul\":7240:7243   */\n      0xe0\n        /* \"#utility.yul\":7229:7238   */\n      dup3\n        /* \"#utility.yul\":7225:7244   */\n      add\n        /* \"#utility.yul\":7217:7244   */\n      swap1\n      pop\n        /* \"#utility.yul\":7254:7325   */\n      tag_265\n        /* \"#utility.yul\":7322:7323   */\n      0x00\n        /* \"#utility.yul\":7311:7320   */\n      dup4\n        /* \"#utility.yul\":7307:7324   */\n      add\n        /* \"#utility.yul\":7298:7304   */\n      dup11\n        /* \"#utility.yul\":7254:7325   */\n      tag_142\n      jump\t// in\n    tag_265:\n        /* \"#utility.yul\":7372:7381   */\n      dup2\n        /* \"#utility.yul\":7366:7370   */\n      dup2\n        /* \"#utility.yul\":7362:7382   */\n      sub\n        /* \"#utility.yul\":7357:7359   */\n      0x20\n        /* \"#utility.yul\":7346:7355   */\n      dup4\n        /* \"#utility.yul\":7342:7360   */\n      add\n        /* \"#utility.yul\":7335:7383   */\n      mstore\n        /* \"#utility.yul\":7400:7478   */\n      tag_266\n        /* \"#utility.yul\":7473:7477   */\n      dup2\n        /* \"#utility.yul\":7464:7470   */\n      dup10\n        /* \"#utility.yul\":7400:7478   */\n      tag_147\n      jump\t// in\n    tag_266:\n        /* \"#utility.yul\":7392:7478   */\n      swap1\n      pop\n        /* \"#utility.yul\":7525:7534   */\n      dup2\n        /* \"#utility.yul\":7519:7523   */\n      dup2\n        /* \"#utility.yul\":7515:7535   */\n      sub\n        /* \"#utility.yul\":7510:7512   */\n      0x40\n        /* \"#utility.yul\":7499:7508   */\n      dup4\n        /* \"#utility.yul\":7495:7513   */\n      add\n        /* \"#utility.yul\":7488:7536   */\n      mstore\n        /* \"#utility.yul\":7553:7631   */\n      tag_267\n        /* \"#utility.yul\":7626:7630   */\n      dup2\n        /* \"#utility.yul\":7617:7623   */\n      dup9\n        /* \"#utility.yul\":7553:7631   */\n      tag_147\n      jump\t// in\n    tag_267:\n        /* \"#utility.yul\":7545:7631   */\n      swap1\n      pop\n        /* \"#utility.yul\":7641:7713   */\n      tag_268\n        /* \"#utility.yul\":7709:7711   */\n      0x60\n        /* \"#utility.yul\":7698:7707   */\n      dup4\n        /* \"#utility.yul\":7694:7712   */\n      add\n        /* \"#utility.yul\":7685:7691   */\n      dup8\n        /* \"#utility.yul\":7641:7713   */\n      tag_142\n      jump\t// in\n    tag_268:\n        /* \"#utility.yul\":7723:7796   */\n      tag_269\n        /* \"#utility.yul\":7791:7794   */\n      0x80\n        /* \"#utility.yul\":7780:7789   */\n      dup4\n        /* \"#utility.yul\":7776:7795   */\n      add\n        /* \"#utility.yul\":7767:7773   */\n      dup7\n        /* \"#utility.yul\":7723:7796   */\n      tag_142\n      jump\t// in\n    tag_269:\n        /* \"#utility.yul\":7844:7853   */\n      dup2\n        /* \"#utility.yul\":7838:7842   */\n      dup2\n        /* \"#utility.yul\":7834:7854   */\n      sub\n        /* \"#utility.yul\":7828:7831   */\n      0xa0\n        /* \"#utility.yul\":7817:7826   */\n      dup4\n        /* \"#utility.yul\":7813:7832   */\n      add\n        /* \"#utility.yul\":7806:7855   */\n      mstore\n        /* \"#utility.yul\":7872:7950   */\n      tag_270\n        /* \"#utility.yul\":7945:7949   */\n      dup2\n        /* \"#utility.yul\":7936:7942   */\n      dup6\n        /* \"#utility.yul\":7872:7950   */\n      tag_147\n      jump\t// in\n    tag_270:\n        /* \"#utility.yul\":7864:7950   */\n      swap1\n      pop\n        /* \"#utility.yul\":7960:8033   */\n      tag_271\n        /* \"#utility.yul\":8028:8031   */\n      0xc0\n        /* \"#utility.yul\":8017:8026   */\n      dup4\n        /* \"#utility.yul\":8013:8032   */\n      add\n        /* \"#utility.yul\":8004:8010   */\n      dup5\n        /* \"#utility.yul\":7960:8033   */\n      tag_142\n      jump\t// in\n    tag_271:\n        /* \"#utility.yul\":6881:8040   */\n      swap9\n      swap8\n      pop\n      pop\n      pop\n      pop\n      pop\n      pop\n      pop\n      pop\n      jump\t// out\n        /* \"#utility.yul\":8046:8160   */\n    tag_156:\n        /* \"#utility.yul\":8113:8119   */\n      0x00\n        /* \"#utility.yul\":8147:8152   */\n      dup2\n        /* \"#utility.yul\":8141:8153   */\n      mload\n        /* \"#utility.yul\":8131:8153   */\n      swap1\n      pop\n        /* \"#utility.yul\":8046:8160   */\n      swap2\n      swap1\n      pop\n      jump\t// out\n        /* \"#utility.yul\":8166:8350   */\n    tag_157:\n        /* \"#utility.yul\":8265:8276   */\n      0x00\n        /* \"#utility.yul\":8299:8305   */\n      dup3\n        /* \"#utility.yul\":8294:8297   */\n      dup3\n        /* \"#utility.yul\":8287:8306   */\n      mstore\n        /* \"#utility.yul\":8339:8343   */\n      0x20\n        /* \"#utility.yul\":8334:8337   */\n      dup3\n        /* \"#utility.yul\":8330:8344   */\n      add\n        /* \"#utility.yul\":8315:8344   */\n      swap1\n      pop\n        /* \"#utility.yul\":8166:8350   */\n      swap3\n      swap2\n      pop\n      pop\n      jump\t// out\n        /* \"#utility.yul\":8356:8488   */\n    tag_158:\n        /* \"#utility.yul\":8423:8427   */\n      0x00\n        /* \"#utility.yul\":8446:8449   */\n      dup2\n        /* \"#utility.yul\":8438:8449   */\n      swap1\n      pop\n        /* \"#utility.yul\":8476:8480   */\n      0x20\n        /* \"#utility.yul\":8471:8474   */\n      dup3\n        /* \"#utility.yul\":8467:8481   */\n      add\n        /* \"#utility.yul\":8459:8481   */\n      swap1\n      pop\n        /* \"#utility.yul\":8356:8488   */\n      swap2\n      swap1\n      pop\n      jump\t// out\n        /* \"#utility.yul\":8494:8602   */\n    tag_159:\n        /* \"#utility.yul\":8571:8595   */\n      tag_276\n        /* \"#utility.yul\":8589:8594   */\n      dup2\n        /* \"#utility.yul\":8571:8595   */\n      tag_139\n      jump\t// in\n    tag_276:\n        /* \"#utility.yul\":8566:8569   */\n      dup3\n        /* \"#utility.yul\":8559:8596   */\n      mstore\n        /* \"#utility.yul\":8494:8602   */\n      pop\n      pop\n      jump\t// out\n        /* \"#utility.yul\":8608:8787   */\n    tag_160:\n        /* \"#utility.yul\":8677:8687   */\n      0x00\n        /* \"#utility.yul\":8698:8744   */\n      tag_278\n        /* \"#utility.yul\":8740:8743   */\n      dup4\n        /* \"#utility.yul\":8732:8738   */\n      dup4\n        /* \"#utility.yul\":8698:8744   */\n      tag_159\n      jump\t// in\n    tag_278:\n        /* \"#utility.yul\":8776:8780   */\n      0x20\n        /* \"#utility.yul\":8771:8774   */\n      dup4\n        /* \"#utility.yul\":8767:8781   */\n      add\n        /* \"#utility.yul\":8753:8781   */\n      swap1\n      pop\n        /* \"#utility.yul\":8608:8787   */\n      swap3\n      swap2\n      pop\n      pop\n      jump\t// out\n        /* \"#utility.yul\":8793:8906   */\n    tag_161:\n        /* \"#utility.yul\":8863:8867   */\n      0x00\n        /* \"#utility.yul\":8895:8899   */\n      0x20\n        /* \"#utility.yul\":8890:8893   */\n      dup3\n        /* \"#utility.yul\":8886:8900   */\n      add\n        /* \"#utility.yul\":8878:8900   */\n      swap1\n      pop\n        /* \"#utility.yul\":8793:8906   */\n      swap2\n      swap1\n      pop\n      jump\t// out\n        /* \"#utility.yul\":8942:9674   */\n    tag_162:\n        /* \"#utility.yul\":9061:9064   */\n      0x00\n        /* \"#utility.yul\":9090:9144   */\n      tag_281\n        /* \"#utility.yul\":9138:9143   */\n      dup3\n        /* \"#utility.yul\":9090:9144   */\n      tag_156\n      jump\t// in\n    tag_281:\n        /* \"#utility.yul\":9160:9246   */\n      tag_282\n        /* \"#utility.yul\":9239:9245   */\n      dup2\n        /* \"#utility.yul\":9234:9237   */\n      dup6\n        /* \"#utility.yul\":9160:9246   */\n      tag_157\n      jump\t// in\n    tag_282:\n        /* \"#utility.yul\":9153:9246   */\n      swap4\n      pop\n        /* \"#utility.yul\":9270:9326   */\n      tag_283\n        /* \"#utility.yul\":9320:9325   */\n      dup4\n        /* \"#utility.yul\":9270:9326   */\n      tag_158\n      jump\t// in\n    tag_283:\n        /* \"#utility.yul\":9349:9356   */\n      dup1\n        /* \"#utility.yul\":9380:9381   */\n      0x00\n        /* \"#utility.yul\":9365:9649   */\n    tag_284:\n        /* \"#utility.yul\":9390:9396   */\n      dup4\n        /* \"#utility.yul\":9387:9388   */\n      dup2\n        /* \"#utility.yul\":9384:9397   */\n      lt\n        /* \"#utility.yul\":9365:9649   */\n      iszero\n      tag_286\n      jumpi\n        /* \"#utility.yul\":9466:9472   */\n      dup2\n        /* \"#utility.yul\":9460:9473   */\n      mload\n        /* \"#utility.yul\":9493:9556   */\n      tag_287\n        /* \"#utility.yul\":9552:9555   */\n      dup9\n        /* \"#utility.yul\":9537:9550   */\n      dup3\n        /* \"#utility.yul\":9493:9556   */\n      tag_160\n      jump\t// in\n    tag_287:\n        /* \"#utility.yul\":9486:9556   */\n      swap8\n      pop\n        /* \"#utility.yul\":9579:9639   */\n      tag_288\n        /* \"#utility.yul\":9632:9638   */\n      dup4\n        /* \"#utility.yul\":9579:9639   */\n      tag_161\n      jump\t// in\n    tag_288:\n        /* \"#utility.yul\":9569:9639   */\n      swap3\n      pop\n        /* \"#utility.yul\":9425:9649   */\n      pop\n        /* \"#utility.yul\":9412:9413   */\n      0x01\n        /* \"#utility.yul\":9409:9410   */\n      dup2\n        /* \"#utility.yul\":9405:9414   */\n      add\n        /* \"#utility.yul\":9400:9414   */\n      swap1\n      pop\n        /* \"#utility.yul\":9365:9649   */\n      jump(tag_284)\n    tag_286:\n        /* \"#utility.yul\":9369:9383   */\n      pop\n        /* \"#utility.yul\":9665:9668   */\n      dup6\n        /* \"#utility.yul\":9658:9668   */\n      swap4\n      pop\n        /* \"#utility.yul\":9066:9674   */\n      pop\n      pop\n      pop\n        /* \"#utility.yul\":8942:9674   */\n      swap3\n      swap2\n      pop\n      pop\n      jump\t// out\n        /* \"#utility.yul\":9680:10053   */\n    tag_30:\n        /* \"#utility.yul\":9823:9827   */\n      0x00\n        /* \"#utility.yul\":9861:9863   */\n      0x20\n        /* \"#utility.yul\":9850:9859   */\n      dup3\n        /* \"#utility.yul\":9846:9864   */\n      add\n        /* \"#utility.yul\":9838:9864   */\n      swap1\n      pop\n        /* \"#utility.yul\":9910:9919   */\n      dup2\n        /* \"#utility.yul\":9904:9908   */\n      dup2\n        /* \"#utility.yul\":9900:9920   */\n      sub\n        /* \"#utility.yul\":9896:9897   */\n      0x00\n        /* \"#utility.yul\":9885:9894   */\n      dup4\n        /* \"#utility.yul\":9881:9898   */\n      add\n        /* \"#utility.yul\":9874:9921   */\n      mstore\n        /* \"#utility.yul\":9938:10046   */\n      tag_290\n        /* \"#utility.yul\":10041:10045   */\n      dup2\n        /* \"#utility.yul\":10032:10038   */\n      dup5\n        /* \"#utility.yul\":9938:10046   */\n      tag_162\n      jump\t// in\n    tag_290:\n        /* \"#utility.yul\":9930:10046   */\n      swap1\n      pop\n        /* \"#utility.yul\":9680:10053   */\n      swap3\n      swap2\n      pop\n      pop\n      jump\t// out\n        /* \"#utility.yul\":10059:10176   */\n    tag_163:\n        /* \"#utility.yul\":10168:10169   */\n      0x00\n        /* \"#utility.yul\":10165:10166   */\n      0x00\n        /* \"#utility.yul\":10158:10170   */\n      revert\n        /* \"#utility.yul\":10182:10299   */\n    tag_164:\n        /* \"#utility.yul\":10291:10292   */\n      0x00\n        /* \"#utility.yul\":10288:10289   */\n      0x00\n        /* \"#utility.yul\":10281:10293   */\n      revert\n        /* \"#utility.yul\":10305:10485   */\n    tag_165:\n        /* \"#utility.yul\":10353:10430   */\n      0x4e487b7100000000000000000000000000000000000000000000000000000000\n        /* \"#utility.yul\":10350:10351   */\n      0x00\n        /* \"#utility.yul\":10343:10431   */\n      mstore\n        /* \"#utility.yul\":10450:10454   */\n      0x41\n        /* \"#utility.yul\":10447:10448   */\n      0x04\n        /* \"#utility.yul\":10440:10455   */\n      mstore\n        /* \"#utility.yul\":10474:10478   */\n      0x24\n        /* \"#utility.yul\":10471:10472   */\n      0x00\n        /* \"#utility.yul\":10464:10479   */\n      revert\n        /* \"#utility.yul\":10491:10772   */\n    tag_166:\n        /* \"#utility.yul\":10574:10601   */\n      tag_295\n        /* \"#utility.yul\":10596:10600   */\n      dup3\n        /* \"#utility.yul\":10574:10601   */\n      tag_146\n      jump\t// in\n    tag_295:\n        /* \"#utility.yul\":10566:10572   */\n      dup2\n        /* \"#utility.yul\":10562:10602   */\n      add\n        /* \"#utility.yul\":10704:10710   */\n      dup2\n        /* \"#utility.yul\":10692:10702   */\n      dup2\n        /* \"#utility.yul\":10689:10711   */\n      lt\n        /* \"#utility.yul\":10668:10686   */\n      0xffffffffffffffff\n        /* \"#utility.yul\":10656:10666   */\n      dup3\n        /* \"#utility.yul\":10653:10687   */\n      gt\n        /* \"#utility.yul\":10650:10712   */\n      or\n        /* \"#utility.yul\":10647:10735   */\n      iszero\n      tag_296\n      jumpi\n        /* \"#utility.yul\":10715:10733   */\n      tag_297\n      tag_165\n      jump\t// in\n    tag_297:\n        /* \"#utility.yul\":10647:10735   */\n    tag_296:\n        /* \"#utility.yul\":10755:10765   */\n      dup1\n        /* \"#utility.yul\":10751:10753   */\n      0x40\n        /* \"#utility.yul\":10744:10766   */\n      mstore\n        /* \"#utility.yul\":10534:10772   */\n      pop\n        /* \"#utility.yul\":10491:10772   */\n      pop\n      pop\n      jump\t// out\n        /* \"#utility.yul\":10778:10907   */\n    tag_167:\n        /* \"#utility.yul\":10812:10818   */\n      0x00\n        /* \"#utility.yul\":10839:10859   */\n      tag_299\n      tag_132\n      jump\t// in\n    tag_299:\n        /* \"#utility.yul\":10829:10859   */\n      swap1\n      pop\n        /* \"#utility.yul\":10868:10901   */\n      tag_300\n        /* \"#utility.yul\":10896:10900   */\n      dup3\n        /* \"#utility.yul\":10888:10894   */\n      dup3\n        /* \"#utility.yul\":10868:10901   */\n      tag_166\n      jump\t// in\n    tag_300:\n        /* \"#utility.yul\":10778:10907   */\n      swap2\n      swap1\n      pop\n      jump\t// out\n        /* \"#utility.yul\":10913:11221   */\n    tag_168:\n        /* \"#utility.yul\":10975:10979   */\n      0x00\n        /* \"#utility.yul\":11065:11083   */\n      0xffffffffffffffff\n        /* \"#utility.yul\":11057:11063   */\n      dup3\n        /* \"#utility.yul\":11054:11084   */\n      gt\n        /* \"#utility.yul\":11051:11107   */\n      iszero\n      tag_302\n      jumpi\n        /* \"#utility.yul\":11087:11105   */\n      tag_303\n      tag_165\n      jump\t// in\n    tag_303:\n        /* \"#utility.yul\":11051:11107   */\n    tag_302:\n        /* \"#utility.yul\":11125:11154   */\n      tag_304\n        /* \"#utility.yul\":11147:11153   */\n      dup3\n        /* \"#utility.yul\":11125:11154   */\n      tag_146\n      jump\t// in\n    tag_304:\n        /* \"#utility.yul\":11117:11154   */\n      swap1\n      pop\n        /* \"#utility.yul\":11209:11213   */\n      0x20\n        /* \"#utility.yul\":11203:11207   */\n      dup2\n        /* \"#utility.yul\":11199:11214   */\n      add\n        /* \"#utility.yul\":11191:11214   */\n      swap1\n      pop\n        /* \"#utility.yul\":10913:11221   */\n      swap2\n      swap1\n      pop\n      jump\t// out\n        /* \"#utility.yul\":11227:11375   */\n    tag_169:\n        /* \"#utility.yul\":11325:11331   */\n      dup3\n        /* \"#utility.yul\":11320:11323   */\n      dup2\n        /* \"#utility.yul\":11315:11318   */\n      dup4\n        /* \"#utility.yul\":11302:11332   */\n      calldatacopy\n        /* \"#utility.yul\":11366:11367   */\n      0x00\n        /* \"#utility.yul\":11357:11363   */\n      dup4\n        /* \"#utility.yul\":11352:11355   */\n      dup4\n        /* \"#utility.yul\":11348:11364   */\n      add\n        /* \"#utility.yul\":11341:11368   */\n      mstore\n        /* \"#utility.yul\":11227:11375   */\n      pop\n      pop\n      pop\n      jump\t// out\n        /* \"#utility.yul\":11381:11806   */\n    tag_170:\n        /* \"#utility.yul\":11459:11464   */\n      0x00\n        /* \"#utility.yul\":11484:11550   */\n      tag_307\n        /* \"#utility.yul\":11500:11549   */\n      tag_308\n        /* \"#utility.yul\":11542:11548   */\n      dup5\n        /* \"#utility.yul\":11500:11549   */\n      tag_168\n      jump\t// in\n    tag_308:\n        /* \"#utility.yul\":11484:11550   */\n      tag_167\n      jump\t// in\n    tag_307:\n        /* \"#utility.yul\":11475:11550   */\n      swap1\n      pop\n        /* \"#utility.yul\":11573:11579   */\n      dup3\n        /* \"#utility.yul\":11566:11571   */\n      dup2\n        /* \"#utility.yul\":11559:11580   */\n      mstore\n        /* \"#utility.yul\":11611:11615   */\n      0x20\n        /* \"#utility.yul\":11604:11609   */\n      dup2\n        /* \"#utility.yul\":11600:11616   */\n      add\n        /* \"#utility.yul\":11649:11652   */\n      dup5\n        /* \"#utility.yul\":11640:11646   */\n      dup5\n        /* \"#utility.yul\":11635:11638   */\n      dup5\n        /* \"#utility.yul\":11631:11647   */\n      add\n        /* \"#utility.yul\":11628:11653   */\n      gt\n        /* \"#utility.yul\":11625:11737   */\n      iszero\n      tag_309\n      jumpi\n        /* \"#utility.yul\":11656:11735   */\n      tag_310\n      tag_164\n      jump\t// in\n    tag_310:\n        /* \"#utility.yul\":11625:11737   */\n    tag_309:\n        /* \"#utility.yul\":11746:11800   */\n      tag_311\n        /* \"#utility.yul\":11793:11799   */\n      dup5\n        /* \"#utility.yul\":11788:11791   */\n      dup3\n        /* \"#utility.yul\":11783:11786   */\n      dup6\n        /* \"#utility.yul\":11746:11800   */\n      tag_169\n      jump\t// in\n    tag_311:\n        /* \"#utility.yul\":11465:11806   */\n      pop\n        /* \"#utility.yul\":11381:11806   */\n      swap4\n      swap3\n      pop\n      pop\n      pop\n      jump\t// out\n        /* \"#utility.yul\":11826:12166   */\n    tag_171:\n        /* \"#utility.yul\":11882:11887   */\n      0x00\n        /* \"#utility.yul\":11931:11934   */\n      dup3\n        /* \"#utility.yul\":11924:11928   */\n      0x1f\n        /* \"#utility.yul\":11916:11922   */\n      dup4\n        /* \"#utility.yul\":11912:11929   */\n      add\n        /* \"#utility.yul\":11908:11935   */\n      slt\n        /* \"#utility.yul\":11898:12020   */\n      tag_313\n      jumpi\n        /* \"#utility.yul\":11939:12018   */\n      tag_314\n      tag_163\n      jump\t// in\n    tag_314:\n        /* \"#utility.yul\":11898:12020   */\n    tag_313:\n        /* \"#utility.yul\":12056:12062   */\n      dup2\n        /* \"#utility.yul\":12043:12063   */\n      calldataload\n        /* \"#utility.yul\":12081:12160   */\n      tag_315\n        /* \"#utility.yul\":12156:12159   */\n      dup5\n        /* \"#utility.yul\":12148:12154   */\n      dup3\n        /* \"#utility.yul\":12141:12145   */\n      0x20\n        /* \"#utility.yul\":12133:12139   */\n      dup7\n        /* \"#utility.yul\":12129:12146   */\n      add\n        /* \"#utility.yul\":12081:12160   */\n      tag_170\n      jump\t// in\n    tag_315:\n        /* \"#utility.yul\":12072:12160   */\n      swap2\n      pop\n        /* \"#utility.yul\":11888:12166   */\n      pop\n        /* \"#utility.yul\":11826:12166   */\n      swap3\n      swap2\n      pop\n      pop\n      jump\t// out\n        /* \"#utility.yul\":12172:12493   */\n    tag_172:\n        /* \"#utility.yul\":12259:12263   */\n      0x00\n        /* \"#utility.yul\":12349:12367   */\n      0xffffffffffffffff\n        /* \"#utility.yul\":12341:12347   */\n      dup3\n        /* \"#utility.yul\":12338:12368   */\n      gt\n        /* \"#utility.yul\":12335:12391   */\n      iszero\n      tag_317\n      jumpi\n        /* \"#utility.yul\":12371:12389   */\n      tag_318\n      tag_165\n      jump\t// in\n    tag_318:\n        /* \"#utility.yul\":12335:12391   */\n    tag_317:\n        /* \"#utility.yul\":12421:12425   */\n      0x20\n        /* \"#utility.yul\":12413:12419   */\n      dup3\n        /* \"#utility.yul\":12409:12426   */\n      mul\n        /* \"#utility.yul\":12401:12426   */\n      swap1\n      pop\n        /* \"#utility.yul\":12481:12485   */\n      0x20\n        /* \"#utility.yul\":12475:12479   */\n      dup2\n        /* \"#utility.yul\":12471:12486   */\n      add\n        /* \"#utility.yul\":12463:12486   */\n      swap1\n      pop\n        /* \"#utility.yul\":12172:12493   */\n      swap2\n      swap1\n      pop\n      jump\t// out\n        /* \"#utility.yul\":12499:12616   */\n    tag_173:\n        /* \"#utility.yul\":12608:12609   */\n      0x00\n        /* \"#utility.yul\":12605:12606   */\n      0x00\n        /* \"#utility.yul\":12598:12610   */\n      revert\n        /* \"#utility.yul\":12638:13583   */\n    tag_174:\n        /* \"#utility.yul\":12744:12749   */\n      0x00\n        /* \"#utility.yul\":12769:12860   */\n      tag_321\n        /* \"#utility.yul\":12785:12859   */\n      tag_322\n        /* \"#utility.yul\":12852:12858   */\n      dup5\n        /* \"#utility.yul\":12785:12859   */\n      tag_172\n      jump\t// in\n    tag_322:\n        /* \"#utility.yul\":12769:12860   */\n      tag_167\n      jump\t// in\n    tag_321:\n        /* \"#utility.yul\":12760:12860   */\n      swap1\n      pop\n        /* \"#utility.yul\":12880:12885   */\n      dup1\n        /* \"#utility.yul\":12909:12915   */\n      dup4\n        /* \"#utility.yul\":12902:12907   */\n      dup3\n        /* \"#utility.yul\":12895:12916   */\n      mstore\n        /* \"#utility.yul\":12943:12947   */\n      0x20\n        /* \"#utility.yul\":12936:12941   */\n      dup3\n        /* \"#utility.yul\":12932:12948   */\n      add\n        /* \"#utility.yul\":12925:12948   */\n      swap1\n      pop\n        /* \"#utility.yul\":12996:13000   */\n      0x20\n        /* \"#utility.yul\":12988:12994   */\n      dup5\n        /* \"#utility.yul\":12984:13001   */\n      mul\n        /* \"#utility.yul\":12976:12982   */\n      dup4\n        /* \"#utility.yul\":12972:13002   */\n      add\n        /* \"#utility.yul\":13025:13028   */\n      dup6\n        /* \"#utility.yul\":13017:13023   */\n      dup2\n        /* \"#utility.yul\":13014:13029   */\n      gt\n        /* \"#utility.yul\":13011:13133   */\n      iszero\n      tag_323\n      jumpi\n        /* \"#utility.yul\":13044:13123   */\n      tag_324\n      tag_173\n      jump\t// in\n    tag_324:\n        /* \"#utility.yul\":13011:13133   */\n    tag_323:\n        /* \"#utility.yul\":13159:13165   */\n      dup4\n        /* \"#utility.yul\":13142:13577   */\n    tag_325:\n        /* \"#utility.yul\":13176:13182   */\n      dup2\n        /* \"#utility.yul\":13171:13174   */\n      dup2\n        /* \"#utility.yul\":13168:13183   */\n      lt\n        /* \"#utility.yul\":13142:13577   */\n      iszero\n      tag_327\n      jumpi\n        /* \"#utility.yul\":13265:13268   */\n      dup1\n        /* \"#utility.yul\":13252:13269   */\n      calldataload\n        /* \"#utility.yul\":13301:13319   */\n      0xffffffffffffffff\n        /* \"#utility.yul\":13288:13299   */\n      dup2\n        /* \"#utility.yul\":13285:13320   */\n      gt\n        /* \"#utility.yul\":13282:13404   */\n      iszero\n      tag_328\n      jumpi\n        /* \"#utility.yul\":13323:13402   */\n      tag_329\n      tag_163\n      jump\t// in\n    tag_329:\n        /* \"#utility.yul\":13282:13404   */\n    tag_328:\n        /* \"#utility.yul\":13447:13458   */\n      dup1\n        /* \"#utility.yul\":13439:13445   */\n      dup7\n        /* \"#utility.yul\":13435:13459   */\n      add\n        /* \"#utility.yul\":13485:13532   */\n      tag_330\n        /* \"#utility.yul\":13528:13531   */\n      dup10\n        /* \"#utility.yul\":13516:13526   */\n      dup3\n        /* \"#utility.yul\":13485:13532   */\n      tag_171\n      jump\t// in\n    tag_330:\n        /* \"#utility.yul\":13480:13483   */\n      dup6\n        /* \"#utility.yul\":13473:13533   */\n      mstore\n        /* \"#utility.yul\":13562:13566   */\n      0x20\n        /* \"#utility.yul\":13557:13560   */\n      dup6\n        /* \"#utility.yul\":13553:13567   */\n      add\n        /* \"#utility.yul\":13546:13567   */\n      swap5\n      pop\n        /* \"#utility.yul\":13218:13577   */\n      pop\n      pop\n        /* \"#utility.yul\":13202:13206   */\n      0x20\n        /* \"#utility.yul\":13197:13200   */\n      dup2\n        /* \"#utility.yul\":13193:13207   */\n      add\n        /* \"#utility.yul\":13186:13207   */\n      swap1\n      pop\n        /* \"#utility.yul\":13142:13577   */\n      jump(tag_325)\n    tag_327:\n        /* \"#utility.yul\":13146:13167   */\n      pop\n        /* \"#utility.yul\":12750:13583   */\n      pop\n      pop\n        /* \"#utility.yul\":12638:13583   */\n      swap4\n      swap3\n      pop\n      pop\n      pop\n      jump\t// out\n        /* \"#utility.yul\":13605:13995   */\n    tag_175:\n        /* \"#utility.yul\":13686:13691   */\n      0x00\n        /* \"#utility.yul\":13735:13738   */\n      dup3\n        /* \"#utility.yul\":13728:13732   */\n      0x1f\n        /* \"#utility.yul\":13720:13726   */\n      dup4\n        /* \"#utility.yul\":13716:13733   */\n      add\n        /* \"#utility.yul\":13712:13739   */\n      slt\n        /* \"#utility.yul\":13702:13824   */\n      tag_332\n      jumpi\n        /* \"#utility.yul\":13743:13822   */\n      tag_333\n      tag_163\n      jump\t// in\n    tag_333:\n        /* \"#utility.yul\":13702:13824   */\n    tag_332:\n        /* \"#utility.yul\":13860:13866   */\n      dup2\n        /* \"#utility.yul\":13847:13867   */\n      calldataload\n        /* \"#utility.yul\":13885:13989   */\n      tag_334\n        /* \"#utility.yul\":13985:13988   */\n      dup5\n        /* \"#utility.yul\":13977:13983   */\n      dup3\n        /* \"#utility.yul\":13970:13974   */\n      0x20\n        /* \"#utility.yul\":13962:13968   */\n      dup7\n        /* \"#utility.yul\":13958:13975   */\n      add\n        /* \"#utility.yul\":13885:13989   */\n      tag_174\n      jump\t// in\n    tag_334:\n        /* \"#utility.yul\":13876:13989   */\n      swap2\n      pop\n        /* \"#utility.yul\":13692:13995   */\n      pop\n        /* \"#utility.yul\":13605:13995   */\n      swap3\n      swap2\n      pop\n      pop\n      jump\t// out\n        /* \"#utility.yul\":14001:15974   */\n    tag_33:\n        /* \"#utility.yul\":14179:14185   */\n      0x00\n        /* \"#utility.yul\":14187:14193   */\n      0x00\n        /* \"#utility.yul\":14195:14201   */\n      0x00\n        /* \"#utility.yul\":14203:14209   */\n      0x00\n        /* \"#utility.yul\":14211:14217   */\n      0x00\n        /* \"#utility.yul\":14219:14225   */\n      0x00\n        /* \"#utility.yul\":14227:14233   */\n      0x00\n        /* \"#utility.yul\":14276:14279   */\n      0xe0\n        /* \"#utility.yul\":14264:14273   */\n      dup9\n        /* \"#utility.yul\":14255:14262   */\n      dup11\n        /* \"#utility.yul\":14251:14274   */\n      sub\n        /* \"#utility.yul\":14247:14280   */\n      slt\n        /* \"#utility.yul\":14244:14364   */\n      iszero\n      tag_336\n      jumpi\n        /* \"#utility.yul\":14283:14362   */\n      tag_337\n      tag_133\n      jump\t// in\n    tag_337:\n        /* \"#utility.yul\":14244:14364   */\n    tag_336:\n        /* \"#utility.yul\":14431:14432   */\n      0x00\n        /* \"#utility.yul\":14420:14429   */\n      dup9\n        /* \"#utility.yul\":14416:14433   */\n      add\n        /* \"#utility.yul\":14403:14434   */\n      calldataload\n        /* \"#utility.yul\":14461:14479   */\n      0xffffffffffffffff\n        /* \"#utility.yul\":14453:14459   */\n      dup2\n        /* \"#utility.yul\":14450:14480   */\n      gt\n        /* \"#utility.yul\":14447:14564   */\n      iszero\n      tag_338\n      jumpi\n        /* \"#utility.yul\":14483:14562   */\n      tag_339\n      tag_134\n      jump\t// in\n    tag_339:\n        /* \"#utility.yul\":14447:14564   */\n    tag_338:\n        /* \"#utility.yul\":14588:14651   */\n      tag_340\n        /* \"#utility.yul\":14643:14650   */\n      dup11\n        /* \"#utility.yul\":14634:14640   */\n      dup3\n        /* \"#utility.yul\":14623:14632   */\n      dup12\n        /* \"#utility.yul\":14619:14641   */\n      add\n        /* \"#utility.yul\":14588:14651   */\n      tag_171\n      jump\t// in\n    tag_340:\n        /* \"#utility.yul\":14578:14651   */\n      swap8\n      pop\n        /* \"#utility.yul\":14374:14661   */\n      pop\n        /* \"#utility.yul\":14728:14730   */\n      0x20\n        /* \"#utility.yul\":14717:14726   */\n      dup9\n        /* \"#utility.yul\":14713:14731   */\n      add\n        /* \"#utility.yul\":14700:14732   */\n      calldataload\n        /* \"#utility.yul\":14759:14777   */\n      0xffffffffffffffff\n        /* \"#utility.yul\":14751:14757   */\n      dup2\n        /* \"#utility.yul\":14748:14778   */\n      gt\n        /* \"#utility.yul\":14745:14862   */\n      iszero\n      tag_341\n      jumpi\n        /* \"#utility.yul\":14781:14860   */\n      tag_342\n      tag_134\n      jump\t// in\n    tag_342:\n        /* \"#utility.yul\":14745:14862   */\n    tag_341:\n        /* \"#utility.yul\":14886:14949   */\n      tag_343\n        /* \"#utility.yul\":14941:14948   */\n      dup11\n        /* \"#utility.yul\":14932:14938   */\n      dup3\n        /* \"#utility.yul\":14921:14930   */\n      dup12\n        /* \"#utility.yul\":14917:14939   */\n      add\n        /* \"#utility.yul\":14886:14949   */\n      tag_171\n      jump\t// in\n    tag_343:\n        /* \"#utility.yul\":14876:14949   */\n      swap7\n      pop\n        /* \"#utility.yul\":14671:14959   */\n      pop\n        /* \"#utility.yul\":14998:15000   */\n      0x40\n        /* \"#utility.yul\":15024:15077   */\n      tag_344\n        /* \"#utility.yul\":15069:15076   */\n      dup11\n        /* \"#utility.yul\":15060:15066   */\n      dup3\n        /* \"#utility.yul\":15049:15058   */\n      dup12\n        /* \"#utility.yul\":15045:15067   */\n      add\n        /* \"#utility.yul\":15024:15077   */\n      tag_137\n      jump\t// in\n    tag_344:\n        /* \"#utility.yul\":15014:15077   */\n      swap6\n      pop\n        /* \"#utility.yul\":14969:15087   */\n      pop\n        /* \"#utility.yul\":15126:15128   */\n      0x60\n        /* \"#utility.yul\":15152:15205   */\n      tag_345\n        /* \"#utility.yul\":15197:15204   */\n      dup11\n        /* \"#utility.yul\":15188:15194   */\n      dup3\n        /* \"#utility.yul\":15177:15186   */\n      dup12\n        /* \"#utility.yul\":15173:15195   */\n      add\n        /* \"#utility.yul\":15152:15205   */\n      tag_137\n      jump\t// in\n    tag_345:\n        /* \"#utility.yul\":15142:15205   */\n      swap5\n      pop\n        /* \"#utility.yul\":15097:15215   */\n      pop\n        /* \"#utility.yul\":15282:15285   */\n      0x80\n        /* \"#utility.yul\":15271:15280   */\n      dup9\n        /* \"#utility.yul\":15267:15286   */\n      add\n        /* \"#utility.yul\":15254:15287   */\n      calldataload\n        /* \"#utility.yul\":15314:15332   */\n      0xffffffffffffffff\n        /* \"#utility.yul\":15306:15312   */\n      dup2\n        /* \"#utility.yul\":15303:15333   */\n      gt\n        /* \"#utility.yul\":15300:15417   */\n      iszero\n      tag_346\n      jumpi\n        /* \"#utility.yul\":15336:15415   */\n      tag_347\n      tag_134\n      jump\t// in\n    tag_347:\n        /* \"#utility.yul\":15300:15417   */\n    tag_346:\n        /* \"#utility.yul\":15441:15504   */\n      tag_348\n        /* \"#utility.yul\":15496:15503   */\n      dup11\n        /* \"#utility.yul\":15487:15493   */\n      dup3\n        /* \"#utility.yul\":15476:15485   */\n      dup12\n        /* \"#utility.yul\":15472:15494   */\n      add\n        /* \"#utility.yul\":15441:15504   */\n      tag_171\n      jump\t// in\n    tag_348:\n        /* \"#utility.yul\":15431:15504   */\n      swap4\n      pop\n        /* \"#utility.yul\":15225:15514   */\n      pop\n        /* \"#utility.yul\":15553:15556   */\n      0xa0\n        /* \"#utility.yul\":15580:15633   */\n      tag_349\n        /* \"#utility.yul\":15625:15632   */\n      dup11\n        /* \"#utility.yul\":15616:15622   */\n      dup3\n        /* \"#utility.yul\":15605:15614   */\n      dup12\n        /* \"#utility.yul\":15601:15623   */\n      add\n        /* \"#utility.yul\":15580:15633   */\n      tag_137\n      jump\t// in\n    tag_349:\n        /* \"#utility.yul\":15570:15633   */\n      swap3\n      pop\n        /* \"#utility.yul\":15524:15643   */\n      pop\n        /* \"#utility.yul\":15710:15713   */\n      0xc0\n        /* \"#utility.yul\":15699:15708   */\n      dup9\n        /* \"#utility.yul\":15695:15714   */\n      add\n        /* \"#utility.yul\":15682:15715   */\n      calldataload\n        /* \"#utility.yul\":15742:15760   */\n      0xffffffffffffffff\n        /* \"#utility.yul\":15734:15740   */\n      dup2\n        /* \"#utility.yul\":15731:15761   */\n      gt\n        /* \"#utility.yul\":15728:15845   */\n      iszero\n      tag_350\n      jumpi\n        /* \"#utility.yul\":15764:15843   */\n      tag_351\n      tag_134\n      jump\t// in\n    tag_351:\n        /* \"#utility.yul\":15728:15845   */\n    tag_350:\n        /* \"#utility.yul\":15869:15957   */\n      tag_352\n        /* \"#utility.yul\":15949:15956   */\n      dup11\n        /* \"#utility.yul\":15940:15946   */\n      dup3\n        /* \"#utility.yul\":15929:15938   */\n      dup12\n        /* \"#utility.yul\":15925:15947   */\n      add\n        /* \"#utility.yul\":15869:15957   */\n      tag_175\n      jump\t// in\n    tag_352:\n        /* \"#utility.yul\":15859:15957   */\n      swap2\n      pop\n        /* \"#utility.yul\":15653:15967   */\n      pop\n        /* \"#utility.yul\":14001:15974   */\n      swap3\n      swap6\n      swap9\n      swap2\n      swap5\n      swap8\n      pop\n      swap3\n      swap6\n      pop\n      jump\t// out\n        /* \"#utility.yul\":15980:16202   */\n    tag_36:\n        /* \"#utility.yul\":16073:16077   */\n      0x00\n        /* \"#utility.yul\":16111:16113   */\n      0x20\n        /* \"#utility.yul\":16100:16109   */\n      dup3\n        /* \"#utility.yul\":16096:16114   */\n      add\n        /* \"#utility.yul\":16088:16114   */\n      swap1\n      pop\n        /* \"#utility.yul\":16124:16195   */\n      tag_354\n        /* \"#utility.yul\":16192:16193   */\n      0x00\n        /* \"#utility.yul\":16181:16190   */\n      dup4\n        /* \"#utility.yul\":16177:16194   */\n      add\n        /* \"#utility.yul\":16168:16174   */\n      dup5\n        /* \"#utility.yul\":16124:16195   */\n      tag_142\n      jump\t// in\n    tag_354:\n        /* \"#utility.yul\":15980:16202   */\n      swap3\n      swap2\n      pop\n      pop\n      jump\t// out\n        /* \"#utility.yul\":16208:16682   */\n    tag_42:\n        /* \"#utility.yul\":16276:16282   */\n      0x00\n        /* \"#utility.yul\":16284:16290   */\n      0x00\n        /* \"#utility.yul\":16333:16335   */\n      0x40\n        /* \"#utility.yul\":16321:16330   */\n      dup4\n        /* \"#utility.yul\":16312:16319   */\n      dup6\n        /* \"#utility.yul\":16308:16331   */\n      sub\n        /* \"#utility.yul\":16304:16336   */\n      slt\n        /* \"#utility.yul\":16301:16420   */\n      iszero\n      tag_356\n      jumpi\n        /* \"#utility.yul\":16339:16418   */\n      tag_357\n      tag_133\n      jump\t// in\n    tag_357:\n        /* \"#utility.yul\":16301:16420   */\n    tag_356:\n        /* \"#utility.yul\":16459:16460   */\n      0x00\n        /* \"#utility.yul\":16484:16537   */\n      tag_358\n        /* \"#utility.yul\":16529:16536   */\n      dup6\n        /* \"#utility.yul\":16520:16526   */\n      dup3\n        /* \"#utility.yul\":16509:16518   */\n      dup7\n        /* \"#utility.yul\":16505:16527   */\n      add\n        /* \"#utility.yul\":16484:16537   */\n      tag_137\n      jump\t// in\n    tag_358:\n        /* \"#utility.yul\":16474:16537   */\n      swap3\n      pop\n        /* \"#utility.yul\":16430:16547   */\n      pop\n        /* \"#utility.yul\":16586:16588   */\n      0x20\n        /* \"#utility.yul\":16612:16665   */\n      tag_359\n        /* \"#utility.yul\":16657:16664   */\n      dup6\n        /* \"#utility.yul\":16648:16654   */\n      dup3\n        /* \"#utility.yul\":16637:16646   */\n      dup7\n        /* \"#utility.yul\":16633:16655   */\n      add\n        /* \"#utility.yul\":16612:16665   */\n      tag_137\n      jump\t// in\n    tag_359:\n        /* \"#utility.yul\":16602:16665   */\n      swap2\n      pop\n        /* \"#utility.yul\":16557:16675   */\n      pop\n        /* \"#utility.yul\":16208:16682   */\n      swap3\n      pop\n      swap3\n      swap1\n      pop\n      jump\t// out\n        /* \"#utility.yul\":16688:16806   */\n    tag_176:\n        /* \"#utility.yul\":16775:16799   */\n      tag_361\n        /* \"#utility.yul\":16793:16798   */\n      dup2\n        /* \"#utility.yul\":16775:16799   */\n      tag_139\n      jump\t// in\n    tag_361:\n        /* \"#utility.yul\":16770:16773   */\n      dup3\n        /* \"#utility.yul\":16763:16800   */\n      mstore\n        /* \"#utility.yul\":16688:16806   */\n      pop\n      pop\n      jump\t// out\n        /* \"#utility.yul\":16812:17034   */\n    tag_45:\n        /* \"#utility.yul\":16905:16909   */\n      0x00\n        /* \"#utility.yul\":16943:16945   */\n      0x20\n        /* \"#utility.yul\":16932:16941   */\n      dup3\n        /* \"#utility.yul\":16928:16946   */\n      add\n        /* \"#utility.yul\":16920:16946   */\n      swap1\n      pop\n        /* \"#utility.yul\":16956:17027   */\n      tag_363\n        /* \"#utility.yul\":17024:17025   */\n      0x00\n        /* \"#utility.yul\":17013:17022   */\n      dup4\n        /* \"#utility.yul\":17009:17026   */\n      add\n        /* \"#utility.yul\":17000:17006   */\n      dup5\n        /* \"#utility.yul\":16956:17027   */\n      tag_176\n      jump\t// in\n    tag_363:\n        /* \"#utility.yul\":16812:17034   */\n      swap3\n      swap2\n      pop\n      pop\n      jump\t// out\n        /* \"#utility.yul\":17040:17209   */\n    tag_177:\n        /* \"#utility.yul\":17180:17201   */\n      0x566f746520646f6573206e6f7420657869737400000000000000000000000000\n        /* \"#utility.yul\":17176:17177   */\n      0x00\n        /* \"#utility.yul\":17168:17174   */\n      dup3\n        /* \"#utility.yul\":17164:17178   */\n      add\n        /* \"#utility.yul\":17157:17202   */\n      mstore\n        /* \"#utility.yul\":17040:17209   */\n      pop\n      jump\t// out\n        /* \"#utility.yul\":17215:17581   */\n    tag_178:\n        /* \"#utility.yul\":17357:17360   */\n      0x00\n        /* \"#utility.yul\":17378:17445   */\n      tag_366\n        /* \"#utility.yul\":17442:17444   */\n      0x13\n        /* \"#utility.yul\":17437:17440   */\n      dup4\n        /* \"#utility.yul\":17378:17445   */\n      tag_144\n      jump\t// in\n    tag_366:\n        /* \"#utility.yul\":17371:17445   */\n      swap2\n      pop\n        /* \"#utility.yul\":17454:17547   */\n      tag_367\n        /* \"#utility.yul\":17543:17546   */\n      dup3\n        /* \"#utility.yul\":17454:17547   */\n      tag_177\n      jump\t// in\n    tag_367:\n        /* \"#utility.yul\":17572:17574   */\n      0x20\n        /* \"#utility.yul\":17567:17570   */\n      dup3\n        /* \"#utility.yul\":17563:17575   */\n      add\n        /* \"#utility.yul\":17556:17575   */\n      swap1\n      pop\n        /* \"#utility.yul\":17215:17581   */\n      swap2\n      swap1\n      pop\n      jump\t// out\n        /* \"#utility.yul\":17587:18006   */\n    tag_49:\n        /* \"#utility.yul\":17753:17757   */\n      0x00\n        /* \"#utility.yul\":17791:17793   */\n      0x20\n        /* \"#utility.yul\":17780:17789   */\n      dup3\n        /* \"#utility.yul\":17776:17794   */\n      add\n        /* \"#utility.yul\":17768:17794   */\n      swap1\n      pop\n        /* \"#utility.yul\":17840:17849   */\n      dup2\n        /* \"#utility.yul\":17834:17838   */\n      dup2\n        /* \"#utility.yul\":17830:17850   */\n      sub\n        /* \"#utility.yul\":17826:17827   */\n      0x00\n        /* \"#utility.yul\":17815:17824   */\n      dup4\n        /* \"#utility.yul\":17811:17828   */\n      add\n        /* \"#utility.yul\":17804:17851   */\n      mstore\n        /* \"#utility.yul\":17868:17999   */\n      tag_369\n        /* \"#utility.yul\":17994:17998   */\n      dup2\n        /* \"#utility.yul\":17868:17999   */\n      tag_178\n      jump\t// in\n    tag_369:\n        /* \"#utility.yul\":17860:17999   */\n      swap1\n      pop\n        /* \"#utility.yul\":17587:18006   */\n      swap2\n      swap1\n      pop\n      jump\t// out\n        /* \"#utility.yul\":18012:18344   */\n    tag_52:\n        /* \"#utility.yul\":18133:18137   */\n      0x00\n        /* \"#utility.yul\":18171:18173   */\n      0x40\n        /* \"#utility.yul\":18160:18169   */\n      dup3\n        /* \"#utility.yul\":18156:18174   */\n      add\n        /* \"#utility.yul\":18148:18174   */\n      swap1\n      pop\n        /* \"#utility.yul\":18184:18255   */\n      tag_371\n        /* \"#utility.yul\":18252:18253   */\n      0x00\n        /* \"#utility.yul\":18241:18250   */\n      dup4\n        /* \"#utility.yul\":18237:18254   */\n      add\n        /* \"#utility.yul\":18228:18234   */\n      dup6\n        /* \"#utility.yul\":18184:18255   */\n      tag_142\n      jump\t// in\n    tag_371:\n        /* \"#utility.yul\":18265:18337   */\n      tag_372\n        /* \"#utility.yul\":18333:18335   */\n      0x20\n        /* \"#utility.yul\":18322:18331   */\n      dup4\n        /* \"#utility.yul\":18318:18336   */\n      add\n        /* \"#utility.yul\":18309:18315   */\n      dup5\n        /* \"#utility.yul\":18265:18337   */\n      tag_176\n      jump\t// in\n    tag_372:\n        /* \"#utility.yul\":18012:18344   */\n      swap4\n      swap3\n      pop\n      pop\n      pop\n      jump\t// out\n        /* \"#utility.yul\":18350:18530   */\n    tag_179:\n        /* \"#utility.yul\":18398:18475   */\n      0x4e487b7100000000000000000000000000000000000000000000000000000000\n        /* \"#utility.yul\":18395:18396   */\n      0x00\n        /* \"#utility.yul\":18388:18476   */\n      mstore\n        /* \"#utility.yul\":18495:18499   */\n      0x22\n        /* \"#utility.yul\":18492:18493   */\n      0x04\n        /* \"#utility.yul\":18485:18500   */\n      mstore\n        /* \"#utility.yul\":18519:18523   */\n      0x24\n        /* \"#utility.yul\":18516:18517   */\n      0x00\n        /* \"#utility.yul\":18509:18524   */\n      revert\n        /* \"#utility.yul\":18536:18856   */\n    tag_57:\n        /* \"#utility.yul\":18580:18586   */\n      0x00\n        /* \"#utility.yul\":18617:18618   */\n      0x02\n        /* \"#utility.yul\":18611:18615   */\n      dup3\n        /* \"#utility.yul\":18607:18619   */\n      div\n        /* \"#utility.yul\":18597:18619   */\n      swap1\n      pop\n        /* \"#utility.yul\":18664:18665   */\n      0x01\n        /* \"#utility.yul\":18658:18662   */\n      dup3\n        /* \"#utility.yul\":18654:18666   */\n      and\n        /* \"#utility.yul\":18685:18703   */\n      dup1\n        /* \"#utility.yul\":18675:18756   */\n      tag_375\n      jumpi\n        /* \"#utility.yul\":18741:18745   */\n      0x7f\n        /* \"#utility.yul\":18733:18739   */\n      dup3\n        /* \"#utility.yul\":18729:18746   */\n      and\n        /* \"#utility.yul\":18719:18746   */\n      swap2\n      pop\n        /* \"#utility.yul\":18675:18756   */\n    tag_375:\n        /* \"#utility.yul\":18803:18805   */\n      0x20\n        /* \"#utility.yul\":18795:18801   */\n      dup3\n        /* \"#utility.yul\":18792:18806   */\n      lt\n        /* \"#utility.yul\":18772:18790   */\n      dup2\n        /* \"#utility.yul\":18769:18807   */\n      sub\n        /* \"#utility.yul\":18766:18850   */\n      tag_376\n      jumpi\n        /* \"#utility.yul\":18822:18840   */\n      tag_377\n      tag_179\n      jump\t// in\n    tag_377:\n        /* \"#utility.yul\":18766:18850   */\n    tag_376:\n        /* \"#utility.yul\":18587:18856   */\n      pop\n        /* \"#utility.yul\":18536:18856   */\n      swap2\n      swap1\n      pop\n      jump\t// out\n        /* \"#utility.yul\":18862:19003   */\n    tag_180:\n        /* \"#utility.yul\":18911:18915   */\n      0x00\n        /* \"#utility.yul\":18934:18937   */\n      dup2\n        /* \"#utility.yul\":18926:18937   */\n      swap1\n      pop\n        /* \"#utility.yul\":18957:18960   */\n      dup2\n        /* \"#utility.yul\":18954:18955   */\n      0x00\n        /* \"#utility.yul\":18947:18961   */\n      mstore\n        /* \"#utility.yul\":18991:18995   */\n      0x20\n        /* \"#utility.yul\":18988:18989   */\n      0x00\n        /* \"#utility.yul\":18978:18996   */\n      keccak256\n        /* \"#utility.yul\":18970:18996   */\n      swap1\n      pop\n        /* \"#utility.yul\":18862:19003   */\n      swap2\n      swap1\n      pop\n      jump\t// out\n        /* \"#utility.yul\":19009:19102   */\n    tag_181:\n        /* \"#utility.yul\":19046:19052   */\n      0x00\n        /* \"#utility.yul\":19093:19095   */\n      0x20\n        /* \"#utility.yul\":19088:19090   */\n      0x1f\n        /* \"#utility.yul\":19081:19086   */\n      dup4\n        /* \"#utility.yul\":19077:19091   */\n      add\n        /* \"#utility.yul\":19073:19096   */\n      div\n        /* \"#utility.yul\":19063:19096   */\n      swap1\n      pop\n        /* \"#utility.yul\":19009:19102   */\n      swap2\n      swap1\n      pop\n      jump\t// out\n        /* \"#utility.yul\":19108:19215   */\n    tag_182:\n        /* \"#utility.yul\":19152:19160   */\n      0x00\n        /* \"#utility.yul\":19202:19207   */\n      dup3\n        /* \"#utility.yul\":19196:19200   */\n      dup3\n        /* \"#utility.yul\":19192:19208   */\n      shl\n        /* \"#utility.yul\":19171:19208   */\n      swap1\n      pop\n        /* \"#utility.yul\":19108:19215   */\n      swap3\n      swap2\n      pop\n      pop\n      jump\t// out\n        /* \"#utility.yul\":19221:19614   */\n    tag_183:\n        /* \"#utility.yul\":19290:19296   */\n      0x00\n        /* \"#utility.yul\":19340:19341   */\n      0x08\n        /* \"#utility.yul\":19328:19338   */\n      dup4\n        /* \"#utility.yul\":19324:19342   */\n      mul\n        /* \"#utility.yul\":19363:19460   */\n      tag_382\n        /* \"#utility.yul\":19393:19459   */\n      0xffffffffffffffffffffffffffffffffffffffffffffffffffffffffffffffff\n        /* \"#utility.yul\":19382:19391   */\n      dup3\n        /* \"#utility.yul\":19363:19460   */\n      tag_182\n      jump\t// in\n    tag_382:\n        /* \"#utility.yul\":19481:19520   */\n      tag_383\n        /* \"#utility.yul\":19511:19519   */\n      dup7\n        /* \"#utility.yul\":19500:19509   */\n      dup4\n        /* \"#utility.yul\":19481:19520   */\n      tag_182\n      jump\t// in\n    tag_383:\n        /* \"#utility.yul\":19469:19520   */\n      swap6\n      pop\n        /* \"#utility.yul\":19553:19557   */\n      dup1\n        /* \"#utility.yul\":19549:19558   */\n      not\n        /* \"#utility.yul\":19542:19547   */\n      dup5\n        /* \"#utility.yul\":19538:19559   */\n      and\n        /* \"#utility.yul\":19529:19559   */\n      swap4\n      pop\n        /* \"#utility.yul\":19602:19606   */\n      dup1\n        /* \"#utility.yul\":19592:19600   */\n      dup7\n        /* \"#utility.yul\":19588:19607   */\n      and\n        /* \"#utility.yul\":19581:19586   */\n      dup5\n        /* \"#utility.yul\":19578:19608   */\n      or\n        /* \"#utility.yul\":19568:19608   */\n      swap3\n      pop\n        /* \"#utility.yul\":19297:19614   */\n      pop\n      pop\n        /* \"#utility.yul\":19221:19614   */\n      swap4\n      swap3\n      pop\n      pop\n      pop\n      jump\t// out\n        /* \"#utility.yul\":19620:19680   */\n    tag_184:\n        /* \"#utility.yul\":19648:19651   */\n      0x00\n        /* \"#utility.yul\":19669:19674   */\n      dup2\n        /* \"#utility.yul\":19662:19674   */\n      swap1\n      pop\n        /* \"#utility.yul\":19620:19680   */\n      swap2\n      swap1\n      pop\n      jump\t// out\n        /* \"#utility.yul\":19686:19828   */\n    tag_185:\n        /* \"#utility.yul\":19736:19745   */\n      0x00\n        /* \"#utility.yul\":19769:19822   */\n      tag_386\n        /* \"#utility.yul\":19787:19821   */\n      tag_387\n        /* \"#utility.yul\":19796:19820   */\n      tag_388\n        /* \"#utility.yul\":19814:19819   */\n      dup5\n        /* \"#utility.yul\":19796:19820   */\n      tag_135\n      jump\t// in\n    tag_388:\n        /* \"#utility.yul\":19787:19821   */\n      tag_184\n      jump\t// in\n    tag_387:\n        /* \"#utility.yul\":19769:19822   */\n      tag_135\n      jump\t// in\n    tag_386:\n        /* \"#utility.yul\":19756:19822   */\n      swap1\n      pop\n        /* \"#utility.yul\":19686:19828   */\n      swap2\n      swap1\n      pop\n      jump\t// out\n        /* \"#utility.yul\":19834:19909   */\n    tag_186:\n        /* \"#utility.yul\":19877:19880   */\n      0x00\n        /* \"#utility.yul\":19898:19903   */\n      dup2\n        /* \"#utility.yul\":19891:19903   */\n      swap1\n      pop\n        /* \"#utility.yul\":19834:19909   */\n      swap2\n      swap1\n      pop\n      jump\t// out\n        /* \"#utility.yul\":19915:20184   */\n    tag_187:\n        /* \"#utility.yul\":20025:20064   */\n      tag_391\n        /* \"#utility.yul\":20056:20063   */\n      dup4\n        /* \"#utility.yul\":20025:20064   */\n      tag_185\n      jump\t// in\n    tag_391:\n        /* \"#utility.yul\":20086:20177   */\n      tag_392\n        /* \"#utility.yul\":20135:20176   */\n      tag_393\n        /* \"#utility.yul\":20159:20175   */\n      dup3\n        /* \"#utility.yul\":20135:20176   */\n      tag_186\n      jump\t// in\n    tag_393:\n        /* \"#utility.yul\":20127:20133   */\n      dup5\n        /* \"#utility.yul\":20120:20124   */\n      dup5\n        /* \"#utility.yul\":20114:20125   */\n      sload\n        /* \"#utility.yul\":20086:20177   */\n      tag_183\n      jump\t// in\n    tag_392:\n        /* \"#utility.yul\":20080:20084   */\n      dup3\n        /* \"#utility.yul\":20073:20178   */\n      sstore\n        /* \"#utility.yul\":19991:20184   */\n      pop\n        /* \"#utility.yul\":19915:20184   */\n      pop\n      pop\n      pop\n      jump\t// out\n        /* \"#utility.yul\":20190:20263   */\n    tag_188:\n        /* \"#utility.yul\":20235:20238   */\n      0x00\n        /* \"#utility.yul\":20256:20257   */\n      0x00\n        /* \"#utility.yul\":20249:20257   */\n      swap1\n      pop\n        /* \"#utility.yul\":20190:20263   */\n      swap1\n      jump\t// out\n        /* \"#utility.yul\":20269:20458   */\n    tag_189:\n        /* \"#utility.yul\":20346:20378   */\n      tag_396\n      tag_188\n      jump\t// in\n    tag_396:\n        /* \"#utility.yul\":20387:20452   */\n      tag_397\n        /* \"#utility.yul\":20445:20451   */\n      dup2\n        /* \"#utility.yul\":20437:20443   */\n      dup5\n        /* \"#utility.yul\":20431:20435   */\n      dup5\n        /* \"#utility.yul\":20387:20452   */\n      tag_187\n      jump\t// in\n    tag_397:\n        /* \"#utility.yul\":20322:20458   */\n      pop\n        /* \"#utility.yul\":20269:20458   */\n      pop\n      pop\n      jump\t// out\n        /* \"#utility.yul\":20464:20650   */\n    tag_190:\n        /* \"#utility.yul\":20524:20644   */\n    tag_399:\n        /* \"#utility.yul\":20541:20544   */\n      dup2\n        /* \"#utility.yul\":20534:20539   */\n      dup2\n        /* \"#utility.yul\":20531:20545   */\n      lt\n        /* \"#utility.yul\":20524:20644   */\n      iszero\n      tag_401\n      jumpi\n        /* \"#utility.yul\":20595:20634   */\n      tag_402\n        /* \"#utility.yul\":20632:20633   */\n      0x00\n        /* \"#utility.yul\":20625:20630   */\n      dup3\n        /* \"#utility.yul\":20595:20634   */\n      tag_189\n      jump\t// in\n    tag_402:\n        /* \"#utility.yul\":20568:20569   */\n      0x01\n        /* \"#utility.yul\":20561:20566   */\n      dup2\n        /* \"#utility.yul\":20557:20570   */\n      add\n        /* \"#utility.yul\":20548:20570   */\n      swap1\n      pop\n        /* \"#utility.yul\":20524:20644   */\n      jump(tag_399)\n    tag_401:\n        /* \"#utility.yul\":20464:20650   */\n      pop\n      pop\n      jump\t// out\n        /* \"#utility.yul\":20656:21199   */\n    tag_191:\n        /* \"#utility.yul\":20757:20759   */\n      0x1f\n        /* \"#utility.yul\":20752:20755   */\n      dup3\n        /* \"#utility.yul\":20749:20760   */\n      gt\n        /* \"#utility.yul\":20746:21192   */\n      iszero\n      tag_404\n      jumpi\n        /* \"#utility.yul\":20791:20829   */\n      tag_405\n        /* \"#utility.yul\":20823:20828   */\n      dup2\n        /* \"#utility.yul\":20791:20829   */\n      tag_180\n      jump\t// in\n    tag_405:\n        /* \"#utility.yul\":20875:20904   */\n      tag_406\n        /* \"#utility.yul\":20893:20903   */\n      dup5\n        /* \"#utility.yul\":20875:20904   */\n      tag_181\n      jump\t// in\n    tag_406:\n        /* \"#utility.yul\":20865:20873   */\n      dup2\n        /* \"#utility.yul\":20861:20905   */\n      add\n        /* \"#utility.yul\":21058:21060   */\n      0x20\n        /* \"#utility.yul\":21046:21056   */\n      dup6\n        /* \"#utility.yul\":21043:21061   */\n      lt\n        /* \"#utility.yul\":21040:21089   */\n      iszero\n      tag_407\n      jumpi\n        /* \"#utility.yul\":21079:21087   */\n      dup2\n        /* \"#utility.yul\":21064:21087   */\n      swap1\n      pop\n        /* \"#utility.yul\":21040:21089   */\n    tag_407:\n        /* \"#utility.yul\":21102:21182   */\n      tag_408\n        /* \"#utility.yul\":21158:21180   */\n      tag_409\n        /* \"#utility.yul\":21176:21179   */\n      dup6\n        /* \"#utility.yul\":21158:21180   */\n      tag_181\n      jump\t// in\n    tag_409:\n        /* \"#utility.yul\":21148:21156   */\n      dup4\n        /* \"#utility.yul\":21144:21181   */\n      add\n        /* \"#utility.yul\":21131:21142   */\n      dup3\n        /* \"#utility.yul\":21102:21182   */\n      tag_190\n      jump\t// in\n    tag_408:\n        /* \"#utility.yul\":20761:21192   */\n      pop\n      pop\n        /* \"#utility.yul\":20746:21192   */\n    tag_404:\n        /* \"#utility.yul\":20656:21199   */\n      pop\n      pop\n      pop\n      jump\t// out\n        /* \"#utility.yul\":21205:21322   */\n    tag_192:\n        /* \"#utility.yul\":21259:21267   */\n      0x00\n        /* \"#utility.yul\":21309:21314   */\n      dup3\n        /* \"#utility.yul\":21303:21307   */\n      dup3\n        /* \"#utility.yul\":21299:21315   */\n      shr\n        /* \"#utility.yul\":21278:21315   */\n      swap1\n      pop\n        /* \"#utility.yul\":21205:21322   */\n      swap3\n      swap2\n      pop\n      pop\n      jump\t// out\n        /* \"#utility.yul\":21328:21497   */\n    tag_193:\n        /* \"#utility.yul\":21372:21378   */\n      0x00\n        /* \"#utility.yul\":21405:21456   */\n      tag_412\n        /* \"#utility.yul\":21453:21454   */\n      0x00\n        /* \"#utility.yul\":21449:21455   */\n      not\n        /* \"#utility.yul\":21441:21446   */\n      dup5\n        /* \"#utility.yul\":21438:21439   */\n      0x08\n        /* \"#utility.yul\":21434:21447   */\n      mul\n        /* \"#utility.yul\":21405:21456   */\n      tag_192\n      jump\t// in\n    tag_412:\n        /* \"#utility.yul\":21401:21457   */\n      not\n        /* \"#utility.yul\":21486:21490   */\n      dup1\n        /* \"#utility.yul\":21480:21484   */\n      dup4\n        /* \"#utility.yul\":21476:21491   */\n      and\n        /* \"#utility.yul\":21466:21491   */\n      swap2\n      pop\n        /* \"#utility.yul\":21379:21497   */\n      pop\n        /* \"#utility.yul\":21328:21497   */\n      swap3\n      swap2\n      pop\n      pop\n      jump\t// out\n        /* \"#utility.yul\":21502:21797   */\n    tag_194:\n        /* \"#utility.yul\":21578:21582   */\n      0x00\n        /* \"#utility.yul\":21724:21753   */\n      tag_414\n        /* \"#utility.yul\":21749:21752   */\n      dup4\n        /* \"#utility.yul\":21743:21747   */\n      dup4\n        /* \"#utility.yul\":21724:21753   */\n      tag_193\n      jump\t// in\n    tag_414:\n        /* \"#utility.yul\":21716:21753   */\n      swap2\n      pop\n        /* \"#utility.yul\":21786:21789   */\n      dup3\n        /* \"#utility.yul\":21783:21784   */\n      0x02\n        /* \"#utility.yul\":21779:21790   */\n      mul\n        /* \"#utility.yul\":21773:21777   */\n      dup3\n        /* \"#utility.yul\":21770:21791   */\n      or\n        /* \"#utility.yul\":21762:21791   */\n      swap1\n      pop\n        /* \"#utility.yul\":21502:21797   */\n      swap3\n      swap2\n      pop\n      pop\n      jump\t// out\n        /* \"#utility.yul\":21802:23197   */\n    tag_102:\n        /* \"#utility.yul\":21919:21956   */\n      tag_416\n        /* \"#utility.yul\":21952:21955   */\n      dup3\n        /* \"#utility.yul\":21919:21956   */\n      tag_143\n      jump\t// in\n    tag_416:\n        /* \"#utility.yul\":22021:22039   */\n      0xffffffffffffffff\n        /* \"#utility.yul\":22013:22019   */\n      dup2\n        /* \"#utility.yul\":22010:22040   */\n      gt\n        /* \"#utility.yul\":22007:22063   */\n      iszero\n      tag_417\n      jumpi\n        /* \"#utility.yul\":22043:22061   */\n      tag_418\n      tag_165\n      jump\t// in\n    tag_418:\n        /* \"#utility.yul\":22007:22063   */\n    tag_417:\n        /* \"#utility.yul\":22087:22125   */\n      tag_419\n        /* \"#utility.yul\":22119:22123   */\n      dup3\n        /* \"#utility.yul\":22113:22124   */\n      sload\n        /* \"#utility.yul\":22087:22125   */\n      tag_57\n      jump\t// in\n    tag_419:\n        /* \"#utility.yul\":22172:22239   */\n      tag_420\n        /* \"#utility.yul\":22232:22238   */\n      dup3\n        /* \"#utility.yul\":22224:22230   */\n      dup3\n        /* \"#utility.yul\":22218:22222   */\n      dup6\n        /* \"#utility.yul\":22172:22239   */\n      tag_191\n      jump\t// in\n    tag_420:\n        /* \"#utility.yul\":22266:22267   */\n      0x00\n        /* \"#utility.yul\":22290:22294   */\n      0x20\n        /* \"#utility.yul\":22277:22294   */\n      swap1\n      pop\n        /* \"#utility.yul\":22322:22324   */\n      0x1f\n        /* \"#utility.yul\":22314:22320   */\n      dup4\n        /* \"#utility.yul\":22311:22325   */\n      gt\n        /* \"#utility.yul\":22339:22340   */\n      0x01\n        /* \"#utility.yul\":22334:22952   */\n      dup2\n      eq\n      tag_422\n      jumpi\n        /* \"#utility.yul\":22996:22997   */\n      0x00\n        /* \"#utility.yul\":23013:23019   */\n      dup5\n        /* \"#utility.yul\":23010:23087   */\n      iszero\n      tag_423\n      jumpi\n        /* \"#utility.yul\":23062:23071   */\n      dup3\n        /* \"#utility.yul\":23057:23060   */\n      dup8\n        /* \"#utility.yul\":23053:23072   */\n      add\n        /* \"#utility.yul\":23047:23073   */\n      mload\n        /* \"#utility.yul\":23038:23073   */\n      swap1\n      pop\n        /* \"#utility.yul\":23010:23087   */\n    tag_423:\n        /* \"#utility.yul\":23113:23180   */\n      tag_424\n        /* \"#utility.yul\":23173:23179   */\n      dup6\n        /* \"#utility.yul\":23166:23171   */\n      dup3\n        /* \"#utility.yul\":23113:23180   */\n      tag_194\n      jump\t// in\n    tag_424:\n        /* \"#utility.yul\":23107:23111   */\n      dup7\n        /* \"#utility.yul\":23100:23181   */\n      sstore\n        /* \"#utility.yul\":22969:23191   */\n      pop\n        /* \"#utility.yul\":22304:23191   */\n      jump(tag_421)\n        /* \"#utility.yul\":22334:22952   */\n    tag_422:\n        /* \"#utility.yul\":22386:22390   */\n      0x1f\n        /* \"#utility.yul\":22382:22391   */\n      not\n        /* \"#utility.yul\":22374:22380   */\n      dup5\n        /* \"#utility.yul\":22370:22392   */\n      and\n        /* \"#utility.yul\":22420:22457   */\n      tag_425\n        /* \"#utility.yul\":22452:22456   */\n      dup7\n        /* \"#utility.yul\":22420:22457   */\n      tag_180\n      jump\t// in\n    tag_425:\n        /* \"#utility.yul\":22479:22480   */\n      0x00\n        /* \"#utility.yul\":22493:22701   */\n    tag_426:\n        /* \"#utility.yul\":22507:22514   */\n      dup3\n        /* \"#utility.yul\":22504:22505   */\n      dup2\n        /* \"#utility.yul\":22501:22515   */\n      lt\n        /* \"#utility.yul\":22493:22701   */\n      iszero\n      tag_428\n      jumpi\n        /* \"#utility.yul\":22586:22595   */\n      dup5\n        /* \"#utility.yul\":22581:22584   */\n      dup10\n        /* \"#utility.yul\":22577:22596   */\n      add\n        /* \"#utility.yul\":22571:22597   */\n      mload\n        /* \"#utility.yul\":22563:22569   */\n      dup3\n        /* \"#utility.yul\":22556:22598   */\n      sstore\n        /* \"#utility.yul\":22637:22638   */\n      0x01\n        /* \"#utility.yul\":22629:22635   */\n      dup3\n        /* \"#utility.yul\":22625:22639   */\n      add\n        /* \"#utility.yul\":22615:22639   */\n      swap2\n      pop\n        /* \"#utility.yul\":22684:22686   */\n      0x20\n        /* \"#utility.yul\":22673:22682   */\n      dup6\n        /* \"#utility.yul\":22669:22687   */\n      add\n        /* \"#utility.yul\":22656:22687   */\n      swap5\n      pop\n        /* \"#utility.yul\":22530:22534   */\n      0x20\n        /* \"#utility.yul\":22527:22528   */\n      dup2\n        /* \"#utility.yul\":22523:22535   */\n      add\n        /* \"#utility.yul\":22518:22535   */\n      swap1\n      pop\n        /* \"#utility.yul\":22493:22701   */\n      jump(tag_426)\n    tag_428:\n        /* \"#utility.yul\":22729:22735   */\n      dup7\n        /* \"#utility.yul\":22720:22727   */\n      dup4\n        /* \"#utility.yul\":22717:22736   */\n      lt\n        /* \"#utility.yul\":22714:22893   */\n      iszero\n      tag_429\n      jumpi\n        /* \"#utility.yul\":22787:22796   */\n      dup5\n        /* \"#utility.yul\":22782:22785   */\n      dup10\n        /* \"#utility.yul\":22778:22797   */\n      add\n        /* \"#utility.yul\":22772:22798   */\n      mload\n        /* \"#utility.yul\":22830:22878   */\n      tag_430\n        /* \"#utility.yul\":22872:22876   */\n      0x1f\n        /* \"#utility.yul\":22864:22870   */\n      dup10\n        /* \"#utility.yul\":22860:22877   */\n      and\n        /* \"#utility.yul\":22849:22858   */\n      dup3\n        /* \"#utility.yul\":22830:22878   */\n      tag_193\n      jump\t// in\n    tag_430:\n        /* \"#utility.yul\":22822:22828   */\n      dup4\n        /* \"#utility.yul\":22815:22879   */\n      sstore\n        /* \"#utility.yul\":22737:22893   */\n      pop\n        /* \"#utility.yul\":22714:22893   */\n    tag_429:\n        /* \"#utility.yul\":22939:22940   */\n      0x01\n        /* \"#utility.yul\":22935:22936   */\n      0x02\n        /* \"#utility.yul\":22927:22933   */\n      dup9\n        /* \"#utility.yul\":22923:22937   */\n      mul\n        /* \"#utility.yul\":22919:22941   */\n      add\n        /* \"#utility.yul\":22913:22917   */\n      dup9\n        /* \"#utility.yul\":22906:22942   */\n      sstore\n        /* \"#utility.yul\":22341:22952   */\n      pop\n      pop\n      pop\n        /* \"#utility.yul\":22304:23191   */\n    tag_421:\n      pop\n        /* \"#utility.yul\":21894:23197   */\n      pop\n      pop\n      pop\n        /* \"#utility.yul\":21802:23197   */\n      pop\n      pop\n      jump\t// out\n        /* \"#utility.yul\":23203:23626   */\n    tag_108:\n        /* \"#utility.yul\":23344:23348   */\n      0x00\n        /* \"#utility.yul\":23382:23384   */\n      0x40\n        /* \"#utility.yul\":23371:23380   */\n      dup3\n        /* \"#utility.yul\":23367:23385   */\n      add\n        /* \"#utility.yul\":23359:23385   */\n      swap1\n      pop\n        /* \"#utility.yul\":23395:23466   */\n      tag_432\n        /* \"#utility.yul\":23463:23464   */\n      0x00\n        /* \"#utility.yul\":23452:23461   */\n      dup4\n        /* \"#utility.yul\":23448:23465   */\n      add\n        /* \"#utility.yul\":23439:23445   */\n      dup6\n        /* \"#utility.yul\":23395:23466   */\n      tag_142\n      jump\t// in\n    tag_432:\n        /* \"#utility.yul\":23513:23522   */\n      dup2\n        /* \"#utility.yul\":23507:23511   */\n      dup2\n        /* \"#utility.yul\":23503:23523   */\n      sub\n        /* \"#utility.yul\":23498:23500   */\n      0x20\n        /* \"#utility.yul\":23487:23496   */\n      dup4\n        /* \"#utility.yul\":23483:23501   */\n      add\n        /* \"#utility.yul\":23476:23524   */\n      mstore\n        /* \"#utility.yul\":23541:23619   */\n      tag_433\n        /* \"#utility.yul\":23614:23618   */\n      dup2\n        /* \"#utility.yul\":23605:23611   */\n      dup5\n        /* \"#utility.yul\":23541:23619   */\n      tag_147\n      jump\t// in\n    tag_433:\n        /* \"#utility.yul\":23533:23619   */\n      swap1\n      pop\n        /* \"#utility.yul\":23203:23626   */\n      swap4\n      swap3\n      pop\n      pop\n      pop\n      jump\t// out\n        /* \"#utility.yul\":23632:23812   */\n    tag_195:\n        /* \"#utility.yul\":23680:23757   */\n      0x4e487b7100000000000000000000000000000000000000000000000000000000\n        /* \"#utility.yul\":23677:23678   */\n      0x00\n        /* \"#utility.yul\":23670:23758   */\n      mstore\n        /* \"#utility.yul\":23777:23781   */\n      0x11\n        /* \"#utility.yul\":23774:23775   */\n      0x04\n        /* \"#utility.yul\":23767:23782   */\n      mstore\n        /* \"#utility.yul\":23801:23805   */\n      0x24\n        /* \"#utility.yul\":23798:23799   */\n      0x00\n        /* \"#utility.yul\":23791:23806   */\n      revert\n        /* \"#utility.yul\":23818:24051   */\n    tag_110:\n        /* \"#utility.yul\":23857:23860   */\n      0x00\n        /* \"#utility.yul\":23880:23904   */\n      tag_436\n        /* \"#utility.yul\":23898:23903   */\n      dup3\n        /* \"#utility.yul\":23880:23904   */\n      tag_135\n      jump\t// in\n    tag_436:\n        /* \"#utility.yul\":23871:23904   */\n      swap2\n      pop\n        /* \"#utility.yul\":23926:23992   */\n      0xffffffffffffffffffffffffffffffffffffffffffffffffffffffffffffffff\n        /* \"#utility.yul\":23919:23924   */\n      dup3\n        /* \"#utility.yul\":23916:23993   */\n      sub\n        /* \"#utility.yul\":23913:24016   */\n      tag_437\n      jumpi\n        /* \"#utility.yul\":23996:24014   */\n      tag_438\n      tag_195\n      jump\t// in\n    tag_438:\n        /* \"#utility.yul\":23913:24016   */\n    tag_437:\n        /* \"#utility.yul\":24043:24044   */\n      0x01\n        /* \"#utility.yul\":24036:24041   */\n      dup3\n        /* \"#utility.yul\":24032:24045   */\n      add\n        /* \"#utility.yul\":24025:24045   */\n      swap1\n      pop\n        /* \"#utility.yul\":23818:24051   */\n      swap2\n      swap1\n      pop\n      jump\t// out\n        /* \"#utility.yul\":24057:24251   */\n    tag_112:\n        /* \"#utility.yul\":24097:24101   */\n      0x00\n        /* \"#utility.yul\":24117:24137   */\n      tag_440\n        /* \"#utility.yul\":24135:24136   */\n      dup3\n        /* \"#utility.yul\":24117:24137   */\n      tag_135\n      jump\t// in\n    tag_440:\n        /* \"#utility.yul\":24112:24137   */\n      swap2\n      pop\n        /* \"#utility.yul\":24151:24171   */\n      tag_441\n        /* \"#utility.yul\":24169:24170   */\n      dup4\n        /* \"#utility.yul\":24151:24171   */\n      tag_135\n      jump\t// in\n    tag_441:\n        /* \"#utility.yul\":24146:24171   */\n      swap3\n      pop\n        /* \"#utility.yul\":24195:24196   */\n      dup3\n        /* \"#utility.yul\":24192:24193   */\n      dup3\n        /* \"#utility.yul\":24188:24197   */\n      sub\n        /* \"#utility.yul\":24180:24197   */\n      swap1\n      pop\n        /* \"#utility.yul\":24219:24220   */\n      dup2\n        /* \"#utility.yul\":24213:24217   */\n      dup2\n        /* \"#utility.yul\":24210:24221   */\n      gt\n        /* \"#utility.yul\":24207:24244   */\n      iszero\n      tag_442\n      jumpi\n        /* \"#utility.yul\":24224:24242   */\n      tag_443\n      tag_195\n      jump\t// in\n    tag_443:\n        /* \"#utility.yul\":24207:24244   */\n    tag_442:\n        /* \"#utility.yul\":24057:24251   */\n      swap3\n      swap2\n      pop\n      pop\n      jump\t// out\n\n    auxdata: 0xa26469706673582212204d72a855222ce75b05ee330f9242fbb14e40a93b2edef503773f5d1904b7415864736f6c634300081d0033\n}\n",
				"bytecode": {
					"linkReferences": {},
					"object": "6080604052348015600e575f5ffd5b506117908061001c5f395ff3fe608060405234801561000f575f5ffd5b506004361061007b575f3560e01c80636b9d84d8116100595780636b9d84d814610108578063804701ab14610138578063c638407114610168578063caba6aad146101865761007b565b806313c7ee0d1461007f5780635a55c1f01461009b5780635df81330146100d2575b5f5ffd5b61009960048036038101906100949190610bb4565b6101b6565b005b6100b560048036038101906100b09190610bf2565b6102a6565b6040516100c9989796959493929190610d9f565b60405180910390f35b6100ec60048036038101906100e79190610bf2565b610602565b6040516100ff9796959493929190610e37565b60405180910390f35b610122600480360381019061011d9190610bf2565b6107d1565b60405161012f9190610f70565b60405180910390f35b610152600480360381019061014d919061119e565b6108b1565b60405161015f91906112ab565b60405180910390f35b6101706109f6565b60405161017d91906112ab565b60405180910390f35b6101a0600480360381019061019b91906112c4565b6109fc565b6040516101ad9190611311565b60405180910390f35b60025482106101fa576040517f08c379a00000000000000000000000000000000000000000000000000000000081526004016101f190611374565b60405180910390fd5b60015f8381526020019081526020015f2081908060018154018082558091505060019003905f5260205f20015f9091909190916101000a81548173ffffffffffffffffffffffffffffffffffffffff021916908373ffffffffffffffffffffffffffffffffffffffff1602179055507f3035eca168307cb0cfbe9490648b49492ae9954b2f8b86f8ada18492e6b49434828260405161029a929190611392565b60405180910390a15050565b5f6060805f5f60605f606060025489106102f5576040517f08c379a00000000000000000000000000000000000000000000000000000000081526004016102ec90611374565b60405180910390fd5b5f5f5f8b81526020019081526020015f20604051806101000160405290815f820154815260200160018201805461032b906113e6565b80601f0160208091040260200160405190810160405280929190818152602001828054610357906113e6565b80156103a25780601f10610379576101008083540402835291602001916103a2565b820191905f5260205f20905b81548152906001019060200180831161038557829003601f168201915b505050505081526020016002820180546103bb906113e6565b80601f01602080910402602001604051908101604052809291908181526020018280546103e7906113e6565b80156104325780601f1061040957610100808354040283529160200191610432565b820191905f5260205f20905b81548152906001019060200180831161041557829003601f168201915b50505050508152602001600382015481526020016004820154815260200160058201805461045f906113e6565b80601f016020809104026020016040519081016040528092919081815260200182805461048b906113e6565b80156104d65780601f106104ad576101008083540402835291602001916104d6565b820191905f5260205f20905b8154815290600101906020018083116104b957829003601f168201915b505050505081526020016006820154815260200160078201805480602002602001604051908101604052809291908181526020015f905b828210156105b5578382905f5260205f2001805461052a906113e6565b80601f0160208091040260200160405190810160405280929190818152602001828054610556906113e6565b80156105a15780601f10610578576101008083540402835291602001916105a1565b820191905f5260205f20905b81548152906001019060200180831161058457829003601f168201915b50505050508152602001906001019061050d565b50505050815250509050805f015181602001518260400151836060015184608001518560a001518660c001518760e001519850985098509850985098509850985050919395975091939597565b5f602052805f5260405f205f91509050805f015490806001018054610626906113e6565b80601f0160208091040260200160405190810160405280929190818152602001828054610652906113e6565b801561069d5780601f106106745761010080835404028352916020019161069d565b820191905f5260205f20905b81548152906001019060200180831161068057829003601f168201915b5050505050908060020180546106b2906113e6565b80601f01602080910402602001604051908101604052809291908181526020018280546106de906113e6565b80156107295780601f1061070057610100808354040283529160200191610729565b820191905f5260205f20905b81548152906001019060200180831161070c57829003601f168201915b50505050509080600301549080600401549080600501805461074a906113e6565b80601f0160208091040260200160405190810160405280929190818152602001828054610776906113e6565b80156107c15780601f10610798576101008083540402835291602001916107c1565b820191905f5260205f20905b8154815290600101906020018083116107a457829003601f168201915b5050505050908060060154905087565b60606002548210610817576040517f08c379a000000000000000000000000000000000000000000000000000000000815260040161080e90611374565b60405180910390fd5b60015f8381526020019081526020015f208054806020026020016040519081016040528092919081815260200182805480156108a557602002820191905f5260205f20905b815f9054906101000a900473ffffffffffffffffffffffffffffffffffffffff1673ffffffffffffffffffffffffffffffffffffffff168152602001906001019080831161085c575b50505050509050919050565b5f6040518061010001604052806002548152602001898152602001888152602001878152602001868152602001858152602001848152602001838152505f5f60025481526020019081526020015f205f820151815f0155602082015181600101908161091d91906115b6565b50604082015181600201908161093391906115b6565b50606082015181600301556080820151816004015560a082015181600501908161095d91906115b6565b5060c0820151816006015560e0820151816007019080519060200190610984929190610a44565b509050507f8225b3ad6e66d4c2342e977fbab464beaf3ae9d33b222938cff268dfd7b55b83600254896040516109bb929190611685565b60405180910390a160025f8154809291906109d5906116e0565b919050555060016002546109e99190611727565b9050979650505050505050565b60025481565b6001602052815f5260405f208181548110610a15575f80fd5b905f5260205f20015f915091509054906101000a900473ffffffffffffffffffffffffffffffffffffffff1681565b828054828255905f5260205f20908101928215610a8a579160200282015b82811115610a89578251829081610a7991906115b6565b5091602001919060010190610a62565b5b509050610a979190610a9b565b5090565b5b80821115610aba575f8181610ab19190610abe565b50600101610a9c565b5090565b508054610aca906113e6565b5f825580601f10610adb5750610af8565b601f0160209004905f5260205f2090810190610af79190610afb565b5b50565b5b80821115610b12575f815f905550600101610afc565b5090565b5f604051905090565b5f5ffd5b5f5ffd5b5f819050919050565b610b3981610b27565b8114610b43575f5ffd5b50565b5f81359050610b5481610b30565b92915050565b5f73ffffffffffffffffffffffffffffffffffffffff82169050919050565b5f610b8382610b5a565b9050919050565b610b9381610b79565b8114610b9d575f5ffd5b50565b5f81359050610bae81610b8a565b92915050565b5f5f60408385031215610bca57610bc9610b1f565b5b5f610bd785828601610b46565b9250506020610be885828601610ba0565b9150509250929050565b5f60208284031215610c0757610c06610b1f565b5b5f610c1484828501610b46565b91505092915050565b610c2681610b27565b82525050565b5f81519050919050565b5f82825260208201905092915050565b8281835e5f83830152505050565b5f601f19601f8301169050919050565b5f610c6e82610c2c565b610c788185610c36565b9350610c88818560208601610c46565b610c9181610c54565b840191505092915050565b5f81519050919050565b5f82825260208201905092915050565b5f819050602082019050919050565b5f82825260208201905092915050565b5f610cdf82610c2c565b610ce98185610cc5565b9350610cf9818560208601610c46565b610d0281610c54565b840191505092915050565b5f610d188383610cd5565b905092915050565b5f602082019050919050565b5f610d3682610c9c565b610d408185610ca6565b935083602082028501610d5285610cb6565b805f5b85811015610d8d5784840389528151610d6e8582610d0d565b9450610d7983610d20565b925060208a01995050600181019050610d55565b50829750879550505050505092915050565b5f61010082019050610db35f83018b610c1d565b8181036020830152610dc5818a610c64565b90508181036040830152610dd98189610c64565b9050610de86060830188610c1d565b610df56080830187610c1d565b81810360a0830152610e078186610c64565b9050610e1660c0830185610c1d565b81810360e0830152610e288184610d2c565b90509998505050505050505050565b5f60e082019050610e4a5f83018a610c1d565b8181036020830152610e5c8189610c64565b90508181036040830152610e708188610c64565b9050610e7f6060830187610c1d565b610e8c6080830186610c1d565b81810360a0830152610e9e8185610c64565b9050610ead60c0830184610c1d565b98975050505050505050565b5f81519050919050565b5f82825260208201905092915050565b5f819050602082019050919050565b610eeb81610b79565b82525050565b5f610efc8383610ee2565b60208301905092915050565b5f602082019050919050565b5f610f1e82610eb9565b610f288185610ec3565b9350610f3383610ed3565b805f5b83811015610f63578151610f4a8882610ef1565b9750610f5583610f08565b925050600181019050610f36565b5085935050505092915050565b5f6020820190508181035f830152610f888184610f14565b905092915050565b5f5ffd5b5f5ffd5b7f4e487b71000000000000000000000000000000000000000000000000000000005f52604160045260245ffd5b610fce82610c54565b810181811067ffffffffffffffff82111715610fed57610fec610f98565b5b80604052505050565b5f610fff610b16565b905061100b8282610fc5565b919050565b5f67ffffffffffffffff82111561102a57611029610f98565b5b61103382610c54565b9050602081019050919050565b828183375f83830152505050565b5f61106061105b84611010565b610ff6565b90508281526020810184848401111561107c5761107b610f94565b5b611087848285611040565b509392505050565b5f82601f8301126110a3576110a2610f90565b5b81356110b384826020860161104e565b91505092915050565b5f67ffffffffffffffff8211156110d6576110d5610f98565b5b602082029050602081019050919050565b5f5ffd5b5f6110fd6110f8846110bc565b610ff6565b905080838252602082019050602084028301858111156111205761111f6110e7565b5b835b8181101561116757803567ffffffffffffffff81111561114557611144610f90565b5b808601611152898261108f565b85526020850194505050602081019050611122565b5050509392505050565b5f82601f83011261118557611184610f90565b5b81356111958482602086016110eb565b91505092915050565b5f5f5f5f5f5f5f60e0888a0312156111b9576111b8610b1f565b5b5f88013567ffffffffffffffff8111156111d6576111d5610b23565b5b6111e28a828b0161108f565b975050602088013567ffffffffffffffff81111561120357611202610b23565b5b61120f8a828b0161108f565b96505060406112208a828b01610b46565b95505060606112318a828b01610b46565b945050608088013567ffffffffffffffff81111561125257611251610b23565b5b61125e8a828b0161108f565b93505060a061126f8a828b01610b46565b92505060c088013567ffffffffffffffff8111156112905761128f610b23565b5b61129c8a828b01611171565b91505092959891949750929550565b5f6020820190506112be5f830184610c1d565b92915050565b5f5f604083850312156112da576112d9610b1f565b5b5f6112e785828601610b46565b92505060206112f885828601610b46565b9150509250929050565b61130b81610b79565b82525050565b5f6020820190506113245f830184611302565b92915050565b7f566f746520646f6573206e6f74206578697374000000000000000000000000005f82015250565b5f61135e601383610c36565b91506113698261132a565b602082019050919050565b5f6020820190508181035f83015261138b81611352565b9050919050565b5f6040820190506113a55f830185610c1d565b6113b26020830184611302565b9392505050565b7f4e487b71000000000000000000000000000000000000000000000000000000005f52602260045260245ffd5b5f60028204905060018216806113fd57607f821691505b6020821081036114105761140f6113b9565b5b50919050565b5f819050815f5260205f209050919050565b5f6020601f8301049050919050565b5f82821b905092915050565b5f600883026114727fffffffffffffffffffffffffffffffffffffffffffffffffffffffffffffffff82611437565b61147c8683611437565b95508019841693508086168417925050509392505050565b5f819050919050565b5f6114b76114b26114ad84610b27565b611494565b610b27565b9050919050565b5f819050919050565b6114d08361149d565b6114e46114dc826114be565b848454611443565b825550505050565b5f5f905090565b6114fb6114ec565b6115068184846114c7565b505050565b5b818110156115295761151e5f826114f3565b60018101905061150c565b5050565b601f82111561156e5761153f81611416565b61154884611428565b81016020851015611557578190505b61156b61156385611428565b83018261150b565b50505b505050565b5f82821c905092915050565b5f61158e5f1984600802611573565b1980831691505092915050565b5f6115a6838361157f565b9150826002028217905092915050565b6115bf82610c2c565b67ffffffffffffffff8111156115d8576115d7610f98565b5b6115e282546113e6565b6115ed82828561152d565b5f60209050601f83116001811461161e575f841561160c578287015190505b611616858261159b565b86555061167d565b601f19841661162c86611416565b5f5b828110156116535784890151825560018201915060208501945060208101905061162e565b86831015611670578489015161166c601f89168261157f565b8355505b6001600288020188555050505b505050505050565b5f6040820190506116985f830185610c1d565b81810360208301526116aa8184610c64565b90509392505050565b7f4e487b71000000000000000000000000000000000000000000000000000000005f52601160045260245ffd5b5f6116ea82610b27565b91507fffffffffffffffffffffffffffffffffffffffffffffffffffffffffffffffff820361171c5761171b6116b3565b5b600182019050919050565b5f61173182610b27565b915061173c83610b27565b9250828203905081811115611754576117536116b3565b5b9291505056fea26469706673582212204d72a855222ce75b05ee330f9242fbb14e40a93b2edef503773f5d1904b7415864736f6c634300081d0033",
					"opcodes": "PUSH1 0x80 PUSH1 0x40 MSTORE CALLVALUE DUP1 ISZERO PUSH1 0xE JUMPI PUSH0 PUSH0 REVERT JUMPDEST POP PUSH2 0x1790 DUP1 PUSH2 0x1C PUSH0 CODECOPY PUSH0 RETURN INVALID PUSH1 0x80 PUSH1 0x40 MSTORE CALLVALUE DUP1 ISZERO PUSH2 0xF JUMPI PUSH0 PUSH0 REVERT JUMPDEST POP PUSH1 0x4 CALLDATASIZE LT PUSH2 0x7B JUMPI PUSH0 CALLDATALOAD PUSH1 0xE0 SHR DUP1 PUSH4 0x6B9D84D8 GT PUSH2 0x59 JUMPI DUP1 PUSH4 0x6B9D84D8 EQ PUSH2 0x108 JUMPI DUP1 PUSH4 0x804701AB EQ PUSH2 0x138 JUMPI DUP1 PUSH4 0xC6384071 EQ PUSH2 0x168 JUMPI DUP1 PUSH4 0xCABA6AAD EQ PUSH2 0x186 JUMPI PUSH2 0x7B JUMP JUMPDEST DUP1 PUSH4 0x13C7EE0D EQ PUSH2 0x7F JUMPI DUP1 PUSH4 0x5A55C1F0 EQ PUSH2 0x9B JUMPI DUP1 PUSH4 0x5DF81330 EQ PUSH2 0xD2 JUMPI JUMPDEST PUSH0 PUSH0 REVERT JUMPDEST PUSH2 0x99 PUSH1 0x4 DUP1 CALLDATASIZE SUB DUP2 ADD SWAP1 PUSH2 0x94 SWAP2 SWAP1 PUSH2 0xBB4 JUMP JUMPDEST PUSH2 0x1B6 JUMP JUMPDEST STOP JUMPDEST PUSH2 0xB5 PUSH1 0x4 DUP1 CALLDATASIZE SUB DUP2 ADD SWAP1 PUSH2 0xB0 SWAP2 SWAP1 PUSH2 0xBF2 JUMP JUMPDEST PUSH2 0x2A6 JUMP JUMPDEST PUSH1 0x40 MLOAD PUSH2 0xC9 SWAP9 SWAP8 SWAP7 SWAP6 SWAP5 SWAP4 SWAP3 SWAP2 SWAP1 PUSH2 0xD9F JUMP JUMPDEST PUSH1 0x40 MLOAD DUP1 SWAP2 SUB SWAP1 RETURN JUMPDEST PUSH2 0xEC PUSH1 0x4 DUP1 CALLDATASIZE SUB DUP2 ADD SWAP1 PUSH2 0xE7 SWAP2 SWAP1 PUSH2 0xBF2 JUMP JUMPDEST PUSH2 0x602 JUMP JUMPDEST PUSH1 0x40 MLOAD PUSH2 0xFF SWAP8 SWAP7 SWAP6 SWAP5 SWAP4 SWAP3 SWAP2 SWAP1 PUSH2 0xE37 JUMP JUMPDEST PUSH1 0x40 MLOAD DUP1 SWAP2 SUB SWAP1 RETURN JUMPDEST PUSH2 0x122 PUSH1 0x4 DUP1 CALLDATASIZE SUB DUP2 ADD SWAP1 PUSH2 0x11D SWAP2 SWAP1 PUSH2 0xBF2 JUMP JUMPDEST PUSH2 0x7D1 JUMP JUMPDEST PUSH1 0x40 MLOAD PUSH2 0x12F SWAP2 SWAP1 PUSH2 0xF70 JUMP JUMPDEST PUSH1 0x40 MLOAD DUP1 SWAP2 SUB SWAP1 RETURN JUMPDEST PUSH2 0x152 PUSH1 0x4 DUP1 CALLDATASIZE SUB DUP2 ADD SWAP1 PUSH2 0x14D SWAP2 SWAP1 PUSH2 0x119E JUMP JUMPDEST PUSH2 0x8B1 JUMP JUMPDEST PUSH1 0x40 MLOAD PUSH2 0x15F SWAP2 SWAP1 PUSH2 0x12AB JUMP JUMPDEST PUSH1 0x40 MLOAD DUP1 SWAP2 SUB SWAP1 RETURN JUMPDEST PUSH2 0x170 PUSH2 0x9F6 JUMP JUMPDEST PUSH1 0x40 MLOAD PUSH2 0x17D SWAP2 SWAP1 PUSH2 0x12AB JUMP JUMPDEST PUSH1 0x40 MLOAD DUP1 SWAP2 SUB SWAP1 RETURN JUMPDEST PUSH2 0x1A0 PUSH1 0x4 DUP1 CALLDATASIZE SUB DUP2 ADD SWAP1 PUSH2 0x19B SWAP2 SWAP1 PUSH2 0x12C4 JUMP JUMPDEST PUSH2 0x9FC JUMP JUMPDEST PUSH1 0x40 MLOAD PUSH2 0x1AD SWAP2 SWAP1 PUSH2 0x1311 JUMP JUMPDEST PUSH1 0x40 MLOAD DUP1 SWAP2 SUB SWAP1 RETURN JUMPDEST PUSH1 0x2 SLOAD DUP3 LT PUSH2 0x1FA JUMPI PUSH1 0x40 MLOAD PUSH32 0x8C379A000000000000000000000000000000000000000000000000000000000 DUP2 MSTORE PUSH1 0x4 ADD PUSH2 0x1F1 SWAP1 PUSH2 0x1374 JUMP JUMPDEST PUSH1 0x40 MLOAD DUP1 SWAP2 SUB SWAP1 REVERT JUMPDEST PUSH1 0x1 PUSH0 DUP4 DUP2 MSTORE PUSH1 0x20 ADD SWAP1 DUP2 MSTORE PUSH1 0x20 ADD PUSH0 KECCAK256 DUP2 SWAP1 DUP1 PUSH1 0x1 DUP2 SLOAD ADD DUP1 DUP3 SSTORE DUP1 SWAP2 POP POP PUSH1 0x1 SWAP1 SUB SWAP1 PUSH0 MSTORE PUSH1 0x20 PUSH0 KECCAK256 ADD PUSH0 SWAP1 SWAP2 SWAP1 SWAP2 SWAP1 SWAP2 PUSH2 0x100 EXP DUP2 SLOAD DUP2 PUSH20 0xFFFFFFFFFFFFFFFFFFFFFFFFFFFFFFFFFFFFFFFF MUL NOT AND SWAP1 DUP4 PUSH20 0xFFFFFFFFFFFFFFFFFFFFFFFFFFFFFFFFFFFFFFFF AND MUL OR SWAP1 SSTORE POP PUSH32 0x3035ECA168307CB0CFBE9490648B49492AE9954B2F8B86F8ADA18492E6B49434 DUP3 DUP3 PUSH1 0x40 MLOAD PUSH2 0x29A SWAP3 SWAP2 SWAP1 PUSH2 0x1392 JUMP JUMPDEST PUSH1 0x40 MLOAD DUP1 SWAP2 SUB SWAP1 LOG1 POP POP JUMP JUMPDEST PUSH0 PUSH1 0x60 DUP1 PUSH0 PUSH0 PUSH1 0x60 PUSH0 PUSH1 0x60 PUSH1 0x2 SLOAD DUP10 LT PUSH2 0x2F5 JUMPI PUSH1 0x40 MLOAD PUSH32 0x8C379A000000000000000000000000000000000000000000000000000000000 DUP2 MSTORE PUSH1 0x4 ADD PUSH2 0x2EC SWAP1 PUSH2 0x1374 JUMP JUMPDEST PUSH1 0x40 MLOAD DUP1 SWAP2 SUB SWAP1 REVERT JUMPDEST PUSH0 PUSH0 PUSH0 DUP12 DUP2 MSTORE PUSH1 0x20 ADD SWAP1 DUP2 MSTORE PUSH1 0x20 ADD PUSH0 KECCAK256 PUSH1 0x40 MLOAD DUP1 PUSH2 0x100 ADD PUSH1 0x40 MSTORE SWAP1 DUP2 PUSH0 DUP3 ADD SLOAD DUP2 MSTORE PUSH1 0x20 ADD PUSH1 0x1 DUP3 ADD DUP1 SLOAD PUSH2 0x32B SWAP1 PUSH2 0x13E6 JUMP JUMPDEST DUP1 PUSH1 0x1F ADD PUSH1 0x20 DUP1 SWAP2 DIV MUL PUSH1 0x20 ADD PUSH1 0x40 MLOAD SWAP1 DUP2 ADD PUSH1 0x40 MSTORE DUP1 SWAP3 SWAP2 SWAP1 DUP2 DUP2 MSTORE PUSH1 0x20 ADD DUP3 DUP1 SLOAD PUSH2 0x357 SWAP1 PUSH2 0x13E6 JUMP JUMPDEST DUP1 ISZERO PUSH2 0x3A2 JUMPI DUP1 PUSH1 0x1F LT PUSH2 0x379 JUMPI PUSH2 0x100 DUP1 DUP4 SLOAD DIV MUL DUP4 MSTORE SWAP2 PUSH1 0x20 ADD SWAP2 PUSH2 0x3A2 JUMP JUMPDEST DUP3 ADD SWAP2 SWAP1 PUSH0 MSTORE PUSH1 0x20 PUSH0 KECCAK256 SWAP1 JUMPDEST DUP2 SLOAD DUP2 MSTORE SWAP1 PUSH1 0x1 ADD SWAP1 PUSH1 0x20 ADD DUP1 DUP4 GT PUSH2 0x385 JUMPI DUP3 SWAP1 SUB PUSH1 0x1F AND DUP3 ADD SWAP2 JUMPDEST POP POP POP POP POP DUP2 MSTORE PUSH1 0x20 ADD PUSH1 0x2 DUP3 ADD DUP1 SLOAD PUSH2 0x3BB SWAP1 PUSH2 0x13E6 JUMP JUMPDEST DUP1 PUSH1 0x1F ADD PUSH1 0x20 DUP1 SWAP2 DIV MUL PUSH1 0x20 ADD PUSH1 0x40 MLOAD SWAP1 DUP2 ADD PUSH1 0x40 MSTORE DUP1 SWAP3 SWAP2 SWAP1 DUP2 DUP2 MSTORE PUSH1 0x20 ADD DUP3 DUP1 SLOAD PUSH2 0x3E7 SWAP1 PUSH2 0x13E6 JUMP JUMPDEST DUP1 ISZERO PUSH2 0x432 JUMPI DUP1 PUSH1 0x1F LT PUSH2 0x409 JUMPI PUSH2 0x100 DUP1 DUP4 SLOAD DIV MUL DUP4 MSTORE SWAP2 PUSH1 0x20 ADD SWAP2 PUSH2 0x432 JUMP JUMPDEST DUP3 ADD SWAP2 SWAP1 PUSH0 MSTORE PUSH1 0x20 PUSH0 KECCAK256 SWAP1 JUMPDEST DUP2 SLOAD DUP2 MSTORE SWAP1 PUSH1 0x1 ADD SWAP1 PUSH1 0x20 ADD DUP1 DUP4 GT PUSH2 0x415 JUMPI DUP3 SWAP1 SUB PUSH1 0x1F AND DUP3 ADD SWAP2 JUMPDEST POP POP POP POP POP DUP2 MSTORE PUSH1 0x20 ADD PUSH1 0x3 DUP3 ADD SLOAD DUP2 MSTORE PUSH1 0x20 ADD PUSH1 0x4 DUP3 ADD SLOAD DUP2 MSTORE PUSH1 0x20 ADD PUSH1 0x5 DUP3 ADD DUP1 SLOAD PUSH2 0x45F SWAP1 PUSH2 0x13E6 JUMP JUMPDEST DUP1 PUSH1 0x1F ADD PUSH1 0x20 DUP1 SWAP2 DIV MUL PUSH1 0x20 ADD PUSH1 0x40 MLOAD SWAP1 DUP2 ADD PUSH1 0x40 MSTORE DUP1 SWAP3 SWAP2 SWAP1 DUP2 DUP2 MSTORE PUSH1 0x20 ADD DUP3 DUP1 SLOAD PUSH2 0x48B SWAP1 PUSH2 0x13E6 JUMP JUMPDEST DUP1 ISZERO PUSH2 0x4D6 JUMPI DUP1 PUSH1 0x1F LT PUSH2 0x4AD JUMPI PUSH2 0x100 DUP1 DUP4 SLOAD DIV MUL DUP4 MSTORE SWAP2 PUSH1 0x20 ADD SWAP2 PUSH2 0x4D6 JUMP JUMPDEST DUP3 ADD SWAP2 SWAP1 PUSH0 MSTORE PUSH1 0x20 PUSH0 KECCAK256 SWAP1 JUMPDEST DUP2 SLOAD DUP2 MSTORE SWAP1 PUSH1 0x1 ADD SWAP1 PUSH1 0x20 ADD DUP1 DUP4 GT PUSH2 0x4B9 JUMPI DUP3 SWAP1 SUB PUSH1 0x1F AND DUP3 ADD SWAP2 JUMPDEST POP POP POP POP POP DUP2 MSTORE PUSH1 0x20 ADD PUSH1 0x6 DUP3 ADD SLOAD DUP2 MSTORE PUSH1 0x20 ADD PUSH1 0x7 DUP3 ADD DUP1 SLOAD DUP1 PUSH1 0x20 MUL PUSH1 0x20 ADD PUSH1 0x40 MLOAD SWAP1 DUP2 ADD PUSH1 0x40 MSTORE DUP1 SWAP3 SWAP2 SWAP1 DUP2 DUP2 MSTORE PUSH1 0x20 ADD PUSH0 SWAP1 JUMPDEST DUP3 DUP3 LT ISZERO PUSH2 0x5B5 JUMPI DUP4 DUP3 SWAP1 PUSH0 MSTORE PUSH1 0x20 PUSH0 KECCAK256 ADD DUP1 SLOAD PUSH2 0x52A SWAP1 PUSH2 0x13E6 JUMP JUMPDEST DUP1 PUSH1 0x1F ADD PUSH1 0x20 DUP1 SWAP2 DIV MUL PUSH1 0x20 ADD PUSH1 0x40 MLOAD SWAP1 DUP2 ADD PUSH1 0x40 MSTORE DUP1 SWAP3 SWAP2 SWAP1 DUP2 DUP2 MSTORE PUSH1 0x20 ADD DUP3 DUP1 SLOAD PUSH2 0x556 SWAP1 PUSH2 0x13E6 JUMP JUMPDEST DUP1 ISZERO PUSH2 0x5A1 JUMPI DUP1 PUSH1 0x1F LT PUSH2 0x578 JUMPI PUSH2 0x100 DUP1 DUP4 SLOAD DIV MUL DUP4 MSTORE SWAP2 PUSH1 0x20 ADD SWAP2 PUSH2 0x5A1 JUMP JUMPDEST DUP3 ADD SWAP2 SWAP1 PUSH0 MSTORE PUSH1 0x20 PUSH0 KECCAK256 SWAP1 JUMPDEST DUP2 SLOAD DUP2 MSTORE SWAP1 PUSH1 0x1 ADD SWAP1 PUSH1 0x20 ADD DUP1 DUP4 GT PUSH2 0x584 JUMPI DUP3 SWAP1 SUB PUSH1 0x1F AND DUP3 ADD SWAP2 JUMPDEST POP POP POP POP POP DUP2 MSTORE PUSH1 0x20 ADD SWAP1 PUSH1 0x1 ADD SWAP1 PUSH2 0x50D JUMP JUMPDEST POP POP POP POP DUP2 MSTORE POP POP SWAP1 POP DUP1 PUSH0 ADD MLOAD DUP2 PUSH1 0x20 ADD MLOAD DUP3 PUSH1 0x40 ADD MLOAD DUP4 PUSH1 0x60 ADD MLOAD DUP5 PUSH1 0x80 ADD MLOAD DUP6 PUSH1 0xA0 ADD MLOAD DUP7 PUSH1 0xC0 ADD MLOAD DUP8 PUSH1 0xE0 ADD MLOAD SWAP9 POP SWAP9 POP SWAP9 POP SWAP9 POP SWAP9 POP SWAP9 POP SWAP9 POP SWAP9 POP POP SWAP2 SWAP4 SWAP6 SWAP8 POP SWAP2 SWAP4 SWAP6 SWAP8 JUMP JUMPDEST PUSH0 PUSH1 0x20 MSTORE DUP1 PUSH0 MSTORE PUSH1 0x40 PUSH0 KECCAK256 PUSH0 SWAP2 POP SWAP1 POP DUP1 PUSH0 ADD SLOAD SWAP1 DUP1 PUSH1 0x1 ADD DUP1 SLOAD PUSH2 0x626 SWAP1 PUSH2 0x13E6 JUMP JUMPDEST DUP1 PUSH1 0x1F ADD PUSH1 0x20 DUP1 SWAP2 DIV MUL PUSH1 0x20 ADD PUSH1 0x40 MLOAD SWAP1 DUP2 ADD PUSH1 0x40 MSTORE DUP1 SWAP3 SWAP2 SWAP1 DUP2 DUP2 MSTORE PUSH1 0x20 ADD DUP3 DUP1 SLOAD PUSH2 0x652 SWAP1 PUSH2 0x13E6 JUMP JUMPDEST DUP1 ISZERO PUSH2 0x69D JUMPI DUP1 PUSH1 0x1F LT PUSH2 0x674 JUMPI PUSH2 0x100 DUP1 DUP4 SLOAD DIV MUL DUP4 MSTORE SWAP2 PUSH1 0x20 ADD SWAP2 PUSH2 0x69D JUMP JUMPDEST DUP3 ADD SWAP2 SWAP1 PUSH0 MSTORE PUSH1 0x20 PUSH0 KECCAK256 SWAP1 JUMPDEST DUP2 SLOAD DUP2 MSTORE SWAP1 PUSH1 0x1 ADD SWAP1 PUSH1 0x20 ADD DUP1 DUP4 GT PUSH2 0x680 JUMPI DUP3 SWAP1 SUB PUSH1 0x1F AND DUP3 ADD SWAP2 JUMPDEST POP POP POP POP POP SWAP1 DUP1 PUSH1 0x2 ADD DUP1 SLOAD PUSH2 0x6B2 SWAP1 PUSH2 0x13E6 JUMP JUMPDEST DUP1 PUSH1 0x1F ADD PUSH1 0x20 DUP1 SWAP2 DIV MUL PUSH1 0x20 ADD PUSH1 0x40 MLOAD SWAP1 DUP2 ADD PUSH1 0x40 MSTORE DUP1 SWAP3 SWAP2 SWAP1 DUP2 DUP2 MSTORE PUSH1 0x20 ADD DUP3 DUP1 SLOAD PUSH2 0x6DE SWAP1 PUSH2 0x13E6 JUMP JUMPDEST DUP1 ISZERO PUSH2 0x729 JUMPI DUP1 PUSH1 0x1F LT PUSH2 0x700 JUMPI PUSH2 0x100 DUP1 DUP4 SLOAD DIV MUL DUP4 MSTORE SWAP2 PUSH1 0x20 ADD SWAP2 PUSH2 0x729 JUMP JUMPDEST DUP3 ADD SWAP2 SWAP1 PUSH0 MSTORE PUSH1 0x20 PUSH0 KECCAK256 SWAP1 JUMPDEST DUP2 SLOAD DUP2 MSTORE SWAP1 PUSH1 0x1 ADD SWAP1 PUSH1 0x20 ADD DUP1 DUP4 GT PUSH2 0x70C JUMPI DUP3 SWAP1 SUB PUSH1 0x1F AND DUP3 ADD SWAP2 JUMPDEST POP POP POP POP POP SWAP1 DUP1 PUSH1 0x3 ADD SLOAD SWAP1 DUP1 PUSH1 0x4 ADD SLOAD SWAP1 DUP1 PUSH1 0x5 ADD DUP1 SLOAD PUSH2 0x74A SWAP1 PUSH2 0x13E6 JUMP JUMPDEST DUP1 PUSH1 0x1F ADD PUSH1 0x20 DUP1 SWAP2 DIV MUL PUSH1 0x20 ADD PUSH1 0x40 MLOAD SWAP1 DUP2 ADD PUSH1 0x40 MSTORE DUP1 SWAP3 SWAP2 SWAP1 DUP2 DUP2 MSTORE PUSH1 0x20 ADD DUP3 DUP1 SLOAD PUSH2 0x776 SWAP1 PUSH2 0x13E6 JUMP JUMPDEST DUP1 ISZERO PUSH2 0x7C1 JUMPI DUP1 PUSH1 0x1F LT PUSH2 0x798 JUMPI PUSH2 0x100 DUP1 DUP4 SLOAD DIV MUL DUP4 MSTORE SWAP2 PUSH1 0x20 ADD SWAP2 PUSH2 0x7C1 JUMP JUMPDEST DUP3 ADD SWAP2 SWAP1 PUSH0 MSTORE PUSH1 0x20 PUSH0 KECCAK256 SWAP1 JUMPDEST DUP2 SLOAD DUP2 MSTORE SWAP1 PUSH1 0x1 ADD SWAP1 PUSH1 0x20 ADD DUP1 DUP4 GT PUSH2 0x7A4 JUMPI DUP3 SWAP1 SUB PUSH1 0x1F AND DUP3 ADD SWAP2 JUMPDEST POP POP POP POP POP SWAP1 DUP1 PUSH1 0x6 ADD SLOAD SWAP1 POP DUP8 JUMP JUMPDEST PUSH1 0x60 PUSH1 0x2 SLOAD DUP3 LT PUSH2 0x817 JUMPI PUSH1 0x40 MLOAD PUSH32 0x8C379A000000000000000000000000000000000000000000000000000000000 DUP2 MSTORE PUSH1 0x4 ADD PUSH2 0x80E SWAP1 PUSH2 0x1374 JUMP JUMPDEST PUSH1 0x40 MLOAD DUP1 SWAP2 SUB SWAP1 REVERT JUMPDEST PUSH1 0x1 PUSH0 DUP4 DUP2 MSTORE PUSH1 0x20 ADD SWAP1 DUP2 MSTORE PUSH1 0x20 ADD PUSH0 KECCAK256 DUP1 SLOAD DUP1 PUSH1 0x20 MUL PUSH1 0x20 ADD PUSH1 0x40 MLOAD SWAP1 DUP2 ADD PUSH1 0x40 MSTORE DUP1 SWAP3 SWAP2 SWAP1 DUP2 DUP2 MSTORE PUSH1 0x20 ADD DUP3 DUP1 SLOAD DUP1 ISZERO PUSH2 0x8A5 JUMPI PUSH1 0x20 MUL DUP3 ADD SWAP2 SWAP1 PUSH0 MSTORE PUSH1 0x20 PUSH0 KECCAK256 SWAP1 JUMPDEST DUP2 PUSH0 SWAP1 SLOAD SWAP1 PUSH2 0x100 EXP SWAP1 DIV PUSH20 0xFFFFFFFFFFFFFFFFFFFFFFFFFFFFFFFFFFFFFFFF AND PUSH20 0xFFFFFFFFFFFFFFFFFFFFFFFFFFFFFFFFFFFFFFFF AND DUP2 MSTORE PUSH1 0x20 ADD SWAP1 PUSH1 0x1 ADD SWAP1 DUP1 DUP4 GT PUSH2 0x85C JUMPI JUMPDEST POP POP POP POP POP SWAP1 POP SWAP2 SWAP1 POP JUMP JUMPDEST PUSH0 PUSH1 0x40 MLOAD DUP1 PUSH2 0x100 ADD PUSH1 0x40 MSTORE DUP1 PUSH1 0x2 SLOAD DUP2 MSTORE PUSH1 0x20 ADD DUP10 DUP2 MSTORE PUSH1 0x20 ADD DUP9 DUP2 MSTORE PUSH1 0x20 ADD DUP8 DUP2 MSTORE PUSH1 0x20 ADD DUP7 DUP2 MSTORE PUSH1 0x20 ADD DUP6 DUP2 MSTORE PUSH1 0x20 ADD DUP5 DUP2 MSTORE PUSH1 0x20 ADD DUP4 DUP2 MSTORE POP PUSH0 PUSH0 PUSH1 0x2 SLOAD DUP2 MSTORE PUSH1 0x20 ADD SWAP1 DUP2 MSTORE PUSH1 0x20 ADD PUSH0 KECCAK256 PUSH0 DUP3 ADD MLOAD DUP2 PUSH0 ADD SSTORE PUSH1 0x20 DUP3 ADD MLOAD DUP2 PUSH1 0x1 ADD SWAP1 DUP2 PUSH2 0x91D SWAP2 SWAP1 PUSH2 0x15B6 JUMP JUMPDEST POP PUSH1 0x40 DUP3 ADD MLOAD DUP2 PUSH1 0x2 ADD SWAP1 DUP2 PUSH2 0x933 SWAP2 SWAP1 PUSH2 0x15B6 JUMP JUMPDEST POP PUSH1 0x60 DUP3 ADD MLOAD DUP2 PUSH1 0x3 ADD SSTORE PUSH1 0x80 DUP3 ADD MLOAD DUP2 PUSH1 0x4 ADD SSTORE PUSH1 0xA0 DUP3 ADD MLOAD DUP2 PUSH1 0x5 ADD SWAP1 DUP2 PUSH2 0x95D SWAP2 SWAP1 PUSH2 0x15B6 JUMP JUMPDEST POP PUSH1 0xC0 DUP3 ADD MLOAD DUP2 PUSH1 0x6 ADD SSTORE PUSH1 0xE0 DUP3 ADD MLOAD DUP2 PUSH1 0x7 ADD SWAP1 DUP1 MLOAD SWAP1 PUSH1 0x20 ADD SWAP1 PUSH2 0x984 SWAP3 SWAP2 SWAP1 PUSH2 0xA44 JUMP JUMPDEST POP SWAP1 POP POP PUSH32 0x8225B3AD6E66D4C2342E977FBAB464BEAF3AE9D33B222938CFF268DFD7B55B83 PUSH1 0x2 SLOAD DUP10 PUSH1 0x40 MLOAD PUSH2 0x9BB SWAP3 SWAP2 SWAP1 PUSH2 0x1685 JUMP JUMPDEST PUSH1 0x40 MLOAD DUP1 SWAP2 SUB SWAP1 LOG1 PUSH1 0x2 PUSH0 DUP2 SLOAD DUP1 SWAP3 SWAP2 SWAP1 PUSH2 0x9D5 SWAP1 PUSH2 0x16E0 JUMP JUMPDEST SWAP2 SWAP1 POP SSTORE POP PUSH1 0x1 PUSH1 0x2 SLOAD PUSH2 0x9E9 SWAP2 SWAP1 PUSH2 0x1727 JUMP JUMPDEST SWAP1 POP SWAP8 SWAP7 POP POP POP POP POP POP POP JUMP JUMPDEST PUSH1 0x2 SLOAD DUP2 JUMP JUMPDEST PUSH1 0x1 PUSH1 0x20 MSTORE DUP2 PUSH0 MSTORE PUSH1 0x40 PUSH0 KECCAK256 DUP2 DUP2 SLOAD DUP2 LT PUSH2 0xA15 JUMPI PUSH0 DUP1 REVERT JUMPDEST SWAP1 PUSH0 MSTORE PUSH1 0x20 PUSH0 KECCAK256 ADD PUSH0 SWAP2 POP SWAP2 POP SWAP1 SLOAD SWAP1 PUSH2 0x100 EXP SWAP1 DIV PUSH20 0xFFFFFFFFFFFFFFFFFFFFFFFFFFFFFFFFFFFFFFFF AND DUP2 JUMP JUMPDEST DUP3 DUP1 SLOAD DUP3 DUP3 SSTORE SWAP1 PUSH0 MSTORE PUSH1 0x20 PUSH0 KECCAK256 SWAP1 DUP2 ADD SWAP3 DUP3 ISZERO PUSH2 0xA8A JUMPI SWAP2 PUSH1 0x20 MUL DUP3 ADD JUMPDEST DUP3 DUP2 GT ISZERO PUSH2 0xA89 JUMPI DUP3 MLOAD DUP3 SWAP1 DUP2 PUSH2 0xA79 SWAP2 SWAP1 PUSH2 0x15B6 JUMP JUMPDEST POP SWAP2 PUSH1 0x20 ADD SWAP2 SWAP1 PUSH1 0x1 ADD SWAP1 PUSH2 0xA62 JUMP JUMPDEST JUMPDEST POP SWAP1 POP PUSH2 0xA97 SWAP2 SWAP1 PUSH2 0xA9B JUMP JUMPDEST POP SWAP1 JUMP JUMPDEST JUMPDEST DUP1 DUP3 GT ISZERO PUSH2 0xABA JUMPI PUSH0 DUP2 DUP2 PUSH2 0xAB1 SWAP2 SWAP1 PUSH2 0xABE JUMP JUMPDEST POP PUSH1 0x1 ADD PUSH2 0xA9C JUMP JUMPDEST POP SWAP1 JUMP JUMPDEST POP DUP1 SLOAD PUSH2 0xACA SWAP1 PUSH2 0x13E6 JUMP JUMPDEST PUSH0 DUP3 SSTORE DUP1 PUSH1 0x1F LT PUSH2 0xADB JUMPI POP PUSH2 0xAF8 JUMP JUMPDEST PUSH1 0x1F ADD PUSH1 0x20 SWAP1 DIV SWAP1 PUSH0 MSTORE PUSH1 0x20 PUSH0 KECCAK256 SWAP1 DUP2 ADD SWAP1 PUSH2 0xAF7 SWAP2 SWAP1 PUSH2 0xAFB JUMP JUMPDEST JUMPDEST POP JUMP JUMPDEST JUMPDEST DUP1 DUP3 GT ISZERO PUSH2 0xB12 JUMPI PUSH0 DUP2 PUSH0 SWAP1 SSTORE POP PUSH1 0x1 ADD PUSH2 0xAFC JUMP JUMPDEST POP SWAP1 JUMP JUMPDEST PUSH0 PUSH1 0x40 MLOAD SWAP1 POP SWAP1 JUMP JUMPDEST PUSH0 PUSH0 REVERT JUMPDEST PUSH0 PUSH0 REVERT JUMPDEST PUSH0 DUP2 SWAP1 POP SWAP2 SWAP1 POP JUMP JUMPDEST PUSH2 0xB39 DUP2 PUSH2 0xB27 JUMP JUMPDEST DUP2 EQ PUSH2 0xB43 JUMPI PUSH0 PUSH0 REVERT JUMPDEST POP JUMP JUMPDEST PUSH0 DUP2 CALLDATALOAD SWAP1 POP PUSH2 0xB54 DUP2 PUSH2 0xB30 JUMP JUMPDEST SWAP3 SWAP2 POP POP JUMP JUMPDEST PUSH0 PUSH20 0xFFFFFFFFFFFFFFFFFFFFFFFFFFFFFFFFFFFFFFFF DUP3 AND SWAP1 POP SWAP2 SWAP1 POP JUMP JUMPDEST PUSH0 PUSH2 0xB83 DUP3 PUSH2 0xB5A JUMP JUMPDEST SWAP1 POP SWAP2 SWAP1 POP JUMP JUMPDEST PUSH2 0xB93 DUP2 PUSH2 0xB79 JUMP JUMPDEST DUP2 EQ PUSH2 0xB9D JUMPI PUSH0 PUSH0 REVERT JUMPDEST POP JUMP JUMPDEST PUSH0 DUP2 CALLDATALOAD SWAP1 POP PUSH2 0xBAE DUP2 PUSH2 0xB8A JUMP JUMPDEST SWAP3 SWAP2 POP POP JUMP JUMPDEST PUSH0 PUSH0 PUSH1 0x40 DUP4 DUP6 SUB SLT ISZERO PUSH2 0xBCA JUMPI PUSH2 0xBC9 PUSH2 0xB1F JUMP JUMPDEST JUMPDEST PUSH0 PUSH2 0xBD7 DUP6 DUP3 DUP7 ADD PUSH2 0xB46 JUMP JUMPDEST SWAP3 POP POP PUSH1 0x20 PUSH2 0xBE8 DUP6 DUP3 DUP7 ADD PUSH2 0xBA0 JUMP JUMPDEST SWAP2 POP POP SWAP3 POP SWAP3 SWAP1 POP JUMP JUMPDEST PUSH0 PUSH1 0x20 DUP3 DUP5 SUB SLT ISZERO PUSH2 0xC07 JUMPI PUSH2 0xC06 PUSH2 0xB1F JUMP JUMPDEST JUMPDEST PUSH0 PUSH2 0xC14 DUP5 DUP3 DUP6 ADD PUSH2 0xB46 JUMP JUMPDEST SWAP2 POP POP SWAP3 SWAP2 POP POP JUMP JUMPDEST PUSH2 0xC26 DUP2 PUSH2 0xB27 JUMP JUMPDEST DUP3 MSTORE POP POP JUMP JUMPDEST PUSH0 DUP2 MLOAD SWAP1 POP SWAP2 SWAP1 POP JUMP JUMPDEST PUSH0 DUP3 DUP3 MSTORE PUSH1 0x20 DUP3 ADD SWAP1 POP SWAP3 SWAP2 POP POP JUMP JUMPDEST DUP3 DUP2 DUP4 MCOPY PUSH0 DUP4 DUP4 ADD MSTORE POP POP POP JUMP JUMPDEST PUSH0 PUSH1 0x1F NOT PUSH1 0x1F DUP4 ADD AND SWAP1 POP SWAP2 SWAP1 POP JUMP JUMPDEST PUSH0 PUSH2 0xC6E DUP3 PUSH2 0xC2C JUMP JUMPDEST PUSH2 0xC78 DUP2 DUP6 PUSH2 0xC36 JUMP JUMPDEST SWAP4 POP PUSH2 0xC88 DUP2 DUP6 PUSH1 0x20 DUP7 ADD PUSH2 0xC46 JUMP JUMPDEST PUSH2 0xC91 DUP2 PUSH2 0xC54 JUMP JUMPDEST DUP5 ADD SWAP2 POP POP SWAP3 SWAP2 POP POP JUMP JUMPDEST PUSH0 DUP2 MLOAD SWAP1 POP SWAP2 SWAP1 POP JUMP JUMPDEST PUSH0 DUP3 DUP3 MSTORE PUSH1 0x20 DUP3 ADD SWAP1 POP SWAP3 SWAP2 POP POP JUMP JUMPDEST PUSH0 DUP2 SWAP1 POP PUSH1 0x20 DUP3 ADD SWAP1 POP SWAP2 SWAP1 POP JUMP JUMPDEST PUSH0 DUP3 DUP3 MSTORE PUSH1 0x20 DUP3 ADD SWAP1 POP SWAP3 SWAP2 POP POP JUMP JUMPDEST PUSH0 PUSH2 0xCDF DUP3 PUSH2 0xC2C JUMP JUMPDEST PUSH2 0xCE9 DUP2 DUP6 PUSH2 0xCC5 JUMP JUMPDEST SWAP4 POP PUSH2 0xCF9 DUP2 DUP6 PUSH1 0x20 DUP7 ADD PUSH2 0xC46 JUMP JUMPDEST PUSH2 0xD02 DUP2 PUSH2 0xC54 JUMP JUMPDEST DUP5 ADD SWAP2 POP POP SWAP3 SWAP2 POP POP JUMP JUMPDEST PUSH0 PUSH2 0xD18 DUP4 DUP4 PUSH2 0xCD5 JUMP JUMPDEST SWAP1 POP SWAP3 SWAP2 POP POP JUMP JUMPDEST PUSH0 PUSH1 0x20 DUP3 ADD SWAP1 POP SWAP2 SWAP1 POP JUMP JUMPDEST PUSH0 PUSH2 0xD36 DUP3 PUSH2 0xC9C JUMP JUMPDEST PUSH2 0xD40 DUP2 DUP6 PUSH2 0xCA6 JUMP JUMPDEST SWAP4 POP DUP4 PUSH1 0x20 DUP3 MUL DUP6 ADD PUSH2 0xD52 DUP6 PUSH2 0xCB6 JUMP JUMPDEST DUP1 PUSH0 JUMPDEST DUP6 DUP2 LT ISZERO PUSH2 0xD8D JUMPI DUP5 DUP5 SUB DUP10 MSTORE DUP2 MLOAD PUSH2 0xD6E DUP6 DUP3 PUSH2 0xD0D JUMP JUMPDEST SWAP5 POP PUSH2 0xD79 DUP4 PUSH2 0xD20 JUMP JUMPDEST SWAP3 POP PUSH1 0x20 DUP11 ADD SWAP10 POP POP PUSH1 0x1 DUP2 ADD SWAP1 POP PUSH2 0xD55 JUMP JUMPDEST POP DUP3 SWAP8 POP DUP8 SWAP6 POP POP POP POP POP POP SWAP3 SWAP2 POP POP JUMP JUMPDEST PUSH0 PUSH2 0x100 DUP3 ADD SWAP1 POP PUSH2 0xDB3 PUSH0 DUP4 ADD DUP12 PUSH2 0xC1D JUMP JUMPDEST DUP2 DUP2 SUB PUSH1 0x20 DUP4 ADD MSTORE PUSH2 0xDC5 DUP2 DUP11 PUSH2 0xC64 JUMP JUMPDEST SWAP1 POP DUP2 DUP2 SUB PUSH1 0x40 DUP4 ADD MSTORE PUSH2 0xDD9 DUP2 DUP10 PUSH2 0xC64 JUMP JUMPDEST SWAP1 POP PUSH2 0xDE8 PUSH1 0x60 DUP4 ADD DUP9 PUSH2 0xC1D JUMP JUMPDEST PUSH2 0xDF5 PUSH1 0x80 DUP4 ADD DUP8 PUSH2 0xC1D JUMP JUMPDEST DUP2 DUP2 SUB PUSH1 0xA0 DUP4 ADD MSTORE PUSH2 0xE07 DUP2 DUP7 PUSH2 0xC64 JUMP JUMPDEST SWAP1 POP PUSH2 0xE16 PUSH1 0xC0 DUP4 ADD DUP6 PUSH2 0xC1D JUMP JUMPDEST DUP2 DUP2 SUB PUSH1 0xE0 DUP4 ADD MSTORE PUSH2 0xE28 DUP2 DUP5 PUSH2 0xD2C JUMP JUMPDEST SWAP1 POP SWAP10 SWAP9 POP POP POP POP POP POP POP POP POP JUMP JUMPDEST PUSH0 PUSH1 0xE0 DUP3 ADD SWAP1 POP PUSH2 0xE4A PUSH0 DUP4 ADD DUP11 PUSH2 0xC1D JUMP JUMPDEST DUP2 DUP2 SUB PUSH1 0x20 DUP4 ADD MSTORE PUSH2 0xE5C DUP2 DUP10 PUSH2 0xC64 JUMP JUMPDEST SWAP1 POP DUP2 DUP2 SUB PUSH1 0x40 DUP4 ADD MSTORE PUSH2 0xE70 DUP2 DUP9 PUSH2 0xC64 JUMP JUMPDEST SWAP1 POP PUSH2 0xE7F PUSH1 0x60 DUP4 ADD DUP8 PUSH2 0xC1D JUMP JUMPDEST PUSH2 0xE8C PUSH1 0x80 DUP4 ADD DUP7 PUSH2 0xC1D JUMP JUMPDEST DUP2 DUP2 SUB PUSH1 0xA0 DUP4 ADD MSTORE PUSH2 0xE9E DUP2 DUP6 PUSH2 0xC64 JUMP JUMPDEST SWAP1 POP PUSH2 0xEAD PUSH1 0xC0 DUP4 ADD DUP5 PUSH2 0xC1D JUMP JUMPDEST SWAP9 SWAP8 POP POP POP POP POP POP POP POP JUMP JUMPDEST PUSH0 DUP2 MLOAD SWAP1 POP SWAP2 SWAP1 POP JUMP JUMPDEST PUSH0 DUP3 DUP3 MSTORE PUSH1 0x20 DUP3 ADD SWAP1 POP SWAP3 SWAP2 POP POP JUMP JUMPDEST PUSH0 DUP2 SWAP1 POP PUSH1 0x20 DUP3 ADD SWAP1 POP SWAP2 SWAP1 POP JUMP JUMPDEST PUSH2 0xEEB DUP2 PUSH2 0xB79 JUMP JUMPDEST DUP3 MSTORE POP POP JUMP JUMPDEST PUSH0 PUSH2 0xEFC DUP4 DUP4 PUSH2 0xEE2 JUMP JUMPDEST PUSH1 0x20 DUP4 ADD SWAP1 POP SWAP3 SWAP2 POP POP JUMP JUMPDEST PUSH0 PUSH1 0x20 DUP3 ADD SWAP1 POP SWAP2 SWAP1 POP JUMP JUMPDEST PUSH0 PUSH2 0xF1E DUP3 PUSH2 0xEB9 JUMP JUMPDEST PUSH2 0xF28 DUP2 DUP6 PUSH2 0xEC3 JUMP JUMPDEST SWAP4 POP PUSH2 0xF33 DUP4 PUSH2 0xED3 JUMP JUMPDEST DUP1 PUSH0 JUMPDEST DUP4 DUP2 LT ISZERO PUSH2 0xF63 JUMPI DUP2 MLOAD PUSH2 0xF4A DUP9 DUP3 PUSH2 0xEF1 JUMP JUMPDEST SWAP8 POP PUSH2 0xF55 DUP4 PUSH2 0xF08 JUMP JUMPDEST SWAP3 POP POP PUSH1 0x1 DUP2 ADD SWAP1 POP PUSH2 0xF36 JUMP JUMPDEST POP DUP6 SWAP4 POP POP POP POP SWAP3 SWAP2 POP POP JUMP JUMPDEST PUSH0 PUSH1 0x20 DUP3 ADD SWAP1 POP DUP2 DUP2 SUB PUSH0 DUP4 ADD MSTORE PUSH2 0xF88 DUP2 DUP5 PUSH2 0xF14 JUMP JUMPDEST SWAP1 POP SWAP3 SWAP2 POP POP JUMP JUMPDEST PUSH0 PUSH0 REVERT JUMPDEST PUSH0 PUSH0 REVERT JUMPDEST PUSH32 0x4E487B7100000000000000000000000000000000000000000000000000000000 PUSH0 MSTORE PUSH1 0x41 PUSH1 0x4 MSTORE PUSH1 0x24 PUSH0 REVERT JUMPDEST PUSH2 0xFCE DUP3 PUSH2 0xC54 JUMP JUMPDEST DUP2 ADD DUP2 DUP2 LT PUSH8 0xFFFFFFFFFFFFFFFF DUP3 GT OR ISZERO PUSH2 0xFED JUMPI PUSH2 0xFEC PUSH2 0xF98 JUMP JUMPDEST JUMPDEST DUP1 PUSH1 0x40 MSTORE POP POP POP JUMP JUMPDEST PUSH0 PUSH2 0xFFF PUSH2 0xB16 JUMP JUMPDEST SWAP1 POP PUSH2 0x100B DUP3 DUP3 PUSH2 0xFC5 JUMP JUMPDEST SWAP2 SWAP1 POP JUMP JUMPDEST PUSH0 PUSH8 0xFFFFFFFFFFFFFFFF DUP3 GT ISZERO PUSH2 0x102A JUMPI PUSH2 0x1029 PUSH2 0xF98 JUMP JUMPDEST JUMPDEST PUSH2 0x1033 DUP3 PUSH2 0xC54 JUMP JUMPDEST SWAP1 POP PUSH1 0x20 DUP2 ADD SWAP1 POP SWAP2 SWAP1 POP JUMP JUMPDEST DUP3 DUP2 DUP4 CALLDATACOPY PUSH0 DUP4 DUP4 ADD MSTORE POP POP POP JUMP JUMPDEST PUSH0 PUSH2 0x1060 PUSH2 0x105B DUP5 PUSH2 0x1010 JUMP JUMPDEST PUSH2 0xFF6 JUMP JUMPDEST SWAP1 POP DUP3 DUP2 MSTORE PUSH1 0x20 DUP2 ADD DUP5 DUP5 DUP5 ADD GT ISZERO PUSH2 0x107C JUMPI PUSH2 0x107B PUSH2 0xF94 JUMP JUMPDEST JUMPDEST PUSH2 0x1087 DUP5 DUP3 DUP6 PUSH2 0x1040 JUMP JUMPDEST POP SWAP4 SWAP3 POP POP POP JUMP JUMPDEST PUSH0 DUP3 PUSH1 0x1F DUP4 ADD SLT PUSH2 0x10A3 JUMPI PUSH2 0x10A2 PUSH2 0xF90 JUMP JUMPDEST JUMPDEST DUP2 CALLDATALOAD PUSH2 0x10B3 DUP5 DUP3 PUSH1 0x20 DUP7 ADD PUSH2 0x104E JUMP JUMPDEST SWAP2 POP POP SWAP3 SWAP2 POP POP JUMP JUMPDEST PUSH0 PUSH8 0xFFFFFFFFFFFFFFFF DUP3 GT ISZERO PUSH2 0x10D6 JUMPI PUSH2 0x10D5 PUSH2 0xF98 JUMP JUMPDEST JUMPDEST PUSH1 0x20 DUP3 MUL SWAP1 POP PUSH1 0x20 DUP2 ADD SWAP1 POP SWAP2 SWAP1 POP JUMP JUMPDEST PUSH0 PUSH0 REVERT JUMPDEST PUSH0 PUSH2 0x10FD PUSH2 0x10F8 DUP5 PUSH2 0x10BC JUMP JUMPDEST PUSH2 0xFF6 JUMP JUMPDEST SWAP1 POP DUP1 DUP4 DUP3 MSTORE PUSH1 0x20 DUP3 ADD SWAP1 POP PUSH1 0x20 DUP5 MUL DUP4 ADD DUP6 DUP2 GT ISZERO PUSH2 0x1120 JUMPI PUSH2 0x111F PUSH2 0x10E7 JUMP JUMPDEST JUMPDEST DUP4 JUMPDEST DUP2 DUP2 LT ISZERO PUSH2 0x1167 JUMPI DUP1 CALLDATALOAD PUSH8 0xFFFFFFFFFFFFFFFF DUP2 GT ISZERO PUSH2 0x1145 JUMPI PUSH2 0x1144 PUSH2 0xF90 JUMP JUMPDEST JUMPDEST DUP1 DUP7 ADD PUSH2 0x1152 DUP10 DUP3 PUSH2 0x108F JUMP JUMPDEST DUP6 MSTORE PUSH1 0x20 DUP6 ADD SWAP5 POP POP POP PUSH1 0x20 DUP2 ADD SWAP1 POP PUSH2 0x1122 JUMP JUMPDEST POP POP POP SWAP4 SWAP3 POP POP POP JUMP JUMPDEST PUSH0 DUP3 PUSH1 0x1F DUP4 ADD SLT PUSH2 0x1185 JUMPI PUSH2 0x1184 PUSH2 0xF90 JUMP JUMPDEST JUMPDEST DUP2 CALLDATALOAD PUSH2 0x1195 DUP5 DUP3 PUSH1 0x20 DUP7 ADD PUSH2 0x10EB JUMP JUMPDEST SWAP2 POP POP SWAP3 SWAP2 POP POP JUMP JUMPDEST PUSH0 PUSH0 PUSH0 PUSH0 PUSH0 PUSH0 PUSH0 PUSH1 0xE0 DUP9 DUP11 SUB SLT ISZERO PUSH2 0x11B9 JUMPI PUSH2 0x11B8 PUSH2 0xB1F JUMP JUMPDEST JUMPDEST PUSH0 DUP9 ADD CALLDATALOAD PUSH8 0xFFFFFFFFFFFFFFFF DUP2 GT ISZERO PUSH2 0x11D6 JUMPI PUSH2 0x11D5 PUSH2 0xB23 JUMP JUMPDEST JUMPDEST PUSH2 0x11E2 DUP11 DUP3 DUP12 ADD PUSH2 0x108F JUMP JUMPDEST SWAP8 POP POP PUSH1 0x20 DUP9 ADD CALLDATALOAD PUSH8 0xFFFFFFFFFFFFFFFF DUP2 GT ISZERO PUSH2 0x1203 JUMPI PUSH2 0x1202 PUSH2 0xB23 JUMP JUMPDEST JUMPDEST PUSH2 0x120F DUP11 DUP3 DUP12 ADD PUSH2 0x108F JUMP JUMPDEST SWAP7 POP POP PUSH1 0x40 PUSH2 0x1220 DUP11 DUP3 DUP12 ADD PUSH2 0xB46 JUMP JUMPDEST SWAP6 POP POP PUSH1 0x60 PUSH2 0x1231 DUP11 DUP3 DUP12 ADD PUSH2 0xB46 JUMP JUMPDEST SWAP5 POP POP PUSH1 0x80 DUP9 ADD CALLDATALOAD PUSH8 0xFFFFFFFFFFFFFFFF DUP2 GT ISZERO PUSH2 0x1252 JUMPI PUSH2 0x1251 PUSH2 0xB23 JUMP JUMPDEST JUMPDEST PUSH2 0x125E DUP11 DUP3 DUP12 ADD PUSH2 0x108F JUMP JUMPDEST SWAP4 POP POP PUSH1 0xA0 PUSH2 0x126F DUP11 DUP3 DUP12 ADD PUSH2 0xB46 JUMP JUMPDEST SWAP3 POP POP PUSH1 0xC0 DUP9 ADD CALLDATALOAD PUSH8 0xFFFFFFFFFFFFFFFF DUP2 GT ISZERO PUSH2 0x1290 JUMPI PUSH2 0x128F PUSH2 0xB23 JUMP JUMPDEST JUMPDEST PUSH2 0x129C DUP11 DUP3 DUP12 ADD PUSH2 0x1171 JUMP JUMPDEST SWAP2 POP POP SWAP3 SWAP6 SWAP9 SWAP2 SWAP5 SWAP8 POP SWAP3 SWAP6 POP JUMP JUMPDEST PUSH0 PUSH1 0x20 DUP3 ADD SWAP1 POP PUSH2 0x12BE PUSH0 DUP4 ADD DUP5 PUSH2 0xC1D JUMP JUMPDEST SWAP3 SWAP2 POP POP JUMP JUMPDEST PUSH0 PUSH0 PUSH1 0x40 DUP4 DUP6 SUB SLT ISZERO PUSH2 0x12DA JUMPI PUSH2 0x12D9 PUSH2 0xB1F JUMP JUMPDEST JUMPDEST PUSH0 PUSH2 0x12E7 DUP6 DUP3 DUP7 ADD PUSH2 0xB46 JUMP JUMPDEST SWAP3 POP POP PUSH1 0x20 PUSH2 0x12F8 DUP6 DUP3 DUP7 ADD PUSH2 0xB46 JUMP JUMPDEST SWAP2 POP POP SWAP3 POP SWAP3 SWAP1 POP JUMP JUMPDEST PUSH2 0x130B DUP2 PUSH2 0xB79 JUMP JUMPDEST DUP3 MSTORE POP POP JUMP JUMPDEST PUSH0 PUSH1 0x20 DUP3 ADD SWAP1 POP PUSH2 0x1324 PUSH0 DUP4 ADD DUP5 PUSH2 0x1302 JUMP JUMPDEST SWAP3 SWAP2 POP POP JUMP JUMPDEST PUSH32 0x566F746520646F6573206E6F7420657869737400000000000000000000000000 PUSH0 DUP3 ADD MSTORE POP JUMP JUMPDEST PUSH0 PUSH2 0x135E PUSH1 0x13 DUP4 PUSH2 0xC36 JUMP JUMPDEST SWAP2 POP PUSH2 0x1369 DUP3 PUSH2 0x132A JUMP JUMPDEST PUSH1 0x20 DUP3 ADD SWAP1 POP SWAP2 SWAP1 POP JUMP JUMPDEST PUSH0 PUSH1 0x20 DUP3 ADD SWAP1 POP DUP2 DUP2 SUB PUSH0 DUP4 ADD MSTORE PUSH2 0x138B DUP2 PUSH2 0x1352 JUMP JUMPDEST SWAP1 POP SWAP2 SWAP1 POP JUMP JUMPDEST PUSH0 PUSH1 0x40 DUP3 ADD SWAP1 POP PUSH2 0x13A5 PUSH0 DUP4 ADD DUP6 PUSH2 0xC1D JUMP JUMPDEST PUSH2 0x13B2 PUSH1 0x20 DUP4 ADD DUP5 PUSH2 0x1302 JUMP JUMPDEST SWAP4 SWAP3 POP POP POP JUMP JUMPDEST PUSH32 0x4E487B7100000000000000000000000000000000000000000000000000000000 PUSH0 MSTORE PUSH1 0x22 PUSH1 0x4 MSTORE PUSH1 0x24 PUSH0 REVERT JUMPDEST PUSH0 PUSH1 0x2 DUP3 DIV SWAP1 POP PUSH1 0x1 DUP3 AND DUP1 PUSH2 0x13FD JUMPI PUSH1 0x7F DUP3 AND SWAP2 POP JUMPDEST PUSH1 0x20 DUP3 LT DUP2 SUB PUSH2 0x1410 JUMPI PUSH2 0x140F PUSH2 0x13B9 JUMP JUMPDEST JUMPDEST POP SWAP2 SWAP1 POP JUMP JUMPDEST PUSH0 DUP2 SWAP1 POP DUP2 PUSH0 MSTORE PUSH1 0x20 PUSH0 KECCAK256 SWAP1 POP SWAP2 SWAP1 POP JUMP JUMPDEST PUSH0 PUSH1 0x20 PUSH1 0x1F DUP4 ADD DIV SWAP1 POP SWAP2 SWAP1 POP JUMP JUMPDEST PUSH0 DUP3 DUP3 SHL SWAP1 POP SWAP3 SWAP2 POP POP JUMP JUMPDEST PUSH0 PUSH1 0x8 DUP4 MUL PUSH2 0x1472 PUSH32 0xFFFFFFFFFFFFFFFFFFFFFFFFFFFFFFFFFFFFFFFFFFFFFFFFFFFFFFFFFFFFFFFF DUP3 PUSH2 0x1437 JUMP JUMPDEST PUSH2 0x147C DUP7 DUP4 PUSH2 0x1437 JUMP JUMPDEST SWAP6 POP DUP1 NOT DUP5 AND SWAP4 POP DUP1 DUP7 AND DUP5 OR SWAP3 POP POP POP SWAP4 SWAP3 POP POP POP JUMP JUMPDEST PUSH0 DUP2 SWAP1 POP SWAP2 SWAP1 POP JUMP JUMPDEST PUSH0 PUSH2 0x14B7 PUSH2 0x14B2 PUSH2 0x14AD DUP5 PUSH2 0xB27 JUMP JUMPDEST PUSH2 0x1494 JUMP JUMPDEST PUSH2 0xB27 JUMP JUMPDEST SWAP1 POP SWAP2 SWAP1 POP JUMP JUMPDEST PUSH0 DUP2 SWAP1 POP SWAP2 SWAP1 POP JUMP JUMPDEST PUSH2 0x14D0 DUP4 PUSH2 0x149D JUMP JUMPDEST PUSH2 0x14E4 PUSH2 0x14DC DUP3 PUSH2 0x14BE JUMP JUMPDEST DUP5 DUP5 SLOAD PUSH2 0x1443 JUMP JUMPDEST DUP3 SSTORE POP POP POP POP JUMP JUMPDEST PUSH0 PUSH0 SWAP1 POP SWAP1 JUMP JUMPDEST PUSH2 0x14FB PUSH2 0x14EC JUMP JUMPDEST PUSH2 0x1506 DUP2 DUP5 DUP5 PUSH2 0x14C7 JUMP JUMPDEST POP POP POP JUMP JUMPDEST JUMPDEST DUP2 DUP2 LT ISZERO PUSH2 0x1529 JUMPI PUSH2 0x151E PUSH0 DUP3 PUSH2 0x14F3 JUMP JUMPDEST PUSH1 0x1 DUP2 ADD SWAP1 POP PUSH2 0x150C JUMP JUMPDEST POP POP JUMP JUMPDEST PUSH1 0x1F DUP3 GT ISZERO PUSH2 0x156E JUMPI PUSH2 0x153F DUP2 PUSH2 0x1416 JUMP JUMPDEST PUSH2 0x1548 DUP5 PUSH2 0x1428 JUMP JUMPDEST DUP2 ADD PUSH1 0x20 DUP6 LT ISZERO PUSH2 0x1557 JUMPI DUP2 SWAP1 POP JUMPDEST PUSH2 0x156B PUSH2 0x1563 DUP6 PUSH2 0x1428 JUMP JUMPDEST DUP4 ADD DUP3 PUSH2 0x150B JUMP JUMPDEST POP POP JUMPDEST POP POP POP JUMP JUMPDEST PUSH0 DUP3 DUP3 SHR SWAP1 POP SWAP3 SWAP2 POP POP JUMP JUMPDEST PUSH0 PUSH2 0x158E PUSH0 NOT DUP5 PUSH1 0x8 MUL PUSH2 0x1573 JUMP JUMPDEST NOT DUP1 DUP4 AND SWAP2 POP POP SWAP3 SWAP2 POP POP JUMP JUMPDEST PUSH0 PUSH2 0x15A6 DUP4 DUP4 PUSH2 0x157F JUMP JUMPDEST SWAP2 POP DUP3 PUSH1 0x2 MUL DUP3 OR SWAP1 POP SWAP3 SWAP2 POP POP JUMP JUMPDEST PUSH2 0x15BF DUP3 PUSH2 0xC2C JUMP JUMPDEST PUSH8 0xFFFFFFFFFFFFFFFF DUP2 GT ISZERO PUSH2 0x15D8 JUMPI PUSH2 0x15D7 PUSH2 0xF98 JUMP JUMPDEST JUMPDEST PUSH2 0x15E2 DUP3 SLOAD PUSH2 0x13E6 JUMP JUMPDEST PUSH2 0x15ED DUP3 DUP3 DUP6 PUSH2 0x152D JUMP JUMPDEST PUSH0 PUSH1 0x20 SWAP1 POP PUSH1 0x1F DUP4 GT PUSH1 0x1 DUP2 EQ PUSH2 0x161E JUMPI PUSH0 DUP5 ISZERO PUSH2 0x160C JUMPI DUP3 DUP8 ADD MLOAD SWAP1 POP JUMPDEST PUSH2 0x1616 DUP6 DUP3 PUSH2 0x159B JUMP JUMPDEST DUP7 SSTORE POP PUSH2 0x167D JUMP JUMPDEST PUSH1 0x1F NOT DUP5 AND PUSH2 0x162C DUP7 PUSH2 0x1416 JUMP JUMPDEST PUSH0 JUMPDEST DUP3 DUP2 LT ISZERO PUSH2 0x1653 JUMPI DUP5 DUP10 ADD MLOAD DUP3 SSTORE PUSH1 0x1 DUP3 ADD SWAP2 POP PUSH1 0x20 DUP6 ADD SWAP5 POP PUSH1 0x20 DUP2 ADD SWAP1 POP PUSH2 0x162E JUMP JUMPDEST DUP7 DUP4 LT ISZERO PUSH2 0x1670 JUMPI DUP5 DUP10 ADD MLOAD PUSH2 0x166C PUSH1 0x1F DUP10 AND DUP3 PUSH2 0x157F JUMP JUMPDEST DUP4 SSTORE POP JUMPDEST PUSH1 0x1 PUSH1 0x2 DUP9 MUL ADD DUP9 SSTORE POP POP POP JUMPDEST POP POP POP POP POP POP JUMP JUMPDEST PUSH0 PUSH1 0x40 DUP3 ADD SWAP1 POP PUSH2 0x1698 PUSH0 DUP4 ADD DUP6 PUSH2 0xC1D JUMP JUMPDEST DUP2 DUP2 SUB PUSH1 0x20 DUP4 ADD MSTORE PUSH2 0x16AA DUP2 DUP5 PUSH2 0xC64 JUMP JUMPDEST SWAP1 POP SWAP4 SWAP3 POP POP POP JUMP JUMPDEST PUSH32 0x4E487B7100000000000000000000000000000000000000000000000000000000 PUSH0 MSTORE PUSH1 0x11 PUSH1 0x4 MSTORE PUSH1 0x24 PUSH0 REVERT JUMPDEST PUSH0 PUSH2 0x16EA DUP3 PUSH2 0xB27 JUMP JUMPDEST SWAP2 POP PUSH32 0xFFFFFFFFFFFFFFFFFFFFFFFFFFFFFFFFFFFFFFFFFFFFFFFFFFFFFFFFFFFFFFFF DUP3 SUB PUSH2 0x171C JUMPI PUSH2 0x171B PUSH2 0x16B3 JUMP JUMPDEST JUMPDEST PUSH1 0x1 DUP3 ADD SWAP1 POP SWAP2 SWAP1 POP JUMP JUMPDEST PUSH0 PUSH2 0x1731 DUP3 PUSH2 0xB27 JUMP JUMPDEST SWAP2 POP PUSH2 0x173C DUP4 PUSH2 0xB27 JUMP JUMPDEST SWAP3 POP DUP3 DUP3 SUB SWAP1 POP DUP2 DUP2 GT ISZERO PUSH2 0x1754 JUMPI PUSH2 0x1753 PUSH2 0x16B3 JUMP JUMPDEST JUMPDEST SWAP3 SWAP2 POP POP JUMP INVALID LOG2 PUSH5 0x6970667358 0x22 SLT KECCAK256 0x4D PUSH19 0xA855222CE75B05EE330F9242FBB14E40A93B2E 0xDE CREATE2 SUB PUSH24 0x3F5D1904B7415864736F6C634300081D0033000000000000 "
				},
				"gasEstimates": {
					"creation": {
						"codeDepositCost": "1206400",
						"executionCost": "1252",
						"totalCost": "1207652"
					},
					"external": {
						"addSecretHolder(uint256,address)": "infinite",
						"createVote(string,string,uint256,uint256,string,uint256,string[])": "infinite",
						"getSecretHolders(uint256)": "infinite",
						"getVote(uint256)": "infinite",
						"secretHolders(uint256,uint256)": "infinite",
						"voteCount()": "2469",
						"votes(uint256)": "infinite"
					}
				},
				"methodIdentifiers": {
					"addSecretHolder(uint256,address)": "13c7ee0d",
					"createVote(string,string,uint256,uint256,string,uint256,string[])": "804701ab",
					"getSecretHolders(uint256)": "6b9d84d8",
					"getVote(uint256)": "5a55c1f0",
					"secretHolders(uint256,uint256)": "caba6aad",
					"voteCount()": "c6384071",
					"votes(uint256)": "5df81330"
				}
			},
			"storageLayout": {
				"storage": [
					{
						"astId": 25,
						"contract": "crypto-core/contracts/Vote.sol:Vote",
						"label": "votes",
						"offset": 0,
						"slot": "0",
						"type": "t_mapping(t_uint256,t_struct(VoteStruct)20_storage)"
					},
					{
						"astId": 30,
						"contract": "crypto-core/contracts/Vote.sol:Vote",
						"label": "secretHolders",
						"offset": 0,
						"slot": "1",
						"type": "t_mapping(t_uint256,t_array(t_address)dyn_storage)"
					},
					{
						"astId": 32,
						"contract": "crypto-core/contracts/Vote.sol:Vote",
						"label": "voteCount",
						"offset": 0,
						"slot": "2",
						"type": "t_uint256"
					}
				],
				"types": {
					"t_address": {
						"encoding": "inplace",
						"label": "address",
						"numberOfBytes": "20"
					},
					"t_array(t_address)dyn_storage": {
						"base": "t_address",
						"encoding": "dynamic_array",
						"label": "address[]",
						"numberOfBytes": "32"
					},
					"t_array(t_string_storage)dyn_storage": {
						"base": "t_string_storage",
						"encoding": "dynamic_array",
						"label": "string[]",
						"numberOfBytes": "32"
					},
					"t_mapping(t_uint256,t_array(t_address)dyn_storage)": {
						"encoding": "mapping",
						"key": "t_uint256",
						"label": "mapping(uint256 => address[])",
						"numberOfBytes": "32",
						"value": "t_array(t_address)dyn_storage"
					},
					"t_mapping(t_uint256,t_struct(VoteStruct)20_storage)": {
						"encoding": "mapping",
						"key": "t_uint256",
						"label": "mapping(uint256 => struct Vote.VoteStruct)",
						"numberOfBytes": "32",
						"value": "t_struct(VoteStruct)20_storage"
					},
					"t_string_storage": {
						"encoding": "bytes",
						"label": "string",
						"numberOfBytes": "32"
					},
					"t_struct(VoteStruct)20_storage": {
						"encoding": "inplace",
						"label": "struct Vote.VoteStruct",
						"members": [
							{
								"astId": 4,
								"contract": "crypto-core/contracts/Vote.sol:Vote",
								"label": "id",
								"offset": 0,
								"slot": "0",
								"type": "t_uint256"
							},
							{
								"astId": 6,
								"contract": "crypto-core/contracts/Vote.sol:Vote",
								"label": "title",
								"offset": 0,
								"slot": "1",
								"type": "t_string_storage"
							},
							{
								"astId": 8,
								"contract": "crypto-core/contracts/Vote.sol:Vote",
								"label": "description",
								"offset": 0,
								"slot": "2",
								"type": "t_string_storage"
							},
							{
								"astId": 10,
								"contract": "crypto-core/contracts/Vote.sol:Vote",
								"label": "startDate",
								"offset": 0,
								"slot": "3",
								"type": "t_uint256"
							},
							{
								"astId": 12,
								"contract": "crypto-core/contracts/Vote.sol:Vote",
								"label": "endDate",
								"offset": 0,
								"slot": "4",
								"type": "t_uint256"
							},
							{
								"astId": 14,
								"contract": "crypto-core/contracts/Vote.sol:Vote",
								"label": "status",
								"offset": 0,
								"slot": "5",
								"type": "t_string_storage"
							},
							{
								"astId": 16,
								"contract": "crypto-core/contracts/Vote.sol:Vote",
								"label": "participantCount",
								"offset": 0,
								"slot": "6",
								"type": "t_uint256"
							},
							{
								"astId": 19,
								"contract": "crypto-core/contracts/Vote.sol:Vote",
								"label": "options",
								"offset": 0,
								"slot": "7",
								"type": "t_array(t_string_storage)dyn_storage"
							}
						],
						"numberOfBytes": "256"
					},
					"t_uint256": {
						"encoding": "inplace",
						"label": "uint256",
						"numberOfBytes": "32"
					}
				}
			},
			"userdoc": {
				"kind": "user",
				"methods": {},
				"version": 1
			}
		}
	}
}