{
	"crypto-core/contracts/TimeLockEnc.sol": {
		"TimeLockEncryption": {
			"abi": [
				{
					"inputs": [],
					"stateMutability": "nonpayable",
					"type": "constructor"
				},
				{
					"anonymous": false,
					"inputs": [
						{
							"indexed": false,
							"internalType": "uint256",
							"name": "member_index",
							"type": "uint256"
						}
					],
					"name": "memberExited",
					"type": "event"
				},
				{
					"anonymous": false,
					"inputs": [
						{
							"indexed": false,
							"internalType": "address",
							"name": "member",
							"type": "address"
						},
						{
							"indexed": false,
							"internalType": "uint256",
							"name": "index",
							"type": "uint256"
						},
						{
							"indexed": false,
							"internalType": "bytes",
							"name": "publicKey",
							"type": "bytes"
						}
					],
					"name": "memberJoined",
					"type": "event"
				},
				{
					"anonymous": false,
					"inputs": [
						{
							"indexed": false,
							"internalType": "uint256",
							"name": "member",
							"type": "uint256"
						},
						{
							"indexed": false,
							"internalType": "uint256",
							"name": "transactionID",
							"type": "uint256"
						},
						{
							"indexed": false,
							"internalType": "bytes",
							"name": "secretShare",
							"type": "bytes"
						}
					],
					"name": "shareRecieved",
					"type": "event"
				},
				{
					"anonymous": false,
					"inputs": [
						{
							"indexed": false,
							"internalType": "uint256",
							"name": "id",
							"type": "uint256"
						},
						{
							"indexed": false,
							"internalType": "uint256",
							"name": "decryptionTime",
							"type": "uint256"
						},
						{
							"indexed": false,
							"internalType": "bytes",
							"name": "g1r",
							"type": "bytes"
						},
						{
							"indexed": false,
							"internalType": "bytes",
							"name": "g2r",
							"type": "bytes"
						},
						{
							"indexed": false,
							"internalType": "bytes[]",
							"name": "alphas",
							"type": "bytes[]"
						}
					],
					"name": "transactionReceived",
					"type": "event"
				},
				{
					"inputs": [],
					"name": "DEPOSIT_AMOUNT",
					"outputs": [
						{
							"internalType": "uint256",
							"name": "",
							"type": "uint256"
						}
					],
					"stateMutability": "view",
					"type": "function"
				},
				{
					"inputs": [],
					"name": "FIXED_REWARD",
					"outputs": [
						{
							"internalType": "uint256",
							"name": "",
							"type": "uint256"
						}
					],
					"stateMutability": "view",
					"type": "function"
				},
				{
					"inputs": [],
					"name": "GAS_ESTIMATION",
					"outputs": [
						{
							"internalType": "uint256",
							"name": "",
							"type": "uint256"
						}
					],
					"stateMutability": "view",
					"type": "function"
				},
				{
					"inputs": [],
					"name": "MAX_COMMITTEE_SIZE",
					"outputs": [
						{
							"internalType": "uint256",
							"name": "",
							"type": "uint256"
						}
					],
					"stateMutability": "view",
					"type": "function"
				},
				{
					"inputs": [],
					"name": "THRESHOLD",
					"outputs": [
						{
							"internalType": "uint256",
							"name": "",
							"type": "uint256"
						}
					],
					"stateMutability": "view",
					"type": "function"
				},
				{
					"inputs": [],
					"name": "TIME_TO_CONFIRM",
					"outputs": [
						{
							"internalType": "uint256",
							"name": "",
							"type": "uint256"
						}
					],
					"stateMutability": "view",
					"type": "function"
				},
				{
					"inputs": [],
					"name": "collectRewards",
					"outputs": [],
					"stateMutability": "nonpayable",
					"type": "function"
				},
				{
					"inputs": [
						{
							"internalType": "uint256",
							"name": "",
							"type": "uint256"
						}
					],
					"name": "committee",
					"outputs": [
						{
							"internalType": "address",
							"name": "",
							"type": "address"
						}
					],
					"stateMutability": "view",
					"type": "function"
				},
				{
					"inputs": [],
					"name": "committeeSize",
					"outputs": [
						{
							"internalType": "uint256",
							"name": "",
							"type": "uint256"
						}
					],
					"stateMutability": "view",
					"type": "function"
				},
				{
					"inputs": [
						{
							"internalType": "address payable",
							"name": "recipient",
							"type": "address"
						}
					],
					"name": "destroy",
					"outputs": [],
					"stateMutability": "nonpayable",
					"type": "function"
				},
				{
					"inputs": [
						{
							"internalType": "uint256",
							"name": "transactionID",
							"type": "uint256"
						},
						{
							"internalType": "uint256",
							"name": "member_index",
							"type": "uint256"
						}
					],
					"name": "disputeShare",
					"outputs": [],
					"stateMutability": "nonpayable",
					"type": "function"
				},
				{
					"inputs": [
						{
							"internalType": "uint256",
							"name": "",
							"type": "uint256"
						},
						{
							"internalType": "uint256",
							"name": "",
							"type": "uint256"
						}
					],
					"name": "disputedShares",
					"outputs": [
						{
							"internalType": "address",
							"name": "reporter",
							"type": "address"
						},
						{
							"internalType": "address",
							"name": "member",
							"type": "address"
						}
					],
					"stateMutability": "view",
					"type": "function"
				},
				{
					"inputs": [],
					"name": "exitCommittee",
					"outputs": [],
					"stateMutability": "nonpayable",
					"type": "function"
				},
				{
					"inputs": [],
					"name": "globalLatestConfirmedTime",
					"outputs": [
						{
							"internalType": "uint256",
							"name": "",
							"type": "uint256"
						}
					],
					"stateMutability": "view",
					"type": "function"
				},
				{
					"inputs": [],
					"name": "indexCount",
					"outputs": [
						{
							"internalType": "uint256",
							"name": "",
							"type": "uint256"
						}
					],
					"stateMutability": "view",
					"type": "function"
				},
				{
					"inputs": [
						{
							"internalType": "bytes",
							"name": "publicKey",
							"type": "bytes"
						}
					],
					"name": "joinCommittee",
					"outputs": [],
					"stateMutability": "payable",
					"type": "function"
				},
				{
					"inputs": [],
					"name": "owner",
					"outputs": [
						{
							"internalType": "address",
							"name": "",
							"type": "address"
						}
					],
					"stateMutability": "view",
					"type": "function"
				},
				{
					"inputs": [
						{
							"internalType": "address",
							"name": "",
							"type": "address"
						}
					],
					"name": "publicKeys",
					"outputs": [
						{
							"internalType": "bytes",
							"name": "publicKey",
							"type": "bytes"
						},
						{
							"internalType": "uint256",
							"name": "index",
							"type": "uint256"
						}
					],
					"stateMutability": "view",
					"type": "function"
				},
				{
					"inputs": [
						{
							"internalType": "uint256",
							"name": "decryptionTime",
							"type": "uint256"
						},
						{
							"internalType": "bytes",
							"name": "g1r",
							"type": "bytes"
						},
						{
							"internalType": "bytes",
							"name": "g2r",
							"type": "bytes"
						},
						{
							"internalType": "bytes[]",
							"name": "alphas",
							"type": "bytes[]"
						}
					],
					"name": "sendTimeLockTransaction",
					"outputs": [],
					"stateMutability": "payable",
					"type": "function"
				},
				{
					"inputs": [
						{
							"internalType": "uint256",
							"name": "",
							"type": "uint256"
						},
						{
							"internalType": "address",
							"name": "",
							"type": "address"
						}
					],
					"name": "shareSubmitted",
					"outputs": [
						{
							"internalType": "bool",
							"name": "",
							"type": "bool"
						}
					],
					"stateMutability": "view",
					"type": "function"
				},
				{
					"inputs": [
						{
							"internalType": "uint256",
							"name": "transactionID",
							"type": "uint256"
						},
						{
							"internalType": "bytes",
							"name": "secretShare",
							"type": "bytes"
						}
					],
					"name": "submitShare",
					"outputs": [],
					"stateMutability": "nonpayable",
					"type": "function"
				},
				{
					"inputs": [],
					"name": "transactionCounter",
					"outputs": [
						{
							"internalType": "uint256",
							"name": "",
							"type": "uint256"
						}
					],
					"stateMutability": "view",
					"type": "function"
				},
				{
					"inputs": [
						{
							"internalType": "uint256",
							"name": "",
							"type": "uint256"
						}
					],
					"name": "transactions",
					"outputs": [
						{
							"internalType": "uint256",
							"name": "id",
							"type": "uint256"
						},
						{
							"internalType": "uint256",
							"name": "decryptionTime",
							"type": "uint256"
						},
						{
							"internalType": "uint256",
							"name": "sharesReceived",
							"type": "uint256"
						}
					],
					"stateMutability": "view",
					"type": "function"
				},
				{
					"inputs": [
						{
							"internalType": "address",
							"name": "",
							"type": "address"
						},
						{
							"internalType": "uint256",
							"name": "",
							"type": "uint256"
						}
					],
					"name": "uncollectedRewards",
					"outputs": [
						{
							"internalType": "uint256",
							"name": "timestamp",
							"type": "uint256"
						},
						{
							"internalType": "uint256",
							"name": "amount",
							"type": "uint256"
						}
					],
					"stateMutability": "view",
					"type": "function"
				}
			],
			"devdoc": {
				"kind": "dev",
				"methods": {},
				"version": 1
			},
			"evm": {
				"assembly": "    /* \"crypto-core/contracts/TimeLockEnc.sol\":57:8690  contract TimeLockEncryption {... */\n  mstore(0x40, 0x80)\n    /* \"crypto-core/contracts/TimeLockEnc.sol\":309:310  0 */\n  0x00\n    /* \"crypto-core/contracts/TimeLockEnc.sol\":266:310  uint256 public globalLatestConfirmedTime = 0 */\n  0x03\n  sstore\n    /* \"crypto-core/contracts/TimeLockEnc.sol\":399:400  0 */\n  0x00\n    /* \"crypto-core/contracts/TimeLockEnc.sol\":363:400  uint256 public transactionCounter = 0 */\n  0x05\n  sstore\n    /* \"crypto-core/contracts/TimeLockEnc.sol\":572:573  0 */\n  0x00\n    /* \"crypto-core/contracts/TimeLockEnc.sol\":541:573  uint256 public committeeSize = 0 */\n  0x08\n  sstore\n    /* \"crypto-core/contracts/TimeLockEnc.sol\":607:608  1 */\n  0x01\n    /* \"crypto-core/contracts/TimeLockEnc.sol\":579:608  uint256 public indexCount = 1 */\n  0x09\n  sstore\n    /* \"crypto-core/contracts/TimeLockEnc.sol\":646:657  0.007 ether */\n  0x18de76816d8000\n    /* \"crypto-core/contracts/TimeLockEnc.sol\":614:657  uint256 public GAS_ESTIMATION = 0.007 ether */\n  0x0a\n  sstore\n    /* \"crypto-core/contracts/TimeLockEnc.sol\":2157:2206  constructor() {... */\n  callvalue\n  dup1\n  iszero\n  tag_1\n  jumpi\n  0x00\n  dup1\n  revert\ntag_1:\n  pop\n    /* \"crypto-core/contracts/TimeLockEnc.sol\":2189:2199  msg.sender */\n  caller\n    /* \"crypto-core/contracts/TimeLockEnc.sol\":2181:2186  owner */\n  0x0b\n  0x00\n    /* \"crypto-core/contracts/TimeLockEnc.sol\":2181:2199  owner = msg.sender */\n  0x0100\n  exp\n  dup2\n  sload\n  dup2\n  0xffffffffffffffffffffffffffffffffffffffff\n  mul\n  not\n  and\n  swap1\n  dup4\n  0xffffffffffffffffffffffffffffffffffffffff\n  and\n  mul\n  or\n  swap1\n  sstore\n  pop\n    /* \"crypto-core/contracts/TimeLockEnc.sol\":57:8690  contract TimeLockEncryption {... */\n  dataSize(sub_0)\n  dup1\n  dataOffset(sub_0)\n  0x00\n  codecopy\n  0x00\n  return\nstop\n\nsub_0: assembly {\n        /* \"crypto-core/contracts/TimeLockEnc.sol\":57:8690  contract TimeLockEncryption {... */\n      mstore(0x40, 0x80)\n      jumpi(tag_1, lt(calldatasize, 0x04))\n      shr(0xe0, calldataload(0x00))\n      dup1\n      0x8da5cb5b\n      gt\n      tag_26\n      jumpi\n      dup1\n      0xafe7fcf4\n      gt\n      tag_27\n      jumpi\n      dup1\n      0xafe7fcf4\n      eq\n      tag_20\n      jumpi\n      dup1\n      0xd577c2c1\n      eq\n      tag_21\n      jumpi\n      dup1\n      0xd89e421c\n      eq\n      tag_22\n      jumpi\n      dup1\n      0xd8e2ee0c\n      eq\n      tag_23\n      jumpi\n      dup1\n      0xe076cac4\n      eq\n      tag_24\n      jumpi\n      dup1\n      0xec6925a7\n      eq\n      tag_25\n      jumpi\n      jump(tag_1)\n    tag_27:\n      dup1\n      0x8da5cb5b\n      eq\n      tag_14\n      jumpi\n      dup1\n      0x968e8f50\n      eq\n      tag_15\n      jumpi\n      dup1\n      0x98c89201\n      eq\n      tag_16\n      jumpi\n      dup1\n      0x9ace38c2\n      eq\n      tag_17\n      jumpi\n      dup1\n      0x9cf4364b\n      eq\n      tag_18\n      jumpi\n      dup1\n      0xa3d6f9a9\n      eq\n      tag_19\n      jumpi\n      jump(tag_1)\n    tag_26:\n      dup1\n      0x5968c4c0\n      gt\n      tag_28\n      jumpi\n      dup1\n      0x5968c4c0\n      eq\n      tag_8\n      jumpi\n      dup1\n      0x70bb45b3\n      eq\n      tag_9\n      jumpi\n      dup1\n      0x785ffb37\n      eq\n      tag_10\n      jumpi\n      dup1\n      0x79697807\n      eq\n      tag_11\n      jumpi\n      dup1\n      0x7f10792d\n      eq\n      tag_12\n      jumpi\n      dup1\n      0x80a6d4f4\n      eq\n      tag_13\n      jumpi\n      jump(tag_1)\n    tag_28:\n      dup1\n      0xf55d9d\n      eq\n      tag_2\n      jumpi\n      dup1\n      0x14e887e8\n      eq\n      tag_3\n      jumpi\n      dup1\n      0x19a0bc4a\n      eq\n      tag_4\n      jumpi\n      dup1\n      0x244e88d6\n      eq\n      tag_5\n      jumpi\n      dup1\n      0x2ba1f592\n      eq\n      tag_6\n      jumpi\n      dup1\n      0x389311ff\n      eq\n      tag_7\n      jumpi\n    tag_1:\n      0x00\n      dup1\n      revert\n        /* \"crypto-core/contracts/TimeLockEnc.sol\":2335:2438  function destroy(address payable recipient) external onlyOwner {... */\n    tag_2:\n      callvalue\n      dup1\n      iszero\n      tag_29\n      jumpi\n      0x00\n      dup1\n      revert\n    tag_29:\n      pop\n      tag_30\n      0x04\n      dup1\n      calldatasize\n      sub\n      dup2\n      add\n      swap1\n      tag_31\n      swap2\n      swap1\n      tag_32\n      jump\t// in\n    tag_31:\n      tag_33\n      jump\t// in\n    tag_30:\n      stop\n        /* \"crypto-core/contracts/TimeLockEnc.sol\":363:400  uint256 public transactionCounter = 0 */\n    tag_3:\n      callvalue\n      dup1\n      iszero\n      tag_34\n      jumpi\n      0x00\n      dup1\n      revert\n    tag_34:\n      pop\n      tag_35\n      tag_36\n      jump\t// in\n    tag_35:\n      mload(0x40)\n      tag_37\n      swap2\n      swap1\n      tag_38\n      jump\t// in\n    tag_37:\n      mload(0x40)\n      dup1\n      swap2\n      sub\n      swap1\n      return\n        /* \"crypto-core/contracts/TimeLockEnc.sol\":579:608  uint256 public indexCount = 1 */\n    tag_4:\n      callvalue\n      dup1\n      iszero\n      tag_39\n      jumpi\n      0x00\n      dup1\n      revert\n    tag_39:\n      pop\n      tag_40\n      tag_41\n      jump\t// in\n    tag_40:\n      mload(0x40)\n      tag_42\n      swap2\n      swap1\n      tag_38\n      jump\t// in\n    tag_42:\n      mload(0x40)\n      dup1\n      swap2\n      sub\n      swap1\n      return\n        /* \"crypto-core/contracts/TimeLockEnc.sol\":4701:5639  function submitShare(uint256 transactionID, bytes memory secretShare) public onlyCommittee {... */\n    tag_5:\n      callvalue\n      dup1\n      iszero\n      tag_43\n      jumpi\n      0x00\n      dup1\n      revert\n    tag_43:\n      pop\n      tag_44\n      0x04\n      dup1\n      calldatasize\n      sub\n      dup2\n      add\n      swap1\n      tag_45\n      swap2\n      swap1\n      tag_46\n      jump\t// in\n    tag_45:\n      tag_47\n      jump\t// in\n    tag_44:\n      stop\n        /* \"crypto-core/contracts/TimeLockEnc.sol\":478:535  mapping(uint256 => DisputedShare[]) public disputedShares */\n    tag_6:\n      callvalue\n      dup1\n      iszero\n      tag_48\n      jumpi\n      0x00\n      dup1\n      revert\n    tag_48:\n      pop\n      tag_49\n      0x04\n      dup1\n      calldatasize\n      sub\n      dup2\n      add\n      swap1\n      tag_50\n      swap2\n      swap1\n      tag_51\n      jump\t// in\n    tag_50:\n      tag_52\n      jump\t// in\n    tag_49:\n      mload(0x40)\n      tag_53\n      swap3\n      swap2\n      swap1\n      tag_54\n      jump\t// in\n    tag_53:\n      mload(0x40)\n      dup1\n      swap2\n      sub\n      swap1\n      return\n        /* \"crypto-core/contracts/TimeLockEnc.sol\":2444:2973  function joinCommittee(bytes memory publicKey) public payable {... */\n    tag_7:\n      tag_55\n      0x04\n      dup1\n      calldatasize\n      sub\n      dup2\n      add\n      swap1\n      tag_56\n      swap2\n      swap1\n      tag_57\n      jump\t// in\n    tag_56:\n      tag_58\n      jump\t// in\n    tag_55:\n      stop\n        /* \"crypto-core/contracts/TimeLockEnc.sol\":952:1004  uint256 public constant FIXED_REWARD = 0.00022 ether */\n    tag_8:\n      callvalue\n      dup1\n      iszero\n      tag_59\n      jumpi\n      0x00\n      dup1\n      revert\n    tag_59:\n      pop\n      tag_60\n      tag_61\n      jump\t// in\n    tag_60:\n      mload(0x40)\n      tag_62\n      swap2\n      swap1\n      tag_38\n      jump\t// in\n    tag_62:\n      mload(0x40)\n      dup1\n      swap2\n      sub\n      swap1\n      return\n        /* \"crypto-core/contracts/TimeLockEnc.sol\":7634:8688  function collectRewards() public onlyCommittee {... */\n    tag_9:\n      callvalue\n      dup1\n      iszero\n      tag_63\n      jumpi\n      0x00\n      dup1\n      revert\n    tag_63:\n      pop\n      tag_64\n      tag_65\n      jump\t// in\n    tag_64:\n      stop\n        /* \"crypto-core/contracts/TimeLockEnc.sol\":909:946  uint256 public constant THRESHOLD = 2 */\n    tag_10:\n      callvalue\n      dup1\n      iszero\n      tag_66\n      jumpi\n      0x00\n      dup1\n      revert\n    tag_66:\n      pop\n      tag_67\n      tag_68\n      jump\t// in\n    tag_67:\n      mload(0x40)\n      tag_69\n      swap2\n      swap1\n      tag_38\n      jump\t// in\n    tag_69:\n      mload(0x40)\n      dup1\n      swap2\n      sub\n      swap1\n      return\n        /* \"crypto-core/contracts/TimeLockEnc.sol\":266:310  uint256 public globalLatestConfirmedTime = 0 */\n    tag_11:\n      callvalue\n      dup1\n      iszero\n      tag_70\n      jumpi\n      0x00\n      dup1\n      revert\n    tag_70:\n      pop\n      tag_71\n      tag_72\n      jump\t// in\n    tag_71:\n      mload(0x40)\n      tag_73\n      swap2\n      swap1\n      tag_38\n      jump\t// in\n    tag_73:\n      mload(0x40)\n      dup1\n      swap2\n      sub\n      swap1\n      return\n        /* \"crypto-core/contracts/TimeLockEnc.sol\":857:903  uint256 public constant MAX_COMMITTEE_SIZE = 3 */\n    tag_12:\n      callvalue\n      dup1\n      iszero\n      tag_74\n      jumpi\n      0x00\n      dup1\n      revert\n    tag_74:\n      pop\n      tag_75\n      tag_76\n      jump\t// in\n    tag_75:\n      mload(0x40)\n      tag_77\n      swap2\n      swap1\n      tag_38\n      jump\t// in\n    tag_77:\n      mload(0x40)\n      dup1\n      swap2\n      sub\n      swap1\n      return\n        /* \"crypto-core/contracts/TimeLockEnc.sol\":1010:1057  uint256 public constant TIME_TO_CONFIRM = 86400 */\n    tag_13:\n      callvalue\n      dup1\n      iszero\n      tag_78\n      jumpi\n      0x00\n      dup1\n      revert\n    tag_78:\n      pop\n      tag_79\n      tag_80\n      jump\t// in\n    tag_79:\n      mload(0x40)\n      tag_81\n      swap2\n      swap1\n      tag_38\n      jump\t// in\n    tag_81:\n      mload(0x40)\n      dup1\n      swap2\n      sub\n      swap1\n      return\n        /* \"crypto-core/contracts/TimeLockEnc.sol\":1064:1084  address public owner */\n    tag_14:\n      callvalue\n      dup1\n      iszero\n      tag_82\n      jumpi\n      0x00\n      dup1\n      revert\n    tag_82:\n      pop\n      tag_83\n      tag_84\n      jump\t// in\n    tag_83:\n      mload(0x40)\n      tag_85\n      swap2\n      swap1\n      tag_86\n      jump\t// in\n    tag_85:\n      mload(0x40)\n      dup1\n      swap2\n      sub\n      swap1\n      return\n        /* \"crypto-core/contracts/TimeLockEnc.sol\":200:260  mapping(address => RewardRecord[]) public uncollectedRewards */\n    tag_15:\n      callvalue\n      dup1\n      iszero\n      tag_87\n      jumpi\n      0x00\n      dup1\n      revert\n    tag_87:\n      pop\n      tag_88\n      0x04\n      dup1\n      calldatasize\n      sub\n      dup2\n      add\n      swap1\n      tag_89\n      swap2\n      swap1\n      tag_90\n      jump\t// in\n    tag_89:\n      tag_91\n      jump\t// in\n    tag_88:\n      mload(0x40)\n      tag_92\n      swap3\n      swap2\n      swap1\n      tag_93\n      jump\t// in\n    tag_92:\n      mload(0x40)\n      dup1\n      swap2\n      sub\n      swap1\n      return\n        /* \"crypto-core/contracts/TimeLockEnc.sol\":4055:4695  function sendTimeLockTransaction(uint256 decryptionTime, bytes memory g1r, bytes memory g2r, bytes[] memory alphas) public payable CommitteeInPlace(){... */\n    tag_16:\n      tag_94\n      0x04\n      dup1\n      calldatasize\n      sub\n      dup2\n      add\n      swap1\n      tag_95\n      swap2\n      swap1\n      tag_96\n      jump\t// in\n    tag_95:\n      tag_97\n      jump\t// in\n    tag_94:\n      stop\n        /* \"crypto-core/contracts/TimeLockEnc.sol\":316:357  TimeLockTransaction[] public transactions */\n    tag_17:\n      callvalue\n      dup1\n      iszero\n      tag_98\n      jumpi\n      0x00\n      dup1\n      revert\n    tag_98:\n      pop\n      tag_99\n      0x04\n      dup1\n      calldatasize\n      sub\n      dup2\n      add\n      swap1\n      tag_100\n      swap2\n      swap1\n      tag_101\n      jump\t// in\n    tag_100:\n      tag_102\n      jump\t// in\n    tag_99:\n      mload(0x40)\n      tag_103\n      swap4\n      swap3\n      swap2\n      swap1\n      tag_104\n      jump\t// in\n    tag_103:\n      mload(0x40)\n      dup1\n      swap2\n      sub\n      swap1\n      return\n        /* \"crypto-core/contracts/TimeLockEnc.sol\":541:573  uint256 public committeeSize = 0 */\n    tag_18:\n      callvalue\n      dup1\n      iszero\n      tag_105\n      jumpi\n      0x00\n      dup1\n      revert\n    tag_105:\n      pop\n      tag_106\n      tag_107\n      jump\t// in\n    tag_106:\n      mload(0x40)\n      tag_108\n      swap2\n      swap1\n      tag_38\n      jump\t// in\n    tag_108:\n      mload(0x40)\n      dup1\n      swap2\n      sub\n      swap1\n      return\n        /* \"crypto-core/contracts/TimeLockEnc.sol\":141:194  mapping(address => CommitteeMember) public publicKeys */\n    tag_19:\n      callvalue\n      dup1\n      iszero\n      tag_109\n      jumpi\n      0x00\n      dup1\n      revert\n    tag_109:\n      pop\n      tag_110\n      0x04\n      dup1\n      calldatasize\n      sub\n      dup2\n      add\n      swap1\n      tag_111\n      swap2\n      swap1\n      tag_112\n      jump\t// in\n    tag_111:\n      tag_113\n      jump\t// in\n    tag_110:\n      mload(0x40)\n      tag_114\n      swap3\n      swap2\n      swap1\n      tag_115\n      jump\t// in\n    tag_114:\n      mload(0x40)\n      dup1\n      swap2\n      sub\n      swap1\n      return\n        /* \"crypto-core/contracts/TimeLockEnc.sol\":91:135  mapping(uint256 => address) public committee */\n    tag_20:\n      callvalue\n      dup1\n      iszero\n      tag_116\n      jumpi\n      0x00\n      dup1\n      revert\n    tag_116:\n      pop\n      tag_117\n      0x04\n      dup1\n      calldatasize\n      sub\n      dup2\n      add\n      swap1\n      tag_118\n      swap2\n      swap1\n      tag_101\n      jump\t// in\n    tag_118:\n      tag_119\n      jump\t// in\n    tag_117:\n      mload(0x40)\n      tag_120\n      swap2\n      swap1\n      tag_86\n      jump\t// in\n    tag_120:\n      mload(0x40)\n      dup1\n      swap2\n      sub\n      swap1\n      return\n        /* \"crypto-core/contracts/TimeLockEnc.sol\":406:472  mapping(uint256 => mapping(address => bool)) public shareSubmitted */\n    tag_21:\n      callvalue\n      dup1\n      iszero\n      tag_121\n      jumpi\n      0x00\n      dup1\n      revert\n    tag_121:\n      pop\n      tag_122\n      0x04\n      dup1\n      calldatasize\n      sub\n      dup2\n      add\n      swap1\n      tag_123\n      swap2\n      swap1\n      tag_124\n      jump\t// in\n    tag_123:\n      tag_125\n      jump\t// in\n    tag_122:\n      mload(0x40)\n      tag_126\n      swap2\n      swap1\n      tag_127\n      jump\t// in\n    tag_126:\n      mload(0x40)\n      dup1\n      swap2\n      sub\n      swap1\n      return\n        /* \"crypto-core/contracts/TimeLockEnc.sol\":614:657  uint256 public GAS_ESTIMATION = 0.007 ether */\n    tag_22:\n      callvalue\n      dup1\n      iszero\n      tag_128\n      jumpi\n      0x00\n      dup1\n      revert\n    tag_128:\n      pop\n      tag_129\n      tag_130\n      jump\t// in\n    tag_129:\n      mload(0x40)\n      tag_131\n      swap2\n      swap1\n      tag_38\n      jump\t// in\n    tag_131:\n      mload(0x40)\n      dup1\n      swap2\n      sub\n      swap1\n      return\n        /* \"crypto-core/contracts/TimeLockEnc.sol\":3171:3481  function exitCommittee() public onlyCommittee {... */\n    tag_23:\n      callvalue\n      dup1\n      iszero\n      tag_132\n      jumpi\n      0x00\n      dup1\n      revert\n    tag_132:\n      pop\n      tag_133\n      tag_134\n      jump\t// in\n    tag_133:\n      stop\n        /* \"crypto-core/contracts/TimeLockEnc.sol\":5645:7628  function disputeShare(uint256 transactionID, uint256 member_index) public onlyCommittee { // an agent calims a share was invalid... */\n    tag_24:\n      callvalue\n      dup1\n      iszero\n      tag_135\n      jumpi\n      0x00\n      dup1\n      revert\n    tag_135:\n      pop\n      tag_136\n      0x04\n      dup1\n      calldatasize\n      sub\n      dup2\n      add\n      swap1\n      tag_137\n      swap2\n      swap1\n      tag_51\n      jump\t// in\n    tag_137:\n      tag_138\n      jump\t// in\n    tag_136:\n      stop\n        /* \"crypto-core/contracts/TimeLockEnc.sol\":803:851  uint256 public constant DEPOSIT_AMOUNT = 1 ether */\n    tag_25:\n      callvalue\n      dup1\n      iszero\n      tag_139\n      jumpi\n      0x00\n      dup1\n      revert\n    tag_139:\n      pop\n      tag_140\n      tag_141\n      jump\t// in\n    tag_140:\n      mload(0x40)\n      tag_142\n      swap2\n      swap1\n      tag_38\n      jump\t// in\n    tag_142:\n      mload(0x40)\n      dup1\n      swap2\n      sub\n      swap1\n      return\n        /* \"crypto-core/contracts/TimeLockEnc.sol\":2335:2438  function destroy(address payable recipient) external onlyOwner {... */\n    tag_33:\n        /* \"crypto-core/contracts/TimeLockEnc.sol\":1964:1969  owner */\n      0x0b\n      0x00\n      swap1\n      sload\n      swap1\n      0x0100\n      exp\n      swap1\n      div\n      0xffffffffffffffffffffffffffffffffffffffff\n      and\n        /* \"crypto-core/contracts/TimeLockEnc.sol\":1950:1969  msg.sender == owner */\n      0xffffffffffffffffffffffffffffffffffffffff\n      and\n        /* \"crypto-core/contracts/TimeLockEnc.sol\":1950:1960  msg.sender */\n      caller\n        /* \"crypto-core/contracts/TimeLockEnc.sol\":1950:1969  msg.sender == owner */\n      0xffffffffffffffffffffffffffffffffffffffff\n      and\n      eq\n        /* \"crypto-core/contracts/TimeLockEnc.sol\":1942:1997  require(msg.sender == owner, \"Caller is not the owner\") */\n      tag_144\n      jumpi\n      mload(0x40)\n      0x08c379a000000000000000000000000000000000000000000000000000000000\n      dup2\n      mstore\n      0x04\n      add\n      tag_145\n      swap1\n      tag_146\n      jump\t// in\n    tag_145:\n      mload(0x40)\n      dup1\n      swap2\n      sub\n      swap1\n      revert\n    tag_144:\n        /* \"crypto-core/contracts/TimeLockEnc.sol\":2421:2430  recipient */\n      dup1\n        /* \"crypto-core/contracts/TimeLockEnc.sol\":2408:2431  selfdestruct(recipient) */\n      0xffffffffffffffffffffffffffffffffffffffff\n      and\n      selfdestruct\n        /* \"crypto-core/contracts/TimeLockEnc.sol\":363:400  uint256 public transactionCounter = 0 */\n    tag_36:\n      sload(0x05)\n      dup2\n      jump\t// out\n        /* \"crypto-core/contracts/TimeLockEnc.sol\":579:608  uint256 public indexCount = 1 */\n    tag_41:\n      sload(0x09)\n      dup2\n      jump\t// out\n        /* \"crypto-core/contracts/TimeLockEnc.sol\":4701:5639  function submitShare(uint256 transactionID, bytes memory secretShare) public onlyCommittee {... */\n    tag_47:\n        /* \"crypto-core/contracts/TimeLockEnc.sol\":1849:1850  0 */\n      0x00\n        /* \"crypto-core/contracts/TimeLockEnc.sol\":1817:1827  publicKeys */\n      0x01\n        /* \"crypto-core/contracts/TimeLockEnc.sol\":1817:1839  publicKeys[msg.sender] */\n      0x00\n        /* \"crypto-core/contracts/TimeLockEnc.sol\":1828:1838  msg.sender */\n      caller\n        /* \"crypto-core/contracts/TimeLockEnc.sol\":1817:1839  publicKeys[msg.sender] */\n      0xffffffffffffffffffffffffffffffffffffffff\n      and\n      0xffffffffffffffffffffffffffffffffffffffff\n      and\n      dup2\n      mstore\n      0x20\n      add\n      swap1\n      dup2\n      mstore\n      0x20\n      add\n      0x00\n      keccak256\n        /* \"crypto-core/contracts/TimeLockEnc.sol\":1817:1845  publicKeys[msg.sender].index */\n      0x01\n      add\n      sload\n        /* \"crypto-core/contracts/TimeLockEnc.sol\":1817:1850  publicKeys[msg.sender].index != 0 */\n      eq\n      iszero\n        /* \"crypto-core/contracts/TimeLockEnc.sol\":1809:1887  require(publicKeys[msg.sender].index != 0, \"Caller is not a committee member\") */\n      tag_149\n      jumpi\n      mload(0x40)\n      0x08c379a000000000000000000000000000000000000000000000000000000000\n      dup2\n      mstore\n      0x04\n      add\n      tag_150\n      swap1\n      tag_151\n      jump\t// in\n    tag_150:\n      mload(0x40)\n      dup1\n      swap2\n      sub\n      swap1\n      revert\n    tag_149:\n        /* \"crypto-core/contracts/TimeLockEnc.sol\":4829:4841  transactions */\n      0x04\n        /* \"crypto-core/contracts/TimeLockEnc.sol\":4842:4855  transactionID */\n      dup3\n        /* \"crypto-core/contracts/TimeLockEnc.sol\":4829:4856  transactions[transactionID] */\n      dup2\n      sload\n      dup2\n      lt\n      tag_153\n      jumpi\n      mstore(0x00, 0x4e487b7100000000000000000000000000000000000000000000000000000000)\n      mstore(0x04, 0x32)\n      revert(0x00, 0x24)\n    tag_153:\n      swap1\n      0x00\n      mstore\n      keccak256(0x00, 0x20)\n      swap1\n      0x03\n      mul\n      add\n        /* \"crypto-core/contracts/TimeLockEnc.sol\":4829:4871  transactions[transactionID].decryptionTime */\n      0x01\n      add\n      sload\n        /* \"crypto-core/contracts/TimeLockEnc.sol\":4810:4825  block.timestamp */\n      timestamp\n        /* \"crypto-core/contracts/TimeLockEnc.sol\":4810:4871  block.timestamp >= transactions[transactionID].decryptionTime */\n      lt\n      iszero\n        /* \"crypto-core/contracts/TimeLockEnc.sol\":4802:4903  require(block.timestamp >= transactions[transactionID].decryptionTime, \"Decryption time not reached\") */\n      tag_155\n      jumpi\n      mload(0x40)\n      0x08c379a000000000000000000000000000000000000000000000000000000000\n      dup2\n      mstore\n      0x04\n      add\n      tag_156\n      swap1\n      tag_157\n      jump\t// in\n    tag_156:\n      mload(0x40)\n      dup1\n      swap2\n      sub\n      swap1\n      revert\n    tag_155:\n        /* \"crypto-core/contracts/TimeLockEnc.sol\":5006:5077  shareRecieved(publicKeys[msg.sender].index, transactionID, secretShare) */\n      0x32095ee3cad3b30d29d83bacbba0fe0c8de1c59733c53cb32e3f9a9aeafbadf2\n        /* \"crypto-core/contracts/TimeLockEnc.sol\":5020:5030  publicKeys */\n      0x01\n        /* \"crypto-core/contracts/TimeLockEnc.sol\":5020:5042  publicKeys[msg.sender] */\n      0x00\n        /* \"crypto-core/contracts/TimeLockEnc.sol\":5031:5041  msg.sender */\n      caller\n        /* \"crypto-core/contracts/TimeLockEnc.sol\":5020:5042  publicKeys[msg.sender] */\n      0xffffffffffffffffffffffffffffffffffffffff\n      and\n      0xffffffffffffffffffffffffffffffffffffffff\n      and\n      dup2\n      mstore\n      0x20\n      add\n      swap1\n      dup2\n      mstore\n      0x20\n      add\n      0x00\n      keccak256\n        /* \"crypto-core/contracts/TimeLockEnc.sol\":5020:5048  publicKeys[msg.sender].index */\n      0x01\n      add\n      sload\n        /* \"crypto-core/contracts/TimeLockEnc.sol\":5050:5063  transactionID */\n      dup4\n        /* \"crypto-core/contracts/TimeLockEnc.sol\":5065:5076  secretShare */\n      dup4\n        /* \"crypto-core/contracts/TimeLockEnc.sol\":5006:5077  shareRecieved(publicKeys[msg.sender].index, transactionID, secretShare) */\n      mload(0x40)\n      tag_158\n      swap4\n      swap3\n      swap2\n      swap1\n      tag_159\n      jump\t// in\n    tag_158:\n      mload(0x40)\n      dup1\n      swap2\n      sub\n      swap1\n      log1\n        /* \"crypto-core/contracts/TimeLockEnc.sol\":5092:5106  shareSubmitted */\n      0x06\n        /* \"crypto-core/contracts/TimeLockEnc.sol\":5092:5121  shareSubmitted[transactionID] */\n      0x00\n        /* \"crypto-core/contracts/TimeLockEnc.sol\":5107:5120  transactionID */\n      dup4\n        /* \"crypto-core/contracts/TimeLockEnc.sol\":5092:5121  shareSubmitted[transactionID] */\n      dup2\n      mstore\n      0x20\n      add\n      swap1\n      dup2\n      mstore\n      0x20\n      add\n      0x00\n      keccak256\n        /* \"crypto-core/contracts/TimeLockEnc.sol\":5092:5133  shareSubmitted[transactionID][msg.sender] */\n      0x00\n        /* \"crypto-core/contracts/TimeLockEnc.sol\":5122:5132  msg.sender */\n      caller\n        /* \"crypto-core/contracts/TimeLockEnc.sol\":5092:5133  shareSubmitted[transactionID][msg.sender] */\n      0xffffffffffffffffffffffffffffffffffffffff\n      and\n      0xffffffffffffffffffffffffffffffffffffffff\n      and\n      dup2\n      mstore\n      0x20\n      add\n      swap1\n      dup2\n      mstore\n      0x20\n      add\n      0x00\n      keccak256\n      0x00\n      swap1\n      sload\n      swap1\n      0x0100\n      exp\n      swap1\n      div\n      0xff\n      and\n        /* \"crypto-core/contracts/TimeLockEnc.sol\":5087:5633  if (!shareSubmitted[transactionID][msg.sender]) {... */\n      tag_160\n      jumpi\n        /* \"crypto-core/contracts/TimeLockEnc.sol\":5276:5280  true */\n      0x01\n        /* \"crypto-core/contracts/TimeLockEnc.sol\":5232:5246  shareSubmitted */\n      0x06\n        /* \"crypto-core/contracts/TimeLockEnc.sol\":5232:5261  shareSubmitted[transactionID] */\n      0x00\n        /* \"crypto-core/contracts/TimeLockEnc.sol\":5247:5260  transactionID */\n      dup5\n        /* \"crypto-core/contracts/TimeLockEnc.sol\":5232:5261  shareSubmitted[transactionID] */\n      dup2\n      mstore\n      0x20\n      add\n      swap1\n      dup2\n      mstore\n      0x20\n      add\n      0x00\n      keccak256\n        /* \"crypto-core/contracts/TimeLockEnc.sol\":5232:5273  shareSubmitted[transactionID][msg.sender] */\n      0x00\n        /* \"crypto-core/contracts/TimeLockEnc.sol\":5262:5272  msg.sender */\n      caller\n        /* \"crypto-core/contracts/TimeLockEnc.sol\":5232:5273  shareSubmitted[transactionID][msg.sender] */\n      0xffffffffffffffffffffffffffffffffffffffff\n      and\n      0xffffffffffffffffffffffffffffffffffffffff\n      and\n      dup2\n      mstore\n      0x20\n      add\n      swap1\n      dup2\n      mstore\n      0x20\n      add\n      0x00\n      keccak256\n      0x00\n        /* \"crypto-core/contracts/TimeLockEnc.sol\":5232:5280  shareSubmitted[transactionID][msg.sender] = true */\n      0x0100\n      exp\n      dup2\n      sload\n      dup2\n      0xff\n      mul\n      not\n      and\n      swap1\n      dup4\n      iszero\n      iszero\n      mul\n      or\n      swap1\n      sstore\n      pop\n        /* \"crypto-core/contracts/TimeLockEnc.sol\":5294:5306  transactions */\n      0x04\n        /* \"crypto-core/contracts/TimeLockEnc.sol\":5307:5320  transactionID */\n      dup3\n        /* \"crypto-core/contracts/TimeLockEnc.sol\":5294:5321  transactions[transactionID] */\n      dup2\n      sload\n      dup2\n      lt\n      tag_161\n      jumpi\n      mstore(0x00, 0x4e487b7100000000000000000000000000000000000000000000000000000000)\n      mstore(0x04, 0x32)\n      revert(0x00, 0x24)\n    tag_161:\n      swap1\n      0x00\n      mstore\n      keccak256(0x00, 0x20)\n      swap1\n      0x03\n      mul\n      add\n        /* \"crypto-core/contracts/TimeLockEnc.sol\":5294:5336  transactions[transactionID].sharesReceived */\n      0x02\n      add\n      0x00\n        /* \"crypto-core/contracts/TimeLockEnc.sol\":5294:5338  transactions[transactionID].sharesReceived++ */\n      dup2\n      sload\n      dup1\n      swap3\n      swap2\n      swap1\n      tag_163\n      swap1\n      tag_164\n      jump\t// in\n    tag_163:\n      swap2\n      swap1\n      pop\n      sstore\n      pop\n        /* \"crypto-core/contracts/TimeLockEnc.sol\":945:946  2 */\n      0x02\n        /* \"crypto-core/contracts/TimeLockEnc.sol\":5356:5368  transactions */\n      0x04\n        /* \"crypto-core/contracts/TimeLockEnc.sol\":5369:5382  transactionID */\n      dup4\n        /* \"crypto-core/contracts/TimeLockEnc.sol\":5356:5383  transactions[transactionID] */\n      dup2\n      sload\n      dup2\n      lt\n      tag_165\n      jumpi\n      mstore(0x00, 0x4e487b7100000000000000000000000000000000000000000000000000000000)\n      mstore(0x04, 0x32)\n      revert(0x00, 0x24)\n    tag_165:\n      swap1\n      0x00\n      mstore\n      keccak256(0x00, 0x20)\n      swap1\n      0x03\n      mul\n      add\n        /* \"crypto-core/contracts/TimeLockEnc.sol\":5356:5398  transactions[transactionID].sharesReceived */\n      0x02\n      add\n      sload\n        /* \"crypto-core/contracts/TimeLockEnc.sol\":5356:5411  transactions[transactionID].sharesReceived <= THRESHOLD */\n      gt\n        /* \"crypto-core/contracts/TimeLockEnc.sol\":5352:5623  if (transactions[transactionID].sharesReceived <= THRESHOLD) { // this only rewards the first T holders who submit, we may wanna change this... */\n      tag_167\n      jumpi\n        /* \"crypto-core/contracts/TimeLockEnc.sol\":5509:5527  uncollectedRewards */\n      0x02\n        /* \"crypto-core/contracts/TimeLockEnc.sol\":5509:5539  uncollectedRewards[msg.sender] */\n      0x00\n        /* \"crypto-core/contracts/TimeLockEnc.sol\":5528:5538  msg.sender */\n      caller\n        /* \"crypto-core/contracts/TimeLockEnc.sol\":5509:5539  uncollectedRewards[msg.sender] */\n      0xffffffffffffffffffffffffffffffffffffffff\n      and\n      0xffffffffffffffffffffffffffffffffffffffff\n      and\n      dup2\n      mstore\n      0x20\n      add\n      swap1\n      dup2\n      mstore\n      0x20\n      add\n      0x00\n      keccak256\n        /* \"crypto-core/contracts/TimeLockEnc.sol\":5545:5607  RewardRecord(block.timestamp, (FIXED_REWARD + GAS_ESTIMATION)) */\n      mload(0x40)\n      dup1\n      0x40\n      add\n      0x40\n      mstore\n      dup1\n        /* \"crypto-core/contracts/TimeLockEnc.sol\":5558:5573  block.timestamp */\n      timestamp\n        /* \"crypto-core/contracts/TimeLockEnc.sol\":5545:5607  RewardRecord(block.timestamp, (FIXED_REWARD + GAS_ESTIMATION)) */\n      dup2\n      mstore\n      0x20\n      add\n        /* \"crypto-core/contracts/TimeLockEnc.sol\":5591:5605  GAS_ESTIMATION */\n      sload(0x0a)\n        /* \"crypto-core/contracts/TimeLockEnc.sol\":991:1004  0.00022 ether */\n      0xc816bdd9c000\n        /* \"crypto-core/contracts/TimeLockEnc.sol\":5576:5605  FIXED_REWARD + GAS_ESTIMATION */\n      tag_168\n      swap2\n      swap1\n      tag_169\n      jump\t// in\n    tag_168:\n        /* \"crypto-core/contracts/TimeLockEnc.sol\":5545:5607  RewardRecord(block.timestamp, (FIXED_REWARD + GAS_ESTIMATION)) */\n      dup2\n      mstore\n      pop\n        /* \"crypto-core/contracts/TimeLockEnc.sol\":5509:5608  uncollectedRewards[msg.sender].push(RewardRecord(block.timestamp, (FIXED_REWARD + GAS_ESTIMATION))) */\n      swap1\n      dup1\n      0x01\n      dup2\n      sload\n      add\n      dup1\n      dup3\n      sstore\n      dup1\n      swap2\n      pop\n      pop\n      0x01\n      swap1\n      sub\n      swap1\n      0x00\n      mstore\n      keccak256(0x00, 0x20)\n      swap1\n      0x02\n      mul\n      add\n      0x00\n      swap1\n      swap2\n      swap1\n      swap2\n      swap1\n      swap2\n      pop\n      0x00\n      dup3\n      add\n      mload\n      dup2\n      0x00\n      add\n      sstore\n      0x20\n      dup3\n      add\n      mload\n      dup2\n      0x01\n      add\n      sstore\n      pop\n      pop\n        /* \"crypto-core/contracts/TimeLockEnc.sol\":5352:5623  if (transactions[transactionID].sharesReceived <= THRESHOLD) { // this only rewards the first T holders who submit, we may wanna change this... */\n    tag_167:\n        /* \"crypto-core/contracts/TimeLockEnc.sol\":5087:5633  if (!shareSubmitted[transactionID][msg.sender]) {... */\n    tag_160:\n        /* \"crypto-core/contracts/TimeLockEnc.sol\":4701:5639  function submitShare(uint256 transactionID, bytes memory secretShare) public onlyCommittee {... */\n      pop\n      pop\n      jump\t// out\n        /* \"crypto-core/contracts/TimeLockEnc.sol\":478:535  mapping(uint256 => DisputedShare[]) public disputedShares */\n    tag_52:\n      mstore(0x20, 0x07)\n      dup2\n      0x00\n      mstore\n      keccak256(0x00, 0x40)\n      dup2\n      dup2\n      sload\n      dup2\n      lt\n      tag_171\n      jumpi\n      0x00\n      dup1\n      revert\n    tag_171:\n      swap1\n      0x00\n      mstore\n      keccak256(0x00, 0x20)\n      swap1\n      0x02\n      mul\n      add\n      0x00\n      swap2\n      pop\n      swap2\n      pop\n      pop\n      dup1\n      0x00\n      add\n      0x00\n      swap1\n      sload\n      swap1\n      0x0100\n      exp\n      swap1\n      div\n      0xffffffffffffffffffffffffffffffffffffffff\n      and\n      swap1\n      dup1\n      0x01\n      add\n      0x00\n      swap1\n      sload\n      swap1\n      0x0100\n      exp\n      swap1\n      div\n      0xffffffffffffffffffffffffffffffffffffffff\n      and\n      swap1\n      pop\n      dup3\n      jump\t// out\n        /* \"crypto-core/contracts/TimeLockEnc.sol\":2444:2973  function joinCommittee(bytes memory publicKey) public payable {... */\n    tag_58:\n        /* \"crypto-core/contracts/TimeLockEnc.sol\":902:903  3 */\n      0x03\n        /* \"crypto-core/contracts/TimeLockEnc.sol\":2524:2537  committeeSize */\n      sload(0x08)\n        /* \"crypto-core/contracts/TimeLockEnc.sol\":2524:2558  committeeSize < MAX_COMMITTEE_SIZE */\n      lt\n        /* \"crypto-core/contracts/TimeLockEnc.sol\":2516:2580  require(committeeSize < MAX_COMMITTEE_SIZE, \"Committee is full\") */\n      tag_174\n      jumpi\n      mload(0x40)\n      0x08c379a000000000000000000000000000000000000000000000000000000000\n      dup2\n      mstore\n      0x04\n      add\n      tag_175\n      swap1\n      tag_176\n      jump\t// in\n    tag_175:\n      mload(0x40)\n      dup1\n      swap2\n      sub\n      swap1\n      revert\n    tag_174:\n        /* \"crypto-core/contracts/TimeLockEnc.sol\":2630:2631  0 */\n      0x00\n        /* \"crypto-core/contracts/TimeLockEnc.sol\":2598:2608  publicKeys */\n      0x01\n        /* \"crypto-core/contracts/TimeLockEnc.sol\":2598:2620  publicKeys[msg.sender] */\n      0x00\n        /* \"crypto-core/contracts/TimeLockEnc.sol\":2609:2619  msg.sender */\n      caller\n        /* \"crypto-core/contracts/TimeLockEnc.sol\":2598:2620  publicKeys[msg.sender] */\n      0xffffffffffffffffffffffffffffffffffffffff\n      and\n      0xffffffffffffffffffffffffffffffffffffffff\n      and\n      dup2\n      mstore\n      0x20\n      add\n      swap1\n      dup2\n      mstore\n      0x20\n      add\n      0x00\n      keccak256\n        /* \"crypto-core/contracts/TimeLockEnc.sol\":2598:2626  publicKeys[msg.sender].index */\n      0x01\n      add\n      sload\n        /* \"crypto-core/contracts/TimeLockEnc.sol\":2598:2631  publicKeys[msg.sender].index == 0 */\n      eq\n        /* \"crypto-core/contracts/TimeLockEnc.sol\":2590:2670  require(publicKeys[msg.sender].index == 0, \"Caller is already in the committee\") */\n      tag_177\n      jumpi\n      mload(0x40)\n      0x08c379a000000000000000000000000000000000000000000000000000000000\n      dup2\n      mstore\n      0x04\n      add\n      tag_178\n      swap1\n      tag_179\n      jump\t// in\n    tag_178:\n      mload(0x40)\n      dup1\n      swap2\n      sub\n      swap1\n      revert\n    tag_177:\n        /* \"crypto-core/contracts/TimeLockEnc.sol\":844:851  1 ether */\n      0x0de0b6b3a7640000\n        /* \"crypto-core/contracts/TimeLockEnc.sol\":2688:2697  msg.value */\n      callvalue\n        /* \"crypto-core/contracts/TimeLockEnc.sol\":2688:2715  msg.value >= DEPOSIT_AMOUNT */\n      lt\n      iszero\n        /* \"crypto-core/contracts/TimeLockEnc.sol\":2680:2738  require(msg.value >= DEPOSIT_AMOUNT, \"Not enough deposit\") */\n      tag_180\n      jumpi\n      mload(0x40)\n      0x08c379a000000000000000000000000000000000000000000000000000000000\n      dup2\n      mstore\n      0x04\n      add\n      tag_181\n      swap1\n      tag_182\n      jump\t// in\n    tag_181:\n      mload(0x40)\n      dup1\n      swap2\n      sub\n      swap1\n      revert\n    tag_180:\n        /* \"crypto-core/contracts/TimeLockEnc.sol\":2774:2812  CommitteeMember(publicKey, indexCount) */\n      mload(0x40)\n      dup1\n      0x40\n      add\n      0x40\n      mstore\n      dup1\n        /* \"crypto-core/contracts/TimeLockEnc.sol\":2790:2799  publicKey */\n      dup3\n        /* \"crypto-core/contracts/TimeLockEnc.sol\":2774:2812  CommitteeMember(publicKey, indexCount) */\n      dup2\n      mstore\n      0x20\n      add\n        /* \"crypto-core/contracts/TimeLockEnc.sol\":2801:2811  indexCount */\n      sload(0x09)\n        /* \"crypto-core/contracts/TimeLockEnc.sol\":2774:2812  CommitteeMember(publicKey, indexCount) */\n      dup2\n      mstore\n      pop\n        /* \"crypto-core/contracts/TimeLockEnc.sol\":2749:2759  publicKeys */\n      0x01\n        /* \"crypto-core/contracts/TimeLockEnc.sol\":2749:2771  publicKeys[msg.sender] */\n      0x00\n        /* \"crypto-core/contracts/TimeLockEnc.sol\":2760:2770  msg.sender */\n      caller\n        /* \"crypto-core/contracts/TimeLockEnc.sol\":2749:2771  publicKeys[msg.sender] */\n      0xffffffffffffffffffffffffffffffffffffffff\n      and\n      0xffffffffffffffffffffffffffffffffffffffff\n      and\n      dup2\n      mstore\n      0x20\n      add\n      swap1\n      dup2\n      mstore\n      0x20\n      add\n      0x00\n      keccak256\n        /* \"crypto-core/contracts/TimeLockEnc.sol\":2749:2812  publicKeys[msg.sender] = CommitteeMember(publicKey, indexCount) */\n      0x00\n      dup3\n      add\n      mload\n      dup2\n      0x00\n      add\n      swap1\n      dup1\n      mload\n      swap1\n      0x20\n      add\n      swap1\n      tag_183\n      swap3\n      swap2\n      swap1\n      tag_184\n      jump\t// in\n    tag_183:\n      pop\n      0x20\n      dup3\n      add\n      mload\n      dup2\n      0x01\n      add\n      sstore\n      swap1\n      pop\n      pop\n        /* \"crypto-core/contracts/TimeLockEnc.sol\":2846:2856  msg.sender */\n      caller\n        /* \"crypto-core/contracts/TimeLockEnc.sol\":2822:2831  committee */\n      0x00\n        /* \"crypto-core/contracts/TimeLockEnc.sol\":2822:2843  committee[indexCount] */\n      dup1\n        /* \"crypto-core/contracts/TimeLockEnc.sol\":2832:2842  indexCount */\n      sload(0x09)\n        /* \"crypto-core/contracts/TimeLockEnc.sol\":2822:2843  committee[indexCount] */\n      dup2\n      mstore\n      0x20\n      add\n      swap1\n      dup2\n      mstore\n      0x20\n      add\n      0x00\n      keccak256\n      0x00\n        /* \"crypto-core/contracts/TimeLockEnc.sol\":2822:2856  committee[indexCount] = msg.sender */\n      0x0100\n      exp\n      dup2\n      sload\n      dup2\n      0xffffffffffffffffffffffffffffffffffffffff\n      mul\n      not\n      and\n      swap1\n      dup4\n      0xffffffffffffffffffffffffffffffffffffffff\n      and\n      mul\n      or\n      swap1\n      sstore\n      pop\n        /* \"crypto-core/contracts/TimeLockEnc.sol\":2871:2918  memberJoined(msg.sender, indexCount, publicKey) */\n      0xed502e3a5cced6d8c7c0380facc0b9c22a607e9e19f0ab6d4fec92918d6c389d\n        /* \"crypto-core/contracts/TimeLockEnc.sol\":2884:2894  msg.sender */\n      caller\n        /* \"crypto-core/contracts/TimeLockEnc.sol\":2896:2906  indexCount */\n      sload(0x09)\n        /* \"crypto-core/contracts/TimeLockEnc.sol\":2908:2917  publicKey */\n      dup4\n        /* \"crypto-core/contracts/TimeLockEnc.sol\":2871:2918  memberJoined(msg.sender, indexCount, publicKey) */\n      mload(0x40)\n      tag_185\n      swap4\n      swap3\n      swap2\n      swap1\n      tag_186\n      jump\t// in\n    tag_185:\n      mload(0x40)\n      dup1\n      swap2\n      sub\n      swap1\n      log1\n        /* \"crypto-core/contracts/TimeLockEnc.sol\":2931:2944  committeeSize */\n      0x08\n      0x00\n        /* \"crypto-core/contracts/TimeLockEnc.sol\":2929:2944  ++committeeSize */\n      dup2\n      sload\n      tag_187\n      swap1\n      tag_164\n      jump\t// in\n    tag_187:\n      swap2\n      swap1\n      pop\n      dup2\n      swap1\n      sstore\n      pop\n        /* \"crypto-core/contracts/TimeLockEnc.sol\":2956:2966  indexCount */\n      0x09\n      0x00\n        /* \"crypto-core/contracts/TimeLockEnc.sol\":2954:2966  ++indexCount */\n      dup2\n      sload\n      tag_188\n      swap1\n      tag_164\n      jump\t// in\n    tag_188:\n      swap2\n      swap1\n      pop\n      dup2\n      swap1\n      sstore\n      pop\n        /* \"crypto-core/contracts/TimeLockEnc.sol\":2444:2973  function joinCommittee(bytes memory publicKey) public payable {... */\n      pop\n      jump\t// out\n        /* \"crypto-core/contracts/TimeLockEnc.sol\":952:1004  uint256 public constant FIXED_REWARD = 0.00022 ether */\n    tag_61:\n        /* \"crypto-core/contracts/TimeLockEnc.sol\":991:1004  0.00022 ether */\n      0xc816bdd9c000\n        /* \"crypto-core/contracts/TimeLockEnc.sol\":952:1004  uint256 public constant FIXED_REWARD = 0.00022 ether */\n      dup2\n      jump\t// out\n        /* \"crypto-core/contracts/TimeLockEnc.sol\":7634:8688  function collectRewards() public onlyCommittee {... */\n    tag_65:\n        /* \"crypto-core/contracts/TimeLockEnc.sol\":1849:1850  0 */\n      0x00\n        /* \"crypto-core/contracts/TimeLockEnc.sol\":1817:1827  publicKeys */\n      0x01\n        /* \"crypto-core/contracts/TimeLockEnc.sol\":1817:1839  publicKeys[msg.sender] */\n      0x00\n        /* \"crypto-core/contracts/TimeLockEnc.sol\":1828:1838  msg.sender */\n      caller\n        /* \"crypto-core/contracts/TimeLockEnc.sol\":1817:1839  publicKeys[msg.sender] */\n      0xffffffffffffffffffffffffffffffffffffffff\n      and\n      0xffffffffffffffffffffffffffffffffffffffff\n      and\n      dup2\n      mstore\n      0x20\n      add\n      swap1\n      dup2\n      mstore\n      0x20\n      add\n      0x00\n      keccak256\n        /* \"crypto-core/contracts/TimeLockEnc.sol\":1817:1845  publicKeys[msg.sender].index */\n      0x01\n      add\n      sload\n        /* \"crypto-core/contracts/TimeLockEnc.sol\":1817:1850  publicKeys[msg.sender].index != 0 */\n      eq\n      iszero\n        /* \"crypto-core/contracts/TimeLockEnc.sol\":1809:1887  require(publicKeys[msg.sender].index != 0, \"Caller is not a committee member\") */\n      tag_190\n      jumpi\n      mload(0x40)\n      0x08c379a000000000000000000000000000000000000000000000000000000000\n      dup2\n      mstore\n      0x04\n      add\n      tag_191\n      swap1\n      tag_151\n      jump\t// in\n    tag_191:\n      mload(0x40)\n      dup1\n      swap2\n      sub\n      swap1\n      revert\n    tag_190:\n        /* \"crypto-core/contracts/TimeLockEnc.sol\":7691:7715  uint256 rewardsToCollect */\n      0x00\n        /* \"crypto-core/contracts/TimeLockEnc.sol\":7729:7755  uint256 confirmedTimestamp */\n      dup1\n        /* \"crypto-core/contracts/TimeLockEnc.sol\":1052:1057  86400 */\n      0x015180\n        /* \"crypto-core/contracts/TimeLockEnc.sol\":7758:7773  block.timestamp */\n      timestamp\n        /* \"crypto-core/contracts/TimeLockEnc.sol\":7758:7791  block.timestamp - TIME_TO_CONFIRM */\n      tag_193\n      swap2\n      swap1\n      tag_194\n      jump\t// in\n    tag_193:\n        /* \"crypto-core/contracts/TimeLockEnc.sol\":7729:7791  uint256 confirmedTimestamp = block.timestamp - TIME_TO_CONFIRM */\n      swap1\n      pop\n        /* \"crypto-core/contracts/TimeLockEnc.sol\":7801:7823  uint256 remainingIndex */\n      0x00\n        /* \"crypto-core/contracts/TimeLockEnc.sol\":7843:7852  uint256 i */\n      dup1\n        /* \"crypto-core/contracts/TimeLockEnc.sol\":7838:8327  for (uint256 i = 0; i < uncollectedRewards[msg.sender].length; i++) {... */\n    tag_195:\n        /* \"crypto-core/contracts/TimeLockEnc.sol\":7862:7880  uncollectedRewards */\n      0x02\n        /* \"crypto-core/contracts/TimeLockEnc.sol\":7862:7892  uncollectedRewards[msg.sender] */\n      0x00\n        /* \"crypto-core/contracts/TimeLockEnc.sol\":7881:7891  msg.sender */\n      caller\n        /* \"crypto-core/contracts/TimeLockEnc.sol\":7862:7892  uncollectedRewards[msg.sender] */\n      0xffffffffffffffffffffffffffffffffffffffff\n      and\n      0xffffffffffffffffffffffffffffffffffffffff\n      and\n      dup2\n      mstore\n      0x20\n      add\n      swap1\n      dup2\n      mstore\n      0x20\n      add\n      0x00\n      keccak256\n        /* \"crypto-core/contracts/TimeLockEnc.sol\":7862:7899  uncollectedRewards[msg.sender].length */\n      dup1\n      sload\n      swap1\n      pop\n        /* \"crypto-core/contracts/TimeLockEnc.sol\":7858:7859  i */\n      dup2\n        /* \"crypto-core/contracts/TimeLockEnc.sol\":7858:7899  i < uncollectedRewards[msg.sender].length */\n      lt\n        /* \"crypto-core/contracts/TimeLockEnc.sol\":7838:8327  for (uint256 i = 0; i < uncollectedRewards[msg.sender].length; i++) {... */\n      iszero\n      tag_196\n      jumpi\n        /* \"crypto-core/contracts/TimeLockEnc.sol\":7971:7989  confirmedTimestamp */\n      dup3\n        /* \"crypto-core/contracts/TimeLockEnc.sol\":7924:7942  uncollectedRewards */\n      0x02\n        /* \"crypto-core/contracts/TimeLockEnc.sol\":7924:7954  uncollectedRewards[msg.sender] */\n      0x00\n        /* \"crypto-core/contracts/TimeLockEnc.sol\":7943:7953  msg.sender */\n      caller\n        /* \"crypto-core/contracts/TimeLockEnc.sol\":7924:7954  uncollectedRewards[msg.sender] */\n      0xffffffffffffffffffffffffffffffffffffffff\n      and\n      0xffffffffffffffffffffffffffffffffffffffff\n      and\n      dup2\n      mstore\n      0x20\n      add\n      swap1\n      dup2\n      mstore\n      0x20\n      add\n      0x00\n      keccak256\n        /* \"crypto-core/contracts/TimeLockEnc.sol\":7955:7956  i */\n      dup3\n        /* \"crypto-core/contracts/TimeLockEnc.sol\":7924:7957  uncollectedRewards[msg.sender][i] */\n      dup2\n      sload\n      dup2\n      lt\n      tag_198\n      jumpi\n      mstore(0x00, 0x4e487b7100000000000000000000000000000000000000000000000000000000)\n      mstore(0x04, 0x32)\n      revert(0x00, 0x24)\n    tag_198:\n      swap1\n      0x00\n      mstore\n      keccak256(0x00, 0x20)\n      swap1\n      0x02\n      mul\n      add\n        /* \"crypto-core/contracts/TimeLockEnc.sol\":7924:7967  uncollectedRewards[msg.sender][i].timestamp */\n      0x00\n      add\n      sload\n        /* \"crypto-core/contracts/TimeLockEnc.sol\":7924:7989  uncollectedRewards[msg.sender][i].timestamp <= confirmedTimestamp */\n      gt\n        /* \"crypto-core/contracts/TimeLockEnc.sol\":7920:8317  if (uncollectedRewards[msg.sender][i].timestamp <= confirmedTimestamp) {... */\n      tag_200\n      jumpi\n        /* \"crypto-core/contracts/TimeLockEnc.sol\":8029:8047  uncollectedRewards */\n      0x02\n        /* \"crypto-core/contracts/TimeLockEnc.sol\":8029:8059  uncollectedRewards[msg.sender] */\n      0x00\n        /* \"crypto-core/contracts/TimeLockEnc.sol\":8048:8058  msg.sender */\n      caller\n        /* \"crypto-core/contracts/TimeLockEnc.sol\":8029:8059  uncollectedRewards[msg.sender] */\n      0xffffffffffffffffffffffffffffffffffffffff\n      and\n      0xffffffffffffffffffffffffffffffffffffffff\n      and\n      dup2\n      mstore\n      0x20\n      add\n      swap1\n      dup2\n      mstore\n      0x20\n      add\n      0x00\n      keccak256\n        /* \"crypto-core/contracts/TimeLockEnc.sol\":8060:8061  i */\n      dup2\n        /* \"crypto-core/contracts/TimeLockEnc.sol\":8029:8062  uncollectedRewards[msg.sender][i] */\n      dup2\n      sload\n      dup2\n      lt\n      tag_201\n      jumpi\n      mstore(0x00, 0x4e487b7100000000000000000000000000000000000000000000000000000000)\n      mstore(0x04, 0x32)\n      revert(0x00, 0x24)\n    tag_201:\n      swap1\n      0x00\n      mstore\n      keccak256(0x00, 0x20)\n      swap1\n      0x02\n      mul\n      add\n        /* \"crypto-core/contracts/TimeLockEnc.sol\":8029:8069  uncollectedRewards[msg.sender][i].amount */\n      0x01\n      add\n      sload\n        /* \"crypto-core/contracts/TimeLockEnc.sol\":8009:8069  rewardsToCollect += uncollectedRewards[msg.sender][i].amount */\n      dup5\n      tag_203\n      swap2\n      swap1\n      tag_169\n      jump\t// in\n    tag_203:\n      swap4\n      pop\n        /* \"crypto-core/contracts/TimeLockEnc.sol\":7920:8317  if (uncollectedRewards[msg.sender][i].timestamp <= confirmedTimestamp) {... */\n      jump(tag_204)\n    tag_200:\n        /* \"crypto-core/contracts/TimeLockEnc.sol\":8143:8144  i */\n      dup1\n        /* \"crypto-core/contracts/TimeLockEnc.sol\":8125:8139  remainingIndex */\n      dup3\n        /* \"crypto-core/contracts/TimeLockEnc.sol\":8125:8144  remainingIndex != i */\n      eq\n        /* \"crypto-core/contracts/TimeLockEnc.sol\":8121:8269  if (remainingIndex != i) {... */\n      tag_205\n      jumpi\n        /* \"crypto-core/contracts/TimeLockEnc.sol\":8217:8235  uncollectedRewards */\n      0x02\n        /* \"crypto-core/contracts/TimeLockEnc.sol\":8217:8247  uncollectedRewards[msg.sender] */\n      0x00\n        /* \"crypto-core/contracts/TimeLockEnc.sol\":8236:8246  msg.sender */\n      caller\n        /* \"crypto-core/contracts/TimeLockEnc.sol\":8217:8247  uncollectedRewards[msg.sender] */\n      0xffffffffffffffffffffffffffffffffffffffff\n      and\n      0xffffffffffffffffffffffffffffffffffffffff\n      and\n      dup2\n      mstore\n      0x20\n      add\n      swap1\n      dup2\n      mstore\n      0x20\n      add\n      0x00\n      keccak256\n        /* \"crypto-core/contracts/TimeLockEnc.sol\":8248:8249  i */\n      dup2\n        /* \"crypto-core/contracts/TimeLockEnc.sol\":8217:8250  uncollectedRewards[msg.sender][i] */\n      dup2\n      sload\n      dup2\n      lt\n      tag_206\n      jumpi\n      mstore(0x00, 0x4e487b7100000000000000000000000000000000000000000000000000000000)\n      mstore(0x04, 0x32)\n      revert(0x00, 0x24)\n    tag_206:\n      swap1\n      0x00\n      mstore\n      keccak256(0x00, 0x20)\n      swap1\n      0x02\n      mul\n      add\n        /* \"crypto-core/contracts/TimeLockEnc.sol\":8168:8186  uncollectedRewards */\n      0x02\n        /* \"crypto-core/contracts/TimeLockEnc.sol\":8168:8198  uncollectedRewards[msg.sender] */\n      0x00\n        /* \"crypto-core/contracts/TimeLockEnc.sol\":8187:8197  msg.sender */\n      caller\n        /* \"crypto-core/contracts/TimeLockEnc.sol\":8168:8198  uncollectedRewards[msg.sender] */\n      0xffffffffffffffffffffffffffffffffffffffff\n      and\n      0xffffffffffffffffffffffffffffffffffffffff\n      and\n      dup2\n      mstore\n      0x20\n      add\n      swap1\n      dup2\n      mstore\n      0x20\n      add\n      0x00\n      keccak256\n        /* \"crypto-core/contracts/TimeLockEnc.sol\":8199:8213  remainingIndex */\n      dup4\n        /* \"crypto-core/contracts/TimeLockEnc.sol\":8168:8214  uncollectedRewards[msg.sender][remainingIndex] */\n      dup2\n      sload\n      dup2\n      lt\n      tag_208\n      jumpi\n      mstore(0x00, 0x4e487b7100000000000000000000000000000000000000000000000000000000)\n      mstore(0x04, 0x32)\n      revert(0x00, 0x24)\n    tag_208:\n      swap1\n      0x00\n      mstore\n      keccak256(0x00, 0x20)\n      swap1\n      0x02\n      mul\n      add\n        /* \"crypto-core/contracts/TimeLockEnc.sol\":8168:8250  uncollectedRewards[msg.sender][remainingIndex] = uncollectedRewards[msg.sender][i] */\n      0x00\n      dup3\n      add\n      sload\n      dup2\n      0x00\n      add\n      sstore\n      0x01\n      dup3\n      add\n      sload\n      dup2\n      0x01\n      add\n      sstore\n      swap1\n      pop\n      pop\n        /* \"crypto-core/contracts/TimeLockEnc.sol\":8121:8269  if (remainingIndex != i) {... */\n    tag_205:\n        /* \"crypto-core/contracts/TimeLockEnc.sol\":8286:8302  remainingIndex++ */\n      dup2\n      dup1\n      tag_210\n      swap1\n      tag_164\n      jump\t// in\n    tag_210:\n      swap3\n      pop\n      pop\n        /* \"crypto-core/contracts/TimeLockEnc.sol\":7920:8317  if (uncollectedRewards[msg.sender][i].timestamp <= confirmedTimestamp) {... */\n    tag_204:\n        /* \"crypto-core/contracts/TimeLockEnc.sol\":7901:7904  i++ */\n      dup1\n      dup1\n      tag_211\n      swap1\n      tag_164\n      jump\t// in\n    tag_211:\n      swap2\n      pop\n      pop\n        /* \"crypto-core/contracts/TimeLockEnc.sol\":7838:8327  for (uint256 i = 0; i < uncollectedRewards[msg.sender].length; i++) {... */\n      jump(tag_195)\n    tag_196:\n      pop\n        /* \"crypto-core/contracts/TimeLockEnc.sol\":8364:8365  0 */\n      0x00\n        /* \"crypto-core/contracts/TimeLockEnc.sol\":8345:8361  rewardsToCollect */\n      dup4\n        /* \"crypto-core/contracts/TimeLockEnc.sol\":8345:8365  rewardsToCollect > 0 */\n      gt\n        /* \"crypto-core/contracts/TimeLockEnc.sol\":8337:8391  require(rewardsToCollect > 0, \"No rewards to collect\") */\n      tag_212\n      jumpi\n      mload(0x40)\n      0x08c379a000000000000000000000000000000000000000000000000000000000\n      dup2\n      mstore\n      0x04\n      add\n      tag_213\n      swap1\n      tag_214\n      jump\t// in\n    tag_213:\n      mload(0x40)\n      dup1\n      swap2\n      sub\n      swap1\n      revert\n    tag_212:\n        /* \"crypto-core/contracts/TimeLockEnc.sol\":8430:8452  uint256 lengthToRemove */\n      0x00\n        /* \"crypto-core/contracts/TimeLockEnc.sol\":8495:8509  remainingIndex */\n      dup2\n        /* \"crypto-core/contracts/TimeLockEnc.sol\":8455:8473  uncollectedRewards */\n      0x02\n        /* \"crypto-core/contracts/TimeLockEnc.sol\":8455:8485  uncollectedRewards[msg.sender] */\n      0x00\n        /* \"crypto-core/contracts/TimeLockEnc.sol\":8474:8484  msg.sender */\n      caller\n        /* \"crypto-core/contracts/TimeLockEnc.sol\":8455:8485  uncollectedRewards[msg.sender] */\n      0xffffffffffffffffffffffffffffffffffffffff\n      and\n      0xffffffffffffffffffffffffffffffffffffffff\n      and\n      dup2\n      mstore\n      0x20\n      add\n      swap1\n      dup2\n      mstore\n      0x20\n      add\n      0x00\n      keccak256\n        /* \"crypto-core/contracts/TimeLockEnc.sol\":8455:8492  uncollectedRewards[msg.sender].length */\n      dup1\n      sload\n      swap1\n      pop\n        /* \"crypto-core/contracts/TimeLockEnc.sol\":8455:8509  uncollectedRewards[msg.sender].length - remainingIndex */\n      tag_215\n      swap2\n      swap1\n      tag_194\n      jump\t// in\n    tag_215:\n        /* \"crypto-core/contracts/TimeLockEnc.sol\":8430:8509  uint256 lengthToRemove = uncollectedRewards[msg.sender].length - remainingIndex */\n      swap1\n      pop\n        /* \"crypto-core/contracts/TimeLockEnc.sol\":8524:8533  uint256 i */\n      0x00\n        /* \"crypto-core/contracts/TimeLockEnc.sol\":8519:8625  for (uint256 i = 0; i < lengthToRemove; i++) {... */\n    tag_216:\n        /* \"crypto-core/contracts/TimeLockEnc.sol\":8543:8557  lengthToRemove */\n      dup2\n        /* \"crypto-core/contracts/TimeLockEnc.sol\":8539:8540  i */\n      dup2\n        /* \"crypto-core/contracts/TimeLockEnc.sol\":8539:8557  i < lengthToRemove */\n      lt\n        /* \"crypto-core/contracts/TimeLockEnc.sol\":8519:8625  for (uint256 i = 0; i < lengthToRemove; i++) {... */\n      iszero\n      tag_217\n      jumpi\n        /* \"crypto-core/contracts/TimeLockEnc.sol\":8578:8596  uncollectedRewards */\n      0x02\n        /* \"crypto-core/contracts/TimeLockEnc.sol\":8578:8608  uncollectedRewards[msg.sender] */\n      0x00\n        /* \"crypto-core/contracts/TimeLockEnc.sol\":8597:8607  msg.sender */\n      caller\n        /* \"crypto-core/contracts/TimeLockEnc.sol\":8578:8608  uncollectedRewards[msg.sender] */\n      0xffffffffffffffffffffffffffffffffffffffff\n      and\n      0xffffffffffffffffffffffffffffffffffffffff\n      and\n      dup2\n      mstore\n      0x20\n      add\n      swap1\n      dup2\n      mstore\n      0x20\n      add\n      0x00\n      keccak256\n        /* \"crypto-core/contracts/TimeLockEnc.sol\":8578:8614  uncollectedRewards[msg.sender].pop() */\n      dup1\n      sload\n      dup1\n      tag_219\n      jumpi\n      mstore(0x00, 0x4e487b7100000000000000000000000000000000000000000000000000000000)\n      mstore(0x04, 0x31)\n      revert(0x00, 0x24)\n    tag_219:\n      0x01\n      swap1\n      sub\n      dup2\n      dup2\n      swap1\n      0x00\n      mstore\n      keccak256(0x00, 0x20)\n      swap1\n      0x02\n      mul\n      add\n      0x00\n      dup1\n      dup3\n      add\n      0x00\n      swap1\n      sstore\n      0x01\n      dup3\n      add\n      0x00\n      swap1\n      sstore\n      pop\n      pop\n      swap1\n      sstore\n        /* \"crypto-core/contracts/TimeLockEnc.sol\":8559:8562  i++ */\n      dup1\n      dup1\n      tag_221\n      swap1\n      tag_164\n      jump\t// in\n    tag_221:\n      swap2\n      pop\n      pop\n        /* \"crypto-core/contracts/TimeLockEnc.sol\":8519:8625  for (uint256 i = 0; i < lengthToRemove; i++) {... */\n      jump(tag_216)\n    tag_217:\n      pop\n        /* \"crypto-core/contracts/TimeLockEnc.sol\":8643:8653  msg.sender */\n      caller\n        /* \"crypto-core/contracts/TimeLockEnc.sol\":8635:8663  payable(msg.sender).transfer */\n      0xffffffffffffffffffffffffffffffffffffffff\n      and\n        /* \"crypto-core/contracts/TimeLockEnc.sol\":8635:8681  payable(msg.sender).transfer(rewardsToCollect) */\n      0x08fc\n        /* \"crypto-core/contracts/TimeLockEnc.sol\":8664:8680  rewardsToCollect */\n      dup6\n        /* \"crypto-core/contracts/TimeLockEnc.sol\":8635:8681  payable(msg.sender).transfer(rewardsToCollect) */\n      swap1\n      dup2\n      iszero\n      mul\n      swap1\n      mload(0x40)\n      0x00\n      mload(0x40)\n      dup1\n      dup4\n      sub\n      dup2\n      dup6\n      dup9\n      dup9\n      call\n      swap4\n      pop\n      pop\n      pop\n      pop\n      iszero\n      dup1\n      iszero\n      tag_223\n      jumpi\n      returndatasize\n      0x00\n      dup1\n      returndatacopy\n      revert(0x00, returndatasize)\n    tag_223:\n      pop\n        /* \"crypto-core/contracts/TimeLockEnc.sol\":1897:1898  _ */\n      pop\n      pop\n      pop\n      pop\n        /* \"crypto-core/contracts/TimeLockEnc.sol\":7634:8688  function collectRewards() public onlyCommittee {... */\n      jump\t// out\n        /* \"crypto-core/contracts/TimeLockEnc.sol\":909:946  uint256 public constant THRESHOLD = 2 */\n    tag_68:\n        /* \"crypto-core/contracts/TimeLockEnc.sol\":945:946  2 */\n      0x02\n        /* \"crypto-core/contracts/TimeLockEnc.sol\":909:946  uint256 public constant THRESHOLD = 2 */\n      dup2\n      jump\t// out\n        /* \"crypto-core/contracts/TimeLockEnc.sol\":266:310  uint256 public globalLatestConfirmedTime = 0 */\n    tag_72:\n      sload(0x03)\n      dup2\n      jump\t// out\n        /* \"crypto-core/contracts/TimeLockEnc.sol\":857:903  uint256 public constant MAX_COMMITTEE_SIZE = 3 */\n    tag_76:\n        /* \"crypto-core/contracts/TimeLockEnc.sol\":902:903  3 */\n      0x03\n        /* \"crypto-core/contracts/TimeLockEnc.sol\":857:903  uint256 public constant MAX_COMMITTEE_SIZE = 3 */\n      dup2\n      jump\t// out\n        /* \"crypto-core/contracts/TimeLockEnc.sol\":1010:1057  uint256 public constant TIME_TO_CONFIRM = 86400 */\n    tag_80:\n        /* \"crypto-core/contracts/TimeLockEnc.sol\":1052:1057  86400 */\n      0x015180\n        /* \"crypto-core/contracts/TimeLockEnc.sol\":1010:1057  uint256 public constant TIME_TO_CONFIRM = 86400 */\n      dup2\n      jump\t// out\n        /* \"crypto-core/contracts/TimeLockEnc.sol\":1064:1084  address public owner */\n    tag_84:\n      0x0b\n      0x00\n      swap1\n      sload\n      swap1\n      0x0100\n      exp\n      swap1\n      div\n      0xffffffffffffffffffffffffffffffffffffffff\n      and\n      dup2\n      jump\t// out\n        /* \"crypto-core/contracts/TimeLockEnc.sol\":200:260  mapping(address => RewardRecord[]) public uncollectedRewards */\n    tag_91:\n      mstore(0x20, 0x02)\n      dup2\n      0x00\n      mstore\n      keccak256(0x00, 0x40)\n      dup2\n      dup2\n      sload\n      dup2\n      lt\n      tag_224\n      jumpi\n      0x00\n      dup1\n      revert\n    tag_224:\n      swap1\n      0x00\n      mstore\n      keccak256(0x00, 0x20)\n      swap1\n      0x02\n      mul\n      add\n      0x00\n      swap2\n      pop\n      swap2\n      pop\n      pop\n      dup1\n      0x00\n      add\n      sload\n      swap1\n      dup1\n      0x01\n      add\n      sload\n      swap1\n      pop\n      dup3\n      jump\t// out\n        /* \"crypto-core/contracts/TimeLockEnc.sol\":4055:4695  function sendTimeLockTransaction(uint256 decryptionTime, bytes memory g1r, bytes memory g2r, bytes[] memory alphas) public payable CommitteeInPlace(){... */\n    tag_97:\n        /* \"crypto-core/contracts/TimeLockEnc.sol\":902:903  3 */\n      0x03\n        /* \"crypto-core/contracts/TimeLockEnc.sol\":2067:2080  committeeSize */\n      sload(0x08)\n        /* \"crypto-core/contracts/TimeLockEnc.sol\":2067:2102  committeeSize == MAX_COMMITTEE_SIZE */\n      eq\n        /* \"crypto-core/contracts/TimeLockEnc.sol\":2059:2132  require(committeeSize == MAX_COMMITTEE_SIZE, \"Committee is not in place\") */\n      tag_227\n      jumpi\n      mload(0x40)\n      0x08c379a000000000000000000000000000000000000000000000000000000000\n      dup2\n      mstore\n      0x04\n      add\n      tag_228\n      swap1\n      tag_229\n      jump\t// in\n    tag_228:\n      mload(0x40)\n      dup1\n      swap2\n      sub\n      swap1\n      revert\n    tag_227:\n        /* \"crypto-core/contracts/TimeLockEnc.sol\":4239:4254  block.timestamp */\n      timestamp\n        /* \"crypto-core/contracts/TimeLockEnc.sol\":4222:4236  decryptionTime */\n      dup5\n        /* \"crypto-core/contracts/TimeLockEnc.sol\":4222:4254  decryptionTime > block.timestamp */\n      gt\n        /* \"crypto-core/contracts/TimeLockEnc.sol\":4214:4296  require(decryptionTime > block.timestamp, \"Decryption time must be in the future\") */\n      tag_231\n      jumpi\n      mload(0x40)\n      0x08c379a000000000000000000000000000000000000000000000000000000000\n      dup2\n      mstore\n      0x04\n      add\n      tag_232\n      swap1\n      tag_233\n      jump\t// in\n    tag_232:\n      mload(0x40)\n      dup1\n      swap2\n      sub\n      swap1\n      revert\n    tag_231:\n        /* \"crypto-core/contracts/TimeLockEnc.sol\":945:946  2 */\n      0x02\n        /* \"crypto-core/contracts/TimeLockEnc.sol\":4343:4357  GAS_ESTIMATION */\n      sload(0x0a)\n        /* \"crypto-core/contracts/TimeLockEnc.sol\":991:1004  0.00022 ether */\n      0xc816bdd9c000\n        /* \"crypto-core/contracts/TimeLockEnc.sol\":4328:4357  FIXED_REWARD + GAS_ESTIMATION */\n      tag_234\n      swap2\n      swap1\n      tag_169\n      jump\t// in\n    tag_234:\n        /* \"crypto-core/contracts/TimeLockEnc.sol\":4327:4370  (FIXED_REWARD + GAS_ESTIMATION) * THRESHOLD */\n      tag_235\n      swap2\n      swap1\n      tag_236\n      jump\t// in\n    tag_235:\n        /* \"crypto-core/contracts/TimeLockEnc.sol\":4314:4323  msg.value */\n      callvalue\n        /* \"crypto-core/contracts/TimeLockEnc.sol\":4314:4370  msg.value >= (FIXED_REWARD + GAS_ESTIMATION) * THRESHOLD */\n      lt\n      iszero\n        /* \"crypto-core/contracts/TimeLockEnc.sol\":4306:4389  require(msg.value >= (FIXED_REWARD + GAS_ESTIMATION) * THRESHOLD, \"Not enough fee\") */\n      tag_237\n      jumpi\n      mload(0x40)\n      0x08c379a000000000000000000000000000000000000000000000000000000000\n      dup2\n      mstore\n      0x04\n      add\n      tag_238\n      swap1\n      tag_239\n      jump\t// in\n    tag_238:\n      mload(0x40)\n      dup1\n      swap2\n      sub\n      swap1\n      revert\n    tag_237:\n        /* \"crypto-core/contracts/TimeLockEnc.sol\":4400:4421  uint256 transactionID */\n      0x00\n        /* \"crypto-core/contracts/TimeLockEnc.sol\":4424:4442  transactionCounter */\n      sload(0x05)\n        /* \"crypto-core/contracts/TimeLockEnc.sol\":4400:4442  uint256 transactionID = transactionCounter */\n      swap1\n      pop\n        /* \"crypto-core/contracts/TimeLockEnc.sol\":4452:4464  transactions */\n      0x04\n        /* \"crypto-core/contracts/TimeLockEnc.sol\":4470:4523  TimeLockTransaction(transactionID, decryptionTime, 0) */\n      mload(0x40)\n      dup1\n      0x60\n      add\n      0x40\n      mstore\n      dup1\n        /* \"crypto-core/contracts/TimeLockEnc.sol\":4490:4503  transactionID */\n      dup4\n        /* \"crypto-core/contracts/TimeLockEnc.sol\":4470:4523  TimeLockTransaction(transactionID, decryptionTime, 0) */\n      dup2\n      mstore\n      0x20\n      add\n        /* \"crypto-core/contracts/TimeLockEnc.sol\":4505:4519  decryptionTime */\n      dup8\n        /* \"crypto-core/contracts/TimeLockEnc.sol\":4470:4523  TimeLockTransaction(transactionID, decryptionTime, 0) */\n      dup2\n      mstore\n      0x20\n      add\n        /* \"crypto-core/contracts/TimeLockEnc.sol\":4521:4522  0 */\n      0x00\n        /* \"crypto-core/contracts/TimeLockEnc.sol\":4470:4523  TimeLockTransaction(transactionID, decryptionTime, 0) */\n      dup2\n      mstore\n      pop\n        /* \"crypto-core/contracts/TimeLockEnc.sol\":4452:4524  transactions.push(TimeLockTransaction(transactionID, decryptionTime, 0)) */\n      swap1\n      dup1\n      0x01\n      dup2\n      sload\n      add\n      dup1\n      dup3\n      sstore\n      dup1\n      swap2\n      pop\n      pop\n      0x01\n      swap1\n      sub\n      swap1\n      0x00\n      mstore\n      keccak256(0x00, 0x20)\n      swap1\n      0x03\n      mul\n      add\n      0x00\n      swap1\n      swap2\n      swap1\n      swap2\n      swap1\n      swap2\n      pop\n      0x00\n      dup3\n      add\n      mload\n      dup2\n      0x00\n      add\n      sstore\n      0x20\n      dup3\n      add\n      mload\n      dup2\n      0x01\n      add\n      sstore\n      0x40\n      dup3\n      add\n      mload\n      dup2\n      0x02\n      add\n      sstore\n      pop\n      pop\n        /* \"crypto-core/contracts/TimeLockEnc.sol\":4590:4658  transactionReceived(transactionID, decryptionTime, g1r, g2r, alphas) */\n      0xb181b2a1d6a5d18b67f2004f38f058c1bd100e74788e1623c242c8b9bb55ac8e\n        /* \"crypto-core/contracts/TimeLockEnc.sol\":4610:4623  transactionID */\n      dup2\n        /* \"crypto-core/contracts/TimeLockEnc.sol\":4625:4639  decryptionTime */\n      dup7\n        /* \"crypto-core/contracts/TimeLockEnc.sol\":4641:4644  g1r */\n      dup7\n        /* \"crypto-core/contracts/TimeLockEnc.sol\":4646:4649  g2r */\n      dup7\n        /* \"crypto-core/contracts/TimeLockEnc.sol\":4651:4657  alphas */\n      dup7\n        /* \"crypto-core/contracts/TimeLockEnc.sol\":4590:4658  transactionReceived(transactionID, decryptionTime, g1r, g2r, alphas) */\n      mload(0x40)\n      tag_241\n      swap6\n      swap5\n      swap4\n      swap3\n      swap2\n      swap1\n      tag_242\n      jump\t// in\n    tag_241:\n      mload(0x40)\n      dup1\n      swap2\n      sub\n      swap1\n      log1\n        /* \"crypto-core/contracts/TimeLockEnc.sol\":4668:4686  transactionCounter */\n      0x05\n      0x00\n        /* \"crypto-core/contracts/TimeLockEnc.sol\":4668:4688  transactionCounter++ */\n      dup2\n      sload\n      dup1\n      swap3\n      swap2\n      swap1\n      tag_243\n      swap1\n      tag_164\n      jump\t// in\n    tag_243:\n      swap2\n      swap1\n      pop\n      sstore\n      pop\n        /* \"crypto-core/contracts/TimeLockEnc.sol\":2142:2143  _ */\n      pop\n        /* \"crypto-core/contracts/TimeLockEnc.sol\":4055:4695  function sendTimeLockTransaction(uint256 decryptionTime, bytes memory g1r, bytes memory g2r, bytes[] memory alphas) public payable CommitteeInPlace(){... */\n      pop\n      pop\n      pop\n      pop\n      jump\t// out\n        /* \"crypto-core/contracts/TimeLockEnc.sol\":316:357  TimeLockTransaction[] public transactions */\n    tag_102:\n      0x04\n      dup2\n      dup2\n      sload\n      dup2\n      lt\n      tag_244\n      jumpi\n      0x00\n      dup1\n      revert\n    tag_244:\n      swap1\n      0x00\n      mstore\n      keccak256(0x00, 0x20)\n      swap1\n      0x03\n      mul\n      add\n      0x00\n      swap2\n      pop\n      swap1\n      pop\n      dup1\n      0x00\n      add\n      sload\n      swap1\n      dup1\n      0x01\n      add\n      sload\n      swap1\n      dup1\n      0x02\n      add\n      sload\n      swap1\n      pop\n      dup4\n      jump\t// out\n        /* \"crypto-core/contracts/TimeLockEnc.sol\":541:573  uint256 public committeeSize = 0 */\n    tag_107:\n      sload(0x08)\n      dup2\n      jump\t// out\n        /* \"crypto-core/contracts/TimeLockEnc.sol\":141:194  mapping(address => CommitteeMember) public publicKeys */\n    tag_113:\n      mstore(0x20, 0x01)\n      dup1\n      0x00\n      mstore\n      keccak256(0x00, 0x40)\n      0x00\n      swap2\n      pop\n      swap1\n      pop\n      dup1\n      0x00\n      add\n      dup1\n      sload\n      tag_246\n      swap1\n      tag_247\n      jump\t// in\n    tag_246:\n      dup1\n      0x1f\n      add\n      0x20\n      dup1\n      swap2\n      div\n      mul\n      0x20\n      add\n      mload(0x40)\n      swap1\n      dup2\n      add\n      0x40\n      mstore\n      dup1\n      swap3\n      swap2\n      swap1\n      dup2\n      dup2\n      mstore\n      0x20\n      add\n      dup3\n      dup1\n      sload\n      tag_248\n      swap1\n      tag_247\n      jump\t// in\n    tag_248:\n      dup1\n      iszero\n      tag_249\n      jumpi\n      dup1\n      0x1f\n      lt\n      tag_250\n      jumpi\n      0x0100\n      dup1\n      dup4\n      sload\n      div\n      mul\n      dup4\n      mstore\n      swap2\n      0x20\n      add\n      swap2\n      jump(tag_249)\n    tag_250:\n      dup3\n      add\n      swap2\n      swap1\n      0x00\n      mstore\n      keccak256(0x00, 0x20)\n      swap1\n    tag_251:\n      dup2\n      sload\n      dup2\n      mstore\n      swap1\n      0x01\n      add\n      swap1\n      0x20\n      add\n      dup1\n      dup4\n      gt\n      tag_251\n      jumpi\n      dup3\n      swap1\n      sub\n      0x1f\n      and\n      dup3\n      add\n      swap2\n    tag_249:\n      pop\n      pop\n      pop\n      pop\n      pop\n      swap1\n      dup1\n      0x01\n      add\n      sload\n      swap1\n      pop\n      dup3\n      jump\t// out\n        /* \"crypto-core/contracts/TimeLockEnc.sol\":91:135  mapping(uint256 => address) public committee */\n    tag_119:\n      mstore(0x20, 0x00)\n      dup1\n      0x00\n      mstore\n      keccak256(0x00, 0x40)\n      0x00\n      swap2\n      pop\n      sload\n      swap1\n      0x0100\n      exp\n      swap1\n      div\n      0xffffffffffffffffffffffffffffffffffffffff\n      and\n      dup2\n      jump\t// out\n        /* \"crypto-core/contracts/TimeLockEnc.sol\":406:472  mapping(uint256 => mapping(address => bool)) public shareSubmitted */\n    tag_125:\n      mstore(0x20, 0x06)\n      dup2\n      0x00\n      mstore\n      mstore(0x20, keccak256(0x00, 0x40))\n      dup1\n      0x00\n      mstore\n      keccak256(0x00, 0x40)\n      0x00\n      swap2\n      pop\n      swap2\n      pop\n      swap1\n      sload\n      swap1\n      0x0100\n      exp\n      swap1\n      div\n      0xff\n      and\n      dup2\n      jump\t// out\n        /* \"crypto-core/contracts/TimeLockEnc.sol\":614:657  uint256 public GAS_ESTIMATION = 0.007 ether */\n    tag_130:\n      sload(0x0a)\n      dup2\n      jump\t// out\n        /* \"crypto-core/contracts/TimeLockEnc.sol\":3171:3481  function exitCommittee() public onlyCommittee {... */\n    tag_134:\n        /* \"crypto-core/contracts/TimeLockEnc.sol\":1849:1850  0 */\n      0x00\n        /* \"crypto-core/contracts/TimeLockEnc.sol\":1817:1827  publicKeys */\n      0x01\n        /* \"crypto-core/contracts/TimeLockEnc.sol\":1817:1839  publicKeys[msg.sender] */\n      0x00\n        /* \"crypto-core/contracts/TimeLockEnc.sol\":1828:1838  msg.sender */\n      caller\n        /* \"crypto-core/contracts/TimeLockEnc.sol\":1817:1839  publicKeys[msg.sender] */\n      0xffffffffffffffffffffffffffffffffffffffff\n      and\n      0xffffffffffffffffffffffffffffffffffffffff\n      and\n      dup2\n      mstore\n      0x20\n      add\n      swap1\n      dup2\n      mstore\n      0x20\n      add\n      0x00\n      keccak256\n        /* \"crypto-core/contracts/TimeLockEnc.sol\":1817:1845  publicKeys[msg.sender].index */\n      0x01\n      add\n      sload\n        /* \"crypto-core/contracts/TimeLockEnc.sol\":1817:1850  publicKeys[msg.sender].index != 0 */\n      eq\n      iszero\n        /* \"crypto-core/contracts/TimeLockEnc.sol\":1809:1887  require(publicKeys[msg.sender].index != 0, \"Caller is not a committee member\") */\n      tag_253\n      jumpi\n      mload(0x40)\n      0x08c379a000000000000000000000000000000000000000000000000000000000\n      dup2\n      mstore\n      0x04\n      add\n      tag_254\n      swap1\n      tag_151\n      jump\t// in\n    tag_254:\n      mload(0x40)\n      dup1\n      swap2\n      sub\n      swap1\n      revert\n    tag_253:\n        /* \"crypto-core/contracts/TimeLockEnc.sol\":3227:3241  bool allowExit */\n      0x00\n        /* \"crypto-core/contracts/TimeLockEnc.sol\":3244:3248  true */\n      0x01\n        /* \"crypto-core/contracts/TimeLockEnc.sol\":3227:3248  bool allowExit = true */\n      swap1\n      pop\n        /* \"crypto-core/contracts/TimeLockEnc.sol\":3315:3324  allowExit */\n      dup1\n        /* \"crypto-core/contracts/TimeLockEnc.sol\":3307:3398  require(allowExit, \"You still have tasks, please finish existing tasks or delegate tasks.\") */\n      tag_256\n      jumpi\n      mload(0x40)\n      0x08c379a000000000000000000000000000000000000000000000000000000000\n      dup2\n      mstore\n      0x04\n      add\n      tag_257\n      swap1\n      tag_258\n      jump\t// in\n    tag_257:\n      mload(0x40)\n      dup1\n      swap2\n      sub\n      swap1\n      revert\n    tag_256:\n        /* \"crypto-core/contracts/TimeLockEnc.sol\":3408:3439  removeFromCommittee(msg.sender) */\n      tag_259\n        /* \"crypto-core/contracts/TimeLockEnc.sol\":3428:3438  msg.sender */\n      caller\n        /* \"crypto-core/contracts/TimeLockEnc.sol\":3408:3427  removeFromCommittee */\n      tag_260\n        /* \"crypto-core/contracts/TimeLockEnc.sol\":3408:3439  removeFromCommittee(msg.sender) */\n      jump\t// in\n    tag_259:\n        /* \"crypto-core/contracts/TimeLockEnc.sol\":3449:3474  returnDeposit(msg.sender) */\n      tag_261\n        /* \"crypto-core/contracts/TimeLockEnc.sol\":3463:3473  msg.sender */\n      caller\n        /* \"crypto-core/contracts/TimeLockEnc.sol\":3449:3462  returnDeposit */\n      tag_262\n        /* \"crypto-core/contracts/TimeLockEnc.sol\":3449:3474  returnDeposit(msg.sender) */\n      jump\t// in\n    tag_261:\n        /* \"crypto-core/contracts/TimeLockEnc.sol\":1897:1898  _ */\n      pop\n        /* \"crypto-core/contracts/TimeLockEnc.sol\":3171:3481  function exitCommittee() public onlyCommittee {... */\n      jump\t// out\n        /* \"crypto-core/contracts/TimeLockEnc.sol\":5645:7628  function disputeShare(uint256 transactionID, uint256 member_index) public onlyCommittee { // an agent calims a share was invalid... */\n    tag_138:\n        /* \"crypto-core/contracts/TimeLockEnc.sol\":1849:1850  0 */\n      0x00\n        /* \"crypto-core/contracts/TimeLockEnc.sol\":1817:1827  publicKeys */\n      0x01\n        /* \"crypto-core/contracts/TimeLockEnc.sol\":1817:1839  publicKeys[msg.sender] */\n      0x00\n        /* \"crypto-core/contracts/TimeLockEnc.sol\":1828:1838  msg.sender */\n      caller\n        /* \"crypto-core/contracts/TimeLockEnc.sol\":1817:1839  publicKeys[msg.sender] */\n      0xffffffffffffffffffffffffffffffffffffffff\n      and\n      0xffffffffffffffffffffffffffffffffffffffff\n      and\n      dup2\n      mstore\n      0x20\n      add\n      swap1\n      dup2\n      mstore\n      0x20\n      add\n      0x00\n      keccak256\n        /* \"crypto-core/contracts/TimeLockEnc.sol\":1817:1845  publicKeys[msg.sender].index */\n      0x01\n      add\n      sload\n        /* \"crypto-core/contracts/TimeLockEnc.sol\":1817:1850  publicKeys[msg.sender].index != 0 */\n      eq\n      iszero\n        /* \"crypto-core/contracts/TimeLockEnc.sol\":1809:1887  require(publicKeys[msg.sender].index != 0, \"Caller is not a committee member\") */\n      tag_264\n      jumpi\n      mload(0x40)\n      0x08c379a000000000000000000000000000000000000000000000000000000000\n      dup2\n      mstore\n      0x04\n      add\n      tag_265\n      swap1\n      tag_151\n      jump\t// in\n    tag_265:\n      mload(0x40)\n      dup1\n      swap2\n      sub\n      swap1\n      revert\n    tag_264:\n        /* \"crypto-core/contracts/TimeLockEnc.sol\":5806:5818  transactions */\n      0x04\n        /* \"crypto-core/contracts/TimeLockEnc.sol\":5806:5825  transactions.length */\n      dup1\n      sload\n      swap1\n      pop\n        /* \"crypto-core/contracts/TimeLockEnc.sol\":5790:5803  transactionID */\n      dup3\n        /* \"crypto-core/contracts/TimeLockEnc.sol\":5790:5825  transactionID < transactions.length */\n      lt\n        /* \"crypto-core/contracts/TimeLockEnc.sol\":5782:5852  require(transactionID < transactions.length, \"Invalid transaction ID\") */\n      tag_267\n      jumpi\n      mload(0x40)\n      0x08c379a000000000000000000000000000000000000000000000000000000000\n      dup2\n      mstore\n      0x04\n      add\n      tag_268\n      swap1\n      tag_269\n      jump\t// in\n    tag_268:\n      mload(0x40)\n      dup1\n      swap2\n      sub\n      swap1\n      revert\n    tag_267:\n        /* \"crypto-core/contracts/TimeLockEnc.sol\":5905:5906  0 */\n      0x00\n        /* \"crypto-core/contracts/TimeLockEnc.sol\":5870:5907  committee[member_index] != address(0) */\n      0xffffffffffffffffffffffffffffffffffffffff\n      and\n        /* \"crypto-core/contracts/TimeLockEnc.sol\":5870:5879  committee */\n      0x00\n        /* \"crypto-core/contracts/TimeLockEnc.sol\":5870:5893  committee[member_index] */\n      dup1\n        /* \"crypto-core/contracts/TimeLockEnc.sol\":5880:5892  member_index */\n      dup4\n        /* \"crypto-core/contracts/TimeLockEnc.sol\":5870:5893  committee[member_index] */\n      dup2\n      mstore\n      0x20\n      add\n      swap1\n      dup2\n      mstore\n      0x20\n      add\n      0x00\n      keccak256\n      0x00\n      swap1\n      sload\n      swap1\n      0x0100\n      exp\n      swap1\n      div\n      0xffffffffffffffffffffffffffffffffffffffff\n      and\n        /* \"crypto-core/contracts/TimeLockEnc.sol\":5870:5907  committee[member_index] != address(0) */\n      0xffffffffffffffffffffffffffffffffffffffff\n      and\n      eq\n      iszero\n        /* \"crypto-core/contracts/TimeLockEnc.sol\":5862:5951  require(committee[member_index] != address(0), \"Disputed member is not in the committee\") */\n      tag_270\n      jumpi\n      mload(0x40)\n      0x08c379a000000000000000000000000000000000000000000000000000000000\n      dup2\n      mstore\n      0x04\n      add\n      tag_271\n      swap1\n      tag_272\n      jump\t// in\n    tag_271:\n      mload(0x40)\n      dup1\n      swap2\n      sub\n      swap1\n      revert\n    tag_270:\n        /* \"crypto-core/contracts/TimeLockEnc.sol\":6051:6060  uint256 i */\n      0x00\n        /* \"crypto-core/contracts/TimeLockEnc.sol\":6046:6385  for (uint256 i = 0; i < disputedShares[transactionID].length; i++) {... */\n    tag_273:\n        /* \"crypto-core/contracts/TimeLockEnc.sol\":6070:6084  disputedShares */\n      0x07\n        /* \"crypto-core/contracts/TimeLockEnc.sol\":6070:6099  disputedShares[transactionID] */\n      0x00\n        /* \"crypto-core/contracts/TimeLockEnc.sol\":6085:6098  transactionID */\n      dup5\n        /* \"crypto-core/contracts/TimeLockEnc.sol\":6070:6099  disputedShares[transactionID] */\n      dup2\n      mstore\n      0x20\n      add\n      swap1\n      dup2\n      mstore\n      0x20\n      add\n      0x00\n      keccak256\n        /* \"crypto-core/contracts/TimeLockEnc.sol\":6070:6106  disputedShares[transactionID].length */\n      dup1\n      sload\n      swap1\n      pop\n        /* \"crypto-core/contracts/TimeLockEnc.sol\":6066:6067  i */\n      dup2\n        /* \"crypto-core/contracts/TimeLockEnc.sol\":6066:6106  i < disputedShares[transactionID].length */\n      lt\n        /* \"crypto-core/contracts/TimeLockEnc.sol\":6046:6385  for (uint256 i = 0; i < disputedShares[transactionID].length; i++) {... */\n      iszero\n      tag_274\n      jumpi\n        /* \"crypto-core/contracts/TimeLockEnc.sol\":6199:6209  msg.sender */\n      caller\n        /* \"crypto-core/contracts/TimeLockEnc.sol\":6154:6209  disputedShares[transactionID][i].reporter == msg.sender */\n      0xffffffffffffffffffffffffffffffffffffffff\n      and\n        /* \"crypto-core/contracts/TimeLockEnc.sol\":6154:6168  disputedShares */\n      0x07\n        /* \"crypto-core/contracts/TimeLockEnc.sol\":6154:6183  disputedShares[transactionID] */\n      0x00\n        /* \"crypto-core/contracts/TimeLockEnc.sol\":6169:6182  transactionID */\n      dup6\n        /* \"crypto-core/contracts/TimeLockEnc.sol\":6154:6183  disputedShares[transactionID] */\n      dup2\n      mstore\n      0x20\n      add\n      swap1\n      dup2\n      mstore\n      0x20\n      add\n      0x00\n      keccak256\n        /* \"crypto-core/contracts/TimeLockEnc.sol\":6184:6185  i */\n      dup3\n        /* \"crypto-core/contracts/TimeLockEnc.sol\":6154:6186  disputedShares[transactionID][i] */\n      dup2\n      sload\n      dup2\n      lt\n      tag_276\n      jumpi\n      mstore(0x00, 0x4e487b7100000000000000000000000000000000000000000000000000000000)\n      mstore(0x04, 0x32)\n      revert(0x00, 0x24)\n    tag_276:\n      swap1\n      0x00\n      mstore\n      keccak256(0x00, 0x20)\n      swap1\n      0x02\n      mul\n      add\n        /* \"crypto-core/contracts/TimeLockEnc.sol\":6154:6195  disputedShares[transactionID][i].reporter */\n      0x00\n      add\n      0x00\n      swap1\n      sload\n      swap1\n      0x0100\n      exp\n      swap1\n      div\n      0xffffffffffffffffffffffffffffffffffffffff\n      and\n        /* \"crypto-core/contracts/TimeLockEnc.sol\":6154:6209  disputedShares[transactionID][i].reporter == msg.sender */\n      0xffffffffffffffffffffffffffffffffffffffff\n      and\n      eq\n        /* \"crypto-core/contracts/TimeLockEnc.sol\":6154:6279  disputedShares[transactionID][i].reporter == msg.sender && disputedShares[transactionID][i].member == committee[member_index] */\n      dup1\n      iszero\n      tag_278\n      jumpi\n      pop\n        /* \"crypto-core/contracts/TimeLockEnc.sol\":6256:6265  committee */\n      0x00\n        /* \"crypto-core/contracts/TimeLockEnc.sol\":6256:6279  committee[member_index] */\n      dup1\n        /* \"crypto-core/contracts/TimeLockEnc.sol\":6266:6278  member_index */\n      dup4\n        /* \"crypto-core/contracts/TimeLockEnc.sol\":6256:6279  committee[member_index] */\n      dup2\n      mstore\n      0x20\n      add\n      swap1\n      dup2\n      mstore\n      0x20\n      add\n      0x00\n      keccak256\n      0x00\n      swap1\n      sload\n      swap1\n      0x0100\n      exp\n      swap1\n      div\n      0xffffffffffffffffffffffffffffffffffffffff\n      and\n        /* \"crypto-core/contracts/TimeLockEnc.sol\":6213:6279  disputedShares[transactionID][i].member == committee[member_index] */\n      0xffffffffffffffffffffffffffffffffffffffff\n      and\n        /* \"crypto-core/contracts/TimeLockEnc.sol\":6213:6227  disputedShares */\n      0x07\n        /* \"crypto-core/contracts/TimeLockEnc.sol\":6213:6242  disputedShares[transactionID] */\n      0x00\n        /* \"crypto-core/contracts/TimeLockEnc.sol\":6228:6241  transactionID */\n      dup6\n        /* \"crypto-core/contracts/TimeLockEnc.sol\":6213:6242  disputedShares[transactionID] */\n      dup2\n      mstore\n      0x20\n      add\n      swap1\n      dup2\n      mstore\n      0x20\n      add\n      0x00\n      keccak256\n        /* \"crypto-core/contracts/TimeLockEnc.sol\":6243:6244  i */\n      dup3\n        /* \"crypto-core/contracts/TimeLockEnc.sol\":6213:6245  disputedShares[transactionID][i] */\n      dup2\n      sload\n      dup2\n      lt\n      tag_279\n      jumpi\n      mstore(0x00, 0x4e487b7100000000000000000000000000000000000000000000000000000000)\n      mstore(0x04, 0x32)\n      revert(0x00, 0x24)\n    tag_279:\n      swap1\n      0x00\n      mstore\n      keccak256(0x00, 0x20)\n      swap1\n      0x02\n      mul\n      add\n        /* \"crypto-core/contracts/TimeLockEnc.sol\":6213:6252  disputedShares[transactionID][i].member */\n      0x01\n      add\n      0x00\n      swap1\n      sload\n      swap1\n      0x0100\n      exp\n      swap1\n      div\n      0xffffffffffffffffffffffffffffffffffffffff\n      and\n        /* \"crypto-core/contracts/TimeLockEnc.sol\":6213:6279  disputedShares[transactionID][i].member == committee[member_index] */\n      0xffffffffffffffffffffffffffffffffffffffff\n      and\n      eq\n        /* \"crypto-core/contracts/TimeLockEnc.sol\":6154:6279  disputedShares[transactionID][i].reporter == msg.sender && disputedShares[transactionID][i].member == committee[member_index] */\n    tag_278:\n        /* \"crypto-core/contracts/TimeLockEnc.sol\":6152:6280  !(disputedShares[transactionID][i].reporter == msg.sender && disputedShares[transactionID][i].member == committee[member_index]) */\n      iszero\n        /* \"crypto-core/contracts/TimeLockEnc.sol\":6127:6374  require(... */\n      tag_281\n      jumpi\n      mload(0x40)\n      0x08c379a000000000000000000000000000000000000000000000000000000000\n      dup2\n      mstore\n      0x04\n      add\n      tag_282\n      swap1\n      tag_283\n      jump\t// in\n    tag_282:\n      mload(0x40)\n      dup1\n      swap2\n      sub\n      swap1\n      revert\n    tag_281:\n        /* \"crypto-core/contracts/TimeLockEnc.sol\":6108:6111  i++ */\n      dup1\n      dup1\n      tag_284\n      swap1\n      tag_164\n      jump\t// in\n    tag_284:\n      swap2\n      pop\n      pop\n        /* \"crypto-core/contracts/TimeLockEnc.sol\":6046:6385  for (uint256 i = 0; i < disputedShares[transactionID].length; i++) {... */\n      jump(tag_273)\n    tag_274:\n      pop\n        /* \"crypto-core/contracts/TimeLockEnc.sol\":6395:6409  disputedShares */\n      0x07\n        /* \"crypto-core/contracts/TimeLockEnc.sol\":6395:6424  disputedShares[transactionID] */\n      0x00\n        /* \"crypto-core/contracts/TimeLockEnc.sol\":6410:6423  transactionID */\n      dup4\n        /* \"crypto-core/contracts/TimeLockEnc.sol\":6395:6424  disputedShares[transactionID] */\n      dup2\n      mstore\n      0x20\n      add\n      swap1\n      dup2\n      mstore\n      0x20\n      add\n      0x00\n      keccak256\n        /* \"crypto-core/contracts/TimeLockEnc.sol\":6430:6480  DisputedShare(msg.sender, committee[member_index]) */\n      mload(0x40)\n      dup1\n      0x40\n      add\n      0x40\n      mstore\n      dup1\n        /* \"crypto-core/contracts/TimeLockEnc.sol\":6444:6454  msg.sender */\n      caller\n        /* \"crypto-core/contracts/TimeLockEnc.sol\":6430:6480  DisputedShare(msg.sender, committee[member_index]) */\n      0xffffffffffffffffffffffffffffffffffffffff\n      and\n      dup2\n      mstore\n      0x20\n      add\n        /* \"crypto-core/contracts/TimeLockEnc.sol\":6456:6465  committee */\n      0x00\n        /* \"crypto-core/contracts/TimeLockEnc.sol\":6456:6479  committee[member_index] */\n      dup1\n        /* \"crypto-core/contracts/TimeLockEnc.sol\":6466:6478  member_index */\n      dup6\n        /* \"crypto-core/contracts/TimeLockEnc.sol\":6456:6479  committee[member_index] */\n      dup2\n      mstore\n      0x20\n      add\n      swap1\n      dup2\n      mstore\n      0x20\n      add\n      0x00\n      keccak256\n      0x00\n      swap1\n      sload\n      swap1\n      0x0100\n      exp\n      swap1\n      div\n      0xffffffffffffffffffffffffffffffffffffffff\n      and\n        /* \"crypto-core/contracts/TimeLockEnc.sol\":6430:6480  DisputedShare(msg.sender, committee[member_index]) */\n      0xffffffffffffffffffffffffffffffffffffffff\n      and\n      dup2\n      mstore\n      pop\n        /* \"crypto-core/contracts/TimeLockEnc.sol\":6395:6481  disputedShares[transactionID].push(DisputedShare(msg.sender, committee[member_index])) */\n      swap1\n      dup1\n      0x01\n      dup2\n      sload\n      add\n      dup1\n      dup3\n      sstore\n      dup1\n      swap2\n      pop\n      pop\n      0x01\n      swap1\n      sub\n      swap1\n      0x00\n      mstore\n      keccak256(0x00, 0x20)\n      swap1\n      0x02\n      mul\n      add\n      0x00\n      swap1\n      swap2\n      swap1\n      swap2\n      swap1\n      swap2\n      pop\n      0x00\n      dup3\n      add\n      mload\n      dup2\n      0x00\n      add\n      exp(0x0100, 0x00)\n      dup2\n      sload\n      dup2\n      0xffffffffffffffffffffffffffffffffffffffff\n      mul\n      not\n      and\n      swap1\n      dup4\n      0xffffffffffffffffffffffffffffffffffffffff\n      and\n      mul\n      or\n      swap1\n      sstore\n      pop\n      0x20\n      dup3\n      add\n      mload\n      dup2\n      0x01\n      add\n      exp(0x0100, 0x00)\n      dup2\n      sload\n      dup2\n      0xffffffffffffffffffffffffffffffffffffffff\n      mul\n      not\n      and\n      swap1\n      dup4\n      0xffffffffffffffffffffffffffffffffffffffff\n      and\n      mul\n      or\n      swap1\n      sstore\n      pop\n      pop\n      pop\n        /* \"crypto-core/contracts/TimeLockEnc.sol\":6492:6512  uint256 disputeCount */\n      0x00\n        /* \"crypto-core/contracts/TimeLockEnc.sol\":6589:6598  uint256 i */\n      dup1\n        /* \"crypto-core/contracts/TimeLockEnc.sol\":6584:6794  for (uint256 i = 0; i < disputedShares[transactionID].length; i++) {... */\n    tag_286:\n        /* \"crypto-core/contracts/TimeLockEnc.sol\":6608:6622  disputedShares */\n      0x07\n        /* \"crypto-core/contracts/TimeLockEnc.sol\":6608:6637  disputedShares[transactionID] */\n      0x00\n        /* \"crypto-core/contracts/TimeLockEnc.sol\":6623:6636  transactionID */\n      dup6\n        /* \"crypto-core/contracts/TimeLockEnc.sol\":6608:6637  disputedShares[transactionID] */\n      dup2\n      mstore\n      0x20\n      add\n      swap1\n      dup2\n      mstore\n      0x20\n      add\n      0x00\n      keccak256\n        /* \"crypto-core/contracts/TimeLockEnc.sol\":6608:6644  disputedShares[transactionID].length */\n      dup1\n      sload\n      swap1\n      pop\n        /* \"crypto-core/contracts/TimeLockEnc.sol\":6604:6605  i */\n      dup2\n        /* \"crypto-core/contracts/TimeLockEnc.sol\":6604:6644  i < disputedShares[transactionID].length */\n      lt\n        /* \"crypto-core/contracts/TimeLockEnc.sol\":6584:6794  for (uint256 i = 0; i < disputedShares[transactionID].length; i++) {... */\n      iszero\n      tag_287\n      jumpi\n        /* \"crypto-core/contracts/TimeLockEnc.sol\":6712:6721  committee */\n      0x00\n        /* \"crypto-core/contracts/TimeLockEnc.sol\":6712:6735  committee[member_index] */\n      dup1\n        /* \"crypto-core/contracts/TimeLockEnc.sol\":6722:6734  member_index */\n      dup5\n        /* \"crypto-core/contracts/TimeLockEnc.sol\":6712:6735  committee[member_index] */\n      dup2\n      mstore\n      0x20\n      add\n      swap1\n      dup2\n      mstore\n      0x20\n      add\n      0x00\n      keccak256\n      0x00\n      swap1\n      sload\n      swap1\n      0x0100\n      exp\n      swap1\n      div\n      0xffffffffffffffffffffffffffffffffffffffff\n      and\n        /* \"crypto-core/contracts/TimeLockEnc.sol\":6669:6735  disputedShares[transactionID][i].member == committee[member_index] */\n      0xffffffffffffffffffffffffffffffffffffffff\n      and\n        /* \"crypto-core/contracts/TimeLockEnc.sol\":6669:6683  disputedShares */\n      0x07\n        /* \"crypto-core/contracts/TimeLockEnc.sol\":6669:6698  disputedShares[transactionID] */\n      0x00\n        /* \"crypto-core/contracts/TimeLockEnc.sol\":6684:6697  transactionID */\n      dup7\n        /* \"crypto-core/contracts/TimeLockEnc.sol\":6669:6698  disputedShares[transactionID] */\n      dup2\n      mstore\n      0x20\n      add\n      swap1\n      dup2\n      mstore\n      0x20\n      add\n      0x00\n      keccak256\n        /* \"crypto-core/contracts/TimeLockEnc.sol\":6699:6700  i */\n      dup3\n        /* \"crypto-core/contracts/TimeLockEnc.sol\":6669:6701  disputedShares[transactionID][i] */\n      dup2\n      sload\n      dup2\n      lt\n      tag_289\n      jumpi\n      mstore(0x00, 0x4e487b7100000000000000000000000000000000000000000000000000000000)\n      mstore(0x04, 0x32)\n      revert(0x00, 0x24)\n    tag_289:\n      swap1\n      0x00\n      mstore\n      keccak256(0x00, 0x20)\n      swap1\n      0x02\n      mul\n      add\n        /* \"crypto-core/contracts/TimeLockEnc.sol\":6669:6708  disputedShares[transactionID][i].member */\n      0x01\n      add\n      0x00\n      swap1\n      sload\n      swap1\n      0x0100\n      exp\n      swap1\n      div\n      0xffffffffffffffffffffffffffffffffffffffff\n      and\n        /* \"crypto-core/contracts/TimeLockEnc.sol\":6669:6735  disputedShares[transactionID][i].member == committee[member_index] */\n      0xffffffffffffffffffffffffffffffffffffffff\n      and\n      eq\n        /* \"crypto-core/contracts/TimeLockEnc.sol\":6665:6784  if (disputedShares[transactionID][i].member == committee[member_index]) {... */\n      iszero\n      tag_291\n      jumpi\n        /* \"crypto-core/contracts/TimeLockEnc.sol\":6755:6769  disputeCount++ */\n      dup2\n      dup1\n      tag_292\n      swap1\n      tag_164\n      jump\t// in\n    tag_292:\n      swap3\n      pop\n      pop\n        /* \"crypto-core/contracts/TimeLockEnc.sol\":6665:6784  if (disputedShares[transactionID][i].member == committee[member_index]) {... */\n    tag_291:\n        /* \"crypto-core/contracts/TimeLockEnc.sol\":6646:6649  i++ */\n      dup1\n      dup1\n      tag_293\n      swap1\n      tag_164\n      jump\t// in\n    tag_293:\n      swap2\n      pop\n      pop\n        /* \"crypto-core/contracts/TimeLockEnc.sol\":6584:6794  for (uint256 i = 0; i < disputedShares[transactionID].length; i++) {... */\n      jump(tag_286)\n    tag_287:\n      pop\n        /* \"crypto-core/contracts/TimeLockEnc.sol\":945:946  2 */\n      0x02\n        /* \"crypto-core/contracts/TimeLockEnc.sol\":6808:6820  disputeCount */\n      dup2\n        /* \"crypto-core/contracts/TimeLockEnc.sol\":6808:6833  disputeCount >= THRESHOLD */\n      lt\n        /* \"crypto-core/contracts/TimeLockEnc.sol\":6804:7622  if (disputeCount >= THRESHOLD) { // if more than T holders disputed this holders shares penalize the holder... */\n      tag_294\n      jumpi\n        /* \"crypto-core/contracts/TimeLockEnc.sol\":6962:7006  removeFromCommittee(committee[member_index]) */\n      tag_295\n        /* \"crypto-core/contracts/TimeLockEnc.sol\":6982:6991  committee */\n      0x00\n        /* \"crypto-core/contracts/TimeLockEnc.sol\":6982:7005  committee[member_index] */\n      dup1\n        /* \"crypto-core/contracts/TimeLockEnc.sol\":6992:7004  member_index */\n      dup5\n        /* \"crypto-core/contracts/TimeLockEnc.sol\":6982:7005  committee[member_index] */\n      dup2\n      mstore\n      0x20\n      add\n      swap1\n      dup2\n      mstore\n      0x20\n      add\n      0x00\n      keccak256\n      0x00\n      swap1\n      sload\n      swap1\n      0x0100\n      exp\n      swap1\n      div\n      0xffffffffffffffffffffffffffffffffffffffff\n      and\n        /* \"crypto-core/contracts/TimeLockEnc.sol\":6962:6981  removeFromCommittee */\n      tag_260\n        /* \"crypto-core/contracts/TimeLockEnc.sol\":6962:7006  removeFromCommittee(committee[member_index]) */\n      jump\t// in\n    tag_295:\n        /* \"crypto-core/contracts/TimeLockEnc.sol\":7062:7071  uint256 i */\n      0x00\n        /* \"crypto-core/contracts/TimeLockEnc.sol\":7057:7525  for (uint256 i = 0; i < disputedShares[transactionID].length; i++) {... */\n    tag_296:\n        /* \"crypto-core/contracts/TimeLockEnc.sol\":7081:7095  disputedShares */\n      0x07\n        /* \"crypto-core/contracts/TimeLockEnc.sol\":7081:7110  disputedShares[transactionID] */\n      0x00\n        /* \"crypto-core/contracts/TimeLockEnc.sol\":7096:7109  transactionID */\n      dup6\n        /* \"crypto-core/contracts/TimeLockEnc.sol\":7081:7110  disputedShares[transactionID] */\n      dup2\n      mstore\n      0x20\n      add\n      swap1\n      dup2\n      mstore\n      0x20\n      add\n      0x00\n      keccak256\n        /* \"crypto-core/contracts/TimeLockEnc.sol\":7081:7117  disputedShares[transactionID].length */\n      dup1\n      sload\n      swap1\n      pop\n        /* \"crypto-core/contracts/TimeLockEnc.sol\":7077:7078  i */\n      dup2\n        /* \"crypto-core/contracts/TimeLockEnc.sol\":7077:7117  i < disputedShares[transactionID].length */\n      lt\n        /* \"crypto-core/contracts/TimeLockEnc.sol\":7057:7525  for (uint256 i = 0; i < disputedShares[transactionID].length; i++) {... */\n      iszero\n      tag_297\n      jumpi\n        /* \"crypto-core/contracts/TimeLockEnc.sol\":7189:7198  committee */\n      0x00\n        /* \"crypto-core/contracts/TimeLockEnc.sol\":7189:7212  committee[member_index] */\n      dup1\n        /* \"crypto-core/contracts/TimeLockEnc.sol\":7199:7211  member_index */\n      dup5\n        /* \"crypto-core/contracts/TimeLockEnc.sol\":7189:7212  committee[member_index] */\n      dup2\n      mstore\n      0x20\n      add\n      swap1\n      dup2\n      mstore\n      0x20\n      add\n      0x00\n      keccak256\n      0x00\n      swap1\n      sload\n      swap1\n      0x0100\n      exp\n      swap1\n      div\n      0xffffffffffffffffffffffffffffffffffffffff\n      and\n        /* \"crypto-core/contracts/TimeLockEnc.sol\":7146:7212  disputedShares[transactionID][i].member == committee[member_index] */\n      0xffffffffffffffffffffffffffffffffffffffff\n      and\n        /* \"crypto-core/contracts/TimeLockEnc.sol\":7146:7160  disputedShares */\n      0x07\n        /* \"crypto-core/contracts/TimeLockEnc.sol\":7146:7175  disputedShares[transactionID] */\n      0x00\n        /* \"crypto-core/contracts/TimeLockEnc.sol\":7161:7174  transactionID */\n      dup7\n        /* \"crypto-core/contracts/TimeLockEnc.sol\":7146:7175  disputedShares[transactionID] */\n      dup2\n      mstore\n      0x20\n      add\n      swap1\n      dup2\n      mstore\n      0x20\n      add\n      0x00\n      keccak256\n        /* \"crypto-core/contracts/TimeLockEnc.sol\":7176:7177  i */\n      dup3\n        /* \"crypto-core/contracts/TimeLockEnc.sol\":7146:7178  disputedShares[transactionID][i] */\n      dup2\n      sload\n      dup2\n      lt\n      tag_299\n      jumpi\n      mstore(0x00, 0x4e487b7100000000000000000000000000000000000000000000000000000000)\n      mstore(0x04, 0x32)\n      revert(0x00, 0x24)\n    tag_299:\n      swap1\n      0x00\n      mstore\n      keccak256(0x00, 0x20)\n      swap1\n      0x02\n      mul\n      add\n        /* \"crypto-core/contracts/TimeLockEnc.sol\":7146:7185  disputedShares[transactionID][i].member */\n      0x01\n      add\n      0x00\n      swap1\n      sload\n      swap1\n      0x0100\n      exp\n      swap1\n      div\n      0xffffffffffffffffffffffffffffffffffffffff\n      and\n        /* \"crypto-core/contracts/TimeLockEnc.sol\":7146:7212  disputedShares[transactionID][i].member == committee[member_index] */\n      0xffffffffffffffffffffffffffffffffffffffff\n      and\n      eq\n        /* \"crypto-core/contracts/TimeLockEnc.sol\":7142:7511  if (disputedShares[transactionID][i].member == committee[member_index]) {... */\n      iszero\n      tag_301\n      jumpi\n        /* \"crypto-core/contracts/TimeLockEnc.sol\":7362:7380  uncollectedRewards */\n      0x02\n        /* \"crypto-core/contracts/TimeLockEnc.sol\":7362:7423  uncollectedRewards[disputedShares[transactionID][i].reporter] */\n      0x00\n        /* \"crypto-core/contracts/TimeLockEnc.sol\":7381:7395  disputedShares */\n      0x07\n        /* \"crypto-core/contracts/TimeLockEnc.sol\":7381:7410  disputedShares[transactionID] */\n      0x00\n        /* \"crypto-core/contracts/TimeLockEnc.sol\":7396:7409  transactionID */\n      dup8\n        /* \"crypto-core/contracts/TimeLockEnc.sol\":7381:7410  disputedShares[transactionID] */\n      dup2\n      mstore\n      0x20\n      add\n      swap1\n      dup2\n      mstore\n      0x20\n      add\n      0x00\n      keccak256\n        /* \"crypto-core/contracts/TimeLockEnc.sol\":7411:7412  i */\n      dup4\n        /* \"crypto-core/contracts/TimeLockEnc.sol\":7381:7413  disputedShares[transactionID][i] */\n      dup2\n      sload\n      dup2\n      lt\n      tag_302\n      jumpi\n      mstore(0x00, 0x4e487b7100000000000000000000000000000000000000000000000000000000)\n      mstore(0x04, 0x32)\n      revert(0x00, 0x24)\n    tag_302:\n      swap1\n      0x00\n      mstore\n      keccak256(0x00, 0x20)\n      swap1\n      0x02\n      mul\n      add\n        /* \"crypto-core/contracts/TimeLockEnc.sol\":7381:7422  disputedShares[transactionID][i].reporter */\n      0x00\n      add\n      0x00\n      swap1\n      sload\n      swap1\n      0x0100\n      exp\n      swap1\n      div\n      0xffffffffffffffffffffffffffffffffffffffff\n      and\n        /* \"crypto-core/contracts/TimeLockEnc.sol\":7362:7423  uncollectedRewards[disputedShares[transactionID][i].reporter] */\n      0xffffffffffffffffffffffffffffffffffffffff\n      and\n      0xffffffffffffffffffffffffffffffffffffffff\n      and\n      dup2\n      mstore\n      0x20\n      add\n      swap1\n      dup2\n      mstore\n      0x20\n      add\n      0x00\n      keccak256\n        /* \"crypto-core/contracts/TimeLockEnc.sol\":7429:7491  RewardRecord(block.timestamp, (FIXED_REWARD + GAS_ESTIMATION)) */\n      mload(0x40)\n      dup1\n      0x40\n      add\n      0x40\n      mstore\n      dup1\n        /* \"crypto-core/contracts/TimeLockEnc.sol\":7442:7457  block.timestamp */\n      timestamp\n        /* \"crypto-core/contracts/TimeLockEnc.sol\":7429:7491  RewardRecord(block.timestamp, (FIXED_REWARD + GAS_ESTIMATION)) */\n      dup2\n      mstore\n      0x20\n      add\n        /* \"crypto-core/contracts/TimeLockEnc.sol\":7475:7489  GAS_ESTIMATION */\n      sload(0x0a)\n        /* \"crypto-core/contracts/TimeLockEnc.sol\":991:1004  0.00022 ether */\n      0xc816bdd9c000\n        /* \"crypto-core/contracts/TimeLockEnc.sol\":7460:7489  FIXED_REWARD + GAS_ESTIMATION */\n      tag_304\n      swap2\n      swap1\n      tag_169\n      jump\t// in\n    tag_304:\n        /* \"crypto-core/contracts/TimeLockEnc.sol\":7429:7491  RewardRecord(block.timestamp, (FIXED_REWARD + GAS_ESTIMATION)) */\n      dup2\n      mstore\n      pop\n        /* \"crypto-core/contracts/TimeLockEnc.sol\":7362:7492  uncollectedRewards[disputedShares[transactionID][i].reporter].push(RewardRecord(block.timestamp, (FIXED_REWARD + GAS_ESTIMATION))) */\n      swap1\n      dup1\n      0x01\n      dup2\n      sload\n      add\n      dup1\n      dup3\n      sstore\n      dup1\n      swap2\n      pop\n      pop\n      0x01\n      swap1\n      sub\n      swap1\n      0x00\n      mstore\n      keccak256(0x00, 0x20)\n      swap1\n      0x02\n      mul\n      add\n      0x00\n      swap1\n      swap2\n      swap1\n      swap2\n      swap1\n      swap2\n      pop\n      0x00\n      dup3\n      add\n      mload\n      dup2\n      0x00\n      add\n      sstore\n      0x20\n      dup3\n      add\n      mload\n      dup2\n      0x01\n      add\n      sstore\n      pop\n      pop\n        /* \"crypto-core/contracts/TimeLockEnc.sol\":7142:7511  if (disputedShares[transactionID][i].member == committee[member_index]) {... */\n    tag_301:\n        /* \"crypto-core/contracts/TimeLockEnc.sol\":7119:7122  i++ */\n      dup1\n      dup1\n      tag_306\n      swap1\n      tag_164\n      jump\t// in\n    tag_306:\n      swap2\n      pop\n      pop\n        /* \"crypto-core/contracts/TimeLockEnc.sol\":7057:7525  for (uint256 i = 0; i < disputedShares[transactionID].length; i++) {... */\n      jump(tag_296)\n    tag_297:\n      pop\n        /* \"crypto-core/contracts/TimeLockEnc.sol\":7567:7579  transactions */\n      0x04\n        /* \"crypto-core/contracts/TimeLockEnc.sol\":7580:7593  transactionID */\n      dup4\n        /* \"crypto-core/contracts/TimeLockEnc.sol\":7567:7594  transactions[transactionID] */\n      dup2\n      sload\n      dup2\n      lt\n      tag_307\n      jumpi\n      mstore(0x00, 0x4e487b7100000000000000000000000000000000000000000000000000000000)\n      mstore(0x04, 0x32)\n      revert(0x00, 0x24)\n    tag_307:\n      swap1\n      0x00\n      mstore\n      keccak256(0x00, 0x20)\n      swap1\n      0x03\n      mul\n      add\n        /* \"crypto-core/contracts/TimeLockEnc.sol\":7567:7609  transactions[transactionID].sharesReceived */\n      0x02\n      add\n      0x00\n        /* \"crypto-core/contracts/TimeLockEnc.sol\":7567:7611  transactions[transactionID].sharesReceived-- */\n      dup2\n      sload\n      dup1\n      swap3\n      swap2\n      swap1\n      tag_309\n      swap1\n      tag_310\n      jump\t// in\n    tag_309:\n      swap2\n      swap1\n      pop\n      sstore\n      pop\n        /* \"crypto-core/contracts/TimeLockEnc.sol\":6804:7622  if (disputeCount >= THRESHOLD) { // if more than T holders disputed this holders shares penalize the holder... */\n    tag_294:\n        /* \"crypto-core/contracts/TimeLockEnc.sol\":1897:1898  _ */\n      pop\n        /* \"crypto-core/contracts/TimeLockEnc.sol\":5645:7628  function disputeShare(uint256 transactionID, uint256 member_index) public onlyCommittee { // an agent calims a share was invalid... */\n      pop\n      pop\n      jump\t// out\n        /* \"crypto-core/contracts/TimeLockEnc.sol\":803:851  uint256 public constant DEPOSIT_AMOUNT = 1 ether */\n    tag_141:\n        /* \"crypto-core/contracts/TimeLockEnc.sol\":844:851  1 ether */\n      0x0de0b6b3a7640000\n        /* \"crypto-core/contracts/TimeLockEnc.sol\":803:851  uint256 public constant DEPOSIT_AMOUNT = 1 ether */\n      dup2\n      jump\t// out\n        /* \"crypto-core/contracts/TimeLockEnc.sol\":3487:3719  function removeFromCommittee(address member) internal{... */\n    tag_260:\n        /* \"crypto-core/contracts/TimeLockEnc.sol\":3555:3593  memberExited(publicKeys[member].index) */\n      0x8e2fc6f8c13ceb3dca43cd9c572c8f92fd259e0e4247dca89aa344b65dfff9a8\n        /* \"crypto-core/contracts/TimeLockEnc.sol\":3568:3578  publicKeys */\n      0x01\n        /* \"crypto-core/contracts/TimeLockEnc.sol\":3568:3586  publicKeys[member] */\n      0x00\n        /* \"crypto-core/contracts/TimeLockEnc.sol\":3579:3585  member */\n      dup4\n        /* \"crypto-core/contracts/TimeLockEnc.sol\":3568:3586  publicKeys[member] */\n      0xffffffffffffffffffffffffffffffffffffffff\n      and\n      0xffffffffffffffffffffffffffffffffffffffff\n      and\n      dup2\n      mstore\n      0x20\n      add\n      swap1\n      dup2\n      mstore\n      0x20\n      add\n      0x00\n      keccak256\n        /* \"crypto-core/contracts/TimeLockEnc.sol\":3568:3592  publicKeys[member].index */\n      0x01\n      add\n      sload\n        /* \"crypto-core/contracts/TimeLockEnc.sol\":3555:3593  memberExited(publicKeys[member].index) */\n      mload(0x40)\n      tag_312\n      swap2\n      swap1\n      tag_38\n      jump\t// in\n    tag_312:\n      mload(0x40)\n      dup1\n      swap2\n      sub\n      swap1\n      log1\n        /* \"crypto-core/contracts/TimeLockEnc.sol\":3649:3650  0 */\n      0x00\n        /* \"crypto-core/contracts/TimeLockEnc.sol\":3603:3612  committee */\n      dup1\n        /* \"crypto-core/contracts/TimeLockEnc.sol\":3603:3638  committee[publicKeys[member].index] */\n      0x00\n        /* \"crypto-core/contracts/TimeLockEnc.sol\":3613:3623  publicKeys */\n      0x01\n        /* \"crypto-core/contracts/TimeLockEnc.sol\":3613:3631  publicKeys[member] */\n      0x00\n        /* \"crypto-core/contracts/TimeLockEnc.sol\":3624:3630  member */\n      dup6\n        /* \"crypto-core/contracts/TimeLockEnc.sol\":3613:3631  publicKeys[member] */\n      0xffffffffffffffffffffffffffffffffffffffff\n      and\n      0xffffffffffffffffffffffffffffffffffffffff\n      and\n      dup2\n      mstore\n      0x20\n      add\n      swap1\n      dup2\n      mstore\n      0x20\n      add\n      0x00\n      keccak256\n        /* \"crypto-core/contracts/TimeLockEnc.sol\":3613:3637  publicKeys[member].index */\n      0x01\n      add\n      sload\n        /* \"crypto-core/contracts/TimeLockEnc.sol\":3603:3638  committee[publicKeys[member].index] */\n      dup2\n      mstore\n      0x20\n      add\n      swap1\n      dup2\n      mstore\n      0x20\n      add\n      0x00\n      keccak256\n      0x00\n        /* \"crypto-core/contracts/TimeLockEnc.sol\":3603:3651  committee[publicKeys[member].index] = address(0) */\n      0x0100\n      exp\n      dup2\n      sload\n      dup2\n      0xffffffffffffffffffffffffffffffffffffffff\n      mul\n      not\n      and\n      swap1\n      dup4\n      0xffffffffffffffffffffffffffffffffffffffff\n      and\n      mul\n      or\n      swap1\n      sstore\n      pop\n        /* \"crypto-core/contracts/TimeLockEnc.sol\":3668:3678  publicKeys */\n      0x01\n        /* \"crypto-core/contracts/TimeLockEnc.sol\":3668:3686  publicKeys[member] */\n      0x00\n        /* \"crypto-core/contracts/TimeLockEnc.sol\":3679:3685  member */\n      dup3\n        /* \"crypto-core/contracts/TimeLockEnc.sol\":3668:3686  publicKeys[member] */\n      0xffffffffffffffffffffffffffffffffffffffff\n      and\n      0xffffffffffffffffffffffffffffffffffffffff\n      and\n      dup2\n      mstore\n      0x20\n      add\n      swap1\n      dup2\n      mstore\n      0x20\n      add\n      0x00\n      keccak256\n      0x00\n        /* \"crypto-core/contracts/TimeLockEnc.sol\":3661:3686  delete publicKeys[member] */\n      dup1\n      dup3\n      add\n      0x00\n      tag_313\n      swap2\n      swap1\n      tag_314\n      jump\t// in\n    tag_313:\n      0x01\n      dup3\n      add\n      0x00\n      swap1\n      sstore\n      pop\n      pop\n        /* \"crypto-core/contracts/TimeLockEnc.sol\":3699:3712  committeeSize */\n      0x08\n      0x00\n        /* \"crypto-core/contracts/TimeLockEnc.sol\":3697:3712  --committeeSize */\n      dup2\n      sload\n      tag_315\n      swap1\n      tag_310\n      jump\t// in\n    tag_315:\n      swap2\n      swap1\n      pop\n      dup2\n      swap1\n      sstore\n      pop\n        /* \"crypto-core/contracts/TimeLockEnc.sol\":3487:3719  function removeFromCommittee(address member) internal{... */\n      pop\n      jump\t// out\n        /* \"crypto-core/contracts/TimeLockEnc.sol\":3725:3830  function returnDeposit(address member) internal {... */\n    tag_262:\n        /* \"crypto-core/contracts/TimeLockEnc.sol\":3791:3797  member */\n      dup1\n        /* \"crypto-core/contracts/TimeLockEnc.sol\":3783:3807  payable(member).transfer */\n      0xffffffffffffffffffffffffffffffffffffffff\n      and\n        /* \"crypto-core/contracts/TimeLockEnc.sol\":3783:3823  payable(member).transfer(DEPOSIT_AMOUNT) */\n      0x08fc\n        /* \"crypto-core/contracts/TimeLockEnc.sol\":844:851  1 ether */\n      0x0de0b6b3a7640000\n        /* \"crypto-core/contracts/TimeLockEnc.sol\":3783:3823  payable(member).transfer(DEPOSIT_AMOUNT) */\n      swap1\n      dup2\n      iszero\n      mul\n      swap1\n      mload(0x40)\n      0x00\n      mload(0x40)\n      dup1\n      dup4\n      sub\n      dup2\n      dup6\n      dup9\n      dup9\n      call\n      swap4\n      pop\n      pop\n      pop\n      pop\n      iszero\n      dup1\n      iszero\n      tag_318\n      jumpi\n      returndatasize\n      0x00\n      dup1\n      returndatacopy\n      revert(0x00, returndatasize)\n    tag_318:\n      pop\n        /* \"crypto-core/contracts/TimeLockEnc.sol\":3725:3830  function returnDeposit(address member) internal {... */\n      pop\n      jump\t// out\n    tag_184:\n      dup3\n      dup1\n      sload\n      tag_319\n      swap1\n      tag_247\n      jump\t// in\n    tag_319:\n      swap1\n      0x00\n      mstore\n      keccak256(0x00, 0x20)\n      swap1\n      0x1f\n      add\n      0x20\n      swap1\n      div\n      dup2\n      add\n      swap3\n      dup3\n      tag_321\n      jumpi\n      0x00\n      dup6\n      sstore\n      jump(tag_320)\n    tag_321:\n      dup3\n      0x1f\n      lt\n      tag_322\n      jumpi\n      dup1\n      mload\n      not(0xff)\n      and\n      dup4\n      dup1\n      add\n      or\n      dup6\n      sstore\n      jump(tag_320)\n    tag_322:\n      dup3\n      dup1\n      add\n      0x01\n      add\n      dup6\n      sstore\n      dup3\n      iszero\n      tag_320\n      jumpi\n      swap2\n      dup3\n      add\n    tag_323:\n      dup3\n      dup2\n      gt\n      iszero\n      tag_324\n      jumpi\n      dup3\n      mload\n      dup3\n      sstore\n      swap2\n      0x20\n      add\n      swap2\n      swap1\n      0x01\n      add\n      swap1\n      jump(tag_323)\n    tag_324:\n    tag_320:\n      pop\n      swap1\n      pop\n      tag_325\n      swap2\n      swap1\n      tag_326\n      jump\t// in\n    tag_325:\n      pop\n      swap1\n      jump\t// out\n    tag_314:\n      pop\n      dup1\n      sload\n      tag_327\n      swap1\n      tag_247\n      jump\t// in\n    tag_327:\n      0x00\n      dup3\n      sstore\n      dup1\n      0x1f\n      lt\n      tag_329\n      jumpi\n      pop\n      jump(tag_328)\n    tag_329:\n      0x1f\n      add\n      0x20\n      swap1\n      div\n      swap1\n      0x00\n      mstore\n      keccak256(0x00, 0x20)\n      swap1\n      dup2\n      add\n      swap1\n      tag_330\n      swap2\n      swap1\n      tag_326\n      jump\t// in\n    tag_330:\n    tag_328:\n      pop\n      jump\t// out\n    tag_326:\n    tag_331:\n      dup1\n      dup3\n      gt\n      iszero\n      tag_332\n      jumpi\n      0x00\n      dup2\n      0x00\n      swap1\n      sstore\n      pop\n      0x01\n      add\n      jump(tag_331)\n    tag_332:\n      pop\n      swap1\n      jump\t// out\n        /* \"#utility.yul\":22:634   */\n    tag_334:\n      0x00\n        /* \"#utility.yul\":152:241   */\n      tag_336\n        /* \"#utility.yul\":167:240   */\n      tag_337\n        /* \"#utility.yul\":233:239   */\n      dup5\n        /* \"#utility.yul\":167:240   */\n      tag_338\n      jump\t// in\n    tag_337:\n        /* \"#utility.yul\":152:241   */\n      tag_339\n      jump\t// in\n    tag_336:\n        /* \"#utility.yul\":143:241   */\n      swap1\n      pop\n        /* \"#utility.yul\":261:266   */\n      dup1\n        /* \"#utility.yul\":289:295   */\n      dup4\n        /* \"#utility.yul\":282:287   */\n      dup3\n        /* \"#utility.yul\":275:296   */\n      mstore\n        /* \"#utility.yul\":315:319   */\n      0x20\n        /* \"#utility.yul\":308:313   */\n      dup3\n        /* \"#utility.yul\":304:320   */\n      add\n        /* \"#utility.yul\":297:320   */\n      swap1\n      pop\n        /* \"#utility.yul\":340:346   */\n      dup3\n        /* \"#utility.yul\":371:372   */\n      0x00\n        /* \"#utility.yul\":356:628   */\n    tag_340:\n        /* \"#utility.yul\":381:387   */\n      dup6\n        /* \"#utility.yul\":378:379   */\n      dup2\n        /* \"#utility.yul\":375:388   */\n      lt\n        /* \"#utility.yul\":356:628   */\n      iszero\n      tag_342\n      jumpi\n        /* \"#utility.yul\":473:476   */\n      dup2\n        /* \"#utility.yul\":460:477   */\n      calldataload\n        /* \"#utility.yul\":452:458   */\n      dup6\n        /* \"#utility.yul\":448:478   */\n      add\n        /* \"#utility.yul\":503:549   */\n      tag_343\n        /* \"#utility.yul\":545:548   */\n      dup9\n        /* \"#utility.yul\":533:543   */\n      dup3\n        /* \"#utility.yul\":503:549   */\n      tag_344\n      jump\t// in\n    tag_343:\n        /* \"#utility.yul\":498:501   */\n      dup5\n        /* \"#utility.yul\":491:550   */\n      mstore\n        /* \"#utility.yul\":579:583   */\n      0x20\n        /* \"#utility.yul\":574:577   */\n      dup5\n        /* \"#utility.yul\":570:584   */\n      add\n        /* \"#utility.yul\":563:584   */\n      swap4\n      pop\n        /* \"#utility.yul\":613:617   */\n      0x20\n        /* \"#utility.yul\":608:611   */\n      dup4\n        /* \"#utility.yul\":604:618   */\n      add\n        /* \"#utility.yul\":597:618   */\n      swap3\n      pop\n        /* \"#utility.yul\":416:628   */\n      pop\n        /* \"#utility.yul\":403:404   */\n      0x01\n        /* \"#utility.yul\":400:401   */\n      dup2\n        /* \"#utility.yul\":396:405   */\n      add\n        /* \"#utility.yul\":391:405   */\n      swap1\n      pop\n        /* \"#utility.yul\":356:628   */\n      jump(tag_340)\n    tag_342:\n        /* \"#utility.yul\":360:374   */\n      pop\n        /* \"#utility.yul\":133:634   */\n      pop\n      pop\n      swap4\n      swap3\n      pop\n      pop\n      pop\n      jump\t// out\n        /* \"#utility.yul\":640:982   */\n    tag_345:\n      0x00\n        /* \"#utility.yul\":742:806   */\n      tag_347\n        /* \"#utility.yul\":757:805   */\n      tag_348\n        /* \"#utility.yul\":798:804   */\n      dup5\n        /* \"#utility.yul\":757:805   */\n      tag_349\n      jump\t// in\n    tag_348:\n        /* \"#utility.yul\":742:806   */\n      tag_339\n      jump\t// in\n    tag_347:\n        /* \"#utility.yul\":733:806   */\n      swap1\n      pop\n        /* \"#utility.yul\":829:835   */\n      dup3\n        /* \"#utility.yul\":822:827   */\n      dup2\n        /* \"#utility.yul\":815:836   */\n      mstore\n        /* \"#utility.yul\":867:871   */\n      0x20\n        /* \"#utility.yul\":860:865   */\n      dup2\n        /* \"#utility.yul\":856:872   */\n      add\n        /* \"#utility.yul\":905:908   */\n      dup5\n        /* \"#utility.yul\":896:902   */\n      dup5\n        /* \"#utility.yul\":891:894   */\n      dup5\n        /* \"#utility.yul\":887:903   */\n      add\n        /* \"#utility.yul\":884:909   */\n      gt\n        /* \"#utility.yul\":881:883   */\n      iszero\n      tag_350\n      jumpi\n        /* \"#utility.yul\":922:923   */\n      0x00\n        /* \"#utility.yul\":919:920   */\n      dup1\n        /* \"#utility.yul\":912:924   */\n      revert\n        /* \"#utility.yul\":881:883   */\n    tag_350:\n        /* \"#utility.yul\":935:976   */\n      tag_351\n        /* \"#utility.yul\":969:975   */\n      dup5\n        /* \"#utility.yul\":964:967   */\n      dup3\n        /* \"#utility.yul\":959:962   */\n      dup6\n        /* \"#utility.yul\":935:976   */\n      tag_352\n      jump\t// in\n    tag_351:\n        /* \"#utility.yul\":723:982   */\n      pop\n      swap4\n      swap3\n      pop\n      pop\n      pop\n      jump\t// out\n        /* \"#utility.yul\":988:1127   */\n    tag_353:\n      0x00\n        /* \"#utility.yul\":1072:1078   */\n      dup2\n        /* \"#utility.yul\":1059:1079   */\n      calldataload\n        /* \"#utility.yul\":1050:1079   */\n      swap1\n      pop\n        /* \"#utility.yul\":1088:1121   */\n      tag_355\n        /* \"#utility.yul\":1115:1120   */\n      dup2\n        /* \"#utility.yul\":1088:1121   */\n      tag_356\n      jump\t// in\n    tag_355:\n        /* \"#utility.yul\":1040:1127   */\n      swap3\n      swap2\n      pop\n      pop\n      jump\t// out\n        /* \"#utility.yul\":1133:1288   */\n    tag_357:\n      0x00\n        /* \"#utility.yul\":1225:1231   */\n      dup2\n        /* \"#utility.yul\":1212:1232   */\n      calldataload\n        /* \"#utility.yul\":1203:1232   */\n      swap1\n      pop\n        /* \"#utility.yul\":1241:1282   */\n      tag_359\n        /* \"#utility.yul\":1276:1281   */\n      dup2\n        /* \"#utility.yul\":1241:1282   */\n      tag_360\n      jump\t// in\n    tag_359:\n        /* \"#utility.yul\":1193:1288   */\n      swap3\n      swap2\n      pop\n      pop\n      jump\t// out\n        /* \"#utility.yul\":1309:1630   */\n    tag_361:\n      0x00\n        /* \"#utility.yul\":1438:1441   */\n      dup3\n        /* \"#utility.yul\":1431:1435   */\n      0x1f\n        /* \"#utility.yul\":1423:1429   */\n      dup4\n        /* \"#utility.yul\":1419:1436   */\n      add\n        /* \"#utility.yul\":1415:1442   */\n      slt\n        /* \"#utility.yul\":1405:1407   */\n      tag_363\n      jumpi\n        /* \"#utility.yul\":1456:1457   */\n      0x00\n        /* \"#utility.yul\":1453:1454   */\n      dup1\n        /* \"#utility.yul\":1446:1458   */\n      revert\n        /* \"#utility.yul\":1405:1407   */\n    tag_363:\n        /* \"#utility.yul\":1496:1502   */\n      dup2\n        /* \"#utility.yul\":1483:1503   */\n      calldataload\n        /* \"#utility.yul\":1521:1624   */\n      tag_364\n        /* \"#utility.yul\":1620:1623   */\n      dup5\n        /* \"#utility.yul\":1612:1618   */\n      dup3\n        /* \"#utility.yul\":1605:1609   */\n      0x20\n        /* \"#utility.yul\":1597:1603   */\n      dup7\n        /* \"#utility.yul\":1593:1610   */\n      add\n        /* \"#utility.yul\":1521:1624   */\n      tag_334\n      jump\t// in\n    tag_364:\n        /* \"#utility.yul\":1512:1624   */\n      swap2\n      pop\n        /* \"#utility.yul\":1395:1630   */\n      pop\n      swap3\n      swap2\n      pop\n      pop\n      jump\t// out\n        /* \"#utility.yul\":1649:1920   */\n    tag_344:\n      0x00\n        /* \"#utility.yul\":1753:1756   */\n      dup3\n        /* \"#utility.yul\":1746:1750   */\n      0x1f\n        /* \"#utility.yul\":1738:1744   */\n      dup4\n        /* \"#utility.yul\":1734:1751   */\n      add\n        /* \"#utility.yul\":1730:1757   */\n      slt\n        /* \"#utility.yul\":1720:1722   */\n      tag_366\n      jumpi\n        /* \"#utility.yul\":1771:1772   */\n      0x00\n        /* \"#utility.yul\":1768:1769   */\n      dup1\n        /* \"#utility.yul\":1761:1773   */\n      revert\n        /* \"#utility.yul\":1720:1722   */\n    tag_366:\n        /* \"#utility.yul\":1811:1817   */\n      dup2\n        /* \"#utility.yul\":1798:1818   */\n      calldataload\n        /* \"#utility.yul\":1836:1914   */\n      tag_367\n        /* \"#utility.yul\":1910:1913   */\n      dup5\n        /* \"#utility.yul\":1902:1908   */\n      dup3\n        /* \"#utility.yul\":1895:1899   */\n      0x20\n        /* \"#utility.yul\":1887:1893   */\n      dup7\n        /* \"#utility.yul\":1883:1900   */\n      add\n        /* \"#utility.yul\":1836:1914   */\n      tag_345\n      jump\t// in\n    tag_367:\n        /* \"#utility.yul\":1827:1914   */\n      swap2\n      pop\n        /* \"#utility.yul\":1710:1920   */\n      pop\n      swap3\n      swap2\n      pop\n      pop\n      jump\t// out\n        /* \"#utility.yul\":1926:2065   */\n    tag_368:\n      0x00\n        /* \"#utility.yul\":2010:2016   */\n      dup2\n        /* \"#utility.yul\":1997:2017   */\n      calldataload\n        /* \"#utility.yul\":1988:2017   */\n      swap1\n      pop\n        /* \"#utility.yul\":2026:2059   */\n      tag_370\n        /* \"#utility.yul\":2053:2058   */\n      dup2\n        /* \"#utility.yul\":2026:2059   */\n      tag_371\n      jump\t// in\n    tag_370:\n        /* \"#utility.yul\":1978:2065   */\n      swap3\n      swap2\n      pop\n      pop\n      jump\t// out\n        /* \"#utility.yul\":2071:2333   */\n    tag_112:\n      0x00\n        /* \"#utility.yul\":2179:2181   */\n      0x20\n        /* \"#utility.yul\":2167:2176   */\n      dup3\n        /* \"#utility.yul\":2158:2165   */\n      dup5\n        /* \"#utility.yul\":2154:2177   */\n      sub\n        /* \"#utility.yul\":2150:2182   */\n      slt\n        /* \"#utility.yul\":2147:2149   */\n      iszero\n      tag_373\n      jumpi\n        /* \"#utility.yul\":2195:2196   */\n      0x00\n        /* \"#utility.yul\":2192:2193   */\n      dup1\n        /* \"#utility.yul\":2185:2197   */\n      revert\n        /* \"#utility.yul\":2147:2149   */\n    tag_373:\n        /* \"#utility.yul\":2238:2239   */\n      0x00\n        /* \"#utility.yul\":2263:2316   */\n      tag_374\n        /* \"#utility.yul\":2308:2315   */\n      dup5\n        /* \"#utility.yul\":2299:2305   */\n      dup3\n        /* \"#utility.yul\":2288:2297   */\n      dup6\n        /* \"#utility.yul\":2284:2306   */\n      add\n        /* \"#utility.yul\":2263:2316   */\n      tag_353\n      jump\t// in\n    tag_374:\n        /* \"#utility.yul\":2253:2316   */\n      swap2\n      pop\n        /* \"#utility.yul\":2209:2326   */\n      pop\n        /* \"#utility.yul\":2137:2333   */\n      swap3\n      swap2\n      pop\n      pop\n      jump\t// out\n        /* \"#utility.yul\":2339:2617   */\n    tag_32:\n      0x00\n        /* \"#utility.yul\":2455:2457   */\n      0x20\n        /* \"#utility.yul\":2443:2452   */\n      dup3\n        /* \"#utility.yul\":2434:2441   */\n      dup5\n        /* \"#utility.yul\":2430:2453   */\n      sub\n        /* \"#utility.yul\":2426:2458   */\n      slt\n        /* \"#utility.yul\":2423:2425   */\n      iszero\n      tag_376\n      jumpi\n        /* \"#utility.yul\":2471:2472   */\n      0x00\n        /* \"#utility.yul\":2468:2469   */\n      dup1\n        /* \"#utility.yul\":2461:2473   */\n      revert\n        /* \"#utility.yul\":2423:2425   */\n    tag_376:\n        /* \"#utility.yul\":2514:2515   */\n      0x00\n        /* \"#utility.yul\":2539:2600   */\n      tag_377\n        /* \"#utility.yul\":2592:2599   */\n      dup5\n        /* \"#utility.yul\":2583:2589   */\n      dup3\n        /* \"#utility.yul\":2572:2581   */\n      dup6\n        /* \"#utility.yul\":2568:2590   */\n      add\n        /* \"#utility.yul\":2539:2600   */\n      tag_357\n      jump\t// in\n    tag_377:\n        /* \"#utility.yul\":2529:2600   */\n      swap2\n      pop\n        /* \"#utility.yul\":2485:2610   */\n      pop\n        /* \"#utility.yul\":2413:2617   */\n      swap3\n      swap2\n      pop\n      pop\n      jump\t// out\n        /* \"#utility.yul\":2623:3030   */\n    tag_90:\n      0x00\n      dup1\n        /* \"#utility.yul\":2748:2750   */\n      0x40\n        /* \"#utility.yul\":2736:2745   */\n      dup4\n        /* \"#utility.yul\":2727:2734   */\n      dup6\n        /* \"#utility.yul\":2723:2746   */\n      sub\n        /* \"#utility.yul\":2719:2751   */\n      slt\n        /* \"#utility.yul\":2716:2718   */\n      iszero\n      tag_379\n      jumpi\n        /* \"#utility.yul\":2764:2765   */\n      0x00\n        /* \"#utility.yul\":2761:2762   */\n      dup1\n        /* \"#utility.yul\":2754:2766   */\n      revert\n        /* \"#utility.yul\":2716:2718   */\n    tag_379:\n        /* \"#utility.yul\":2807:2808   */\n      0x00\n        /* \"#utility.yul\":2832:2885   */\n      tag_380\n        /* \"#utility.yul\":2877:2884   */\n      dup6\n        /* \"#utility.yul\":2868:2874   */\n      dup3\n        /* \"#utility.yul\":2857:2866   */\n      dup7\n        /* \"#utility.yul\":2853:2875   */\n      add\n        /* \"#utility.yul\":2832:2885   */\n      tag_353\n      jump\t// in\n    tag_380:\n        /* \"#utility.yul\":2822:2885   */\n      swap3\n      pop\n        /* \"#utility.yul\":2778:2895   */\n      pop\n        /* \"#utility.yul\":2934:2936   */\n      0x20\n        /* \"#utility.yul\":2960:3013   */\n      tag_381\n        /* \"#utility.yul\":3005:3012   */\n      dup6\n        /* \"#utility.yul\":2996:3002   */\n      dup3\n        /* \"#utility.yul\":2985:2994   */\n      dup7\n        /* \"#utility.yul\":2981:3003   */\n      add\n        /* \"#utility.yul\":2960:3013   */\n      tag_368\n      jump\t// in\n    tag_381:\n        /* \"#utility.yul\":2950:3013   */\n      swap2\n      pop\n        /* \"#utility.yul\":2905:3023   */\n      pop\n        /* \"#utility.yul\":2706:3030   */\n      swap3\n      pop\n      swap3\n      swap1\n      pop\n      jump\t// out\n        /* \"#utility.yul\":3036:3409   */\n    tag_57:\n      0x00\n        /* \"#utility.yul\":3153:3155   */\n      0x20\n        /* \"#utility.yul\":3141:3150   */\n      dup3\n        /* \"#utility.yul\":3132:3139   */\n      dup5\n        /* \"#utility.yul\":3128:3151   */\n      sub\n        /* \"#utility.yul\":3124:3156   */\n      slt\n        /* \"#utility.yul\":3121:3123   */\n      iszero\n      tag_383\n      jumpi\n        /* \"#utility.yul\":3169:3170   */\n      0x00\n        /* \"#utility.yul\":3166:3167   */\n      dup1\n        /* \"#utility.yul\":3159:3171   */\n      revert\n        /* \"#utility.yul\":3121:3123   */\n    tag_383:\n        /* \"#utility.yul\":3240:3241   */\n      0x00\n        /* \"#utility.yul\":3229:3238   */\n      dup3\n        /* \"#utility.yul\":3225:3242   */\n      add\n        /* \"#utility.yul\":3212:3243   */\n      calldataload\n        /* \"#utility.yul\":3270:3288   */\n      0xffffffffffffffff\n        /* \"#utility.yul\":3262:3268   */\n      dup2\n        /* \"#utility.yul\":3259:3289   */\n      gt\n        /* \"#utility.yul\":3256:3258   */\n      iszero\n      tag_384\n      jumpi\n        /* \"#utility.yul\":3302:3303   */\n      0x00\n        /* \"#utility.yul\":3299:3300   */\n      dup1\n        /* \"#utility.yul\":3292:3304   */\n      revert\n        /* \"#utility.yul\":3256:3258   */\n    tag_384:\n        /* \"#utility.yul\":3330:3392   */\n      tag_385\n        /* \"#utility.yul\":3384:3391   */\n      dup5\n        /* \"#utility.yul\":3375:3381   */\n      dup3\n        /* \"#utility.yul\":3364:3373   */\n      dup6\n        /* \"#utility.yul\":3360:3382   */\n      add\n        /* \"#utility.yul\":3330:3392   */\n      tag_344\n      jump\t// in\n    tag_385:\n        /* \"#utility.yul\":3320:3392   */\n      swap2\n      pop\n        /* \"#utility.yul\":3183:3402   */\n      pop\n        /* \"#utility.yul\":3111:3409   */\n      swap3\n      swap2\n      pop\n      pop\n      jump\t// out\n        /* \"#utility.yul\":3415:3677   */\n    tag_101:\n      0x00\n        /* \"#utility.yul\":3523:3525   */\n      0x20\n        /* \"#utility.yul\":3511:3520   */\n      dup3\n        /* \"#utility.yul\":3502:3509   */\n      dup5\n        /* \"#utility.yul\":3498:3521   */\n      sub\n        /* \"#utility.yul\":3494:3526   */\n      slt\n        /* \"#utility.yul\":3491:3493   */\n      iszero\n      tag_387\n      jumpi\n        /* \"#utility.yul\":3539:3540   */\n      0x00\n        /* \"#utility.yul\":3536:3537   */\n      dup1\n        /* \"#utility.yul\":3529:3541   */\n      revert\n        /* \"#utility.yul\":3491:3493   */\n    tag_387:\n        /* \"#utility.yul\":3582:3583   */\n      0x00\n        /* \"#utility.yul\":3607:3660   */\n      tag_388\n        /* \"#utility.yul\":3652:3659   */\n      dup5\n        /* \"#utility.yul\":3643:3649   */\n      dup3\n        /* \"#utility.yul\":3632:3641   */\n      dup6\n        /* \"#utility.yul\":3628:3650   */\n      add\n        /* \"#utility.yul\":3607:3660   */\n      tag_368\n      jump\t// in\n    tag_388:\n        /* \"#utility.yul\":3597:3660   */\n      swap2\n      pop\n        /* \"#utility.yul\":3553:3670   */\n      pop\n        /* \"#utility.yul\":3481:3677   */\n      swap3\n      swap2\n      pop\n      pop\n      jump\t// out\n        /* \"#utility.yul\":3683:4090   */\n    tag_124:\n      0x00\n      dup1\n        /* \"#utility.yul\":3808:3810   */\n      0x40\n        /* \"#utility.yul\":3796:3805   */\n      dup4\n        /* \"#utility.yul\":3787:3794   */\n      dup6\n        /* \"#utility.yul\":3783:3806   */\n      sub\n        /* \"#utility.yul\":3779:3811   */\n      slt\n        /* \"#utility.yul\":3776:3778   */\n      iszero\n      tag_390\n      jumpi\n        /* \"#utility.yul\":3824:3825   */\n      0x00\n        /* \"#utility.yul\":3821:3822   */\n      dup1\n        /* \"#utility.yul\":3814:3826   */\n      revert\n        /* \"#utility.yul\":3776:3778   */\n    tag_390:\n        /* \"#utility.yul\":3867:3868   */\n      0x00\n        /* \"#utility.yul\":3892:3945   */\n      tag_391\n        /* \"#utility.yul\":3937:3944   */\n      dup6\n        /* \"#utility.yul\":3928:3934   */\n      dup3\n        /* \"#utility.yul\":3917:3926   */\n      dup7\n        /* \"#utility.yul\":3913:3935   */\n      add\n        /* \"#utility.yul\":3892:3945   */\n      tag_368\n      jump\t// in\n    tag_391:\n        /* \"#utility.yul\":3882:3945   */\n      swap3\n      pop\n        /* \"#utility.yul\":3838:3955   */\n      pop\n        /* \"#utility.yul\":3994:3996   */\n      0x20\n        /* \"#utility.yul\":4020:4073   */\n      tag_392\n        /* \"#utility.yul\":4065:4072   */\n      dup6\n        /* \"#utility.yul\":4056:4062   */\n      dup3\n        /* \"#utility.yul\":4045:4054   */\n      dup7\n        /* \"#utility.yul\":4041:4063   */\n      add\n        /* \"#utility.yul\":4020:4073   */\n      tag_353\n      jump\t// in\n    tag_392:\n        /* \"#utility.yul\":4010:4073   */\n      swap2\n      pop\n        /* \"#utility.yul\":3965:4083   */\n      pop\n        /* \"#utility.yul\":3766:4090   */\n      swap3\n      pop\n      swap3\n      swap1\n      pop\n      jump\t// out\n        /* \"#utility.yul\":4096:4614   */\n    tag_46:\n      0x00\n      dup1\n        /* \"#utility.yul\":4230:4232   */\n      0x40\n        /* \"#utility.yul\":4218:4227   */\n      dup4\n        /* \"#utility.yul\":4209:4216   */\n      dup6\n        /* \"#utility.yul\":4205:4228   */\n      sub\n        /* \"#utility.yul\":4201:4233   */\n      slt\n        /* \"#utility.yul\":4198:4200   */\n      iszero\n      tag_394\n      jumpi\n        /* \"#utility.yul\":4246:4247   */\n      0x00\n        /* \"#utility.yul\":4243:4244   */\n      dup1\n        /* \"#utility.yul\":4236:4248   */\n      revert\n        /* \"#utility.yul\":4198:4200   */\n    tag_394:\n        /* \"#utility.yul\":4289:4290   */\n      0x00\n        /* \"#utility.yul\":4314:4367   */\n      tag_395\n        /* \"#utility.yul\":4359:4366   */\n      dup6\n        /* \"#utility.yul\":4350:4356   */\n      dup3\n        /* \"#utility.yul\":4339:4348   */\n      dup7\n        /* \"#utility.yul\":4335:4357   */\n      add\n        /* \"#utility.yul\":4314:4367   */\n      tag_368\n      jump\t// in\n    tag_395:\n        /* \"#utility.yul\":4304:4367   */\n      swap3\n      pop\n        /* \"#utility.yul\":4260:4377   */\n      pop\n        /* \"#utility.yul\":4444:4446   */\n      0x20\n        /* \"#utility.yul\":4433:4442   */\n      dup4\n        /* \"#utility.yul\":4429:4447   */\n      add\n        /* \"#utility.yul\":4416:4448   */\n      calldataload\n        /* \"#utility.yul\":4475:4493   */\n      0xffffffffffffffff\n        /* \"#utility.yul\":4467:4473   */\n      dup2\n        /* \"#utility.yul\":4464:4494   */\n      gt\n        /* \"#utility.yul\":4461:4463   */\n      iszero\n      tag_396\n      jumpi\n        /* \"#utility.yul\":4507:4508   */\n      0x00\n        /* \"#utility.yul\":4504:4505   */\n      dup1\n        /* \"#utility.yul\":4497:4509   */\n      revert\n        /* \"#utility.yul\":4461:4463   */\n    tag_396:\n        /* \"#utility.yul\":4535:4597   */\n      tag_397\n        /* \"#utility.yul\":4589:4596   */\n      dup6\n        /* \"#utility.yul\":4580:4586   */\n      dup3\n        /* \"#utility.yul\":4569:4578   */\n      dup7\n        /* \"#utility.yul\":4565:4587   */\n      add\n        /* \"#utility.yul\":4535:4597   */\n      tag_344\n      jump\t// in\n    tag_397:\n        /* \"#utility.yul\":4525:4597   */\n      swap2\n      pop\n        /* \"#utility.yul\":4387:4607   */\n      pop\n        /* \"#utility.yul\":4188:4614   */\n      swap3\n      pop\n      swap3\n      swap1\n      pop\n      jump\t// out\n        /* \"#utility.yul\":4620:5701   */\n    tag_96:\n      0x00\n      dup1\n      0x00\n      dup1\n        /* \"#utility.yul\":4831:4834   */\n      0x80\n        /* \"#utility.yul\":4819:4828   */\n      dup6\n        /* \"#utility.yul\":4810:4817   */\n      dup8\n        /* \"#utility.yul\":4806:4829   */\n      sub\n        /* \"#utility.yul\":4802:4835   */\n      slt\n        /* \"#utility.yul\":4799:4801   */\n      iszero\n      tag_399\n      jumpi\n        /* \"#utility.yul\":4848:4849   */\n      0x00\n        /* \"#utility.yul\":4845:4846   */\n      dup1\n        /* \"#utility.yul\":4838:4850   */\n      revert\n        /* \"#utility.yul\":4799:4801   */\n    tag_399:\n        /* \"#utility.yul\":4891:4892   */\n      0x00\n        /* \"#utility.yul\":4916:4969   */\n      tag_400\n        /* \"#utility.yul\":4961:4968   */\n      dup8\n        /* \"#utility.yul\":4952:4958   */\n      dup3\n        /* \"#utility.yul\":4941:4950   */\n      dup9\n        /* \"#utility.yul\":4937:4959   */\n      add\n        /* \"#utility.yul\":4916:4969   */\n      tag_368\n      jump\t// in\n    tag_400:\n        /* \"#utility.yul\":4906:4969   */\n      swap5\n      pop\n        /* \"#utility.yul\":4862:4979   */\n      pop\n        /* \"#utility.yul\":5046:5048   */\n      0x20\n        /* \"#utility.yul\":5035:5044   */\n      dup6\n        /* \"#utility.yul\":5031:5049   */\n      add\n        /* \"#utility.yul\":5018:5050   */\n      calldataload\n        /* \"#utility.yul\":5077:5095   */\n      0xffffffffffffffff\n        /* \"#utility.yul\":5069:5075   */\n      dup2\n        /* \"#utility.yul\":5066:5096   */\n      gt\n        /* \"#utility.yul\":5063:5065   */\n      iszero\n      tag_401\n      jumpi\n        /* \"#utility.yul\":5109:5110   */\n      0x00\n        /* \"#utility.yul\":5106:5107   */\n      dup1\n        /* \"#utility.yul\":5099:5111   */\n      revert\n        /* \"#utility.yul\":5063:5065   */\n    tag_401:\n        /* \"#utility.yul\":5137:5199   */\n      tag_402\n        /* \"#utility.yul\":5191:5198   */\n      dup8\n        /* \"#utility.yul\":5182:5188   */\n      dup3\n        /* \"#utility.yul\":5171:5180   */\n      dup9\n        /* \"#utility.yul\":5167:5189   */\n      add\n        /* \"#utility.yul\":5137:5199   */\n      tag_344\n      jump\t// in\n    tag_402:\n        /* \"#utility.yul\":5127:5199   */\n      swap4\n      pop\n        /* \"#utility.yul\":4989:5209   */\n      pop\n        /* \"#utility.yul\":5276:5278   */\n      0x40\n        /* \"#utility.yul\":5265:5274   */\n      dup6\n        /* \"#utility.yul\":5261:5279   */\n      add\n        /* \"#utility.yul\":5248:5280   */\n      calldataload\n        /* \"#utility.yul\":5307:5325   */\n      0xffffffffffffffff\n        /* \"#utility.yul\":5299:5305   */\n      dup2\n        /* \"#utility.yul\":5296:5326   */\n      gt\n        /* \"#utility.yul\":5293:5295   */\n      iszero\n      tag_403\n      jumpi\n        /* \"#utility.yul\":5339:5340   */\n      0x00\n        /* \"#utility.yul\":5336:5337   */\n      dup1\n        /* \"#utility.yul\":5329:5341   */\n      revert\n        /* \"#utility.yul\":5293:5295   */\n    tag_403:\n        /* \"#utility.yul\":5367:5429   */\n      tag_404\n        /* \"#utility.yul\":5421:5428   */\n      dup8\n        /* \"#utility.yul\":5412:5418   */\n      dup3\n        /* \"#utility.yul\":5401:5410   */\n      dup9\n        /* \"#utility.yul\":5397:5419   */\n      add\n        /* \"#utility.yul\":5367:5429   */\n      tag_344\n      jump\t// in\n    tag_404:\n        /* \"#utility.yul\":5357:5429   */\n      swap3\n      pop\n        /* \"#utility.yul\":5219:5439   */\n      pop\n        /* \"#utility.yul\":5506:5508   */\n      0x60\n        /* \"#utility.yul\":5495:5504   */\n      dup6\n        /* \"#utility.yul\":5491:5509   */\n      add\n        /* \"#utility.yul\":5478:5510   */\n      calldataload\n        /* \"#utility.yul\":5537:5555   */\n      0xffffffffffffffff\n        /* \"#utility.yul\":5529:5535   */\n      dup2\n        /* \"#utility.yul\":5526:5556   */\n      gt\n        /* \"#utility.yul\":5523:5525   */\n      iszero\n      tag_405\n      jumpi\n        /* \"#utility.yul\":5569:5570   */\n      0x00\n        /* \"#utility.yul\":5566:5567   */\n      dup1\n        /* \"#utility.yul\":5559:5571   */\n      revert\n        /* \"#utility.yul\":5523:5525   */\n    tag_405:\n        /* \"#utility.yul\":5597:5684   */\n      tag_406\n        /* \"#utility.yul\":5676:5683   */\n      dup8\n        /* \"#utility.yul\":5667:5673   */\n      dup3\n        /* \"#utility.yul\":5656:5665   */\n      dup9\n        /* \"#utility.yul\":5652:5674   */\n      add\n        /* \"#utility.yul\":5597:5684   */\n      tag_361\n      jump\t// in\n    tag_406:\n        /* \"#utility.yul\":5587:5684   */\n      swap2\n      pop\n        /* \"#utility.yul\":5449:5694   */\n      pop\n        /* \"#utility.yul\":4789:5701   */\n      swap3\n      swap6\n      swap2\n      swap5\n      pop\n      swap3\n      pop\n      jump\t// out\n        /* \"#utility.yul\":5707:6114   */\n    tag_51:\n      0x00\n      dup1\n        /* \"#utility.yul\":5832:5834   */\n      0x40\n        /* \"#utility.yul\":5820:5829   */\n      dup4\n        /* \"#utility.yul\":5811:5818   */\n      dup6\n        /* \"#utility.yul\":5807:5830   */\n      sub\n        /* \"#utility.yul\":5803:5835   */\n      slt\n        /* \"#utility.yul\":5800:5802   */\n      iszero\n      tag_408\n      jumpi\n        /* \"#utility.yul\":5848:5849   */\n      0x00\n        /* \"#utility.yul\":5845:5846   */\n      dup1\n        /* \"#utility.yul\":5838:5850   */\n      revert\n        /* \"#utility.yul\":5800:5802   */\n    tag_408:\n        /* \"#utility.yul\":5891:5892   */\n      0x00\n        /* \"#utility.yul\":5916:5969   */\n      tag_409\n        /* \"#utility.yul\":5961:5968   */\n      dup6\n        /* \"#utility.yul\":5952:5958   */\n      dup3\n        /* \"#utility.yul\":5941:5950   */\n      dup7\n        /* \"#utility.yul\":5937:5959   */\n      add\n        /* \"#utility.yul\":5916:5969   */\n      tag_368\n      jump\t// in\n    tag_409:\n        /* \"#utility.yul\":5906:5969   */\n      swap3\n      pop\n        /* \"#utility.yul\":5862:5979   */\n      pop\n        /* \"#utility.yul\":6018:6020   */\n      0x20\n        /* \"#utility.yul\":6044:6097   */\n      tag_410\n        /* \"#utility.yul\":6089:6096   */\n      dup6\n        /* \"#utility.yul\":6080:6086   */\n      dup3\n        /* \"#utility.yul\":6069:6078   */\n      dup7\n        /* \"#utility.yul\":6065:6087   */\n      add\n        /* \"#utility.yul\":6044:6097   */\n      tag_368\n      jump\t// in\n    tag_410:\n        /* \"#utility.yul\":6034:6097   */\n      swap2\n      pop\n        /* \"#utility.yul\":5989:6107   */\n      pop\n        /* \"#utility.yul\":5790:6114   */\n      swap3\n      pop\n      swap3\n      swap1\n      pop\n      jump\t// out\n        /* \"#utility.yul\":6120:6312   */\n    tag_411:\n      0x00\n        /* \"#utility.yul\":6242:6306   */\n      tag_413\n        /* \"#utility.yul\":6302:6305   */\n      dup4\n        /* \"#utility.yul\":6294:6300   */\n      dup4\n        /* \"#utility.yul\":6242:6306   */\n      tag_414\n      jump\t// in\n    tag_413:\n        /* \"#utility.yul\":6228:6306   */\n      swap1\n      pop\n        /* \"#utility.yul\":6218:6312   */\n      swap3\n      swap2\n      pop\n      pop\n      jump\t// out\n        /* \"#utility.yul\":6318:6436   */\n    tag_415:\n        /* \"#utility.yul\":6405:6429   */\n      tag_417\n        /* \"#utility.yul\":6423:6428   */\n      dup2\n        /* \"#utility.yul\":6405:6429   */\n      tag_418\n      jump\t// in\n    tag_417:\n        /* \"#utility.yul\":6400:6403   */\n      dup3\n        /* \"#utility.yul\":6393:6430   */\n      mstore\n        /* \"#utility.yul\":6383:6436   */\n      pop\n      pop\n      jump\t// out\n        /* \"#utility.yul\":6468:7451   */\n    tag_419:\n      0x00\n        /* \"#utility.yul\":6634:6697   */\n      tag_421\n        /* \"#utility.yul\":6691:6696   */\n      dup3\n        /* \"#utility.yul\":6634:6697   */\n      tag_422\n      jump\t// in\n    tag_421:\n        /* \"#utility.yul\":6713:6808   */\n      tag_423\n        /* \"#utility.yul\":6801:6807   */\n      dup2\n        /* \"#utility.yul\":6796:6799   */\n      dup6\n        /* \"#utility.yul\":6713:6808   */\n      tag_424\n      jump\t// in\n    tag_423:\n        /* \"#utility.yul\":6706:6808   */\n      swap4\n      pop\n        /* \"#utility.yul\":6834:6837   */\n      dup4\n        /* \"#utility.yul\":6879:6883   */\n      0x20\n        /* \"#utility.yul\":6871:6877   */\n      dup3\n        /* \"#utility.yul\":6867:6884   */\n      mul\n        /* \"#utility.yul\":6862:6865   */\n      dup6\n        /* \"#utility.yul\":6858:6885   */\n      add\n        /* \"#utility.yul\":6909:6974   */\n      tag_425\n        /* \"#utility.yul\":6968:6973   */\n      dup6\n        /* \"#utility.yul\":6909:6974   */\n      tag_426\n      jump\t// in\n    tag_425:\n        /* \"#utility.yul\":6997:7004   */\n      dup1\n        /* \"#utility.yul\":7028:7029   */\n      0x00\n        /* \"#utility.yul\":7013:7406   */\n    tag_427:\n        /* \"#utility.yul\":7038:7044   */\n      dup6\n        /* \"#utility.yul\":7035:7036   */\n      dup2\n        /* \"#utility.yul\":7032:7045   */\n      lt\n        /* \"#utility.yul\":7013:7406   */\n      iszero\n      tag_429\n      jumpi\n        /* \"#utility.yul\":7109:7118   */\n      dup5\n        /* \"#utility.yul\":7103:7107   */\n      dup5\n        /* \"#utility.yul\":7099:7119   */\n      sub\n        /* \"#utility.yul\":7094:7097   */\n      dup10\n        /* \"#utility.yul\":7087:7120   */\n      mstore\n        /* \"#utility.yul\":7160:7166   */\n      dup2\n        /* \"#utility.yul\":7154:7167   */\n      mload\n        /* \"#utility.yul\":7188:7270   */\n      tag_430\n        /* \"#utility.yul\":7265:7269   */\n      dup6\n        /* \"#utility.yul\":7250:7263   */\n      dup3\n        /* \"#utility.yul\":7188:7270   */\n      tag_411\n      jump\t// in\n    tag_430:\n        /* \"#utility.yul\":7180:7270   */\n      swap5\n      pop\n        /* \"#utility.yul\":7293:7362   */\n      tag_431\n        /* \"#utility.yul\":7355:7361   */\n      dup4\n        /* \"#utility.yul\":7293:7362   */\n      tag_432\n      jump\t// in\n    tag_431:\n        /* \"#utility.yul\":7283:7362   */\n      swap3\n      pop\n        /* \"#utility.yul\":7391:7395   */\n      0x20\n        /* \"#utility.yul\":7386:7389   */\n      dup11\n        /* \"#utility.yul\":7382:7396   */\n      add\n        /* \"#utility.yul\":7375:7396   */\n      swap10\n      pop\n        /* \"#utility.yul\":7073:7406   */\n      pop\n        /* \"#utility.yul\":7060:7061   */\n      0x01\n        /* \"#utility.yul\":7057:7058   */\n      dup2\n        /* \"#utility.yul\":7053:7062   */\n      add\n        /* \"#utility.yul\":7048:7062   */\n      swap1\n      pop\n        /* \"#utility.yul\":7013:7406   */\n      jump(tag_427)\n    tag_429:\n        /* \"#utility.yul\":7017:7031   */\n      pop\n        /* \"#utility.yul\":7422:7426   */\n      dup3\n        /* \"#utility.yul\":7415:7426   */\n      swap8\n      pop\n        /* \"#utility.yul\":7442:7445   */\n      dup8\n        /* \"#utility.yul\":7435:7445   */\n      swap6\n      pop\n        /* \"#utility.yul\":6610:7451   */\n      pop\n      pop\n      pop\n      pop\n      pop\n      swap3\n      swap2\n      pop\n      pop\n      jump\t// out\n        /* \"#utility.yul\":7457:7566   */\n    tag_433:\n        /* \"#utility.yul\":7538:7559   */\n      tag_435\n        /* \"#utility.yul\":7553:7558   */\n      dup2\n        /* \"#utility.yul\":7538:7559   */\n      tag_436\n      jump\t// in\n    tag_435:\n        /* \"#utility.yul\":7533:7536   */\n      dup3\n        /* \"#utility.yul\":7526:7560   */\n      mstore\n        /* \"#utility.yul\":7516:7566   */\n      pop\n      pop\n      jump\t// out\n        /* \"#utility.yul\":7572:7912   */\n    tag_414:\n      0x00\n        /* \"#utility.yul\":7676:7714   */\n      tag_438\n        /* \"#utility.yul\":7708:7713   */\n      dup3\n        /* \"#utility.yul\":7676:7714   */\n      tag_439\n      jump\t// in\n    tag_438:\n        /* \"#utility.yul\":7730:7790   */\n      tag_440\n        /* \"#utility.yul\":7783:7789   */\n      dup2\n        /* \"#utility.yul\":7778:7781   */\n      dup6\n        /* \"#utility.yul\":7730:7790   */\n      tag_441\n      jump\t// in\n    tag_440:\n        /* \"#utility.yul\":7723:7790   */\n      swap4\n      pop\n        /* \"#utility.yul\":7799:7851   */\n      tag_442\n        /* \"#utility.yul\":7844:7850   */\n      dup2\n        /* \"#utility.yul\":7839:7842   */\n      dup6\n        /* \"#utility.yul\":7832:7836   */\n      0x20\n        /* \"#utility.yul\":7825:7830   */\n      dup7\n        /* \"#utility.yul\":7821:7837   */\n      add\n        /* \"#utility.yul\":7799:7851   */\n      tag_443\n      jump\t// in\n    tag_442:\n        /* \"#utility.yul\":7876:7905   */\n      tag_444\n        /* \"#utility.yul\":7898:7904   */\n      dup2\n        /* \"#utility.yul\":7876:7905   */\n      tag_445\n      jump\t// in\n    tag_444:\n        /* \"#utility.yul\":7871:7874   */\n      dup5\n        /* \"#utility.yul\":7867:7906   */\n      add\n        /* \"#utility.yul\":7860:7906   */\n      swap2\n      pop\n        /* \"#utility.yul\":7652:7912   */\n      pop\n      swap3\n      swap2\n      pop\n      pop\n      jump\t// out\n        /* \"#utility.yul\":7918:8278   */\n    tag_446:\n      0x00\n        /* \"#utility.yul\":8032:8070   */\n      tag_448\n        /* \"#utility.yul\":8064:8069   */\n      dup3\n        /* \"#utility.yul\":8032:8070   */\n      tag_439\n      jump\t// in\n    tag_448:\n        /* \"#utility.yul\":8086:8156   */\n      tag_449\n        /* \"#utility.yul\":8149:8155   */\n      dup2\n        /* \"#utility.yul\":8144:8147   */\n      dup6\n        /* \"#utility.yul\":8086:8156   */\n      tag_450\n      jump\t// in\n    tag_449:\n        /* \"#utility.yul\":8079:8156   */\n      swap4\n      pop\n        /* \"#utility.yul\":8165:8217   */\n      tag_451\n        /* \"#utility.yul\":8210:8216   */\n      dup2\n        /* \"#utility.yul\":8205:8208   */\n      dup6\n        /* \"#utility.yul\":8198:8202   */\n      0x20\n        /* \"#utility.yul\":8191:8196   */\n      dup7\n        /* \"#utility.yul\":8187:8203   */\n      add\n        /* \"#utility.yul\":8165:8217   */\n      tag_443\n      jump\t// in\n    tag_451:\n        /* \"#utility.yul\":8242:8271   */\n      tag_452\n        /* \"#utility.yul\":8264:8270   */\n      dup2\n        /* \"#utility.yul\":8242:8271   */\n      tag_445\n      jump\t// in\n    tag_452:\n        /* \"#utility.yul\":8237:8240   */\n      dup5\n        /* \"#utility.yul\":8233:8272   */\n      add\n        /* \"#utility.yul\":8226:8272   */\n      swap2\n      pop\n        /* \"#utility.yul\":8008:8278   */\n      pop\n      swap3\n      swap2\n      pop\n      pop\n      jump\t// out\n        /* \"#utility.yul\":8284:8650   */\n    tag_453:\n      0x00\n        /* \"#utility.yul\":8447:8514   */\n      tag_455\n        /* \"#utility.yul\":8511:8513   */\n      0x22\n        /* \"#utility.yul\":8506:8509   */\n      dup4\n        /* \"#utility.yul\":8447:8514   */\n      tag_456\n      jump\t// in\n    tag_455:\n        /* \"#utility.yul\":8440:8514   */\n      swap2\n      pop\n        /* \"#utility.yul\":8544:8578   */\n      0x43616c6c657220697320616c726561647920696e2074686520636f6d6d697474\n        /* \"#utility.yul\":8540:8541   */\n      0x00\n        /* \"#utility.yul\":8535:8538   */\n      dup4\n        /* \"#utility.yul\":8531:8542   */\n      add\n        /* \"#utility.yul\":8524:8579   */\n      mstore\n        /* \"#utility.yul\":8610:8614   */\n      0x6565000000000000000000000000000000000000000000000000000000000000\n        /* \"#utility.yul\":8605:8607   */\n      0x20\n        /* \"#utility.yul\":8600:8603   */\n      dup4\n        /* \"#utility.yul\":8596:8608   */\n      add\n        /* \"#utility.yul\":8589:8615   */\n      mstore\n        /* \"#utility.yul\":8641:8643   */\n      0x40\n        /* \"#utility.yul\":8636:8639   */\n      dup3\n        /* \"#utility.yul\":8632:8644   */\n      add\n        /* \"#utility.yul\":8625:8644   */\n      swap1\n      pop\n        /* \"#utility.yul\":8430:8650   */\n      swap2\n      swap1\n      pop\n      jump\t// out\n        /* \"#utility.yul\":8656:8979   */\n    tag_457:\n      0x00\n        /* \"#utility.yul\":8819:8886   */\n      tag_459\n        /* \"#utility.yul\":8883:8885   */\n      0x19\n        /* \"#utility.yul\":8878:8881   */\n      dup4\n        /* \"#utility.yul\":8819:8886   */\n      tag_456\n      jump\t// in\n    tag_459:\n        /* \"#utility.yul\":8812:8886   */\n      swap2\n      pop\n        /* \"#utility.yul\":8916:8943   */\n      0x436f6d6d6974746565206973206e6f7420696e20706c61636500000000000000\n        /* \"#utility.yul\":8912:8913   */\n      0x00\n        /* \"#utility.yul\":8907:8910   */\n      dup4\n        /* \"#utility.yul\":8903:8914   */\n      add\n        /* \"#utility.yul\":8896:8944   */\n      mstore\n        /* \"#utility.yul\":8970:8972   */\n      0x20\n        /* \"#utility.yul\":8965:8968   */\n      dup3\n        /* \"#utility.yul\":8961:8973   */\n      add\n        /* \"#utility.yul\":8954:8973   */\n      swap1\n      pop\n        /* \"#utility.yul\":8802:8979   */\n      swap2\n      swap1\n      pop\n      jump\t// out\n        /* \"#utility.yul\":8985:9306   */\n    tag_460:\n      0x00\n        /* \"#utility.yul\":9148:9215   */\n      tag_462\n        /* \"#utility.yul\":9212:9214   */\n      0x17\n        /* \"#utility.yul\":9207:9210   */\n      dup4\n        /* \"#utility.yul\":9148:9215   */\n      tag_456\n      jump\t// in\n    tag_462:\n        /* \"#utility.yul\":9141:9215   */\n      swap2\n      pop\n        /* \"#utility.yul\":9245:9270   */\n      0x43616c6c6572206973206e6f7420746865206f776e6572000000000000000000\n        /* \"#utility.yul\":9241:9242   */\n      0x00\n        /* \"#utility.yul\":9236:9239   */\n      dup4\n        /* \"#utility.yul\":9232:9243   */\n      add\n        /* \"#utility.yul\":9225:9271   */\n      mstore\n        /* \"#utility.yul\":9297:9299   */\n      0x20\n        /* \"#utility.yul\":9292:9295   */\n      dup3\n        /* \"#utility.yul\":9288:9300   */\n      add\n        /* \"#utility.yul\":9281:9300   */\n      swap1\n      pop\n        /* \"#utility.yul\":9131:9306   */\n      swap2\n      swap1\n      pop\n      jump\t// out\n        /* \"#utility.yul\":9312:9624   */\n    tag_463:\n      0x00\n        /* \"#utility.yul\":9475:9542   */\n      tag_465\n        /* \"#utility.yul\":9539:9541   */\n      0x0e\n        /* \"#utility.yul\":9534:9537   */\n      dup4\n        /* \"#utility.yul\":9475:9542   */\n      tag_456\n      jump\t// in\n    tag_465:\n        /* \"#utility.yul\":9468:9542   */\n      swap2\n      pop\n        /* \"#utility.yul\":9572:9588   */\n      0x4e6f7420656e6f75676820666565000000000000000000000000000000000000\n        /* \"#utility.yul\":9568:9569   */\n      0x00\n        /* \"#utility.yul\":9563:9566   */\n      dup4\n        /* \"#utility.yul\":9559:9570   */\n      add\n        /* \"#utility.yul\":9552:9589   */\n      mstore\n        /* \"#utility.yul\":9615:9617   */\n      0x20\n        /* \"#utility.yul\":9610:9613   */\n      dup3\n        /* \"#utility.yul\":9606:9618   */\n      add\n        /* \"#utility.yul\":9599:9618   */\n      swap1\n      pop\n        /* \"#utility.yul\":9458:9624   */\n      swap2\n      swap1\n      pop\n      jump\t// out\n        /* \"#utility.yul\":9630:9949   */\n    tag_466:\n      0x00\n        /* \"#utility.yul\":9793:9860   */\n      tag_468\n        /* \"#utility.yul\":9857:9859   */\n      0x15\n        /* \"#utility.yul\":9852:9855   */\n      dup4\n        /* \"#utility.yul\":9793:9860   */\n      tag_456\n      jump\t// in\n    tag_468:\n        /* \"#utility.yul\":9786:9860   */\n      swap2\n      pop\n        /* \"#utility.yul\":9890:9913   */\n      0x4e6f207265776172647320746f20636f6c6c6563740000000000000000000000\n        /* \"#utility.yul\":9886:9887   */\n      0x00\n        /* \"#utility.yul\":9881:9884   */\n      dup4\n        /* \"#utility.yul\":9877:9888   */\n      add\n        /* \"#utility.yul\":9870:9914   */\n      mstore\n        /* \"#utility.yul\":9940:9942   */\n      0x20\n        /* \"#utility.yul\":9935:9938   */\n      dup3\n        /* \"#utility.yul\":9931:9943   */\n      add\n        /* \"#utility.yul\":9924:9943   */\n      swap1\n      pop\n        /* \"#utility.yul\":9776:9949   */\n      swap2\n      swap1\n      pop\n      jump\t// out\n        /* \"#utility.yul\":9955:10270   */\n    tag_469:\n      0x00\n        /* \"#utility.yul\":10118:10185   */\n      tag_471\n        /* \"#utility.yul\":10182:10184   */\n      0x11\n        /* \"#utility.yul\":10177:10180   */\n      dup4\n        /* \"#utility.yul\":10118:10185   */\n      tag_456\n      jump\t// in\n    tag_471:\n        /* \"#utility.yul\":10111:10185   */\n      swap2\n      pop\n        /* \"#utility.yul\":10215:10234   */\n      0x436f6d6d69747465652069732066756c6c000000000000000000000000000000\n        /* \"#utility.yul\":10211:10212   */\n      0x00\n        /* \"#utility.yul\":10206:10209   */\n      dup4\n        /* \"#utility.yul\":10202:10213   */\n      add\n        /* \"#utility.yul\":10195:10235   */\n      mstore\n        /* \"#utility.yul\":10261:10263   */\n      0x20\n        /* \"#utility.yul\":10256:10259   */\n      dup3\n        /* \"#utility.yul\":10252:10264   */\n      add\n        /* \"#utility.yul\":10245:10264   */\n      swap1\n      pop\n        /* \"#utility.yul\":10101:10270   */\n      swap2\n      swap1\n      pop\n      jump\t// out\n        /* \"#utility.yul\":10276:10647   */\n    tag_472:\n      0x00\n        /* \"#utility.yul\":10439:10506   */\n      tag_474\n        /* \"#utility.yul\":10503:10505   */\n      0x27\n        /* \"#utility.yul\":10498:10501   */\n      dup4\n        /* \"#utility.yul\":10439:10506   */\n      tag_456\n      jump\t// in\n    tag_474:\n        /* \"#utility.yul\":10432:10506   */\n      swap2\n      pop\n        /* \"#utility.yul\":10536:10570   */\n      0x4469737075746564206d656d626572206973206e6f7420696e2074686520636f\n        /* \"#utility.yul\":10532:10533   */\n      0x00\n        /* \"#utility.yul\":10527:10530   */\n      dup4\n        /* \"#utility.yul\":10523:10534   */\n      add\n        /* \"#utility.yul\":10516:10571   */\n      mstore\n        /* \"#utility.yul\":10602:10611   */\n      0x6d6d697474656500000000000000000000000000000000000000000000000000\n        /* \"#utility.yul\":10597:10599   */\n      0x20\n        /* \"#utility.yul\":10592:10595   */\n      dup4\n        /* \"#utility.yul\":10588:10600   */\n      add\n        /* \"#utility.yul\":10581:10612   */\n      mstore\n        /* \"#utility.yul\":10638:10640   */\n      0x40\n        /* \"#utility.yul\":10633:10636   */\n      dup3\n        /* \"#utility.yul\":10629:10641   */\n      add\n        /* \"#utility.yul\":10622:10641   */\n      swap1\n      pop\n        /* \"#utility.yul\":10422:10647   */\n      swap2\n      swap1\n      pop\n      jump\t// out\n        /* \"#utility.yul\":10653:11088   */\n    tag_475:\n      0x00\n        /* \"#utility.yul\":10816:10883   */\n      tag_477\n        /* \"#utility.yul\":10880:10882   */\n      0x45\n        /* \"#utility.yul\":10875:10878   */\n      dup4\n        /* \"#utility.yul\":10816:10883   */\n      tag_456\n      jump\t// in\n    tag_477:\n        /* \"#utility.yul\":10809:10883   */\n      swap2\n      pop\n        /* \"#utility.yul\":10913:10947   */\n      0x596f75207374696c6c2068617665207461736b732c20706c656173652066696e\n        /* \"#utility.yul\":10909:10910   */\n      0x00\n        /* \"#utility.yul\":10904:10907   */\n      dup4\n        /* \"#utility.yul\":10900:10911   */\n      add\n        /* \"#utility.yul\":10893:10948   */\n      mstore\n        /* \"#utility.yul\":10979:11013   */\n      0x697368206578697374696e67207461736b73206f722064656c65676174652074\n        /* \"#utility.yul\":10974:10976   */\n      0x20\n        /* \"#utility.yul\":10969:10972   */\n      dup4\n        /* \"#utility.yul\":10965:10977   */\n      add\n        /* \"#utility.yul\":10958:11014   */\n      mstore\n        /* \"#utility.yul\":11045:11052   */\n      0x61736b732e000000000000000000000000000000000000000000000000000000\n        /* \"#utility.yul\":11040:11042   */\n      0x40\n        /* \"#utility.yul\":11035:11038   */\n      dup4\n        /* \"#utility.yul\":11031:11043   */\n      add\n        /* \"#utility.yul\":11024:11053   */\n      mstore\n        /* \"#utility.yul\":11079:11081   */\n      0x60\n        /* \"#utility.yul\":11074:11077   */\n      dup3\n        /* \"#utility.yul\":11070:11082   */\n      add\n        /* \"#utility.yul\":11063:11082   */\n      swap1\n      pop\n        /* \"#utility.yul\":10799:11088   */\n      swap2\n      swap1\n      pop\n      jump\t// out\n        /* \"#utility.yul\":11094:11463   */\n    tag_478:\n      0x00\n        /* \"#utility.yul\":11257:11324   */\n      tag_480\n        /* \"#utility.yul\":11321:11323   */\n      0x25\n        /* \"#utility.yul\":11316:11319   */\n      dup4\n        /* \"#utility.yul\":11257:11324   */\n      tag_456\n      jump\t// in\n    tag_480:\n        /* \"#utility.yul\":11250:11324   */\n      swap2\n      pop\n        /* \"#utility.yul\":11354:11388   */\n      0x44656372797074696f6e2074696d65206d75737420626520696e207468652066\n        /* \"#utility.yul\":11350:11351   */\n      0x00\n        /* \"#utility.yul\":11345:11348   */\n      dup4\n        /* \"#utility.yul\":11341:11352   */\n      add\n        /* \"#utility.yul\":11334:11389   */\n      mstore\n        /* \"#utility.yul\":11420:11427   */\n      0x7574757265000000000000000000000000000000000000000000000000000000\n        /* \"#utility.yul\":11415:11417   */\n      0x20\n        /* \"#utility.yul\":11410:11413   */\n      dup4\n        /* \"#utility.yul\":11406:11418   */\n      add\n        /* \"#utility.yul\":11399:11428   */\n      mstore\n        /* \"#utility.yul\":11454:11456   */\n      0x40\n        /* \"#utility.yul\":11449:11452   */\n      dup3\n        /* \"#utility.yul\":11445:11457   */\n      add\n        /* \"#utility.yul\":11438:11457   */\n      swap1\n      pop\n        /* \"#utility.yul\":11240:11463   */\n      swap2\n      swap1\n      pop\n      jump\t// out\n        /* \"#utility.yul\":11469:11861   */\n    tag_481:\n      0x00\n        /* \"#utility.yul\":11632:11699   */\n      tag_483\n        /* \"#utility.yul\":11696:11698   */\n      0x3c\n        /* \"#utility.yul\":11691:11694   */\n      dup4\n        /* \"#utility.yul\":11632:11699   */\n      tag_456\n      jump\t// in\n    tag_483:\n        /* \"#utility.yul\":11625:11699   */\n      swap2\n      pop\n        /* \"#utility.yul\":11729:11763   */\n      0x43616c6c65722068617320616c7265616479207265706f727465642074686973\n        /* \"#utility.yul\":11725:11726   */\n      0x00\n        /* \"#utility.yul\":11720:11723   */\n      dup4\n        /* \"#utility.yul\":11716:11727   */\n      add\n        /* \"#utility.yul\":11709:11764   */\n      mstore\n        /* \"#utility.yul\":11795:11825   */\n      0x206d656d62657220666f722074686973207472616e73616374696f6e00000000\n        /* \"#utility.yul\":11790:11792   */\n      0x20\n        /* \"#utility.yul\":11785:11788   */\n      dup4\n        /* \"#utility.yul\":11781:11793   */\n      add\n        /* \"#utility.yul\":11774:11826   */\n      mstore\n        /* \"#utility.yul\":11852:11854   */\n      0x40\n        /* \"#utility.yul\":11847:11850   */\n      dup3\n        /* \"#utility.yul\":11843:11855   */\n      add\n        /* \"#utility.yul\":11836:11855   */\n      swap1\n      pop\n        /* \"#utility.yul\":11615:11861   */\n      swap2\n      swap1\n      pop\n      jump\t// out\n        /* \"#utility.yul\":11867:12192   */\n    tag_484:\n      0x00\n        /* \"#utility.yul\":12030:12097   */\n      tag_486\n        /* \"#utility.yul\":12094:12096   */\n      0x1b\n        /* \"#utility.yul\":12089:12092   */\n      dup4\n        /* \"#utility.yul\":12030:12097   */\n      tag_456\n      jump\t// in\n    tag_486:\n        /* \"#utility.yul\":12023:12097   */\n      swap2\n      pop\n        /* \"#utility.yul\":12127:12156   */\n      0x44656372797074696f6e2074696d65206e6f7420726561636865640000000000\n        /* \"#utility.yul\":12123:12124   */\n      0x00\n        /* \"#utility.yul\":12118:12121   */\n      dup4\n        /* \"#utility.yul\":12114:12125   */\n      add\n        /* \"#utility.yul\":12107:12157   */\n      mstore\n        /* \"#utility.yul\":12183:12185   */\n      0x20\n        /* \"#utility.yul\":12178:12181   */\n      dup3\n        /* \"#utility.yul\":12174:12186   */\n      add\n        /* \"#utility.yul\":12167:12186   */\n      swap1\n      pop\n        /* \"#utility.yul\":12013:12192   */\n      swap2\n      swap1\n      pop\n      jump\t// out\n        /* \"#utility.yul\":12198:12528   */\n    tag_487:\n      0x00\n        /* \"#utility.yul\":12361:12428   */\n      tag_489\n        /* \"#utility.yul\":12425:12427   */\n      0x20\n        /* \"#utility.yul\":12420:12423   */\n      dup4\n        /* \"#utility.yul\":12361:12428   */\n      tag_456\n      jump\t// in\n    tag_489:\n        /* \"#utility.yul\":12354:12428   */\n      swap2\n      pop\n        /* \"#utility.yul\":12458:12492   */\n      0x43616c6c6572206973206e6f74206120636f6d6d6974746565206d656d626572\n        /* \"#utility.yul\":12454:12455   */\n      0x00\n        /* \"#utility.yul\":12449:12452   */\n      dup4\n        /* \"#utility.yul\":12445:12456   */\n      add\n        /* \"#utility.yul\":12438:12493   */\n      mstore\n        /* \"#utility.yul\":12519:12521   */\n      0x20\n        /* \"#utility.yul\":12514:12517   */\n      dup3\n        /* \"#utility.yul\":12510:12522   */\n      add\n        /* \"#utility.yul\":12503:12522   */\n      swap1\n      pop\n        /* \"#utility.yul\":12344:12528   */\n      swap2\n      swap1\n      pop\n      jump\t// out\n        /* \"#utility.yul\":12534:12854   */\n    tag_490:\n      0x00\n        /* \"#utility.yul\":12697:12764   */\n      tag_492\n        /* \"#utility.yul\":12761:12763   */\n      0x16\n        /* \"#utility.yul\":12756:12759   */\n      dup4\n        /* \"#utility.yul\":12697:12764   */\n      tag_456\n      jump\t// in\n    tag_492:\n        /* \"#utility.yul\":12690:12764   */\n      swap2\n      pop\n        /* \"#utility.yul\":12794:12818   */\n      0x496e76616c6964207472616e73616374696f6e20494400000000000000000000\n        /* \"#utility.yul\":12790:12791   */\n      0x00\n        /* \"#utility.yul\":12785:12788   */\n      dup4\n        /* \"#utility.yul\":12781:12792   */\n      add\n        /* \"#utility.yul\":12774:12819   */\n      mstore\n        /* \"#utility.yul\":12845:12847   */\n      0x20\n        /* \"#utility.yul\":12840:12843   */\n      dup3\n        /* \"#utility.yul\":12836:12848   */\n      add\n        /* \"#utility.yul\":12829:12848   */\n      swap1\n      pop\n        /* \"#utility.yul\":12680:12854   */\n      swap2\n      swap1\n      pop\n      jump\t// out\n        /* \"#utility.yul\":12860:13176   */\n    tag_493:\n      0x00\n        /* \"#utility.yul\":13023:13090   */\n      tag_495\n        /* \"#utility.yul\":13087:13089   */\n      0x12\n        /* \"#utility.yul\":13082:13085   */\n      dup4\n        /* \"#utility.yul\":13023:13090   */\n      tag_456\n      jump\t// in\n    tag_495:\n        /* \"#utility.yul\":13016:13090   */\n      swap2\n      pop\n        /* \"#utility.yul\":13120:13140   */\n      0x4e6f7420656e6f756768206465706f7369740000000000000000000000000000\n        /* \"#utility.yul\":13116:13117   */\n      0x00\n        /* \"#utility.yul\":13111:13114   */\n      dup4\n        /* \"#utility.yul\":13107:13118   */\n      add\n        /* \"#utility.yul\":13100:13141   */\n      mstore\n        /* \"#utility.yul\":13167:13169   */\n      0x20\n        /* \"#utility.yul\":13162:13165   */\n      dup3\n        /* \"#utility.yul\":13158:13170   */\n      add\n        /* \"#utility.yul\":13151:13170   */\n      swap1\n      pop\n        /* \"#utility.yul\":13006:13176   */\n      swap2\n      swap1\n      pop\n      jump\t// out\n        /* \"#utility.yul\":13182:13300   */\n    tag_496:\n        /* \"#utility.yul\":13269:13293   */\n      tag_498\n        /* \"#utility.yul\":13287:13292   */\n      dup2\n        /* \"#utility.yul\":13269:13293   */\n      tag_499\n      jump\t// in\n    tag_498:\n        /* \"#utility.yul\":13264:13267   */\n      dup3\n        /* \"#utility.yul\":13257:13294   */\n      mstore\n        /* \"#utility.yul\":13247:13300   */\n      pop\n      pop\n      jump\t// out\n        /* \"#utility.yul\":13306:13528   */\n    tag_86:\n      0x00\n        /* \"#utility.yul\":13437:13439   */\n      0x20\n        /* \"#utility.yul\":13426:13435   */\n      dup3\n        /* \"#utility.yul\":13422:13440   */\n      add\n        /* \"#utility.yul\":13414:13440   */\n      swap1\n      pop\n        /* \"#utility.yul\":13450:13521   */\n      tag_501\n        /* \"#utility.yul\":13518:13519   */\n      0x00\n        /* \"#utility.yul\":13507:13516   */\n      dup4\n        /* \"#utility.yul\":13503:13520   */\n      add\n        /* \"#utility.yul\":13494:13500   */\n      dup5\n        /* \"#utility.yul\":13450:13521   */\n      tag_415\n      jump\t// in\n    tag_501:\n        /* \"#utility.yul\":13404:13528   */\n      swap3\n      swap2\n      pop\n      pop\n      jump\t// out\n        /* \"#utility.yul\":13534:13866   */\n    tag_54:\n      0x00\n        /* \"#utility.yul\":13693:13695   */\n      0x40\n        /* \"#utility.yul\":13682:13691   */\n      dup3\n        /* \"#utility.yul\":13678:13696   */\n      add\n        /* \"#utility.yul\":13670:13696   */\n      swap1\n      pop\n        /* \"#utility.yul\":13706:13777   */\n      tag_503\n        /* \"#utility.yul\":13774:13775   */\n      0x00\n        /* \"#utility.yul\":13763:13772   */\n      dup4\n        /* \"#utility.yul\":13759:13776   */\n      add\n        /* \"#utility.yul\":13750:13756   */\n      dup6\n        /* \"#utility.yul\":13706:13777   */\n      tag_415\n      jump\t// in\n    tag_503:\n        /* \"#utility.yul\":13787:13859   */\n      tag_504\n        /* \"#utility.yul\":13855:13857   */\n      0x20\n        /* \"#utility.yul\":13844:13853   */\n      dup4\n        /* \"#utility.yul\":13840:13858   */\n      add\n        /* \"#utility.yul\":13831:13837   */\n      dup5\n        /* \"#utility.yul\":13787:13859   */\n      tag_415\n      jump\t// in\n    tag_504:\n        /* \"#utility.yul\":13660:13866   */\n      swap4\n      swap3\n      pop\n      pop\n      pop\n      jump\t// out\n        /* \"#utility.yul\":13872:14401   */\n    tag_186:\n      0x00\n        /* \"#utility.yul\":14077:14079   */\n      0x60\n        /* \"#utility.yul\":14066:14075   */\n      dup3\n        /* \"#utility.yul\":14062:14080   */\n      add\n        /* \"#utility.yul\":14054:14080   */\n      swap1\n      pop\n        /* \"#utility.yul\":14090:14161   */\n      tag_506\n        /* \"#utility.yul\":14158:14159   */\n      0x00\n        /* \"#utility.yul\":14147:14156   */\n      dup4\n        /* \"#utility.yul\":14143:14160   */\n      add\n        /* \"#utility.yul\":14134:14140   */\n      dup7\n        /* \"#utility.yul\":14090:14161   */\n      tag_415\n      jump\t// in\n    tag_506:\n        /* \"#utility.yul\":14171:14243   */\n      tag_507\n        /* \"#utility.yul\":14239:14241   */\n      0x20\n        /* \"#utility.yul\":14228:14237   */\n      dup4\n        /* \"#utility.yul\":14224:14242   */\n      add\n        /* \"#utility.yul\":14215:14221   */\n      dup6\n        /* \"#utility.yul\":14171:14243   */\n      tag_496\n      jump\t// in\n    tag_507:\n        /* \"#utility.yul\":14290:14299   */\n      dup2\n        /* \"#utility.yul\":14284:14288   */\n      dup2\n        /* \"#utility.yul\":14280:14300   */\n      sub\n        /* \"#utility.yul\":14275:14277   */\n      0x40\n        /* \"#utility.yul\":14264:14273   */\n      dup4\n        /* \"#utility.yul\":14260:14278   */\n      add\n        /* \"#utility.yul\":14253:14301   */\n      mstore\n        /* \"#utility.yul\":14318:14394   */\n      tag_508\n        /* \"#utility.yul\":14389:14393   */\n      dup2\n        /* \"#utility.yul\":14380:14386   */\n      dup5\n        /* \"#utility.yul\":14318:14394   */\n      tag_446\n      jump\t// in\n    tag_508:\n        /* \"#utility.yul\":14310:14394   */\n      swap1\n      pop\n        /* \"#utility.yul\":14044:14401   */\n      swap5\n      swap4\n      pop\n      pop\n      pop\n      pop\n      jump\t// out\n        /* \"#utility.yul\":14407:14617   */\n    tag_127:\n      0x00\n        /* \"#utility.yul\":14532:14534   */\n      0x20\n        /* \"#utility.yul\":14521:14530   */\n      dup3\n        /* \"#utility.yul\":14517:14535   */\n      add\n        /* \"#utility.yul\":14509:14535   */\n      swap1\n      pop\n        /* \"#utility.yul\":14545:14610   */\n      tag_510\n        /* \"#utility.yul\":14607:14608   */\n      0x00\n        /* \"#utility.yul\":14596:14605   */\n      dup4\n        /* \"#utility.yul\":14592:14609   */\n      add\n        /* \"#utility.yul\":14583:14589   */\n      dup5\n        /* \"#utility.yul\":14545:14610   */\n      tag_433\n      jump\t// in\n    tag_510:\n        /* \"#utility.yul\":14499:14617   */\n      swap3\n      swap2\n      pop\n      pop\n      jump\t// out\n        /* \"#utility.yul\":14623:15042   */\n    tag_115:\n      0x00\n        /* \"#utility.yul\":14800:14802   */\n      0x40\n        /* \"#utility.yul\":14789:14798   */\n      dup3\n        /* \"#utility.yul\":14785:14803   */\n      add\n        /* \"#utility.yul\":14777:14803   */\n      swap1\n      pop\n        /* \"#utility.yul\":14849:14858   */\n      dup2\n        /* \"#utility.yul\":14843:14847   */\n      dup2\n        /* \"#utility.yul\":14839:14859   */\n      sub\n        /* \"#utility.yul\":14835:14836   */\n      0x00\n        /* \"#utility.yul\":14824:14833   */\n      dup4\n        /* \"#utility.yul\":14820:14837   */\n      add\n        /* \"#utility.yul\":14813:14860   */\n      mstore\n        /* \"#utility.yul\":14877:14953   */\n      tag_512\n        /* \"#utility.yul\":14948:14952   */\n      dup2\n        /* \"#utility.yul\":14939:14945   */\n      dup6\n        /* \"#utility.yul\":14877:14953   */\n      tag_446\n      jump\t// in\n    tag_512:\n        /* \"#utility.yul\":14869:14953   */\n      swap1\n      pop\n        /* \"#utility.yul\":14963:15035   */\n      tag_513\n        /* \"#utility.yul\":15031:15033   */\n      0x20\n        /* \"#utility.yul\":15020:15029   */\n      dup4\n        /* \"#utility.yul\":15016:15034   */\n      add\n        /* \"#utility.yul\":15007:15013   */\n      dup5\n        /* \"#utility.yul\":14963:15035   */\n      tag_496\n      jump\t// in\n    tag_513:\n        /* \"#utility.yul\":14767:15042   */\n      swap4\n      swap3\n      pop\n      pop\n      pop\n      jump\t// out\n        /* \"#utility.yul\":15048:15467   */\n    tag_179:\n      0x00\n        /* \"#utility.yul\":15252:15254   */\n      0x20\n        /* \"#utility.yul\":15241:15250   */\n      dup3\n        /* \"#utility.yul\":15237:15255   */\n      add\n        /* \"#utility.yul\":15229:15255   */\n      swap1\n      pop\n        /* \"#utility.yul\":15301:15310   */\n      dup2\n        /* \"#utility.yul\":15295:15299   */\n      dup2\n        /* \"#utility.yul\":15291:15311   */\n      sub\n        /* \"#utility.yul\":15287:15288   */\n      0x00\n        /* \"#utility.yul\":15276:15285   */\n      dup4\n        /* \"#utility.yul\":15272:15289   */\n      add\n        /* \"#utility.yul\":15265:15312   */\n      mstore\n        /* \"#utility.yul\":15329:15460   */\n      tag_515\n        /* \"#utility.yul\":15455:15459   */\n      dup2\n        /* \"#utility.yul\":15329:15460   */\n      tag_453\n      jump\t// in\n    tag_515:\n        /* \"#utility.yul\":15321:15460   */\n      swap1\n      pop\n        /* \"#utility.yul\":15219:15467   */\n      swap2\n      swap1\n      pop\n      jump\t// out\n        /* \"#utility.yul\":15473:15892   */\n    tag_229:\n      0x00\n        /* \"#utility.yul\":15677:15679   */\n      0x20\n        /* \"#utility.yul\":15666:15675   */\n      dup3\n        /* \"#utility.yul\":15662:15680   */\n      add\n        /* \"#utility.yul\":15654:15680   */\n      swap1\n      pop\n        /* \"#utility.yul\":15726:15735   */\n      dup2\n        /* \"#utility.yul\":15720:15724   */\n      dup2\n        /* \"#utility.yul\":15716:15736   */\n      sub\n        /* \"#utility.yul\":15712:15713   */\n      0x00\n        /* \"#utility.yul\":15701:15710   */\n      dup4\n        /* \"#utility.yul\":15697:15714   */\n      add\n        /* \"#utility.yul\":15690:15737   */\n      mstore\n        /* \"#utility.yul\":15754:15885   */\n      tag_517\n        /* \"#utility.yul\":15880:15884   */\n      dup2\n        /* \"#utility.yul\":15754:15885   */\n      tag_457\n      jump\t// in\n    tag_517:\n        /* \"#utility.yul\":15746:15885   */\n      swap1\n      pop\n        /* \"#utility.yul\":15644:15892   */\n      swap2\n      swap1\n      pop\n      jump\t// out\n        /* \"#utility.yul\":15898:16317   */\n    tag_146:\n      0x00\n        /* \"#utility.yul\":16102:16104   */\n      0x20\n        /* \"#utility.yul\":16091:16100   */\n      dup3\n        /* \"#utility.yul\":16087:16105   */\n      add\n        /* \"#utility.yul\":16079:16105   */\n      swap1\n      pop\n        /* \"#utility.yul\":16151:16160   */\n      dup2\n        /* \"#utility.yul\":16145:16149   */\n      dup2\n        /* \"#utility.yul\":16141:16161   */\n      sub\n        /* \"#utility.yul\":16137:16138   */\n      0x00\n        /* \"#utility.yul\":16126:16135   */\n      dup4\n        /* \"#utility.yul\":16122:16139   */\n      add\n        /* \"#utility.yul\":16115:16162   */\n      mstore\n        /* \"#utility.yul\":16179:16310   */\n      tag_519\n        /* \"#utility.yul\":16305:16309   */\n      dup2\n        /* \"#utility.yul\":16179:16310   */\n      tag_460\n      jump\t// in\n    tag_519:\n        /* \"#utility.yul\":16171:16310   */\n      swap1\n      pop\n        /* \"#utility.yul\":16069:16317   */\n      swap2\n      swap1\n      pop\n      jump\t// out\n        /* \"#utility.yul\":16323:16742   */\n    tag_239:\n      0x00\n        /* \"#utility.yul\":16527:16529   */\n      0x20\n        /* \"#utility.yul\":16516:16525   */\n      dup3\n        /* \"#utility.yul\":16512:16530   */\n      add\n        /* \"#utility.yul\":16504:16530   */\n      swap1\n      pop\n        /* \"#utility.yul\":16576:16585   */\n      dup2\n        /* \"#utility.yul\":16570:16574   */\n      dup2\n        /* \"#utility.yul\":16566:16586   */\n      sub\n        /* \"#utility.yul\":16562:16563   */\n      0x00\n        /* \"#utility.yul\":16551:16560   */\n      dup4\n        /* \"#utility.yul\":16547:16564   */\n      add\n        /* \"#utility.yul\":16540:16587   */\n      mstore\n        /* \"#utility.yul\":16604:16735   */\n      tag_521\n        /* \"#utility.yul\":16730:16734   */\n      dup2\n        /* \"#utility.yul\":16604:16735   */\n      tag_463\n      jump\t// in\n    tag_521:\n        /* \"#utility.yul\":16596:16735   */\n      swap1\n      pop\n        /* \"#utility.yul\":16494:16742   */\n      swap2\n      swap1\n      pop\n      jump\t// out\n        /* \"#utility.yul\":16748:17167   */\n    tag_214:\n      0x00\n        /* \"#utility.yul\":16952:16954   */\n      0x20\n        /* \"#utility.yul\":16941:16950   */\n      dup3\n        /* \"#utility.yul\":16937:16955   */\n      add\n        /* \"#utility.yul\":16929:16955   */\n      swap1\n      pop\n        /* \"#utility.yul\":17001:17010   */\n      dup2\n        /* \"#utility.yul\":16995:16999   */\n      dup2\n        /* \"#utility.yul\":16991:17011   */\n      sub\n        /* \"#utility.yul\":16987:16988   */\n      0x00\n        /* \"#utility.yul\":16976:16985   */\n      dup4\n        /* \"#utility.yul\":16972:16989   */\n      add\n        /* \"#utility.yul\":16965:17012   */\n      mstore\n        /* \"#utility.yul\":17029:17160   */\n      tag_523\n        /* \"#utility.yul\":17155:17159   */\n      dup2\n        /* \"#utility.yul\":17029:17160   */\n      tag_466\n      jump\t// in\n    tag_523:\n        /* \"#utility.yul\":17021:17160   */\n      swap1\n      pop\n        /* \"#utility.yul\":16919:17167   */\n      swap2\n      swap1\n      pop\n      jump\t// out\n        /* \"#utility.yul\":17173:17592   */\n    tag_176:\n      0x00\n        /* \"#utility.yul\":17377:17379   */\n      0x20\n        /* \"#utility.yul\":17366:17375   */\n      dup3\n        /* \"#utility.yul\":17362:17380   */\n      add\n        /* \"#utility.yul\":17354:17380   */\n      swap1\n      pop\n        /* \"#utility.yul\":17426:17435   */\n      dup2\n        /* \"#utility.yul\":17420:17424   */\n      dup2\n        /* \"#utility.yul\":17416:17436   */\n      sub\n        /* \"#utility.yul\":17412:17413   */\n      0x00\n        /* \"#utility.yul\":17401:17410   */\n      dup4\n        /* \"#utility.yul\":17397:17414   */\n      add\n        /* \"#utility.yul\":17390:17437   */\n      mstore\n        /* \"#utility.yul\":17454:17585   */\n      tag_525\n        /* \"#utility.yul\":17580:17584   */\n      dup2\n        /* \"#utility.yul\":17454:17585   */\n      tag_469\n      jump\t// in\n    tag_525:\n        /* \"#utility.yul\":17446:17585   */\n      swap1\n      pop\n        /* \"#utility.yul\":17344:17592   */\n      swap2\n      swap1\n      pop\n      jump\t// out\n        /* \"#utility.yul\":17598:18017   */\n    tag_272:\n      0x00\n        /* \"#utility.yul\":17802:17804   */\n      0x20\n        /* \"#utility.yul\":17791:17800   */\n      dup3\n        /* \"#utility.yul\":17787:17805   */\n      add\n        /* \"#utility.yul\":17779:17805   */\n      swap1\n      pop\n        /* \"#utility.yul\":17851:17860   */\n      dup2\n        /* \"#utility.yul\":17845:17849   */\n      dup2\n        /* \"#utility.yul\":17841:17861   */\n      sub\n        /* \"#utility.yul\":17837:17838   */\n      0x00\n        /* \"#utility.yul\":17826:17835   */\n      dup4\n        /* \"#utility.yul\":17822:17839   */\n      add\n        /* \"#utility.yul\":17815:17862   */\n      mstore\n        /* \"#utility.yul\":17879:18010   */\n      tag_527\n        /* \"#utility.yul\":18005:18009   */\n      dup2\n        /* \"#utility.yul\":17879:18010   */\n      tag_472\n      jump\t// in\n    tag_527:\n        /* \"#utility.yul\":17871:18010   */\n      swap1\n      pop\n        /* \"#utility.yul\":17769:18017   */\n      swap2\n      swap1\n      pop\n      jump\t// out\n        /* \"#utility.yul\":18023:18442   */\n    tag_258:\n      0x00\n        /* \"#utility.yul\":18227:18229   */\n      0x20\n        /* \"#utility.yul\":18216:18225   */\n      dup3\n        /* \"#utility.yul\":18212:18230   */\n      add\n        /* \"#utility.yul\":18204:18230   */\n      swap1\n      pop\n        /* \"#utility.yul\":18276:18285   */\n      dup2\n        /* \"#utility.yul\":18270:18274   */\n      dup2\n        /* \"#utility.yul\":18266:18286   */\n      sub\n        /* \"#utility.yul\":18262:18263   */\n      0x00\n        /* \"#utility.yul\":18251:18260   */\n      dup4\n        /* \"#utility.yul\":18247:18264   */\n      add\n        /* \"#utility.yul\":18240:18287   */\n      mstore\n        /* \"#utility.yul\":18304:18435   */\n      tag_529\n        /* \"#utility.yul\":18430:18434   */\n      dup2\n        /* \"#utility.yul\":18304:18435   */\n      tag_475\n      jump\t// in\n    tag_529:\n        /* \"#utility.yul\":18296:18435   */\n      swap1\n      pop\n        /* \"#utility.yul\":18194:18442   */\n      swap2\n      swap1\n      pop\n      jump\t// out\n        /* \"#utility.yul\":18448:18867   */\n    tag_233:\n      0x00\n        /* \"#utility.yul\":18652:18654   */\n      0x20\n        /* \"#utility.yul\":18641:18650   */\n      dup3\n        /* \"#utility.yul\":18637:18655   */\n      add\n        /* \"#utility.yul\":18629:18655   */\n      swap1\n      pop\n        /* \"#utility.yul\":18701:18710   */\n      dup2\n        /* \"#utility.yul\":18695:18699   */\n      dup2\n        /* \"#utility.yul\":18691:18711   */\n      sub\n        /* \"#utility.yul\":18687:18688   */\n      0x00\n        /* \"#utility.yul\":18676:18685   */\n      dup4\n        /* \"#utility.yul\":18672:18689   */\n      add\n        /* \"#utility.yul\":18665:18712   */\n      mstore\n        /* \"#utility.yul\":18729:18860   */\n      tag_531\n        /* \"#utility.yul\":18855:18859   */\n      dup2\n        /* \"#utility.yul\":18729:18860   */\n      tag_478\n      jump\t// in\n    tag_531:\n        /* \"#utility.yul\":18721:18860   */\n      swap1\n      pop\n        /* \"#utility.yul\":18619:18867   */\n      swap2\n      swap1\n      pop\n      jump\t// out\n        /* \"#utility.yul\":18873:19292   */\n    tag_283:\n      0x00\n        /* \"#utility.yul\":19077:19079   */\n      0x20\n        /* \"#utility.yul\":19066:19075   */\n      dup3\n        /* \"#utility.yul\":19062:19080   */\n      add\n        /* \"#utility.yul\":19054:19080   */\n      swap1\n      pop\n        /* \"#utility.yul\":19126:19135   */\n      dup2\n        /* \"#utility.yul\":19120:19124   */\n      dup2\n        /* \"#utility.yul\":19116:19136   */\n      sub\n        /* \"#utility.yul\":19112:19113   */\n      0x00\n        /* \"#utility.yul\":19101:19110   */\n      dup4\n        /* \"#utility.yul\":19097:19114   */\n      add\n        /* \"#utility.yul\":19090:19137   */\n      mstore\n        /* \"#utility.yul\":19154:19285   */\n      tag_533\n        /* \"#utility.yul\":19280:19284   */\n      dup2\n        /* \"#utility.yul\":19154:19285   */\n      tag_481\n      jump\t// in\n    tag_533:\n        /* \"#utility.yul\":19146:19285   */\n      swap1\n      pop\n        /* \"#utility.yul\":19044:19292   */\n      swap2\n      swap1\n      pop\n      jump\t// out\n        /* \"#utility.yul\":19298:19717   */\n    tag_157:\n      0x00\n        /* \"#utility.yul\":19502:19504   */\n      0x20\n        /* \"#utility.yul\":19491:19500   */\n      dup3\n        /* \"#utility.yul\":19487:19505   */\n      add\n        /* \"#utility.yul\":19479:19505   */\n      swap1\n      pop\n        /* \"#utility.yul\":19551:19560   */\n      dup2\n        /* \"#utility.yul\":19545:19549   */\n      dup2\n        /* \"#utility.yul\":19541:19561   */\n      sub\n        /* \"#utility.yul\":19537:19538   */\n      0x00\n        /* \"#utility.yul\":19526:19535   */\n      dup4\n        /* \"#utility.yul\":19522:19539   */\n      add\n        /* \"#utility.yul\":19515:19562   */\n      mstore\n        /* \"#utility.yul\":19579:19710   */\n      tag_535\n        /* \"#utility.yul\":19705:19709   */\n      dup2\n        /* \"#utility.yul\":19579:19710   */\n      tag_484\n      jump\t// in\n    tag_535:\n        /* \"#utility.yul\":19571:19710   */\n      swap1\n      pop\n        /* \"#utility.yul\":19469:19717   */\n      swap2\n      swap1\n      pop\n      jump\t// out\n        /* \"#utility.yul\":19723:20142   */\n    tag_151:\n      0x00\n        /* \"#utility.yul\":19927:19929   */\n      0x20\n        /* \"#utility.yul\":19916:19925   */\n      dup3\n        /* \"#utility.yul\":19912:19930   */\n      add\n        /* \"#utility.yul\":19904:19930   */\n      swap1\n      pop\n        /* \"#utility.yul\":19976:19985   */\n      dup2\n        /* \"#utility.yul\":19970:19974   */\n      dup2\n        /* \"#utility.yul\":19966:19986   */\n      sub\n        /* \"#utility.yul\":19962:19963   */\n      0x00\n        /* \"#utility.yul\":19951:19960   */\n      dup4\n        /* \"#utility.yul\":19947:19964   */\n      add\n        /* \"#utility.yul\":19940:19987   */\n      mstore\n        /* \"#utility.yul\":20004:20135   */\n      tag_537\n        /* \"#utility.yul\":20130:20134   */\n      dup2\n        /* \"#utility.yul\":20004:20135   */\n      tag_487\n      jump\t// in\n    tag_537:\n        /* \"#utility.yul\":19996:20135   */\n      swap1\n      pop\n        /* \"#utility.yul\":19894:20142   */\n      swap2\n      swap1\n      pop\n      jump\t// out\n        /* \"#utility.yul\":20148:20567   */\n    tag_269:\n      0x00\n        /* \"#utility.yul\":20352:20354   */\n      0x20\n        /* \"#utility.yul\":20341:20350   */\n      dup3\n        /* \"#utility.yul\":20337:20355   */\n      add\n        /* \"#utility.yul\":20329:20355   */\n      swap1\n      pop\n        /* \"#utility.yul\":20401:20410   */\n      dup2\n        /* \"#utility.yul\":20395:20399   */\n      dup2\n        /* \"#utility.yul\":20391:20411   */\n      sub\n        /* \"#utility.yul\":20387:20388   */\n      0x00\n        /* \"#utility.yul\":20376:20385   */\n      dup4\n        /* \"#utility.yul\":20372:20389   */\n      add\n        /* \"#utility.yul\":20365:20412   */\n      mstore\n        /* \"#utility.yul\":20429:20560   */\n      tag_539\n        /* \"#utility.yul\":20555:20559   */\n      dup2\n        /* \"#utility.yul\":20429:20560   */\n      tag_490\n      jump\t// in\n    tag_539:\n        /* \"#utility.yul\":20421:20560   */\n      swap1\n      pop\n        /* \"#utility.yul\":20319:20567   */\n      swap2\n      swap1\n      pop\n      jump\t// out\n        /* \"#utility.yul\":20573:20992   */\n    tag_182:\n      0x00\n        /* \"#utility.yul\":20777:20779   */\n      0x20\n        /* \"#utility.yul\":20766:20775   */\n      dup3\n        /* \"#utility.yul\":20762:20780   */\n      add\n        /* \"#utility.yul\":20754:20780   */\n      swap1\n      pop\n        /* \"#utility.yul\":20826:20835   */\n      dup2\n        /* \"#utility.yul\":20820:20824   */\n      dup2\n        /* \"#utility.yul\":20816:20836   */\n      sub\n        /* \"#utility.yul\":20812:20813   */\n      0x00\n        /* \"#utility.yul\":20801:20810   */\n      dup4\n        /* \"#utility.yul\":20797:20814   */\n      add\n        /* \"#utility.yul\":20790:20837   */\n      mstore\n        /* \"#utility.yul\":20854:20985   */\n      tag_541\n        /* \"#utility.yul\":20980:20984   */\n      dup2\n        /* \"#utility.yul\":20854:20985   */\n      tag_493\n      jump\t// in\n    tag_541:\n        /* \"#utility.yul\":20846:20985   */\n      swap1\n      pop\n        /* \"#utility.yul\":20744:20992   */\n      swap2\n      swap1\n      pop\n      jump\t// out\n        /* \"#utility.yul\":20998:21220   */\n    tag_38:\n      0x00\n        /* \"#utility.yul\":21129:21131   */\n      0x20\n        /* \"#utility.yul\":21118:21127   */\n      dup3\n        /* \"#utility.yul\":21114:21132   */\n      add\n        /* \"#utility.yul\":21106:21132   */\n      swap1\n      pop\n        /* \"#utility.yul\":21142:21213   */\n      tag_543\n        /* \"#utility.yul\":21210:21211   */\n      0x00\n        /* \"#utility.yul\":21199:21208   */\n      dup4\n        /* \"#utility.yul\":21195:21212   */\n      add\n        /* \"#utility.yul\":21186:21192   */\n      dup5\n        /* \"#utility.yul\":21142:21213   */\n      tag_496\n      jump\t// in\n    tag_543:\n        /* \"#utility.yul\":21096:21220   */\n      swap3\n      swap2\n      pop\n      pop\n      jump\t// out\n        /* \"#utility.yul\":21226:21558   */\n    tag_93:\n      0x00\n        /* \"#utility.yul\":21385:21387   */\n      0x40\n        /* \"#utility.yul\":21374:21383   */\n      dup3\n        /* \"#utility.yul\":21370:21388   */\n      add\n        /* \"#utility.yul\":21362:21388   */\n      swap1\n      pop\n        /* \"#utility.yul\":21398:21469   */\n      tag_545\n        /* \"#utility.yul\":21466:21467   */\n      0x00\n        /* \"#utility.yul\":21455:21464   */\n      dup4\n        /* \"#utility.yul\":21451:21468   */\n      add\n        /* \"#utility.yul\":21442:21448   */\n      dup6\n        /* \"#utility.yul\":21398:21469   */\n      tag_496\n      jump\t// in\n    tag_545:\n        /* \"#utility.yul\":21479:21551   */\n      tag_546\n        /* \"#utility.yul\":21547:21549   */\n      0x20\n        /* \"#utility.yul\":21536:21545   */\n      dup4\n        /* \"#utility.yul\":21532:21550   */\n      add\n        /* \"#utility.yul\":21523:21529   */\n      dup5\n        /* \"#utility.yul\":21479:21551   */\n      tag_496\n      jump\t// in\n    tag_546:\n        /* \"#utility.yul\":21352:21558   */\n      swap4\n      swap3\n      pop\n      pop\n      pop\n      jump\t// out\n        /* \"#utility.yul\":21564:22093   */\n    tag_159:\n      0x00\n        /* \"#utility.yul\":21769:21771   */\n      0x60\n        /* \"#utility.yul\":21758:21767   */\n      dup3\n        /* \"#utility.yul\":21754:21772   */\n      add\n        /* \"#utility.yul\":21746:21772   */\n      swap1\n      pop\n        /* \"#utility.yul\":21782:21853   */\n      tag_548\n        /* \"#utility.yul\":21850:21851   */\n      0x00\n        /* \"#utility.yul\":21839:21848   */\n      dup4\n        /* \"#utility.yul\":21835:21852   */\n      add\n        /* \"#utility.yul\":21826:21832   */\n      dup7\n        /* \"#utility.yul\":21782:21853   */\n      tag_496\n      jump\t// in\n    tag_548:\n        /* \"#utility.yul\":21863:21935   */\n      tag_549\n        /* \"#utility.yul\":21931:21933   */\n      0x20\n        /* \"#utility.yul\":21920:21929   */\n      dup4\n        /* \"#utility.yul\":21916:21934   */\n      add\n        /* \"#utility.yul\":21907:21913   */\n      dup6\n        /* \"#utility.yul\":21863:21935   */\n      tag_496\n      jump\t// in\n    tag_549:\n        /* \"#utility.yul\":21982:21991   */\n      dup2\n        /* \"#utility.yul\":21976:21980   */\n      dup2\n        /* \"#utility.yul\":21972:21992   */\n      sub\n        /* \"#utility.yul\":21967:21969   */\n      0x40\n        /* \"#utility.yul\":21956:21965   */\n      dup4\n        /* \"#utility.yul\":21952:21970   */\n      add\n        /* \"#utility.yul\":21945:21993   */\n      mstore\n        /* \"#utility.yul\":22010:22086   */\n      tag_550\n        /* \"#utility.yul\":22081:22085   */\n      dup2\n        /* \"#utility.yul\":22072:22078   */\n      dup5\n        /* \"#utility.yul\":22010:22086   */\n      tag_446\n      jump\t// in\n    tag_550:\n        /* \"#utility.yul\":22002:22086   */\n      swap1\n      pop\n        /* \"#utility.yul\":21736:22093   */\n      swap5\n      swap4\n      pop\n      pop\n      pop\n      pop\n      jump\t// out\n        /* \"#utility.yul\":22099:23124   */\n    tag_242:\n      0x00\n        /* \"#utility.yul\":22446:22449   */\n      0xa0\n        /* \"#utility.yul\":22435:22444   */\n      dup3\n        /* \"#utility.yul\":22431:22450   */\n      add\n        /* \"#utility.yul\":22423:22450   */\n      swap1\n      pop\n        /* \"#utility.yul\":22460:22531   */\n      tag_552\n        /* \"#utility.yul\":22528:22529   */\n      0x00\n        /* \"#utility.yul\":22517:22526   */\n      dup4\n        /* \"#utility.yul\":22513:22530   */\n      add\n        /* \"#utility.yul\":22504:22510   */\n      dup9\n        /* \"#utility.yul\":22460:22531   */\n      tag_496\n      jump\t// in\n    tag_552:\n        /* \"#utility.yul\":22541:22613   */\n      tag_553\n        /* \"#utility.yul\":22609:22611   */\n      0x20\n        /* \"#utility.yul\":22598:22607   */\n      dup4\n        /* \"#utility.yul\":22594:22612   */\n      add\n        /* \"#utility.yul\":22585:22591   */\n      dup8\n        /* \"#utility.yul\":22541:22613   */\n      tag_496\n      jump\t// in\n    tag_553:\n        /* \"#utility.yul\":22660:22669   */\n      dup2\n        /* \"#utility.yul\":22654:22658   */\n      dup2\n        /* \"#utility.yul\":22650:22670   */\n      sub\n        /* \"#utility.yul\":22645:22647   */\n      0x40\n        /* \"#utility.yul\":22634:22643   */\n      dup4\n        /* \"#utility.yul\":22630:22648   */\n      add\n        /* \"#utility.yul\":22623:22671   */\n      mstore\n        /* \"#utility.yul\":22688:22764   */\n      tag_554\n        /* \"#utility.yul\":22759:22763   */\n      dup2\n        /* \"#utility.yul\":22750:22756   */\n      dup7\n        /* \"#utility.yul\":22688:22764   */\n      tag_446\n      jump\t// in\n    tag_554:\n        /* \"#utility.yul\":22680:22764   */\n      swap1\n      pop\n        /* \"#utility.yul\":22811:22820   */\n      dup2\n        /* \"#utility.yul\":22805:22809   */\n      dup2\n        /* \"#utility.yul\":22801:22821   */\n      sub\n        /* \"#utility.yul\":22796:22798   */\n      0x60\n        /* \"#utility.yul\":22785:22794   */\n      dup4\n        /* \"#utility.yul\":22781:22799   */\n      add\n        /* \"#utility.yul\":22774:22822   */\n      mstore\n        /* \"#utility.yul\":22839:22915   */\n      tag_555\n        /* \"#utility.yul\":22910:22914   */\n      dup2\n        /* \"#utility.yul\":22901:22907   */\n      dup6\n        /* \"#utility.yul\":22839:22915   */\n      tag_446\n      jump\t// in\n    tag_555:\n        /* \"#utility.yul\":22831:22915   */\n      swap1\n      pop\n        /* \"#utility.yul\":22963:22972   */\n      dup2\n        /* \"#utility.yul\":22957:22961   */\n      dup2\n        /* \"#utility.yul\":22953:22973   */\n      sub\n        /* \"#utility.yul\":22947:22950   */\n      0x80\n        /* \"#utility.yul\":22936:22945   */\n      dup4\n        /* \"#utility.yul\":22932:22951   */\n      add\n        /* \"#utility.yul\":22925:22974   */\n      mstore\n        /* \"#utility.yul\":22991:23117   */\n      tag_556\n        /* \"#utility.yul\":23112:23116   */\n      dup2\n        /* \"#utility.yul\":23103:23109   */\n      dup5\n        /* \"#utility.yul\":22991:23117   */\n      tag_419\n      jump\t// in\n    tag_556:\n        /* \"#utility.yul\":22983:23117   */\n      swap1\n      pop\n        /* \"#utility.yul\":22413:23124   */\n      swap7\n      swap6\n      pop\n      pop\n      pop\n      pop\n      pop\n      pop\n      jump\t// out\n        /* \"#utility.yul\":23130:23572   */\n    tag_104:\n      0x00\n        /* \"#utility.yul\":23317:23319   */\n      0x60\n        /* \"#utility.yul\":23306:23315   */\n      dup3\n        /* \"#utility.yul\":23302:23320   */\n      add\n        /* \"#utility.yul\":23294:23320   */\n      swap1\n      pop\n        /* \"#utility.yul\":23330:23401   */\n      tag_558\n        /* \"#utility.yul\":23398:23399   */\n      0x00\n        /* \"#utility.yul\":23387:23396   */\n      dup4\n        /* \"#utility.yul\":23383:23400   */\n      add\n        /* \"#utility.yul\":23374:23380   */\n      dup7\n        /* \"#utility.yul\":23330:23401   */\n      tag_496\n      jump\t// in\n    tag_558:\n        /* \"#utility.yul\":23411:23483   */\n      tag_559\n        /* \"#utility.yul\":23479:23481   */\n      0x20\n        /* \"#utility.yul\":23468:23477   */\n      dup4\n        /* \"#utility.yul\":23464:23482   */\n      add\n        /* \"#utility.yul\":23455:23461   */\n      dup6\n        /* \"#utility.yul\":23411:23483   */\n      tag_496\n      jump\t// in\n    tag_559:\n        /* \"#utility.yul\":23493:23565   */\n      tag_560\n        /* \"#utility.yul\":23561:23563   */\n      0x40\n        /* \"#utility.yul\":23550:23559   */\n      dup4\n        /* \"#utility.yul\":23546:23564   */\n      add\n        /* \"#utility.yul\":23537:23543   */\n      dup5\n        /* \"#utility.yul\":23493:23565   */\n      tag_496\n      jump\t// in\n    tag_560:\n        /* \"#utility.yul\":23284:23572   */\n      swap5\n      swap4\n      pop\n      pop\n      pop\n      pop\n      jump\t// out\n        /* \"#utility.yul\":23578:23861   */\n    tag_339:\n      0x00\n        /* \"#utility.yul\":23644:23646   */\n      0x40\n        /* \"#utility.yul\":23638:23647   */\n      mload\n        /* \"#utility.yul\":23628:23647   */\n      swap1\n      pop\n        /* \"#utility.yul\":23686:23690   */\n      dup2\n        /* \"#utility.yul\":23678:23684   */\n      dup2\n        /* \"#utility.yul\":23674:23691   */\n      add\n        /* \"#utility.yul\":23793:23799   */\n      dup2\n        /* \"#utility.yul\":23781:23791   */\n      dup2\n        /* \"#utility.yul\":23778:23800   */\n      lt\n        /* \"#utility.yul\":23757:23775   */\n      0xffffffffffffffff\n        /* \"#utility.yul\":23745:23755   */\n      dup3\n        /* \"#utility.yul\":23742:23776   */\n      gt\n        /* \"#utility.yul\":23739:23801   */\n      or\n        /* \"#utility.yul\":23736:23738   */\n      iszero\n      tag_562\n      jumpi\n        /* \"#utility.yul\":23804:23822   */\n      tag_563\n      tag_564\n      jump\t// in\n    tag_563:\n        /* \"#utility.yul\":23736:23738   */\n    tag_562:\n        /* \"#utility.yul\":23844:23854   */\n      dup1\n        /* \"#utility.yul\":23840:23842   */\n      0x40\n        /* \"#utility.yul\":23833:23855   */\n      mstore\n        /* \"#utility.yul\":23618:23861   */\n      pop\n      swap2\n      swap1\n      pop\n      jump\t// out\n        /* \"#utility.yul\":23867:24187   */\n    tag_338:\n      0x00\n        /* \"#utility.yul\":24043:24061   */\n      0xffffffffffffffff\n        /* \"#utility.yul\":24035:24041   */\n      dup3\n        /* \"#utility.yul\":24032:24062   */\n      gt\n        /* \"#utility.yul\":24029:24031   */\n      iszero\n      tag_566\n      jumpi\n        /* \"#utility.yul\":24065:24083   */\n      tag_567\n      tag_564\n      jump\t// in\n    tag_567:\n        /* \"#utility.yul\":24029:24031   */\n    tag_566:\n        /* \"#utility.yul\":24115:24119   */\n      0x20\n        /* \"#utility.yul\":24107:24113   */\n      dup3\n        /* \"#utility.yul\":24103:24120   */\n      mul\n        /* \"#utility.yul\":24095:24120   */\n      swap1\n      pop\n        /* \"#utility.yul\":24175:24179   */\n      0x20\n        /* \"#utility.yul\":24169:24173   */\n      dup2\n        /* \"#utility.yul\":24165:24180   */\n      add\n        /* \"#utility.yul\":24157:24180   */\n      swap1\n      pop\n        /* \"#utility.yul\":23958:24187   */\n      swap2\n      swap1\n      pop\n      jump\t// out\n        /* \"#utility.yul\":24193:24524   */\n    tag_349:\n      0x00\n        /* \"#utility.yul\":24344:24362   */\n      0xffffffffffffffff\n        /* \"#utility.yul\":24336:24342   */\n      dup3\n        /* \"#utility.yul\":24333:24363   */\n      gt\n        /* \"#utility.yul\":24330:24332   */\n      iszero\n      tag_569\n      jumpi\n        /* \"#utility.yul\":24366:24384   */\n      tag_570\n      tag_564\n      jump\t// in\n    tag_570:\n        /* \"#utility.yul\":24330:24332   */\n    tag_569:\n        /* \"#utility.yul\":24451:24455   */\n      0x1f\n        /* \"#utility.yul\":24447:24456   */\n      not\n        /* \"#utility.yul\":24440:24444   */\n      0x1f\n        /* \"#utility.yul\":24432:24438   */\n      dup4\n        /* \"#utility.yul\":24428:24445   */\n      add\n        /* \"#utility.yul\":24424:24457   */\n      and\n        /* \"#utility.yul\":24416:24457   */\n      swap1\n      pop\n        /* \"#utility.yul\":24512:24516   */\n      0x20\n        /* \"#utility.yul\":24506:24510   */\n      dup2\n        /* \"#utility.yul\":24502:24517   */\n      add\n        /* \"#utility.yul\":24494:24517   */\n      swap1\n      pop\n        /* \"#utility.yul\":24259:24524   */\n      swap2\n      swap1\n      pop\n      jump\t// out\n        /* \"#utility.yul\":24530:24671   */\n    tag_426:\n      0x00\n        /* \"#utility.yul\":24629:24632   */\n      dup2\n        /* \"#utility.yul\":24621:24632   */\n      swap1\n      pop\n        /* \"#utility.yul\":24659:24663   */\n      0x20\n        /* \"#utility.yul\":24654:24657   */\n      dup3\n        /* \"#utility.yul\":24650:24664   */\n      add\n        /* \"#utility.yul\":24642:24664   */\n      swap1\n      pop\n        /* \"#utility.yul\":24611:24671   */\n      swap2\n      swap1\n      pop\n      jump\t// out\n        /* \"#utility.yul\":24677:24800   */\n    tag_422:\n      0x00\n        /* \"#utility.yul\":24787:24792   */\n      dup2\n        /* \"#utility.yul\":24781:24793   */\n      mload\n        /* \"#utility.yul\":24771:24793   */\n      swap1\n      pop\n        /* \"#utility.yul\":24760:24800   */\n      swap2\n      swap1\n      pop\n      jump\t// out\n        /* \"#utility.yul\":24806:24904   */\n    tag_439:\n      0x00\n        /* \"#utility.yul\":24891:24896   */\n      dup2\n        /* \"#utility.yul\":24885:24897   */\n      mload\n        /* \"#utility.yul\":24875:24897   */\n      swap1\n      pop\n        /* \"#utility.yul\":24864:24904   */\n      swap2\n      swap1\n      pop\n      jump\t// out\n        /* \"#utility.yul\":24910:25032   */\n    tag_432:\n      0x00\n        /* \"#utility.yul\":25021:25025   */\n      0x20\n        /* \"#utility.yul\":25016:25019   */\n      dup3\n        /* \"#utility.yul\":25012:25026   */\n      add\n        /* \"#utility.yul\":25004:25026   */\n      swap1\n      pop\n        /* \"#utility.yul\":24994:25032   */\n      swap2\n      swap1\n      pop\n      jump\t// out\n        /* \"#utility.yul\":25038:25231   */\n    tag_424:\n      0x00\n        /* \"#utility.yul\":25180:25186   */\n      dup3\n        /* \"#utility.yul\":25175:25178   */\n      dup3\n        /* \"#utility.yul\":25168:25187   */\n      mstore\n        /* \"#utility.yul\":25220:25224   */\n      0x20\n        /* \"#utility.yul\":25215:25218   */\n      dup3\n        /* \"#utility.yul\":25211:25225   */\n      add\n        /* \"#utility.yul\":25196:25225   */\n      swap1\n      pop\n        /* \"#utility.yul\":25158:25231   */\n      swap3\n      swap2\n      pop\n      pop\n      jump\t// out\n        /* \"#utility.yul\":25237:25395   */\n    tag_441:\n      0x00\n        /* \"#utility.yul\":25344:25350   */\n      dup3\n        /* \"#utility.yul\":25339:25342   */\n      dup3\n        /* \"#utility.yul\":25332:25351   */\n      mstore\n        /* \"#utility.yul\":25384:25388   */\n      0x20\n        /* \"#utility.yul\":25379:25382   */\n      dup3\n        /* \"#utility.yul\":25375:25389   */\n      add\n        /* \"#utility.yul\":25360:25389   */\n      swap1\n      pop\n        /* \"#utility.yul\":25322:25395   */\n      swap3\n      swap2\n      pop\n      pop\n      jump\t// out\n        /* \"#utility.yul\":25401:25569   */\n    tag_450:\n      0x00\n        /* \"#utility.yul\":25518:25524   */\n      dup3\n        /* \"#utility.yul\":25513:25516   */\n      dup3\n        /* \"#utility.yul\":25506:25525   */\n      mstore\n        /* \"#utility.yul\":25558:25562   */\n      0x20\n        /* \"#utility.yul\":25553:25556   */\n      dup3\n        /* \"#utility.yul\":25549:25563   */\n      add\n        /* \"#utility.yul\":25534:25563   */\n      swap1\n      pop\n        /* \"#utility.yul\":25496:25569   */\n      swap3\n      swap2\n      pop\n      pop\n      jump\t// out\n        /* \"#utility.yul\":25575:25744   */\n    tag_456:\n      0x00\n        /* \"#utility.yul\":25693:25699   */\n      dup3\n        /* \"#utility.yul\":25688:25691   */\n      dup3\n        /* \"#utility.yul\":25681:25700   */\n      mstore\n        /* \"#utility.yul\":25733:25737   */\n      0x20\n        /* \"#utility.yul\":25728:25731   */\n      dup3\n        /* \"#utility.yul\":25724:25738   */\n      add\n        /* \"#utility.yul\":25709:25738   */\n      swap1\n      pop\n        /* \"#utility.yul\":25671:25744   */\n      swap3\n      swap2\n      pop\n      pop\n      jump\t// out\n        /* \"#utility.yul\":25750:26055   */\n    tag_169:\n      0x00\n        /* \"#utility.yul\":25809:25829   */\n      tag_580\n        /* \"#utility.yul\":25827:25828   */\n      dup3\n        /* \"#utility.yul\":25809:25829   */\n      tag_499\n      jump\t// in\n    tag_580:\n        /* \"#utility.yul\":25804:25829   */\n      swap2\n      pop\n        /* \"#utility.yul\":25843:25863   */\n      tag_581\n        /* \"#utility.yul\":25861:25862   */\n      dup4\n        /* \"#utility.yul\":25843:25863   */\n      tag_499\n      jump\t// in\n    tag_581:\n        /* \"#utility.yul\":25838:25863   */\n      swap3\n      pop\n        /* \"#utility.yul\":25997:25998   */\n      dup3\n        /* \"#utility.yul\":25929:25995   */\n      0xffffffffffffffffffffffffffffffffffffffffffffffffffffffffffffffff\n        /* \"#utility.yul\":25925:25999   */\n      sub\n        /* \"#utility.yul\":25922:25923   */\n      dup3\n        /* \"#utility.yul\":25919:26000   */\n      gt\n        /* \"#utility.yul\":25916:25918   */\n      iszero\n      tag_582\n      jumpi\n        /* \"#utility.yul\":26003:26021   */\n      tag_583\n      tag_584\n      jump\t// in\n    tag_583:\n        /* \"#utility.yul\":25916:25918   */\n    tag_582:\n        /* \"#utility.yul\":26047:26048   */\n      dup3\n        /* \"#utility.yul\":26044:26045   */\n      dup3\n        /* \"#utility.yul\":26040:26049   */\n      add\n        /* \"#utility.yul\":26033:26049   */\n      swap1\n      pop\n        /* \"#utility.yul\":25794:26055   */\n      swap3\n      swap2\n      pop\n      pop\n      jump\t// out\n        /* \"#utility.yul\":26061:26409   */\n    tag_236:\n      0x00\n        /* \"#utility.yul\":26124:26144   */\n      tag_586\n        /* \"#utility.yul\":26142:26143   */\n      dup3\n        /* \"#utility.yul\":26124:26144   */\n      tag_499\n      jump\t// in\n    tag_586:\n        /* \"#utility.yul\":26119:26144   */\n      swap2\n      pop\n        /* \"#utility.yul\":26158:26178   */\n      tag_587\n        /* \"#utility.yul\":26176:26177   */\n      dup4\n        /* \"#utility.yul\":26158:26178   */\n      tag_499\n      jump\t// in\n    tag_587:\n        /* \"#utility.yul\":26153:26178   */\n      swap3\n      pop\n        /* \"#utility.yul\":26346:26347   */\n      dup2\n        /* \"#utility.yul\":26278:26344   */\n      0xffffffffffffffffffffffffffffffffffffffffffffffffffffffffffffffff\n        /* \"#utility.yul\":26274:26348   */\n      div\n        /* \"#utility.yul\":26271:26272   */\n      dup4\n        /* \"#utility.yul\":26268:26349   */\n      gt\n        /* \"#utility.yul\":26263:26264   */\n      dup3\n        /* \"#utility.yul\":26256:26265   */\n      iszero\n        /* \"#utility.yul\":26249:26266   */\n      iszero\n        /* \"#utility.yul\":26245:26350   */\n      and\n        /* \"#utility.yul\":26242:26244   */\n      iszero\n      tag_588\n      jumpi\n        /* \"#utility.yul\":26353:26371   */\n      tag_589\n      tag_584\n      jump\t// in\n    tag_589:\n        /* \"#utility.yul\":26242:26244   */\n    tag_588:\n        /* \"#utility.yul\":26401:26402   */\n      dup3\n        /* \"#utility.yul\":26398:26399   */\n      dup3\n        /* \"#utility.yul\":26394:26403   */\n      mul\n        /* \"#utility.yul\":26383:26403   */\n      swap1\n      pop\n        /* \"#utility.yul\":26109:26409   */\n      swap3\n      swap2\n      pop\n      pop\n      jump\t// out\n        /* \"#utility.yul\":26415:26606   */\n    tag_194:\n      0x00\n        /* \"#utility.yul\":26475:26495   */\n      tag_591\n        /* \"#utility.yul\":26493:26494   */\n      dup3\n        /* \"#utility.yul\":26475:26495   */\n      tag_499\n      jump\t// in\n    tag_591:\n        /* \"#utility.yul\":26470:26495   */\n      swap2\n      pop\n        /* \"#utility.yul\":26509:26529   */\n      tag_592\n        /* \"#utility.yul\":26527:26528   */\n      dup4\n        /* \"#utility.yul\":26509:26529   */\n      tag_499\n      jump\t// in\n    tag_592:\n        /* \"#utility.yul\":26504:26529   */\n      swap3\n      pop\n        /* \"#utility.yul\":26548:26549   */\n      dup3\n        /* \"#utility.yul\":26545:26546   */\n      dup3\n        /* \"#utility.yul\":26542:26550   */\n      lt\n        /* \"#utility.yul\":26539:26541   */\n      iszero\n      tag_593\n      jumpi\n        /* \"#utility.yul\":26553:26571   */\n      tag_594\n      tag_584\n      jump\t// in\n    tag_594:\n        /* \"#utility.yul\":26539:26541   */\n    tag_593:\n        /* \"#utility.yul\":26598:26599   */\n      dup3\n        /* \"#utility.yul\":26595:26596   */\n      dup3\n        /* \"#utility.yul\":26591:26600   */\n      sub\n        /* \"#utility.yul\":26583:26600   */\n      swap1\n      pop\n        /* \"#utility.yul\":26460:26606   */\n      swap3\n      swap2\n      pop\n      pop\n      jump\t// out\n        /* \"#utility.yul\":26612:26708   */\n    tag_418:\n      0x00\n        /* \"#utility.yul\":26678:26702   */\n      tag_596\n        /* \"#utility.yul\":26696:26701   */\n      dup3\n        /* \"#utility.yul\":26678:26702   */\n      tag_597\n      jump\t// in\n    tag_596:\n        /* \"#utility.yul\":26667:26702   */\n      swap1\n      pop\n        /* \"#utility.yul\":26657:26708   */\n      swap2\n      swap1\n      pop\n      jump\t// out\n        /* \"#utility.yul\":26714:26818   */\n    tag_598:\n      0x00\n        /* \"#utility.yul\":26788:26812   */\n      tag_600\n        /* \"#utility.yul\":26806:26811   */\n      dup3\n        /* \"#utility.yul\":26788:26812   */\n      tag_597\n      jump\t// in\n    tag_600:\n        /* \"#utility.yul\":26777:26812   */\n      swap1\n      pop\n        /* \"#utility.yul\":26767:26818   */\n      swap2\n      swap1\n      pop\n      jump\t// out\n        /* \"#utility.yul\":26824:26914   */\n    tag_436:\n      0x00\n        /* \"#utility.yul\":26901:26906   */\n      dup2\n        /* \"#utility.yul\":26894:26907   */\n      iszero\n        /* \"#utility.yul\":26887:26908   */\n      iszero\n        /* \"#utility.yul\":26876:26908   */\n      swap1\n      pop\n        /* \"#utility.yul\":26866:26914   */\n      swap2\n      swap1\n      pop\n      jump\t// out\n        /* \"#utility.yul\":26920:27046   */\n    tag_597:\n      0x00\n        /* \"#utility.yul\":26997:27039   */\n      0xffffffffffffffffffffffffffffffffffffffff\n        /* \"#utility.yul\":26990:26995   */\n      dup3\n        /* \"#utility.yul\":26986:27040   */\n      and\n        /* \"#utility.yul\":26975:27040   */\n      swap1\n      pop\n        /* \"#utility.yul\":26965:27046   */\n      swap2\n      swap1\n      pop\n      jump\t// out\n        /* \"#utility.yul\":27052:27129   */\n    tag_499:\n      0x00\n        /* \"#utility.yul\":27118:27123   */\n      dup2\n        /* \"#utility.yul\":27107:27123   */\n      swap1\n      pop\n        /* \"#utility.yul\":27097:27129   */\n      swap2\n      swap1\n      pop\n      jump\t// out\n        /* \"#utility.yul\":27135:27289   */\n    tag_352:\n        /* \"#utility.yul\":27219:27225   */\n      dup3\n        /* \"#utility.yul\":27214:27217   */\n      dup2\n        /* \"#utility.yul\":27209:27212   */\n      dup4\n        /* \"#utility.yul\":27196:27226   */\n      calldatacopy\n        /* \"#utility.yul\":27281:27282   */\n      0x00\n        /* \"#utility.yul\":27272:27278   */\n      dup4\n        /* \"#utility.yul\":27267:27270   */\n      dup4\n        /* \"#utility.yul\":27263:27279   */\n      add\n        /* \"#utility.yul\":27256:27283   */\n      mstore\n        /* \"#utility.yul\":27186:27289   */\n      pop\n      pop\n      pop\n      jump\t// out\n        /* \"#utility.yul\":27295:27602   */\n    tag_443:\n        /* \"#utility.yul\":27363:27364   */\n      0x00\n        /* \"#utility.yul\":27373:27486   */\n    tag_606:\n        /* \"#utility.yul\":27387:27393   */\n      dup4\n        /* \"#utility.yul\":27384:27385   */\n      dup2\n        /* \"#utility.yul\":27381:27394   */\n      lt\n        /* \"#utility.yul\":27373:27486   */\n      iszero\n      tag_608\n      jumpi\n        /* \"#utility.yul\":27472:27473   */\n      dup1\n        /* \"#utility.yul\":27467:27470   */\n      dup3\n        /* \"#utility.yul\":27463:27474   */\n      add\n        /* \"#utility.yul\":27457:27475   */\n      mload\n        /* \"#utility.yul\":27453:27454   */\n      dup2\n        /* \"#utility.yul\":27448:27451   */\n      dup5\n        /* \"#utility.yul\":27444:27455   */\n      add\n        /* \"#utility.yul\":27437:27476   */\n      mstore\n        /* \"#utility.yul\":27409:27411   */\n      0x20\n        /* \"#utility.yul\":27406:27407   */\n      dup2\n        /* \"#utility.yul\":27402:27412   */\n      add\n        /* \"#utility.yul\":27397:27412   */\n      swap1\n      pop\n        /* \"#utility.yul\":27373:27486   */\n      jump(tag_606)\n    tag_608:\n        /* \"#utility.yul\":27504:27510   */\n      dup4\n        /* \"#utility.yul\":27501:27502   */\n      dup2\n        /* \"#utility.yul\":27498:27511   */\n      gt\n        /* \"#utility.yul\":27495:27497   */\n      iszero\n      tag_609\n      jumpi\n        /* \"#utility.yul\":27584:27585   */\n      0x00\n        /* \"#utility.yul\":27575:27581   */\n      dup5\n        /* \"#utility.yul\":27570:27573   */\n      dup5\n        /* \"#utility.yul\":27566:27582   */\n      add\n        /* \"#utility.yul\":27559:27586   */\n      mstore\n        /* \"#utility.yul\":27495:27497   */\n    tag_609:\n        /* \"#utility.yul\":27344:27602   */\n      pop\n      pop\n      pop\n      pop\n      jump\t// out\n        /* \"#utility.yul\":27608:27779   */\n    tag_310:\n      0x00\n        /* \"#utility.yul\":27670:27694   */\n      tag_611\n        /* \"#utility.yul\":27688:27693   */\n      dup3\n        /* \"#utility.yul\":27670:27694   */\n      tag_499\n      jump\t// in\n    tag_611:\n        /* \"#utility.yul\":27661:27694   */\n      swap2\n      pop\n        /* \"#utility.yul\":27716:27720   */\n      0x00\n        /* \"#utility.yul\":27709:27714   */\n      dup3\n        /* \"#utility.yul\":27706:27721   */\n      eq\n        /* \"#utility.yul\":27703:27705   */\n      iszero\n      tag_612\n      jumpi\n        /* \"#utility.yul\":27724:27742   */\n      tag_613\n      tag_584\n      jump\t// in\n    tag_613:\n        /* \"#utility.yul\":27703:27705   */\n    tag_612:\n        /* \"#utility.yul\":27771:27772   */\n      0x01\n        /* \"#utility.yul\":27764:27769   */\n      dup3\n        /* \"#utility.yul\":27760:27773   */\n      sub\n        /* \"#utility.yul\":27753:27773   */\n      swap1\n      pop\n        /* \"#utility.yul\":27651:27779   */\n      swap2\n      swap1\n      pop\n      jump\t// out\n        /* \"#utility.yul\":27785:28105   */\n    tag_247:\n      0x00\n        /* \"#utility.yul\":27866:27867   */\n      0x02\n        /* \"#utility.yul\":27860:27864   */\n      dup3\n        /* \"#utility.yul\":27856:27868   */\n      div\n        /* \"#utility.yul\":27846:27868   */\n      swap1\n      pop\n        /* \"#utility.yul\":27913:27914   */\n      0x01\n        /* \"#utility.yul\":27907:27911   */\n      dup3\n        /* \"#utility.yul\":27903:27915   */\n      and\n        /* \"#utility.yul\":27934:27952   */\n      dup1\n        /* \"#utility.yul\":27924:27926   */\n      tag_615\n      jumpi\n        /* \"#utility.yul\":27990:27994   */\n      0x7f\n        /* \"#utility.yul\":27982:27988   */\n      dup3\n        /* \"#utility.yul\":27978:27995   */\n      and\n        /* \"#utility.yul\":27968:27995   */\n      swap2\n      pop\n        /* \"#utility.yul\":27924:27926   */\n    tag_615:\n        /* \"#utility.yul\":28052:28054   */\n      0x20\n        /* \"#utility.yul\":28044:28050   */\n      dup3\n        /* \"#utility.yul\":28041:28055   */\n      lt\n        /* \"#utility.yul\":28021:28039   */\n      dup2\n        /* \"#utility.yul\":28018:28056   */\n      eq\n        /* \"#utility.yul\":28015:28017   */\n      iszero\n      tag_616\n      jumpi\n        /* \"#utility.yul\":28071:28089   */\n      tag_617\n      tag_618\n      jump\t// in\n    tag_617:\n        /* \"#utility.yul\":28015:28017   */\n    tag_616:\n        /* \"#utility.yul\":27836:28105   */\n      pop\n      swap2\n      swap1\n      pop\n      jump\t// out\n        /* \"#utility.yul\":28111:28344   */\n    tag_164:\n      0x00\n        /* \"#utility.yul\":28173:28197   */\n      tag_620\n        /* \"#utility.yul\":28191:28196   */\n      dup3\n        /* \"#utility.yul\":28173:28197   */\n      tag_499\n      jump\t// in\n    tag_620:\n        /* \"#utility.yul\":28164:28197   */\n      swap2\n      pop\n        /* \"#utility.yul\":28219:28285   */\n      0xffffffffffffffffffffffffffffffffffffffffffffffffffffffffffffffff\n        /* \"#utility.yul\":28212:28217   */\n      dup3\n        /* \"#utility.yul\":28209:28286   */\n      eq\n        /* \"#utility.yul\":28206:28208   */\n      iszero\n      tag_621\n      jumpi\n        /* \"#utility.yul\":28289:28307   */\n      tag_622\n      tag_584\n      jump\t// in\n    tag_622:\n        /* \"#utility.yul\":28206:28208   */\n    tag_621:\n        /* \"#utility.yul\":28336:28337   */\n      0x01\n        /* \"#utility.yul\":28329:28334   */\n      dup3\n        /* \"#utility.yul\":28325:28338   */\n      add\n        /* \"#utility.yul\":28318:28338   */\n      swap1\n      pop\n        /* \"#utility.yul\":28154:28344   */\n      swap2\n      swap1\n      pop\n      jump\t// out\n        /* \"#utility.yul\":28350:28530   */\n    tag_584:\n        /* \"#utility.yul\":28398:28475   */\n      0x4e487b7100000000000000000000000000000000000000000000000000000000\n        /* \"#utility.yul\":28395:28396   */\n      0x00\n        /* \"#utility.yul\":28388:28476   */\n      mstore\n        /* \"#utility.yul\":28495:28499   */\n      0x11\n        /* \"#utility.yul\":28492:28493   */\n      0x04\n        /* \"#utility.yul\":28485:28500   */\n      mstore\n        /* \"#utility.yul\":28519:28523   */\n      0x24\n        /* \"#utility.yul\":28516:28517   */\n      0x00\n        /* \"#utility.yul\":28509:28524   */\n      revert\n        /* \"#utility.yul\":28536:28716   */\n    tag_618:\n        /* \"#utility.yul\":28584:28661   */\n      0x4e487b7100000000000000000000000000000000000000000000000000000000\n        /* \"#utility.yul\":28581:28582   */\n      0x00\n        /* \"#utility.yul\":28574:28662   */\n      mstore\n        /* \"#utility.yul\":28681:28685   */\n      0x22\n        /* \"#utility.yul\":28678:28679   */\n      0x04\n        /* \"#utility.yul\":28671:28686   */\n      mstore\n        /* \"#utility.yul\":28705:28709   */\n      0x24\n        /* \"#utility.yul\":28702:28703   */\n      0x00\n        /* \"#utility.yul\":28695:28710   */\n      revert\n        /* \"#utility.yul\":28722:28902   */\n    tag_564:\n        /* \"#utility.yul\":28770:28847   */\n      0x4e487b7100000000000000000000000000000000000000000000000000000000\n        /* \"#utility.yul\":28767:28768   */\n      0x00\n        /* \"#utility.yul\":28760:28848   */\n      mstore\n        /* \"#utility.yul\":28867:28871   */\n      0x41\n        /* \"#utility.yul\":28864:28865   */\n      0x04\n        /* \"#utility.yul\":28857:28872   */\n      mstore\n        /* \"#utility.yul\":28891:28895   */\n      0x24\n        /* \"#utility.yul\":28888:28889   */\n      0x00\n        /* \"#utility.yul\":28881:28896   */\n      revert\n        /* \"#utility.yul\":28908:29010   */\n    tag_445:\n      0x00\n        /* \"#utility.yul\":29000:29002   */\n      0x1f\n        /* \"#utility.yul\":28996:29003   */\n      not\n        /* \"#utility.yul\":28991:28993   */\n      0x1f\n        /* \"#utility.yul\":28984:28989   */\n      dup4\n        /* \"#utility.yul\":28980:28994   */\n      add\n        /* \"#utility.yul\":28976:29004   */\n      and\n        /* \"#utility.yul\":28966:29004   */\n      swap1\n      pop\n        /* \"#utility.yul\":28956:29010   */\n      swap2\n      swap1\n      pop\n      jump\t// out\n        /* \"#utility.yul\":29016:29138   */\n    tag_356:\n        /* \"#utility.yul\":29089:29113   */\n      tag_628\n        /* \"#utility.yul\":29107:29112   */\n      dup2\n        /* \"#utility.yul\":29089:29113   */\n      tag_418\n      jump\t// in\n    tag_628:\n        /* \"#utility.yul\":29082:29087   */\n      dup2\n        /* \"#utility.yul\":29079:29114   */\n      eq\n        /* \"#utility.yul\":29069:29071   */\n      tag_629\n      jumpi\n        /* \"#utility.yul\":29128:29129   */\n      0x00\n        /* \"#utility.yul\":29125:29126   */\n      dup1\n        /* \"#utility.yul\":29118:29130   */\n      revert\n        /* \"#utility.yul\":29069:29071   */\n    tag_629:\n        /* \"#utility.yul\":29059:29138   */\n      pop\n      jump\t// out\n        /* \"#utility.yul\":29144:29282   */\n    tag_360:\n        /* \"#utility.yul\":29225:29257   */\n      tag_631\n        /* \"#utility.yul\":29251:29256   */\n      dup2\n        /* \"#utility.yul\":29225:29257   */\n      tag_598\n      jump\t// in\n    tag_631:\n        /* \"#utility.yul\":29218:29223   */\n      dup2\n        /* \"#utility.yul\":29215:29258   */\n      eq\n        /* \"#utility.yul\":29205:29207   */\n      tag_632\n      jumpi\n        /* \"#utility.yul\":29272:29273   */\n      0x00\n        /* \"#utility.yul\":29269:29270   */\n      dup1\n        /* \"#utility.yul\":29262:29274   */\n      revert\n        /* \"#utility.yul\":29205:29207   */\n    tag_632:\n        /* \"#utility.yul\":29195:29282   */\n      pop\n      jump\t// out\n        /* \"#utility.yul\":29288:29410   */\n    tag_371:\n        /* \"#utility.yul\":29361:29385   */\n      tag_634\n        /* \"#utility.yul\":29379:29384   */\n      dup2\n        /* \"#utility.yul\":29361:29385   */\n      tag_499\n      jump\t// in\n    tag_634:\n        /* \"#utility.yul\":29354:29359   */\n      dup2\n        /* \"#utility.yul\":29351:29386   */\n      eq\n        /* \"#utility.yul\":29341:29343   */\n      tag_635\n      jumpi\n        /* \"#utility.yul\":29400:29401   */\n      0x00\n        /* \"#utility.yul\":29397:29398   */\n      dup1\n        /* \"#utility.yul\":29390:29402   */\n      revert\n        /* \"#utility.yul\":29341:29343   */\n    tag_635:\n        /* \"#utility.yul\":29331:29410   */\n      pop\n      jump\t// out\n\n    auxdata: 0xa26469706673582212203f21d784378f63214ae4152d2d9357b8322a31defc2387617358ac25ab740f7d64736f6c63430008000033\n}\n",
				"bytecode": {
					"linkReferences": {},
					"object": "608060405260006003556000600555600060085560016009556618de76816d8000600a5534801561002f57600080fd5b5033600b60006101000a81548173ffffffffffffffffffffffffffffffffffffffff021916908373ffffffffffffffffffffffffffffffffffffffff1602179055506132c9806100806000396000f3fe60806040526004361061014a5760003560e01c80638da5cb5b116100b6578063afe7fcf41161006f578063afe7fcf41461046c578063d577c2c1146104a9578063d89e421c146104e6578063d8e2ee0c14610511578063e076cac414610528578063ec6925a7146105515761014a565b80638da5cb5b1461033f578063968e8f501461036a57806398c89201146103a85780639ace38c2146103c45780639cf4364b14610403578063a3d6f9a91461042e5761014a565b80635968c4c0116101085780635968c4c01461025157806370bb45b31461027c578063785ffb371461029357806379697807146102be5780637f10792d146102e957806380a6d4f4146103145761014a565b8062f55d9d1461014f57806314e887e81461017857806319a0bc4a146101a3578063244e88d6146101ce5780632ba1f592146101f7578063389311ff14610235575b600080fd5b34801561015b57600080fd5b5061017660048036038101906101719190612307565b61057c565b005b34801561018457600080fd5b5061018d610625565b60405161019a9190612d66565b60405180910390f35b3480156101af57600080fd5b506101b861062b565b6040516101c59190612d66565b60405180910390f35b3480156101da57600080fd5b506101f560048036038101906101f09190612412565b610631565b005b34801561020357600080fd5b5061021e60048036038101906102199190612511565b6109ed565b60405161022c929190612af4565b60405180910390f35b61024f600480360381019061024a919061236c565b610a6e565b005b34801561025d57600080fd5b50610266610cc2565b6040516102739190612d66565b60405180910390f35b34801561028857600080fd5b50610291610ccc565b005b34801561029f57600080fd5b506102a86111c9565b6040516102b59190612d66565b60405180910390f35b3480156102ca57600080fd5b506102d36111ce565b6040516102e09190612d66565b60405180910390f35b3480156102f557600080fd5b506102fe6111d4565b60405161030b9190612d66565b60405180910390f35b34801561032057600080fd5b506103296111d9565b6040516103369190612d66565b60405180910390f35b34801561034b57600080fd5b506103546111e0565b6040516103619190612ad9565b60405180910390f35b34801561037657600080fd5b50610391600480360381019061038c9190612330565b611206565b60405161039f929190612d81565b60405180910390f35b6103c260048036038101906103bd9190612466565b611247565b005b3480156103d057600080fd5b506103eb60048036038101906103e691906123ad565b6113fc565b6040516103fa93929190612e50565b60405180910390f35b34801561040f57600080fd5b50610418611436565b6040516104259190612d66565b60405180910390f35b34801561043a57600080fd5b50610455600480360381019061045091906122de565b61143c565b604051610463929190612b76565b60405180910390f35b34801561047857600080fd5b50610493600480360381019061048e91906123ad565b6114e8565b6040516104a09190612ad9565b60405180910390f35b3480156104b557600080fd5b506104d060048036038101906104cb91906123d6565b61151b565b6040516104dd9190612b5b565b60405180910390f35b3480156104f257600080fd5b506104fb61154a565b6040516105089190612d66565b60405180910390f35b34801561051d57600080fd5b50610526611550565b005b34801561053457600080fd5b5061054f600480360381019061054a9190612511565b611631565b005b34801561055d57600080fd5b50610566611eef565b6040516105739190612d66565b60405180910390f35b600b60009054906101000a900473ffffffffffffffffffffffffffffffffffffffff1673ffffffffffffffffffffffffffffffffffffffff163373ffffffffffffffffffffffffffffffffffffffff161461060c576040517f08c379a000000000000000000000000000000000000000000000000000000000815260040161060390612be6565b60405180910390fd5b8073ffffffffffffffffffffffffffffffffffffffff16ff5b60055481565b60095481565b6000600160003373ffffffffffffffffffffffffffffffffffffffff1673ffffffffffffffffffffffffffffffffffffffff1681526020019081526020016000206001015414156106b7576040517f08c379a00000000000000000000000000000000000000000000000000000000081526004016106ae90612d06565b60405180910390fd5b600482815481106106f1577f4e487b7100000000000000000000000000000000000000000000000000000000600052603260045260246000fd5b906000526020600020906003020160010154421015610745576040517f08c379a000000000000000000000000000000000000000000000000000000000815260040161073c90612ce6565b60405180910390fd5b7f32095ee3cad3b30d29d83bacbba0fe0c8de1c59733c53cb32e3f9a9aeafbadf2600160003373ffffffffffffffffffffffffffffffffffffffff1673ffffffffffffffffffffffffffffffffffffffff1681526020019081526020016000206001015483836040516107ba93929190612daa565b60405180910390a16006600083815260200190815260200160002060003373ffffffffffffffffffffffffffffffffffffffff1673ffffffffffffffffffffffffffffffffffffffff16815260200190815260200160002060009054906101000a900460ff166109e95760016006600084815260200190815260200160002060003373ffffffffffffffffffffffffffffffffffffffff1673ffffffffffffffffffffffffffffffffffffffff16815260200190815260200160002060006101000a81548160ff021916908315150217905550600482815481106108c7577f4e487b7100000000000000000000000000000000000000000000000000000000600052603260045260246000fd5b906000526020600020906003020160020160008154809291906108e990613167565b919050555060026004838154811061092a577f4e487b7100000000000000000000000000000000000000000000000000000000600052603260045260246000fd5b906000526020600020906003020160020154116109e857600260003373ffffffffffffffffffffffffffffffffffffffff1673ffffffffffffffffffffffffffffffffffffffff1681526020019081526020016000206040518060400160405280428152602001600a5465c816bdd9c0006109a59190612f8b565b8152509080600181540180825580915050600190039060005260206000209060020201600090919091909150600082015181600001556020820151816001015550505b5b5050565b60076020528160005260406000208181548110610a0957600080fd5b9060005260206000209060020201600091509150508060000160009054906101000a900473ffffffffffffffffffffffffffffffffffffffff16908060010160009054906101000a900473ffffffffffffffffffffffffffffffffffffffff16905082565b600360085410610ab3576040517f08c379a0000000000000000000000000000000000000000000000000000000008152600401610aaa90612c46565b60405180910390fd5b6000600160003373ffffffffffffffffffffffffffffffffffffffff1673ffffffffffffffffffffffffffffffffffffffff1681526020019081526020016000206001015414610b38576040517f08c379a0000000000000000000000000000000000000000000000000000000008152600401610b2f90612ba6565b60405180910390fd5b670de0b6b3a7640000341015610b83576040517f08c379a0000000000000000000000000000000000000000000000000000000008152600401610b7a90612d46565b60405180910390fd5b6040518060400160405280828152602001600954815250600160003373ffffffffffffffffffffffffffffffffffffffff1673ffffffffffffffffffffffffffffffffffffffff1681526020019081526020016000206000820151816000019080519060200190610bf59291906120cd565b506020820151816001015590505033600080600954815260200190815260200160002060006101000a81548173ffffffffffffffffffffffffffffffffffffffff021916908373ffffffffffffffffffffffffffffffffffffffff1602179055507fed502e3a5cced6d8c7c0380facc0b9c22a607e9e19f0ab6d4fec92918d6c389d3360095483604051610c8b93929190612b1d565b60405180910390a1600860008154610ca290613167565b91905081905550600960008154610cb890613167565b9190508190555050565b65c816bdd9c00081565b6000600160003373ffffffffffffffffffffffffffffffffffffffff1673ffffffffffffffffffffffffffffffffffffffff168152602001908152602001600020600101541415610d52576040517f08c379a0000000000000000000000000000000000000000000000000000000008152600401610d4990612d06565b60405180910390fd5b6000806201518042610d64919061303b565b90506000805b600260003373ffffffffffffffffffffffffffffffffffffffff1673ffffffffffffffffffffffffffffffffffffffff168152602001908152602001600020805490508110156110295782600260003373ffffffffffffffffffffffffffffffffffffffff1673ffffffffffffffffffffffffffffffffffffffff1681526020019081526020016000208281548110610e2c577f4e487b7100000000000000000000000000000000000000000000000000000000600052603260045260246000fd5b90600052602060002090600202016000015411610ede57600260003373ffffffffffffffffffffffffffffffffffffffff1673ffffffffffffffffffffffffffffffffffffffff1681526020019081526020016000208181548110610eba577f4e487b7100000000000000000000000000000000000000000000000000000000600052603260045260246000fd5b90600052602060002090600202016001015484610ed79190612f8b565b9350611016565b80821461100757600260003373ffffffffffffffffffffffffffffffffffffffff1673ffffffffffffffffffffffffffffffffffffffff1681526020019081526020016000208181548110610f5c577f4e487b7100000000000000000000000000000000000000000000000000000000600052603260045260246000fd5b9060005260206000209060020201600260003373ffffffffffffffffffffffffffffffffffffffff1673ffffffffffffffffffffffffffffffffffffffff1681526020019081526020016000208381548110610fe1577f4e487b7100000000000000000000000000000000000000000000000000000000600052603260045260246000fd5b906000526020600020906002020160008201548160000155600182015481600101559050505b818061101290613167565b9250505b808061102190613167565b915050610d6a565b506000831161106d576040517f08c379a000000000000000000000000000000000000000000000000000000000815260040161106490612c26565b60405180910390fd5b600081600260003373ffffffffffffffffffffffffffffffffffffffff1673ffffffffffffffffffffffffffffffffffffffff168152602001908152602001600020805490506110bd919061303b565b905060005b8181101561117b57600260003373ffffffffffffffffffffffffffffffffffffffff1673ffffffffffffffffffffffffffffffffffffffff16815260200190815260200160002080548061113f577f4e487b7100000000000000000000000000000000000000000000000000000000600052603160045260246000fd5b6001900381819060005260206000209060020201600080820160009055600182016000905550509055808061117390613167565b9150506110c2565b503373ffffffffffffffffffffffffffffffffffffffff166108fc859081150290604051600060405180830381858888f193505050501580156111c2573d6000803e3d6000fd5b5050505050565b600281565b60035481565b600381565b6201518081565b600b60009054906101000a900473ffffffffffffffffffffffffffffffffffffffff1681565b6002602052816000526040600020818154811061122257600080fd5b9060005260206000209060020201600091509150508060000154908060010154905082565b60036008541461128c576040517f08c379a000000000000000000000000000000000000000000000000000000000815260040161128390612bc6565b60405180910390fd5b4284116112ce576040517f08c379a00000000000000000000000000000000000000000000000000000000081526004016112c590612ca6565b60405180910390fd5b6002600a5465c816bdd9c0006112e49190612f8b565b6112ee9190612fe1565b341015611330576040517f08c379a000000000000000000000000000000000000000000000000000000000815260040161132790612c06565b60405180910390fd5b60006005549050600460405180606001604052808381526020018781526020016000815250908060018154018082558091505060019003906000526020600020906003020160009091909190915060008201518160000155602082015181600101556040820151816002015550507fb181b2a1d6a5d18b67f2004f38f058c1bd100e74788e1623c242c8b9bb55ac8e81868686866040516113d5959493929190612de8565b60405180910390a1600560008154809291906113f090613167565b91905055505050505050565b6004818154811061140c57600080fd5b90600052602060002090600302016000915090508060000154908060010154908060020154905083565b60085481565b600160205280600052604060002060009150905080600001805461145f90613135565b80601f016020809104026020016040519081016040528092919081815260200182805461148b90613135565b80156114d85780601f106114ad576101008083540402835291602001916114d8565b820191906000526020600020905b8154815290600101906020018083116114bb57829003601f168201915b5050505050908060010154905082565b60006020528060005260406000206000915054906101000a900473ffffffffffffffffffffffffffffffffffffffff1681565b60066020528160005260406000206020528060005260406000206000915091509054906101000a900460ff1681565b600a5481565b6000600160003373ffffffffffffffffffffffffffffffffffffffff1673ffffffffffffffffffffffffffffffffffffffff1681526020019081526020016000206001015414156115d6576040517f08c379a00000000000000000000000000000000000000000000000000000000081526004016115cd90612d06565b60405180910390fd5b6000600190508061161c576040517f08c379a000000000000000000000000000000000000000000000000000000000815260040161161390612c86565b60405180910390fd5b61162533611efb565b61162e3361207b565b50565b6000600160003373ffffffffffffffffffffffffffffffffffffffff1673ffffffffffffffffffffffffffffffffffffffff1681526020019081526020016000206001015414156116b7576040517f08c379a00000000000000000000000000000000000000000000000000000000081526004016116ae90612d06565b60405180910390fd5b60048054905082106116fe576040517f08c379a00000000000000000000000000000000000000000000000000000000081526004016116f590612d26565b60405180910390fd5b600073ffffffffffffffffffffffffffffffffffffffff1660008083815260200190815260200160002060009054906101000a900473ffffffffffffffffffffffffffffffffffffffff1673ffffffffffffffffffffffffffffffffffffffff1614156117a0576040517f08c379a000000000000000000000000000000000000000000000000000000000815260040161179790612c66565b60405180910390fd5b60005b60076000848152602001908152602001600020805490508110156119a4573373ffffffffffffffffffffffffffffffffffffffff16600760008581526020019081526020016000208281548110611823577f4e487b7100000000000000000000000000000000000000000000000000000000600052603260045260246000fd5b906000526020600020906002020160000160009054906101000a900473ffffffffffffffffffffffffffffffffffffffff1673ffffffffffffffffffffffffffffffffffffffff16148015611951575060008083815260200190815260200160002060009054906101000a900473ffffffffffffffffffffffffffffffffffffffff1673ffffffffffffffffffffffffffffffffffffffff16600760008581526020019081526020016000208281548110611907577f4e487b7100000000000000000000000000000000000000000000000000000000600052603260045260246000fd5b906000526020600020906002020160010160009054906101000a900473ffffffffffffffffffffffffffffffffffffffff1673ffffffffffffffffffffffffffffffffffffffff16145b15611991576040517f08c379a000000000000000000000000000000000000000000000000000000000815260040161198890612cc6565b60405180910390fd5b808061199c90613167565b9150506117a3565b506007600083815260200190815260200160002060405180604001604052803373ffffffffffffffffffffffffffffffffffffffff16815260200160008085815260200190815260200160002060009054906101000a900473ffffffffffffffffffffffffffffffffffffffff1673ffffffffffffffffffffffffffffffffffffffff16815250908060018154018082558091505060019003906000526020600020906002020160009091909190915060008201518160000160006101000a81548173ffffffffffffffffffffffffffffffffffffffff021916908373ffffffffffffffffffffffffffffffffffffffff16021790555060208201518160010160006101000a81548173ffffffffffffffffffffffffffffffffffffffff021916908373ffffffffffffffffffffffffffffffffffffffff16021790555050506000805b6007600085815260200190815260200160002080549050811015611c0a5760008084815260200190815260200160002060009054906101000a900473ffffffffffffffffffffffffffffffffffffffff1673ffffffffffffffffffffffffffffffffffffffff16600760008681526020019081526020016000208281548110611b9a577f4e487b7100000000000000000000000000000000000000000000000000000000600052603260045260246000fd5b906000526020600020906002020160010160009054906101000a900473ffffffffffffffffffffffffffffffffffffffff1673ffffffffffffffffffffffffffffffffffffffff161415611bf7578180611bf390613167565b9250505b8080611c0290613167565b915050611ae8565b5060028110611eea57611c4e60008084815260200190815260200160002060009054906101000a900473ffffffffffffffffffffffffffffffffffffffff16611efb565b60005b6007600085815260200190815260200160002080549050811015611e875760008084815260200190815260200160002060009054906101000a900473ffffffffffffffffffffffffffffffffffffffff1673ffffffffffffffffffffffffffffffffffffffff16600760008681526020019081526020016000208281548110611d03577f4e487b7100000000000000000000000000000000000000000000000000000000600052603260045260246000fd5b906000526020600020906002020160010160009054906101000a900473ffffffffffffffffffffffffffffffffffffffff1673ffffffffffffffffffffffffffffffffffffffff161415611e745760026000600760008781526020019081526020016000208381548110611da0577f4e487b7100000000000000000000000000000000000000000000000000000000600052603260045260246000fd5b906000526020600020906002020160000160009054906101000a900473ffffffffffffffffffffffffffffffffffffffff1673ffffffffffffffffffffffffffffffffffffffff1673ffffffffffffffffffffffffffffffffffffffff1681526020019081526020016000206040518060400160405280428152602001600a5465c816bdd9c000611e319190612f8b565b8152509080600181540180825580915050600190039060005260206000209060020201600090919091909150600082015181600001556020820151816001015550505b8080611e7f90613167565b915050611c51565b5060048381548110611ec2577f4e487b7100000000000000000000000000000000000000000000000000000000600052603260045260246000fd5b90600052602060002090600302016002016000815480929190611ee49061310b565b91905055505b505050565b670de0b6b3a764000081565b7f8e2fc6f8c13ceb3dca43cd9c572c8f92fd259e0e4247dca89aa344b65dfff9a8600160008373ffffffffffffffffffffffffffffffffffffffff1673ffffffffffffffffffffffffffffffffffffffff16815260200190815260200160002060010154604051611f6c9190612d66565b60405180910390a16000806000600160008573ffffffffffffffffffffffffffffffffffffffff1673ffffffffffffffffffffffffffffffffffffffff16815260200190815260200160002060010154815260200190815260200160002060006101000a81548173ffffffffffffffffffffffffffffffffffffffff021916908373ffffffffffffffffffffffffffffffffffffffff160217905550600160008273ffffffffffffffffffffffffffffffffffffffff1673ffffffffffffffffffffffffffffffffffffffff168152602001908152602001600020600080820160006120589190612153565b600182016000905550506008600081546120719061310b565b9190508190555050565b8073ffffffffffffffffffffffffffffffffffffffff166108fc670de0b6b3a76400009081150290604051600060405180830381858888f193505050501580156120c9573d6000803e3d6000fd5b5050565b8280546120d990613135565b90600052602060002090601f0160209004810192826120fb5760008555612142565b82601f1061211457805160ff1916838001178555612142565b82800160010185558215612142579182015b82811115612141578251825591602001919060010190612126565b5b50905061214f9190612193565b5090565b50805461215f90613135565b6000825580601f106121715750612190565b601f01602090049060005260206000209081019061218f9190612193565b5b50565b5b808211156121ac576000816000905550600101612194565b5090565b60006121c36121be84612eb8565b612e87565b9050808382526020820190508260005b8581101561220357813585016121e9888261229f565b8452602084019350602083019250506001810190506121d3565b5050509392505050565b600061222061221b84612ee4565b612e87565b90508281526020810184848401111561223857600080fd5b6122438482856130c9565b509392505050565b60008135905061225a8161324e565b92915050565b60008135905061226f81613265565b92915050565b600082601f83011261228657600080fd5b81356122968482602086016121b0565b91505092915050565b600082601f8301126122b057600080fd5b81356122c084826020860161220d565b91505092915050565b6000813590506122d88161327c565b92915050565b6000602082840312156122f057600080fd5b60006122fe8482850161224b565b91505092915050565b60006020828403121561231957600080fd5b600061232784828501612260565b91505092915050565b6000806040838503121561234357600080fd5b60006123518582860161224b565b9250506020612362858286016122c9565b9150509250929050565b60006020828403121561237e57600080fd5b600082013567ffffffffffffffff81111561239857600080fd5b6123a48482850161229f565b91505092915050565b6000602082840312156123bf57600080fd5b60006123cd848285016122c9565b91505092915050565b600080604083850312156123e957600080fd5b60006123f7858286016122c9565b92505060206124088582860161224b565b9150509250929050565b6000806040838503121561242557600080fd5b6000612433858286016122c9565b925050602083013567ffffffffffffffff81111561245057600080fd5b61245c8582860161229f565b9150509250929050565b6000806000806080858703121561247c57600080fd5b600061248a878288016122c9565b945050602085013567ffffffffffffffff8111156124a757600080fd5b6124b38782880161229f565b935050604085013567ffffffffffffffff8111156124d057600080fd5b6124dc8782880161229f565b925050606085013567ffffffffffffffff8111156124f957600080fd5b61250587828801612275565b91505092959194509250565b6000806040838503121561252457600080fd5b6000612532858286016122c9565b9250506020612543858286016122c9565b9150509250929050565b600061255983836125f4565b905092915050565b61256a8161306f565b82525050565b600061257b82612f24565b6125858185612f47565b93508360208202850161259785612f14565b8060005b858110156125d357848403895281516125b4858261254d565b94506125bf83612f3a565b925060208a0199505060018101905061259b565b50829750879550505050505092915050565b6125ee81613093565b82525050565b60006125ff82612f2f565b6126098185612f58565b93506126198185602086016130d8565b6126228161323d565b840191505092915050565b600061263882612f2f565b6126428185612f69565b93506126528185602086016130d8565b61265b8161323d565b840191505092915050565b6000612673602283612f7a565b91507f43616c6c657220697320616c726561647920696e2074686520636f6d6d69747460008301527f65650000000000000000000000000000000000000000000000000000000000006020830152604082019050919050565b60006126d9601983612f7a565b91507f436f6d6d6974746565206973206e6f7420696e20706c616365000000000000006000830152602082019050919050565b6000612719601783612f7a565b91507f43616c6c6572206973206e6f7420746865206f776e65720000000000000000006000830152602082019050919050565b6000612759600e83612f7a565b91507f4e6f7420656e6f756768206665650000000000000000000000000000000000006000830152602082019050919050565b6000612799601583612f7a565b91507f4e6f207265776172647320746f20636f6c6c65637400000000000000000000006000830152602082019050919050565b60006127d9601183612f7a565b91507f436f6d6d69747465652069732066756c6c0000000000000000000000000000006000830152602082019050919050565b6000612819602783612f7a565b91507f4469737075746564206d656d626572206973206e6f7420696e2074686520636f60008301527f6d6d6974746565000000000000000000000000000000000000000000000000006020830152604082019050919050565b600061287f604583612f7a565b91507f596f75207374696c6c2068617665207461736b732c20706c656173652066696e60008301527f697368206578697374696e67207461736b73206f722064656c6567617465207460208301527f61736b732e0000000000000000000000000000000000000000000000000000006040830152606082019050919050565b600061290b602583612f7a565b91507f44656372797074696f6e2074696d65206d75737420626520696e20746865206660008301527f75747572650000000000000000000000000000000000000000000000000000006020830152604082019050919050565b6000612971603c83612f7a565b91507f43616c6c65722068617320616c7265616479207265706f72746564207468697360008301527f206d656d62657220666f722074686973207472616e73616374696f6e000000006020830152604082019050919050565b60006129d7601b83612f7a565b91507f44656372797074696f6e2074696d65206e6f74207265616368656400000000006000830152602082019050919050565b6000612a17602083612f7a565b91507f43616c6c6572206973206e6f74206120636f6d6d6974746565206d656d6265726000830152602082019050919050565b6000612a57601683612f7a565b91507f496e76616c6964207472616e73616374696f6e204944000000000000000000006000830152602082019050919050565b6000612a97601283612f7a565b91507f4e6f7420656e6f756768206465706f73697400000000000000000000000000006000830152602082019050919050565b612ad3816130bf565b82525050565b6000602082019050612aee6000830184612561565b92915050565b6000604082019050612b096000830185612561565b612b166020830184612561565b9392505050565b6000606082019050612b326000830186612561565b612b3f6020830185612aca565b8181036040830152612b51818461262d565b9050949350505050565b6000602082019050612b7060008301846125e5565b92915050565b60006040820190508181036000830152612b90818561262d565b9050612b9f6020830184612aca565b9392505050565b60006020820190508181036000830152612bbf81612666565b9050919050565b60006020820190508181036000830152612bdf816126cc565b9050919050565b60006020820190508181036000830152612bff8161270c565b9050919050565b60006020820190508181036000830152612c1f8161274c565b9050919050565b60006020820190508181036000830152612c3f8161278c565b9050919050565b60006020820190508181036000830152612c5f816127cc565b9050919050565b60006020820190508181036000830152612c7f8161280c565b9050919050565b60006020820190508181036000830152612c9f81612872565b9050919050565b60006020820190508181036000830152612cbf816128fe565b9050919050565b60006020820190508181036000830152612cdf81612964565b9050919050565b60006020820190508181036000830152612cff816129ca565b9050919050565b60006020820190508181036000830152612d1f81612a0a565b9050919050565b60006020820190508181036000830152612d3f81612a4a565b9050919050565b60006020820190508181036000830152612d5f81612a8a565b9050919050565b6000602082019050612d7b6000830184612aca565b92915050565b6000604082019050612d966000830185612aca565b612da36020830184612aca565b9392505050565b6000606082019050612dbf6000830186612aca565b612dcc6020830185612aca565b8181036040830152612dde818461262d565b9050949350505050565b600060a082019050612dfd6000830188612aca565b612e0a6020830187612aca565b8181036040830152612e1c818661262d565b90508181036060830152612e30818561262d565b90508181036080830152612e448184612570565b90509695505050505050565b6000606082019050612e656000830186612aca565b612e726020830185612aca565b612e7f6040830184612aca565b949350505050565b6000604051905081810181811067ffffffffffffffff82111715612eae57612ead61320e565b5b8060405250919050565b600067ffffffffffffffff821115612ed357612ed261320e565b5b602082029050602081019050919050565b600067ffffffffffffffff821115612eff57612efe61320e565b5b601f19601f8301169050602081019050919050565b6000819050602082019050919050565b600081519050919050565b600081519050919050565b6000602082019050919050565b600082825260208201905092915050565b600082825260208201905092915050565b600082825260208201905092915050565b600082825260208201905092915050565b6000612f96826130bf565b9150612fa1836130bf565b9250827fffffffffffffffffffffffffffffffffffffffffffffffffffffffffffffffff03821115612fd657612fd56131b0565b5b828201905092915050565b6000612fec826130bf565b9150612ff7836130bf565b9250817fffffffffffffffffffffffffffffffffffffffffffffffffffffffffffffffff04831182151516156130305761302f6131b0565b5b828202905092915050565b6000613046826130bf565b9150613051836130bf565b925082821015613064576130636131b0565b5b828203905092915050565b600061307a8261309f565b9050919050565b600061308c8261309f565b9050919050565b60008115159050919050565b600073ffffffffffffffffffffffffffffffffffffffff82169050919050565b6000819050919050565b82818337600083830152505050565b60005b838110156130f65780820151818401526020810190506130db565b83811115613105576000848401525b50505050565b6000613116826130bf565b9150600082141561312a576131296131b0565b5b600182039050919050565b6000600282049050600182168061314d57607f821691505b60208210811415613161576131606131df565b5b50919050565b6000613172826130bf565b91507fffffffffffffffffffffffffffffffffffffffffffffffffffffffffffffffff8214156131a5576131a46131b0565b5b600182019050919050565b7f4e487b7100000000000000000000000000000000000000000000000000000000600052601160045260246000fd5b7f4e487b7100000000000000000000000000000000000000000000000000000000600052602260045260246000fd5b7f4e487b7100000000000000000000000000000000000000000000000000000000600052604160045260246000fd5b6000601f19601f8301169050919050565b6132578161306f565b811461326257600080fd5b50565b61326e81613081565b811461327957600080fd5b50565b613285816130bf565b811461329057600080fd5b5056fea26469706673582212203f21d784378f63214ae4152d2d9357b8322a31defc2387617358ac25ab740f7d64736f6c63430008000033",
					"opcodes": "PUSH1 0x80 PUSH1 0x40 MSTORE PUSH1 0x0 PUSH1 0x3 SSTORE PUSH1 0x0 PUSH1 0x5 SSTORE PUSH1 0x0 PUSH1 0x8 SSTORE PUSH1 0x1 PUSH1 0x9 SSTORE PUSH7 0x18DE76816D8000 PUSH1 0xA SSTORE CALLVALUE DUP1 ISZERO PUSH2 0x2F JUMPI PUSH1 0x0 DUP1 REVERT JUMPDEST POP CALLER PUSH1 0xB PUSH1 0x0 PUSH2 0x100 EXP DUP2 SLOAD DUP2 PUSH20 0xFFFFFFFFFFFFFFFFFFFFFFFFFFFFFFFFFFFFFFFF MUL NOT AND SWAP1 DUP4 PUSH20 0xFFFFFFFFFFFFFFFFFFFFFFFFFFFFFFFFFFFFFFFF AND MUL OR SWAP1 SSTORE POP PUSH2 0x32C9 DUP1 PUSH2 0x80 PUSH1 0x0 CODECOPY PUSH1 0x0 RETURN INVALID PUSH1 0x80 PUSH1 0x40 MSTORE PUSH1 0x4 CALLDATASIZE LT PUSH2 0x14A JUMPI PUSH1 0x0 CALLDATALOAD PUSH1 0xE0 SHR DUP1 PUSH4 0x8DA5CB5B GT PUSH2 0xB6 JUMPI DUP1 PUSH4 0xAFE7FCF4 GT PUSH2 0x6F JUMPI DUP1 PUSH4 0xAFE7FCF4 EQ PUSH2 0x46C JUMPI DUP1 PUSH4 0xD577C2C1 EQ PUSH2 0x4A9 JUMPI DUP1 PUSH4 0xD89E421C EQ PUSH2 0x4E6 JUMPI DUP1 PUSH4 0xD8E2EE0C EQ PUSH2 0x511 JUMPI DUP1 PUSH4 0xE076CAC4 EQ PUSH2 0x528 JUMPI DUP1 PUSH4 0xEC6925A7 EQ PUSH2 0x551 JUMPI PUSH2 0x14A JUMP JUMPDEST DUP1 PUSH4 0x8DA5CB5B EQ PUSH2 0x33F JUMPI DUP1 PUSH4 0x968E8F50 EQ PUSH2 0x36A JUMPI DUP1 PUSH4 0x98C89201 EQ PUSH2 0x3A8 JUMPI DUP1 PUSH4 0x9ACE38C2 EQ PUSH2 0x3C4 JUMPI DUP1 PUSH4 0x9CF4364B EQ PUSH2 0x403 JUMPI DUP1 PUSH4 0xA3D6F9A9 EQ PUSH2 0x42E JUMPI PUSH2 0x14A JUMP JUMPDEST DUP1 PUSH4 0x5968C4C0 GT PUSH2 0x108 JUMPI DUP1 PUSH4 0x5968C4C0 EQ PUSH2 0x251 JUMPI DUP1 PUSH4 0x70BB45B3 EQ PUSH2 0x27C JUMPI DUP1 PUSH4 0x785FFB37 EQ PUSH2 0x293 JUMPI DUP1 PUSH4 0x79697807 EQ PUSH2 0x2BE JUMPI DUP1 PUSH4 0x7F10792D EQ PUSH2 0x2E9 JUMPI DUP1 PUSH4 0x80A6D4F4 EQ PUSH2 0x314 JUMPI PUSH2 0x14A JUMP JUMPDEST DUP1 PUSH3 0xF55D9D EQ PUSH2 0x14F JUMPI DUP1 PUSH4 0x14E887E8 EQ PUSH2 0x178 JUMPI DUP1 PUSH4 0x19A0BC4A EQ PUSH2 0x1A3 JUMPI DUP1 PUSH4 0x244E88D6 EQ PUSH2 0x1CE JUMPI DUP1 PUSH4 0x2BA1F592 EQ PUSH2 0x1F7 JUMPI DUP1 PUSH4 0x389311FF EQ PUSH2 0x235 JUMPI JUMPDEST PUSH1 0x0 DUP1 REVERT JUMPDEST CALLVALUE DUP1 ISZERO PUSH2 0x15B JUMPI PUSH1 0x0 DUP1 REVERT JUMPDEST POP PUSH2 0x176 PUSH1 0x4 DUP1 CALLDATASIZE SUB DUP2 ADD SWAP1 PUSH2 0x171 SWAP2 SWAP1 PUSH2 0x2307 JUMP JUMPDEST PUSH2 0x57C JUMP JUMPDEST STOP JUMPDEST CALLVALUE DUP1 ISZERO PUSH2 0x184 JUMPI PUSH1 0x0 DUP1 REVERT JUMPDEST POP PUSH2 0x18D PUSH2 0x625 JUMP JUMPDEST PUSH1 0x40 MLOAD PUSH2 0x19A SWAP2 SWAP1 PUSH2 0x2D66 JUMP JUMPDEST PUSH1 0x40 MLOAD DUP1 SWAP2 SUB SWAP1 RETURN JUMPDEST CALLVALUE DUP1 ISZERO PUSH2 0x1AF JUMPI PUSH1 0x0 DUP1 REVERT JUMPDEST POP PUSH2 0x1B8 PUSH2 0x62B JUMP JUMPDEST PUSH1 0x40 MLOAD PUSH2 0x1C5 SWAP2 SWAP1 PUSH2 0x2D66 JUMP JUMPDEST PUSH1 0x40 MLOAD DUP1 SWAP2 SUB SWAP1 RETURN JUMPDEST CALLVALUE DUP1 ISZERO PUSH2 0x1DA JUMPI PUSH1 0x0 DUP1 REVERT JUMPDEST POP PUSH2 0x1F5 PUSH1 0x4 DUP1 CALLDATASIZE SUB DUP2 ADD SWAP1 PUSH2 0x1F0 SWAP2 SWAP1 PUSH2 0x2412 JUMP JUMPDEST PUSH2 0x631 JUMP JUMPDEST STOP JUMPDEST CALLVALUE DUP1 ISZERO PUSH2 0x203 JUMPI PUSH1 0x0 DUP1 REVERT JUMPDEST POP PUSH2 0x21E PUSH1 0x4 DUP1 CALLDATASIZE SUB DUP2 ADD SWAP1 PUSH2 0x219 SWAP2 SWAP1 PUSH2 0x2511 JUMP JUMPDEST PUSH2 0x9ED JUMP JUMPDEST PUSH1 0x40 MLOAD PUSH2 0x22C SWAP3 SWAP2 SWAP1 PUSH2 0x2AF4 JUMP JUMPDEST PUSH1 0x40 MLOAD DUP1 SWAP2 SUB SWAP1 RETURN JUMPDEST PUSH2 0x24F PUSH1 0x4 DUP1 CALLDATASIZE SUB DUP2 ADD SWAP1 PUSH2 0x24A SWAP2 SWAP1 PUSH2 0x236C JUMP JUMPDEST PUSH2 0xA6E JUMP JUMPDEST STOP JUMPDEST CALLVALUE DUP1 ISZERO PUSH2 0x25D JUMPI PUSH1 0x0 DUP1 REVERT JUMPDEST POP PUSH2 0x266 PUSH2 0xCC2 JUMP JUMPDEST PUSH1 0x40 MLOAD PUSH2 0x273 SWAP2 SWAP1 PUSH2 0x2D66 JUMP JUMPDEST PUSH1 0x40 MLOAD DUP1 SWAP2 SUB SWAP1 RETURN JUMPDEST CALLVALUE DUP1 ISZERO PUSH2 0x288 JUMPI PUSH1 0x0 DUP1 REVERT JUMPDEST POP PUSH2 0x291 PUSH2 0xCCC JUMP JUMPDEST STOP JUMPDEST CALLVALUE DUP1 ISZERO PUSH2 0x29F JUMPI PUSH1 0x0 DUP1 REVERT JUMPDEST POP PUSH2 0x2A8 PUSH2 0x11C9 JUMP JUMPDEST PUSH1 0x40 MLOAD PUSH2 0x2B5 SWAP2 SWAP1 PUSH2 0x2D66 JUMP JUMPDEST PUSH1 0x40 MLOAD DUP1 SWAP2 SUB SWAP1 RETURN JUMPDEST CALLVALUE DUP1 ISZERO PUSH2 0x2CA JUMPI PUSH1 0x0 DUP1 REVERT JUMPDEST POP PUSH2 0x2D3 PUSH2 0x11CE JUMP JUMPDEST PUSH1 0x40 MLOAD PUSH2 0x2E0 SWAP2 SWAP1 PUSH2 0x2D66 JUMP JUMPDEST PUSH1 0x40 MLOAD DUP1 SWAP2 SUB SWAP1 RETURN JUMPDEST CALLVALUE DUP1 ISZERO PUSH2 0x2F5 JUMPI PUSH1 0x0 DUP1 REVERT JUMPDEST POP PUSH2 0x2FE PUSH2 0x11D4 JUMP JUMPDEST PUSH1 0x40 MLOAD PUSH2 0x30B SWAP2 SWAP1 PUSH2 0x2D66 JUMP JUMPDEST PUSH1 0x40 MLOAD DUP1 SWAP2 SUB SWAP1 RETURN JUMPDEST CALLVALUE DUP1 ISZERO PUSH2 0x320 JUMPI PUSH1 0x0 DUP1 REVERT JUMPDEST POP PUSH2 0x329 PUSH2 0x11D9 JUMP JUMPDEST PUSH1 0x40 MLOAD PUSH2 0x336 SWAP2 SWAP1 PUSH2 0x2D66 JUMP JUMPDEST PUSH1 0x40 MLOAD DUP1 SWAP2 SUB SWAP1 RETURN JUMPDEST CALLVALUE DUP1 ISZERO PUSH2 0x34B JUMPI PUSH1 0x0 DUP1 REVERT JUMPDEST POP PUSH2 0x354 PUSH2 0x11E0 JUMP JUMPDEST PUSH1 0x40 MLOAD PUSH2 0x361 SWAP2 SWAP1 PUSH2 0x2AD9 JUMP JUMPDEST PUSH1 0x40 MLOAD DUP1 SWAP2 SUB SWAP1 RETURN JUMPDEST CALLVALUE DUP1 ISZERO PUSH2 0x376 JUMPI PUSH1 0x0 DUP1 REVERT JUMPDEST POP PUSH2 0x391 PUSH1 0x4 DUP1 CALLDATASIZE SUB DUP2 ADD SWAP1 PUSH2 0x38C SWAP2 SWAP1 PUSH2 0x2330 JUMP JUMPDEST PUSH2 0x1206 JUMP JUMPDEST PUSH1 0x40 MLOAD PUSH2 0x39F SWAP3 SWAP2 SWAP1 PUSH2 0x2D81 JUMP JUMPDEST PUSH1 0x40 MLOAD DUP1 SWAP2 SUB SWAP1 RETURN JUMPDEST PUSH2 0x3C2 PUSH1 0x4 DUP1 CALLDATASIZE SUB DUP2 ADD SWAP1 PUSH2 0x3BD SWAP2 SWAP1 PUSH2 0x2466 JUMP JUMPDEST PUSH2 0x1247 JUMP JUMPDEST STOP JUMPDEST CALLVALUE DUP1 ISZERO PUSH2 0x3D0 JUMPI PUSH1 0x0 DUP1 REVERT JUMPDEST POP PUSH2 0x3EB PUSH1 0x4 DUP1 CALLDATASIZE SUB DUP2 ADD SWAP1 PUSH2 0x3E6 SWAP2 SWAP1 PUSH2 0x23AD JUMP JUMPDEST PUSH2 0x13FC JUMP JUMPDEST PUSH1 0x40 MLOAD PUSH2 0x3FA SWAP4 SWAP3 SWAP2 SWAP1 PUSH2 0x2E50 JUMP JUMPDEST PUSH1 0x40 MLOAD DUP1 SWAP2 SUB SWAP1 RETURN JUMPDEST CALLVALUE DUP1 ISZERO PUSH2 0x40F JUMPI PUSH1 0x0 DUP1 REVERT JUMPDEST POP PUSH2 0x418 PUSH2 0x1436 JUMP JUMPDEST PUSH1 0x40 MLOAD PUSH2 0x425 SWAP2 SWAP1 PUSH2 0x2D66 JUMP JUMPDEST PUSH1 0x40 MLOAD DUP1 SWAP2 SUB SWAP1 RETURN JUMPDEST CALLVALUE DUP1 ISZERO PUSH2 0x43A JUMPI PUSH1 0x0 DUP1 REVERT JUMPDEST POP PUSH2 0x455 PUSH1 0x4 DUP1 CALLDATASIZE SUB DUP2 ADD SWAP1 PUSH2 0x450 SWAP2 SWAP1 PUSH2 0x22DE JUMP JUMPDEST PUSH2 0x143C JUMP JUMPDEST PUSH1 0x40 MLOAD PUSH2 0x463 SWAP3 SWAP2 SWAP1 PUSH2 0x2B76 JUMP JUMPDEST PUSH1 0x40 MLOAD DUP1 SWAP2 SUB SWAP1 RETURN JUMPDEST CALLVALUE DUP1 ISZERO PUSH2 0x478 JUMPI PUSH1 0x0 DUP1 REVERT JUMPDEST POP PUSH2 0x493 PUSH1 0x4 DUP1 CALLDATASIZE SUB DUP2 ADD SWAP1 PUSH2 0x48E SWAP2 SWAP1 PUSH2 0x23AD JUMP JUMPDEST PUSH2 0x14E8 JUMP JUMPDEST PUSH1 0x40 MLOAD PUSH2 0x4A0 SWAP2 SWAP1 PUSH2 0x2AD9 JUMP JUMPDEST PUSH1 0x40 MLOAD DUP1 SWAP2 SUB SWAP1 RETURN JUMPDEST CALLVALUE DUP1 ISZERO PUSH2 0x4B5 JUMPI PUSH1 0x0 DUP1 REVERT JUMPDEST POP PUSH2 0x4D0 PUSH1 0x4 DUP1 CALLDATASIZE SUB DUP2 ADD SWAP1 PUSH2 0x4CB SWAP2 SWAP1 PUSH2 0x23D6 JUMP JUMPDEST PUSH2 0x151B JUMP JUMPDEST PUSH1 0x40 MLOAD PUSH2 0x4DD SWAP2 SWAP1 PUSH2 0x2B5B JUMP JUMPDEST PUSH1 0x40 MLOAD DUP1 SWAP2 SUB SWAP1 RETURN JUMPDEST CALLVALUE DUP1 ISZERO PUSH2 0x4F2 JUMPI PUSH1 0x0 DUP1 REVERT JUMPDEST POP PUSH2 0x4FB PUSH2 0x154A JUMP JUMPDEST PUSH1 0x40 MLOAD PUSH2 0x508 SWAP2 SWAP1 PUSH2 0x2D66 JUMP JUMPDEST PUSH1 0x40 MLOAD DUP1 SWAP2 SUB SWAP1 RETURN JUMPDEST CALLVALUE DUP1 ISZERO PUSH2 0x51D JUMPI PUSH1 0x0 DUP1 REVERT JUMPDEST POP PUSH2 0x526 PUSH2 0x1550 JUMP JUMPDEST STOP JUMPDEST CALLVALUE DUP1 ISZERO PUSH2 0x534 JUMPI PUSH1 0x0 DUP1 REVERT JUMPDEST POP PUSH2 0x54F PUSH1 0x4 DUP1 CALLDATASIZE SUB DUP2 ADD SWAP1 PUSH2 0x54A SWAP2 SWAP1 PUSH2 0x2511 JUMP JUMPDEST PUSH2 0x1631 JUMP JUMPDEST STOP JUMPDEST CALLVALUE DUP1 ISZERO PUSH2 0x55D JUMPI PUSH1 0x0 DUP1 REVERT JUMPDEST POP PUSH2 0x566 PUSH2 0x1EEF JUMP JUMPDEST PUSH1 0x40 MLOAD PUSH2 0x573 SWAP2 SWAP1 PUSH2 0x2D66 JUMP JUMPDEST PUSH1 0x40 MLOAD DUP1 SWAP2 SUB SWAP1 RETURN JUMPDEST PUSH1 0xB PUSH1 0x0 SWAP1 SLOAD SWAP1 PUSH2 0x100 EXP SWAP1 DIV PUSH20 0xFFFFFFFFFFFFFFFFFFFFFFFFFFFFFFFFFFFFFFFF AND PUSH20 0xFFFFFFFFFFFFFFFFFFFFFFFFFFFFFFFFFFFFFFFF AND CALLER PUSH20 0xFFFFFFFFFFFFFFFFFFFFFFFFFFFFFFFFFFFFFFFF AND EQ PUSH2 0x60C JUMPI PUSH1 0x40 MLOAD PUSH32 0x8C379A000000000000000000000000000000000000000000000000000000000 DUP2 MSTORE PUSH1 0x4 ADD PUSH2 0x603 SWAP1 PUSH2 0x2BE6 JUMP JUMPDEST PUSH1 0x40 MLOAD DUP1 SWAP2 SUB SWAP1 REVERT JUMPDEST DUP1 PUSH20 0xFFFFFFFFFFFFFFFFFFFFFFFFFFFFFFFFFFFFFFFF AND SELFDESTRUCT JUMPDEST PUSH1 0x5 SLOAD DUP2 JUMP JUMPDEST PUSH1 0x9 SLOAD DUP2 JUMP JUMPDEST PUSH1 0x0 PUSH1 0x1 PUSH1 0x0 CALLER PUSH20 0xFFFFFFFFFFFFFFFFFFFFFFFFFFFFFFFFFFFFFFFF AND PUSH20 0xFFFFFFFFFFFFFFFFFFFFFFFFFFFFFFFFFFFFFFFF AND DUP2 MSTORE PUSH1 0x20 ADD SWAP1 DUP2 MSTORE PUSH1 0x20 ADD PUSH1 0x0 KECCAK256 PUSH1 0x1 ADD SLOAD EQ ISZERO PUSH2 0x6B7 JUMPI PUSH1 0x40 MLOAD PUSH32 0x8C379A000000000000000000000000000000000000000000000000000000000 DUP2 MSTORE PUSH1 0x4 ADD PUSH2 0x6AE SWAP1 PUSH2 0x2D06 JUMP JUMPDEST PUSH1 0x40 MLOAD DUP1 SWAP2 SUB SWAP1 REVERT JUMPDEST PUSH1 0x4 DUP3 DUP2 SLOAD DUP2 LT PUSH2 0x6F1 JUMPI PUSH32 0x4E487B7100000000000000000000000000000000000000000000000000000000 PUSH1 0x0 MSTORE PUSH1 0x32 PUSH1 0x4 MSTORE PUSH1 0x24 PUSH1 0x0 REVERT JUMPDEST SWAP1 PUSH1 0x0 MSTORE PUSH1 0x20 PUSH1 0x0 KECCAK256 SWAP1 PUSH1 0x3 MUL ADD PUSH1 0x1 ADD SLOAD TIMESTAMP LT ISZERO PUSH2 0x745 JUMPI PUSH1 0x40 MLOAD PUSH32 0x8C379A000000000000000000000000000000000000000000000000000000000 DUP2 MSTORE PUSH1 0x4 ADD PUSH2 0x73C SWAP1 PUSH2 0x2CE6 JUMP JUMPDEST PUSH1 0x40 MLOAD DUP1 SWAP2 SUB SWAP1 REVERT JUMPDEST PUSH32 0x32095EE3CAD3B30D29D83BACBBA0FE0C8DE1C59733C53CB32E3F9A9AEAFBADF2 PUSH1 0x1 PUSH1 0x0 CALLER PUSH20 0xFFFFFFFFFFFFFFFFFFFFFFFFFFFFFFFFFFFFFFFF AND PUSH20 0xFFFFFFFFFFFFFFFFFFFFFFFFFFFFFFFFFFFFFFFF AND DUP2 MSTORE PUSH1 0x20 ADD SWAP1 DUP2 MSTORE PUSH1 0x20 ADD PUSH1 0x0 KECCAK256 PUSH1 0x1 ADD SLOAD DUP4 DUP4 PUSH1 0x40 MLOAD PUSH2 0x7BA SWAP4 SWAP3 SWAP2 SWAP1 PUSH2 0x2DAA JUMP JUMPDEST PUSH1 0x40 MLOAD DUP1 SWAP2 SUB SWAP1 LOG1 PUSH1 0x6 PUSH1 0x0 DUP4 DUP2 MSTORE PUSH1 0x20 ADD SWAP1 DUP2 MSTORE PUSH1 0x20 ADD PUSH1 0x0 KECCAK256 PUSH1 0x0 CALLER PUSH20 0xFFFFFFFFFFFFFFFFFFFFFFFFFFFFFFFFFFFFFFFF AND PUSH20 0xFFFFFFFFFFFFFFFFFFFFFFFFFFFFFFFFFFFFFFFF AND DUP2 MSTORE PUSH1 0x20 ADD SWAP1 DUP2 MSTORE PUSH1 0x20 ADD PUSH1 0x0 KECCAK256 PUSH1 0x0 SWAP1 SLOAD SWAP1 PUSH2 0x100 EXP SWAP1 DIV PUSH1 0xFF AND PUSH2 0x9E9 JUMPI PUSH1 0x1 PUSH1 0x6 PUSH1 0x0 DUP5 DUP2 MSTORE PUSH1 0x20 ADD SWAP1 DUP2 MSTORE PUSH1 0x20 ADD PUSH1 0x0 KECCAK256 PUSH1 0x0 CALLER PUSH20 0xFFFFFFFFFFFFFFFFFFFFFFFFFFFFFFFFFFFFFFFF AND PUSH20 0xFFFFFFFFFFFFFFFFFFFFFFFFFFFFFFFFFFFFFFFF AND DUP2 MSTORE PUSH1 0x20 ADD SWAP1 DUP2 MSTORE PUSH1 0x20 ADD PUSH1 0x0 KECCAK256 PUSH1 0x0 PUSH2 0x100 EXP DUP2 SLOAD DUP2 PUSH1 0xFF MUL NOT AND SWAP1 DUP4 ISZERO ISZERO MUL OR SWAP1 SSTORE POP PUSH1 0x4 DUP3 DUP2 SLOAD DUP2 LT PUSH2 0x8C7 JUMPI PUSH32 0x4E487B7100000000000000000000000000000000000000000000000000000000 PUSH1 0x0 MSTORE PUSH1 0x32 PUSH1 0x4 MSTORE PUSH1 0x24 PUSH1 0x0 REVERT JUMPDEST SWAP1 PUSH1 0x0 MSTORE PUSH1 0x20 PUSH1 0x0 KECCAK256 SWAP1 PUSH1 0x3 MUL ADD PUSH1 0x2 ADD PUSH1 0x0 DUP2 SLOAD DUP1 SWAP3 SWAP2 SWAP1 PUSH2 0x8E9 SWAP1 PUSH2 0x3167 JUMP JUMPDEST SWAP2 SWAP1 POP SSTORE POP PUSH1 0x2 PUSH1 0x4 DUP4 DUP2 SLOAD DUP2 LT PUSH2 0x92A JUMPI PUSH32 0x4E487B7100000000000000000000000000000000000000000000000000000000 PUSH1 0x0 MSTORE PUSH1 0x32 PUSH1 0x4 MSTORE PUSH1 0x24 PUSH1 0x0 REVERT JUMPDEST SWAP1 PUSH1 0x0 MSTORE PUSH1 0x20 PUSH1 0x0 KECCAK256 SWAP1 PUSH1 0x3 MUL ADD PUSH1 0x2 ADD SLOAD GT PUSH2 0x9E8 JUMPI PUSH1 0x2 PUSH1 0x0 CALLER PUSH20 0xFFFFFFFFFFFFFFFFFFFFFFFFFFFFFFFFFFFFFFFF AND PUSH20 0xFFFFFFFFFFFFFFFFFFFFFFFFFFFFFFFFFFFFFFFF AND DUP2 MSTORE PUSH1 0x20 ADD SWAP1 DUP2 MSTORE PUSH1 0x20 ADD PUSH1 0x0 KECCAK256 PUSH1 0x40 MLOAD DUP1 PUSH1 0x40 ADD PUSH1 0x40 MSTORE DUP1 TIMESTAMP DUP2 MSTORE PUSH1 0x20 ADD PUSH1 0xA SLOAD PUSH6 0xC816BDD9C000 PUSH2 0x9A5 SWAP2 SWAP1 PUSH2 0x2F8B JUMP JUMPDEST DUP2 MSTORE POP SWAP1 DUP1 PUSH1 0x1 DUP2 SLOAD ADD DUP1 DUP3 SSTORE DUP1 SWAP2 POP POP PUSH1 0x1 SWAP1 SUB SWAP1 PUSH1 0x0 MSTORE PUSH1 0x20 PUSH1 0x0 KECCAK256 SWAP1 PUSH1 0x2 MUL ADD PUSH1 0x0 SWAP1 SWAP2 SWAP1 SWAP2 SWAP1 SWAP2 POP PUSH1 0x0 DUP3 ADD MLOAD DUP2 PUSH1 0x0 ADD SSTORE PUSH1 0x20 DUP3 ADD MLOAD DUP2 PUSH1 0x1 ADD SSTORE POP POP JUMPDEST JUMPDEST POP POP JUMP JUMPDEST PUSH1 0x7 PUSH1 0x20 MSTORE DUP2 PUSH1 0x0 MSTORE PUSH1 0x40 PUSH1 0x0 KECCAK256 DUP2 DUP2 SLOAD DUP2 LT PUSH2 0xA09 JUMPI PUSH1 0x0 DUP1 REVERT JUMPDEST SWAP1 PUSH1 0x0 MSTORE PUSH1 0x20 PUSH1 0x0 KECCAK256 SWAP1 PUSH1 0x2 MUL ADD PUSH1 0x0 SWAP2 POP SWAP2 POP POP DUP1 PUSH1 0x0 ADD PUSH1 0x0 SWAP1 SLOAD SWAP1 PUSH2 0x100 EXP SWAP1 DIV PUSH20 0xFFFFFFFFFFFFFFFFFFFFFFFFFFFFFFFFFFFFFFFF AND SWAP1 DUP1 PUSH1 0x1 ADD PUSH1 0x0 SWAP1 SLOAD SWAP1 PUSH2 0x100 EXP SWAP1 DIV PUSH20 0xFFFFFFFFFFFFFFFFFFFFFFFFFFFFFFFFFFFFFFFF AND SWAP1 POP DUP3 JUMP JUMPDEST PUSH1 0x3 PUSH1 0x8 SLOAD LT PUSH2 0xAB3 JUMPI PUSH1 0x40 MLOAD PUSH32 0x8C379A000000000000000000000000000000000000000000000000000000000 DUP2 MSTORE PUSH1 0x4 ADD PUSH2 0xAAA SWAP1 PUSH2 0x2C46 JUMP JUMPDEST PUSH1 0x40 MLOAD DUP1 SWAP2 SUB SWAP1 REVERT JUMPDEST PUSH1 0x0 PUSH1 0x1 PUSH1 0x0 CALLER PUSH20 0xFFFFFFFFFFFFFFFFFFFFFFFFFFFFFFFFFFFFFFFF AND PUSH20 0xFFFFFFFFFFFFFFFFFFFFFFFFFFFFFFFFFFFFFFFF AND DUP2 MSTORE PUSH1 0x20 ADD SWAP1 DUP2 MSTORE PUSH1 0x20 ADD PUSH1 0x0 KECCAK256 PUSH1 0x1 ADD SLOAD EQ PUSH2 0xB38 JUMPI PUSH1 0x40 MLOAD PUSH32 0x8C379A000000000000000000000000000000000000000000000000000000000 DUP2 MSTORE PUSH1 0x4 ADD PUSH2 0xB2F SWAP1 PUSH2 0x2BA6 JUMP JUMPDEST PUSH1 0x40 MLOAD DUP1 SWAP2 SUB SWAP1 REVERT JUMPDEST PUSH8 0xDE0B6B3A7640000 CALLVALUE LT ISZERO PUSH2 0xB83 JUMPI PUSH1 0x40 MLOAD PUSH32 0x8C379A000000000000000000000000000000000000000000000000000000000 DUP2 MSTORE PUSH1 0x4 ADD PUSH2 0xB7A SWAP1 PUSH2 0x2D46 JUMP JUMPDEST PUSH1 0x40 MLOAD DUP1 SWAP2 SUB SWAP1 REVERT JUMPDEST PUSH1 0x40 MLOAD DUP1 PUSH1 0x40 ADD PUSH1 0x40 MSTORE DUP1 DUP3 DUP2 MSTORE PUSH1 0x20 ADD PUSH1 0x9 SLOAD DUP2 MSTORE POP PUSH1 0x1 PUSH1 0x0 CALLER PUSH20 0xFFFFFFFFFFFFFFFFFFFFFFFFFFFFFFFFFFFFFFFF AND PUSH20 0xFFFFFFFFFFFFFFFFFFFFFFFFFFFFFFFFFFFFFFFF AND DUP2 MSTORE PUSH1 0x20 ADD SWAP1 DUP2 MSTORE PUSH1 0x20 ADD PUSH1 0x0 KECCAK256 PUSH1 0x0 DUP3 ADD MLOAD DUP2 PUSH1 0x0 ADD SWAP1 DUP1 MLOAD SWAP1 PUSH1 0x20 ADD SWAP1 PUSH2 0xBF5 SWAP3 SWAP2 SWAP1 PUSH2 0x20CD JUMP JUMPDEST POP PUSH1 0x20 DUP3 ADD MLOAD DUP2 PUSH1 0x1 ADD SSTORE SWAP1 POP POP CALLER PUSH1 0x0 DUP1 PUSH1 0x9 SLOAD DUP2 MSTORE PUSH1 0x20 ADD SWAP1 DUP2 MSTORE PUSH1 0x20 ADD PUSH1 0x0 KECCAK256 PUSH1 0x0 PUSH2 0x100 EXP DUP2 SLOAD DUP2 PUSH20 0xFFFFFFFFFFFFFFFFFFFFFFFFFFFFFFFFFFFFFFFF MUL NOT AND SWAP1 DUP4 PUSH20 0xFFFFFFFFFFFFFFFFFFFFFFFFFFFFFFFFFFFFFFFF AND MUL OR SWAP1 SSTORE POP PUSH32 0xED502E3A5CCED6D8C7C0380FACC0B9C22A607E9E19F0AB6D4FEC92918D6C389D CALLER PUSH1 0x9 SLOAD DUP4 PUSH1 0x40 MLOAD PUSH2 0xC8B SWAP4 SWAP3 SWAP2 SWAP1 PUSH2 0x2B1D JUMP JUMPDEST PUSH1 0x40 MLOAD DUP1 SWAP2 SUB SWAP1 LOG1 PUSH1 0x8 PUSH1 0x0 DUP2 SLOAD PUSH2 0xCA2 SWAP1 PUSH2 0x3167 JUMP JUMPDEST SWAP2 SWAP1 POP DUP2 SWAP1 SSTORE POP PUSH1 0x9 PUSH1 0x0 DUP2 SLOAD PUSH2 0xCB8 SWAP1 PUSH2 0x3167 JUMP JUMPDEST SWAP2 SWAP1 POP DUP2 SWAP1 SSTORE POP POP JUMP JUMPDEST PUSH6 0xC816BDD9C000 DUP2 JUMP JUMPDEST PUSH1 0x0 PUSH1 0x1 PUSH1 0x0 CALLER PUSH20 0xFFFFFFFFFFFFFFFFFFFFFFFFFFFFFFFFFFFFFFFF AND PUSH20 0xFFFFFFFFFFFFFFFFFFFFFFFFFFFFFFFFFFFFFFFF AND DUP2 MSTORE PUSH1 0x20 ADD SWAP1 DUP2 MSTORE PUSH1 0x20 ADD PUSH1 0x0 KECCAK256 PUSH1 0x1 ADD SLOAD EQ ISZERO PUSH2 0xD52 JUMPI PUSH1 0x40 MLOAD PUSH32 0x8C379A000000000000000000000000000000000000000000000000000000000 DUP2 MSTORE PUSH1 0x4 ADD PUSH2 0xD49 SWAP1 PUSH2 0x2D06 JUMP JUMPDEST PUSH1 0x40 MLOAD DUP1 SWAP2 SUB SWAP1 REVERT JUMPDEST PUSH1 0x0 DUP1 PUSH3 0x15180 TIMESTAMP PUSH2 0xD64 SWAP2 SWAP1 PUSH2 0x303B JUMP JUMPDEST SWAP1 POP PUSH1 0x0 DUP1 JUMPDEST PUSH1 0x2 PUSH1 0x0 CALLER PUSH20 0xFFFFFFFFFFFFFFFFFFFFFFFFFFFFFFFFFFFFFFFF AND PUSH20 0xFFFFFFFFFFFFFFFFFFFFFFFFFFFFFFFFFFFFFFFF AND DUP2 MSTORE PUSH1 0x20 ADD SWAP1 DUP2 MSTORE PUSH1 0x20 ADD PUSH1 0x0 KECCAK256 DUP1 SLOAD SWAP1 POP DUP2 LT ISZERO PUSH2 0x1029 JUMPI DUP3 PUSH1 0x2 PUSH1 0x0 CALLER PUSH20 0xFFFFFFFFFFFFFFFFFFFFFFFFFFFFFFFFFFFFFFFF AND PUSH20 0xFFFFFFFFFFFFFFFFFFFFFFFFFFFFFFFFFFFFFFFF AND DUP2 MSTORE PUSH1 0x20 ADD SWAP1 DUP2 MSTORE PUSH1 0x20 ADD PUSH1 0x0 KECCAK256 DUP3 DUP2 SLOAD DUP2 LT PUSH2 0xE2C JUMPI PUSH32 0x4E487B7100000000000000000000000000000000000000000000000000000000 PUSH1 0x0 MSTORE PUSH1 0x32 PUSH1 0x4 MSTORE PUSH1 0x24 PUSH1 0x0 REVERT JUMPDEST SWAP1 PUSH1 0x0 MSTORE PUSH1 0x20 PUSH1 0x0 KECCAK256 SWAP1 PUSH1 0x2 MUL ADD PUSH1 0x0 ADD SLOAD GT PUSH2 0xEDE JUMPI PUSH1 0x2 PUSH1 0x0 CALLER PUSH20 0xFFFFFFFFFFFFFFFFFFFFFFFFFFFFFFFFFFFFFFFF AND PUSH20 0xFFFFFFFFFFFFFFFFFFFFFFFFFFFFFFFFFFFFFFFF AND DUP2 MSTORE PUSH1 0x20 ADD SWAP1 DUP2 MSTORE PUSH1 0x20 ADD PUSH1 0x0 KECCAK256 DUP2 DUP2 SLOAD DUP2 LT PUSH2 0xEBA JUMPI PUSH32 0x4E487B7100000000000000000000000000000000000000000000000000000000 PUSH1 0x0 MSTORE PUSH1 0x32 PUSH1 0x4 MSTORE PUSH1 0x24 PUSH1 0x0 REVERT JUMPDEST SWAP1 PUSH1 0x0 MSTORE PUSH1 0x20 PUSH1 0x0 KECCAK256 SWAP1 PUSH1 0x2 MUL ADD PUSH1 0x1 ADD SLOAD DUP5 PUSH2 0xED7 SWAP2 SWAP1 PUSH2 0x2F8B JUMP JUMPDEST SWAP4 POP PUSH2 0x1016 JUMP JUMPDEST DUP1 DUP3 EQ PUSH2 0x1007 JUMPI PUSH1 0x2 PUSH1 0x0 CALLER PUSH20 0xFFFFFFFFFFFFFFFFFFFFFFFFFFFFFFFFFFFFFFFF AND PUSH20 0xFFFFFFFFFFFFFFFFFFFFFFFFFFFFFFFFFFFFFFFF AND DUP2 MSTORE PUSH1 0x20 ADD SWAP1 DUP2 MSTORE PUSH1 0x20 ADD PUSH1 0x0 KECCAK256 DUP2 DUP2 SLOAD DUP2 LT PUSH2 0xF5C JUMPI PUSH32 0x4E487B7100000000000000000000000000000000000000000000000000000000 PUSH1 0x0 MSTORE PUSH1 0x32 PUSH1 0x4 MSTORE PUSH1 0x24 PUSH1 0x0 REVERT JUMPDEST SWAP1 PUSH1 0x0 MSTORE PUSH1 0x20 PUSH1 0x0 KECCAK256 SWAP1 PUSH1 0x2 MUL ADD PUSH1 0x2 PUSH1 0x0 CALLER PUSH20 0xFFFFFFFFFFFFFFFFFFFFFFFFFFFFFFFFFFFFFFFF AND PUSH20 0xFFFFFFFFFFFFFFFFFFFFFFFFFFFFFFFFFFFFFFFF AND DUP2 MSTORE PUSH1 0x20 ADD SWAP1 DUP2 MSTORE PUSH1 0x20 ADD PUSH1 0x0 KECCAK256 DUP4 DUP2 SLOAD DUP2 LT PUSH2 0xFE1 JUMPI PUSH32 0x4E487B7100000000000000000000000000000000000000000000000000000000 PUSH1 0x0 MSTORE PUSH1 0x32 PUSH1 0x4 MSTORE PUSH1 0x24 PUSH1 0x0 REVERT JUMPDEST SWAP1 PUSH1 0x0 MSTORE PUSH1 0x20 PUSH1 0x0 KECCAK256 SWAP1 PUSH1 0x2 MUL ADD PUSH1 0x0 DUP3 ADD SLOAD DUP2 PUSH1 0x0 ADD SSTORE PUSH1 0x1 DUP3 ADD SLOAD DUP2 PUSH1 0x1 ADD SSTORE SWAP1 POP POP JUMPDEST DUP2 DUP1 PUSH2 0x1012 SWAP1 PUSH2 0x3167 JUMP JUMPDEST SWAP3 POP POP JUMPDEST DUP1 DUP1 PUSH2 0x1021 SWAP1 PUSH2 0x3167 JUMP JUMPDEST SWAP2 POP POP PUSH2 0xD6A JUMP JUMPDEST POP PUSH1 0x0 DUP4 GT PUSH2 0x106D JUMPI PUSH1 0x40 MLOAD PUSH32 0x8C379A000000000000000000000000000000000000000000000000000000000 DUP2 MSTORE PUSH1 0x4 ADD PUSH2 0x1064 SWAP1 PUSH2 0x2C26 JUMP JUMPDEST PUSH1 0x40 MLOAD DUP1 SWAP2 SUB SWAP1 REVERT JUMPDEST PUSH1 0x0 DUP2 PUSH1 0x2 PUSH1 0x0 CALLER PUSH20 0xFFFFFFFFFFFFFFFFFFFFFFFFFFFFFFFFFFFFFFFF AND PUSH20 0xFFFFFFFFFFFFFFFFFFFFFFFFFFFFFFFFFFFFFFFF AND DUP2 MSTORE PUSH1 0x20 ADD SWAP1 DUP2 MSTORE PUSH1 0x20 ADD PUSH1 0x0 KECCAK256 DUP1 SLOAD SWAP1 POP PUSH2 0x10BD SWAP2 SWAP1 PUSH2 0x303B JUMP JUMPDEST SWAP1 POP PUSH1 0x0 JUMPDEST DUP2 DUP2 LT ISZERO PUSH2 0x117B JUMPI PUSH1 0x2 PUSH1 0x0 CALLER PUSH20 0xFFFFFFFFFFFFFFFFFFFFFFFFFFFFFFFFFFFFFFFF AND PUSH20 0xFFFFFFFFFFFFFFFFFFFFFFFFFFFFFFFFFFFFFFFF AND DUP2 MSTORE PUSH1 0x20 ADD SWAP1 DUP2 MSTORE PUSH1 0x20 ADD PUSH1 0x0 KECCAK256 DUP1 SLOAD DUP1 PUSH2 0x113F JUMPI PUSH32 0x4E487B7100000000000000000000000000000000000000000000000000000000 PUSH1 0x0 MSTORE PUSH1 0x31 PUSH1 0x4 MSTORE PUSH1 0x24 PUSH1 0x0 REVERT JUMPDEST PUSH1 0x1 SWAP1 SUB DUP2 DUP2 SWAP1 PUSH1 0x0 MSTORE PUSH1 0x20 PUSH1 0x0 KECCAK256 SWAP1 PUSH1 0x2 MUL ADD PUSH1 0x0 DUP1 DUP3 ADD PUSH1 0x0 SWAP1 SSTORE PUSH1 0x1 DUP3 ADD PUSH1 0x0 SWAP1 SSTORE POP POP SWAP1 SSTORE DUP1 DUP1 PUSH2 0x1173 SWAP1 PUSH2 0x3167 JUMP JUMPDEST SWAP2 POP POP PUSH2 0x10C2 JUMP JUMPDEST POP CALLER PUSH20 0xFFFFFFFFFFFFFFFFFFFFFFFFFFFFFFFFFFFFFFFF AND PUSH2 0x8FC DUP6 SWAP1 DUP2 ISZERO MUL SWAP1 PUSH1 0x40 MLOAD PUSH1 0x0 PUSH1 0x40 MLOAD DUP1 DUP4 SUB DUP2 DUP6 DUP9 DUP9 CALL SWAP4 POP POP POP POP ISZERO DUP1 ISZERO PUSH2 0x11C2 JUMPI RETURNDATASIZE PUSH1 0x0 DUP1 RETURNDATACOPY RETURNDATASIZE PUSH1 0x0 REVERT JUMPDEST POP POP POP POP POP JUMP JUMPDEST PUSH1 0x2 DUP2 JUMP JUMPDEST PUSH1 0x3 SLOAD DUP2 JUMP JUMPDEST PUSH1 0x3 DUP2 JUMP JUMPDEST PUSH3 0x15180 DUP2 JUMP JUMPDEST PUSH1 0xB PUSH1 0x0 SWAP1 SLOAD SWAP1 PUSH2 0x100 EXP SWAP1 DIV PUSH20 0xFFFFFFFFFFFFFFFFFFFFFFFFFFFFFFFFFFFFFFFF AND DUP2 JUMP JUMPDEST PUSH1 0x2 PUSH1 0x20 MSTORE DUP2 PUSH1 0x0 MSTORE PUSH1 0x40 PUSH1 0x0 KECCAK256 DUP2 DUP2 SLOAD DUP2 LT PUSH2 0x1222 JUMPI PUSH1 0x0 DUP1 REVERT JUMPDEST SWAP1 PUSH1 0x0 MSTORE PUSH1 0x20 PUSH1 0x0 KECCAK256 SWAP1 PUSH1 0x2 MUL ADD PUSH1 0x0 SWAP2 POP SWAP2 POP POP DUP1 PUSH1 0x0 ADD SLOAD SWAP1 DUP1 PUSH1 0x1 ADD SLOAD SWAP1 POP DUP3 JUMP JUMPDEST PUSH1 0x3 PUSH1 0x8 SLOAD EQ PUSH2 0x128C JUMPI PUSH1 0x40 MLOAD PUSH32 0x8C379A000000000000000000000000000000000000000000000000000000000 DUP2 MSTORE PUSH1 0x4 ADD PUSH2 0x1283 SWAP1 PUSH2 0x2BC6 JUMP JUMPDEST PUSH1 0x40 MLOAD DUP1 SWAP2 SUB SWAP1 REVERT JUMPDEST TIMESTAMP DUP5 GT PUSH2 0x12CE JUMPI PUSH1 0x40 MLOAD PUSH32 0x8C379A000000000000000000000000000000000000000000000000000000000 DUP2 MSTORE PUSH1 0x4 ADD PUSH2 0x12C5 SWAP1 PUSH2 0x2CA6 JUMP JUMPDEST PUSH1 0x40 MLOAD DUP1 SWAP2 SUB SWAP1 REVERT JUMPDEST PUSH1 0x2 PUSH1 0xA SLOAD PUSH6 0xC816BDD9C000 PUSH2 0x12E4 SWAP2 SWAP1 PUSH2 0x2F8B JUMP JUMPDEST PUSH2 0x12EE SWAP2 SWAP1 PUSH2 0x2FE1 JUMP JUMPDEST CALLVALUE LT ISZERO PUSH2 0x1330 JUMPI PUSH1 0x40 MLOAD PUSH32 0x8C379A000000000000000000000000000000000000000000000000000000000 DUP2 MSTORE PUSH1 0x4 ADD PUSH2 0x1327 SWAP1 PUSH2 0x2C06 JUMP JUMPDEST PUSH1 0x40 MLOAD DUP1 SWAP2 SUB SWAP1 REVERT JUMPDEST PUSH1 0x0 PUSH1 0x5 SLOAD SWAP1 POP PUSH1 0x4 PUSH1 0x40 MLOAD DUP1 PUSH1 0x60 ADD PUSH1 0x40 MSTORE DUP1 DUP4 DUP2 MSTORE PUSH1 0x20 ADD DUP8 DUP2 MSTORE PUSH1 0x20 ADD PUSH1 0x0 DUP2 MSTORE POP SWAP1 DUP1 PUSH1 0x1 DUP2 SLOAD ADD DUP1 DUP3 SSTORE DUP1 SWAP2 POP POP PUSH1 0x1 SWAP1 SUB SWAP1 PUSH1 0x0 MSTORE PUSH1 0x20 PUSH1 0x0 KECCAK256 SWAP1 PUSH1 0x3 MUL ADD PUSH1 0x0 SWAP1 SWAP2 SWAP1 SWAP2 SWAP1 SWAP2 POP PUSH1 0x0 DUP3 ADD MLOAD DUP2 PUSH1 0x0 ADD SSTORE PUSH1 0x20 DUP3 ADD MLOAD DUP2 PUSH1 0x1 ADD SSTORE PUSH1 0x40 DUP3 ADD MLOAD DUP2 PUSH1 0x2 ADD SSTORE POP POP PUSH32 0xB181B2A1D6A5D18B67F2004F38F058C1BD100E74788E1623C242C8B9BB55AC8E DUP2 DUP7 DUP7 DUP7 DUP7 PUSH1 0x40 MLOAD PUSH2 0x13D5 SWAP6 SWAP5 SWAP4 SWAP3 SWAP2 SWAP1 PUSH2 0x2DE8 JUMP JUMPDEST PUSH1 0x40 MLOAD DUP1 SWAP2 SUB SWAP1 LOG1 PUSH1 0x5 PUSH1 0x0 DUP2 SLOAD DUP1 SWAP3 SWAP2 SWAP1 PUSH2 0x13F0 SWAP1 PUSH2 0x3167 JUMP JUMPDEST SWAP2 SWAP1 POP SSTORE POP POP POP POP POP POP JUMP JUMPDEST PUSH1 0x4 DUP2 DUP2 SLOAD DUP2 LT PUSH2 0x140C JUMPI PUSH1 0x0 DUP1 REVERT JUMPDEST SWAP1 PUSH1 0x0 MSTORE PUSH1 0x20 PUSH1 0x0 KECCAK256 SWAP1 PUSH1 0x3 MUL ADD PUSH1 0x0 SWAP2 POP SWAP1 POP DUP1 PUSH1 0x0 ADD SLOAD SWAP1 DUP1 PUSH1 0x1 ADD SLOAD SWAP1 DUP1 PUSH1 0x2 ADD SLOAD SWAP1 POP DUP4 JUMP JUMPDEST PUSH1 0x8 SLOAD DUP2 JUMP JUMPDEST PUSH1 0x1 PUSH1 0x20 MSTORE DUP1 PUSH1 0x0 MSTORE PUSH1 0x40 PUSH1 0x0 KECCAK256 PUSH1 0x0 SWAP2 POP SWAP1 POP DUP1 PUSH1 0x0 ADD DUP1 SLOAD PUSH2 0x145F SWAP1 PUSH2 0x3135 JUMP JUMPDEST DUP1 PUSH1 0x1F ADD PUSH1 0x20 DUP1 SWAP2 DIV MUL PUSH1 0x20 ADD PUSH1 0x40 MLOAD SWAP1 DUP2 ADD PUSH1 0x40 MSTORE DUP1 SWAP3 SWAP2 SWAP1 DUP2 DUP2 MSTORE PUSH1 0x20 ADD DUP3 DUP1 SLOAD PUSH2 0x148B SWAP1 PUSH2 0x3135 JUMP JUMPDEST DUP1 ISZERO PUSH2 0x14D8 JUMPI DUP1 PUSH1 0x1F LT PUSH2 0x14AD JUMPI PUSH2 0x100 DUP1 DUP4 SLOAD DIV MUL DUP4 MSTORE SWAP2 PUSH1 0x20 ADD SWAP2 PUSH2 0x14D8 JUMP JUMPDEST DUP3 ADD SWAP2 SWAP1 PUSH1 0x0 MSTORE PUSH1 0x20 PUSH1 0x0 KECCAK256 SWAP1 JUMPDEST DUP2 SLOAD DUP2 MSTORE SWAP1 PUSH1 0x1 ADD SWAP1 PUSH1 0x20 ADD DUP1 DUP4 GT PUSH2 0x14BB JUMPI DUP3 SWAP1 SUB PUSH1 0x1F AND DUP3 ADD SWAP2 JUMPDEST POP POP POP POP POP SWAP1 DUP1 PUSH1 0x1 ADD SLOAD SWAP1 POP DUP3 JUMP JUMPDEST PUSH1 0x0 PUSH1 0x20 MSTORE DUP1 PUSH1 0x0 MSTORE PUSH1 0x40 PUSH1 0x0 KECCAK256 PUSH1 0x0 SWAP2 POP SLOAD SWAP1 PUSH2 0x100 EXP SWAP1 DIV PUSH20 0xFFFFFFFFFFFFFFFFFFFFFFFFFFFFFFFFFFFFFFFF AND DUP2 JUMP JUMPDEST PUSH1 0x6 PUSH1 0x20 MSTORE DUP2 PUSH1 0x0 MSTORE PUSH1 0x40 PUSH1 0x0 KECCAK256 PUSH1 0x20 MSTORE DUP1 PUSH1 0x0 MSTORE PUSH1 0x40 PUSH1 0x0 KECCAK256 PUSH1 0x0 SWAP2 POP SWAP2 POP SWAP1 SLOAD SWAP1 PUSH2 0x100 EXP SWAP1 DIV PUSH1 0xFF AND DUP2 JUMP JUMPDEST PUSH1 0xA SLOAD DUP2 JUMP JUMPDEST PUSH1 0x0 PUSH1 0x1 PUSH1 0x0 CALLER PUSH20 0xFFFFFFFFFFFFFFFFFFFFFFFFFFFFFFFFFFFFFFFF AND PUSH20 0xFFFFFFFFFFFFFFFFFFFFFFFFFFFFFFFFFFFFFFFF AND DUP2 MSTORE PUSH1 0x20 ADD SWAP1 DUP2 MSTORE PUSH1 0x20 ADD PUSH1 0x0 KECCAK256 PUSH1 0x1 ADD SLOAD EQ ISZERO PUSH2 0x15D6 JUMPI PUSH1 0x40 MLOAD PUSH32 0x8C379A000000000000000000000000000000000000000000000000000000000 DUP2 MSTORE PUSH1 0x4 ADD PUSH2 0x15CD SWAP1 PUSH2 0x2D06 JUMP JUMPDEST PUSH1 0x40 MLOAD DUP1 SWAP2 SUB SWAP1 REVERT JUMPDEST PUSH1 0x0 PUSH1 0x1 SWAP1 POP DUP1 PUSH2 0x161C JUMPI PUSH1 0x40 MLOAD PUSH32 0x8C379A000000000000000000000000000000000000000000000000000000000 DUP2 MSTORE PUSH1 0x4 ADD PUSH2 0x1613 SWAP1 PUSH2 0x2C86 JUMP JUMPDEST PUSH1 0x40 MLOAD DUP1 SWAP2 SUB SWAP1 REVERT JUMPDEST PUSH2 0x1625 CALLER PUSH2 0x1EFB JUMP JUMPDEST PUSH2 0x162E CALLER PUSH2 0x207B JUMP JUMPDEST POP JUMP JUMPDEST PUSH1 0x0 PUSH1 0x1 PUSH1 0x0 CALLER PUSH20 0xFFFFFFFFFFFFFFFFFFFFFFFFFFFFFFFFFFFFFFFF AND PUSH20 0xFFFFFFFFFFFFFFFFFFFFFFFFFFFFFFFFFFFFFFFF AND DUP2 MSTORE PUSH1 0x20 ADD SWAP1 DUP2 MSTORE PUSH1 0x20 ADD PUSH1 0x0 KECCAK256 PUSH1 0x1 ADD SLOAD EQ ISZERO PUSH2 0x16B7 JUMPI PUSH1 0x40 MLOAD PUSH32 0x8C379A000000000000000000000000000000000000000000000000000000000 DUP2 MSTORE PUSH1 0x4 ADD PUSH2 0x16AE SWAP1 PUSH2 0x2D06 JUMP JUMPDEST PUSH1 0x40 MLOAD DUP1 SWAP2 SUB SWAP1 REVERT JUMPDEST PUSH1 0x4 DUP1 SLOAD SWAP1 POP DUP3 LT PUSH2 0x16FE JUMPI PUSH1 0x40 MLOAD PUSH32 0x8C379A000000000000000000000000000000000000000000000000000000000 DUP2 MSTORE PUSH1 0x4 ADD PUSH2 0x16F5 SWAP1 PUSH2 0x2D26 JUMP JUMPDEST PUSH1 0x40 MLOAD DUP1 SWAP2 SUB SWAP1 REVERT JUMPDEST PUSH1 0x0 PUSH20 0xFFFFFFFFFFFFFFFFFFFFFFFFFFFFFFFFFFFFFFFF AND PUSH1 0x0 DUP1 DUP4 DUP2 MSTORE PUSH1 0x20 ADD SWAP1 DUP2 MSTORE PUSH1 0x20 ADD PUSH1 0x0 KECCAK256 PUSH1 0x0 SWAP1 SLOAD SWAP1 PUSH2 0x100 EXP SWAP1 DIV PUSH20 0xFFFFFFFFFFFFFFFFFFFFFFFFFFFFFFFFFFFFFFFF AND PUSH20 0xFFFFFFFFFFFFFFFFFFFFFFFFFFFFFFFFFFFFFFFF AND EQ ISZERO PUSH2 0x17A0 JUMPI PUSH1 0x40 MLOAD PUSH32 0x8C379A000000000000000000000000000000000000000000000000000000000 DUP2 MSTORE PUSH1 0x4 ADD PUSH2 0x1797 SWAP1 PUSH2 0x2C66 JUMP JUMPDEST PUSH1 0x40 MLOAD DUP1 SWAP2 SUB SWAP1 REVERT JUMPDEST PUSH1 0x0 JUMPDEST PUSH1 0x7 PUSH1 0x0 DUP5 DUP2 MSTORE PUSH1 0x20 ADD SWAP1 DUP2 MSTORE PUSH1 0x20 ADD PUSH1 0x0 KECCAK256 DUP1 SLOAD SWAP1 POP DUP2 LT ISZERO PUSH2 0x19A4 JUMPI CALLER PUSH20 0xFFFFFFFFFFFFFFFFFFFFFFFFFFFFFFFFFFFFFFFF AND PUSH1 0x7 PUSH1 0x0 DUP6 DUP2 MSTORE PUSH1 0x20 ADD SWAP1 DUP2 MSTORE PUSH1 0x20 ADD PUSH1 0x0 KECCAK256 DUP3 DUP2 SLOAD DUP2 LT PUSH2 0x1823 JUMPI PUSH32 0x4E487B7100000000000000000000000000000000000000000000000000000000 PUSH1 0x0 MSTORE PUSH1 0x32 PUSH1 0x4 MSTORE PUSH1 0x24 PUSH1 0x0 REVERT JUMPDEST SWAP1 PUSH1 0x0 MSTORE PUSH1 0x20 PUSH1 0x0 KECCAK256 SWAP1 PUSH1 0x2 MUL ADD PUSH1 0x0 ADD PUSH1 0x0 SWAP1 SLOAD SWAP1 PUSH2 0x100 EXP SWAP1 DIV PUSH20 0xFFFFFFFFFFFFFFFFFFFFFFFFFFFFFFFFFFFFFFFF AND PUSH20 0xFFFFFFFFFFFFFFFFFFFFFFFFFFFFFFFFFFFFFFFF AND EQ DUP1 ISZERO PUSH2 0x1951 JUMPI POP PUSH1 0x0 DUP1 DUP4 DUP2 MSTORE PUSH1 0x20 ADD SWAP1 DUP2 MSTORE PUSH1 0x20 ADD PUSH1 0x0 KECCAK256 PUSH1 0x0 SWAP1 SLOAD SWAP1 PUSH2 0x100 EXP SWAP1 DIV PUSH20 0xFFFFFFFFFFFFFFFFFFFFFFFFFFFFFFFFFFFFFFFF AND PUSH20 0xFFFFFFFFFFFFFFFFFFFFFFFFFFFFFFFFFFFFFFFF AND PUSH1 0x7 PUSH1 0x0 DUP6 DUP2 MSTORE PUSH1 0x20 ADD SWAP1 DUP2 MSTORE PUSH1 0x20 ADD PUSH1 0x0 KECCAK256 DUP3 DUP2 SLOAD DUP2 LT PUSH2 0x1907 JUMPI PUSH32 0x4E487B7100000000000000000000000000000000000000000000000000000000 PUSH1 0x0 MSTORE PUSH1 0x32 PUSH1 0x4 MSTORE PUSH1 0x24 PUSH1 0x0 REVERT JUMPDEST SWAP1 PUSH1 0x0 MSTORE PUSH1 0x20 PUSH1 0x0 KECCAK256 SWAP1 PUSH1 0x2 MUL ADD PUSH1 0x1 ADD PUSH1 0x0 SWAP1 SLOAD SWAP1 PUSH2 0x100 EXP SWAP1 DIV PUSH20 0xFFFFFFFFFFFFFFFFFFFFFFFFFFFFFFFFFFFFFFFF AND PUSH20 0xFFFFFFFFFFFFFFFFFFFFFFFFFFFFFFFFFFFFFFFF AND EQ JUMPDEST ISZERO PUSH2 0x1991 JUMPI PUSH1 0x40 MLOAD PUSH32 0x8C379A000000000000000000000000000000000000000000000000000000000 DUP2 MSTORE PUSH1 0x4 ADD PUSH2 0x1988 SWAP1 PUSH2 0x2CC6 JUMP JUMPDEST PUSH1 0x40 MLOAD DUP1 SWAP2 SUB SWAP1 REVERT JUMPDEST DUP1 DUP1 PUSH2 0x199C SWAP1 PUSH2 0x3167 JUMP JUMPDEST SWAP2 POP POP PUSH2 0x17A3 JUMP JUMPDEST POP PUSH1 0x7 PUSH1 0x0 DUP4 DUP2 MSTORE PUSH1 0x20 ADD SWAP1 DUP2 MSTORE PUSH1 0x20 ADD PUSH1 0x0 KECCAK256 PUSH1 0x40 MLOAD DUP1 PUSH1 0x40 ADD PUSH1 0x40 MSTORE DUP1 CALLER PUSH20 0xFFFFFFFFFFFFFFFFFFFFFFFFFFFFFFFFFFFFFFFF AND DUP2 MSTORE PUSH1 0x20 ADD PUSH1 0x0 DUP1 DUP6 DUP2 MSTORE PUSH1 0x20 ADD SWAP1 DUP2 MSTORE PUSH1 0x20 ADD PUSH1 0x0 KECCAK256 PUSH1 0x0 SWAP1 SLOAD SWAP1 PUSH2 0x100 EXP SWAP1 DIV PUSH20 0xFFFFFFFFFFFFFFFFFFFFFFFFFFFFFFFFFFFFFFFF AND PUSH20 0xFFFFFFFFFFFFFFFFFFFFFFFFFFFFFFFFFFFFFFFF AND DUP2 MSTORE POP SWAP1 DUP1 PUSH1 0x1 DUP2 SLOAD ADD DUP1 DUP3 SSTORE DUP1 SWAP2 POP POP PUSH1 0x1 SWAP1 SUB SWAP1 PUSH1 0x0 MSTORE PUSH1 0x20 PUSH1 0x0 KECCAK256 SWAP1 PUSH1 0x2 MUL ADD PUSH1 0x0 SWAP1 SWAP2 SWAP1 SWAP2 SWAP1 SWAP2 POP PUSH1 0x0 DUP3 ADD MLOAD DUP2 PUSH1 0x0 ADD PUSH1 0x0 PUSH2 0x100 EXP DUP2 SLOAD DUP2 PUSH20 0xFFFFFFFFFFFFFFFFFFFFFFFFFFFFFFFFFFFFFFFF MUL NOT AND SWAP1 DUP4 PUSH20 0xFFFFFFFFFFFFFFFFFFFFFFFFFFFFFFFFFFFFFFFF AND MUL OR SWAP1 SSTORE POP PUSH1 0x20 DUP3 ADD MLOAD DUP2 PUSH1 0x1 ADD PUSH1 0x0 PUSH2 0x100 EXP DUP2 SLOAD DUP2 PUSH20 0xFFFFFFFFFFFFFFFFFFFFFFFFFFFFFFFFFFFFFFFF MUL NOT AND SWAP1 DUP4 PUSH20 0xFFFFFFFFFFFFFFFFFFFFFFFFFFFFFFFFFFFFFFFF AND MUL OR SWAP1 SSTORE POP POP POP PUSH1 0x0 DUP1 JUMPDEST PUSH1 0x7 PUSH1 0x0 DUP6 DUP2 MSTORE PUSH1 0x20 ADD SWAP1 DUP2 MSTORE PUSH1 0x20 ADD PUSH1 0x0 KECCAK256 DUP1 SLOAD SWAP1 POP DUP2 LT ISZERO PUSH2 0x1C0A JUMPI PUSH1 0x0 DUP1 DUP5 DUP2 MSTORE PUSH1 0x20 ADD SWAP1 DUP2 MSTORE PUSH1 0x20 ADD PUSH1 0x0 KECCAK256 PUSH1 0x0 SWAP1 SLOAD SWAP1 PUSH2 0x100 EXP SWAP1 DIV PUSH20 0xFFFFFFFFFFFFFFFFFFFFFFFFFFFFFFFFFFFFFFFF AND PUSH20 0xFFFFFFFFFFFFFFFFFFFFFFFFFFFFFFFFFFFFFFFF AND PUSH1 0x7 PUSH1 0x0 DUP7 DUP2 MSTORE PUSH1 0x20 ADD SWAP1 DUP2 MSTORE PUSH1 0x20 ADD PUSH1 0x0 KECCAK256 DUP3 DUP2 SLOAD DUP2 LT PUSH2 0x1B9A JUMPI PUSH32 0x4E487B7100000000000000000000000000000000000000000000000000000000 PUSH1 0x0 MSTORE PUSH1 0x32 PUSH1 0x4 MSTORE PUSH1 0x24 PUSH1 0x0 REVERT JUMPDEST SWAP1 PUSH1 0x0 MSTORE PUSH1 0x20 PUSH1 0x0 KECCAK256 SWAP1 PUSH1 0x2 MUL ADD PUSH1 0x1 ADD PUSH1 0x0 SWAP1 SLOAD SWAP1 PUSH2 0x100 EXP SWAP1 DIV PUSH20 0xFFFFFFFFFFFFFFFFFFFFFFFFFFFFFFFFFFFFFFFF AND PUSH20 0xFFFFFFFFFFFFFFFFFFFFFFFFFFFFFFFFFFFFFFFF AND EQ ISZERO PUSH2 0x1BF7 JUMPI DUP2 DUP1 PUSH2 0x1BF3 SWAP1 PUSH2 0x3167 JUMP JUMPDEST SWAP3 POP POP JUMPDEST DUP1 DUP1 PUSH2 0x1C02 SWAP1 PUSH2 0x3167 JUMP JUMPDEST SWAP2 POP POP PUSH2 0x1AE8 JUMP JUMPDEST POP PUSH1 0x2 DUP2 LT PUSH2 0x1EEA JUMPI PUSH2 0x1C4E PUSH1 0x0 DUP1 DUP5 DUP2 MSTORE PUSH1 0x20 ADD SWAP1 DUP2 MSTORE PUSH1 0x20 ADD PUSH1 0x0 KECCAK256 PUSH1 0x0 SWAP1 SLOAD SWAP1 PUSH2 0x100 EXP SWAP1 DIV PUSH20 0xFFFFFFFFFFFFFFFFFFFFFFFFFFFFFFFFFFFFFFFF AND PUSH2 0x1EFB JUMP JUMPDEST PUSH1 0x0 JUMPDEST PUSH1 0x7 PUSH1 0x0 DUP6 DUP2 MSTORE PUSH1 0x20 ADD SWAP1 DUP2 MSTORE PUSH1 0x20 ADD PUSH1 0x0 KECCAK256 DUP1 SLOAD SWAP1 POP DUP2 LT ISZERO PUSH2 0x1E87 JUMPI PUSH1 0x0 DUP1 DUP5 DUP2 MSTORE PUSH1 0x20 ADD SWAP1 DUP2 MSTORE PUSH1 0x20 ADD PUSH1 0x0 KECCAK256 PUSH1 0x0 SWAP1 SLOAD SWAP1 PUSH2 0x100 EXP SWAP1 DIV PUSH20 0xFFFFFFFFFFFFFFFFFFFFFFFFFFFFFFFFFFFFFFFF AND PUSH20 0xFFFFFFFFFFFFFFFFFFFFFFFFFFFFFFFFFFFFFFFF AND PUSH1 0x7 PUSH1 0x0 DUP7 DUP2 MSTORE PUSH1 0x20 ADD SWAP1 DUP2 MSTORE PUSH1 0x20 ADD PUSH1 0x0 KECCAK256 DUP3 DUP2 SLOAD DUP2 LT PUSH2 0x1D03 JUMPI PUSH32 0x4E487B7100000000000000000000000000000000000000000000000000000000 PUSH1 0x0 MSTORE PUSH1 0x32 PUSH1 0x4 MSTORE PUSH1 0x24 PUSH1 0x0 REVERT JUMPDEST SWAP1 PUSH1 0x0 MSTORE PUSH1 0x20 PUSH1 0x0 KECCAK256 SWAP1 PUSH1 0x2 MUL ADD PUSH1 0x1 ADD PUSH1 0x0 SWAP1 SLOAD SWAP1 PUSH2 0x100 EXP SWAP1 DIV PUSH20 0xFFFFFFFFFFFFFFFFFFFFFFFFFFFFFFFFFFFFFFFF AND PUSH20 0xFFFFFFFFFFFFFFFFFFFFFFFFFFFFFFFFFFFFFFFF AND EQ ISZERO PUSH2 0x1E74 JUMPI PUSH1 0x2 PUSH1 0x0 PUSH1 0x7 PUSH1 0x0 DUP8 DUP2 MSTORE PUSH1 0x20 ADD SWAP1 DUP2 MSTORE PUSH1 0x20 ADD PUSH1 0x0 KECCAK256 DUP4 DUP2 SLOAD DUP2 LT PUSH2 0x1DA0 JUMPI PUSH32 0x4E487B7100000000000000000000000000000000000000000000000000000000 PUSH1 0x0 MSTORE PUSH1 0x32 PUSH1 0x4 MSTORE PUSH1 0x24 PUSH1 0x0 REVERT JUMPDEST SWAP1 PUSH1 0x0 MSTORE PUSH1 0x20 PUSH1 0x0 KECCAK256 SWAP1 PUSH1 0x2 MUL ADD PUSH1 0x0 ADD PUSH1 0x0 SWAP1 SLOAD SWAP1 PUSH2 0x100 EXP SWAP1 DIV PUSH20 0xFFFFFFFFFFFFFFFFFFFFFFFFFFFFFFFFFFFFFFFF AND PUSH20 0xFFFFFFFFFFFFFFFFFFFFFFFFFFFFFFFFFFFFFFFF AND PUSH20 0xFFFFFFFFFFFFFFFFFFFFFFFFFFFFFFFFFFFFFFFF AND DUP2 MSTORE PUSH1 0x20 ADD SWAP1 DUP2 MSTORE PUSH1 0x20 ADD PUSH1 0x0 KECCAK256 PUSH1 0x40 MLOAD DUP1 PUSH1 0x40 ADD PUSH1 0x40 MSTORE DUP1 TIMESTAMP DUP2 MSTORE PUSH1 0x20 ADD PUSH1 0xA SLOAD PUSH6 0xC816BDD9C000 PUSH2 0x1E31 SWAP2 SWAP1 PUSH2 0x2F8B JUMP JUMPDEST DUP2 MSTORE POP SWAP1 DUP1 PUSH1 0x1 DUP2 SLOAD ADD DUP1 DUP3 SSTORE DUP1 SWAP2 POP POP PUSH1 0x1 SWAP1 SUB SWAP1 PUSH1 0x0 MSTORE PUSH1 0x20 PUSH1 0x0 KECCAK256 SWAP1 PUSH1 0x2 MUL ADD PUSH1 0x0 SWAP1 SWAP2 SWAP1 SWAP2 SWAP1 SWAP2 POP PUSH1 0x0 DUP3 ADD MLOAD DUP2 PUSH1 0x0 ADD SSTORE PUSH1 0x20 DUP3 ADD MLOAD DUP2 PUSH1 0x1 ADD SSTORE POP POP JUMPDEST DUP1 DUP1 PUSH2 0x1E7F SWAP1 PUSH2 0x3167 JUMP JUMPDEST SWAP2 POP POP PUSH2 0x1C51 JUMP JUMPDEST POP PUSH1 0x4 DUP4 DUP2 SLOAD DUP2 LT PUSH2 0x1EC2 JUMPI PUSH32 0x4E487B7100000000000000000000000000000000000000000000000000000000 PUSH1 0x0 MSTORE PUSH1 0x32 PUSH1 0x4 MSTORE PUSH1 0x24 PUSH1 0x0 REVERT JUMPDEST SWAP1 PUSH1 0x0 MSTORE PUSH1 0x20 PUSH1 0x0 KECCAK256 SWAP1 PUSH1 0x3 MUL ADD PUSH1 0x2 ADD PUSH1 0x0 DUP2 SLOAD DUP1 SWAP3 SWAP2 SWAP1 PUSH2 0x1EE4 SWAP1 PUSH2 0x310B JUMP JUMPDEST SWAP2 SWAP1 POP SSTORE POP JUMPDEST POP POP POP JUMP JUMPDEST PUSH8 0xDE0B6B3A7640000 DUP2 JUMP JUMPDEST PUSH32 0x8E2FC6F8C13CEB3DCA43CD9C572C8F92FD259E0E4247DCA89AA344B65DFFF9A8 PUSH1 0x1 PUSH1 0x0 DUP4 PUSH20 0xFFFFFFFFFFFFFFFFFFFFFFFFFFFFFFFFFFFFFFFF AND PUSH20 0xFFFFFFFFFFFFFFFFFFFFFFFFFFFFFFFFFFFFFFFF AND DUP2 MSTORE PUSH1 0x20 ADD SWAP1 DUP2 MSTORE PUSH1 0x20 ADD PUSH1 0x0 KECCAK256 PUSH1 0x1 ADD SLOAD PUSH1 0x40 MLOAD PUSH2 0x1F6C SWAP2 SWAP1 PUSH2 0x2D66 JUMP JUMPDEST PUSH1 0x40 MLOAD DUP1 SWAP2 SUB SWAP1 LOG1 PUSH1 0x0 DUP1 PUSH1 0x0 PUSH1 0x1 PUSH1 0x0 DUP6 PUSH20 0xFFFFFFFFFFFFFFFFFFFFFFFFFFFFFFFFFFFFFFFF AND PUSH20 0xFFFFFFFFFFFFFFFFFFFFFFFFFFFFFFFFFFFFFFFF AND DUP2 MSTORE PUSH1 0x20 ADD SWAP1 DUP2 MSTORE PUSH1 0x20 ADD PUSH1 0x0 KECCAK256 PUSH1 0x1 ADD SLOAD DUP2 MSTORE PUSH1 0x20 ADD SWAP1 DUP2 MSTORE PUSH1 0x20 ADD PUSH1 0x0 KECCAK256 PUSH1 0x0 PUSH2 0x100 EXP DUP2 SLOAD DUP2 PUSH20 0xFFFFFFFFFFFFFFFFFFFFFFFFFFFFFFFFFFFFFFFF MUL NOT AND SWAP1 DUP4 PUSH20 0xFFFFFFFFFFFFFFFFFFFFFFFFFFFFFFFFFFFFFFFF AND MUL OR SWAP1 SSTORE POP PUSH1 0x1 PUSH1 0x0 DUP3 PUSH20 0xFFFFFFFFFFFFFFFFFFFFFFFFFFFFFFFFFFFFFFFF AND PUSH20 0xFFFFFFFFFFFFFFFFFFFFFFFFFFFFFFFFFFFFFFFF AND DUP2 MSTORE PUSH1 0x20 ADD SWAP1 DUP2 MSTORE PUSH1 0x20 ADD PUSH1 0x0 KECCAK256 PUSH1 0x0 DUP1 DUP3 ADD PUSH1 0x0 PUSH2 0x2058 SWAP2 SWAP1 PUSH2 0x2153 JUMP JUMPDEST PUSH1 0x1 DUP3 ADD PUSH1 0x0 SWAP1 SSTORE POP POP PUSH1 0x8 PUSH1 0x0 DUP2 SLOAD PUSH2 0x2071 SWAP1 PUSH2 0x310B JUMP JUMPDEST SWAP2 SWAP1 POP DUP2 SWAP1 SSTORE POP POP JUMP JUMPDEST DUP1 PUSH20 0xFFFFFFFFFFFFFFFFFFFFFFFFFFFFFFFFFFFFFFFF AND PUSH2 0x8FC PUSH8 0xDE0B6B3A7640000 SWAP1 DUP2 ISZERO MUL SWAP1 PUSH1 0x40 MLOAD PUSH1 0x0 PUSH1 0x40 MLOAD DUP1 DUP4 SUB DUP2 DUP6 DUP9 DUP9 CALL SWAP4 POP POP POP POP ISZERO DUP1 ISZERO PUSH2 0x20C9 JUMPI RETURNDATASIZE PUSH1 0x0 DUP1 RETURNDATACOPY RETURNDATASIZE PUSH1 0x0 REVERT JUMPDEST POP POP JUMP JUMPDEST DUP3 DUP1 SLOAD PUSH2 0x20D9 SWAP1 PUSH2 0x3135 JUMP JUMPDEST SWAP1 PUSH1 0x0 MSTORE PUSH1 0x20 PUSH1 0x0 KECCAK256 SWAP1 PUSH1 0x1F ADD PUSH1 0x20 SWAP1 DIV DUP2 ADD SWAP3 DUP3 PUSH2 0x20FB JUMPI PUSH1 0x0 DUP6 SSTORE PUSH2 0x2142 JUMP JUMPDEST DUP3 PUSH1 0x1F LT PUSH2 0x2114 JUMPI DUP1 MLOAD PUSH1 0xFF NOT AND DUP4 DUP1 ADD OR DUP6 SSTORE PUSH2 0x2142 JUMP JUMPDEST DUP3 DUP1 ADD PUSH1 0x1 ADD DUP6 SSTORE DUP3 ISZERO PUSH2 0x2142 JUMPI SWAP2 DUP3 ADD JUMPDEST DUP3 DUP2 GT ISZERO PUSH2 0x2141 JUMPI DUP3 MLOAD DUP3 SSTORE SWAP2 PUSH1 0x20 ADD SWAP2 SWAP1 PUSH1 0x1 ADD SWAP1 PUSH2 0x2126 JUMP JUMPDEST JUMPDEST POP SWAP1 POP PUSH2 0x214F SWAP2 SWAP1 PUSH2 0x2193 JUMP JUMPDEST POP SWAP1 JUMP JUMPDEST POP DUP1 SLOAD PUSH2 0x215F SWAP1 PUSH2 0x3135 JUMP JUMPDEST PUSH1 0x0 DUP3 SSTORE DUP1 PUSH1 0x1F LT PUSH2 0x2171 JUMPI POP PUSH2 0x2190 JUMP JUMPDEST PUSH1 0x1F ADD PUSH1 0x20 SWAP1 DIV SWAP1 PUSH1 0x0 MSTORE PUSH1 0x20 PUSH1 0x0 KECCAK256 SWAP1 DUP2 ADD SWAP1 PUSH2 0x218F SWAP2 SWAP1 PUSH2 0x2193 JUMP JUMPDEST JUMPDEST POP JUMP JUMPDEST JUMPDEST DUP1 DUP3 GT ISZERO PUSH2 0x21AC JUMPI PUSH1 0x0 DUP2 PUSH1 0x0 SWAP1 SSTORE POP PUSH1 0x1 ADD PUSH2 0x2194 JUMP JUMPDEST POP SWAP1 JUMP JUMPDEST PUSH1 0x0 PUSH2 0x21C3 PUSH2 0x21BE DUP5 PUSH2 0x2EB8 JUMP JUMPDEST PUSH2 0x2E87 JUMP JUMPDEST SWAP1 POP DUP1 DUP4 DUP3 MSTORE PUSH1 0x20 DUP3 ADD SWAP1 POP DUP3 PUSH1 0x0 JUMPDEST DUP6 DUP2 LT ISZERO PUSH2 0x2203 JUMPI DUP2 CALLDATALOAD DUP6 ADD PUSH2 0x21E9 DUP9 DUP3 PUSH2 0x229F JUMP JUMPDEST DUP5 MSTORE PUSH1 0x20 DUP5 ADD SWAP4 POP PUSH1 0x20 DUP4 ADD SWAP3 POP POP PUSH1 0x1 DUP2 ADD SWAP1 POP PUSH2 0x21D3 JUMP JUMPDEST POP POP POP SWAP4 SWAP3 POP POP POP JUMP JUMPDEST PUSH1 0x0 PUSH2 0x2220 PUSH2 0x221B DUP5 PUSH2 0x2EE4 JUMP JUMPDEST PUSH2 0x2E87 JUMP JUMPDEST SWAP1 POP DUP3 DUP2 MSTORE PUSH1 0x20 DUP2 ADD DUP5 DUP5 DUP5 ADD GT ISZERO PUSH2 0x2238 JUMPI PUSH1 0x0 DUP1 REVERT JUMPDEST PUSH2 0x2243 DUP5 DUP3 DUP6 PUSH2 0x30C9 JUMP JUMPDEST POP SWAP4 SWAP3 POP POP POP JUMP JUMPDEST PUSH1 0x0 DUP2 CALLDATALOAD SWAP1 POP PUSH2 0x225A DUP2 PUSH2 0x324E JUMP JUMPDEST SWAP3 SWAP2 POP POP JUMP JUMPDEST PUSH1 0x0 DUP2 CALLDATALOAD SWAP1 POP PUSH2 0x226F DUP2 PUSH2 0x3265 JUMP JUMPDEST SWAP3 SWAP2 POP POP JUMP JUMPDEST PUSH1 0x0 DUP3 PUSH1 0x1F DUP4 ADD SLT PUSH2 0x2286 JUMPI PUSH1 0x0 DUP1 REVERT JUMPDEST DUP2 CALLDATALOAD PUSH2 0x2296 DUP5 DUP3 PUSH1 0x20 DUP7 ADD PUSH2 0x21B0 JUMP JUMPDEST SWAP2 POP POP SWAP3 SWAP2 POP POP JUMP JUMPDEST PUSH1 0x0 DUP3 PUSH1 0x1F DUP4 ADD SLT PUSH2 0x22B0 JUMPI PUSH1 0x0 DUP1 REVERT JUMPDEST DUP2 CALLDATALOAD PUSH2 0x22C0 DUP5 DUP3 PUSH1 0x20 DUP7 ADD PUSH2 0x220D JUMP JUMPDEST SWAP2 POP POP SWAP3 SWAP2 POP POP JUMP JUMPDEST PUSH1 0x0 DUP2 CALLDATALOAD SWAP1 POP PUSH2 0x22D8 DUP2 PUSH2 0x327C JUMP JUMPDEST SWAP3 SWAP2 POP POP JUMP JUMPDEST PUSH1 0x0 PUSH1 0x20 DUP3 DUP5 SUB SLT ISZERO PUSH2 0x22F0 JUMPI PUSH1 0x0 DUP1 REVERT JUMPDEST PUSH1 0x0 PUSH2 0x22FE DUP5 DUP3 DUP6 ADD PUSH2 0x224B JUMP JUMPDEST SWAP2 POP POP SWAP3 SWAP2 POP POP JUMP JUMPDEST PUSH1 0x0 PUSH1 0x20 DUP3 DUP5 SUB SLT ISZERO PUSH2 0x2319 JUMPI PUSH1 0x0 DUP1 REVERT JUMPDEST PUSH1 0x0 PUSH2 0x2327 DUP5 DUP3 DUP6 ADD PUSH2 0x2260 JUMP JUMPDEST SWAP2 POP POP SWAP3 SWAP2 POP POP JUMP JUMPDEST PUSH1 0x0 DUP1 PUSH1 0x40 DUP4 DUP6 SUB SLT ISZERO PUSH2 0x2343 JUMPI PUSH1 0x0 DUP1 REVERT JUMPDEST PUSH1 0x0 PUSH2 0x2351 DUP6 DUP3 DUP7 ADD PUSH2 0x224B JUMP JUMPDEST SWAP3 POP POP PUSH1 0x20 PUSH2 0x2362 DUP6 DUP3 DUP7 ADD PUSH2 0x22C9 JUMP JUMPDEST SWAP2 POP POP SWAP3 POP SWAP3 SWAP1 POP JUMP JUMPDEST PUSH1 0x0 PUSH1 0x20 DUP3 DUP5 SUB SLT ISZERO PUSH2 0x237E JUMPI PUSH1 0x0 DUP1 REVERT JUMPDEST PUSH1 0x0 DUP3 ADD CALLDATALOAD PUSH8 0xFFFFFFFFFFFFFFFF DUP2 GT ISZERO PUSH2 0x2398 JUMPI PUSH1 0x0 DUP1 REVERT JUMPDEST PUSH2 0x23A4 DUP5 DUP3 DUP6 ADD PUSH2 0x229F JUMP JUMPDEST SWAP2 POP POP SWAP3 SWAP2 POP POP JUMP JUMPDEST PUSH1 0x0 PUSH1 0x20 DUP3 DUP5 SUB SLT ISZERO PUSH2 0x23BF JUMPI PUSH1 0x0 DUP1 REVERT JUMPDEST PUSH1 0x0 PUSH2 0x23CD DUP5 DUP3 DUP6 ADD PUSH2 0x22C9 JUMP JUMPDEST SWAP2 POP POP SWAP3 SWAP2 POP POP JUMP JUMPDEST PUSH1 0x0 DUP1 PUSH1 0x40 DUP4 DUP6 SUB SLT ISZERO PUSH2 0x23E9 JUMPI PUSH1 0x0 DUP1 REVERT JUMPDEST PUSH1 0x0 PUSH2 0x23F7 DUP6 DUP3 DUP7 ADD PUSH2 0x22C9 JUMP JUMPDEST SWAP3 POP POP PUSH1 0x20 PUSH2 0x2408 DUP6 DUP3 DUP7 ADD PUSH2 0x224B JUMP JUMPDEST SWAP2 POP POP SWAP3 POP SWAP3 SWAP1 POP JUMP JUMPDEST PUSH1 0x0 DUP1 PUSH1 0x40 DUP4 DUP6 SUB SLT ISZERO PUSH2 0x2425 JUMPI PUSH1 0x0 DUP1 REVERT JUMPDEST PUSH1 0x0 PUSH2 0x2433 DUP6 DUP3 DUP7 ADD PUSH2 0x22C9 JUMP JUMPDEST SWAP3 POP POP PUSH1 0x20 DUP4 ADD CALLDATALOAD PUSH8 0xFFFFFFFFFFFFFFFF DUP2 GT ISZERO PUSH2 0x2450 JUMPI PUSH1 0x0 DUP1 REVERT JUMPDEST PUSH2 0x245C DUP6 DUP3 DUP7 ADD PUSH2 0x229F JUMP JUMPDEST SWAP2 POP POP SWAP3 POP SWAP3 SWAP1 POP JUMP JUMPDEST PUSH1 0x0 DUP1 PUSH1 0x0 DUP1 PUSH1 0x80 DUP6 DUP8 SUB SLT ISZERO PUSH2 0x247C JUMPI PUSH1 0x0 DUP1 REVERT JUMPDEST PUSH1 0x0 PUSH2 0x248A DUP8 DUP3 DUP9 ADD PUSH2 0x22C9 JUMP JUMPDEST SWAP5 POP POP PUSH1 0x20 DUP6 ADD CALLDATALOAD PUSH8 0xFFFFFFFFFFFFFFFF DUP2 GT ISZERO PUSH2 0x24A7 JUMPI PUSH1 0x0 DUP1 REVERT JUMPDEST PUSH2 0x24B3 DUP8 DUP3 DUP9 ADD PUSH2 0x229F JUMP JUMPDEST SWAP4 POP POP PUSH1 0x40 DUP6 ADD CALLDATALOAD PUSH8 0xFFFFFFFFFFFFFFFF DUP2 GT ISZERO PUSH2 0x24D0 JUMPI PUSH1 0x0 DUP1 REVERT JUMPDEST PUSH2 0x24DC DUP8 DUP3 DUP9 ADD PUSH2 0x229F JUMP JUMPDEST SWAP3 POP POP PUSH1 0x60 DUP6 ADD CALLDATALOAD PUSH8 0xFFFFFFFFFFFFFFFF DUP2 GT ISZERO PUSH2 0x24F9 JUMPI PUSH1 0x0 DUP1 REVERT JUMPDEST PUSH2 0x2505 DUP8 DUP3 DUP9 ADD PUSH2 0x2275 JUMP JUMPDEST SWAP2 POP POP SWAP3 SWAP6 SWAP2 SWAP5 POP SWAP3 POP JUMP JUMPDEST PUSH1 0x0 DUP1 PUSH1 0x40 DUP4 DUP6 SUB SLT ISZERO PUSH2 0x2524 JUMPI PUSH1 0x0 DUP1 REVERT JUMPDEST PUSH1 0x0 PUSH2 0x2532 DUP6 DUP3 DUP7 ADD PUSH2 0x22C9 JUMP JUMPDEST SWAP3 POP POP PUSH1 0x20 PUSH2 0x2543 DUP6 DUP3 DUP7 ADD PUSH2 0x22C9 JUMP JUMPDEST SWAP2 POP POP SWAP3 POP SWAP3 SWAP1 POP JUMP JUMPDEST PUSH1 0x0 PUSH2 0x2559 DUP4 DUP4 PUSH2 0x25F4 JUMP JUMPDEST SWAP1 POP SWAP3 SWAP2 POP POP JUMP JUMPDEST PUSH2 0x256A DUP2 PUSH2 0x306F JUMP JUMPDEST DUP3 MSTORE POP POP JUMP JUMPDEST PUSH1 0x0 PUSH2 0x257B DUP3 PUSH2 0x2F24 JUMP JUMPDEST PUSH2 0x2585 DUP2 DUP6 PUSH2 0x2F47 JUMP JUMPDEST SWAP4 POP DUP4 PUSH1 0x20 DUP3 MUL DUP6 ADD PUSH2 0x2597 DUP6 PUSH2 0x2F14 JUMP JUMPDEST DUP1 PUSH1 0x0 JUMPDEST DUP6 DUP2 LT ISZERO PUSH2 0x25D3 JUMPI DUP5 DUP5 SUB DUP10 MSTORE DUP2 MLOAD PUSH2 0x25B4 DUP6 DUP3 PUSH2 0x254D JUMP JUMPDEST SWAP5 POP PUSH2 0x25BF DUP4 PUSH2 0x2F3A JUMP JUMPDEST SWAP3 POP PUSH1 0x20 DUP11 ADD SWAP10 POP POP PUSH1 0x1 DUP2 ADD SWAP1 POP PUSH2 0x259B JUMP JUMPDEST POP DUP3 SWAP8 POP DUP8 SWAP6 POP POP POP POP POP POP SWAP3 SWAP2 POP POP JUMP JUMPDEST PUSH2 0x25EE DUP2 PUSH2 0x3093 JUMP JUMPDEST DUP3 MSTORE POP POP JUMP JUMPDEST PUSH1 0x0 PUSH2 0x25FF DUP3 PUSH2 0x2F2F JUMP JUMPDEST PUSH2 0x2609 DUP2 DUP6 PUSH2 0x2F58 JUMP JUMPDEST SWAP4 POP PUSH2 0x2619 DUP2 DUP6 PUSH1 0x20 DUP7 ADD PUSH2 0x30D8 JUMP JUMPDEST PUSH2 0x2622 DUP2 PUSH2 0x323D JUMP JUMPDEST DUP5 ADD SWAP2 POP POP SWAP3 SWAP2 POP POP JUMP JUMPDEST PUSH1 0x0 PUSH2 0x2638 DUP3 PUSH2 0x2F2F JUMP JUMPDEST PUSH2 0x2642 DUP2 DUP6 PUSH2 0x2F69 JUMP JUMPDEST SWAP4 POP PUSH2 0x2652 DUP2 DUP6 PUSH1 0x20 DUP7 ADD PUSH2 0x30D8 JUMP JUMPDEST PUSH2 0x265B DUP2 PUSH2 0x323D JUMP JUMPDEST DUP5 ADD SWAP2 POP POP SWAP3 SWAP2 POP POP JUMP JUMPDEST PUSH1 0x0 PUSH2 0x2673 PUSH1 0x22 DUP4 PUSH2 0x2F7A JUMP JUMPDEST SWAP2 POP PUSH32 0x43616C6C657220697320616C726561647920696E2074686520636F6D6D697474 PUSH1 0x0 DUP4 ADD MSTORE PUSH32 0x6565000000000000000000000000000000000000000000000000000000000000 PUSH1 0x20 DUP4 ADD MSTORE PUSH1 0x40 DUP3 ADD SWAP1 POP SWAP2 SWAP1 POP JUMP JUMPDEST PUSH1 0x0 PUSH2 0x26D9 PUSH1 0x19 DUP4 PUSH2 0x2F7A JUMP JUMPDEST SWAP2 POP PUSH32 0x436F6D6D6974746565206973206E6F7420696E20706C61636500000000000000 PUSH1 0x0 DUP4 ADD MSTORE PUSH1 0x20 DUP3 ADD SWAP1 POP SWAP2 SWAP1 POP JUMP JUMPDEST PUSH1 0x0 PUSH2 0x2719 PUSH1 0x17 DUP4 PUSH2 0x2F7A JUMP JUMPDEST SWAP2 POP PUSH32 0x43616C6C6572206973206E6F7420746865206F776E6572000000000000000000 PUSH1 0x0 DUP4 ADD MSTORE PUSH1 0x20 DUP3 ADD SWAP1 POP SWAP2 SWAP1 POP JUMP JUMPDEST PUSH1 0x0 PUSH2 0x2759 PUSH1 0xE DUP4 PUSH2 0x2F7A JUMP JUMPDEST SWAP2 POP PUSH32 0x4E6F7420656E6F75676820666565000000000000000000000000000000000000 PUSH1 0x0 DUP4 ADD MSTORE PUSH1 0x20 DUP3 ADD SWAP1 POP SWAP2 SWAP1 POP JUMP JUMPDEST PUSH1 0x0 PUSH2 0x2799 PUSH1 0x15 DUP4 PUSH2 0x2F7A JUMP JUMPDEST SWAP2 POP PUSH32 0x4E6F207265776172647320746F20636F6C6C6563740000000000000000000000 PUSH1 0x0 DUP4 ADD MSTORE PUSH1 0x20 DUP3 ADD SWAP1 POP SWAP2 SWAP1 POP JUMP JUMPDEST PUSH1 0x0 PUSH2 0x27D9 PUSH1 0x11 DUP4 PUSH2 0x2F7A JUMP JUMPDEST SWAP2 POP PUSH32 0x436F6D6D69747465652069732066756C6C000000000000000000000000000000 PUSH1 0x0 DUP4 ADD MSTORE PUSH1 0x20 DUP3 ADD SWAP1 POP SWAP2 SWAP1 POP JUMP JUMPDEST PUSH1 0x0 PUSH2 0x2819 PUSH1 0x27 DUP4 PUSH2 0x2F7A JUMP JUMPDEST SWAP2 POP PUSH32 0x4469737075746564206D656D626572206973206E6F7420696E2074686520636F PUSH1 0x0 DUP4 ADD MSTORE PUSH32 0x6D6D697474656500000000000000000000000000000000000000000000000000 PUSH1 0x20 DUP4 ADD MSTORE PUSH1 0x40 DUP3 ADD SWAP1 POP SWAP2 SWAP1 POP JUMP JUMPDEST PUSH1 0x0 PUSH2 0x287F PUSH1 0x45 DUP4 PUSH2 0x2F7A JUMP JUMPDEST SWAP2 POP PUSH32 0x596F75207374696C6C2068617665207461736B732C20706C656173652066696E PUSH1 0x0 DUP4 ADD MSTORE PUSH32 0x697368206578697374696E67207461736B73206F722064656C65676174652074 PUSH1 0x20 DUP4 ADD MSTORE PUSH32 0x61736B732E000000000000000000000000000000000000000000000000000000 PUSH1 0x40 DUP4 ADD MSTORE PUSH1 0x60 DUP3 ADD SWAP1 POP SWAP2 SWAP1 POP JUMP JUMPDEST PUSH1 0x0 PUSH2 0x290B PUSH1 0x25 DUP4 PUSH2 0x2F7A JUMP JUMPDEST SWAP2 POP PUSH32 0x44656372797074696F6E2074696D65206D75737420626520696E207468652066 PUSH1 0x0 DUP4 ADD MSTORE PUSH32 0x7574757265000000000000000000000000000000000000000000000000000000 PUSH1 0x20 DUP4 ADD MSTORE PUSH1 0x40 DUP3 ADD SWAP1 POP SWAP2 SWAP1 POP JUMP JUMPDEST PUSH1 0x0 PUSH2 0x2971 PUSH1 0x3C DUP4 PUSH2 0x2F7A JUMP JUMPDEST SWAP2 POP PUSH32 0x43616C6C65722068617320616C7265616479207265706F727465642074686973 PUSH1 0x0 DUP4 ADD MSTORE PUSH32 0x206D656D62657220666F722074686973207472616E73616374696F6E00000000 PUSH1 0x20 DUP4 ADD MSTORE PUSH1 0x40 DUP3 ADD SWAP1 POP SWAP2 SWAP1 POP JUMP JUMPDEST PUSH1 0x0 PUSH2 0x29D7 PUSH1 0x1B DUP4 PUSH2 0x2F7A JUMP JUMPDEST SWAP2 POP PUSH32 0x44656372797074696F6E2074696D65206E6F7420726561636865640000000000 PUSH1 0x0 DUP4 ADD MSTORE PUSH1 0x20 DUP3 ADD SWAP1 POP SWAP2 SWAP1 POP JUMP JUMPDEST PUSH1 0x0 PUSH2 0x2A17 PUSH1 0x20 DUP4 PUSH2 0x2F7A JUMP JUMPDEST SWAP2 POP PUSH32 0x43616C6C6572206973206E6F74206120636F6D6D6974746565206D656D626572 PUSH1 0x0 DUP4 ADD MSTORE PUSH1 0x20 DUP3 ADD SWAP1 POP SWAP2 SWAP1 POP JUMP JUMPDEST PUSH1 0x0 PUSH2 0x2A57 PUSH1 0x16 DUP4 PUSH2 0x2F7A JUMP JUMPDEST SWAP2 POP PUSH32 0x496E76616C6964207472616E73616374696F6E20494400000000000000000000 PUSH1 0x0 DUP4 ADD MSTORE PUSH1 0x20 DUP3 ADD SWAP1 POP SWAP2 SWAP1 POP JUMP JUMPDEST PUSH1 0x0 PUSH2 0x2A97 PUSH1 0x12 DUP4 PUSH2 0x2F7A JUMP JUMPDEST SWAP2 POP PUSH32 0x4E6F7420656E6F756768206465706F7369740000000000000000000000000000 PUSH1 0x0 DUP4 ADD MSTORE PUSH1 0x20 DUP3 ADD SWAP1 POP SWAP2 SWAP1 POP JUMP JUMPDEST PUSH2 0x2AD3 DUP2 PUSH2 0x30BF JUMP JUMPDEST DUP3 MSTORE POP POP JUMP JUMPDEST PUSH1 0x0 PUSH1 0x20 DUP3 ADD SWAP1 POP PUSH2 0x2AEE PUSH1 0x0 DUP4 ADD DUP5 PUSH2 0x2561 JUMP JUMPDEST SWAP3 SWAP2 POP POP JUMP JUMPDEST PUSH1 0x0 PUSH1 0x40 DUP3 ADD SWAP1 POP PUSH2 0x2B09 PUSH1 0x0 DUP4 ADD DUP6 PUSH2 0x2561 JUMP JUMPDEST PUSH2 0x2B16 PUSH1 0x20 DUP4 ADD DUP5 PUSH2 0x2561 JUMP JUMPDEST SWAP4 SWAP3 POP POP POP JUMP JUMPDEST PUSH1 0x0 PUSH1 0x60 DUP3 ADD SWAP1 POP PUSH2 0x2B32 PUSH1 0x0 DUP4 ADD DUP7 PUSH2 0x2561 JUMP JUMPDEST PUSH2 0x2B3F PUSH1 0x20 DUP4 ADD DUP6 PUSH2 0x2ACA JUMP JUMPDEST DUP2 DUP2 SUB PUSH1 0x40 DUP4 ADD MSTORE PUSH2 0x2B51 DUP2 DUP5 PUSH2 0x262D JUMP JUMPDEST SWAP1 POP SWAP5 SWAP4 POP POP POP POP JUMP JUMPDEST PUSH1 0x0 PUSH1 0x20 DUP3 ADD SWAP1 POP PUSH2 0x2B70 PUSH1 0x0 DUP4 ADD DUP5 PUSH2 0x25E5 JUMP JUMPDEST SWAP3 SWAP2 POP POP JUMP JUMPDEST PUSH1 0x0 PUSH1 0x40 DUP3 ADD SWAP1 POP DUP2 DUP2 SUB PUSH1 0x0 DUP4 ADD MSTORE PUSH2 0x2B90 DUP2 DUP6 PUSH2 0x262D JUMP JUMPDEST SWAP1 POP PUSH2 0x2B9F PUSH1 0x20 DUP4 ADD DUP5 PUSH2 0x2ACA JUMP JUMPDEST SWAP4 SWAP3 POP POP POP JUMP JUMPDEST PUSH1 0x0 PUSH1 0x20 DUP3 ADD SWAP1 POP DUP2 DUP2 SUB PUSH1 0x0 DUP4 ADD MSTORE PUSH2 0x2BBF DUP2 PUSH2 0x2666 JUMP JUMPDEST SWAP1 POP SWAP2 SWAP1 POP JUMP JUMPDEST PUSH1 0x0 PUSH1 0x20 DUP3 ADD SWAP1 POP DUP2 DUP2 SUB PUSH1 0x0 DUP4 ADD MSTORE PUSH2 0x2BDF DUP2 PUSH2 0x26CC JUMP JUMPDEST SWAP1 POP SWAP2 SWAP1 POP JUMP JUMPDEST PUSH1 0x0 PUSH1 0x20 DUP3 ADD SWAP1 POP DUP2 DUP2 SUB PUSH1 0x0 DUP4 ADD MSTORE PUSH2 0x2BFF DUP2 PUSH2 0x270C JUMP JUMPDEST SWAP1 POP SWAP2 SWAP1 POP JUMP JUMPDEST PUSH1 0x0 PUSH1 0x20 DUP3 ADD SWAP1 POP DUP2 DUP2 SUB PUSH1 0x0 DUP4 ADD MSTORE PUSH2 0x2C1F DUP2 PUSH2 0x274C JUMP JUMPDEST SWAP1 POP SWAP2 SWAP1 POP JUMP JUMPDEST PUSH1 0x0 PUSH1 0x20 DUP3 ADD SWAP1 POP DUP2 DUP2 SUB PUSH1 0x0 DUP4 ADD MSTORE PUSH2 0x2C3F DUP2 PUSH2 0x278C JUMP JUMPDEST SWAP1 POP SWAP2 SWAP1 POP JUMP JUMPDEST PUSH1 0x0 PUSH1 0x20 DUP3 ADD SWAP1 POP DUP2 DUP2 SUB PUSH1 0x0 DUP4 ADD MSTORE PUSH2 0x2C5F DUP2 PUSH2 0x27CC JUMP JUMPDEST SWAP1 POP SWAP2 SWAP1 POP JUMP JUMPDEST PUSH1 0x0 PUSH1 0x20 DUP3 ADD SWAP1 POP DUP2 DUP2 SUB PUSH1 0x0 DUP4 ADD MSTORE PUSH2 0x2C7F DUP2 PUSH2 0x280C JUMP JUMPDEST SWAP1 POP SWAP2 SWAP1 POP JUMP JUMPDEST PUSH1 0x0 PUSH1 0x20 DUP3 ADD SWAP1 POP DUP2 DUP2 SUB PUSH1 0x0 DUP4 ADD MSTORE PUSH2 0x2C9F DUP2 PUSH2 0x2872 JUMP JUMPDEST SWAP1 POP SWAP2 SWAP1 POP JUMP JUMPDEST PUSH1 0x0 PUSH1 0x20 DUP3 ADD SWAP1 POP DUP2 DUP2 SUB PUSH1 0x0 DUP4 ADD MSTORE PUSH2 0x2CBF DUP2 PUSH2 0x28FE JUMP JUMPDEST SWAP1 POP SWAP2 SWAP1 POP JUMP JUMPDEST PUSH1 0x0 PUSH1 0x20 DUP3 ADD SWAP1 POP DUP2 DUP2 SUB PUSH1 0x0 DUP4 ADD MSTORE PUSH2 0x2CDF DUP2 PUSH2 0x2964 JUMP JUMPDEST SWAP1 POP SWAP2 SWAP1 POP JUMP JUMPDEST PUSH1 0x0 PUSH1 0x20 DUP3 ADD SWAP1 POP DUP2 DUP2 SUB PUSH1 0x0 DUP4 ADD MSTORE PUSH2 0x2CFF DUP2 PUSH2 0x29CA JUMP JUMPDEST SWAP1 POP SWAP2 SWAP1 POP JUMP JUMPDEST PUSH1 0x0 PUSH1 0x20 DUP3 ADD SWAP1 POP DUP2 DUP2 SUB PUSH1 0x0 DUP4 ADD MSTORE PUSH2 0x2D1F DUP2 PUSH2 0x2A0A JUMP JUMPDEST SWAP1 POP SWAP2 SWAP1 POP JUMP JUMPDEST PUSH1 0x0 PUSH1 0x20 DUP3 ADD SWAP1 POP DUP2 DUP2 SUB PUSH1 0x0 DUP4 ADD MSTORE PUSH2 0x2D3F DUP2 PUSH2 0x2A4A JUMP JUMPDEST SWAP1 POP SWAP2 SWAP1 POP JUMP JUMPDEST PUSH1 0x0 PUSH1 0x20 DUP3 ADD SWAP1 POP DUP2 DUP2 SUB PUSH1 0x0 DUP4 ADD MSTORE PUSH2 0x2D5F DUP2 PUSH2 0x2A8A JUMP JUMPDEST SWAP1 POP SWAP2 SWAP1 POP JUMP JUMPDEST PUSH1 0x0 PUSH1 0x20 DUP3 ADD SWAP1 POP PUSH2 0x2D7B PUSH1 0x0 DUP4 ADD DUP5 PUSH2 0x2ACA JUMP JUMPDEST SWAP3 SWAP2 POP POP JUMP JUMPDEST PUSH1 0x0 PUSH1 0x40 DUP3 ADD SWAP1 POP PUSH2 0x2D96 PUSH1 0x0 DUP4 ADD DUP6 PUSH2 0x2ACA JUMP JUMPDEST PUSH2 0x2DA3 PUSH1 0x20 DUP4 ADD DUP5 PUSH2 0x2ACA JUMP JUMPDEST SWAP4 SWAP3 POP POP POP JUMP JUMPDEST PUSH1 0x0 PUSH1 0x60 DUP3 ADD SWAP1 POP PUSH2 0x2DBF PUSH1 0x0 DUP4 ADD DUP7 PUSH2 0x2ACA JUMP JUMPDEST PUSH2 0x2DCC PUSH1 0x20 DUP4 ADD DUP6 PUSH2 0x2ACA JUMP JUMPDEST DUP2 DUP2 SUB PUSH1 0x40 DUP4 ADD MSTORE PUSH2 0x2DDE DUP2 DUP5 PUSH2 0x262D JUMP JUMPDEST SWAP1 POP SWAP5 SWAP4 POP POP POP POP JUMP JUMPDEST PUSH1 0x0 PUSH1 0xA0 DUP3 ADD SWAP1 POP PUSH2 0x2DFD PUSH1 0x0 DUP4 ADD DUP9 PUSH2 0x2ACA JUMP JUMPDEST PUSH2 0x2E0A PUSH1 0x20 DUP4 ADD DUP8 PUSH2 0x2ACA JUMP JUMPDEST DUP2 DUP2 SUB PUSH1 0x40 DUP4 ADD MSTORE PUSH2 0x2E1C DUP2 DUP7 PUSH2 0x262D JUMP JUMPDEST SWAP1 POP DUP2 DUP2 SUB PUSH1 0x60 DUP4 ADD MSTORE PUSH2 0x2E30 DUP2 DUP6 PUSH2 0x262D JUMP JUMPDEST SWAP1 POP DUP2 DUP2 SUB PUSH1 0x80 DUP4 ADD MSTORE PUSH2 0x2E44 DUP2 DUP5 PUSH2 0x2570 JUMP JUMPDEST SWAP1 POP SWAP7 SWAP6 POP POP POP POP POP POP JUMP JUMPDEST PUSH1 0x0 PUSH1 0x60 DUP3 ADD SWAP1 POP PUSH2 0x2E65 PUSH1 0x0 DUP4 ADD DUP7 PUSH2 0x2ACA JUMP JUMPDEST PUSH2 0x2E72 PUSH1 0x20 DUP4 ADD DUP6 PUSH2 0x2ACA JUMP JUMPDEST PUSH2 0x2E7F PUSH1 0x40 DUP4 ADD DUP5 PUSH2 0x2ACA JUMP JUMPDEST SWAP5 SWAP4 POP POP POP POP JUMP JUMPDEST PUSH1 0x0 PUSH1 0x40 MLOAD SWAP1 POP DUP2 DUP2 ADD DUP2 DUP2 LT PUSH8 0xFFFFFFFFFFFFFFFF DUP3 GT OR ISZERO PUSH2 0x2EAE JUMPI PUSH2 0x2EAD PUSH2 0x320E JUMP JUMPDEST JUMPDEST DUP1 PUSH1 0x40 MSTORE POP SWAP2 SWAP1 POP JUMP JUMPDEST PUSH1 0x0 PUSH8 0xFFFFFFFFFFFFFFFF DUP3 GT ISZERO PUSH2 0x2ED3 JUMPI PUSH2 0x2ED2 PUSH2 0x320E JUMP JUMPDEST JUMPDEST PUSH1 0x20 DUP3 MUL SWAP1 POP PUSH1 0x20 DUP2 ADD SWAP1 POP SWAP2 SWAP1 POP JUMP JUMPDEST PUSH1 0x0 PUSH8 0xFFFFFFFFFFFFFFFF DUP3 GT ISZERO PUSH2 0x2EFF JUMPI PUSH2 0x2EFE PUSH2 0x320E JUMP JUMPDEST JUMPDEST PUSH1 0x1F NOT PUSH1 0x1F DUP4 ADD AND SWAP1 POP PUSH1 0x20 DUP2 ADD SWAP1 POP SWAP2 SWAP1 POP JUMP JUMPDEST PUSH1 0x0 DUP2 SWAP1 POP PUSH1 0x20 DUP3 ADD SWAP1 POP SWAP2 SWAP1 POP JUMP JUMPDEST PUSH1 0x0 DUP2 MLOAD SWAP1 POP SWAP2 SWAP1 POP JUMP JUMPDEST PUSH1 0x0 DUP2 MLOAD SWAP1 POP SWAP2 SWAP1 POP JUMP JUMPDEST PUSH1 0x0 PUSH1 0x20 DUP3 ADD SWAP1 POP SWAP2 SWAP1 POP JUMP JUMPDEST PUSH1 0x0 DUP3 DUP3 MSTORE PUSH1 0x20 DUP3 ADD SWAP1 POP SWAP3 SWAP2 POP POP JUMP JUMPDEST PUSH1 0x0 DUP3 DUP3 MSTORE PUSH1 0x20 DUP3 ADD SWAP1 POP SWAP3 SWAP2 POP POP JUMP JUMPDEST PUSH1 0x0 DUP3 DUP3 MSTORE PUSH1 0x20 DUP3 ADD SWAP1 POP SWAP3 SWAP2 POP POP JUMP JUMPDEST PUSH1 0x0 DUP3 DUP3 MSTORE PUSH1 0x20 DUP3 ADD SWAP1 POP SWAP3 SWAP2 POP POP JUMP JUMPDEST PUSH1 0x0 PUSH2 0x2F96 DUP3 PUSH2 0x30BF JUMP JUMPDEST SWAP2 POP PUSH2 0x2FA1 DUP4 PUSH2 0x30BF JUMP JUMPDEST SWAP3 POP DUP3 PUSH32 0xFFFFFFFFFFFFFFFFFFFFFFFFFFFFFFFFFFFFFFFFFFFFFFFFFFFFFFFFFFFFFFFF SUB DUP3 GT ISZERO PUSH2 0x2FD6 JUMPI PUSH2 0x2FD5 PUSH2 0x31B0 JUMP JUMPDEST JUMPDEST DUP3 DUP3 ADD SWAP1 POP SWAP3 SWAP2 POP POP JUMP JUMPDEST PUSH1 0x0 PUSH2 0x2FEC DUP3 PUSH2 0x30BF JUMP JUMPDEST SWAP2 POP PUSH2 0x2FF7 DUP4 PUSH2 0x30BF JUMP JUMPDEST SWAP3 POP DUP2 PUSH32 0xFFFFFFFFFFFFFFFFFFFFFFFFFFFFFFFFFFFFFFFFFFFFFFFFFFFFFFFFFFFFFFFF DIV DUP4 GT DUP3 ISZERO ISZERO AND ISZERO PUSH2 0x3030 JUMPI PUSH2 0x302F PUSH2 0x31B0 JUMP JUMPDEST JUMPDEST DUP3 DUP3 MUL SWAP1 POP SWAP3 SWAP2 POP POP JUMP JUMPDEST PUSH1 0x0 PUSH2 0x3046 DUP3 PUSH2 0x30BF JUMP JUMPDEST SWAP2 POP PUSH2 0x3051 DUP4 PUSH2 0x30BF JUMP JUMPDEST SWAP3 POP DUP3 DUP3 LT ISZERO PUSH2 0x3064 JUMPI PUSH2 0x3063 PUSH2 0x31B0 JUMP JUMPDEST JUMPDEST DUP3 DUP3 SUB SWAP1 POP SWAP3 SWAP2 POP POP JUMP JUMPDEST PUSH1 0x0 PUSH2 0x307A DUP3 PUSH2 0x309F JUMP JUMPDEST SWAP1 POP SWAP2 SWAP1 POP JUMP JUMPDEST PUSH1 0x0 PUSH2 0x308C DUP3 PUSH2 0x309F JUMP JUMPDEST SWAP1 POP SWAP2 SWAP1 POP JUMP JUMPDEST PUSH1 0x0 DUP2 ISZERO ISZERO SWAP1 POP SWAP2 SWAP1 POP JUMP JUMPDEST PUSH1 0x0 PUSH20 0xFFFFFFFFFFFFFFFFFFFFFFFFFFFFFFFFFFFFFFFF DUP3 AND SWAP1 POP SWAP2 SWAP1 POP JUMP JUMPDEST PUSH1 0x0 DUP2 SWAP1 POP SWAP2 SWAP1 POP JUMP JUMPDEST DUP3 DUP2 DUP4 CALLDATACOPY PUSH1 0x0 DUP4 DUP4 ADD MSTORE POP POP POP JUMP JUMPDEST PUSH1 0x0 JUMPDEST DUP4 DUP2 LT ISZERO PUSH2 0x30F6 JUMPI DUP1 DUP3 ADD MLOAD DUP2 DUP5 ADD MSTORE PUSH1 0x20 DUP2 ADD SWAP1 POP PUSH2 0x30DB JUMP JUMPDEST DUP4 DUP2 GT ISZERO PUSH2 0x3105 JUMPI PUSH1 0x0 DUP5 DUP5 ADD MSTORE JUMPDEST POP POP POP POP JUMP JUMPDEST PUSH1 0x0 PUSH2 0x3116 DUP3 PUSH2 0x30BF JUMP JUMPDEST SWAP2 POP PUSH1 0x0 DUP3 EQ ISZERO PUSH2 0x312A JUMPI PUSH2 0x3129 PUSH2 0x31B0 JUMP JUMPDEST JUMPDEST PUSH1 0x1 DUP3 SUB SWAP1 POP SWAP2 SWAP1 POP JUMP JUMPDEST PUSH1 0x0 PUSH1 0x2 DUP3 DIV SWAP1 POP PUSH1 0x1 DUP3 AND DUP1 PUSH2 0x314D JUMPI PUSH1 0x7F DUP3 AND SWAP2 POP JUMPDEST PUSH1 0x20 DUP3 LT DUP2 EQ ISZERO PUSH2 0x3161 JUMPI PUSH2 0x3160 PUSH2 0x31DF JUMP JUMPDEST JUMPDEST POP SWAP2 SWAP1 POP JUMP JUMPDEST PUSH1 0x0 PUSH2 0x3172 DUP3 PUSH2 0x30BF JUMP JUMPDEST SWAP2 POP PUSH32 0xFFFFFFFFFFFFFFFFFFFFFFFFFFFFFFFFFFFFFFFFFFFFFFFFFFFFFFFFFFFFFFFF DUP3 EQ ISZERO PUSH2 0x31A5 JUMPI PUSH2 0x31A4 PUSH2 0x31B0 JUMP JUMPDEST JUMPDEST PUSH1 0x1 DUP3 ADD SWAP1 POP SWAP2 SWAP1 POP JUMP JUMPDEST PUSH32 0x4E487B7100000000000000000000000000000000000000000000000000000000 PUSH1 0x0 MSTORE PUSH1 0x11 PUSH1 0x4 MSTORE PUSH1 0x24 PUSH1 0x0 REVERT JUMPDEST PUSH32 0x4E487B7100000000000000000000000000000000000000000000000000000000 PUSH1 0x0 MSTORE PUSH1 0x22 PUSH1 0x4 MSTORE PUSH1 0x24 PUSH1 0x0 REVERT JUMPDEST PUSH32 0x4E487B7100000000000000000000000000000000000000000000000000000000 PUSH1 0x0 MSTORE PUSH1 0x41 PUSH1 0x4 MSTORE PUSH1 0x24 PUSH1 0x0 REVERT JUMPDEST PUSH1 0x0 PUSH1 0x1F NOT PUSH1 0x1F DUP4 ADD AND SWAP1 POP SWAP2 SWAP1 POP JUMP JUMPDEST PUSH2 0x3257 DUP2 PUSH2 0x306F JUMP JUMPDEST DUP2 EQ PUSH2 0x3262 JUMPI PUSH1 0x0 DUP1 REVERT JUMPDEST POP JUMP JUMPDEST PUSH2 0x326E DUP2 PUSH2 0x3081 JUMP JUMPDEST DUP2 EQ PUSH2 0x3279 JUMPI PUSH1 0x0 DUP1 REVERT JUMPDEST POP JUMP JUMPDEST PUSH2 0x3285 DUP2 PUSH2 0x30BF JUMP JUMPDEST DUP2 EQ PUSH2 0x3290 JUMPI PUSH1 0x0 DUP1 REVERT JUMPDEST POP JUMP INVALID LOG2 PUSH5 0x6970667358 0x22 SLT KECCAK256 EXTCODEHASH 0x21 0xD7 DUP5 CALLDATACOPY DUP16 PUSH4 0x214AE415 0x2D 0x2D SWAP4 JUMPI 0xB8 ORIGIN 0x2A BALANCE 0xDE 0xFC 0x23 DUP8 PUSH2 0x7358 0xAC 0x25 0xAB PUSH21 0xF7D64736F6C634300080000330000000000000000 "
				},
				"gasEstimates": {
					"creation": {
						"codeDepositCost": "2600200",
						"executionCost": "78712",
						"totalCost": "2678912"
					},
					"external": {
						"DEPOSIT_AMOUNT()": "461",
						"FIXED_REWARD()": "352",
						"GAS_ESTIMATION()": "1195",
						"MAX_COMMITTEE_SIZE()": "440",
						"THRESHOLD()": "396",
						"TIME_TO_CONFIRM()": "462",
						"collectRewards()": "infinite",
						"committee(uint256)": "1561",
						"committeeSize()": "1240",
						"destroy(address)": "31347",
						"disputeShare(uint256,uint256)": "infinite",
						"disputedShares(uint256,uint256)": "infinite",
						"exitCommittee()": "infinite",
						"globalLatestConfirmedTime()": "1218",
						"indexCount()": "1197",
						"joinCommittee(bytes)": "infinite",
						"owner()": "1237",
						"publicKeys(address)": "infinite",
						"sendTimeLockTransaction(uint256,bytes,bytes,bytes[])": "infinite",
						"shareSubmitted(uint256,address)": "1831",
						"submitShare(uint256,bytes)": "infinite",
						"transactionCounter()": "1175",
						"transactions(uint256)": "infinite",
						"uncollectedRewards(address,uint256)": "infinite"
					},
					"internal": {
						"removeFromCommittee(address)": "infinite",
						"returnDeposit(address)": "infinite"
					}
				},
				"methodIdentifiers": {
					"DEPOSIT_AMOUNT()": "ec6925a7",
					"FIXED_REWARD()": "5968c4c0",
					"GAS_ESTIMATION()": "d89e421c",
					"MAX_COMMITTEE_SIZE()": "7f10792d",
					"THRESHOLD()": "785ffb37",
					"TIME_TO_CONFIRM()": "80a6d4f4",
					"collectRewards()": "70bb45b3",
					"committee(uint256)": "afe7fcf4",
					"committeeSize()": "9cf4364b",
					"destroy(address)": "00f55d9d",
					"disputeShare(uint256,uint256)": "e076cac4",
					"disputedShares(uint256,uint256)": "2ba1f592",
					"exitCommittee()": "d8e2ee0c",
					"globalLatestConfirmedTime()": "79697807",
					"indexCount()": "19a0bc4a",
					"joinCommittee(bytes)": "389311ff",
					"owner()": "8da5cb5b",
					"publicKeys(address)": "a3d6f9a9",
					"sendTimeLockTransaction(uint256,bytes,bytes,bytes[])": "98c89201",
					"shareSubmitted(uint256,address)": "d577c2c1",
					"submitShare(uint256,bytes)": "244e88d6",
					"transactionCounter()": "14e887e8",
					"transactions(uint256)": "9ace38c2",
					"uncollectedRewards(address,uint256)": "968e8f50"
				}
			},
			"storageLayout": {
				"storage": [
					{
						"astId": 5,
						"contract": "crypto-core/contracts/TimeLockEnc.sol:TimeLockEncryption",
						"label": "committee",
						"offset": 0,
						"slot": "0",
						"type": "t_mapping(t_uint256,t_address)"
					},
					{
						"astId": 10,
						"contract": "crypto-core/contracts/TimeLockEnc.sol:TimeLockEncryption",
						"label": "publicKeys",
						"offset": 0,
						"slot": "1",
						"type": "t_mapping(t_address,t_struct(CommitteeMember)69_storage)"
					},
					{
						"astId": 16,
						"contract": "crypto-core/contracts/TimeLockEnc.sol:TimeLockEncryption",
						"label": "uncollectedRewards",
						"offset": 0,
						"slot": "2",
						"type": "t_mapping(t_address,t_array(t_struct(RewardRecord)74_storage)dyn_storage)"
					},
					{
						"astId": 19,
						"contract": "crypto-core/contracts/TimeLockEnc.sol:TimeLockEncryption",
						"label": "globalLatestConfirmedTime",
						"offset": 0,
						"slot": "3",
						"type": "t_uint256"
					},
					{
						"astId": 23,
						"contract": "crypto-core/contracts/TimeLockEnc.sol:TimeLockEncryption",
						"label": "transactions",
						"offset": 0,
						"slot": "4",
						"type": "t_array(t_struct(TimeLockTransaction)81_storage)dyn_storage"
					},
					{
						"astId": 26,
						"contract": "crypto-core/contracts/TimeLockEnc.sol:TimeLockEncryption",
						"label": "transactionCounter",
						"offset": 0,
						"slot": "5",
						"type": "t_uint256"
					},
					{
						"astId": 32,
						"contract": "crypto-core/contracts/TimeLockEnc.sol:TimeLockEncryption",
						"label": "shareSubmitted",
						"offset": 0,
						"slot": "6",
						"type": "t_mapping(t_uint256,t_mapping(t_address,t_bool))"
					},
					{
						"astId": 38,
						"contract": "crypto-core/contracts/TimeLockEnc.sol:TimeLockEncryption",
						"label": "disputedShares",
						"offset": 0,
						"slot": "7",
						"type": "t_mapping(t_uint256,t_array(t_struct(DisputedShare)86_storage)dyn_storage)"
					},
					{
						"astId": 41,
						"contract": "crypto-core/contracts/TimeLockEnc.sol:TimeLockEncryption",
						"label": "committeeSize",
						"offset": 0,
						"slot": "8",
						"type": "t_uint256"
					},
					{
						"astId": 44,
						"contract": "crypto-core/contracts/TimeLockEnc.sol:TimeLockEncryption",
						"label": "indexCount",
						"offset": 0,
						"slot": "9",
						"type": "t_uint256"
					},
					{
						"astId": 47,
						"contract": "crypto-core/contracts/TimeLockEnc.sol:TimeLockEncryption",
						"label": "GAS_ESTIMATION",
						"offset": 0,
						"slot": "10",
						"type": "t_uint256"
					},
					{
						"astId": 64,
						"contract": "crypto-core/contracts/TimeLockEnc.sol:TimeLockEncryption",
						"label": "owner",
						"offset": 0,
						"slot": "11",
						"type": "t_address"
					}
				],
				"types": {
					"t_address": {
						"encoding": "inplace",
						"label": "address",
						"numberOfBytes": "20"
					},
					"t_array(t_struct(DisputedShare)86_storage)dyn_storage": {
						"base": "t_struct(DisputedShare)86_storage",
						"encoding": "dynamic_array",
						"label": "struct TimeLockEncryption.DisputedShare[]",
						"numberOfBytes": "32"
					},
					"t_array(t_struct(RewardRecord)74_storage)dyn_storage": {
						"base": "t_struct(RewardRecord)74_storage",
						"encoding": "dynamic_array",
						"label": "struct TimeLockEncryption.RewardRecord[]",
						"numberOfBytes": "32"
					},
					"t_array(t_struct(TimeLockTransaction)81_storage)dyn_storage": {
						"base": "t_struct(TimeLockTransaction)81_storage",
						"encoding": "dynamic_array",
						"label": "struct TimeLockEncryption.TimeLockTransaction[]",
						"numberOfBytes": "32"
					},
					"t_bool": {
						"encoding": "inplace",
						"label": "bool",
						"numberOfBytes": "1"
					},
					"t_bytes_storage": {
						"encoding": "bytes",
						"label": "bytes",
						"numberOfBytes": "32"
					},
					"t_mapping(t_address,t_array(t_struct(RewardRecord)74_storage)dyn_storage)": {
						"encoding": "mapping",
						"key": "t_address",
						"label": "mapping(address => struct TimeLockEncryption.RewardRecord[])",
						"numberOfBytes": "32",
						"value": "t_array(t_struct(RewardRecord)74_storage)dyn_storage"
					},
					"t_mapping(t_address,t_bool)": {
						"encoding": "mapping",
						"key": "t_address",
						"label": "mapping(address => bool)",
						"numberOfBytes": "32",
						"value": "t_bool"
					},
					"t_mapping(t_address,t_struct(CommitteeMember)69_storage)": {
						"encoding": "mapping",
						"key": "t_address",
						"label": "mapping(address => struct TimeLockEncryption.CommitteeMember)",
						"numberOfBytes": "32",
						"value": "t_struct(CommitteeMember)69_storage"
					},
					"t_mapping(t_uint256,t_address)": {
						"encoding": "mapping",
						"key": "t_uint256",
						"label": "mapping(uint256 => address)",
						"numberOfBytes": "32",
						"value": "t_address"
					},
					"t_mapping(t_uint256,t_array(t_struct(DisputedShare)86_storage)dyn_storage)": {
						"encoding": "mapping",
						"key": "t_uint256",
						"label": "mapping(uint256 => struct TimeLockEncryption.DisputedShare[])",
						"numberOfBytes": "32",
						"value": "t_array(t_struct(DisputedShare)86_storage)dyn_storage"
					},
					"t_mapping(t_uint256,t_mapping(t_address,t_bool))": {
						"encoding": "mapping",
						"key": "t_uint256",
						"label": "mapping(uint256 => mapping(address => bool))",
						"numberOfBytes": "32",
						"value": "t_mapping(t_address,t_bool)"
					},
					"t_struct(CommitteeMember)69_storage": {
						"encoding": "inplace",
						"label": "struct TimeLockEncryption.CommitteeMember",
						"members": [
							{
								"astId": 66,
								"contract": "crypto-core/contracts/TimeLockEnc.sol:TimeLockEncryption",
								"label": "publicKey",
								"offset": 0,
								"slot": "0",
								"type": "t_bytes_storage"
							},
							{
								"astId": 68,
								"contract": "crypto-core/contracts/TimeLockEnc.sol:TimeLockEncryption",
								"label": "index",
								"offset": 0,
								"slot": "1",
								"type": "t_uint256"
							}
						],
						"numberOfBytes": "64"
					},
					"t_struct(DisputedShare)86_storage": {
						"encoding": "inplace",
						"label": "struct TimeLockEncryption.DisputedShare",
						"members": [
							{
								"astId": 83,
								"contract": "crypto-core/contracts/TimeLockEnc.sol:TimeLockEncryption",
								"label": "reporter",
								"offset": 0,
								"slot": "0",
								"type": "t_address"
							},
							{
								"astId": 85,
								"contract": "crypto-core/contracts/TimeLockEnc.sol:TimeLockEncryption",
								"label": "member",
								"offset": 0,
								"slot": "1",
								"type": "t_address"
							}
						],
						"numberOfBytes": "64"
					},
					"t_struct(RewardRecord)74_storage": {
						"encoding": "inplace",
						"label": "struct TimeLockEncryption.RewardRecord",
						"members": [
							{
								"astId": 71,
								"contract": "crypto-core/contracts/TimeLockEnc.sol:TimeLockEncryption",
								"label": "timestamp",
								"offset": 0,
								"slot": "0",
								"type": "t_uint256"
							},
							{
								"astId": 73,
								"contract": "crypto-core/contracts/TimeLockEnc.sol:TimeLockEncryption",
								"label": "amount",
								"offset": 0,
								"slot": "1",
								"type": "t_uint256"
							}
						],
						"numberOfBytes": "64"
					},
					"t_struct(TimeLockTransaction)81_storage": {
						"encoding": "inplace",
						"label": "struct TimeLockEncryption.TimeLockTransaction",
						"members": [
							{
								"astId": 76,
								"contract": "crypto-core/contracts/TimeLockEnc.sol:TimeLockEncryption",
								"label": "id",
								"offset": 0,
								"slot": "0",
								"type": "t_uint256"
							},
							{
								"astId": 78,
								"contract": "crypto-core/contracts/TimeLockEnc.sol:TimeLockEncryption",
								"label": "decryptionTime",
								"offset": 0,
								"slot": "1",
								"type": "t_uint256"
							},
							{
								"astId": 80,
								"contract": "crypto-core/contracts/TimeLockEnc.sol:TimeLockEncryption",
								"label": "sharesReceived",
								"offset": 0,
								"slot": "2",
								"type": "t_uint256"
							}
						],
						"numberOfBytes": "96"
					},
					"t_uint256": {
						"encoding": "inplace",
						"label": "uint256",
						"numberOfBytes": "32"
					}
				}
			},
			"userdoc": {
				"kind": "user",
				"methods": {},
				"version": 1
			}
		}
	}
}